:400000000080002011000000A1D00000A1D0000008B5044B1A6803F53F5302331A600DF041F800BFFA46004010B5054C237833B9044B13B10448AFF300800123237010BD4F
:40004000F082FF1F0000000080E10000084B10B51BB108480849AFF300800848036803B910BD074B002BFBD0BDE81040184700BF0000000080E10000F482FF1F0881FF1FAD
:400080000000000010B562B60DF0F4F90DF014FB0DF0A0FB0DF090FC0DF0FAF90DF056FD05200DF0E7FF00249C4B1C70204620210AF0B2FC9A4B1C6006E09A4AD15C9A4AE2
:4000C000D1540133964A1360964B1A78944B1B689A42F2D220200F210AF09EFC0022904B1A6007E08F4AD15C8F4A1A44917701338B4A13608B4B1A78894B1B689A42F1D25E
:400100002F200C210AF088FC0022854B1A6008E0844AD15C844A1A4482F82F100133804A1360804B1A787E4B1B689A42F0D2402020210AF071FC0022794B1A6008E0794AC6
:40014000D15C794A1A4482F843100133744A1360744B1A78724B1B689A42F0D2602009210AF05AFC6F4B1878431EDBB2082B14D800226B4B1A6008E001336A4AD15C6A4A7C
:400180001A4482F8D710664A1360654B1B68072BF2D9654B83F8D7000EE00122604B1A6006E0614A1A4482F8D73001335C4A13605B4B1B68082BF4D9802020210AF02CFC0C
:4001C0000022574B1A6008E0564AD15C564A1A4482F861100133524A1360524B1A78504B1B689A42F0D2A02020210AF015FC00224B4B1A6008E04B4AD15C4B4A1A4482F8A0
:400200007F100133464A1360464B1A78444B1B689A42F0D240F2C31002210AF0FDFB414B1B78012B03D13F4B5A78404B1A7040F2C51002210AF0F0FB3A4B1B78012B03D154
:40024000384B5A783A4B1A7040F2C11002210AF0E3FB344B1B78012B03D1324B5A78354B1A7040F2EE3002210AF0D6FB2D4B1B78012B03D12B4B5A782F4B1A704FF4DD708C
:4002800002210AF0C9FB274B1B78052B05D1254B5B7803F00F03294A13704FF41F7002210AF0BAFB1F4B1B78012B03D11D4B5A78234B1A7040F27A2002210AF0ADFB194B4C
:4002C0001B78012B03D1174B5A781E4B1A7040F27E2002210AF0A0FB124B1B78012B03D1104B5A78184B1A704FF47C7002210AF093FB0C4B1B78012B03D10A4B5A78134B69
:400300001A7040F29F2005210AF086FB054B187804282AD10122024B1A6020E05A86FF1F4883FF1F1485FF1F0087FF1F0B88FF1F5E86FF1FF387FF1F0B85FF1FF084FF1FE2
:400340006685FF1FFE86FF1F6A85FF1F6785FF1F9E4AD15C9E4AD15401339E4A13609D4B1B68042BF4D99A4B187040F26A400A210AF052FB0022974B1A6006E0934AD15C7A
:40038000954AD1540133934A1360904B1A78914B1B689A42F2D240F275400A210AF03CFB00228C4B1A6006E0884AD15C8B4AD1540133884A1360854B1A78864B1B689A42A9
:4003C000F2D24FF490600A210AF026FB0022814B1A6006E07D4AD15C814AD15401337D4A13607A4B1A787B4B1B689A42F2D240F28B400A210AF010FB0022764B1A6006E070
:40040000724AD15C774AD1540133724A13606F4B1A78704B1B689A42F2D240F28D4002210AF0FAFA00226B4B1A6006E0674AD15C6D4AD1540133674A1360644B1A78654B15
:400440001B689A42F2D240F25A2006210AF0E4FA5E4B1B78052B0AD15C4AD37803F00F0362490B70537903F00F03614A137040F2C71002210AF0D0FA544B1B78012B06D127
:400480005C4A1370514B5B7803F00F0353704FF4DE7002210AF0C0FA4C4B1B78012B05D14A4B5B7803F00F03534A137040F2632002210AF0B1FA454B1B78012B05D1434B8B
:4004C0005B7803F00F034D4A537040F2652002210AF0A2FA3D4B1B78012B05D13B4B5B7803F00F03464A53704FF4277003210AF093FA364B1B78022B06D1344B9B7843EA30
:400500000323404A138002E001223E4B1A804FF4767002210AF080FA2C4B1B78012B04D12A4B5A78384B5A7007E0374901230B704B704FF476700AF031FA40F28F400221BE
:400540000AF06AFA214B1B78012B04D11F4B5A782E4B5A7007E02D4901230B704B7040F28F400AF01BFA40F2D23006210AF054FA164B187805280FD10022164B1A6006E053
:40058000124AD15C224AD1540133124A1360114B1B689842F4D20CE01D4905230B7030234B708B70CB700B714B7140F2D2300AF0F5F94FF47D7002210AF02EFA034B1878BF
:4005C000012832D10022034B1A602AE01485FF1F0C81FF1F4883FF1FE484FF1F3C83FF1FA888FF1FF484FF1FA488FF1F3983FF1FF287FF1F0485FF1F6885FF1F5C86FF1FDC
:40060000FC86FF1FDE84FF1F2C83FF1F0888FF1F6085FF1F164AD15C164AD1540133164A1360154B1B689842F4D2144A537903F00F00137903F00F014FF47A7303FB01F3A3
:4006400042F2107101FB0033D07800F00F00642101FB0031937803F00F0303EB83035B000B44527802F00F021344054A136010BD1485FF1F5886FF1F4883FF1F6085FF1F1D
:400680000488FF1F10B5002456E005F0E7FA01280BD010B1022826D04EE064200DF0EAFC01204F2109F0D6F946E064200DF0E2FC234B187805F052FB06280FD1214B1878F9
:4006C00005F04CFB062809D101203C2109F0C2F902203C2109F0BEF901242DE00120552109F0B8F928E064200DF0C4FC144B187805F034FB06281BD1124B187805F02EFB61
:40070000062815D1104B187805F028FB06280FD10E4B187805F022FB062809D101204A2109F098F902204A2109F094F9022403E00120552109F08EF9002CA6D010BD00BF1A
:40074000EC87FF1F3483FF1F5885FF1F7085FF1F08B500230A4A13700A4A13704FF4FA700DF088FC01202E2109F074F94FF4FA700DF080FC02202E2109F06CF908BD00BFFA
:400780002E83FF1F0885FF1F38B5874B1B78A32B03F2D186DFE813F0A40028017F01CF1EC6014E0201036203CF1E0F04C8041D058A05FD0524061F07F208340862090C0A49
:4007C000960A2D0C730DE80E0310CF1ED213B8143115C01589163817F317001A6C1ADA1A331B7A1B1D1CE41CCF1EF01D601ECF1ECF1ECF1ECF1ECF1ECF1ECF1ECF1ECF1E69
:40080000CF1ECF1ECF1ECF1ECF1ECF1ECF1ECF1ECF1ECF1ECF1ECF1ECF1ECF1ECF1ECF1ECF1ECF1ECF1ECF1ECF1ECF1ECF1ECF1ECF1ECF1ECF1ECF1ECF1ECF1ECF1ECF1E18
:40084000CF1ECF1ECF1ECF1ECF1ECF1ECF1ECF1ECF1ECF1ECF1ECF1ECF1ECF1ECF1ECF1ECF1ECF1ECF1ECF1ECF1ECF1ECF1ECF1ECF1ECF1ECF1ECF1ECF1ECF1ECF1ECF1ED8
:40088000CF1ECF1ECF1ECF1ECF1ECF1ECF1ECF1ECF1ECF1EE119CF1ECF1ECF1ECF1ECF1ECF1ED718CF1EF118CF1ECF1ECF1ECF1ECF1ECF1ECF1ECF1ECF1ECF1ECF1ECF1E6D
:4008C000C719CF1ECF1EAC190A192519CF1ECF1ECF1ECF1ECF1ECF1E40195B1976199119324B1B78012B03D1314B1A782E4B1A70304B1B78012B06D12F4B1A782F4B1A7042
:4009000002222F4B1A700CF07FFF082843F013862C4B1B78DBB2AA2B60D12A4B9B79DBB2C32B5BD1274BDB79DBB23C2B56D1254BDB78DBB2562B02D0572B1FD04EE01B4BC3
:400940001B78012B04D11A4B1A78174B1A7008E00120632109F07EF80123194A1370124A1370144B1B78012B04D1134B1A78134B1A7033E00022114B1A702FE00B4B1B783D
:40098000012B04D10A4B1A78074B1A7002E00022054B1A70074B1B78012B15D1064B1A78064B1A701AE000BF2E83FF1FF087FF1F0A85FF1FE084FF1F2F83FF1F0885FF1F19
:4009C000F886FF1F188AFF1F0120632109F042F80222914B1A700122904B1A7064200DF049FB0CF03BFF38BD0CF00EFF082843F0A2858B4B1B78DBB2AA2B46D1884B9B7965
:400A0000DBB2C32B41D1864BDB79DBB23C2B3CD1834BDB78DBB25C2B0AD004D8452B0FD0592B18D031E07E2B20D0942B26D02CE00120492109F00EF802227A4B1A7024E0F1
:400A40000120252109F006F80022774B1A700F22744B1A7019E00120252108F0FBFF0022714B1A7027226F4B1A700EE001202E2108F0F0FF00226B4B1A7006E001202E21EC
:400A800008F0E8FF0022674B1A7064200DF0F2FA0CF0E4FE38BD0CF0B7FE082843F04B855F4B1B78DBB2AA2B36D15D4B9B79DBB2C32B31D15A4BDB79DBB23C2B2CD1584B69
:400AC000DB78DBB25F2B08D002D85E2B0DD023E07E2B12D0942B18D01EE001200B2108F0B9FF0A224F4B1A7016E001201D2108F0B1FF0B224B4B1A700EE001202E2108F054
:400B0000A9FF0022474B1A7006E00120632108F0A1FF0122434B1A7064200DF0ABFA0CF09DFE38BD0CF070FE082843F004853C4B1B78DBB2AA2B69D1394B9B79DBB2C32BA0
:400B400064D1374BDB79DBB23C2B5FD1374AD37823F00303D370324BDB78DBB23B2B3ED004D80F2B09D0102B1BD04FE07E2B3ED0942B44D0432B49D129E00120062108F0AE
:400B800069FF0022284B1A700120242108F09AFF264AD37843F00203D3700522214B1A7034E001200D2108F055FF00221E4B1A701F4B1A700120472108F084FF1B4AD378F8
:400BC00043F00103D3700522164B1A701EE00120072108F03FFF0622124B1A7016E001202E2108F037FF00220E4B1A700EE001202E2108F02FFF00220A4B1A7006E00120B8
:400C00000B2108F027FF0A22064B1A7064200DF031FA0CF023FE38BDF886FF1F0885FF1F188AFF1F2E83FF1F0C85FF1F6086FF1F3083FF1F0CF0E8FD082843F07C84914B2B
:400C40001B78DBB2AA2B40F0A2808E4B9B79DBB2C32B40F09C808B4BDB79DBB23C2B40F09680894B1B78894A1278013A93423EDC844AD278D2B2092A0FD80133DAB2824BE4
:400C80001A708048C178824B13443031D972C17830310120C9B208F015FF7A4BDB78DBB20A2B0BD1784B1A780132D2B21A70784B13443021D972012008F004FF714BDB786A
:400CC000DBB2512B13D1704B1B7883B1714A12786AB90133DAB26C4B1A706D4B13442C21D972012008F0EEFE01226A4B1A70654BDB78DBB20B2B1BD1634B1A783AB9012008
:400D0000052108F0A7FE0422634B1A7010E00120202108F0D7FE5C4B1B785D4A1A44D27A2C2A02D100215B4A1170013B564A1370544BDB78DBB20C2B29D1534B1B786BB11C
:400D4000564B1B7853B90120072108F083FE4E4B1A784F4BDA7206224F4B1A704A4B1B78ABB14E4B1B78012B11D10120702108F071FE474B1B7B4A490B7040F28D4009F00F
:400D80000DFE0022454B1A700E22434B1A7064200DF070F90CF062FD38BD0CF035FD082820D1384B1B78DBB2AA2B15D1354B9B79DBB2C32B10D1334BDB79DBB23C2B0BD12B
:400DC000304BDB78DBB27E2B06D101202E2108F041FE0022304B1A7064200DF04BF90CF03DFD38BD2F4B187804F0B8FF072843F0A28332200DF03EF92A4B187804F0C2FFDE
:400E00000146294B1870224BDB7813F003030DD0244A1078254A08F079FA38B901202E2108F018FE00221C4B1A7038BD1D4C207804F0A8FF1C4B1870207840F010000CF023
:400E4000AFFB0120082108F005FE0723124A1370174A13700122174B1A7038BD32200DF009F9104B187804F079FF0638052803F26283DFE810F08B00601B601B9500560072
:400E8000210000BF188AFF1F0C85FF1FF084FF1F6086FF1F3083FF1F2E83FF1F5A86FF1FA488FF1FEC87FF1F5F86FF1F6B86FF1F0A85FF1FF087FF1F64200DF0DBF8A94B38
:400EC000187804F0D3FF01280ED1A74B1B785BB9392108F0BFFD0022A44B1A7014200DF0C9F80D22A24B1A709E4B187804F0BEFF012843F020839C4B1B78012B43F01B831A
:400F00000C2108F0A7FD0024984B1C704FF4FA700DF0B0F801202E2108F09CFD944B1C7038BD64200DF0A6F88E4B187804F09EFF01280ED18C4B1B785BB9392108F08AFD2A
:400F400000228A4B1A7014200DF094F80D22884B1A70844B187804F089FF012843F0EB82814B1B78012B43F0E6820C2108F072FD00247E4B1C704FF4FA700DF07BF8012092
:400F80002E2108F067FD7A4B1C7038BD01202E2108F060FD0023754A1370754A137038BD32200DF067F801202E2108F053FD00226F4B1A7038BD0CF027FC082843F0BB825F
:400FC0006C4B1B78DBB2AA2B40F0A880694B9B79DBB2C32B40F0A280664BDB79DBB23C2B40F09C80644B1B78062B65D8614AD278D2B2092A10D80133DAB25F4B1A705D4836
:40100000C1785E4B1344303183F86510C17830310120C9B208F056FD564BDB78DBB20A2B0CD1554B1A780132D2B21A70534B1344302183F86510012008F044FD4D4BDB7824
:40104000DBB26A2B0CD14C4B1A780132D2B21A704A4B13442D2183F86510012008F032FD444BDB78DBB21A2B26D9424BDB78DBB2422B21D80022424B1A6019E03D4AD2781C
:40108000D2B240491944097A8A420DD13A490A780132D2B20A704133D9B2384B134483F86510012008F00EFD354A136801331360334B1B68192BE1D92E4BDB78DBB20B2B47
:4010C00015D12D4B1A7852B901202E2108F0C2FC00232A4A82F86530254A137007E00120202108F0EFFC244A1378013B1370214BDB78DBB20C2B11D11F4B1B7873B10120AC
:40110000052108F0A7FC1D4B1B4A127883F86520012283F883200422154B1A7064200CF0A9FF0CF09BFB38BD0CF06EFB082843F00282104B1B78DBB2AA2B44D10D4B9B797A
:40114000DBB2C32B3FD10B4BDB79DBB23C2B3AD1084BDB78DBB2392B16D07E2B2CD0382B31D11EE0EC87FF1FEF84FF1FF087FF1F2E83FF1F188AFF1F0C85FF1F6086FF1FBD
:401180004883FF1F0C81FF1F01200A2108F062FC0023B04A1370B04A13700922AF4B1A7011E00120052108F055FC0122AA4B1A700422AA4B1A7006E001202E2108F04AFCD1
:4011C0000022A64B1A7064200CF054FF0CF046FB38BD0120014609F075FD052840D90A200CF048FF0120212109F06CFD052837D9012009F07FFC012832D133200CF04CFB6E
:401200000120332109F0B8FC50B30022944B1A600AE0012009F01AFD924B1C4484F829008F4A1368013313608D4B1C68072CF0D90120132108F00EFC8A4CE37843F00403FC
:40124000E3704FF4FA700CF015FF01200E2108F001FC00237F4A137023710C227F4B1A700CF0D2FA082843F066817F4B1B78DBB2AA2B15D17C4B9B79DBB2C32B10D17A4BE1
:40128000DB79DBB23C2B0BD1774BDB78DBB23B2B06D10120492108F0DDFB02226F4B1A7064200CF0E7FE0CF0D9FA38BD0CF0ACFA082843F040816C4B1B78DBB2AA2B62D19A
:4012C000694B9B79DBB2C32B5DD1674BDB79DBB23C2B58D15F4B1B78052B25D8624AD278D2B2092A0FD80133DAB25A4B1A705E48C1785C4B134430311971C17830310120EA
:40130000C9B208F0DFFB584BDB78DBB20A2B0BD1504B1A780132D2B21A70524B134430211971012008F0CEFB4F4BDB78DBB20B2B12D1484B1A783AB90120052108F08AFB3E
:401340000422464B1A7007E00120202108F0BAFB404A1378013B1370434BDB78DBB20C2B11D13C4B1B7873B13E4B5B79302B0AD00120052108F06EFB364B1A78394B1A7141
:401380000422364B1A7064200CF074FE0CF066FA38BD364B5878364B19780022354B1B780AF0C6FA344B5B787BB901200C2108F051FB4FF42F700CF05DFE01202E2108F0AE
:4013C00049FB0022254B1A7038BD0120312108F041FB00221F4B1A702122204B1A7038BD0CF012FA082843F0A6801F4B1B78DBB2AA2B40F0EA801C4B9B79DBB2C32B40F0FE
:40140000E480194BDB79DBB23C2B40F0DE80164BDB78DBB2652B00F09C800AD85A2B68D002D8582B2AD0D0E05B2B7CD05D2B3CD0CBE0932B00F0958006D8702B00F0AE8020
:401440007E2B00F0B380C0E0942B00F0B780962B74D0BAE00C85FF1FEF84FF1F2E83FF1F1085FF1F6086FF1F188AFF1F5C86FF1F5F86FF1FEC87FF1F2C83FF1F0022B84B6F
:401480001A7001203E2108F0E5FA09F0C7F9012801D108F097FB09F0F1F9012801D108F0EFFB1022AF4B1A708FE001205C2108F0D1FA01200021D62240F2AD1308F0C6FCE1
:4014C00001200021892240F2B31308F0BFFC01200146242240F2A71308F0B8FC0120014678224FF47A7308F0B1FC13229D4B1A706BE00120602108F0ADFA012008F024FCCB
:40150000012008F063FD012008F0F2FE012008F075FF012008F0E0FD012008F063FE1222904B1A7051E001202F2108F093FA00228B4B1A7011228B4B1A7046E001205F2190
:4015400008F088FA0022864B1A701B22854B1A703BE001204D2108F07DFA1422814B1A7033E001206E2108F075FA0120014609F0A9FB05280ED90A200CF07CFD012009F03C
:4015800045F80120212109F09DFB052802D9012008F0BAFF2322734B1A7016E00120892108F058FA29226F4B1A700EE001202E2108F050FA00226B4B1A7006E001202E21A1
:4015C00008F048FA0022674B1A7064200CF052FD0CF044F938BD0CF017F9082842F0AB87614B1B78DBB2AA2B42F0A5875E4B9B79DBB2C32B42F09F875B4BDB79DBB23C2B39
:4016000042F09987584BDB78DBB27E2B07D10120312108F01FFA0022524B1A700BE0524BDB78DBB2942B06D10120632108F012FA01224C4B1A704A4B1A78072A26D84A4BB1
:40164000DB78DBB2092B0ED8474BD978474B1344303183F88E1001202A2108F033FA404A137801331370404BDB78DBB20A2B0DD13B4C22783D4B1344302183F88E100120C4
:401680002A2108F01FFA237801332370364BDB78DBB20B2B1AD1324B1B787BB90120392108F0D8F94FF4FA700CF0E4FC01202E2108F0D0F900222B4B1A7007E0013BDAB2D7
:4016C000274B1A700120202108F0FCF9264BDB78DBB20C2B40F08E80214B1A78002A00F08980002322490B6022490B6015E0581C2149014491F8D7101C4C234493F88E3049
:40170000303B994204D11A490B6801330B6002E00021174B1960174B18601046154B1B689A42E4D8144B93F8D720114B1B689A420FD10120262108F08DF94FF4FA700CF085
:4017400099FC0120702108F085F90E22054B1A7050E00023064A1360064A13601FE000BF0C85FF1F2E83FF1F188AFF1F6086FF1F6C85FF1F4883FF1F0087FF1FAD4A1A44D7
:4017800092F82410AC4A1A4492F88E20914203D1AA490A6801320A600133A94A1360A84B1B689842EAD8A54B1B68082B13D10120262108F04FF94FF4FA700CF05BFC012037
:4017C0005D2108F047F90120702108F043F90E229C4B1A700EE00120272108F03BF94FF4FA700CF047FC01202E2108F033F90022944B1A7064200CF03DFC0CF02FF838BD4D
:401800000CF002F8082842F096868F4B1B78DBB2AA2B40F0AD808C4B9B79DBB2C32B40F0A780894BDB79DBB23C2B40F0A180864BDB78DBB2942B06D10120702108F00AF9EA
:401840000E22804B1A70814B1A78072A27D87E4BDB78DBB2092B10D87B48C178764B1344303183F88E10C17830310120C9B208F029F9764A137801331370734BDB78DBB212
:401880000A2B0CD1714C22786B4B1344302183F88E10012008F016F92378013323706A4BDB78DBB20B2B1AD1684B1B787BB90120552108F0CFF84FF42F700CF0DBFB012063
:4018C0002E2108F0C7F800225E4B1A7007E0013BDAB25E4B1A700120202108F0F3F85A4BDB78DBB20C2B43D1584B1B78052B3FD90120392108F0AEF8544B1978544B83F8B5
:40190000D71000224E4B1A600BE0581C4A4A134493F88E204E4B0344303A83F8D720484B1860474B1B689942EFD86020494909F035F870B90120552108F08CF84FF42F7034
:401940000CF098FB01202E2108F084F800223D4B1A700120262108F07DF84FF42F700CF089FB01202E2108F075F80022354B1A7064200CF07FFB0BF071FF38BD0BF044FFF0
:40198000082842F0D885304B1B78DBB2AA2B4AD12D4B9B79DBB2C32B45D12B4BDB79DBB23C2B40D1284BDB78DBB23F2B08D002D83E2B1CD037E07E2B26D0942B2CD032E0AA
:4019C0000120402108F046F80023204A1370224A137001206121062208F074F801206D21072208F06FF81522164B1A701BE001203F2108F02FF80023144A1370164A137026
:401A00001622104B1A700EE001202E2108F022F800220C4B1A7006E00120702108F01AF80E22084B1A7064200CF024FB0BF016FF38BD00BF0C81FF1F6086FF1F6C85FF1F46
:401A40004883FF1F2E83FF1F188AFF1F0C85FF1F0087FF1FD787FF1F3083FF1F0BF0D4FE082842F06885AC4B1B78DBB2AA2B40F09980A94B9B79DBB2C32B40F09380A64B45
:401A8000DB79DBB23C2B40F08D80A34BDB78DBB27E2B78D00AD8772B42D002D8762B10D080E0782B4CD07A2B58D07BE0832B27D002D8822B14D075E0942B6CD0952B5AD060
:401AC00070E00120302107F0C5FF0023934A1370934A1370934A13701822934B1A7061E00120792107F0B6FF02228C4B1A7000238B4A13708B4A137018228B4B1A7051E0B9
:401B000001207A2107F0A6FF0322844B1A700023834A1370834A13701822834B1A7041E00120782107F096FF01227C4B1A7000237B4A13707B4A137018227B4B1A7031E051
:401B40000120652107F086FF0122744B1A700022734B1A701722744B1A7023E00120322107F078FF00236D4A13706D4A137017226D4B1A7016E00120662107F06BFF2022B2
:401B8000694B1A700EE001202E2107F063FF0022654B1A7006E00120702107F05BFF0E22614B1A7064200CF065FA0BF057FE38BD0BF02AFE082842F0BE84574B1B78DBB2D8
:401BC000AA2B79D1544B9B79DBB2C32B74D1524BDB79DBB23C2B6FD14F4BDB78DBB2802B1FD004D87E2B58D07F2B06D064E0822B3FD02AD3942B58D05EE00120062107F08C
:401C000029FF0022464B1A70484B1978484B83F8A3100120242107F055FF1A22424B1A704AE00120062107F015FF00223C4B1A70404B19783E4B83F8A3100120242107F076
:401C400041FF1A22384B1A7036E00120062107F001FF0022324B1A70374B1978344B83F8A3100120242107F02DFF1A222E4B1A7022E00120062107F0EDFE0022284B1A708A
:401C80002E4B19782A4B83F8A3100120242107F019FF1A22244B1A700EE001202E2107F0D9FE0022204B1A7006E00120702107F0D1FE0E221C4B1A7064200CF0DBF90BF0BC
:401CC000CDFD38BD0BF0A0FD082842F03484124B1B78DBB2AA2B40F086810F4B9B79DBB2C32B40F080810C4BDB79DBB23C2B40F07A81094BDB78DBB2642B00F0FD8004D8FA
:401D0000622B1DD0632B57D06DE17E2B00F05C81942B00F0618166E1188AFF1F5685FF1F0C85FF1F0A88FF1F2E83FF1F0B88FF1F0087FF1F5E86FF1FF387FF1F0B85FF1F53
:401D40000120392107F086FE64200CF093F9BA4B187804F003F806281ED1B84B187803F0FDFF062808D101204A2107F073FE4FF42F700CF07FF936E10120552107F06AFEE0
:401D80004FF42F700CF076F901202E2107F062FE0022AB4B1A7026E10120552107F05AFE4FF42F700CF066F901202E2107F052FE0022A34B1A7016E10120372107F04AFE43
:401DC000A04B5B78012B45D100229F4B1A600AE09E4A1344012093F82C1008F067FE9A4A136801331360984B1B68102BF0D901200A2108F05BFE01200A2108F057FE012028
:401E00000A2108F053FE01200A2108F04FFE00228D4B1A600AE08D4A1344022093F82C1008F044FE884A136801331360864B1B68102BF0D902200A2108F038FE02200A21DA
:401E400008F034FE02200A2108F030FE02200A2108F02CFE7B4B5B78022B45D100227A4B1A600AE0794A1344032093F82C1008F01DFE754A136801331360734B1B68102BBB
:401E8000F0D903200A2108F011FE03200A2108F00DFE03200A2108F009FE03200A2108F005FE0022684B1A600AE0684A1344042093F82C1008F0FAFD634A13680133136032
:401EC000614B1B68102BF0D904200A2108F0EEFD04200A2108F0EAFD04200A2108F0E6FD04200A2108F0E2FD01206B2107F0B2FD2522534B1A7076E0012008F0FBFD0128AD
:401F000052D133200BF0C8FC0120332108F034FE002868D000224E4B1A600AE0012008F095FE4C4B1C4484F82900494A136801331360474B1C68072CF0D90023464A137009
:401F4000434A13600CE0444C424A1344207893F8291009F017F920703D4A1368013313603B4B1B68062BEED93A4B93F830203A4B1B789A4208D101204B2107F06BFD4FF407
:401F80007A700CF077F82EE00120552107F062FD4FF42F700CF06EF801202E2107F05AFD0022274B1A701EE00120552107F052FD4FF42F700CF05EF801202E2107F04AFDF4
:401FC00000221F4B1A700EE001202E2107F042FD00221B4B1A7006E00120702107F03AFD0E22174B1A7064200CF044F80BF036FC38BD0BF009FC082842F09D82174B1B78EF
:40200000DBB2AA2B40F03581144B9B79DBB2C32B40F02F81114BDB79DBB23C2B40F029810F4B1B78042B00F2C980DFE813F01B0044006A00C700A200EC87FF1F3483FF1F53
:402040002E83FF1F5886FF1F4883FF1F0C81FF1F1085FF1F6086FF1FF184FF1F188AFF1F0C85FF1FAD4AD278D2B2012A0FD80133DAB2AB4B1A70A94CE17830310120C9B2E6
:4020800007F020FDE3781B01A64A82F8A130A34BDB78DBB20A2B40F09180A14B1A780132D2B21A7000219F4B83F8A1100120302107F008FD82E0994AD278D2B2092A11D883
:4020C0000133DAB2964B1A70944CE17830310120C9B207F0F7FCE178924A92F8A1300B4382F8A1308D4BDB78DBB20A2B66D18C4B1A780132D2B21A700120302107F0E2FC57
:402100005CE0864AD278D2B2052A17D80133DAB2834C227001203A2107F0D4FC22780132D2B222707D4CE17830310120C9B207F0C9FCE3781B017B4A82F8A030774BDB78EA
:40214000DBB20A2B3AD1764C22780132D2B2227001203A2107F0B6FC22780132D2B222700120302107F0AEFC00226E4B83F8A02024E06A4AD278D2B2092A11D80133DAB25A
:40218000674B1A70654CE17830310120C9B207F099FCE178634A92F8A0300B4382F8A0305E4BDB78DBB20A2B08D15D4B1A780132D2B21A700120302107F084FC574BDB7868
:4021C000DBB2402B17D1584B1B783BB90120564B18707021062207F075FC07E00022524B1A7001206121062207F06CFC01206D21072207F067FC494BDB78DBB20B2B12D151
:40220000474B1A783AB90120702107F023FC0E22464B1A7007E00120202107F053FC404A1378013B13703D4BDB78DBB20C2B20D13B4B1B78052B1CD13B4B1B7843F00202FB
:40224000384991F8A13043EA421381F8A13008F045FB01280DD1392107F0FCFB4FF42F700BF008FF0120702107F0F4FB0E222F4B1A7064200BF0FEFE0BF0F0FA38BD0BF030
:40228000C3FA082842F05781244B1B78DBB2AA2B40F06481214B9B79DBB2C32B40F05E811E4BDB79DBB23C2B40F058811C4B1A78072A00F22081DFE812F008003B006200BF
:4022C0001E019B00C1001E01F900144BDB78DBB2032B0FD8114CE17830310120C9B207F0F1FB0F4A137801331370E3781B010D4A82F89D30094BDB78DBB20A2B40F0FB809D
:402300000022084B83F89D20054C01203021227807F0D8FB237801332370ECE0188AFF1F0C85FF1F0087FF1F3083FF1F2E83FF1FAC4BDB78DBB2092B11D8AA4CE178303143
:402340000120C9B207F0BEFBE178A74A92F89D300B4382F89D30A54A137801331370A14BDB78DBB20A2B40F0C680A04C01203021227807F0A7FB237801332370BBE0994BC1
:40238000DB78DBB2012B17D801202F2107F09AFB964C22780132D2B22270924DE97830310120C9B207F08EFBEB781B018E4A82F89E302378013323708A4BDB78DBB20A2BB8
:4023C00040F09980894C01202F21227807F07AFB22780132D2B222700120302107F072FB0022814B83F89E2023780133237082E07C4BDB78DBB2092B11D87A4CE178303160
:402400000120C9B207F05EFBE178774A92F89E300B4382F89E30754A137801331370714BDB78DBB20A2B66D1704C01203021227807F048FB2378013323705CE0694BDB78F8
:40244000DBB2092B17D801202F2107F03BFB674C22780132D2B22270624DE97830310120C9B207F02FFBEB781B015F4A82F89F302378013323705B4BDB78DBB20A2B3AD1B1
:402480005A4C01202F21227807F01CFB22780132D2B222700120302107F014FB0022524B83F89F2023780133237024E04D4BDB78DBB2092B11D84B4CE17830310120C9B221
:4024C00007F000FBE178484A92F89F300B4382F89F30464A137801331370424BDB78DBB20A2B08D1414C01203021227807F0EAFA2378013323703B4BDB78DBB20B2B12D16D
:402500003A4B1B783BB90120702107F0A3FA0E22374B1A7007E0013BDAB2344B1A700120202107F0CFFA2F4BDB78DBB20C2B15D12E4B1B78082B11D108F0FEF901280DD1A5
:40254000392107F087FA4FF42F700BF093FD0120702107F07FFA0E22254B1A7064200BF089FD0BF07BF938BD0BF04EF9082841F0E2871C4B1B78DBB2AA2B40F00A81194BE0
:402580009B79DBB2C32B40F00481164BDB79DBB23C2B40F0FE80134BDB78DBB27E2B06D101202E2107F056FA0022114B1A700F4B1B780C2B6CD80B4AD278D2B2092A29D844
:4025C0000133DAB2094B1A700A4B1B7813B1012B12D018E0034BD978034B13443031997711E000BF188AFF1F0087FF1F0C85FF1F2E83FF1F5685FF1F9B4BD9789B4B1344D6
:40260000303183F82F10984BD97830310120C9B208F080F8944BDB78DBB20A2B18D1944B1A780132D2B21A70924B1B7813B1012B05D009E08D4B13443021997704E08B4BE7
:402640001344302183F82F100120302108F062F8854BDB78DBB2512B1AD1854B1B78BBB10133DAB2824B1A70824B1B7813B1012B05D009E07D4B13442E21997704E07B4B01
:4026800013442E2183F82F1001202E2108F042F8754BDB78DBB20B2B40D1754B1A78002A34D10E22744B1A700120702107F0D2F92F200C2108F0B0F90022704B1A6008E067
:4026C0006F4AD15C694A1A4482F82F1001336B4A13606B4B1A78694B1B689A42F0D220200F2108F099F90022644B1A6007E0644AD15C5E4A1A4491770133604A1360604BA0
:402700001A785E4B1B689A42F1D207E00120202108F000F8564A1378013B1370524BDB78DBB20C2B35D10E22534B1A700120702107F090F94F4B1B7813B1012B11D028E0CF
:402740004B4B1B78494901F81E3F202008F026F9F8B90120552107F07DF96422464B1A7017E0434B1B78414901F82F3F2F2008F015F970B90120552107F06CF94FF42F703F
:402780000BF078FC01202E2107F064F900223A4B1A7064200BF06EFC0BF060F838BD0BF033F8082841F0C7862F4B1B78DBB2AA2B40F0BE832C4B9B79DBB2C32B40F0B8835F
:4027C000294BDB79DBB23C2B40F0B283284B1B78172B00F24B82244AD278D2B2092A78D80133DAB2224B1A70224B1B78042B69D8DFE803F0031427506200224B19780129F9
:4028000004D1194BDB7830331F488354002959D1154BDB78303315498B5453E0194B1978012904D1104BDB78303318488354002948D10D4BD9780D4B1344303183F843108D
:4028400040E0104B1978012904D1074BDB7830330F488354002935D1034BD978034B1344303183F861102DE0188AFF1F0087FF1F0C85FF1F5685FF1F2E83FF1F4883FF1F85
:402880001485FF1F0A88FF1FE484FF1F3C83FF1FA888FF1F994B1978012904D1984BDB7830339848835469B9954BD978964B1344303183F87F1005E0914BD978934B1344FF
:4028C0003031D9728E4BD97830310120C9B207F021FF8B4BDB78DBB20A2B2BD18C4B1A780132D2B21A708B4B1B78042B1ED8DFE803F003070D1319003021834B995415E0D1
:40290000814B1344302183F843100FE07E4B1344302183F8611009E07B4B1344302183F87F1003E0794B13443021D9720120302107F0F0FE724BDB78DBB2672B2BD1744BCD
:402940001A780132D2B21A70724B1B78042B1ED8DFE803F003070D13190023216A4B995415E0694B1344232183F843100FE0664B1344232183F8611009E0634B13442321C1
:4029800083F87F1003E0614B13442321D9720120232107F0BFFE5A4BDB78DBB26A2B2BD15B4B1A780132D2B21A705A4B1B78042B1ED8DFE803F003070D1319002D21524BAB
:4029C000995415E0504B13442D2183F843100FE04D4B13442D2183F8611009E04A4B13442D2183F87F1003E0484B13442D21D97201202D2107F08EFE414BDB78DBB2662B4D
:402A00002BD1434B1A780132D2B21A70414B1B78042B1ED8DFE803F003070D1319004021394B995415E0384B1344402183F843100FE0354B1344402183F8611009E0324BAF
:402A40001344402183F87F1003E0304B13444021D9720120402107F05DFE294BDB78DBB2692B2BD12A4B1A780132D2B21A70294B1B78042B1ED8DFE803F003070D1319000A
:402A80002E21214B995415E01F4B13442E2183F843100FE01C4B13442E2183F8611009E0194B13442E2183F87F1003E0174B13442E21D97201202E2107F02CFE104BDB7841
:402AC000DBB2682B5CD1124B1A780132D2B21A70104B1B78042B4FD8DFE803F003202E3C4A00064B1B78012B02D120200A498854002B41D12021044B99543DE00A88FF1FAB
:402B0000188AFF1FF484FF1F0087FF1F6086FF1F0C85FF1F5685FF1FE484FF1F9D4B1B78012B02D120209C4988542BBB9B4B1344202183F843101FE0964B1B78012B02D149
:402B4000202097498854BBB9944B1344202183F8611011E08F4B1B78012B02D12020914988544BB98D4B1344202183F87F1003E08D4B13442021D9720120202107F0CAFDF3
:402B80008A4BDB78DBB21A2B70D9884BDB78DBB2422B6BD80022864B1A6063E0834AD278D2B284491944097A8A4257D182490A780132D2B20A7081490978042948D8DFE8A6
:402BC00001F003122232420072490878012803D103F141017A4CA154002839D103F141016E48815434E06B490878012803D103F14101694CA15458BB6849114403F14100AA
:402C000081F8430024E063490878012803D103F14101634CA154D8B96049114403F1410081F8610014E05B490878012803D103F141015C4CA15458B95849114403F141000F
:402C400081F87F0004E05849114403F14100C87203F141010120C9B207F05CFD544A136801331360524B1B68192B97D94F4BDB78DBB20B2B6DD1504B1A78002A61D10120C5
:402C8000702106F0E7FE4020202107F0C5FE0022474B1A6008E04B4AD15C404A1A4482F843100133424A1360464B1A78404B1B689A42F0D28020202107F0AEFE00223C4B91
:402CC0001A6008E03F4AD15C344A1A4482F861100133374A13603B4B1A78354B1B689A42F0D2A020202107F097FE0022304B1A6008E0344AD15C294A1A4482F87F100133CF
:402D00002B4A13602F4B1A78294B1B689A42F0D20020202107F080FE0022254B1A6006E0284AD15C1D4AD1540133214A1360254B1A781F4B1B689A42F2D20E22224B1A704F
:402D400007E00120202107F0E5FC1B4A1378013B1370164BDB78DBB20C2B40F0E9800120392106F077FE4FF42F700BF083F90120702106F06FFE0E22134B1A700F4B1B7819
:402D8000042B00F2D580DFE813F021004C007600A000C8000A88FF1F3C83FF1F0087FF1FA888FF1FF484FF1F6086FF1F188AFF1F4883FF1F0C81FF1F0C85FF1F5685FF1F72
:402DC000E484FF1F1485FF1F2E83FF1F844B1B78012B07D18349844B1B780B7040F26A4007F0DCFD7E4B1B78002B40F0A1807F497D4B1B780B70002007F0D0FD002840F05A
:402E000097800120552106F025FE4FF42F700BF031F901202E2106F01DFE0022744B1A7086E06F4B1B78012B07D172496E4B1B780B7040F2754007F0B1FD694B1B78002BA1
:402E400076D1694B1B78694901F8433F402007F0A5FD00286CD10120552106F0FBFD4FF42F700BF007F901202E2106F0F3FD00225F4B1A705CE05A4B1B78012B07D15E490C
:402E8000594B1B780B704FF4906007F087FD544B1B78002B4CD1544B1B78544901F8613F802007F07BFD002842D10120552106F0D1FD4FF42F700BF0DDF801202E2106F013
:402EC000C9FD00224A4B1A7032E0454B1B78012B07D14A49444B1B780B7040F28B4007F05DFD3F4B1B781BBB3F4B1B783F4901F87F3FA02007F052FDD0B90120552106F0A9
:402F0000A9FD4FF42F700BF0B5F801202E2106F0A1FD0022364B1A700AE0334B1A78384BDA720120392106F095FD2422304B1A7064200BF09FF80AF091FC38BD0AF064FC2D
:402F4000082841F0F8822F4B1B78DBB2AA2B40F0D5802C4B9B79DBB2C32B40F0CF80294BDB79DBB23C2B40F0C9801F4B1B78062B25D8244AD278D2B2092A0FD80133DAB287
:402F8000194B1A701F48C1781D4B13443031D972C17830310120C9B206F094FD194BDB78DBB20A2B0BD1104B1A780132D2B21A70134B13443021D972012006F083FD114B94
:402FC000DB78DBB20B2B30D1074B1A78E2B90120702106F03FFD0E22054B1A7025E000BF0A88FF1FE484FF1F0C85FF1F0087FF1F2E83FF1F3C83FF1FA888FF1FF484FF1F6F
:403000006086FF1F188AFF1F0120202106F05AFDB54B1B78B54A1A44D27A2C2A02D10021B34A1170013BB04A1370B24BDB78DBB20C2B63D1AC4B1B78032B5FD90622AE4B07
:403040001A700120392106F005FDA74B1A78A74BDA72AA4B187806F09BFB00283FD0A84B93F8A320A74B1B789A4204D140F2A710A54907F093FCA24B93F8A320A34B1B78B9
:403080009A4204D140F2B3109F4907F087FC9C4B93F8A3209E4B1B789A4204D140F2AD10994907F07BFC964B93F8A320994B1B789A4204D14FF47A70934907F06FFC012084
:4030C0003C2106F0C7FC4FF4FA700AF0D3FF0120702106F0BFFC0E22874B1A700EE00120552106F0B7FC4FF42F700AF0C3FF01202E2106F0AFFC00227F4B1A7064200AF081
:40310000B9FF0AF0ABFB38BD0AF07EFB082841F01282784B1B78DBB2AA2B68D1754B9B79DBB2C32B63D1734BDB79DBB23C2B5ED1704BDB78DBB2802B2FD004D87E2B47D050
:403140007F2B06D053E0822B3AD031D3942B47D04DE00120582106F07DFC01200021732240F2C31306F0D4FE01200021CF2240F2C51306F0CDFE01200146292240F2C11377
:4031800006F0C6FE012001467B2240F2EE3306F0BFFE1C22584B1A7029E00120062106F059FC0022504B1A701D22534B1A701EE001206D2106F04EFC1E224F4B1A7016E04E
:4031C00001208A2106F046FC2A224B4B1A700EE001202E2106F03EFC0022474B1A7006E00120702106F036FC0E22434B1A7064200AF040FF0AF032FB38BD0AF005FB082888
:4032000041F099813B4B1B78DBB2AA2B65D1394B9B79DBB2C32B60D1364BDB79DBB23C2B5BD1344BDB78DBB2802B1AD004D87E2B44D07F2B06D050E0822B30D020D3942BBD
:4032400044D04AE00120062106F004FC0022264B1A7001222A4B83F8A3201F22264B1A703BE00120062106F0F5FB00221E4B1A700222234B83F8A3201F221F4B1A702CE034
:403280000120062106F0E6FB0022174B1A7003221B4B83F8A3201F22174B1A701DE00120062106F0D7FB00220F4B1A700422144B83F8A3201F22104B1A700EE001202E2191
:4032C00006F0C8FB00220C4B1A7006E00120702106F0C0FB0E22084B1A7064200AF0CAFE0AF0BCFA38BD00BF0C85FF1F6086FF1F3083FF1F188AFF1F2E83FF1FEC87FF1F6E
:403300000087FF1F0B88FF1F6B86FF1FF387FF1F5E86FF1F0B85FF1F0AF076FA082841F00A81AE4B1B78DBB2AA2B40F0B880AB4B9B79DBB2C32B40F0B280A84BDB79DBB279
:403340003C2B40F0AC80A54BDB78DBB2942B06D10120702106F07EFB0E22A14B1A70A14B1B78042B36D89D4AD278D2B2092A0FD80133DAB29B4B1A709848C1789A4B13444D
:403380003031D972C17830310120C9B206F09AFB924BDB78DBB20A2B0BD1924B1A780132D2B21A70904B13443021D972012006F089FB8A4BDB78DBB2512B0BD1894B1A7846
:4033C0000132D2B21A70884B13442C21D972012006F078FB814BDB78DBB20B2B1BD1814B1A783AB90120702106F034FB0E227C4B1A7010E00120202106F064FB794B1B78CB
:40340000794A1A44D27A2C2A02D10021774A1170013B744A1370714BDB78DBB20C2B3ED1704B1B78052B3AD16F4B1B7B353BDBB2022B34D80120392106F00CFB694B1B7866
:40344000694901F80B3F4FF4DD7007F0A7FA012805D1654B1B7B03F00F03654A137040F25A20644907F09AFA012818D15E4A937B03F00F0360490B70137C03F00F035F4AA1
:4034800013703C2106F0E6FA4FF4FA700AF0F2FD0120702106F0DEFA0E22514B1A7064200AF0E8FD0AF0DAF938BD0AF0ADF9082841F04180494B1B78DBB2AA2B40F0878043
:4034C000464B9B79DBB2C32B40F08180434BDB79DBB23C2B7BD1414BDB78DBB28F2B08D002D87E2B64D072E0902B31D0942B67D06DE04349002381F82D3081F82E304FF4B4
:40350000DE702D3107F04AFA012811D100223D4B1A703C2106F09EFA4FF4FA700AF0AAFD0120702106F096FA0E222D4B1A704EE00120552106F08EFA4FF42F700AF09AFD0C
:4035400001202E2106F086FA0022254B1A703EE02B49012381F82D3081F82E304FF4DE702D3107F01BFA012812D10124254B1C7020463C2106F06EFA4FF4FA700AF07AFD7F
:403580000E22174B1A702046702106F063FA1EE00120552106F05EFA4FF42F700AF06AFD01202E2106F056FA00220D4B1A700EE001202E2106F04EFA0022094B1A7006E043
:4035C0000120702106F046FA0E22054B1A7064200AF050FD0AF042F938BD00BF188AFF1F2E83FF1F0C85FF1F6086FF1F3083FF1FF084FF1F6B86FF1F3983FF1FF287FF1F00
:403600000087FF1F6885FF1F0AF0FEF8082840F09287B44B1B78DBB2AA2B40F0AA80B14B9B79DBB2C32B40F0A480AE4BDB79DBB23C2B40F09E80AC4B1B782BBBA94AD27808
:40364000D2B2092A0FD80133DAB2A74B1A70A548C178A64B13443031D972C17830310120C9B206F02FFA9F4BDB78DBB20A2B0BD19D4B1A780132D2B21A709C4B13443021DC
:40368000D972012006F01EFA964BDB78DBB20B2B1BD1954B1A783AB90120002106F0DAF90022934B1A7010E00120202106F00AFA8D4B1B788D4A1A44D27A2C2A02D1002131
:4036C0008C4A1170013B884A1370864BDB78DBB20C2B4ED1844B1B78012B4AD10120392106F0B8F9804B1A78804BDA72824B93F8A330012B08D17D490A7B804B1A7040F29A
:40370000C1100B3107F04AF97B4B93F8A330022B08D176490A7B7A4B1A7040F2C3100B3107F03CF9744B93F8A330032B08D16F490A7B744B1A7040F2C5100B3107F02EF90D
:403740006D4B93F8A330042B08D168490A7B6E4B1A7040F2EE300B3107F020F94FF4FA700AF088FC0120702106F074F90E22604B1A7064200AF07EFC0AF070F838BD0AF028
:4037800043F8082840F0D786564B1B78DBB2AA2B40F0FC81534B9B79DBB2C32B40F0F681504BDB79DBB23C2B40F0F0814D4BDB78843B072B00F2BF86DFE813F00800BD06CE
:4037C0002300BD063E005900AA0078004F4901230B7000234B7040F2C71007F0DFF8012840F0A9863C2106F035F94FF4FA700AF041FC0120702106F02DF90E223C4B1A7042
:4038000038BD424901230B700B234B7040F2C71007F0C4F8012840F08E863C2106F01AF94FF4FA700AF026FC0120702106F012F90E222F4B1A7038BD344901230B70042309
:403840004B7040F2C71007F0A9F8012840F073863C2106F0FFF84FF4FA700AF00BFC0120702106F0F7F80E22214B1A7038BD274901230B700C234B7040F2C71007F08EF871
:4038800001280DD13C2106F0E5F84FF4FA700AF0F1FB0120702106F0DDF80E22144B1A7064200AF0E7FB09F0D9FF38BD174901230B7009234B7040F2C71007F06FF801280C
:4038C00040F039863C2106F0C5F84FF4FA700AF0D1FB0120702106F0BDF80E22044B1A7038BD00BF188AFF1F0C85FF1F6086FF1F2E83FF1F3083FF1F0087FF1FF387FF1FEC
:403900000B88FF1F5E86FF1F0B85FF1F0485FF1FCF4901230B7008234B7040F2C71007F03DF8012840F007863C2106F093F84FF4FA700AF09FFB0120702106F08BF80E224D
:40394000C44B1A7038BDC24901230B704B7040F2C71007F023F8012840F0ED853C2106F079F84FF4FA700AF085FB0120702106F071F80E22B74B1A7038BDB54901240C7022
:4039800006234B7040F2C71007F008F820463C2106F060F84FF4FA700AF06CFB2046702106F058F80E22AB4B1A7038BDA84901230B700E234B7040F2C71006F0EFFF012890
:4039C00040F0B9853C2106F045F84FF4FA700AF051FB0120702106F03DF80E229D4B1A7038BD9B4901230B700D234B7040F2C71006F0D4FF012840F09E853C2106F02AF831
:403A00004FF4FA700AF036FB0120702106F022F80E22904B1A7038BD8D4901230B7003234B7040F2C71006F0B9FF012840F083853C2106F00FF84FF4FA700AF01BFB0120BC
:403A4000702106F007F80E22824B1A7038BD804901230B7005234B7040F2C71006F09EFF012840F068853C2105F0F4FF4FF4FA700AF000FB0120702105F0ECFF0E22754BAE
:403A80001A7038BD724901230B7007234B7040F2C71006F083FF012840F04D853C2105F0D9FF4FF4FA700AF0E5FA0120702105F0D1FF0E22674B1A7038BD654901230B70C7
:403AC0000A234B7040F2C71006F068FF012840F032853C2105F0BEFF4FF4FA700AF0CAFA0120702105F0B6FF0E225A4B1A7038BD574901230B7002234B7040F2C71006F020
:403B00004DFF012840F017853C2105F0A3FF4FF4FA700AF0AFFA0120702105F09BFF0E224C4B1A7038BD4A4900230B704B7040F2C71006F033FF012840F0FD843C2105F030
:403B400089FF4FF4FA700AF095FA0120702105F081FF0E223F4B1A7038BD3D4900230B704B7040F2C71006F019FF012806D1702105F070FF0E22374B1A7038BD01202E219B
:403B800005F068FF0022334B1A7038BD64200AF071FA09F063FE38BD09F036FE082840F0CA842D4B1B78DBB2AA2B4AD12A4B9B79DBB2C32B45D1284BDB79DBB23C2B40D109
:403BC000254BDB78DBB20A2B2CD10122234B1A6010E0234B5878234B19780122224B1B7807F0A6FE4FF4FA700AF044FA1B4A1368013313601D4B1B7803F00F03174A126806
:403C00009342E6D201200C2105F024FF4FF42F700AF030FA01202E2105F01CFF00220D4B1A700EE001200C2105F014FF4FF42F700AF020FA01202E2105F00CFF0022054BEB
:403C40001A7064200AF016FA09F008FE38BD00BF0485FF1F2E83FF1F188AFF1F1085FF1F5C86FF1F5F86FF1FEC87FF1FA488FF1F09F0CAFD082840F05E84B94B1B78DBB28C
:403C8000AA2B5DD1B64B9B79DBB2C32B58D1B44BDB79DBB23C2B53D1B14BDB78DBB2392B10D002D8382B05D04AE07E2B41D0942B34D045E00120002105F0CCFE0022A94BC8
:403CC0001A703DE001203B2105F0C4FEA64C607808F038FE60780A2106F0E8FE60780A2106F0E4FE60780A2106F0E0FE60781D2106F0DCFE6078562106F0D8FE6078312135
:403D000006F0D4FE4FF42F700AF0B4F901202E2105F0A0FE0022934B1A7011E001202F2105F098FE0022914B1A7027228D4B1A7006E001202E2105F08DFE0022894B1A702F
:403D400064200AF097F909F089FD38BD09F05CFD082840F0F083824B1B78DBB2AA2B48D17F4B9B79DBB2C32B43D17D4BDB79DBB23C2B3ED17A4BDB78DBB2912B08D002D822
:403D80007E2B27D035E0922B13D0942B2AD030E001200A2105F05EFE0122754B1A700422744B1A700022714B1A7018226D4B1A701FE001206F2105F04DFE21226C4B1A7014
:403DC00004226C4B1A700022684B1A701822654B1A700EE001202E2105F03CFE0022614B1A7006E00120702105F034FE0E225D4B1A7064200AF03EF909F030FD38BD5E4B0A
:403E0000012013F80B1F5A4A127807F035F801282CD16E2105F01EFE2322524B1A700120014606F04FFF052810D90A200AF022F9012006F0EBFB0120212106F043FF0528E2
:403E400040F27983012006F05FFB38BD0120552105F000FE4FF42F700AF00CF901202E2105F0F8FD00223F4B1A7038BD0120552105F0F0FD4FF42F700AF0FCF801202E2105
:403E800005F0E8FD0022374B1A7038BD09F0BCFC082840F05083324B1B78DBB2AA2B40F092802F4B9B79DBB2C32B40F08C802C4BDB79DBB23C2B40F08680294BDB78DBB2DF
:403EC000392B08D002D8382B39D07CE07E2B3ED0942B71D077E0294B5A78012A07D1224901230B704B7026490B7002234B70022A08D11D4B01221A7003215970204B1A7002
:403F000004225A7040F26320174906F047FD012859D140F265201A4906F040FD012852D1682105F097FD4FF4FA700AF0A3F80120702105F08FFD0E220A4B1A7043E0262255
:403F4000084B1A700120672105F084FD3BE00D4B5B78012B18D100220A4B5A7017E000BF188AFF1F2E83FF1F5C86FF1F0C85FF1F5C85FF1F5685FF1F6086FF1F5886FF1FBD
:403F8000FC86FF1F2C83FF1F0122B64B5A7040F2DA30B44906F002FD01203C2105F05AFD4FF4FA700AF066F801202E2105F052FD0022AD4B1A7006E00120702105F04AFD7D
:403FC0000E22A94B1A7064200AF054F809F046FC38BD09F019FC082840F0AD82A34B1B78DBB2AA2B40F0B680A04B9B79DBB2C32B40F0B0809D4BDB79DBB23C2B40F0AA80CF
:404000009A4BDB78DBB28D2B3FD005D87E2B00F092808C2B06D09DE08E2B68D0942B00F0928097E0924B5B78012B07D1914A0120107002215170904A10705170022B07D105
:404040008C4B0121197004225A708B4B19705A7040F26320874906F0A1FC01287AD140F26520854906F09AFC012873D16A2105F0F1FC4FF4FA7009F0FDFF0E227A4B1A700D
:404080000120702105F0E6FC64E0794B5A78012A06D1784901230B704B7077490B704B70022A07D1734B0121197003225A70724B19705A7040F263206E4906F06FFC012828
:4040C00048D140F265206C4906F068FC012841D1692105F0BFFC4FF4FA7009F0CBFF0120702105F0B7FC0E225F4B1A7032E061490120087000224A705F4B18705A7040F2DF
:40410000632006F04BFC012824D140F265205A4906F044FC01281DD16C2105F09BFC4FF4FA7009F0A7FF0120702105F093FC0E224D4B1A700EE001202E2105F08BFC002211
:40414000494B1A7006E00120702105F083FC0E22454B1A70642009F08DFF09F07FFB38BD09F052FB082840F0E681404B1B78DBB2AA2B40F0FB803D4B9B79DBB2C32B40F0DB
:40418000F5803A4BDB79DBB23C2B40F0EF803B4B1A78032A26D8354BDB78DBB2092B0ED8324BD978364B1344303183F88E1001202A2105F087FC314A1378013313702B4B2A
:4041C000DB78DBB20A2B0DD12C4C22782C4B1344302183F88E1001202A2105F073FC237801332370214BDB78DBB20B2B1AD1234B1B787BB90120552105F02CFC4FF42F7018
:4042000009F038FF01202E2105F024FC0022164B1A7007E0013BDAB2184B1A700120202105F050FC114BDB78DBB20C2B40F09E80124B1A78002A00F08A80002311490B60C1
:4042400011490B6029E0591C1048405C0C4C234493F88E3098421BD10A4803680133036019E000BF2C83FF1F2E83FF1F188AFF1F5886FF1F5C86FF1FFC86FF1F0C85FF1F86
:404280006086FF1F6C85FF1F4883FF1F0C81FF1F0020A94B1860A94B19601046A74B1B689A42D0D8A64B1A78A34B1B689A420FD10120262105F0CEFB4FF4FA7009F0DAFEBB
:4042C0002222A04B1A700120712105F0C3FB4DE00023994A1360994A136010E0984A1A4492F82410984A1A4492F88E20914203D191490A6801320A600133904A13608F4B52
:404300001B689842EAD88C4B1B68042B0FD10120262105F09FFB4FF4FA7009F0ABFE2222884B1A700120712105F094FB1EE00120272105F08FFB4FF42F7009F09BFE01205C
:404340002E2105F087FB00227E4B1A700EE00120272105F07FFB4FF42F7009F08BFE01202E2105F077FB0022764B1A70642009F081FE09F073FA38BD09F046FA082840F0A4
:40438000DA80724B1B78DBB2AA2B5FD16F4B9B79DBB2C32B5AD16D4BDB79DBB23C2B55D16A4BDB78DBB2BC2B08D002D87E2B46D04CE0BD2B1AD0BE2B31D047E06449012459
:4043C0000C704C704FF47D7006F0E8FA2046392105F040FB4FF42F7009F04CFE2046702105F038FB0E22574B1A702FE0584901240C7002234B704FF47D7006F0CFFA204667
:40440000392105F027FB4FF42F7009F033FE2046702105F01FFB0E224A4B1A7016E00120062105F017FB01224A4B1A7000234A4A13704A4A13700522424B1A7006E001208D
:40444000702105F007FB0E223E4B1A70642009F011FE09F003FA38BD09F0D6F908286AD13A4B1B78DBB2AA2B60D1384B9B79DBB2C32B5BD1354BDB79DBB23C2B56D1334B71
:40448000DB78763B0D2B51D8DFE803F007385050505050504950505017270120302105F0D9FA00232E4A13702B4A137001222D4B1A701822234B1A7038E00120302105F021
:4044C000C9FA0123264A13700021234A1170254A137018221B4B1A7028E00120302105F0B9FA02221E4B1A7000221B4B1A7001221C4B1A701822134B1A7017E001203021CD
:4045000005F0A8FA0322164B1A700022124B1A700122144B1A7018220A4B1A7006E001205F2105F097FA1B22064B1A70642009F0A1FD09F093F938BD6C85FF1F4883FF1FF4
:404540000C81FF1F2E83FF1F6086FF1F188AFF1F5886FF1F5A86FF1F0C85FF1F3083FF1F5685FF1F0A88FF1F10B5A04B1B78212B01F23A83DFE813F022009C00F300380BDD
:404580004C01C6015B02D002380B620331047404E104600587056A06380B380B380B7D07380B380B380B380B380B380B2308F408A109380B380B190A380BDF0A8C4B1B782E
:4045C000012B03D18B4B1A78884B1A708A4B1B78012B06D1894B1A78894B1A700122894B1A7009F011F9082841F0FE82864B1B78DBB2AA2B56D1844B9B79DBB2C32B51D1F5
:40460000814BDB79DBB23C2B4CD17F4BDB78DBB2562B02D0572B1FD044E0774B1B78012B04D1764B1A78764B1A7008E00120632105F010FA0123734A1370714A13706C4BDE
:404640001B78012B04D16B4B1A78684B1A7029E00022664B1A7025E00120632105F0FAF90222684B1A70644B1B78012B04D1634B1A78634B1A7002E00022614B1A705C4B2C
:404680001B78012B04D15B4B1A78584B1A7009E00120632105F0DEF902225A4B1A700122524B1A70642009F0E5FC09F0D7F810BD09F0AAF8082841F09782534B1B78DBB244
:4046C000AA2B46D1504B9B79DBB2C32B41D14E4BDB79DBB23C2B3CD14B4BDB78DBB25C2B0AD004D8452B0FD0592B18D031E07E2B20D0942B26D02CE00120492105F0AAF9A8
:4047000002223A4B1A7024E00120252105F0A2F900223E4B1A700F22344B1A7019E00120252105F097F90022384B1A7027222F4B1A700EE001202E2105F08CF900222B4B0B
:404740001A7006E001202E2105F084F90022274B1A70642009F08EFC09F080F810BD09F053F8082841F04082274B1B78DBB2AA2B36D1254B9B79DBB2C32B31D1224BDB79ED
:40478000DBB23C2B2CD1204BDB78DBB25F2B08D002D85E2B0DD023E07E2B12D0942B18D01EE001200B2105F055F90A220F4B1A7016E001201D2105F04DF90B220B4B1A70AB
:4047C0000EE001202E2105F045F90022074B1A7006E00120632105F03DF90122034B1A70642009F047FC09F039F810BD0885FF1FE084FF1F2F83FF1FF087FF1F0A85FF1F83
:404800002E83FF1FF886FF1F188AFF1F0C85FF1F08F0FAFF082841F0E781A94B1B78DBB2AA2B69D1A64B9B79DBB2C32B64D1A44BDB79DBB23C2B5FD1A24AD37823F0030355
:40484000D3709F4BDB78DBB23B2B3ED004D80F2B09D0102B1BD04FE07E2B3ED0942B44D0432B49D129E00120062105F0F3F80022954B1A700120242105F024F9934AD37804
:4048800043F00203D3700522914B1A7034E001200D2105F0DFF800228B4B1A708D4B1A700120472105F00EF9884AD37843F00103D3700522864B1A701EE00120072105F003
:4048C000C9F80622824B1A7016E001202E2105F0C1F800227E4B1A700EE001202E2105F0B9F800227A4B1A7006E001200B2105F0B1F80A22764B1A70642009F0BBFB08F007
:40490000ADFF10BD08F080FF082841F06D816C4B1B78DBB2AA2B40F08480694B9B79DBB2C32B7ED1664BDB79DBB23C2B79D1664B1B78694A1278013A93423EDC604AD278E4
:40494000D2B2092A0FD80133DAB25F4B1A705C48C1785E4B13443031D972C17830310120C9B205F0AFF8564BDB78DBB20A2B0BD1554B1A780132D2B21A70544B13443021FE
:40498000D972012005F09EF84D4BDB78DBB2512B13D14D4B1B7883B14E4A12786AB90133DAB2494B1A70494B13442C21D972012005F088F80122474B1A70414BDB78DBB2E2
:4049C0000B2B1BD1404B1A783AB90120052105F041F804223E4B1A7010E00120202105F071F8394B1B78374A1A44D27A2C2A02D10021384A1170013B334A1370304BDB788E
:404A0000DBB20C2B0DD1304B1B7853B10120072105F020F82C4B1A782C4BDA7206222C4B1A70642009F026FB08F018FF10BD08F0EBFE082820D1224B1B78DBB2AA2B15D1B3
:404A40001F4B9B79DBB2C32B10D11D4BDB79DBB23C2B0BD11A4BDB78DBB27E2B06D101202E2104F0F7FF0022194B1A70642009F001FB08F0F3FE10BD184B187801F06EF927
:404A8000072841F0B180322009F0F4FA134B187801F078F90146124B18700C4BDB7813F0030321D00D4A10780E4A04F02FFCD8B901202E2104F0CEFF0022054B1A7010BD2B
:404AC000188AFF1F6086FF1F0C85FF1F0C88FF1F0885FF1F3083FF1FF084FF1F3483FF1FDC84FF1F1788FF1F9E4C207801F04AF99D4B1870207840F0100008F051FD01200E
:404B0000082104F0A7FF0723984A1370984A13700122984B1A7010BD322009F0ABFA914B187801F01BF90638052801F25D80DFE810F070005B085B087A003B000600642089
:404B400009F098FA874B187801F090F901280ED1894B1B785BB9392104F07CFF0022854B1A70142009F086FA0D22804B1A707D4B187801F07BF9012841F036807E4B1B78AC
:404B8000012B41F031800C2104F064FF0024794B1C704FF4FA7009F06DFA01202E2104F059FF724B1C7010BD642009F063FA6D4B187801F05BF901280ED16F4B1B785BB940
:404BC000392104F047FF00226A4B1A70142009F051FA0D22654B1A70624B187801F046F9012841F00180644B1B78012B40F0FC870C2104F02FFF00245E4B1C704FF4FA7021
:404C000009F038FA01202E2104F024FF574B1C7010BD01202E2104F01DFF0023554A1370524A137010BD322009F024FA01202E2104F010FF00224D4B1A7010BD08F0E4FD50
:404C4000082840F0D1874D4B1B78DBB2AA2B40F0BE804A4B9B79DBB2C32B40F0B880474BDB79DBB23C2B40F0B280454B1B78062B65D8424AD278D2B2092A10D80133DAB2F3
:404C80003F4B1A703D48C1783E4B1344303183F86510C17830310120C9B204F013FF374BDB78DBB20A2B0CD1354B1A780132D2B21A70344B1344302183F86510012004F0C2
:404CC00001FF2E4BDB78DBB26A2B0CD12C4B1A780132D2B21A702B4B13442D2183F86510012004F0EFFE254BDB78DBB21A2B26D9224BDB78DBB2422B21D80022224B1A6042
:404D000019E01E4AD278D2B220491944097A8A420DD11B490A780132D2B20A704133D9B2184B134483F86510012004F0CBFE164A136801331360144B1B68192BE1D90F4BF7
:404D4000DB78DBB20B2B2BD10D4B1A7802BB01202E2104F07FFE00230A4A82F86530034A13701DE03483FF1FDC84FF1F0885FF1F2F83FF1FE084FF1F3883FF1F188AFF1F5D
:404D80000C85FF1F0C88FF1F4883FF1F0C81FF1F0120202104F096FEA14A1378013B1370A04BDB78DBB20C2B11D19D4B1B7873B10120052104F04EFE9B4B994A127883F807
:404DC0006520012283F883200422984B1A70642009F050F908F042FD10BD08F015FD082840F002878F4B1B78DBB2AA2B32D18D4B9B79DBB2C32B2DD18A4BDB79DBB23C2B49
:404E000028D1884BDB78DBB2392B04D07E2B1AD0382B1FD10CE001200A2104F01BFE00237F4A1370824A13700922804B1A7011E00120052104F00EFE01227D4B1A70042252
:404E40007A4B1A7006E001202E2104F003FE0022764B1A70642009F00DF908F0FFFC10BD0120014605F02EFF052840D90A2009F001F90120212105F025FF052837D9012021
:404E800005F038FE012832D1332008F005FD0120332105F071FE50B30022664B1A600AE0012005F0D3FE604B1C4484F82900614A1368013313605F4B1C68072CF0D901208C
:404EC000132104F0C7FD584CE37843F00403E3704FF4FA7009F0CEF801200E2104F0BAFD00234F4A137023710C22504B1A7008F08BFC082840F078864A4B1B78DBB2AA2B46
:404F000015D1484B9B79DBB2C32B10D1454BDB79DBB23C2B0BD1434BDB78DBB23B2B06D10120492104F096FD0222404B1A70642009F0A0F808F092FC10BD08F065FC0828ED
:404F400040F05286374B1B78DBB2AA2B62D1354B9B79DBB2C32B5DD1324BDB79DBB23C2B58D12F4B1B78052B25D82E4AD278D2B2092A0FD80133DAB2294B1A702948C17852
:404F8000294B134430311971C17830310120C9B204F098FD234BDB78DBB20A2B0BD1204B1A780132D2B21A701F4B134430211971012004F087FD1B4BDB78DBB20B2B12D14B
:404FC000174B1A783AB90120052104F043FD0422164B1A7007E00120202104F073FD104A1378013B13700F4BDB78DBB20C2B11D10B4B1B7873B10C4B5B79302B0AD001200C
:40500000052104F027FD064B1A78074B1A710422064B1A70642009F02DF808F01FFC10BD0C85FF1F188AFF1F0C88FF1F0885FF1F3883FF1F1085FF1F964B5878964B197874
:405040000022964B1B7806F073FC954B5B787BB901200C2104F0FEFC4FF42F7009F00AF801202E2104F0F6FC00228E4B1A7010BD0120312104F0EEFC00228B4B1A70212277
:40508000884B1A7010BD08F0BFFB082840F0AC85864B1B78DBB2AA2B40F0D280834B9B79DBB2C32B40F0CC80804BDB79DBB23C2B40F0C6807D4BDB78583B3E2B00F2C08090
:4050C000DFE803F020BE5464BE30BEBEBEBEBEBEBE7FBEBEBEBEBEBEBEBEBEBE9FBEBEBEBEBEBEBEBEBEBEBEBEBEAFBEBEBEBEBEBEBEBEBEBEBEBEBEBEBEBEBEBEBEBE8FFA
:40510000B7BE740001202B2104F0A4FC4FF42F7008F0B0FF0120702104F09CFC0E22614B1A708DE001205C2104F094FC01200021D62240F2AD1304F089FE01200021892235
:4051400040F2A71304F082FE01200146242240F2B31304F07BFE0120014678224FF47A7304F074FE13224F4B1A7069E001202B2104F070FC4FF42F7008F07CFF01207021AE
:4051800004F068FC0E22474B1A7059E001202B2104F060FC4FF42F7008F06CFF0120702104F058FC0E223F4B1A7049E001205F2104F050FC00223E4B1A701B22394B1A7048
:4051C0003EE001202B2104F045FC4FF42F7008F051FF0120702104F03DFC0E22314B1A702EE001202B2104F035FC4FF42F7008F041FF0120702104F02DFC0E22294B1A70F9
:405200001EE001202B2104F025FC4FF42F7008F031FF0120702104F01DFC0E22214B1A700EE001202E2104F015FC00221D4B1A7006E001202E2104F00DFC0022194B1A7025
:40524000642008F017FF08F009FB10BD08F0DCFA082840F0C984154B1B78DBB2AA2B40F00281124B9B79DBB2C32B40F0FC800F4BDB79DBB23C2B40F0F6800C4BDB78DBB239
:405280007E2B17D10120312104F0E4FB0022054B1A701BE0FC86FF1FDC84FF1F3483FF1F0888FF1F0885FF1FF986FF1F188AFF1F0C85FF1FA24BDB78DBB2942B06D1012044
:4052C000632104F0C7FB01229E4B1A709E4B1A78072A26D89A4BDB78DBB2092B0ED8984BD9789A4B1344303183F88E1001202A2104F0E8FB944A137801331370904BDB78DA
:40530000DBB20A2B0DD1904C2278904B1344302183F88E1001202A2104F0D4FB237801332370874BDB78DBB20B2B1AD1864B1B787BB90120392104F08DFB4FF4FA7008F023
:4053400099FE01202E2104F085FB00227D4B1A7007E0013BDAB27C4B1A700120202104F0B1FB774BDB78DBB20C2B7CD1764B1A78002A36D0002376490B6076490B6015E027
:40538000581C7549014491F8D710704C234493F88E30303B994204D16D490B6801330B6002E000216A4B19606A4B1860694B1B689A42E5D8684B93F8D720654B1B689A4245
:4053C0000BD10120262104F045FB4FF4FA7008F051FE0120702104F03DFB0E22594B1A7041E000235A490B605A490B6010E05B49194491F824005549194491F88E1088421B
:4054000003D15348016801310160013351490B60504B1B689A42EAD84D4B1B68082B13D10120262104F016FB4FF4FA7008F022FE01205D2104F00EFB0120702104F00AFB61
:405440000E22404B1A700EE00120272104F002FB4FF4FA7008F00EFE01202E2104F0FAFA0022384B1A70642008F004FE08F0F6F910BD08F0C9F9082840F0B683304B1B78D4
:40548000DBB2AA2B40F095802D4B9B79DBB2C32B40F08F802A4BDB79DBB23C2B40F08980274BDB787E3B162B00F28380DFE803F0720C20345E8181818181818181818181E0
:4054C0008181818181817A000120062104F0C2FA00221D4B1A70224B19781F4B83F8A3100120242104F0EEFA1A22164B1A7060E00120062104F0AEFA0022134B1A70194B8F
:405500001978154B83F8A3100120242104F0DAFA1A220C4B1A704CE00120062104F09AFA0022094B1A70104B19780B4B83F8A3100120242104F0C6FA1A22024B1A7038E050
:40554000188AFF1F0885FF1F0C85FF1F0C88FF1F6C85FF1F4883FF1F0087FF1F0C81FF1F0B88FF1F5E86FF1FF387FF1F0120062104F070FA0022AA4B1A70AA4B1978AA4B0A
:4055800083F8A3100120242104F09CFA1A22A74B1A700EE001202E2104F05CFA0022A34B1A7006E00120702104F054FA0E229F4B1A70642008F05EFD08F050F910BD08F078
:4055C00023F9082840F01083994B1B78DBB2AA2B40F0C080964B9B79DBB2C32B40F0BA80934BDB79DBB23C2B40F0B4808C4B1B78062B25D88E4AD278D2B2092A0FD8013363
:40560000DAB2874B1A708A48C1788A4B13443031D972C17830310120C9B204F053FA844BDB78DBB20A2B0BD17D4B1A780132D2B21A70804B13443021D972012004F042FABE
:405640007B4BDB78DBB20B2B1BD1754B1A783AB90120702104F0FEF90E22744B1A7010E00120202104F02EFA6D4B1B78714A1A44D27A2C2A02D100216F4A1170013B684A77
:4056800013706B4BDB78DBB20C2B63D1644B1B78032B5FD90622654B1A700120392104F0D9F95F4B1A78634BDA72644B187804F06FF800283FD05C4B93F8A320604B1B78E1
:4056C0009A4204D140F2A7105E4905F067F9564B93F8A3205C4B1B789A4204D140F2B310584905F05BF9504B93F8A320574B1B789A4204D140F2AD10524905F04FF94A4B30
:4057000093F8A320474B1B789A4204D14FF47A704C4905F043F901203C2104F09BF94FF4FA7008F0A7FC0120702104F093F90E223E4B1A700EE00120552104F08BF94FF44F
:405740002F7008F097FC01202E2104F083F90022364B1A70642008F08DFC08F07FF810BD08F052F8082840F03F82314B1B78DBB2AA2B40F09C802E4B9B79DBB2C32B40F059
:4057800096802B4BDB79DBB23C2B40F09080284BDB787E3B162B00F28A80DFE803F0790C305969888888888888888888888888888888888881000120582104F04BF901206C
:4057C000002173224FF41F7304F0A2FB01200021CF2240F27E2304F09BFB01200146292240F27A2304F094FB012001467B224FF47C7304F08DFB1C220C4B1A7057E00120CE
:405800002B2104F027F94FF42F7008F033FC0120702104F01FF90E22044B1A7047E000BF0C85FF1F0B85FF1F0087FF1F0885FF1F188AFF1F6086FF1F3083FF1F3483FF1F3B
:405840000B88FF1F6B86FF1FF387FF1F5E86FF1F01202B2104F0FEF84FF42F7008F00AFC0120702104F0F6F80E22784B1A701EE001202B2104F0EEF84FF42F7008F0FAFB72
:405880000120702104F0E6F80E22704B1A700EE001202E2104F0DEF800226C4B1A7006E00120702104F0D6F80E22684B1A70642008F0E0FB07F0D2FF10BD07F0A5FF0828E6
:4058C00040F09281624B1B78DBB2AA2B67D1604B9B79DBB2C32B62D15D4BDB79DBB23C2B5DD15B4BDB787E3B162B58D8DFE803F0480C1B2A39575757575757575757575794
:4059000057575757575750000120062104F0A2F80022504B1A7001224F4B83F8A3201F224A4B1A703BE00120062104F093F80022484B1A700222484B83F8A3201F22434BB0
:405940001A702CE00120062104F084F80022414B1A700322404B83F8A3201F223B4B1A701DE00120062104F075F80022394B1A700422394B83F8A3201F22344B1A700EE06C
:4059800001202E2104F066F80022304B1A7006E00120702104F05EF80E222C4B1A70642008F068FB07F05AFF10BD07F02DFF082840F01A81264B1B78DBB2AA2B40F0B58006
:4059C000234B9B79DBB2C32B40F0AF80204BDB79DBB23C2B40F0A9801E4B1B782BBB1C4AD278D2B2092A0FD80133DAB2194B1A701748C178194B13443031D972C1783031C8
:405A00000120C9B204F05EF8114BDB78DBB20A2B0BD1104B1A780132D2B21A700F4B13443021D972012004F04DF8094BDB78DBB20B2B26D1074B1A7892B90120002104F098
:405A400009F80022014B1A701BE000BF0885FF1F188AFF1F0C85FF1F0087FF1F0C88FF1F0120202104F02EF8604B1B78604A1A44D27A2C2A02D100215E4A1170013B5B4AA0
:405A800013705D4BDB78DBB20C2B4ED1574B1B78012B4AD10120392103F0DCFF534B1A78534BDA72554B93F8A330022B08D150490A7B534B1A704FF41F700B3104F06EFFED
:405AC0004E4B93F8A330012B08D149490A7B4D4B1A7040F27A200B3104F060FF474B93F8A330032B08D142490A7B474B1A7040F27E200B3104F052FF404B93F8A330042B8A
:405B000008D13B490A7B414B1A704FF47C700B3104F044FF4FF4FA7008F0ACFA0120702103F098FF0E223A4B1A70642008F0A2FA07F094FE10BD07F067FE082854D12E4B6D
:405B40001B78DBB2AA2B4AD12B4B9B79DBB2C32B45D1294BDB79DBB23C2B40D1264BDB78DBB20A2B2CD101222A4B1A6010E02A4B58782A4B19780122294B1B7805F0D8FE68
:405B80004FF4FA7008F076FA224A136801331360244B1B7803F00F031E4A12689342E6D201200C2103F056FF4FF42F7008F062FA01202E2103F04EFF0022154B1A700EE056
:405BC00001200C2103F046FF4FF42F7008F052FA01202E2103F03EFF00220D4B1A70642008F048FA07F03AFE10BD00BF0C85FF1F0C88FF1F3083FF1F188AFF1F0087FF1F45
:405C00006685FF1FFE86FF1F6A85FF1F6785FF1F0885FF1F1085FF1FFC86FF1FDC84FF1F3483FF1FA488FF1F08B5FAF72BFAFAF729FDFAF78DFD0122074B1A70064B1B78BF
:405C4000012B02D0022B03D0F8E7FAF79DFDF5E7FEF78AFCF2E700BFF886FF1F10B5FF233A4A13703A4A13703A4A13703A4A137000243FE0204607F093FC642008F0FAF990
:405C800007F040FC38B1314B1B78FF2B03D12F4B1C7007F067FC07F035FC38B12B4B1B78A34203D02A4B1C7007F05CFC07F02AFC58B1264B1B78A34207D0254B1B78A3426B
:405CC00003D0244B1C7007F04DFC07F01BFC78B11E4B1B78A3420BD01D4B1B78A34207D01C4B1B78A34203D01B4B1C7007F03AFC0134E4B20F2CBDD9144B1B78FF2B0BD088
:405D0000134A1278FF2A07D0134A1278FF2A03D0104A1278FF2A0FD1FF2B0FD10C4B1B78FF2B0DD10B4B1B78FF2B0BD10A4B1B78FF2B09D0012010BD022010BD012010BD0B
:405D4000012010BD012010BD002010BDEC87FF1F3483FF1F5885FF1F7085FF1F10B507F01FFC322008F086F907F0CCFB38B107F09BFBC0F3071407F0F5FB204610BD00200A
:405D800010BD00BF10B588B00446364A6B461068516803C3127A1A7044F0200007F000FCFF22314B1A70642008F064F907F0AAFB002848D007F078FB44F0D004A04244D146
:405DC00007F0D0FB002407E008AB234413F8200C07F0E6FB0134E4B2082CF5D9C82008F049F907F08FFB12280AD8002038E007F05BFB08AB234403F8140C0134E4B200E0BC
:405E00000024122CF3D907F0ADFB9DF80C30BA2B1DD19DF81D308D2B1BD19DF81E308A2B19D19DF81830B12B17D19DF81A30B22B15D0B32B03D0B12B03D1012010E0032012
:405E40000EE000200CE000200AE0002008E0002006E0002004E0002002E0002000E0022008B010BD84E100000E85FF1F30B58BB0044640F0400007F093FB4FF4967008F0AD
:405E8000F9F807F03FFB27280AD90020D9E007F00BFB0AAB2B4403F8280C0135EDB200E0002507F02FFB0028F1D107F05BFB24B91023654A82F8A23003E0634B83F8A2403A
:405EC00023469DF80020FF2A40F0B4809DF80220F82A40F0B1809DF8042002F00F02013B9A4204D00020ACE00133DBB200E000230AAA1A4412F8282CF62AF5D1262BF3D833
:405F00000133DBB20AAA1A4412F8282C02F00F0201324D4981F8A32001E00133DBB20AAA1A4412F8282CF72AF7D1262BF5D80133DBB2012209E04448104401F00F0180F8E9
:405F4000A4100133DBB20132D2B20AA9194411F8281CF929EFD1262BEDD8013A3A4981F8A4200133DBB2012209E03748104401F00F0180F8B4100133DBB20132D2B20AA99D
:405F8000194411F8281CFA29EFD1262BEDD8013A2D4981F8B4200133DBB2012209E02A48104401F00F0180F8AB100133DBB20132D2B20AA9194411F8281CFB29EFD1262B6F
:405FC000EDD8013A204981F8AB200233DBB20AAA1A4412F8282CF02A30D1262B30D81B4B1B78A34213D101F1AB0440F2C910214604F0D4FC4FF4E97004F1090104F0CEFC5C
:4060000040F2DB10E11F04F0C9FC012019E0104C4FF4F170214604F0C1FC4FF4FA70E11F04F0BCFC40F2EB1004F1090104F0B6FC012006E0002004E0002002E0002000E020
:4060400000200BB030BD00BF0087FF1FEC87FF1FAB87FF1F70B590B005460C4640F0500007F09EFA4FF47A7008F004F807F04AFA402800F0178406D822280FD02E2801F065
:40608000718403F0EDB85E2801F03C80822802F0B884582843F0E48002F087B89C4B1B78DBB2FF2B43F0F180994B5B78DBB2F62B43F0ED80964B93F82130DBB2F02B43F08E
:4060C000E880934BDB78DBB2F92B43F0E480904B997801F00F0101318E4B83F8E01000228D4B1A600BE01A1D8948805C894A1A4400F00F0082F8BD000133874A1360864B69
:406100001B68072BEFD90022834B1A600CE003F10D027F48805C7F4A1A4400F00F0082F8CA0001337C4A13607B4B1B68072BEED900227A4B1A600AE05A1C7648034493F87C
:40614000BD0010AB134403F81C0C744B1A60734B1B68072BF0D90922704B1A600AE0704A1A4492F8CA0010AA1A4402F81C0C01336A4A1360694B1B68102BF0D910238DF87A
:406180002430684B1B7803F00F03994203D1664B1B78AB420BD0654B1B7803F00F03994240F0DC80624B1B78AB4240F0D7800022594B1A6008E020465E4AD15C04F076FC59
:4061C000554A136801331360534B1B68052BF2D920460A2104F06AFC00224F4B1A6008E02046554AD15C04F061FC4B4A136801331360494B1B680A2BF2D920460A2104F0E3
:4062000055FC0022444B1A6009E04A4A13442046197A04F04BFC404A1368013313603E4B1B680E2BF1D920460A2104F03FFC0820214605F0CBFA0022374B1A6009E03D4A88
:4062400013442046197E04F031FC334A136801331360314B1B68102BF1D920460A2104F025FC314B1B78AB4204D1C020192104F0D3FB04E040F21910192104F0CDFB204618
:4062800005F01CFA0122254B1A6010E02B4A1A4492F8CA1010AA1A4402F82C1C03F108012748415C02F83C1C01331C4A13601B4B1B68082BEAD910A9082301F82C3D022096
:4062C00001AA04F06FFF0022134B1A600AE0194A1344204693F82C1004F0E8FB0E4A1368013313600C4B1B68112BF0D91548214605F0F6FA0C4B1B78AB4225D1C02009A98E
:4063000004F04CFB4FF400700E4904F047FB25E0B488FF1F0087FF1F4883FF1F1085FF1FF786FF1F0B88FF1FEC87FF1F6685FF1F3483FF1F6081FF1FE484FF1FFF86FF1F5F
:406340001485FF1FF487FF1F40F2191009A904F025FB40F22720B04904F020FBAF4B93F8E020AF4B1B7803F00F03934203D1AD4B1B78AB420BD0AC4B1B7803F00F039A42AD
:4063800040F0C080A94B1B78AB4240F0BB800022A74B1A6008E02046A64AD15C04F086FBA34A136801331360A14B1B68052BF2D920460A2104F07AFB00229D4B1A6008E041
:4063C00020469D4AD15C04F071FB994A136801331360974B1B680A2BF2D920460A2104F065FB0022924B1A6009E0924A13442046197A04F05BFB8E4A1368013313608C4BCB
:406400001B680E2BF1D920460A2104F04FFB0820214605F0DBF90022854B1A6009E0854A13442046197E04F041FB814A1368013313607F4B1B68102BF1D920460A2104F043
:4064400035FB784B1B78AB4204D1D920192104F0E3FA04E04FF4A070192104F0DDFA204605F02CF90122754B1A6010E0744A1A4492F8CA1010AA1A4402F82C1C03F10801F0
:406480007048415C02F83C1C01336C4A13606B4B1B68082BEAD910A9082301F82C3D022001AA04F07FFE0022614B1A600AE0614A1344204693F82C1004F0F8FA5C4A1368BD
:4064C000013313605A4B1B68112BF0D95248214605F006FA534B1B78AB4209D1D92009A904F05CFA40F21A204B4904F057FA09E04FF4A07009A904F051FA4FF41070464921
:4065000004F04CFA454B93F8E0204F4B1B7803F00F03934203D1434B1B78AB420BD04B4B1B7803F00F039A4240F0E1803F4B1B78AB4240F0DC8000223D4B1A6008E020469F
:406540003C4AD15C04F0B2FA394A136801331360374B1B68052BF2D920460A2104F0A6FA0022334B1A6008E02046394AD15C04F09DFA2F4A1368013313602D4B1B680A2B90
:40658000F2D920460A2104F091FA0022284B1A6009E0284A13442046197A04F087FA244A136801331360224B1B680E2BF1D920460A2104F07BFA0820214605F007F90022AE
:4065C0001B4B1A6009E01B4A13442046197E04F06DFA174A136801331360154B1B68102BF1D920460A2104F061FA0E4B1B78AB4205D14FF48070192104F00EFA04E040F245
:406600005910192104F008FA204605F057F801220A4B1A602FE000BFF487FF1F0087FF1F5E86FF1FEC87FF1F6A85FF1F3483FF1F4883FF1F6081FF1F3C83FF1F1085FF1F2C
:40664000FF86FF1F1485FF1FF387FF1FFE86FF1FA888FF1FA94A1A4492F8CA1010AA1A4402F82C1C03F10801A548415C02F83C1C0133A44A1360A34B1B68082BEAD910A99B
:40668000082301F82C3D022001AA04F08BFD00229D4B1A600AE09D4A1344204693F82C1004F004FA984A136801331360964B1B68112BF0D99648214605F012F9954B1B7814
:4066C000AB420AD14FF4807009A904F067F940F20D208F4904F062F909E040F2591009A904F05CF940F24D20894904F057F98A4B93F8E020894B1B7803F00F03934203D16A
:40670000844B1B78AB420BD0854B1B7803F00F039A4240F0C280834B1B78AB4240F0BD800022794B1A6008E02046784AD15C04F0BDF9754A136801331360734B1B68052B25
:40674000F2D920460A2104F0B1F900226E4B1A6008E02046744AD15C04F0A8F96A4A136801331360684B1B680A2BF2D920460A2104F09CF90022644B1A6009E0634A13449E
:406780002046197A04F092F95F4A1368013313605D4B1B680E2BF1D920460A2104F086F90820214605F012F80022574B1A6009E0564A13442046197E04F078F9524A13683F
:4067C00001331360504B1B68102BF1D920460A2104F06CF94F4B1B78AB4205D14FF48960192104F019F904E040F21E40192104F013F9204604F062FF0122424B1A6010E006
:406800003E4A1A4492F8CA1010AA1A4402F82C1C03F108013A48415C02F83C1C0133394A1360384B1B68082BEAD910A9082301F82C3D022001AA04F0B5FC0022324B1A604F
:406840000AE0324A1344204693F82C1004F02EF92D4A1368013313602B4B1B68112BF0D92B48214605F03CF82A4B1B78AB420AD14FF4896009A904F091F840F20E40244961
:4068800004F08CF809E040F21E4009A904F086F840F239401E4904F081F806F063FE012002F022BD214B1B78DBB2FF2B42F0F5841E4B5B78DBB2F62B42F0F1841B4B93F818
:4068C0003F30DBB2F02B42F0EC84184BDB78DBB2F92B42F0E8840022154B1A6000F008BCB31C124AD15C01F00F0101310A4B83F8E0100022044B1A6029E000BFFF86FF1F89
:406900001485FF1F1085FF1F4883FF1F6081FF1FF487FF1FEC87FF1F0087FF1F0B85FF1F6785FF1F3483FF1FF484FF1FB488FF1F6C85FF1FF2180432A748805CA74A1A4450
:4069400000F00F0082F8BD000133A54A1360A44B1B68072BEED90022A14B1A600CE0F2180D329D48805C9D4A1A4400F00F0082F8CA0001339A4A1360994B1B68072BEED9EF
:406980000022984B1A600AE05A1C9448034493F8BD0010AB134403F81C0C924B1A60914B1B68072BF0D909228E4B1A600AE08E4A1A4492F8CA0010AA1A4402F81C0C013347
:4069C000884A1360874B1B68102BF0D910238DF82430864B1B7803F00F038B4203D1844B1B78AB420BD0834B1B7803F00F03994240F0C080804B1B78AB4240F0BB80002230
:406A0000774B1A6008E020467C4AD15C04F04EF8734A136801331360714B1B68052BF2D920460A2104F042F800226D4B1A6008E02046734AD15C04F039F8694A13680133B4
:406A40001360674B1B680A2BF2D920460A2104F02DF80022624B1A6009E0684A13442046197A04F023F85E4A1368013313605C4B1B680E2BF1D920460A2104F017F80820CE
:406A8000214604F0A3FE0022554B1A6009E05B4A13442046197E04F009F8514A1368013313604F4B1B68102BF1D920460A2103F0FDFF4F4B1B78AB4204D1C020192103F06C
:406AC000ABFF04E040F21910192103F0A5FF204604F0F4FD0122434B1A6010E0494A1A4492F8CA1010AA1A4402F82C1C03F108014548415C02F83C1C01333A4A1360394B9F
:406B00001B68082BEAD910A9082301F82C3D022001AA04F047FB0022314B1A600AE0374A1344204693F82C1003F0C0FF2C4A1368013313602A4B1B68112BF0D93348214663
:406B400004F0CEFE2A4B1B78AB4209D1C02009A903F024FF4FF400702C4903F01FFF09E040F2191009A903F019FF40F22720274903F014FF194B93F8E020254B1B7803F0D0
:406B80000F03934203D11A4B1B78AB420BD0214B1B7803F00F039A4240F0E080164B1B78AB4240F0DB8000220D4B1A6008E02046124AD15C03F07AFF094A136801331360D2
:406BC000074B1B68052BF2D920460A2103F06EFF0022034B1A6028E0B488FF1F0087FF1F4883FF1F1085FF1FF786FF1F0B88FF1FEC87FF1F6685FF1F3483FF1F6081FF1F8D
:406C0000E484FF1FFF86FF1F1485FF1FF487FF1F5E86FF1F6A85FF1F2046A54AD15C03F045FFA44A136801331360A24B1B680A2BF2D920460A2103F039FF00229D4B1A6053
:406C400009E09D4A13442046197A03F02FFF994A136801331360974B1B680E2BF1D920460A2103F023FF0820214604F0AFFD0022904B1A6009E0904A13442046197E03F010
:406C800015FF8C4A1368013313608A4B1B68102BF1D920460A2103F009FF884B1B78AB4204D1D920192103F0B7FE04E04FF4A070192103F0B1FE204604F000FD0122804B84
:406CC0001A6010E07F4A1A4492F8CA1010AA1A4402F82C1C03F108017B48415C02F83C1C0133774A1360764B1B68082BEAD910A9082301F82C3D022001AA04F053FA00227E
:406D00006C4B1A600AE06C4A1344204693F82C1003F0CCFE674A136801331360654B1B68112BF0D96948214604F0DAFD634B1B78AB4209D1D92009A903F030FE40F21A2013
:406D4000624903F02BFE09E04FF4A07009A903F025FE4FF410705D4903F020FE5C4B93F8E0205C4B1B7803F00F03934203D1534B1B78AB420BD0584B1B7803F00F039A42A4
:406D800040F0DC80554B1B78AB4240F0D7800022484B1A6008E02046474AD15C03F086FE444A136801331360424B1B68052BF2D920460A2103F07AFE00223E4B1A6008E02A
:406DC0002046474AD15C03F071FE3A4A136801331360384B1B680A2BF2D920460A2103F065FE0022334B1A6009E0334A13442046197A03F05BFE2F4A1368013313602D4B4B
:406E00001B680E2BF1D920460A2103F04FFE0820214604F0DBFC0022264B1A6009E0264A13442046197E03F041FE224A136801331360204B1B68102BF1D920460A2103F0B0
:406E400035FE1E4B1B78AB4205D14FF48070192103F0E2FD04E040F25910192103F0DCFD204604F02BFC0122154B1A6010E0154A1A4492F8CA1010AA1A4402F82C1C03F17F
:406E800008011148415C02F83C1C01330C4A13600B4B1B68082BEAD910A9082301F82C3D022001AA04F07EF90022024B1A6024E03C83FF1F4883FF1F6081FF1FEC87FF1FF4
:406EC0001085FF1FFF86FF1F1485FF1FF487FF1F0087FF1FF387FF1FFE86FF1F3483FF1FA888FF1FA74A1344204693F82C1003F0DDFDA54A136801331360A34B1B68112BEA
:406F0000F0D9A248214604F0EBFCA14B1B78AB420AD14FF4807009A903F040FD40F20D209A4903F03BFD09E040F2591009A903F035FD40F24D20954903F030FD954B93F830
:406F4000E020954B1B7803F00F03934203D1904B1B78AB420BD0914B1B7803F00F039A4240F0C2808E4B1B78AB4240F0BD800022854B1A6008E02046824AD15C03F096FDF9
:406F8000814A1368013313607F4B1B68052BF2D920460A2103F08AFD00227B4B1A6008E02046804AD15C03F081FD774A136801331360754B1B680A2BF2D920460A2103F0CF
:406FC00075FD0022704B1A6009E06E4A13442046197A03F06BFD6C4A1368013313606A4B1B680E2BF1D920460A2103F05FFD0820214604F0EBFB0022634B1A6009E0614A42
:4070000013442046197E03F051FD5F4A1368013313605D4B1B68102BF1D920460A2103F045FD5B4B1B78AB4205D14FF48960192103F0F2FC04E040F21E40192103F0ECFC2E
:40704000204604F03BFB0122574B1A6010E0574A1A4492F8CA1010AA1A4402F82C1C03F108015348415C02F83C1C01334E4A13604D4B1B68082BEAD910A9082301F82C3D77
:40708000022001AA04F08EF800223F4B1A600AE03C4A1344204693F82C1003F007FD3A4A136801331360384B1B68112BF0D93748214604F015FC364B1B78AB420AD14FF4BD
:4070C000896009A903F06AFC40F20E402F4903F065FC09E040F21E4009A903F05FFC40F239402A4903F05AFC324A13681E331360304B1E681E2E7FF6F3AB06F033FA022010
:4071000002F0F2B82C4B1B78DBB2FF2B42F0CD80294B5B78DBB2F62B42F0C980264B93F85D30DBB2F02B42F0C480234BDB78DBB2F92B42F0C08000221E4B1A6000F008BCBF
:40714000B31C1D4AD15C01F00F010131114B83F8E01000220C4B1A600CE0F21804321648805C0C4A1A4400F00F0082F8BD000133054A1360044B1B68072BEED90022024B3F
:407180001A6028E06081FF1F4883FF1FF487FF1FEC87FF1F0087FF1F0B85FF1F6785FF1F3483FF1FF484FF1F1085FF1FFF86FF1F1485FF1F6C85FF1FB488FF1FF2180D32B4
:4071C000A748805CA74A1A4400F00F0082F8CA000133A54A1360A44B1B68072BEED90022A24B1A600AE05A1C9E48034493F8BD0010AB134403F81C0C9C4B1A609B4B1B68D4
:40720000072BF0D90922994B1A600AE0984A1A4492F8CA0010AA1A4402F81C0C0133934A1360924B1B68102BF0D910238DF82430904B1B7803F00F038B4203D18E4B1B789E
