:4000000000800020110000009D0000009D00000080B500AF064B064A126842F020021A60044B054A12681A6000F004FB00F03AF8E8460040BC760040FA46004010B5054CEF
:40004000237833B9044B13B10448AFF300800123237010BD2881FF1F00000000901D000008B5064B1BB106480649AFF300800648036813B1054B03B1984708BD00000000C2
:40008000901D00002C81FF1F0881FF1F0000000080B500AF00F078FAFEE700BF80B400AFFEE700BF80B586B000AF224B7B61224B3B61204B7B6135E03B691B68FB603B69C2
:4000C0005B68BB603B699B683B6000237B600CE0FB681A68BB681A60BB680433BB60FB680433FB607B6804337B607A683B689A42EED13B69DB683B6000237B6008E0BB686A
:4001000000221A60BB680433BB607B6804337B607A683B689A42F2D13B6910333B617B69013B7B617B69002BC6D101F0F5FDFFF7AFFFFEE701000000A021000080B582B0DB
:4001400000AF174B174A1A60174B174A126842F400721A6000237B600FE07B68032B04D8124B7A6853F8223000E0114B114A796842F821307B6801337B607B682F2BECD987
:400180000D4B1B78DAB20D4B1A700D4B094A1A6000F026F90B4B00221A600837BD4680BD0CED00E00004FA0514ED00E0000000009D0000000080FF1FBC7600400481FF1F34
:4001C00008ED00E00081FF1F80B582B000AF78603960786800213A6801F0CDFD0837BD4680BD00BF80B584B000AFF860B9607A60F868B9687A6801F0B5FD1037BD4680BD78
:4002000080B584B000AFF860B9607A60F868B9687A6801F0A7FD1037BD4680BD80B483B000AF0346FB71FEE780B487B000AF7860396000233B6100237B6126E07B699B005E
:400240007A6813441B68BB60BB68FB73BB6823F0FF03BB6013E03B695B003A6813441B781A46BB6813443A69520039680A4452781A703B6901333B61FB7B013BFB73FB7B29
:40028000002BE8D17B6901337B617B69102BD5D91C37BD465DF8047B704700BF80B582B000AF304B19221A802F4B18221A702F4B02221A704FF0402308221A702C4B03223B
:4002C0001A702C4B2C4A1278D2B21A702B4B08221A802B4B41F251221A800023FB7019237B6014E0FB785B00DAB2264B1B78DBB203F00103DBB21343DBB203F00303FB70B0
:400300004FF4F07000F00CFF7B68013B7B607B68002B02D0FB78032BE4D17B68002B02D10320FFF77BFF184B4FF480721A80164B07221A70154B00221A70154B48221A70D5
:40034000114B00221A70134B02221A70124B124A1278D2B242F00102D2B21A700837BD4680BD00BF80400040824000400043004000420040A14600400801004922420040FD
:40038000204200402542004004400040064000400840004001400040A243004080B483B000AF0B4B1B78FB710A4BFA7902F00702D2B21A70084BFA791209D2B21A70074B3F
:4003C00044221A700C37BD465DF8047B704700BFCF0100496E5800406F5800407658004080B582B000AF72B6334B334A1278D2B242F02402D2B21A700023FB7113E0FA79A7
:4004000013465B0013445B002C4A13443B603B681A683B689B889BB210461946FFF7D4FEFB790133FB71FB79072BE8D924482549FFF7FAFE244B244A1278D2B242F00202D5
:40044000D2B21A70214B214A1278D2B242F00202D2B21A701E4B1E4A1278D2B242F04002D2B21A701B4B1B4A1278D2B242F01002D2B21A70184819490A22FFF7C1FE184BB3
:40048000174A1278D2B242F00802D2B21A70154B01221A70FFF702FF124B81221A70124B01221A70FFF77AFF104809490E22FFF799FE0837BD4680BDE8460040941D000077
:4004C000C41D0000081E00000350014013500140A0430040C24300406051004068210000224300400048004004000840B043004080B485B000AF78600B467B800023FB8154
:400500000BE07B88013B7A6813441B781A46FB891344FB817B88013B7B807B88002BF0D1FB895B429BB218461437BD465DF8047B704700BF80B586B000AFF860B9607A601C
:400540000023FB75FA680F4B9A4206D0FB68002B03D0002000F070FF0CE00BE07B68013B7B60FA68BB681A447B6813441A78FB7D1344FB757B68002BF0D1FB7D18461837E7
:40058000BD4680BD0080004080B582B000AF06237B60002000F06EF80346002B01D100237B601C4B1B681B68002000211A46FFF7C1FF0346FB70184B1B681B78FA78D31A17
:4005C000FB70FB785B42FB70134B1B681B78FA789A4204D10F4B1B681B68002B02D1002000F02AFF0D4B1B78DBB203F0C003402B02D07B68002B05D0084B00221A7000207A
:4006000000F0AEF8322000F0ABF800F009F80837BD4680BD1081FF1F0C81FF1FFA46004080B500AF024B80221A7000F011FF80BDFA46004080B500AF0C4B1B78DBB203F08D
:40064000C003802B11D1094B00221A700220002100F0DCFB0346002B07D00220002100F0D5FB0346184600F003F880BDFA460040004700BF90B587B000AF0346FB71FB7929
:400680000320194600F0C2FB034601331C02FB790420194600F0BAFB03462344FB600023FB740023BB74FB790320194600F0AEFB034601331B027B6111E07B691B78FB720B
:4006C000FB7A002B04D0FB7AFF2B01D00123FB74BA7CFB7A1344BB747B6901337B617A69FB689A42E9D3FB790320194600F08EFB034601331B02DB087B61FA68174B9A4218
:4007000002D0FB68DB0801E04FF40043FB600AE07B6903F190431B78DAB2BB7C1344BB747B6901337B617A69FB689A42F0D3BB7C5B42BB74BC7CFB790120194600F066FB15
:4007400003469C4202D1FB7C002B01D1062300E0002318461C37BD4690BD00BFC0FF030080B5ADF5247D00AF0246FB1D1A700023A7F88A320023A7F888320A2387F88732ED
:40078000002387F8863200F055FD0346002B02D0002000F051FE00F01BFC62B6002387F88D32FB1D1B78002B02D0FB1D1B7800E0FF2307F59E7107F26A2208464FF49671FB
:4007C00000F034FCC7F87802FB1D1B78002B04D097F88732013B87F8873297F88732002B03D0D7F87832002BDBD1D7F87832002B00D0B0E2B7F86A32062B04D907F59E7338
:400800001B78012B03D0042387F88D3244E007F59E73DB781B029AB207F59E739B781343A7F88A32B7F88A32053307F59E72D35C1B029AB2B7F88A32043307F59E71CB5CE8
:400840001343A7F87632B7F88A32DA1DB7F86A329A4203D9032387F88D321DE0B7F88A32063307F59E72D35C172B03D0042387F88D3211E0B7F88A3204339BB207F59E72D0
:4008800010461946FFF734FE0346B7F876229A4202D0082387F88D320023A7F88E3297F88D32002B40F04C8207F59E731B7987F87532042387F88D3207F59E735B78313B43
:4008C0000A2B00F2398201A252F823F0F908000033090000390D0000CD0900003F0B0000390D0000510B0000A70B0000CD090000EB0B0000210D000097F88632012B17D1CA
:40090000B7F88A32002B13D10020FFF7B3FE0346002B14BF00230123DBB21A4607F59E731A710123A7F88E32002387F88D3207E206E297F88632012B47D1B7F88A32012B8C
:4009400043D197F87532032B3FD8D14B1B681B681B0C87F8743297F8752297F874329A4208D1CB4B1B681B681B0A9BB2DBB2A7F884320DE097F8752297F874329A4203D9FA
:400980000023A7F8843203E04FF48073A7F88432B7F88432DAB207F59E731A71B7F884321B0A9BB2DAB207F59E735A7107F59E73FF229A7107F59E730022DA710423A7F814
:4009C0008E32002387F88D32BAE1B9E107F59E735B78342B23D197F88632012B40F0B081B7F88A32032B40F0AB8197F875323F2B08D997F875325BB2002B03DB1023A7F806
:400A0000883203E04FF49073A7F88832B7F8883207F11002104600211A4601F0ACF997F88632012B40F08A80B7F88A32022B40F28580B7F8883207F11002D118B7F88A3257
:400A4000033B07F59E720732084611461A4601F089F9B7F88822B7F88A3213449BB2033BA7F8883297F875323F2B0AD997F875325BB2002B05DB00F099FC1023A7F88A3298
:400A800003E04FF49073A7F88A32B7F88822B7F88A329A424BD107F59E739B791B029AB207F59E735B791343A7F8883297F875323F2B27D897F875329BB21B029AB2B7F8A2
:400AC00088321344A7F87232714B1B681B681B0AA7F882326E4B1B681B68DBB2002B04D0B7F882320133A7F88232B7F87222B7F882329A4206D20A2387F88D320023A7F8AC
:400B000088321DE197F87502B7F8881207F11002B7F88A3200F0A0FB0346002B01D00A2300E0002387F88D3200F0D6FC02E0032387F88D320023A7F8883201E100E197F825
:400B40008632012B03D10023A7F8883203E1F7E097F88632012B25D1B7F88822B7F88A321344B3F5967F19D8002387F88D32B7F8883207F11002D118B7F88A3207F59E7220
:400B80000432084611461A4601F0ECF8B7F88822B7F88A321344A7F8883203E0032387F88D32CDE0CCE0B7F88A32002B1CD107F10803384A92E8030083E80300012387F87B
:400BC00086320823A7F88E32B7F88E3207F59E72111D07F10802084611461A4601F0C2F8002387F88D32ABE0AAE097F88632012B40F09580B7F88A32032B40F0908007F555
:400C00009E739B791B029AB207F59E735B791343A7F8703297F875323F2B13D997F875325BB2002B0EDBB7F870321B01C7F86C321948D7F86C121022FFF77CFC034687F8EB
:400C4000813212E097F875321A02B7F8703213441B02C7F86C320020D7F86C124FF48072FFF768FC034687F8813297F875323F2B29D897F8753203F510331A02B7F8703265
:400C800013445B01C7F86C320023A7F87E3216E01081FF1F7421000000800040B7F87E22D7F86C3213441B78DAB297F88132134487F88132B7F87E320133A7F87E32B7F82A
:400CC0007E321F2BEAD997F87532032B19D1B7F87032FF2B15D10520002100F097F80346DBB297F88122D31A87F881320620002100F08CF80346DBB297F88122D31A87F86D
:400D0000813297F881325B42DAB207F59E731A71002387F88D320123A7F88E3210E00FE00020FFF7A7FC0346002B02D1114B80221A7000F08DFB03E0052387F88D3200BF32
:400D400097F88D1207F59E72B7F88E32084611461A4600F011F8FB1D1B78002B3FF41EAD97F88632012B3FF419AD07F52477BD4680BD00BFFA46004080B584B000AF3960C5
:400D800013460246FA71BB803B6801221A703B680133FA791A703B680233BA88D2B21A703B680333BA88120A92B2D2B21A70BB8804339BB238681946FFF79AFB0346FB8101
:400DC000BB8804333A681344FA89D2B21A70BB8805333A681344FA89120A92B2D2B21A70BB8806333A68134417221A70BB8807339AB23B1D386811461A46962300F0F2F847
:400E0000034618461037BD4680BD00BF80B586B000AF02460B46FA71BB710223FB740023FB60FB79013B092B00F2928001A252F823F000BF5D0E0000770E0000910E000033
:400E4000A70E0000C10E0000DB0E00000B0F0000F50E0000210F0000370F0000BA7913461B069B1A1B0203F57F3303F570737B610123FB7472E0BA7913461B069B1A1B022E
:400E800003F57F3303F2C1337B610423FB7465E0BA7913461B069B1A1B0203F57F3303F2C5337B615AE0BA7913461B069B1A1B0203F57F3303F2C9337B610423FB744DE003
:400EC000BA7913461B069B1A1B0203F57F3303F574737B610123FB7440E0BA7913461B069B1A1B0203F57F3303F2D1337B610123FB7433E0BA7913461B069B1A1B0203F540
:400F00007F3303F2D6337B6128E0BA7913461B069B1A1B0203F57F3303F2D2337B611DE0BA7913461B069B1A1B0203F57F3303F575737B6112E0BA7913461B069B1A1B02CB
:400F400003F57F3303F576737B610423FB7405E0002000F071FA00237B6100BFFB7C012B03D17B691B78DBB2FB60FB7C022B0BD17B691B78DBB2FB607B6901331B78DBB269
:400F80001B02FA681343FB60FB7C042B1BD17B691B78DBB2FB607B6901331B78DBB21B02FA681343FB607B6902331B78DBB21B04FA681343FB607B6903331B78DBB21B06E2
:400FC000FA681343FB60FB6818461837BD4680BD80B500AF00F0A0FC00F0A0FD00F0F6FD80BD00BF80B586B000AFF8607A600A467A817B720023FB8200F090FD09E0FB8AA3
:40100000FA6813441B78184600F0C6FDFB8A0133FB82FA8A7B899A42F1D37B687A891A80002318461837BD4680BD00BF90B589B000AFF8607A600A467A817B720523BB61CB
:401040000023FB831AE000F021FD0346002B0FD000F01CFD0346FB82192000F009FA00F015FD0346FA8A9A42F2D30023BB610DE0012000F0FDF9FB8B0133FB83F98B7A7A26
:4010800013469B0013445B009942DCDB7B6800221A800023BB8336E000F0F8FC0346BB827B681A88BB8A13449AB27B681A807B681B887A899A421ED90023FB830CE0BB8B5F
:4010C000FA68D41800F098FC03462370BB8B0133BB83FB8B0133FB83FA8BBB8A9A42EED3BB8B013BFA6813441B78172B0BD0052000F0BEF907E07B681A88BB8AD31A9AB24A
:401100007B681A8004E000F0C1FC0346002BC3D1BB6918462437BD4690BD00BF000000000230800800F0058000BF013800467FF4FCAF7047EFF3108072B6704780F310880F
:40114000704700BFAFF3008080B582B000AF00F039FA4FF0FF337B6000F05EFB0346002B24D1012000F026FB0346072B1BD11348022100F049FA0346022B0DD100237B6004
:4011800002E0012000F096F90D4B1B78DBB203F00203002BF5D006E0094B1B78DBB203F00203002BE3D000F06BFB01E004237B607B6818460837BD4680BD00BF5481FF1F72
:4011C0002247004080B582B000AF00F0FBF900F023FB0346002B23D100F07AFB78607B68072B1AD102E0012000F064F9104B1B78DBB203F00203002BF5D00D4B1B78DBB26E
:4012000003F00203002B08D0094B1B78DBB29B08DBB2002B01D100237B6000F031FB01E004237B607B6818460837BD4680BD00BF2247004080B582B000AFFFF7C3FF786047
:401240007B68002B02D1FFF77FFF78607B6818460837BD4680BD00BF80B586B000AFBA600246FA730A46BA81FB8000237B61FB7B3F2B04D8FB7B042B01D901237B61FB7B23
:401280005BB2002B01DA01237B61FB7B3F2B04D9FB7B412B01D901237B61FB7B3F2B06D8BB89B3F5807F0CD901237B6109E0BB89802B01D901237B61FB88102B01D00123AF
:4012C0007B61BB68002B01D101237B617B69002B62D100F0A1FA0346002B5BD1F97BBA89FB8808461146BA6800F0BAF978617B69072B4CD102E0012000F0DCF8294B1B7807
:40130000DBB203F00203002BF5D0264B1B78DBB203F00203002B09D0224B1B78DBB29B08DBB2002B02D100237B6102E04FF0FF337B617B69002B2AD11B4B1A781A4B5B7888
:40134000F87BB98900F0F2F978617B69072B1ED102E0012000F0AEF8124B1B78DBB203F00203002BF5D00F4B1B78DBB203F00203002B09D00B4B1B78DBB29B08DBB2002BBA
:4013800002D100237B6102E04FF0FF337B6100F077FA01E004237B617B6918461837BD4680BD00BF224700405481FF1F80B582B000AFFFF7BFFE0346FB71194B184A1278ED
:4013C000D2B242F00802D2B21A70164B154A1278D2B242F00802D2B21A70134BC8221A70124B124A1278D2B242F01002D2B21A700F4B0F4A1278D2B242F01002D2B21A7009
:4014000000BF0C4B1B78DBB203F02003002BF8D0FB791846FFF792FE0837BD4680BD00BFA0430040B043004001470040AC430040BC4300400047004080B483B000AF0346A5
:40144000FB7101BE0C37BD465DF8047B704700BF80B400AF054B054A1278D2B242F00102D2B21A70BD465DF8047B7047F646004080B582B000AF786008E00C4B1B681846C6
:40148000FFF74EFE7B68A3F500437B607B68B3F5004FF2D8064B1B687A6802FB03F31846FFF73EFE0837BD4680BD00BF2081FF1F1881FF1F80B582B000AF0346FB80FB8863
:4014C000044A127802FB03F31846FFF729FE0837BD4680BD1C81FF1F80B582B000AFFFF729FE0346FB7100BF00BF00BF00BF00BF00BF00BF00BF00BF00BF00BF00BF00BFD1
:4015000000BF00BF00BF094B084A128892B242F0040292B21A80054B1B88BFF36F8FFB791846FFF70BFE0837BD4680BD0048004080B584B000AF03463960FB710F4B1B6816
:40154000FB60FB791F2B02D90020FFF775FFFB7903F01F0310339B00FA6813441B68BB60FB7903F01F0310339B00FA6813443A681A60BB6818461037BD4680BD08ED00E016
:4015800080B582B000AF02460B46FA71BB71BB79072B02D90020FFF74FFFFB791F2B02D90020FFF749FFFB7903F01F0303F1604303F56443BA795201D2B21A700837BD46B4
:4015C00080BD00BF80B582B000AFFFF7B3FD0346FB710B4B0A4A1278D2B242F00802D2B21A70084B074A1278D2B242F00802D2B21A70FB791846FFF7A1FD0837BD4680BD9B
:40160000A0430040B043004080B584B000AF78600B46FB700023FB7314E002E00120FFF749FF0D4B1B78DBB203F00103002BF5D0FB7B7A681344094A1278D2B21A70FB7B73
:401640000133FB73FA7BFB789A42E6D3FB7B18461037BD4680BD00BF224700402047004080B489B000AFBA600246FA730A46BA81FB800723FB612B4B1B78DBB203F00203DC
:40168000002B45D0284BB6221A70274BD5221A70254B02221A70234B1B78DBB203F00203002B32D1204BFA7B1A7000237B8308E01D4B7A8BB9680A4412781A707B8B0133B3
:4016C0007B837A8BFB889A42F2D3FB88B3F5807F20D1FB7B3F2B1DD8FB7B03F510331A02BB8913445B017B6100237B8309E00E4B798B7A690A441278D2B21A707B8B0133C9
:401700007B837B8B1F2BF2D904E00923FB6101E00423FB61FB6918462437BD465DF8047B704700BF224700402047004080B485B000AFF871B980BA71FB700723FB601B4BCB
:401740001B78DBB203F00203002B26D0184BB6221A70174BD8221A70154B05221A70134B1B78DBB203F00203002B13D1104BFA791A700F4BBA88120A92B2D2B21A700C4B36
:40178000BA88D2B21A700A4BBA791A70084BFA781A7004E00923FB6001E00423FB60FB6818461437BD465DF8047B7047224700402047004080B485B000AF0346FB710723C9
:4017C000FB60134B1B78DBB203F00203002B16D0104BB6221A700F4BE1221A700D4B0E221A700B4B1B78DBB203F00203002B03D1084BFA791A7004E00923FB6001E0042321
:40180000FB60FB6818461437BD465DF8047B7047224700402047004080B582B000AF04237B60FFF787FC0346FB70124B1B78002B16D1104B01221A7000237B600E4B1B683A
:4018400003F00103002B0BD00B4B0B4A126822F001021A6000BF00BF00BF084B01221A60FB781846FFF76AFC7B6818460837BD4680BD00BF4481FF1F040008404881FF1FC8
:4018800080B582B000AFFFF755FC0346FB710D4B00221A700C4B1B68012B0BD10B4B0B4A126842F001021A6000BF00BF00BF064B00221A60FB791846FFF740FC0837BD46EC
:4018C00080BD00BF4481FF1F4881FF1F0400084080B483B000AF07237B600D4B1B78DBB203F00203002B09D00A4BB6221A70094BE0221A70074B0D221A7001E004237B60C2
:401900007B6818460C37BD465DF8047B704700BF224700402047004080B500AF054B1B78002B04D100F008F8024B01221A7000F02FF880BD4C81FF1F80B500AF00200D493C
:40194000FFF7F6FD00200721FFF71AFE0A4B00221A700A4B72221A70094B20221A70094B06221A70084B47221A70084B00221A7080BD00BF0D1C00004D81FF1F8C64004008
:401980008A6400402E6400403E6400408B64004080B582B000AFFFF7CDFB0346FB71124B114A1278D2B242F02002D2B21A700F4B0E4A1278D2B242F01002D2B21A700C4BFC
:4019C00001221A600B4B0B4A1278D2B242F01002D2B21A7000F086F9FB791846FFF7AEFB0837BD4680BD00BF9C6400409A64004000E100E09B64004080B483B000AF1C4B26
:401A000001221A601B4B1B78BB711B4B1B787B711A4B1B78DBB2002B03D1BA797B799A4219D0BB79164AD35CFB71BB790133BB71BB795BB2002B01DA0023BB710D4BBA79AB
:401A40001A700E4B1B78DBB2002B03D00B4B00221A7003E002E00B4B1B78FB710A4B01221A60FB7918460C37BD465DF8047B704780E100E04E81FF1F4F81FF1F5081FF1FA9
:401A80005881FF1F4F64004000E100E080B483B000AF1D4B01221A601C4B1B78DAB21C4B1B78DBB29A420AD11A4B1B78DBB2002B02D08023FB711DE00023FB711AE0134B27
:401AC0001B78DAB2124B1B78DBB29A4208D2104B1B78DAB20D4B1B78DBB2D31AFB7109E00B4B1B78DAB2094B1B78DBB2D31ADBB2803BFB71084B01221A60FB7918460C37D1
:401B0000BD465DF8047B704780E100E04E81FF1F4F81FF1F5081FF1F00E100E080B582B000AFFFF707FB0346FB71144B134A1278D2B242F00102D2B21A70104B0F4A12783D
:401B4000D2B222F00102D2B21A70FB791846FFF7F5FA0B4B01221A600A4B00221A700A4B00221A70094B00221A70094B00221A70084B01221A600837BD4680BD9F64004060
:401B800080E100E04E81FF1F4F81FF1F5081FF1F5181FF1F00E100E080B483B000AF0346FB7100BF074B1B78DBB203F00403002BF8D1054BFA791A700C37BD465DF8047B18
:401BC000704700BF6B6400404B64004080B582B000AFFFF7AFFA0346FB710B4B0A4A1278D2B242F00102D2B21A70074B064A1278D2B222F00102D2B21A70FB791846FFF771
:401C00009DFA0837BD4680BD9B64004080B483B000AF0023FB712B4B1B78BB71BB797B71BB7903F01E03002B0BD0BB7903F01E03DAB2254B1B78DBB21343DBB2DAB2224BC7
:401C40001A70BB7903F02003002B31D01F4B1B787B711F4B1B78DBB21E4A7979D1540123FB71FB79002B23D01B4B1B78DBB2002B02D01A4B01221A70154B1B78DBB2013307
:401C8000DAB2134B1A70124B1B78DBB2DBB25BB2002B02DA0E4B00221A700D4B1B78DAB20F4B1B78DBB29A4202D10B4B01221A70BB7903F02003002BADD10C37BD465DF85C
:401CC000047B70476A6400404D81FF1F4F6400404F81FF1F5881FF1F5081FF1F5181FF1F4E81FF1F80B400AF094B094A1278D2B242F00102D2B21A70064B064A1278D2B286
:401D000042F00102D2B21A70BD465DF8047B7047A2430040B243004070B50E4B0E4D0024ED1AAD101E46AC4204D056F8242090470134F8E700F022FA084D094B0024ED1A34
:401D4000AD101E46AC4204D056F8242090470134F8E770BD8821000088210000902100008821000010B50023934203D0CC5CC4540133F9E710BD02440346934202D003F848
:401D8000011BFAE77047000032000000D021000000000000005100406000C05100401000F0510040100000000140001000140140000800400140000A004C01400002005051
:401DC000014020000252004003640040010501404B0A0140420B01403A0C0140430D01405D0E01402F0F014002400140014101400342014004440140034501400246014072
:401E00000350014001510140310134028A388B0F8C72E60102030308051A07040B050C0C0E1110101103120C130C181C1A021C101D031F14201421202C092E102F18301F93
:401E4000311C3303352039083B023F1454185604580459045B045F018002850A860287048A028B058F08900296029D039F0CA001A503A704AD03AF04B002B10FB401BB02F4
:401E8000BE11C053C104C5E0C6CBC80EC9FFCAFFCBFFCEF0CF44D00CD401D804D904DA04DB04DF01E6C0EA40EB02008001020428074009010B060D020E100F2010811180F0
:401EC000150119021E882080210622102340250126022740280129022F2231023342374038283A303B063D803E203F04450246104D014E02548057305A025D015E986080A7
:401F00006150808082109028920293029508974099509E20A140A501C079C23BC419CA59CC19CE77D0C0D210D6F1D80DE4040104050209020D04110215011D0121012704B9
:401F400029082D0133023501370C39803F105602571159045B045F01800F830485C08603880489188C018D44900391E7920C93189402958098039BE39D10A00FA11CA3E14C
:401F8000A40CA51CA7E2A80CA908AA03AC08ADFFB00FB1C0B31FB738BA82BB88D804D904DF010160039009080A400B041219130119811A401BC0228923012540261027109F
:401FC000284029A42E602FA0308031093310344035043688370939423A103B043D023E143F4058805A405E206C206E146F097484752076138D048F409028914293069508B6
:40200000974199509C809D209E029F18A108A320A424A545A748B420B540C00FC20EC40FCAFFCCDFCEFFD620040C05010603070E1001120E1544173119671A031E08200146
:402040002206252227D129672E0C31803360340F350737183A203F404003454049FF4A074BFF4C404D204EF04F055008580459045A045F01604061A8624063208106830166
:40208000850688028B018C028D079204950796049D019E029F06A104A602A902AA01AE01B002B107B404B601B802BE50C042C103C205C401C6E0C70CC818C9FFCAFFCBFFB5
:4020C000CC62CDA0CEF0CF41D00CD804D904DA04DF01E640E702E910EA30EB10ED10EE10EF120320070609200B420E800F2111821608174818081B201D501E802189230460
:402100002602274028202B082D202E0230203108348037083B043C083D203F8141044480459447164B024E025010512056085710C0C4C2BBC4E9CAA6CC56CEF2D0F2D210E6
:402140003240CC10968082409680E68005025910C004D4019D10B502EA0281109D1000010C010E01000300000100020101000100000000006930122E001E0101F8B500BF9B
:40218000F8BC08BC9E467047610000003D010000F8B500BFF8BC08BC9E4670473D000000B02100000881FF1F20000000B000000000000000881D00008C1D000000366E0176
:4021C000C05D0000180000000000E02E000000000000000000000000000000000000000000000000000000000000000000000000000000000000000000000000000000009C
:402200000080002011220000A9370100A937010008B511F0CBFA00BF10B5054C237833B9044B13B10448AFF300800123237010BDF082FF1F0000000048490100084B10B5EB
:402240001BB108480849AFF300800848036803B910BD074B002BFBD0BDE81040184700BF0000000048490100F482FF1F0881FF1F0000000010B562B611F07AFC11F09AFD77
:4022800011F038FE11F028FF11F080FC12F042F8052012F0D3FA0024584B1C70584B1C70584B1C70584B1C70584B1C70584B1C70204620210EF0F2FA564B1C6006E0564AA0
:4022C000D15C564AD1540133524A1360524B1A78504B1B689A42F2D220200F210EF0DEFA00224C4B1A6007E04B4AD15C4B4A1A4491770133474A1360474B1A78454B1B6830
:402300009A42F1D22F200C210EF0C8FA0022414B1A6008E0404AD15C404A1A4482F82F1001333C4A13603C4B1A783A4B1B689A42F0D2402020210EF0B1FA0022354B1A6008
:4023400008E0354AD15C354A1A4482F843100133304A1360304B1A782E4B1B689A42F0D2602009210EF09AFA2B4B1878431EDBB2082B14D80022274B1A6008E00133264A6E
:40238000D15C264A1A4482F8D710224A1360214B1B68072BF2D9214B83F8D7000EE001221C4B1A6006E01D4A1A4482F8D7300133184A1360174B1B68082BF4D9802020214B
:4023C0000EF06CFA0022134B1A6008E0124AD15C124A1A4482F8611001330E4A13600E4B1A780C4B1B689A42F0D2A02020210EF055FA0022074B1A601BE000BF7488FF1FF7
:40240000D285FF1F8083FF1F3287FF1F1489FF1F6E8AFF1F2C84FF1FF885FF1F1C89FF1F964AD15C964A1A4482F87F100133954A1360924B1A78934B1B689A42F0D24FF4A7
:40244000DD7002210EF02AFA8C4B1B78052B05D18A4B5B7803F00F038B4A137040F2C11002210EF01BFA854B1B781BB1834B5A78864B1A7040F2C31002210EF00FFA7F4BF9
:402480001B781BB17D4B5A78814B1A7040F2C51002210EF003FA794B1B781BB1774B5A787C4B1A7040F2EE3002210EF0F7F9734B1B781BB1714B5A78774B1A704FF41F7076
:4024C00002210EF0EBF96D4B1B781BB16B4B5A78724B1A7040F27A2002210EF0DFF9674B1B781BB1654B5A786D4B1A7040F27E2002210EF0D3F9614B1B781BB15F4B5A7813
:40250000684B1A704FF47C7002210EF0C7F95B4B1B781BB1594B5A78634B1A704FF4936002210EF0BBF9554B1B781BB1534B5A785E4B1A7040F29A4002210EF0AFF94F4B7F
:402540001B781BB14D4B5A78594B1A7040F29C4002210EF0A3F9494B1B781BB1474B5A78544B1A7040F29E4002210EF097F9434B1B781BB1414B5A784F4B1A704FF49460B2
:4025800002210EF08BF93D4B1B781BB13B4B5A784A4B1A7040F2A24002210EF07FF9374B1B781BB1354B5A78454B1A7040F2A44002210EF073F9314B1B781BB12F4B5A7854
:4025C000404B1A7040F2A64002210EF067F92B4B1B781BB1294B5A783B4B1A7040F29F2005210EF05BF9254B1878042810D10122244B1A6006E0214AD15C344AD15401332B
:40260000204A13601F4B1B68042BF4D92F4B187040F26A400A210EF041F90022194B1A6006E0164AD15C2A4AD1540133154A1360124B1A78134B1B689A42F2D240F275402A
:402640000A210EF02BF900220E4B1A6006E00B4AD15C204AD15401330A4A1360074B1A78084B1B689A42F2D240F2DC500A210EF015F90022034B1A6035E000BFF885FF1FDE
:402680001C89FF1F2C84FF1FD485FF1F578AFF1F6F8AFF1F7A88FF1FF085FF1F3387FF1F1A89FF1F3887FF1F3587FF1F3D86FF1F2E83FF1FD385FF1FC685FF1FD585FF1FF2
:4026C000C585FF1F8C86FF1F3B86FF1F0C81FF1FC885FF1F2084FF1F8E4AD15C8E4AD15401338E4A13608B4B1A788C4B1B689A42F2D240F28B400A210EF0D0F80022874BC6
:402700001A6006E0834AD15C854AD1540133834A1360804B1A78814B1B689A42F2D240F2964002210EF0BAF87A4B1B780BB17D4A137040F25A2006210EF0B0F8754B1B7886
:40274000052B0AD1734AD37803F00F0376490B70537903F00F03754A137040F2C71002210EF09CF86B4B1B78012B06D1704A1370684B5B7803F00F0353704FF4DE700221AB
:402780000EF08CF8634B1B78012B05D1614B5B7803F00F03674A137040F2632002210EF07DF85C4B1B78012B05D15A4B5B7803F00F03614A537040F2652002210EF06EF8EC
:4027C000544B1B78012B05D1524B5B7803F00F035A4A53704FF4277003210EF05FF84D4B1B78022B06D14B4B9B7843EA0323544A138002E00122524B1A8040F2DA3002217F
:402800000EF04CF8434B1B78012B04D1414B5A784C4B5A7007E04B4901230B704B7040F2DA300DF0FDFF4FF4BB6002210EF036F8384B1B78012B04D1364B5A78424B5A70FD
:4028400007E0414901230B704B704FF4BB600DF0E7FF40F2D23006210EF020F82D4B187805280FD100222D4B1A6006E0294AD15C364AD1540133294A1360284B1B6898429D
:40288000F4D20CE0314905230B7030234B708B70CB700B714B7140F2D2300DF0C1FF4FF47D7002210DF0FAFF1A4B187801280ED100221A4B1A6006E0164AD15C244AD1548F
:4028C0000133164A1360154B1B689842F4D21F4A537903F00F00137903F00F014FF47A7303FB01F342F2107101FB0033D07800F00F00642101FB0031937803F00F0303EB8B
:4029000083035B000B44527802F00F021344114A136010BDF885FF1F0C8BFF1F2C84FF1FD885FF1F088BFF1F1C84FF1F568AFF1FE885FF1F3687FF1F7888FF1F1889FF1F5F
:40294000C285FF1F2C83FF1F6C8AFF1F2C87FF1F7088FF1F688AFF1F10B50024A0E008F0C1FA01280BD010B1022841D098E0642011F064FF01204F210CF0AEFF90E0642070
:4029800011F05CFF484B187808F036FB0B2805D0464B187808F030FB0B2807D1424B187808F0B2FB414B187808F0AEFB642011F045FF3D4B187808F01FFB06280FD13B4B12
:4029C000187808F019FB062809D101203C210CF083FF02203C210CF07FFF012460E0012055210CF079FF022055210CF075FF57E0642011F023FF2C4B187808F0FDFA0B28BF
:402A000011D02B4B187808F0F7FA0B280BD0274B187808F0F1FA0B2805D0264B187808F0EBFA0B280FD1204B187808F06DFB1F4B187808F069FB1E4B187808F065FB1D4B70
:402A4000187808F061FB642011F0F8FE164B187808F0D2FA06281BD1154B187808F0CCFA062815D1114B187808F0C6FA06280FD1104B187808F0C0FA062809D101204A2183
:402A80000CF02AFF02204A210CF026FF022407E0012055210CF020FF022055210CF01CFF002C3FF45CAF10BD088AFF1F4086FF1F3483FF1F4087FF1F08B500230A4A137099
:402AC0000A4A13704FF4FA7011F0B8FE01202E210CF002FF4FF4FA7011F0B0FE02202E210CF0FAFE08BD00BF2F83FF1FEC85FF1F38B59E4B1B782A2B03F25087DFE813F036
:402B00002B009E00F5004E1F5901D3019802F9024E1F8D035C049F040C058F05B8059F068308B407DE089C09260AC40B060D7C0E9A0F4E1F77134814DF1455153216CA16B2
:402B40009C17AD190C1A7A1AEB1A321BBD1B971C9E1D581EC81E864B1B78012B03D1854B1A78824B1A70844B1B78012B06D1834B1A78834B1A700222824B1A7011F0D4F9AB
:402B8000082843F00B87804B1B78DBB2AA2B4FD17D4B9B79DBB2C32B4AD17B4BDB79DBB23C2B45D1784BDB78DBB2562B02D0572B1FD03DE06E4B1B78012B04D16D4B1A788F
:402BC0006A4B1A7008E0012063210CF085FE01236C4A1370654A1370674B1B78012B04D1664B1A78664B1A7022E00022644B1A701EE05F4B1B78012B04D15E4B1A785B4BBD
:402C00001A7002E00022594B1A705B4B1B78012B04D15A4B1A785A4B1A7009E0012063210CF05AFE0222574B1A700122544B1A70642011F003FE11F0A1F938BD11F074F936
:402C4000082843F0AB86504B1B78DBB2AA2B46D14D4B9B79DBB2C32B41D14B4BDB79DBB23C2B3CD1484BDB78DBB25C2B0AD004D8452B0FD0592B18D031E07E2B20D0942B21
:402C800026D02CE0012049210CF026FE0222374B1A7024E0012025210CF01EFE00223B4B1A700F22314B1A7019E0012025210CF013FE0022354B1A7027222C4B1A700EE07A
:402CC00001202E210CF008FE0022284B1A7006E001202E210CF000FE0022244B1A70642011F0ACFD11F04AF938BD11F01DF9082843F05486244B1B78DBB2AA2B53D1224B28
:402D00009B79DBB2C32B4ED11F4BDB79DBB23C2B49D11D4BDB78DBB25F2B08D002D85E2B10D040E07E2B18D0942B35D03BE001200B210CF0D1FD0022154BDA700A220B4B37
:402D40001A7030E001201D210CF0C6FD0022114B1A700B22054B1A7025E001202E210CF0BBFD0022014B1A701DE000BF2F83FF1F548AFF1FEF85FF1FC785FF1F3083FF1F16
:402D8000EC85FF1F1589FF1F7C8CFF1FF185FF1F7C88FF1FD285FF1F012063210CF09CFD01229B4B1A70642011F048FD11F0E6F838BD11F0B9F8082843F0F085954B1B780F
:402DC000DBB2AA2B69D1934B9B79DBB2C32B64D1904BDB79DBB23C2B5FD18F4AD37823F00303D3708B4BDB78DBB23B2B3ED004D80F2B09D0102B1BD04FE07E2B3ED0942BDE
:402E000044D0432B49D129E0012006210CF064FD0022824B1A70012024210CF095FD7E4AD37843F00203D3700522794B1A7034E001200D210CF050FD0022784B1A70784BFA
:402E40001A70012047210CF07FFD734AD37843F00103D37005226E4B1A701EE0012007210CF03AFD06226A4B1A7016E001202E210CF032FD0022664B1A700EE001202E21AE
:402E80000CF02AFD0022624B1A7006E001200B210CF022FD0A225E4B1A70642011F0CEFC11F06CF838BD11F03FF8082843F07685584B1B78DBB2AA2B40F0A480554B9B790A
:402EC000DBB2C32B40F09E80524BDB79DBB23C2B40F09880514B1B78524A1278013A93423EDC4C4AD278D2B2092A0FD80133DAB24A4B1A704748C178474B13443031D972A3
:402F0000C17830310120C9B20CF01EFD414BDB78DBB20A2B0BD1414B1A780132D2B21A703D4B13443021D97201200CF00DFD394BDB78DBB2512B13D1384B1B7883B1384A36
:402F400012786AB90133DAB2344B1A70324B13442C21D97201200CF0F7FC0122304B1A702C4BDB78DBB20B2B1BD12C4B1A783AB9012005210CF0B0FC0422254B1A7010E0C3
:402F8000012020210CF0E0FC244B1B78224A1A44D27A2C2A02D10021214A1170013B1F4A13701C4BDB78DBB20C2B2BD11B4B1B786BB11D4B1B7853B9012007210CF08CFCFE
:402FC000164B1A78144BDA720622114B1A70134B1B78BBB1144B1B78012B13D1012070210CF07AFC0C4B1B7B104903F00F030B7040F296400DF014FC00220B4B1A700E2295
:40300000034B1A70642011F019FC10F0B7FF38BD2F83FF1F7C8CFF1F7C88FF1FF185FF1F3283FF1FD485FF1F7488FF1F088BFF1F10F07AFF082820D1A94B1B78DBB2AA2B2F
:4030400015D1A74B9B79DBB2C32B10D1A44BDB79DBB23C2B0BD1A24BDB78DBB27E2B06D101202E210CF038FC00229E4B1A70642011F0E4FB10F082FF38BD9B4B187807F02C
:40308000BBFF072843F08A84322011F0D7FB964B187807F0C5FF0146944B1870944BDB7813F003030DD0904A1078924A0BF0A6FD38B901202E210CF00FFC0022894B1A700B
:4030C00038BD894C207807F0ABFF884B1870207840F0100010F0E2FD012008210CF0FCFB0723804A1370844A13700122834B1A7038BD322011F0A2FB7B4B187807F07CFF8E
:403100000638052803F24A84DFE810F07000481C481C7C003B000600642011F08FFB724B187807F0F1FF01280ED1754B1B785BB939210CF0D1FB0022704B1A70142011F035
:403140007DFB0D22674B1A70674B187807F0DCFF012843F023846A4B1B78012B43F01E840C210CF0B9FB0024644B1C704FF4FA7011F064FB01202E210CF0AEFB594B1C707E
:4031800038BD642011F05AFB574B187807F0BCFF01280ED15A4B1B785BB939210CF09CFB0022564B1A70142011F048FB0D224D4B1A704D4B187807F0A7FF012843F0EE8373
:4031C0004F4B1B78012B43F0E9830C210CF084FB00244A4B1C704FF4FA7011F02FFB01202E210CF079FB3F4B1C7038BD01202E210CF072FB0023414A13703D4AD370394AD0
:40320000137038BD322011F019FB01202E210CF063FB0022334B1A7038BD10F085FE082843F0BC832E4B1B78DBB2AA2B40F0BE802B4B9B79DBB2C32B40F0B880284BDB7991
:40324000DBB23C2B40F0B2802E4B1B78062B7BD8234AD278D2B2092A10D80133DAB2294B1A701F48C178224B1344303183F86510C17830310120C9B20CF066FB184BDB7856
:40328000DBB20A2B0CD11F4B1A780132D2B21A70174B1344302183F8651001200CF054FB0F4BDB78DBB26A2B0CD1164B1A780132D2B21A700E4B13442D2183F865100120DD
:4032C0000CF042FB064BDB78DBB21A2B3CD9044BDB78DBB2422B37D800220B4B1A602FE07C8CFF1F2F83FF1F088AFF1F7B88FF1F7C88FF1F8788FF1FEF85FF1F548AFF1FBA
:40330000D285FF1FF185FF1F2C84FF1FA94AD278D2B2A9491944097A8A420DD1A7490A780132D2B20A704133D9B2A54B134483F8651001200CF008FBA24A13680133136072
:40334000A04B1B68192BE1D99A4BDB78DBB20B2B15D19A4B1A7852B901202E210CF0BCFA0023974A82F86530974A137007E0012020210CF0E9FA914A1378013B13708D4BC0
:40338000DB78DBB20C2B11D18C4B1B7873B1012005210CF0A1FA8A4B884A127883F86520012283F883200422874B1A70642011F045FA10F0E3FD38BD10F0B6FD082843F005
:4033C000ED827C4B1B78DBB2AA2B32D1794B9B79DBB2C32B2DD1774BDB79DBB23C2B28D1744BDB78DBB2392B04D07E2B1AD0382B1FD10CE001200A210CF06EFA00236F4A16
:403400001370724A137009226F4B1A7011E0012005210CF061FA01226C4B1A7004226A4B1A7006E001202E210CF056FA0022664B1A70642011F002FA10F0A0FD38BD0120D0
:4034400001460DF0A3FB052840D90A2011F0F6F9012021210DF09AFB052837D901200DF08BFA012832D1332010F0A6FD012033210DF0E6FA50B30022554B1A600AE0012077
:403480000DF048FB4E4B1C4484F82900504A1368013313604E4B1C68072CF0D9012013210CF01AFA464CE37843F00403E3704FF4FA7011F0C3F901200E210CF00DFA00239A
:4034C0003E4A137023710C223F4B1A7010F02CFD082843F06382374B1B78DBB2AA2B15D1344B9B79DBB2C32B10D1324BDB79DBB23C2B0BD12F4BDB78DBB23B2B06D10120D5
:4035000049210CF0E9F902222F4B1A70642011F095F910F033FD38BD10F006FD082843F03D82244B1B78DBB2AA2B72D1214B9B79DBB2C32B6DD11F4BDB79DBB23C2B68D1F3
:403540001E4B1B78052B25D81A4AD278D2B2092A0FD80133DAB2194B1A701648C178184B134430311971C17830310120C9B20CF0EBF9104BDB78DBB20A2B0BD10F4B1A789E
:403580000132D2B21A700E4B13443021197101200CF0DAF9074BDB78DBB20B2B22D1074B1A78BAB9012005210CF096F90422064B1A7017E07C8CFF1F0C81FF1FF185FF1F6E
:4035C0007C88FF1F2C84FF1F2F83FF1FD285FF1FF485FF1F012020210CF0B6F9AA4A1378013B1370A94BDB78DBB20C2B11D1A64B1B7873B1A64B5B79302B0AD001200521DE
:403600000CF06AF9A04B1A78A14B1A710422A14B1A70642011F012F910F0B0FC38BD9E4B58789E4B197800229D4B1B780EF0F2F99C4B5B788BB901200C210CF04DF94FF4E0
:40364000FA7011F0FBF80024914BDC7001202E210CF042F98F4B1C7038BD012031210CF03BF90022884B1A7021228A4B1A7038BD10F05AFC082843F09181844B1B78DBB22B
:40368000AA2B40F0D680814B9B79DBB2C32B40F0D0807E4BDB79DBB23C2B40F0CA807B4BDB78DBB2652B00F088800AD85A2B54D002D8582B16D0BCE05B2B68D05D2B28D073
:4036C000B7E0932B00F0818006D8702B00F09A807E2B00F09F80ACE0942B00F0A380962B60D0A6E00022684B1A7001203E210CF0F3F80CF0D5FF012801D10CF0A5F90CF04D
:40370000FFFF012801D10CF0FDF91022614B1A708FE001205C210CF0DFF801200021D62240F2AD130CF0D4FA01200021892240F2A7130CF0CDFA01200146242240F2B3131E
:403740000CF0C6FA0120014678224FF47A730CF0BFFA13224F4B1A706BE0012060210CF0BBF801200CF032FA01200CF071FB01200CF000FD01200CF083FD01200CF0EEFB22
:4037800001200CF071FC1222424B1A7051E001202F210CF0A1F800223B4B1A7011223D4B1A7046E001205F210CF096F80022364B1A701B22374B1A703BE001204D210CF019
:4037C0008BF81422334B1A7033E001206E210CF083F8012001460DF0D9F905280ED90A2011F02CF801200CF053FE012021210DF0CDF9052802D901200CF0C8FD2322254B01
:403800001A7016E0012089210CF066F82922214B1A700EE001202E210CF05EF800221D4B1A7006E001202E210CF056F80022194B1A70642011F002F810F0A0FB38BD10F01F
:4038400073FB082843F0AA80104B1B78DBB2AA2B43F0A4800D4B9B79DBB2C32B43F09E800A4BDB79DBB23C2B43F09880074BDB78DBB27E2B18D1012031210CF02DF800220C
:40388000044B1A701CE000BFF185FF1F7C8CFF1F7C88FF1F2F83FF1F7888FF1F7B88FF1F088AFF1F2C83FF1FA34BDB78DBB2942B06D1012063210CF00FF801229F4B1A7069
:4038C0009F4B1A78072A26D89B4BDB78DBB2092B0ED8994BD9789B4B1344303183F88E1001202A210CF030F8954A137801331370914BDB78DBB20A2B0DD1914C2278914B7E
:403900001344302183F88E1001202A210CF01CF8237801332370884BDB78DBB20B2B1AD1874B1B787BB9012039210BF0D5FF4FF4FA7010F083FF01202E210BF0CDFF0022A9
:403940007E4B1A7007E0013BDAB27D4B1A70012020210BF0F9FF784BDB78DBB20C2B7DD1774B1A78002A79D0002377490B6077490B6015E0581C7649014491F8D710714C9C
:40398000234493F88E30303B994204D16E490B6801330B6002E000216B4B19606B4B186010466A4B1B689A42E4D8694B93F8D720654B1B689A420FD1012026210BF08CFFDA
:4039C0004FF4FA7010F03AFF012070210BF084FF0E225A4B1A7041E000235B4A13605B4A136010E05B4A1A4492F82410554A1A4492F88E20914203D153490A6801320A60A6
:403A00000133524A1360514B1B689842EAD84E4B1B68082B13D1012026210BF05DFF4FF4FA7010F00BFF01205D210BF055FF012070210BF051FF0E22404B1A700EE00120A0
:403A400027210BF049FF4FF4FA7010F0F7FE01202E210BF041FF0022384B1A70642010F0EDFE10F08BFA38BD10F05EFA082842F09587314B1B78DBB2AA2B40F0BE802E4B28
:403A80009B79DBB2C32B40F0B8802B4BDB79DBB23C2B40F0B280284BDB78DBB2942B06D1012070210BF018FF0E22244B1A70244B1A78072A27D8204BDB78DBB2092B10D881
:403AC0001D48C1781F4B1344303183F88E10C17830310120C9B20BF037FF194A137801331370154BDB78DBB20A2B0CD1144C2278144B1344302183F88E1001200BF024FF36
:403B00002378013323700C4BDB78DBB20B2B2BD10B4B1B7803BB012055210BF0DDFE4FF4FA7010F08BFE01202E210BF0D5FE0022024B1A7018E000BF7C8CFF1F2F83FF1F8C
:403B4000F185FF1F7C88FF1F3C87FF1F2C84FF1F1C89FF1F0C81FF1F013BDAB2AC4B1A70012020210BF0F0FEAA4BDB78DBB20C2B43D1A74B1B78052B3FD9012039210BF07B
:403B8000ABFEA34B1978A44B83F8D7100022A34B1A600BE0581CA24A134493F88E209E4B0344303A83F8D7209C4B18609B4B1B689942EFD860209B490CF032FE70B90120D7
:403BC00055210BF089FE4FF4FA7010F037FE01202E210BF081FE0022934B1A70012026210BF07AFE4FF4FA7010F028FE01202E210BF072FE00228C4B1A70642010F01EFECB
:403C000010F0BCF938BD10F08FF9082842F0C686804B1B78DBB2AA2B4AD17E4B9B79DBB2C32B45D17B4BDB79DBB23C2B40D1794BDB78DBB23F2B08D002D83E2B1CD037E010
:403C40007E2B26D0942B2CD032E0012040210BF043FE00236E4A1370744A13700120612106220BF071FE01206D2107220BF06CFE15226D4B1A701BE001203F210BF02CFEEF
:403C80000023634A1370694A13701622664B1A700EE001202E210BF01FFE0022624B1A7006E0012070210BF017FE0E225E4B1A70642010F0C3FD10F061F938BD10F034F96E
:403CC000082842F06B86534B1B78DBB2AA2B40F09980504B9B79DBB2C32B40F093804D4BDB79DBB23C2B40F08D804A4BDB78DBB27E2B78D00AD8772B42D002D8762B10D0B4
:403D000080E0782B4CD07A2B58D07BE0832B27D002D8822B14D075E0942B6CD0952B5AD070E0012030210BF0D7FD0023404A1370374A13703F4A137018223B4B1A7061E096
:403D4000012079210BF0C8FD0222394B1A7000232F4A1370374A13701822334B1A7051E001207A210BF0B8FD0322314B1A700023274A13702F4A137018222B4B1A7041E0FB
:403D8000012078210BF0A8FD0122294B1A7000231F4A1370274A13701822234B1A7031E0012065210BF098FD0122214B1A700022174B1A7017221C4B1A7023E00120322143
:403DC0000BF08AFD00231A4A1370114A13701722154B1A7016E0012066210BF07DFD2022114B1A700EE001202E210BF075FD00220D4B1A7006E0012070210BF06DFD0E22FF
:403E0000094B1A70642010F019FD10F0B7F838BDF185FF1F7C8CFF1F1C89FF1F2C84FF1F7C88FF1FF389FF1F2F83FF1F3283FF1F3C86FF1F6E8AFF1F10F076F8082842F0F6
:403E4000AD85B24B1B78DBB2AA2B79D1AF4B9B79DBB2C32B74D1AD4BDB79DBB23C2B6FD1AA4BDB78DBB2802B1FD004D87E2B58D07F2B06D064E0822B3FD02AD3942B58D006
:403E80005EE0012006210BF027FD0022A04B1A70A04B1978A04B83F8A310012024210BF053FD1A229D4B1A704AE0012006210BF013FD0022964B1A70994B1978964B83F8F7
:403EC000A310012024210BF03FFD1A22934B1A7036E0012006210BF0FFFC00228C4B1A70904B19788C4B83F8A310012024210BF02BFD1A22894B1A7022E0012006210BF01E
:403F0000EBFC0022824B1A70874B1978824B83F8A310012024210BF017FD1A227F4B1A700EE001202E210BF0D7FC00227B4B1A7006E0012070210BF0CFFC0E22774B1A7046
:403F4000642010F07BFC10F019F838BD0FF0ECFF082842F023856D4B1B78DBB2AA2B40F08D816A4B9B79DBB2C32B40F08781674BDB79DBB23C2B40F08181644BDB78DBB22A
:403F8000642B00F0048104D8622B09D0632B43D074E17E2B00F06381942B00F068816DE1012039210BF098FC642010F047FC5F4B187807F021F806281ED15D4B187807F0FB
:403FC0001BF8062808D101204A210BF085FC4FF4FA7010F033FC51E1012055210BF07CFC4FF4FA7010F02AFC01202E210BF074FC00224A4B1A7041E1012055210BF06CFC7C
:404000004FF4FA7010F01AFC01202E210BF064FC0022424B1A7031E1012037210BF05CFC444B5B78012B45D10022434B1A600AE0424A1344012093F82C100CF079FC3E4A5F
:404040001368013313603C4B1B68102BF0D901200A210CF06DFC01200A210CF069FC01200A210CF065FC01200A210CF061FC0022314B1A600AE0314A1344022093F82C10A7
:404080000CF056FC2C4A1368013313602A4B1B68102BF0D902200A210CF04AFC02200A210CF046FC02200A210CF042FC02200A210CF03EFC1F4B5B78022B60D100221E4BD4
:4040C0001A600AE01D4A1344032093F82C100CF02FFC194A136801331360174B1B68102BF0D903200A210CF023FC03200A210CF01FFC03200A210CF01BFC03200A210CF0A6
:4041000017FC00220C4B1A6025E000BF7C8CFF1FF185FF1F6F8AFF1F1C89FF1F2F83FF1F7A88FF1F578AFF1FF085FF1F088AFF1F3483FF1F7088FF1F2C84FF1F0C81FF1F8B
:40414000A64A1344042093F82C100CF0F1FBA44A136801331360A24B1B68102BF0D904200A210CF0E5FB04200A210CF0E1FB04200A210CF0DDFB04200A210CF0D9FB0120EC
:404180006B210BF0A9FB2522964B1A7076E001200CF0F2FB012852D133200FF00DFF012033210CF04DFC002868D000228E4B1A600AE001200CF0AEFC8C4B1C4484F82900FC
:4041C000894A136801331360874B1C68072CF0D90023874A1370844A13600CE0844C834A1344207893F829100DF00AF820707E4A1368013313607C4B1B68062BEED97B4B03
:4042000093F830207A4B1B789A4208D101204B210BF062FB4FF47A7010F010FB2EE0012055210BF059FB4FF4FA7010F007FB01202E210BF051FB00226A4B1A701EE001209F
:4042400055210BF049FB4FF4FA7010F0F7FA01202E210BF041FB0022624B1A700EE001202E210BF039FB00225E4B1A7006E0012070210BF031FB0E225A4B1A70642010F067
:40428000DDFA0FF07BFE38BD0FF04EFE082842F08583584B1B78DBB2AA2B40F03181554B9B79DBB2C32B40F02B81524BDB79DBB23C2B40F02581504B1B78042B00F2C58031
:4042C000DFE813F005002E005400C3009E00494AD278D2B2012A0FD80133DAB2464B1A70444CE17830310120C9B20BF02DFBE3781B01424A82F8A1303E4BDB78DBB20A2BC9
:4043000040F0A3803C4B1A780132D2B21A7000213A4B83F8A110012030210BF015FB94E0344AD278D2B2092A11D80133DAB2324B1A70304CE17830310120C9B20BF004FB12
:40434000E1782E4A92F8A1300B4382F8A130294BDB78DBB20A2B78D1274B1A780132D2B21A70012030210BF0EFFA6EE0214AD278D2B2052A17D80133DAB21F4C2270012088
:404380003A210BF0E1FA22780132D2B22270194CE17830310120C9B20BF0D6FAE3781B01164A82F8A030134BDB78DBB20A2B4CD1114C22780132D2B2227001203A210BF0FB
:4043C000C3FA22780132D2B22270012030210BF0BBFA0022094B83F8A02036E00C81FF1F2C84FF1F2F83FF1FF485FF1F7C88FF1FD685FF1F7C8CFF1FF185FF1F1C89FF1F3C
:40440000AD4AD278D2B2092A11D80133DAB2AB4B1A70A94CE17830310120C9B20BF094FAE178A74A92F8A0300B4382F8A030A24BDB78DBB20A2B08D1A04B1A780132D2B23C
:404440001A70012030210BF07FFA9B4BDB78DBB2402B17D19B4B1B783BB90120994B1870702106220BF070FA07E00022954B1A700120612106220BF067FA01206D21072229
:404480000BF062FA8C4BDB78DBB20B2B12D18B4B1A783AB9012070210BF01EFA0E228A4B1A7007E0012020210BF04EFA834A1378013B1370804BDB78DBB20C2B20D17F4BE6
:4044C0001B78052B1CD17F4B1B7843F002027C4991F8A13043EA421381F8A1300CF040F901280DD139210BF0F7F94FF4FA7010F0A5F9012070210BF0EFF90E22724B1A70B5
:40450000642010F09BF90FF039FD38BD0FF00CFD082842F04382684B1B78DBB2AA2B40F06581654B9B79DBB2C32B40F05F81624BDB79DBB23C2B40F05981604B1A78072A90
:4045400000F22181DFE812F00800310058001F019100C2001F01FA00574BDB78DBB2032B0FD8554CE17830310120C9B20BF0ECF9524A137801331370E3781B01504A82F8E9
:404580009D304D4BDB78DBB20A2B40F0FC8000224B4B83F89D20494C0120302122780BF0D3F9237801332370EDE0434BDB78DBB2092B11D8404CE17830310120C9B20BF0E6
:4045C000C3F9E1783E4A92F89D300B4382F89D303A4A137801331370374BDB78DBB20A2B40F0D180354C0120302122780BF0ACF9237801332370C6E02F4BDB78DBB2012B99
:4046000017D801202F210BF09FF92C4C22780132D2B22270284DE97830310120C9B20BF093F9EB781B01264A82F89E30237801332370214BDB78DBB20A2B40F0A4801F4CF9
:4046400001202F2122780BF07FF922780132D2B22270012030210BF077F90022184B83F89E202378013323708DE0134BDB78DBB2092B11D8104CE17830310120C9B20BF067
:4046800063F9E1780E4A92F89E300B4382F89E300A4A137801331370074BDB78DBB20A2B71D1064C0120302122780BF04DF923780133237067E000BF7C8CFF1FF185FF1FFF
:4046C0001C89FF1F3283FF1F2F83FF1FA64BDB78DBB2092B17D801202F210BF035F9A34C22780132D2B222709F4DE97830310120C9B20BF029F9EB781B019D4A82F89F30DE
:40470000237801332370984BDB78DBB20A2B3AD1964C01202F2122780BF016F922780132D2B22270012030210BF00EF90022904B83F89F2023780133237024E08A4BDB7801
:40474000DBB2092B11D8884CE17830310120C9B20BF0FAF8E178864A92F89F300B4382F89F30824A1378013313707F4BDB78DBB20A2B08D17D4C0120302122780BF0E4F8ED
:40478000237801332370784BDB78DBB20B2B12D1764B1B783BB9012070210BF09DF80E22744B1A7007E0013BDAB2704B1A70012020210BF0C9F86C4BDB78DBB20C2B15D112
:4047C0006A4B1B78082B11D10BF0F8FF01280DD139210BF081F84FF4FA7010F02FF8012070210BF079F80E22624B1A70642010F025F80FF0C3FB38BD0FF096FB082842F0F7
:40480000CD80594B1B78DBB2AA2B40F00D81564B9B79DBB2C32B40F00781534BDB79DBB23C2B40F00181504BDB78DBB27E2B06D101202E210BF050F800224E4B1A704B4BCB
:404840001B780C2B61D8484AD278D2B2092A1ED80133DAB2454B1A70474B1B7813B1012B07D00DE0404BD978414B13443031997706E03D4BD9783E4B1344303183F82F100F
:40488000394BD97830310120C9B20BF085FE364BDB78DBB20A2B18D1344B1A780132D2B21A70354B1B7813B1012B05D009E0304B13443021997704E02D4B1344302183F864
:4048C0002F10012030210BF067FE274BDB78DBB2512B1AD1254B1B78BBB10133DAB2234B1A70254B1B7813B1012B05D009E0204B13442E21997704E01D4B13442E2183F888
:404900002F1001202E210BF047FE174BDB78DBB20B2B4ED1154B1A78002A42D10E22154B1A70012070210AF0D7FF2F200C210BF0B5FF0022114B1A6008E0114AD15C0C4A3D
:404940001A4482F82F1001330C4A13600C4B1A780A4B1B689A42F0D220200F210BF09EFF0022064B1A6015E07C8CFF1FF185FF1F1C89FF1F2F83FF1F3C86FF1F2C84FF1FDF
:40498000F885FF1F9A4AD15C9A4A1A4491770133994A1360964B1A78974B1B689A42F1D207E0012020210BF0F7FD944A1378013B1370934BDB78DBB20C2B35D10E22914B99
:4049C0001A70012070210AF087FF8F4B1B7813B1012B11D028E0894B1B78864901F81E3F20200BF01DFFF8B9012055210AF074FF6422844B1A7017E0804B1B787D4901F82A
:404A00002F3F2F200BF00CFF70B9012055210AF063FF4FF4FA700FF011FF01202E210AF05BFF0022774B1A7064200FF007FF0FF0A5FA38BD0FF078FA082841F0AF87704BCA
:404A40001B78DBB2AA2B40F0CC836D4B9B79DBB2C32B40F0C6836A4BDB79DBB23C2B40F0C083664B1B78172B00F25A82644AD278D2B2092A61D80133DAB2604B1A70624BB4
:404A80001B78042B52D8DFE803F0031427394B005E4B1978012904D1594BDB7830335C488354002942D1564BDB78303351498B543CE0564B1978012904D1514BDB783033D5
:404AC00054488354002931D14D4BD978494B1344303183F8431029E04C4B1978012904D1474BDB7830334C488354F9B9444BD978404B1344303183F8611017E0434B19785B
:404B0000012904D13E4BDB7830334448835469B93B4BD978374B1344303183F87F1005E0374BD9783E4B13443031D972344BD97830310120C9B20BF02FFD314BDB78DBB203
:404B40000A2B2BD12D4B1A780132D2B21A702E4B1B78042B1ED8DFE803F003070D1319003021244B995415E0224B1344302183F843100FE01F4B1344302183F8611009E030
:404B80001C4B1344302183F87F1003E0244B13443021D972012030210BF0FEFC184BDB78DBB2672B46D1154B1A780132D2B21A70154B1B78042B39D8DFE803F003070D13FA
:404BC000340023210B4B995430E00A4B1344232183F843102AE0074B1344232183F8611024E0044B1344232183F87F101EE000BFF885FF1F1C89FF1F2C84FF1FF185FF1FD4
:404C00007C8CFF1F2F83FF1F3C86FF1F6E8AFF1FC885FF1F2084FF1F0C8BFF1FD885FF1F7C88FF1F984B13442321D972012023210BF0B2FC954BDB78DBB26A2B2BD1944B02
:404C40001A780132D2B21A70924B1B78042B1ED8DFE803F003070D1319002D218E4B995415E08D4B13442D2183F843100FE08A4B13442D2183F8611009E0874B13442D21C6
:404C800083F87F1003E0804B13442D21D97201202D210BF081FC7D4BDB78DBB2662B2BD17B4B1A780132D2B21A707A4B1B78042B1ED8DFE803F003070D1319004021764BFB
:404CC000995415E0744B1344402183F843100FE0714B1344402183F8611009E06E4B1344402183F87F1003E0674B13444021D972012040210BF050FC644BDB78DBB2692B56
:404D00002BD1634B1A780132D2B21A70614B1B78042B1ED8DFE803F003070D1319002E215D4B995415E05C4B13442E2183F843100FE0594B13442E2183F8611009E0564BF2
:404D400013442E2183F87F1003E04F4B13442E21D97201202E210BF01FFC4C4BDB78DBB2682B4BD14A4B1A780132D2B21A70494B1B78042B3ED8DFE803F0030F1D2B390048
:404D8000464B1B78012B02D12020454988548BBB2021414B99542DE0404B1B78012B02D12020404988542BBB3B4B1344202183F843101FE0394B1B78012B02D120203A49AD
:404DC0008854BBB9344B1344202183F8611011E0324B1B78012B02D12020344988544BB92D4B1344202183F87F1003E0264B13442021D972012020210BF0CEFB234BDB788B
:404E0000DBB21A2B40F28C80204BDB78DBB2422B00F286800022264B1A607CE01B4AD278D2B224491944097A8A4270D118490A780132D2B20A7017490978042961D8DFE89A
:404E400001F003123B4B5B0014490878012803D103F14101124CA154002852D103F141010D4881544DE00D490878012803D103F141010C4CA154002843D10749114403F1E5
:404E8000410081F843003CE07C88FF1F7C8CFF1FF185FF1F3C86FF1F1C89FF1F6E8AFF1FC885FF1F2084FF1F0C8BFF1FD885FF1F2C84FF1F0C81FF1FA3490878012803D105
:404EC00003F14101A14CA154D8B9A149114403F1410081F8610014E09B490878012803D103F141019B4CA15458B99949114403F1410081F87F0004E09749114403F1410091
:404F0000C87203F141010120C9B20BF045FB934A136801331360914B1B68192B7FF67EAF8F4BDB78DBB20B2B6DD18E4B1A78002A61D1012070210AF0CFFC402020210BF0DE
:404F4000ADFC0022854B1A6008E0874AD15C804A1A4482F843100133804A1360824B1A787E4B1B689A42F0D2802020210BF096FC00227A4B1A6008E07B4AD15C744A1A44C2
:404F800082F861100133754A1360774B1A78734B1B689A42F0D2A02020210BF07FFC00226E4B1A6008E0704AD15C694A1A4482F87F100133694A13606B4B1A78674B1B68E1
:404FC0009A42F0D2002020210BF068FC0022634B1A6006E0644AD15C5D4AD15401335F4A1360614B1A785D4B1B689A42F2D20E225E4B1A7007E0012020210BF0CDFA594A12
:405000001378013B1370564BDB78DBB20C2B40F0E880012039210AF05FFC4FF4FA700FF00DFC012070210AF057FC0E224F4B1A704F4B1B78042B00F2D480DFE803F0032E71
:405040005A9FC700404B1B78012B07D14949454B1B780B7040F26A400BF0E2FB3A4B1B78002B40F0BE803A493E4B1B780B7000200BF0D6FB002840F0B480012055210AF096
:405080002BFC4FF4FA700FF0D9FB01202E210AF023FC0022354B1A70A3E02B4B1B78012B07D135492F4B1B780B7040F275400BF0B7FB254B1B78002B40F09380294B1B78F2
:4050C000234901F8433F40200BF0AAFB002840F08880012055210AF0FFFB4FF4FA700FF0ADFB01202E210AF0F7FB00221F4B1A7077E0154B1B78012B07D11449194B1B7876
:405100000B7040F2DC500BF08BFB0F4B1B78002B67D1144B1B780E4901F8613F80200BF07FFB00285DD1012055210AF0D5FB4FF4FA700FF083FB01202E210AF0CDFB002299
:405140000A4B1A704DE000BF6E8AFF1F0C8BFF1F1C89FF1FD885FF1F7C88FF1F2C84FF1F7C8CFF1FF185FF1FF885FF1F2F83FF1F3C86FF1FC885FF1F2084FF1FB34B1B78A8
:40518000012B07D1B249B34B1B780B7040F28B400BF046FBAD4B1B781BBBAE4B1B78AE4901F87F3FA0200BF03BFBD0B9012055210AF092FB4FF4FA700FF040FB01202E2121
:4051C0000AF08AFB0022A54B1A700AE0A14B1A78A34BDA72012039210AF07EFB24229F4B1A7064200FF02AFB0EF0C8FE38BD0EF09BFE082841F0D2839A4B1B78DBB2AA2BC2
:4052000040F0C080974B9B79DBB2C32B40F0BA80944BDB79DBB23C2B40F0B4808D4B1B78062B25D88F4AD278D2B2092A0FD80133DAB2884B1A708B48C178894B1344303189
:40524000D972C17830310120C9B20AF07DFB854BDB78DBB20A2B0BD17E4B1A780132D2B21A707F4B13443021D97201200AF06CFB7C4BDB78DBB20B2B1BD1764B1A783AB990
:40528000012070210AF028FB0E22744B1A7010E0012020210AF058FB6E4B1B78704A1A44D27A2C2A02D100216F4A1170013B694A13706C4BDB78DBB20C2B63D1654B1B781C
:4052C000032B5FD90622654B1A70012039210AF003FB604B1A78624BDA72644B187809F0D1FE00283FD05C4B93F8A320604B1B789A4204D140F2A7105E490BF091FA564B64
:4053000093F8A3205C4B1B789A4204D140F2B31058490BF085FA504B93F8A320574B1B789A4204D140F2AD1052490BF079FA4A4B93F8A320524B1B789A4204D14FF47A706C
:405340004C490BF06DFA01203C210AF0C5FA4FF4FA700FF073FA012070210AF0BDFA0E223E4B1A700EE0012055210AF0B5FA4FF4FA700FF063FA01202E210AF0ADFA0022D6
:40538000364B1A7064200FF059FA0EF0F7FD38BD0EF0CAFD082841F00183324B1B78DBB2AA2B40F086802F4B9B79DBB2C32B40F080802C4BDB79DBB23C2B7AD1294BDB78C9
:4053C000DBB2802B2FD004D87E2B63D07F2B06D06FE0822B56D031D3942B63D069E0012058210AF079FA01200021732240F2C3130AF0D0FC01200021CF2240F2C5130AF0FA
:40540000C9FC01200146292240F2C1130AF0C2FC012001467B2240F2EE330AF0BBFC1C220E4B1A7045E0012006210AF055FA0022084B1A701D22094B1A703AE001206D2171
:405440000AF04AFA1E22054B1A7032E06E8AFF1FD885FF1FF185FF1F1C89FF1F2F83FF1F7C88FF1F7C8CFF1F3283FF1F088AFF1F6F8AFF1F8788FF1F578AFF1F7A88FF1FDC
:40548000F085FF1F01208A210AF026FA2A22AB4B1A700EE001202E210AF01EFA0022A74B1A7006E0012070210AF016FA0E22A34B1A7064200FF0C2F90EF060FD38BD0EF0C3
:4054C00033FD082841F06A829D4B1B78DBB2AA2B65D19B4B9B79DBB2C32B60D1984BDB79DBB23C2B5BD1964BDB78DBB2802B1AD004D87E2B44D07F2B06D050E0822B30D0D3
:4055000020D3942B44D04AE0012006210AF0E4F900228C4B1A7001228B4B83F8A3201F22864B1A703BE0012006210AF0D5F90022844B1A700222844B83F8A3201F227F4B24
:405540001A702CE0012006210AF0C6F900227D4B1A7003227C4B83F8A3201F22774B1A701DE0012006210AF0B7F90022754B1A700422754B83F8A3201F22704B1A700EE076
:4055800001202E210AF0A8F900226C4B1A7006E0012070210AF0A0F90E22684B1A7064200FF04CF90EF0EAFC38BD0EF0BDFC082841F0F481624B1B78DBB2AA2B40F0B880AD
:4055C0005F4B9B79DBB2C32B40F0B2805C4BDB79DBB23C2B40F0AC80594BDB78DBB2942B06D1012070210AF077F90E22534B1A70544B1B78042B36D8514AD278D2B2092A2C
:405600000FD80133DAB24F4B1A704D48C1784F4B13443031D972C17830310120C9B20AF093F9474BDB78DBB20A2B0BD1454B1A780132D2B21A70454B13443021D9720120EE
:405640000AF082F93E4BDB78DBB2512B0BD13D4B1A780132D2B21A703C4B13442C21D97201200AF071F9364BDB78DBB20B2B1BD1344B1A783AB9012070210AF02DF90E2215
:405680002E4B1A7010E0012020210AF05DF92D4B1B782E4A1A44D27A2C2A02D100212C4A1170013B274A1370254BDB78DBB20C2B3ED1244B1B78052B3AD1244B1B7B353B5F
:4056C000DBB2022B34D8012039210AF005F91D4B1B781E4901F80B3F4FF4DD700BF0A0F8012805D1194B1B7B03F00F03194A137040F25A2018490BF093F8012818D1134AC3
:40570000937B03F00F0315490B70137C03F00F03134A13703C210AF0DFF84FF4FA700FF08DF8012070210AF0D7F80E22034B1A7064200FF083F80EF021FC38BD2F83FF1F49
:405740007C8CFF1FF185FF1F1C89FF1F7C88FF1F3283FF1FD485FF1F8788FF1F1C84FF1F568AFF1F0EF0E0FB082841F01781A74B1B78DBB2AA2B40F08780A44B9B79DBB2D7
:40578000C32B40F08180A14BDB79DBB23C2B7BD19E4BDB78DBB28F2B08D002D87E2B64D072E0902B31D0942B67D06DE09849002381F82D3081F82E304FF4DE702D310BF04C
:4057C0002FF8012811D10022924B1A703C210AF083F84FF4FA700FF031F8012070210AF07BF80E228C4B1A704EE0012055210AF073F84FF4FA700FF021F801202E210AF03E
:405800006BF80022844B1A703EE08149012381F82D3081F82E304FF4DE702D310BF000F8012812D101247B4B1C7020463C210AF053F84FF4FA700FF001F80E22764B1A7044
:40584000204670210AF048F81EE0012055210AF043F84FF4FA700EF0F1FF01202E210AF03BF800226C4B1A700EE001202E210AF033F80022684B1A7006E0012070210AF01E
:405880002BF80E22644B1A7064200EF0D7FF0EF075FB38BD0EF048FB082841F07F805B4B1B78DBB2AA2B40F0AA80584B9B79DBB2C32B40F0A480554BDB79DBB23C2B40F06D
:4058C0009E80564B1B782BBB504AD278D2B2092A0FD80133DAB2514B1A704C48C178504B13443031D972C17830310120C9B20AF02BF8464BDB78DBB20A2B0BD1474B1A78A4
:405900000132D2B21A70464B13443021D97201200AF01AF83D4BDB78DBB20B2B1BD13F4B1A783AB901202E2109F0D6FF00223A4B1A7010E0012020210AF006F8374B1B780E
:40594000374A1A44D27A2C2A02D10021354A1170013B324A13702D4BDB78DBB20C2B4ED12E4B1B78012B4AD10120392109F0B4FF2A4B1A782A4BDA72254B93F8A330012B8D
:4059800008D127490A7B284B1A7040F2C1100B310AF046FF1E4B93F8A330022B08D120490A7B224B1A7040F2C3100B310AF038FF174B93F8A330032B08D119490A7B1C4B65
:4059C0001A7040F2C5100B310AF02AFF104B93F8A330042B08D112490A7B164B1A7040F2EE300B310AF01CFF4FF4FA700EF026FF0120702109F070FF0E22074B1A70642010
:405A00000EF01CFF0EF0BAFA38BD00BF7C8CFF1F1C89FF1F3687FF1F2F83FF1FF185FF1F7C88FF1F3283FF1F578AFF1F6F8AFF1F7A88FF1FF085FF1F0EF076FA082840F033
:405A4000AD87CD4B1B78DBB2AA2B40F00082CA4B9B79DBB2C32B40F0FA81C74BDB79DBB23C2B40F0F481C44BDB787E3B252B00F2EE81DFE813F0D401EC01EC01EC01EC01C6
:405A8000EC01A10187014000FD007600260091006701EC01EC01EC01EC01EC01EC01EC01EC01BB01EC01EC01C7003101AC00EC01EC01EC01EC01EC01EC0116015B00E20078
:405AC0004C01AE4901230B704B7040F2C7100AF0A7FE012840F0BB813C2109F0FDFE4FF4FA700EF0ABFE0120702109F0F5FE0E22A34B1A70ABE1A14901230B7002234B70EB
:405B000040F2C7100AF08CFE012840F0A0813C2109F0E2FE4FF4FA700EF090FE0120702109F0DAFE0E22964B1A7090E1934901230B7003234B7040F2C7100AF071FE012869
:405B400040F085813C2109F0C7FE4FF4FA700EF075FE0120702109F0BFFE0E22884B1A7075E1864901230B7004234B7040F2C7100AF056FE012840F06A813C2109F0ACFE80
:405B80004FF4FA700EF05AFE0120702109F0A4FE0E227B4B1A705AE1784901230B7005234B7040F2C7100AF03BFE012840F04F813C2109F091FE4FF4FA700EF03FFE012044
:405BC000702109F089FE0E226D4B1A703FE16B4901230B7006234B7040F2C7100AF020FE012840F034813C2109F076FE4FF4FA700EF024FE0120702109F06EFE0E22604B13
:405C00001A7024E15D4901230B7007234B7040F2C7100AF005FE012840F019813C2109F05BFE4FF4FA700EF009FE0120702109F053FE0E22524B1A7009E1504901230B70DC
:405C400008234B7040F2C7100AF0EAFD012840F0FE803C2109F040FE4FF4FA700EF0EEFD0120702109F038FE0E22454B1A70EEE0424901240C7009234B7040F2C7100AF044
:405C8000CFFD20463C2109F027FE4FF4FA700EF0D5FD2046702109F01FFE0E22384B1A70D5E0364901230B700A234B7040F2C7100AF0B6FD012840F0CA803C2109F00CFEFC
:405CC0004FF4FA700EF0BAFD0120702109F004FE0E222B4B1A70BAE0284901230B700B234B7040F2C7100AF09BFD012840F0AF803C2109F0F1FD4FF4FA700EF09FFD012003
:405D0000702109F0E9FD0E221D4B1A709FE01B4901230B700C234B7040F2C7100AF080FD012840F094803C2109F0D6FD4FF4FA700EF084FD0120702109F0CEFD0E22104B22
:405D40001A7084E00D4901230B700D234B7040F2C7100AF065FD012879D13C2109F0BCFD4FF4FA700EF06AFD0120702109F0B4FD0E22034B1A706AE07C8CFF1FE885FF1FFD
:405D80002F83FF1FBD4901230B700E234B7040F2C7100AF045FD012859D13C2109F09CFD4FF4FA700EF04AFD0120702109F094FD0E22B34B1A704AE0B04901230B700F2321
:405DC0004B7040F2C7100AF02BFD01283FD13C2109F082FD4FF4FA700EF030FD0120702109F07AFD0E22A64B1A7030E0A34900230B704B7040F2C7100AF012FD012826D183
:405E00003C2109F069FD4FF4FA700EF017FD0120702109F061FD0E22994B1A7017E0974900230B704B7040F2C7100AF0F9FC012806D1702109F050FD0E22914B1A7006E0C5
:405E400001202E2109F048FD00228D4B1A7064200EF0F4FC0EF092F838BD0EF065F8082840F09C85874B1B78DBB2AA2B4ED1854B9B79DBB2C32B49D1824BDB79DBB23C2BB1
:405E800044D1804BDB78DBB20A2B2ED101227E4B1A6010E07D4B58787D4B197801227D4B1B780BF0B7FD4FF4FA700EF0C7FC764A136801331360784B1B7803F00F03724A13
:405EC00012689342E6D201200C2109F005FD4FF4FA700EF0B3FC0024704BDC7001202E2109F0FAFC664B1C7010E001200C2109F0F3FC4FF4FA700EF0A1FC0024674BDC70A1
:405F000001202E2109F0E8FC5D4B1C7064200EF095FC0EF033F838BD0EF006F8082840F03D85584B1B78DBB2AA2B5DD1554B9B79DBB2C32B58D1534BDB79DBB23C2B53D169
:405F4000504BDB78DBB2392B10D002D8382B05D04AE07E2B41D0942B34D045E001202E2109F0BAFC0022464B1A703DE001203B2109F0B2FC454C60780CF0F0FF60780A2190
:405F80000AF0D6FC60780A210AF0D2FC60780A210AF0CEFC60781D210AF0CAFC607856210AF0C6FC607831210AF0C2FC4FF4FA700EF044FC01202E2109F08EFC0022304B45
:405FC0001A7011E001202F2109F086FC0022344B1A7028222A4B1A7006E001202E2109F07BFC0022264B1A7064200EF027FC0DF0C5FF38BD0DF098FF082840F0CF84214BD5
:406000001B78DBB2AA2B60D11E4B9B79DBB2C32B5BD11C4BDB79DBB23C2B56D1194BDB78DBB2912B08D002D87E2B3FD04DE0922B13D0942B42D048E001200A2109F04CFC83
:406040000122184B1A700422174B1A700022144B1A7018220A4B1A7037E001206F2109F03BFC21220F4B1A7004220F4B1A7000220B4B1A701822024B1A7026E0E885FF1F0D
:406080002F83FF1F7C8CFF1FF485FF1F7888FF1F7B88FF1F088AFF1F088BFF1F7C88FF1FF185FF1F2887FF1F3C86FF1F01202E2109F012FC0022B94B1A7006E00120702191
:4060C00009F00AFC0E22B54B1A7064200EF0B6FB0DF054FF38BDB24B012013F80B1FB14A12780AF007FF01282CD16E2109F0F4FB2322AA4B1A70012001460AF047FD052863
:4061000010D90A200EF09AFB01200AF0C1F9012021210AF03BFD052840F2408401200AF035F938BD0120552109F0D6FB4FF4FA700EF084FB01202E2109F0CEFB0022974B2D
:406140001A7038BD0120552109F0C6FB4FF4FA700EF074FB01202E2109F0BEFB00228F4B1A7038BD0DF0E0FE082840F017848E4B1B78DBB2AA2B7AD18B4B9B79DBB2C32B44
:4061800075D1894BDB79DBB23C2B70D1864BDB78DBB2392B08D002D8382B39D067E07E2B3ED0942B5CD062E0804B5A78012A07D17F4901230B704B707E490B7002234B70FA
:4061C000022A08D17A4B01221A7003215970794B1A7004225A7040F2632075490AF020FB012844D140F2652072490AF019FB01283DD1682109F070FB4FF4FA700EF01EFBCF
:406200000120702109F068FB0E22644B1A702EE02622624B1A700120672109F05DFB26E0654B5B78012B03D10022634B5A7002E00122614B5A7040F2DA305F490AF0F0FAFA
:4062400001203C2109F048FB4FF4FA700EF0F6FA01202E2109F040FB0022504B1A7006E00120702109F038FB0E224C4B1A7064200EF0E4FA0DF082FE38BD0DF055FE082877
:4062800040F08C83484B1B78DBB2AA2B40F0C980454B9B79DBB2C32B40F0C380424BDB79DBB23C2B40F0BD803F4BDB78DBB28D2B41D005D87E2B00F0A5808C2B06D0B0E0DF
:4062C0008E2B7BD0942B00F0A580AAE0374B5B78012B07D1364A0120107002215170354A10705170022B07D1314B0121197004225A70304B19705A7040F263202C490AF010
:406300008FFA012840F08D8040F2652029490AF087FA012840F085806A2109F0DDFA4FF4FA700EF08BFA0E221C4B1A700120702109F0D2FA75E01D4B5A78012A06D11C4953
:4063400001230B704B701B490B704B70022A07D1174B0121197003225A70164B19705A7040F2632012490AF05BFA012859D140F2652010490AF054FA012852D1692109F09C
:40638000ABFA4FF4FA700EF059FA0120702109F0A3FA0E22014B1A7043E000BF2F83FF1F7C88FF1F2887FF1F7C8CFF1F7088FF1F7888FF1F1889FF1F2C83FF1F9649012065
:4063C000087000224A70954B18705A7040F263200AF026FA012824D140F265208F490AF01FFA01281DD16C2109F076FA4FF4FA700EF024FA0120702109F06EFA0E22884B9C
:406400001A700EE001202E2109F066FA0022844B1A7006E00120702109F05EFA0E22804B1A7064200EF00AFA0DF0A8FD38BD0DF07BFD082840F0B2827A4B1B78DBB2AA2B52
:4064400040F0E380774B9B79DBB2C32B40F0DD80744BDB79DBB23C2B40F0D780724B1A78032A26D86F4BDB78DBB2092B0ED86D4BD9786E4B1344303183F88E1001202A21F0
:4064800009F062FA684A137801331370654BDB78DBB20A2B0DD1644C2278644B1344302183F88E1001202A2109F04EFA2378013323705C4BDB78DBB20B2B1AD15A4B1B7847
:4064C0007BB90120552109F007FA4FF4FA700EF0B5F901202E2109F0FFF90022504B1A7007E0013BDAB2504B1A700120202109F02BFA4C4BDB78DBB20C2B40F086804A4B09
:406500001A78002A72D0002349490B6049490B6012E0591C4848405C444C234493F88E30984204D1424803680133036002E000203F4B18603F4B196010463E4B1B689A42ED
:40654000E7D83D4B1A783A4B1B689A420FD10120262109F0C1F94FF4FA700EF06FF922222F4B1A700120712109F0B6F94DE000232F4A13602F4A136010E02F4A1A4492F834
:4065800024102A4A1A4492F88E20914203D128490A6801320A600133264A1360254B1B689842EAD8224B1B68042B0FD10120262109F092F94FF4FA700EF040F92222184B5A
:4065C0001A700120712109F087F91EE00120272109F082F94FF4FA700EF030F901202E2109F07AF900220E4B1A700EE00120272109F072F94FF42F700EF020F901202E2131
:4066000009F06AF90022064B1A7064200EF016F90DF0B4FC38BD00BF7888FF1F1889FF1F2F83FF1F7C8CFF1FF185FF1F7C88FF1F3C87FF1F2C84FF1F0C81FF1F0DF074FCBF
:40664000082840F0AB81AB4B1B78DBB2AA2B40F0A980A84B9B79DBB2C32B40F0A380A54BDB79DBB23C2B40F09D80A34B1A78032A27D8A04BDB78DBB2092B10D89D48C1783F
:406680009E4B1344303183F88E10C17830310120C9B209F059F9984A137801331370954BDB78DBB20A2B0CD1934C2278934B1344302183F88E10012009F046F92378013369
:4066C00023708C4BDB78DBB20B2B1AD18A4B1B787BB90120552109F0FFF84FF4FA700EF0ADF801202E2109F0F7F80022844B1A7007E0013BDAB2804B1A700120202109F08A
:4067000023F97C4BDB78DBB20C2B4BD17A4B1B78042B47D10120392109F0DEF84FF4FA700EF08CF80024764B1C7001203C2109F0D3F8714B1A78734B1A70734B1C6008E0C0
:40674000591C6E48034493F88E006E4B58546E4B19606D4B1B689A42F2D840F29F2069490AF05EF878B90120552109F0B5F84FF4FA700EF063F801202E2109F0ADF800227F
:406780005F4B1A700EE001203C2109F0A5F84FF4FA700EF053F801202E2109F09DF80022574B1A7064200EF049F80DF0E7FB38BD0DF0BAFB082840F0F1804E4B1B78DBB28E
:4067C000AA2B5FD14B4B9B79DBB2C32B5AD1494BDB79DBB23C2B55D1464BDB78DBB2BC2B08D002D87E2B46D04CE0BD2B1AD0BE2B31D047E0454901240C704C704FF47D704F
:406800000AF00EF82046392109F066F84FF42F700EF014F82046702109F05EF80E22384B1A702FE0394901240C7002234B704FF47D7009F0F5FF2046392109F04DF84FF462
:406840002F700DF0FBFF2046702109F045F80E222B4B1A7016E00120062109F03DF801222B4B1A700023244A13702A4A13700522234B1A7006E00120702109F02DF80E2286
:406880001F4B1A7064200DF0D9FF0DF077FB38BD0DF04AFB082840F08180164B1B78DBB2AA2B76D1134B9B79DBB2C32B71D1114BDB79DBB23C2B6CD10E4BDB78763B0D2B42
:4068C00067D8DFE803F0074E6666666666665F6666662D3D0120302108F0FEFF00230E4A1370054A137001220C4B1A701822044B1A704EE07C8CFF1FF185FF1F7C88FF1F93
:406900002F83FF1F0C81FF1F2C84FF1F7088FF1F7488FF1F3283FF1F3C86FF1F6E8AFF1F0120302108F0D8FF01231D4A137000211C4A11701C4A137018221C4B1A7028E0A2
:406940000120302108F0C8FF0222154B1A700022144B1A700122144B1A701822134B1A7017E00120302108F0B7FF03220C4B1A7000220C4B1A7001220B4B1A7018220B4BEC
:406980001A7006E001205F2108F0A6FF1B22074B1A7064200DF052FF0DF0F0FA38BD00BF3C86FF1FF185FF1F6E8AFF1F2F83FF1F10B5A64B1B78212B01F25483DFE813F020
:4069C00022009C00F800520B5C01D6016B02DE02520B720341048404F104700599057C06520B520B520B9007520B520B520B520B520B520B39080A09B709520B520B2F0AF7
:406A0000520BF50A924B1B78012B03D1914B1A788E4B1A70904B1B78012B06D18F4B1A788F4B1A7001228F4B1A700DF07DFA082841F018838C4B1B78DBB2AA2B56D18A4BB9
:406A40009B79DBB2C32B51D1874BDB79DBB23C2B4CD1854BDB78DBB2562B02D0572B1FD044E07D4B1B78012B04D17C4B1A787C4B1A7008E00120632108F02EFF0123794AF7
:406A80001370774A1370724B1B78012B04D1714B1A786E4B1A7029E000226C4B1A7025E00120632108F018FF02226E4B1A706A4B1B78012B04D1694B1A78694B1A7002E0F2
:406AC0000022674B1A70624B1B78012B04D1614B1A785E4B1A7009E00120632108F0FCFE0222604B1A700122584B1A7064200DF0A5FE0DF043FA10BD0DF016FA082841F0C4
:406B0000B182594B1B78DBB2AA2B4BD1564B9B79DBB2C32B46D1544BDB79DBB23C2B41D1514BDB78DBB25C2B0AD004D8452B0FD0592B18D036E07E2B25D0942B2BD031E03A
:406B40000120492108F0C8FE0222404B1A7029E00120252108F0C0FE0022444B1A700F223A4B1A701EE001202B2108F0B5FE4FF42F700DF063FE01202E2108F0ADFE002267
:406B8000324B1A700EE001202E2108F0A5FE00222E4B1A7006E001202E2108F09DFE00222A4B1A7064200DF049FE0DF0E7F910BD0DF0BAF9082841F055822B4B1B78DBB2B6
:406BC000AA2B3CD1284B9B79DBB2C32B37D1264BDB79DBB23C2B32D1234BDB78DBB25F2B08D002D85E2B10D029E07E2B18D0942B1ED024E001200B2108F06EFE00221C4B75
:406C0000DA700A22114B1A7019E001201D2108F063FE0022174B1A700B220C4B1A700EE001202E2108F058FE0022084B1A7006E00120632108F050FE0122044B1A7064202F
:406C40000DF0FCFD0DF09AF910BD00BFEC85FF1FC785FF1F3083FF1F548AFF1FEF85FF1F2F83FF1F1589FF1F7C8CFF1FF185FF1F708AFF1F8083FF1F0DF056F9082841F07E
:406C8000F181A94B1B78DBB2AA2B69D1A64B9B79DBB2C32B64D1A44BDB79DBB23C2B5FD1A24AD37823F00303D3709F4BDB78DBB23B2B3ED004D80F2B09D0102B1BD04FE00E
:406CC0007E2B3ED0942B44D0432B49D129E00120062108F001FE0022954B1A700120242108F032FE914AD37843F00203D3700522904B1A7034E001200D2108F0EDFD00228C
:406D00008B4B1A708C4B1A700120472108F01CFE864AD37843F00103D3700522854B1A701EE00120072108F0D7FD0622814B1A7016E001202E2108F0CFFD00227D4B1A70B2
:406D40000EE001202E2108F0C7FD0022794B1A7006E001200B2108F0BFFD0A22754B1A7064200DF06BFD0DF009F910BD0DF0DCF8082841F077816C4B1B78DBB2AA2B40F071
:406D80008480694B9B79DBB2C32B7ED1664BDB79DBB23C2B79D1664B1B78684A1278013A93423EDC604AD278D2B2092A0FD80133DAB25F4B1A705C48C1785C4B134430318E
:406DC000D972C17830310120C9B208F0BDFD564BDB78DBB20A2B0BD1554B1A780132D2B21A70524B13443021D972012008F0ACFD4D4BDB78DBB2512B13D14D4B1B7883B1D2
:406E00004D4A12786AB90133DAB2494B1A70474B13442C21D972012008F096FD0122464B1A70414BDB78DBB20B2B1BD1404B1A783AB90120052108F04FFD04223D4B1A7064
:406E400010E00120202108F07FFD394B1B78374A1A44D27A2C2A02D10021374A1170013B334A1370304BDB78DBB20C2B0DD1304B1B7853B10120072108F02EFD2C4B1A788B
:406E80002A4BDA7206222B4B1A7064200DF0D6FC0DF074F810BD0DF047F8082820D1224B1B78DBB2AA2B15D11F4B9B79DBB2C32B10D11D4BDB79DBB23C2B0BD11A4BDB789D
:406EC000DBB27E2B06D101202E2108F005FD0022184B1A7064200DF0B1FC0DF04FF810BD174B187804F088F8072841F0BB8032200DF0A4FC124B187804F092F80146114BCF
:406F000018700A4BDB7813F003031FD00C4A10780D4A07F073FEC8B901202E2108F0DCFC0022044B1A7010BD7C8CFF1F708AFF1FF185FF1FEC85FF1F3283FF1FD485FF1F58
:406F40003483FF1FC085FF1F7B8AFF1F9F4C207804F066F89E4B1870207840F010000CF09DFE0120082108F0B7FC0723994A1370994A13700122994B1A7010BD32200DF069
:406F80005DFC924B187804F037F80638052801F26980DFE810F07000670867087C003B00060064200DF04AFC884B187804F0ACF801280ED18A4B1B785BB9392108F08CFCAF
:406FC0000022864B1A7014200DF038FC0D22814B1A707E4B187804F097F8012841F042807F4B1B78012B41F03D800C2108F074FC00247A4B1C704FF4FA700DF01FFC0120CB
:407000002E2108F069FC734B1C7010BD64200DF015FC6E4B187804F077F801280ED1704B1B785BB9392108F057FC00226B4B1A7014200DF003FC0D22664B1A70634B187806
:4070400004F062F8012841F00D80654B1B78012B41F008800C2108F03FFC00245F4B1C704FF4FA700DF0EAFB01202E2108F034FC584B1C7010BD01202E2108F02DFC002322
:40708000564A1370574AD370524A137010BD32200DF0D4FB01202E2108F01EFC00224D4B1A7010BD0CF040FF082840F0DB874E4B1B78DBB2AA2B40F0BE804B4B9B79DBB2FC
:4070C000C32B40F0B880484BDB79DBB23C2B40F0B280464B1B78062B65D8434AD278D2B2092A10D80133DAB2404B1A703E48C1783C4B1344303183F86510C1783031012077
:40710000C9B208F021FC384BDB78DBB20A2B0CD1364B1A780132D2B21A70324B1344302183F86510012008F00FFC2F4BDB78DBB26A2B0CD12D4B1A780132D2B21A70294B32
:4071400013442D2183F86510012008F0FDFB264BDB78DBB21A2B26D9234BDB78DBB2422B21D80022224B1A6019E01F4AD278D2B220491944097A8A420DD11C490A780132DA
:40718000D2B20A704133D9B2164B134483F86510012008F0D9FB164A136801331360144B1B68192BE1D9104BDB78DBB20B2B2BD10E4B1A7802BB01202E2108F08DFB0023B3
:4071C000084A82F86530034A13701DE03483FF1FC085FF1FEC85FF1F3083FF1FC785FF1F8083FF1F708AFF1F7C8CFF1FF185FF1F2C84FF1F0C81FF1F0120202108F0A4FBFA
:40720000A14A1378013B1370A04BDB78DBB20C2B11D19D4B1B7873B10120052108F05CFB9B4B994A127883F86520012283F883200422984B1A7064200DF000FB0CF09EFEC5
