:400000000080002011000000791401007914010008B5044B1A6803F53F5302331A6011F02DFA00BFFA46004010B5054C237833B9044B13B10448AFF300800123237010BD23
:40004000F082FF1F0000000020260100084B10B51BB108480849AFF300800848036803B910BD074B002BFBD0BDE81040184700BF0000000020260100F482FF1F0881FF1FE1
:400080000000000010B562B611F0E0FB11F000FD11F09EFD11F08EFE11F0E6FB11F0A8FF052012F037FA0024564B1C70564B1C70564B1C70564B1C70204620210EF056FAB1
:4000C000544B1C6006E0544AD15C544AD1540133504A1360504B1A784E4B1B689A42F2D220200F210EF042FA00224A4B1A6007E0494AD15C494A1A4491770133454A136096
:40010000454B1A78434B1B689A42F1D22F200C210EF02CFA00223F4B1A6008E03E4AD15C3E4A1A4482F82F1001333A4A13603A4B1A78384B1B689A42F0D2402020210EF066
:4001400015FA0022334B1A6008E0334AD15C334A1A4482F8431001332E4A13602E4B1A782C4B1B689A42F0D2602009210EF0FEF9294B1878431EDBB2082B14D80022254B18
:400180001A6008E00133244AD15C244A1A4482F8D710204A13601F4B1B68072BF2D91F4B83F8D7000EE001221A4B1A6006E01B4A1A4482F8D7300133164A1360154B1B685A
:4001C000082BF4D9802020210EF0D0F90022114B1A6008E0104AD15C104A1A4482F8611001330C4A13600C4B1A780A4B1B689A42F0D2A02020210EF0B9F90022054B1A6054
:4002000017E000BF7088FF1FD285FF1F8083FF1F6A8AFF1F2C84FF1FF885FF1F1889FF1F964AD15C964A1A4482F87F100133954A1360924B1A78934B1B689A42F0D24FF497
:40024000DD7002210EF092F98C4B1B78052B05D18A4B5B7803F00F038B4A137040F2C31002210EF083F9854B1B781BB1834B5A78864B1A7040F2C51002210EF077F97F4BE2
:400280001B781BB17D4B5A78814B1A7040F2C11002210EF06BF9794B1B781BB1774B5A787C4B1A7040F2EE3002210EF05FF9734B1B781BB1714B5A78774B1A704FF41F70CD
:4002C00002210EF053F96D4B1B781BB16B4B5A78724B1A7040F27A2002210EF047F9674B1B781BB1654B5A786D4B1A7040F27E2002210EF03BF9614B1B781BB15F4B5A78FD
:40030000684B1A704FF47C7002210EF02FF95B4B1B781BB1594B5A78634B1A704FF4936002210EF023F9554B1B781BB1534B5A785E4B1A7040F29A4002210EF017F94F4B69
:400340001B781BB14D4B5A78594B1A7040F29C4002210EF00BF9494B1B781BB1474B5A78544B1A7040F29E4002210EF0FFF8434B1B781BB1414B5A784F4B1A704FF4946005
:4003800002210EF0F3F83D4B1B781BB13B4B5A784A4B1A7040F2A24002210EF0E7F8374B1B781BB1354B5A78454B1A7040F2A44002210EF0DBF8314B1B781BB12F4B5A7841
:4003C000404B1A7040F2A64002210EF0CFF82B4B1B781BB1294B5A783B4B1A7040F29F2005210EF0C3F8254B1878042810D10122244B1A6006E0214AD15C344AD15401337F
:40040000204A13601F4B1B68042BF4D92F4B187040F26A400A210EF0A9F80022194B1A6006E0164AD15C2A4AD1540133154A1360124B1A78134B1B689A42F2D240F27540E5
:400440000A210EF093F800220E4B1A6006E00B4AD15C204AD15401330A4A1360074B1A78084B1B689A42F2D240F2DC500A210EF07DF80022034B1A6035E000BFF885FF1F32
:400480001889FF1F2C84FF1FD485FF1F6B8AFF1F7688FF1F538AFF1FF085FF1F3287FF1F1689FF1F3787FF1F3487FF1F3D86FF1F2E83FF1FD385FF1FC685FF1FD585FF1F2B
:4004C000C585FF1F8C86FF1F3B86FF1F0C81FF1FC885FF1F2084FF1F8E4AD15C8E4AD15401338E4A13608B4B1A788C4B1B689A42F2D240F28B400A210EF038F80022874B80
:400500001A6006E0834AD15C854AD1540133834A1360804B1A78814B1B689A42F2D240F2964002210EF022F87A4B1B780BB17D4A137040F25A2006210EF018F8754B1B78D8
:40054000052B0AD1734AD37803F00F0376490B70537903F00F03754A137040F2C71002210EF004F86B4B1B78012B06D1704A1370684B5B7803F00F0353704FF4DE70022165
:400580000DF0F4FF634B1B78012B05D1614B5B7803F00F03674A137040F2632002210DF0E5FF5C4B1B78012B05D15A4B5B7803F00F03614A537040F2652002210DF0D6FFC4
:4005C000544B1B78012B05D1524B5B7803F00F035A4A53704FF4277003210DF0C7FF4D4B1B78022B06D14B4B9B7843EA0323544A138002E00122524B1A804FF47670022146
:400600000DF0B4FF434B1B78012B04D1414B5A784C4B5A7007E04B4901230B704B704FF476700DF065FF4FF4BB6002210DF09EFF384B1B78012B04D1364B5A78424B5A70EE
:4006400007E0414901230B704B704FF4BB600DF04FFF40F2D23006210DF088FF2D4B187805280FD100222D4B1A6006E0294AD15C364AD1540133294A1360284B1B689842E9
:40068000F4D20CE0314905230B7030234B708B70CB700B714B7140F2D2300DF029FF4FF47D7002210DF062FF1A4B187801280ED100221A4B1A6006E0164AD15C244AD154E1
:4006C0000133164A1360154B1B689842F4D21F4A537903F00F00137903F00F014FF47A7303FB01F342F2107101FB0033D07800F00F00642101FB0031937803F00F0303EBAD
:4007000083035B000B44527802F00F021344114A136010BDF885FF1F088BFF1F2C84FF1FD885FF1F048BFF1F1C84FF1F528AFF1FE885FF1F3587FF1F7488FF1F1489FF1F96
:40074000C285FF1F2C83FF1F688AFF1F2C87FF1F6C88FF1F648AFF1F10B50024A0E008F099FA01280BD010B1022841D098E0642011F0D0FE01204F210CF016FF90E06420F3
:4007800011F0C8FE484B187808F00EFB0B2805D0464B187808F008FB0B2807D1424B187808F08AFB414B187808F086FB642011F0B1FE3D4B187808F0F7FA06280FD13B4B27
:4007C000187808F0F1FA062809D101203C210CF0EBFE02203C210CF0E7FE012460E0012055210CF0E1FE022055210CF0DDFE57E0642011F08FFE2C4B187808F0D5FA0B282B
:4008000011D02B4B187808F0CFFA0B280BD0274B187808F0C9FA0B2805D0264B187808F0C3FA0B280FD1204B187808F045FB1F4B187808F041FB1E4B187808F03DFB1D4B82
:40084000187808F039FB642011F064FE164B187808F0AAFA06281BD1154B187808F0A4FA062815D1114B187808F09EFA06280FD1104B187808F098FA062809D101204A2101
:400880000CF092FE02204A210CF08EFE022407E0012055210CF088FE022055210CF084FE002C3FF45CAF10BD048AFF1F4086FF1F3483FF1F3C87FF1F08B500230A4A137027
:4008C0000A4A13704FF4FA7011F024FE01202E210CF06AFE4FF4FA7011F01CFE02202E210CF062FE08BD00BF2F83FF1FEC85FF1F38B5A14B1B782A2B03F24687DFE813F0B8
:400900002B009E00F500441F4E01C8017D02EE02441F82035204950402058505AE0595067908AA07D40892091C0ABA0BFC0C720E900F441F6D133E14D5144B152816C0160C
:400940009217A319021A701AE11A281BB31B8D1C941D4E1EBE1E894B1B78012B03D1884B1A78854B1A70874B1B78012B06D1864B1A78864B1A700222854B1A7011F042F9B8
:40098000082843F00187834B1B78DBB2AA2B4FD1804B9B79DBB2C32B4AD17E4BDB79DBB23C2B45D17B4BDB78DBB2562B02D0572B1FD03DE0714B1B78012B04D1704B1A78A9
:4009C0006D4B1A7008E0012063210CF0EDFD01236F4A1370684A13706A4B1B78012B04D1694B1A78694B1A7022E00022674B1A701EE0624B1B78012B04D1614B1A785E4B5A
:400A00001A7002E000225C4B1A705E4B1B78012B04D15D4B1A785D4B1A7009E0012063210CF0C2FD02225A4B1A700122574B1A70642011F06FFD11F00FF938BD11F0E2F899
:400A4000082843F0A186534B1B78DBB2AA2B46D1504B9B79DBB2C32B41D14E4BDB79DBB23C2B3CD14B4BDB78DBB25C2B0AD004D8452B0FD0592B18D031E07E2B20D0942B41
:400A800026D02CE0012049210CF08EFD02223A4B1A7024E0012025210CF086FD00223E4B1A700F22344B1A7019E0012025210CF07BFD0022384B1A7027222F4B1A700EE058
:400AC00001202E210CF070FD00222B4B1A7006E001202E210CF068FD0022274B1A70642011F018FD11F0B8F838BD11F08BF8082843F04A86274B1B78DBB2AA2B36D1254B51
:400B00009B79DBB2C32B31D1224BDB79DBB23C2B2CD1204BDB78DBB25F2B08D002D85E2B0DD023E07E2B12D0942B18D01EE001200B210CF039FD0A220F4B1A7016E00120AC
:400B40001D210CF031FD0B220B4B1A700EE001202E210CF029FD0022074B1A7006E0012063210CF021FD0122034B1A70642011F0D1FC11F071F838BD2F83FF1F508AFF1F69
:400B8000EF85FF1FC785FF1F3083FF1FEC85FF1F1089FF1F788CFF1FF185FF1F11F032F8082843F0F185A74B1B78DBB2AA2B69D1A44B9B79DBB2C32B64D1A24BDB79DBB2C6
:400BC0003C2B5FD1A04AD37823F00303D3709D4BDB78DBB23B2B3ED004D80F2B09D0102B1BD04FE07E2B3ED0942B44D0432B49D129E0012006210CF0D7FC0022934B1A7091
:400C0000012024210CF008FD8F4AD37843F00203D37005228E4B1A7034E001200D210CF0C3FC0022894B1A708A4B1A70012047210CF0F2FC844AD37843F00103D3700522FA
:400C4000834B1A701EE0012007210CF0ADFC06227F4B1A7016E001202E210CF0A5FC00227B4B1A700EE001202E210CF09DFC0022774B1A7006E001200B210CF095FC0A22F2
:400C8000734B1A70642011F045FC10F0E5FF38BD10F0B8FF082843F077856A4B1B78DBB2AA2B40F0A480674B9B79DBB2C32B40F09E80644BDB79DBB23C2B40F09880634BBD
:400CC0001B78654A1278013A93423EDC5D4AD278D2B2092A0FD80133DAB25C4B1A705948C178594B13443031D972C17830310120C9B20CF091FC534BDB78DBB20A2B0BD1AF
:400D0000524B1A780132D2B21A704F4B13443021D97201200CF080FC4A4BDB78DBB2512B13D14A4B1B7883B14A4A12786AB90133DAB2464B1A70444B13442C21D972012031
:400D40000CF06AFC0122434B1A703E4BDB78DBB20B2B1BD13D4B1A783AB9012005210CF023FC04223A4B1A7010E0012020210CF053FC364B1B78344A1A44D27A2C2A02D1A5
:400D80000021344A1170013B304A13702D4BDB78DBB20C2B2BD12D4B1B786BB12F4B1B7853B9012007210CF0FFFB284B1A78264BDA720622264B1A70244B1B78BBB1274B0B
:400DC0001B78012B13D1012070210CF0EDFB1E4B1B7B234903F00F030B7040F296400DF087FB00221D4B1A700E22194B1A70642011F090FB10F030FF38BD10F003FF0828B0
:400E000030D1104B1B78DBB2AA2B15D10D4B9B79DBB2C32B10D10B4BDB79DBB23C2B0BD1084BDB78DBB27E2B06D101202E210CF0BBFB0022064B1A70642011F06BFB10F07C
:400E40000BFF38BD788CFF1F7888FF1FF185FF1F2F83FF1F3283FF1FD485FF1F7088FF1F048BFF1F994B187807F09EFF072843F08B84322011F04EFB944B187807F0A8FFA0
:400E80000146934B1870934BDB7813F003030DD08E4A1078904A0BF01BFD38B901202E210CF082FB00228D4B1A7038BD874C207807F08EFF864B1870207840F0100010F0AE
:400EC0005BFD012008210CF06FFB0723834A1370834A13700122834B1A7038BD322011F019FB7A4B187807F05FFF0638052803F24B84DFE810F07000491C491C7C003B00B8
:400F00000600642011F006FB704B187807F0D4FF01280ED1744B1B785BB939210CF044FB0022704B1A70142011F0F4FA0D226B4B1A70664B187807F0BFFF012843F024841A
:400F4000694B1B78012B43F01F840C210CF02CFB0024644B1C704FF4FA7011F0DBFA01202E210CF021FB5D4B1C7038BD642011F0D1FA564B187807F09FFF01280ED15A4B82
:400F80001B785BB939210CF00FFB0022554B1A70142011F0BFFA0D22504B1A704B4B187807F08AFF012843F0EF834F4B1B78012B43F0EA830C210CF0F7FA0024494B1C70D1
:400FC0004FF4FA7011F0A6FA01202E210CF0ECFA424B1C7038BD01202E210CF0E5FA0023404A13703B4AD3703C4A137038BD322011F090FA01202E210CF0D6FA0022374B45
:401000001A7038BD10F0FEFD082843F0BD83374B1B78DBB2AA2B40F0BF80344B9B79DBB2C32B40F0B980314BDB79DBB23C2B40F0B3802F4B1B78062B7CD82C4AD278D2B239
:40104000092A10D80133DAB2294B1A702748C178204B1344303183F86510C17830310120C9B20CF0D9FA214BDB78DBB20A2B0CD11F4B1A780132D2B21A70164B1344302133
:4010800083F8651001200CF0C7FA184BDB78DBB26A2B0CD1164B1A780132D2B21A700D4B13442D2183F8651001200CF0B5FA0F4BDB78DBB21A2B3DD90C4BDB78DBB2422B87
:4010C00038D800220B4B1A6030E000BF048AFF1F7788FF1F7888FF1F8388FF1F2F83FF1FEF85FF1F508AFF1FD285FF1F788CFF1FF185FF1F2C84FF1FA94AD278D2B2A94909
:401100001944097A8A420DD1A7490A780132D2B20A704133D9B2A54B134483F8651001200CF07AFAA24A136801331360A04B1B68192BE1D99A4BDB78DBB20B2B15D19A4B7B
:401140001A7852B901202E210CF02EFA0023974A82F86530974A137007E0012020210CF05BFA914A1378013B13708D4BDB78DBB20C2B11D18C4B1B7873B1012005210CF066
:4011800013FA8A4B884A127883F86520012283F883200422874B1A70642011F0BBF910F05BFD38BD10F02EFD082843F0ED827C4B1B78DBB2AA2B32D1794B9B79DBB2C32B99
:4011C0002DD1774BDB79DBB23C2B28D1744BDB78DBB2392B04D07E2B1AD0382B1FD10CE001200A210CF0E0F900236F4A1370724A137009226F4B1A7011E0012005210CF0E3
:40120000D3F901226C4B1A7004226A4B1A7006E001202E210CF0C8F90022664B1A70642011F078F910F018FD38BD012001460DF015FB052840D90A2011F06CF901202121FB
:401240000DF00CFB052837D901200DF0FDF9012832D1332010F01EFD012033210DF058FA50B30022554B1A600AE001200DF0BAFA4E4B1C4484F82900504A13680133136066
:401280004E4B1C68072CF0D9012013210CF08CF9464CE37843F00403E3704FF4FA7011F039F901200E210CF07FF900233E4A137023710C223F4B1A7010F0A4FC082843F01A
:4012C0006382374B1B78DBB2AA2B15D1344B9B79DBB2C32B10D1324BDB79DBB23C2B0BD12F4BDB78DBB23B2B06D1012049210CF05BF902222F4B1A70642011F00BF910F0F9
:40130000ABFC38BD10F07EFC082843F03D82244B1B78DBB2AA2B72D1214B9B79DBB2C32B6DD11F4BDB79DBB23C2B68D11E4B1B78052B25D81A4AD278D2B2092A0FD8013301
:40134000DAB2194B1A701648C178184B134430311971C17830310120C9B20CF05DF9104BDB78DBB20A2B0BD10F4B1A780132D2B21A700E4B13443021197101200CF04CF9C9
:40138000074BDB78DBB20B2B22D1074B1A78BAB9012005210CF008F90422064B1A7017E0788CFF1F0C81FF1FF185FF1F7888FF1F2C84FF1F2F83FF1FD285FF1FF485FF1F16
:4013C000012020210CF028F9AA4A1378013B1370A94BDB78DBB20C2B11D1A64B1B7873B1A64B5B79302B0AD0012005210CF0DCF8A04B1A78A14B1A710422A14B1A70642076
:4014000011F088F810F028FC38BD9E4B58789E4B197800229D4B1B780EF064F99C4B5B788BB901200C210CF0BFF84FF4FA7011F071F80024914BDC7001202E210CF0B4F86D
:401440008F4B1C7038BD012031210CF0ADF80022884B1A7021228A4B1A7038BD10F0D2FB082843F09181844B1B78DBB2AA2B40F0D680814B9B79DBB2C32B40F0D0807E4BB7
:40148000DB79DBB23C2B40F0CA807B4BDB78DBB2652B00F088800AD85A2B54D002D8582B16D0BCE05B2B68D05D2B28D0B7E0932B00F0818006D8702B00F09A807E2B00F032
:4014C0009F80ACE0942B00F0A380962B60D0A6E00022684B1A7001203E210CF065F80CF047FF012801D10CF017F90CF071FF012801D10CF06FF91022614B1A708FE00120B4
:401500005C210CF051F801200021D62240F2AD130CF046FA01200021892240F2A7130CF03FFA01200146242240F2B3130CF038FA0120014678224FF47A730CF031FA132211
:401540004F4B1A706BE0012060210CF02DF801200CF0A4F901200CF0E3FA01200CF072FC01200CF0F5FC01200CF060FB01200CF0E3FB1222424B1A7051E001202F210CF090
:4015800013F800223B4B1A7011223D4B1A7046E001205F210CF008F80022364B1A701B22374B1A703BE001204D210BF0FDFF1422334B1A7033E001206E210BF0F5FF0120BE
:4015C00001460DF04BF905280ED90A2010F0A2FF01200CF0C5FD012021210DF03FF9052802D901200CF03AFD2322254B1A7016E0012089210BF0D8FF2922214B1A700EE0B0
:4016000001202E210BF0D0FF00221D4B1A7006E001202E210BF0C8FF0022194B1A70642010F078FF10F018FB38BD10F0EBFA082843F0AA80104B1B78DBB2AA2B43F0A48018
:401640000D4B9B79DBB2C32B43F09E800A4BDB79DBB23C2B43F09880074BDB78DBB27E2B18D1012031210BF09FFF0022044B1A701CE000BFF185FF1F788CFF1F7888FF1FF0
:401680002F83FF1F7488FF1F7788FF1F048AFF1F2C83FF1FA34BDB78DBB2942B06D1012063210BF081FF01229F4B1A709F4B1A78072A26D89B4BDB78DBB2092B0ED8994B20
:4016C000D9789B4B1344303183F88E1001202A210BF0A2FF954A137801331370914BDB78DBB20A2B0DD1914C2278914B1344302183F88E1001202A210BF08EFF2378013313
:401700002370884BDB78DBB20B2B1AD1874B1B787BB9012039210BF047FF4FF4FA7010F0F9FE01202E210BF03FFF00227E4B1A7007E0013BDAB27D4B1A70012020210BF0CD
:401740006BFF784BDB78DBB20C2B7DD1774B1A78002A79D0002377490B6077490B6015E0581C7649014491F8D710714C234493F88E30303B994204D16E490B6801330B6069
:4017800002E000216B4B19606B4B186010466A4B1B689A42E4D8694B93F8D720654B1B689A420FD1012026210BF0FEFE4FF4FA7010F0B0FE012070210BF0F6FE0E225A4B4E
:4017C0001A7041E000235B4A13605B4A136010E05B4A1A4492F82410554A1A4492F88E20914203D153490A6801320A600133524A1360514B1B689842EAD84E4B1B68082B66
:4018000013D1012026210BF0CFFE4FF4FA7010F081FE01205D210BF0C7FE012070210BF0C3FE0E22404B1A700EE0012027210BF0BBFE4FF4FA7010F06DFE01202E210BF0C8
:40184000B3FE0022384B1A70642010F063FE10F003FA38BD10F0D6F9082842F09587314B1B78DBB2AA2B40F0BE802E4B9B79DBB2C32B40F0B8802B4BDB79DBB23C2B40F027
:40188000B280284BDB78DBB2942B06D1012070210BF08AFE0E22244B1A70244B1A78072A27D8204BDB78DBB2092B10D81D48C1781F4B1344303183F88E10C1783031012083
:4018C000C9B20BF0A9FE194A137801331370154BDB78DBB20A2B0CD1144C2278144B1344302183F88E1001200BF096FE2378013323700C4BDB78DBB20B2B2BD10B4B1B7856
:4019000003BB012055210BF04FFE4FF4FA7010F001FE01202E210BF047FE0022024B1A7018E000BF788CFF1F2F83FF1FF185FF1F7888FF1F3887FF1F2C84FF1F1889FF1FF0
:401940000C81FF1F013BDAB2AC4B1A70012020210BF062FEAA4BDB78DBB20C2B43D1A74B1B78052B3FD9012039210BF01DFEA34B1978A44B83F8D7100022A34B1A600BE0F3
:40198000581CA24A134493F88E209E4B0344303A83F8D7209C4B18609B4B1B689942EFD860209B490CF0A4FD70B9012055210BF0FBFD4FF4FA7010F0ADFD01202E210BF04B
:4019C000F3FD0022934B1A70012026210BF0ECFD4FF4FA7010F09EFD01202E210BF0E4FD00228C4B1A70642010F094FD10F034F938BD10F007F9082842F0C686804B1B78C7
:401A0000DBB2AA2B4AD17E4B9B79DBB2C32B45D17B4BDB79DBB23C2B40D1794BDB78DBB23F2B08D002D83E2B1CD037E07E2B26D0942B2CD032E0012040210BF0B5FD0023B2
:401A40006E4A1370744A13700120612106220BF0E3FD01206D2107220BF0DEFD15226D4B1A701BE001203F210BF09EFD0023634A1370694A13701622664B1A700EE0012000
:401A80002E210BF091FD0022624B1A7006E0012070210BF089FD0E225E4B1A70642010F039FD10F0D9F838BD10F0ACF8082842F06B86534B1B78DBB2AA2B40F09980504B8B
:401AC0009B79DBB2C32B40F093804D4BDB79DBB23C2B40F08D804A4BDB78DBB27E2B78D00AD8772B42D002D8762B10D080E0782B4CD07A2B58D07BE0832B27D002D8822B2D
:401B000014D075E0942B6CD0952B5AD070E0012030210BF049FD0023404A1370374A13703F4A137018223B4B1A7061E0012079210BF03AFD0222394B1A7000232F4A13707B
:401B4000374A13701822334B1A7051E001207A210BF02AFD0322314B1A700023274A13702F4A137018222B4B1A7041E0012078210BF01AFD0122294B1A7000231F4A13707B
:401B8000274A13701822234B1A7031E0012065210BF00AFD0122214B1A700022174B1A7017221C4B1A7023E0012032210BF0FCFC00231A4A1370114A13701722154B1A707F
:401BC00016E0012066210BF0EFFC2022114B1A700EE001202E210BF0E7FC00220D4B1A7006E0012070210BF0DFFC0E22094B1A70642010F08FFC10F02FF838BDF185FF1FBE
:401C0000788CFF1F1889FF1F2C84FF1F7888FF1FEF89FF1F2F83FF1F3283FF1F3C86FF1F6A8AFF1F0FF0EEFF082842F0AD85B24B1B78DBB2AA2B79D1AF4B9B79DBB2C32B67
:401C400074D1AD4BDB79DBB23C2B6FD1AA4BDB78DBB2802B1FD004D87E2B58D07F2B06D064E0822B3FD02AD3942B58D05EE0012006210BF099FC0022A04B1A70A04B1978F6
:401C8000A04B83F8A310012024210BF0C5FC1A229D4B1A704AE0012006210BF085FC0022964B1A70994B1978964B83F8A310012024210BF0B1FC1A22934B1A7036E0012053
:401CC00006210BF071FC00228C4B1A70904B19788C4B83F8A310012024210BF09DFC1A22894B1A7022E0012006210BF05DFC0022824B1A70874B1978824B83F8A310012037
:401D000024210BF089FC1A227F4B1A700EE001202E210BF049FC00227B4B1A7006E0012070210BF041FC0E22774B1A70642010F0F1FB0FF091FF38BD0FF064FF082842F03A
:401D400023856D4B1B78DBB2AA2B40F08D816A4B9B79DBB2C32B40F08781674BDB79DBB23C2B40F08181644BDB78DBB2642B00F0048104D8622B09D0632B43D074E17E2BB4
:401D800000F06381942B00F068816DE1012039210BF00AFC642010F0BDFB5F4B187807F003F806281ED15D4B187806F0FDFF062808D101204A210BF0F7FB4FF4FA7010F011
:401DC000A9FB51E1012055210BF0EEFB4FF4FA7010F0A0FB01202E210BF0E6FB00224A4B1A7041E1012055210BF0DEFB4FF4FA7010F090FB01202E210BF0D6FB0022424B0D
:401E00001A7031E1012037210BF0CEFB444B5B78012B45D10022434B1A600AE0424A1344012093F82C100CF0EBFB3E4A1368013313603C4B1B68102BF0D901200A210CF064
:401E4000DFFB01200A210CF0DBFB01200A210CF0D7FB01200A210CF0D3FB0022314B1A600AE0314A1344022093F82C100CF0C8FB2C4A1368013313602A4B1B68102BF0D92A
:401E800002200A210CF0BCFB02200A210CF0B8FB02200A210CF0B4FB02200A210CF0B0FB1F4B5B78022B60D100221E4B1A600AE01D4A1344032093F82C100CF0A1FB194A0D
:401EC000136801331360174B1B68102BF0D903200A210CF095FB03200A210CF091FB03200A210CF08DFB03200A210CF089FB00220C4B1A6025E000BF788CFF1FF185FF1F1A
:401F00006B8AFF1F1889FF1F2F83FF1F7688FF1F538AFF1FF085FF1F048AFF1F3483FF1F6C88FF1F2C84FF1F0C81FF1FA64A1344042093F82C100CF063FBA44A1368013320
:401F40001360A24B1B68102BF0D904200A210CF057FB04200A210CF053FB04200A210CF04FFB04200A210CF04BFB01206B210BF01BFB2522964B1A7076E001200CF064FBDC
:401F8000012852D133200FF085FE012033210CF0BFFB002868D000228E4B1A600AE001200CF020FC8C4B1C4484F82900894A136801331360874B1C68072CF0D90023874AC6
:401FC0001370844A13600CE0844C834A1344207893F829100CF07CFF20707E4A1368013313607C4B1B68062BEED97B4B93F830207A4B1B789A4208D101204B210BF0D4FAAA
:402000004FF47A7010F086FA2EE0012055210BF0CBFA4FF4FA7010F07DFA01202E210BF0C3FA00226A4B1A701EE0012055210BF0BBFA4FF4FA7010F06DFA01202E210BF01D
:40204000B3FA0022624B1A700EE001202E210BF0ABFA00225E4B1A7006E0012070210BF0A3FA0E225A4B1A70642010F053FA0FF0F3FD38BD0FF0C6FD082842F08583584BF4
:402080001B78DBB2AA2B40F03181554B9B79DBB2C32B40F02B81524BDB79DBB23C2B40F02581504B1B78042B00F2C580DFE813F005002E005400C3009E00494AD278D2B2DC
:4020C000012A0FD80133DAB2464B1A70444CE17830310120C9B20BF09FFAE3781B01424A82F8A1303E4BDB78DBB20A2B40F0A3803C4B1A780132D2B21A7000213A4B83F8BF
:40210000A110012030210BF087FA94E0344AD278D2B2092A11D80133DAB2324B1A70304CE17830310120C9B20BF076FAE1782E4A92F8A1300B4382F8A130294BDB78DBB207
:402140000A2B78D1274B1A780132D2B21A70012030210BF061FA6EE0214AD278D2B2052A17D80133DAB21F4C227001203A210BF053FA22780132D2B22270194CE1783031AC
:402180000120C9B20BF048FAE3781B01164A82F8A030134BDB78DBB20A2B4CD1114C22780132D2B2227001203A210BF035FA22780132D2B22270012030210BF02DFA002216
:4021C000094B83F8A02036E00C81FF1F2C84FF1F2F83FF1FF485FF1F7888FF1FD685FF1F788CFF1FF185FF1F1889FF1FAD4AD278D2B2092A11D80133DAB2AB4B1A70A94C38
:40220000E17830310120C9B20BF006FAE178A74A92F8A0300B4382F8A030A24BDB78DBB20A2B08D1A04B1A780132D2B21A70012030210BF0F1F99B4BDB78DBB2402B17D108
:402240009B4B1B783BB90120994B1870702106220BF0E2F907E00022954B1A700120612106220BF0D9F901206D2107220BF0D4F98C4BDB78DBB20B2B12D18B4B1A783AB9FF
:40228000012070210BF090F90E228A4B1A7007E0012020210BF0C0F9834A1378013B1370804BDB78DBB20C2B20D17F4B1B78052B1CD17F4B1B7843F002027C4991F8A13045
:4022C00043EA421381F8A1300CF0B2F801280DD139210BF069F94FF4FA7010F01BF9012070210BF061F90E22724B1A70642010F011F90FF0B1FC38BD0FF084FC082842F05F
:402300004382684B1B78DBB2AA2B40F06581654B9B79DBB2C32B40F05F81624BDB79DBB23C2B40F05981604B1A78072A00F22181DFE812F00800310058001F019100C200FD
:402340001F01FA00574BDB78DBB2032B0FD8554CE17830310120C9B20BF05EF9524A137801331370E3781B01504A82F89D304D4BDB78DBB20A2B40F0FC8000224B4B83F8A1
:402380009D20494C0120302122780BF045F9237801332370EDE0434BDB78DBB2092B11D8404CE17830310120C9B20BF035F9E1783E4A92F89D300B4382F89D303A4A1378E5
:4023C00001331370374BDB78DBB20A2B40F0D180354C0120302122780BF01EF9237801332370C6E02F4BDB78DBB2012B17D801202F210BF011F92C4C22780132D2B2227021
:40240000284DE97830310120C9B20BF005F9EB781B01264A82F89E30237801332370214BDB78DBB20A2B40F0A4801F4C01202F2122780BF0F1F822780132D2B22270012004
:4024400030210BF0E9F80022184B83F89E202378013323708DE0134BDB78DBB2092B11D8104CE17830310120C9B20BF0D5F8E1780E4A92F89E300B4382F89E300A4A13784F
:4024800001331370074BDB78DBB20A2B71D1064C0120302122780BF0BFF823780133237067E000BF788CFF1FF185FF1F1889FF1F3283FF1F2F83FF1FA64BDB78DBB2092B27
:4024C00017D801202F210BF0A7F8A34C22780132D2B222709F4DE97830310120C9B20BF09BF8EB781B019D4A82F89F30237801332370984BDB78DBB20A2B3AD1964C012021
:402500002F2122780BF088F822780132D2B22270012030210BF080F80022904B83F89F2023780133237024E08A4BDB78DBB2092B11D8884CE17830310120C9B20BF06CF876
:40254000E178864A92F89F300B4382F89F30824A1378013313707F4BDB78DBB20A2B08D17D4C0120302122780BF056F8237801332370784BDB78DBB20B2B12D1764B1B78EC
:402580003BB9012070210BF00FF80E22744B1A7007E0013BDAB2704B1A70012020210BF03BF86C4BDB78DBB20C2B15D16A4B1B78082B11D10BF06AFF01280DD139210AF0A6
:4025C000F3FF4FF4FA700FF0A5FF012070210AF0EBFF0E22624B1A7064200FF09BFF0FF03BFB38BD0FF00EFB082842F0CD80594B1B78DBB2AA2B40F00D81564B9B79DBB205
:40260000C32B40F00781534BDB79DBB23C2B40F00181504BDB78DBB27E2B06D101202E210AF0C2FF00224E4B1A704B4B1B780C2B61D8484AD278D2B2092A1ED80133DAB20F
:40264000454B1A70474B1B7813B1012B07D00DE0404BD978414B13443031997706E03D4BD9783E4B1344303183F82F10394BD97830310120C9B20BF0F7FD364BDB78DBB25B
:402680000A2B18D1344B1A780132D2B21A70354B1B7813B1012B05D009E0304B13443021997704E02D4B1344302183F82F10012030210BF0D9FD274BDB78DBB2512B1AD1FC
:4026C000254B1B78BBB10133DAB2234B1A70254B1B7813B1012B05D009E0204B13442E21997704E01D4B13442E2183F82F1001202E210BF0B9FD174BDB78DBB20B2B4ED17D
:40270000154B1A78002A42D10E22154B1A70012070210AF049FF2F200C210BF027FF0022114B1A6008E0114AD15C0C4A1A4482F82F1001330C4A13600C4B1A780A4B1B682C
:402740009A42F0D220200F210BF010FF0022064B1A6015E0788CFF1FF185FF1F1889FF1F2F83FF1F3C86FF1F2C84FF1FF885FF1F9A4AD15C9A4A1A4491770133994A1360EC
:40278000964B1A78974B1B689A42F1D207E0012020210BF069FD944A1378013B1370934BDB78DBB20C2B35D10E22914B1A70012070210AF0F9FE8F4B1B7813B1012B11D05E
:4027C00028E0894B1B78864901F81E3F20200BF08FFEF8B9012055210AF0E6FE6422844B1A7017E0804B1B787D4901F82F3F2F200BF07EFE70B9012055210AF0D5FE4FF460
:40280000FA700FF087FE01202E210AF0CDFE0022774B1A7064200FF07DFE0FF01DFA38BD0FF0F0F9082841F0AF87704B1B78DBB2AA2B40F0CC836D4B9B79DBB2C32B40F0D9
:40284000C6836A4BDB79DBB23C2B40F0C083664B1B78172B00F25A82644AD278D2B2092A61D80133DAB2604B1A70624B1B78042B52D8DFE803F0031427394B005E4B19781F
:40288000012904D1594BDB7830335C488354002942D1564BDB78303351498B543CE0564B1978012904D1514BDB78303354488354002931D14D4BD978494B1344303183F84B
:4028C000431029E04C4B1978012904D1474BDB7830334C488354F9B9444BD978404B1344303183F8611017E0434B1978012904D13E4BDB7830334448835469B93B4BD97831
:40290000374B1344303183F87F1005E0374BD9783E4B13443031D972344BD97830310120C9B20BF0A1FC314BDB78DBB20A2B2BD12D4B1A780132D2B21A702E4B1B78042B97
:402940001ED8DFE803F003070D1319003021244B995415E0224B1344302183F843100FE01F4B1344302183F8611009E01C4B1344302183F87F1003E0244B13443021D972AB
:40298000012030210BF070FC184BDB78DBB2672B46D1154B1A780132D2B21A70154B1B78042B39D8DFE803F003070D13340023210B4B995430E00A4B1344232183F843107F
:4029C0002AE0074B1344232183F8611024E0044B1344232183F87F101EE000BFF885FF1F1889FF1F2C84FF1FF185FF1F788CFF1F2F83FF1F3C86FF1F6A8AFF1FC885FF1F34
:402A00002084FF1F088BFF1FD885FF1F7888FF1F984B13442321D972012023210BF024FC954BDB78DBB26A2B2BD1944B1A780132D2B21A70924B1B78042B1ED8DFE803F0EF
:402A400003070D1319002D218E4B995415E08D4B13442D2183F843100FE08A4B13442D2183F8611009E0874B13442D2183F87F1003E0804B13442D21D97201202D210BF0F8
:402A8000F3FB7D4BDB78DBB2662B2BD17B4B1A780132D2B21A707A4B1B78042B1ED8DFE803F003070D1319004021764B995415E0744B1344402183F843100FE0714B134495
:402AC000402183F8611009E06E4B1344402183F87F1003E0674B13444021D972012040210BF0C2FB644BDB78DBB2692B2BD1634B1A780132D2B21A70614B1B78042B1ED84F
:402B0000DFE803F003070D1319002E215D4B995415E05C4B13442E2183F843100FE0594B13442E2183F8611009E0564B13442E2183F87F1003E04F4B13442E21D9720120B6
:402B40002E210BF091FB4C4BDB78DBB2682B4BD14A4B1A780132D2B21A70494B1B78042B3ED8DFE803F0030F1D2B3900464B1B78012B02D12020454988548BBB2021414B58
:402B800099542DE0404B1B78012B02D12020404988542BBB3B4B1344202183F843101FE0394B1B78012B02D120203A498854BBB9344B1344202183F8611011E0324B1B785B
:402BC000012B02D12020344988544BB92D4B1344202183F87F1003E0264B13442021D972012020210BF040FB234BDB78DBB21A2B40F28C80204BDB78DBB2422B00F28680CF
:402C00000022264B1A607CE01B4AD278D2B224491944097A8A4270D118490A780132D2B20A7017490978042961D8DFE801F003123B4B5B0014490878012803D103F1410185
:402C4000124CA154002852D103F141010D4881544DE00D490878012803D103F141010C4CA154002843D10749114403F1410081F843003CE07888FF1F788CFF1FF185FF1F11
:402C80003C86FF1F1889FF1F6A8AFF1FC885FF1F2084FF1F088BFF1FD885FF1F2C84FF1F0C81FF1FA3490878012803D103F14101A14CA154D8B9A149114403F1410081F892
:402CC000610014E09B490878012803D103F141019B4CA15458B99949114403F1410081F87F0004E09749114403F14100C87203F141010120C9B20BF0B7FA934A1368013305
:402D00001360914B1B68192B7FF67EAF8F4BDB78DBB20B2B6DD18E4B1A78002A61D1012070210AF041FC402020210BF01FFC0022854B1A6008E0874AD15C804A1A4482F852
:402D400043100133804A1360824B1A787E4B1B689A42F0D2802020210BF008FC00227A4B1A6008E07B4AD15C744A1A4482F861100133754A1360774B1A78734B1B689A424D
:402D8000F0D2A02020210BF0F1FB00226E4B1A6008E0704AD15C694A1A4482F87F100133694A13606B4B1A78674B1B689A42F0D2002020210BF0DAFB0022634B1A6006E055
:402DC000644AD15C5D4AD15401335F4A1360614B1A785D4B1B689A42F2D20E225E4B1A7007E0012020210BF03FFA594A1378013B1370564BDB78DBB20C2B40F0E880012095
:402E000039210AF0D1FB4FF4FA700FF083FB012070210AF0C9FB0E224F4B1A704F4B1B78042B00F2D480DFE803F0032E5A9FC700404B1B78012B07D14949454B1B780B70E5
:402E400040F26A400BF054FB3A4B1B78002B40F0BE803A493E4B1B780B7000200BF048FB002840F0B480012055210AF09DFB4FF4FA700FF04FFB01202E210AF095FB00223C
:402E8000354B1A70A3E02B4B1B78012B07D135492F4B1B780B7040F275400BF029FB254B1B78002B40F09380294B1B78234901F8433F40200BF01CFB002840F0888001201A
:402EC00055210AF071FB4FF4FA700FF023FB01202E210AF069FB00221F4B1A7077E0154B1B78012B07D11449194B1B780B7040F2DC500BF0FDFA0F4B1B78002B67D1144B2C
:402F00001B780E4901F8613F80200BF0F1FA00285DD1012055210AF047FB4FF4FA700FF0F9FA01202E210AF03FFB00220A4B1A704DE000BF6A8AFF1F088BFF1F1889FF1FAD
:402F4000D885FF1F7888FF1F2C84FF1F788CFF1FF185FF1FF885FF1F2F83FF1F3C86FF1FC885FF1F2084FF1FB34B1B78012B07D1B249B34B1B780B7040F28B400BF0B8FA76
:402F8000AD4B1B781BBBAE4B1B78AE4901F87F3FA0200BF0ADFAD0B9012055210AF004FB4FF4FA700FF0B6FA01202E210AF0FCFA0022A54B1A700AE0A14B1A78A34BDA7201
:402FC000012039210AF0F0FA24229F4B1A7064200FF0A0FA0EF040FE38BD0EF013FE082841F0D2839A4B1B78DBB2AA2B40F0C080974B9B79DBB2C32B40F0BA80944BDB794D
:40300000DBB23C2B40F0B4808D4B1B78062B25D88F4AD278D2B2092A0FD80133DAB2884B1A708B48C178894B13443031D972C17830310120C9B20AF0EFFA854BDB78DBB215
:403040000A2B0BD17E4B1A780132D2B21A707F4B13443021D97201200AF0DEFA7C4BDB78DBB20B2B1BD1764B1A783AB9012070210AF09AFA0E22744B1A7010E001202021D9
:403080000AF0CAFA6E4B1B78704A1A44D27A2C2A02D100216F4A1170013B694A13706C4BDB78DBB20C2B63D1654B1B78032B5FD90622654B1A70012039210AF075FA604B10
:4030C0001A78624BDA72644B187809F043FE00283FD05C4B93F8A320604B1B789A4204D140F2A7105E490BF003FA564B93F8A3205C4B1B789A4204D140F2B31058490BF0BE
:40310000F7F9504B93F8A320574B1B789A4204D140F2AD1052490BF0EBF94A4B93F8A320524B1B789A4204D14FF47A704C490BF0DFF901203C210AF037FA4FF4FA700FF0B9
:40314000E9F9012070210AF02FFA0E223E4B1A700EE0012055210AF027FA4FF4FA700FF0D9F901202E210AF01FFA0022364B1A7064200FF0CFF90EF06FFD38BD0EF042FDA0
:40318000082841F00183324B1B78DBB2AA2B40F086802F4B9B79DBB2C32B40F080802C4BDB79DBB23C2B7AD1294BDB78DBB2802B2FD004D87E2B63D07F2B06D06FE0822B0D
:4031C00056D031D3942B63D069E0012058210AF0EBF901200021732240F2C3130AF042FC01200021CF2240F2C5130AF03BFC01200146292240F2C1130AF034FC0120014622
:403200007B2240F2EE330AF02DFC1C220E4B1A7045E0012006210AF0C7F90022084B1A701D22094B1A703AE001206D210AF0BCF91E22054B1A7032E06A8AFF1FD885FF1FE6
:40324000F185FF1F1889FF1F2F83FF1F7888FF1F788CFF1F3283FF1F048AFF1F6B8AFF1F8388FF1F538AFF1F7688FF1FF085FF1F01208A210AF098F92A22AB4B1A700EE075
:4032800001202E210AF090F90022A74B1A7006E0012070210AF088F90E22A34B1A7064200FF038F90EF0D8FC38BD0EF0ABFC082841F06A829D4B1B78DBB2AA2B65D19B4B5C
:4032C0009B79DBB2C32B60D1984BDB79DBB23C2B5BD1964BDB78DBB2802B1AD004D87E2B44D07F2B06D050E0822B30D020D3942B44D04AE0012006210AF056F900228C4BF1
:403300001A7001228B4B83F8A3201F22864B1A703BE0012006210AF047F90022844B1A700222844B83F8A3201F227F4B1A702CE0012006210AF038F900227D4B1A7003223A
:403340007C4B83F8A3201F22774B1A701DE0012006210AF029F90022754B1A700422754B83F8A3201F22704B1A700EE001202E210AF01AF900226C4B1A7006E001207021DE
:403380000AF012F90E22684B1A7064200FF0C2F80EF062FC38BD0EF035FC082841F0F481624B1B78DBB2AA2B40F0B8805F4B9B79DBB2C32B40F0B2805C4BDB79DBB23C2B74
:4033C00040F0AC80594BDB78DBB2942B06D1012070210AF0E9F80E22534B1A70544B1B78042B36D8514AD278D2B2092A0FD80133DAB24F4B1A704D48C1784F4B134430317C
:40340000D972C17830310120C9B20AF005F9474BDB78DBB20A2B0BD1454B1A780132D2B21A70454B13443021D97201200AF0F4F83E4BDB78DBB2512B0BD13D4B1A78013295
:40344000D2B21A703C4B13442C21D97201200AF0E3F8364BDB78DBB20B2B1BD1344B1A783AB9012070210AF09FF80E222E4B1A7010E0012020210AF0CFF82D4B1B782E4A3F
:403480001A44D27A2C2A02D100212C4A1170013B274A1370254BDB78DBB20C2B3ED1244B1B78052B3AD1244B1B7B353BDBB2022B34D8012039210AF077F81D4B1B781E499D
:4034C00001F80B3F4FF4DD700BF012F8012805D1194B1B7B03F00F03194A137040F25A2018490BF005F8012818D1134A937B03F00F0315490B70137C03F00F03134A13703C
:403500003C210AF051F84FF4FA700FF003F8012070210AF049F80E22034B1A7064200EF0F9FF0EF099FB38BD2F83FF1F788CFF1FF185FF1F1889FF1F7888FF1F3283FF1F18
:40354000D485FF1F8388FF1F1C84FF1F528AFF1F0EF058FB082841F01781A74B1B78DBB2AA2B40F08780A44B9B79DBB2C32B40F08180A14BDB79DBB23C2B7BD19E4BDB7820
:40358000DBB28F2B08D002D87E2B64D072E0902B31D0942B67D06DE09849002381F82D3081F82E304FF4DE702D310AF0A1FF012811D10022924B1A703C2109F0F5FF4FF489
:4035C000FA700EF0A7FF0120702109F0EDFF0E228C4B1A704EE00120552109F0E5FF4FF4FA700EF097FF01202E2109F0DDFF0022844B1A703EE08149012381F82D3081F897
:403600002E304FF4DE702D310AF072FF012812D101247B4B1C7020463C2109F0C5FF4FF4FA700EF077FF0E22764B1A702046702109F0BAFF1EE00120552109F0B5FF4FF405
:40364000FA700EF067FF01202E2109F0ADFF00226C4B1A700EE001202E2109F0A5FF0022684B1A7006E00120702109F09DFF0E22644B1A7064200EF04DFF0EF0EDFA38BD6C
:403680000EF0C0FA082841F07F805B4B1B78DBB2AA2B40F0AA80584B9B79DBB2C32B40F0A480554BDB79DBB23C2B40F09E80564B1B782BBB504AD278D2B2092A0FD8013371
:4036C000DAB2514B1A704C48C178504B13443031D972C17830310120C9B209F09DFF464BDB78DBB20A2B0BD1474B1A780132D2B21A70464B13443021D972012009F08CFFD2
:403700003D4BDB78DBB20B2B1BD13F4B1A783AB901202E2109F048FF00223A4B1A7010E00120202109F078FF374B1B78374A1A44D27A2C2A02D10021354A1170013B324A0B
:4037400013702D4BDB78DBB20C2B4ED12E4B1B78012B4AD10120392109F026FF2A4B1A782A4BDA72254B93F8A330012B08D127490A7B284B1A7040F2C1100B310AF0B8FEB0
:403780001E4B93F8A330022B08D120490A7B224B1A7040F2C3100B310AF0AAFE174B93F8A330032B08D119490A7B1C4B1A7040F2C5100B310AF09CFE104B93F8A330042B16
:4037C00008D112490A7B164B1A7040F2EE300B310AF08EFE4FF4FA700EF09CFE0120702109F0E2FE0E22074B1A7064200EF092FE0EF032FA38BD00BF788CFF1F1889FF1F66
:403800003587FF1F2F83FF1FF185FF1F7888FF1F3283FF1F538AFF1F6B8AFF1F7688FF1FF085FF1F0EF0EEF9082840F0AD87CD4B1B78DBB2AA2B40F00082CA4B9B79DBB2AE
:40384000C32B40F0FA81C74BDB79DBB23C2B40F0F481C44BDB787E3B252B00F2EE81DFE813F0D401EC01EC01EC01EC01EC01A10187014000FD007600260091006701EC01BB
:40388000EC01EC01EC01EC01EC01EC01EC01BB01EC01EC01C7003101AC00EC01EC01EC01EC01EC01EC0116015B00E2004C01AE4901230B704B7040F2C7100AF019FE01288F
:4038C00040F0BB813C2109F06FFE4FF4FA700EF021FE0120702109F067FE0E22A34B1A70ABE1A14901230B7002234B7040F2C7100AF0FEFD012840F0A0813C2109F054FE02
:403900004FF4FA700EF006FE0120702109F04CFE0E22964B1A7090E1934901230B7003234B7040F2C7100AF0E3FD012840F085813C2109F039FE4FF4FA700EF0EBFD0120F8
:40394000702109F031FE0E22884B1A7075E1864901230B7004234B7040F2C7100AF0C8FD012840F06A813C2109F01EFE4FF4FA700EF0D0FD0120702109F016FE0E227B4BB0
:403980001A705AE1784901230B7005234B7040F2C7100AF0ADFD012840F04F813C2109F003FE4FF4FA700EF0B5FD0120702109F0FBFD0E226D4B1A703FE16B4901230B70ED
:4039C00006234B7040F2C7100AF092FD012840F034813C2109F0E8FD4FF4FA700EF09AFD0120702109F0E0FD0E22604B1A7024E15D4901230B7007234B7040F2C7100AF0A7
:403A000077FD012840F019813C2109F0CDFD4FF4FA700EF07FFD0120702109F0C5FD0E22524B1A7009E1504901230B7008234B7040F2C7100AF05CFD012840F0FE803C217C
:403A400009F0B2FD4FF4FA700EF064FD0120702109F0AAFD0E22454B1A70EEE0424901240C7009234B7040F2C7100AF041FD20463C2109F099FD4FF4FA700EF04BFD204629
:403A8000702109F091FD0E22384B1A70D5E0364901230B700A234B7040F2C7100AF028FD012840F0CA803C2109F07EFD4FF4FA700EF030FD0120702109F076FD0E222B4BBE
:403AC0001A70BAE0284901230B700B234B7040F2C7100AF00DFD012840F0AF803C2109F063FD4FF4FA700EF015FD0120702109F05BFD0E221D4B1A709FE01B4901230B70FA
:403B00000C234B7040F2C7100AF0F2FC012840F094803C2109F048FD4FF4FA700EF0FAFC0120702109F040FD0E22104B1A7084E00D4901230B700D234B7040F2C7100AF0BD
:403B4000D7FC012879D13C2109F02EFD4FF4FA700EF0E0FC0120702109F026FD0E22034B1A706AE0788CFF1FE885FF1F2F83FF1FBD4901230B700E234B7040F2C7100AF0C6
:403B8000B7FC012859D13C2109F00EFD4FF4FA700EF0C0FC0120702109F006FD0E22B34B1A704AE0B04901230B700F234B7040F2C7100AF09DFC01283FD13C2109F0F4FC07
:403BC0004FF4FA700EF0A6FC0120702109F0ECFC0E22A64B1A7030E0A34900230B704B7040F2C7100AF084FC012826D13C2109F0DBFC4FF4FA700EF08DFC0120702109F036
:403C0000D3FC0E22994B1A7017E0974900230B704B7040F2C7100AF06BFC012806D1702109F0C2FC0E22914B1A7006E001202E2109F0BAFC00228D4B1A7064200EF06AFC2E
:403C40000EF00AF838BD0DF0DDFF082840F09C85874B1B78DBB2AA2B4ED1854B9B79DBB2C32B49D1824BDB79DBB23C2B44D1804BDB78DBB20A2B2ED101227E4B1A6010E037
:403C80007D4B58787D4B197801227D4B1B780BF029FD4FF4FA700EF03DFC764A136801331360784B1B7803F00F03724A12689342E6D201200C2109F077FC4FF4FA700EF02B
:403CC00029FC0024704BDC7001202E2109F06CFC664B1C7010E001200C2109F065FC4FF4FA700EF017FC0024674BDC7001202E2109F05AFC5D4B1C7064200EF00BFC0DF075
:403D0000ABFF38BD0DF07EFF082840F03D85584B1B78DBB2AA2B5DD1554B9B79DBB2C32B58D1534BDB79DBB23C2B53D1504BDB78DBB2392B10D002D8382B05D04AE07E2B7C
:403D400041D0942B34D045E001202E2109F02CFC0022464B1A703DE001203B2109F024FC454C60780CF062FF60780A210AF048FC60780A210AF044FC60780A210AF040FC4C
:403D800060781D210AF03CFC607856210AF038FC607831210AF034FC4FF4FA700EF0BAFB01202E2109F000FC0022304B1A7011E001202F2109F0F8FB0022344B1A7028223B
:403DC0002A4B1A7006E001202E2109F0EDFB0022264B1A7064200EF09DFB0DF03DFF38BD0DF010FF082840F0CF84214B1B78DBB2AA2B60D11E4B9B79DBB2C32B5BD11C4B4C
:403E0000DB79DBB23C2B56D1194BDB78DBB2912B08D002D87E2B3FD04DE0922B13D0942B42D048E001200A2109F0BEFB0122184B1A700422174B1A700022144B1A7018227E
:403E40000A4B1A7037E001206F2109F0ADFB21220F4B1A7004220F4B1A7000220B4B1A701822024B1A7026E0E885FF1F2F83FF1F788CFF1FF485FF1F7488FF1F7788FF1F65
:403E8000048AFF1F048BFF1F7888FF1FF185FF1F2887FF1F3C86FF1F01202E2109F084FB0022B94B1A7006E00120702109F07CFB0E22B54B1A7064200EF02CFB0DF0CCFE80
:403EC00038BDB24B012013F80B1FB14A12780AF079FE01282CD16E2109F066FB2322AA4B1A70012001460AF0B9FC052810D90A200EF010FB01200AF033F9012021210AF0AD
:403F0000ADFC052840F2408401200AF0A7F838BD0120552109F048FB4FF4FA700EF0FAFA01202E2109F040FB0022974B1A7038BD0120552109F038FB4FF4FA700EF0EAFA1B
:403F400001202E2109F030FB00228F4B1A7038BD0DF058FE082840F017848E4B1B78DBB2AA2B7AD18B4B9B79DBB2C32B75D1894BDB79DBB23C2B70D1864BDB78DBB2392BAE
:403F800008D002D8382B39D067E07E2B3ED0942B5CD062E0804B5A78012A07D17F4901230B704B707E490B7002234B70022A08D17A4B01221A7003215970794B1A700422FC
:403FC0005A7040F2632075490AF092FA012844D140F2652072490AF08BFA01283DD1682109F0E2FA4FF4FA700EF094FA0120702109F0DAFA0E22644B1A702EE02622624B16
:404000001A700120672109F0CFFA26E0654B5B78012B03D10022634B5A7002E00122614B5A7040F2DA305F490AF062FA01203C2109F0BAFA4FF4FA700EF06CFA01202E2107
:4040400009F0B2FA0022504B1A7006E00120702109F0AAFA0E224C4B1A7064200EF05AFA0DF0FAFD38BD0DF0CDFD082840F08C83484B1B78DBB2AA2B40F0C980454B9B7934
:40408000DBB2C32B40F0C380424BDB79DBB23C2B40F0BD803F4BDB78DBB28D2B41D005D87E2B00F0A5808C2B06D0B0E08E2B7BD0942B00F0A580AAE0374B5B78012B07D12A
:4040C000364A0120107002215170354A10705170022B07D1314B0121197004225A70304B19705A7040F263202C490AF001FA012840F08D8040F2652029490AF0F9F901284E
:4041000040F085806A2109F04FFA4FF4FA700EF001FA0E221C4B1A700120702109F044FA75E01D4B5A78012A06D11C4901230B704B701B490B704B70022A07D1174B01215B
:40414000197003225A70164B19705A7040F2632012490AF0CDF9012859D140F2652010490AF0C6F9012852D1692109F01DFA4FF4FA700EF0CFF90120702109F015FA0E22E4
:40418000014B1A7043E000BF2F83FF1F7888FF1F2887FF1F788CFF1F6C88FF1F7488FF1F1489FF1F2C83FF1F96490120087000224A70954B18705A7040F263200AF098F9F0
:4041C000012824D140F265208F490AF091F901281DD16C2109F0E8F94FF4FA700EF09AF90120702109F0E0F90E22884B1A700EE001202E2109F0D8F90022844B1A7006E038
:404200000120702109F0D0F90E22804B1A7064200EF080F90DF020FD38BD0DF0F3FC082840F0B2827A4B1B78DBB2AA2B40F0E380774B9B79DBB2C32B40F0DD80744BDB79BD
:40424000DBB23C2B40F0D780724B1A78032A26D86F4BDB78DBB2092B0ED86D4BD9786E4B1344303183F88E1001202A2109F0D4F9684A137801331370654BDB78DBB20A2B17
:404280000DD1644C2278644B1344302183F88E1001202A2109F0C0F92378013323705C4BDB78DBB20B2B1AD15A4B1B787BB90120552109F079F94FF4FA700EF02BF90120E0
:4042C0002E2109F071F90022504B1A7007E0013BDAB2504B1A700120202109F09DF94C4BDB78DBB20C2B40F086804A4B1A78002A72D0002349490B6049490B6012E0591C05
:404300004848405C444C234493F88E30984204D1424803680133036002E000203F4B18603F4B196010463E4B1B689A42E7D83D4B1A783A4B1B689A420FD10120262109F093
:4043400033F94FF4FA700EF0E5F822222F4B1A700120712109F028F94DE000232F4A13602F4A136010E02F4A1A4492F824102A4A1A4492F88E20914203D128490A68013200
:404380000A600133264A1360254B1B689842EAD8224B1B68042B0FD10120262109F004F94FF4FA700EF0B6F82222184B1A700120712109F0F9F81EE00120272109F0F4F81D
:4043C0004FF4FA700EF0A6F801202E2109F0ECF800220E4B1A700EE00120272109F0E4F84FF42F700EF096F801202E2109F0DCF80022064B1A7064200EF08CF80DF02CFC23
:4044000038BD00BF7488FF1F1489FF1F2F83FF1F788CFF1FF185FF1F7888FF1F3887FF1F2C84FF1F0C81FF1F0DF0ECFB082840F0AB81AB4B1B78DBB2AA2B40F0A980A84B52
:404440009B79DBB2C32B40F0A380A54BDB79DBB23C2B40F09D80A34B1A78032A27D8A04BDB78DBB2092B10D89D48C1789E4B1344303183F88E10C17830310120C9B209F03B
:40448000CBF8984A137801331370954BDB78DBB20A2B0CD1934C2278934B1344302183F88E10012009F0B8F82378013323708C4BDB78DBB20B2B1AD18A4B1B787BB901206A
:4044C000552109F071F84FF4FA700EF023F801202E2109F069F80022844B1A7007E0013BDAB2804B1A700120202109F095F87C4BDB78DBB20C2B4BD17A4B1B78042B47D154
:404500000120392109F050F84FF4FA700EF002F80024764B1C7001203C2109F045F8714B1A78734B1A70734B1C6008E0591C6E48034493F88E006E4B58546E4B19606D4B63
:404540001B689A42F2D840F29F20694909F0D0FF78B90120552109F027F84FF4FA700DF0D9FF01202E2109F01FF800225F4B1A700EE001203C2109F017F84FF4FA700DF051
:40458000C9FF01202E2109F00FF80022574B1A7064200DF0BFFF0DF05FFB38BD0DF032FB082840F0F1804E4B1B78DBB2AA2B5FD14B4B9B79DBB2C32B5AD1494BDB79DBB26C
:4045C0003C2B55D1464BDB78DBB2BC2B08D002D87E2B46D04CE0BD2B1AD0BE2B31D047E0454901240C704C704FF47D7009F080FF2046392108F0D8FF4FF42F700DF08AFFCC
:404600002046702108F0D0FF0E22384B1A702FE0394901240C7002234B704FF47D7009F067FF2046392108F0BFFF4FF42F700DF071FF2046702108F0B7FF0E222B4B1A7044
:4046400016E00120062108F0AFFF01222B4B1A700023244A13702A4A13700522234B1A7006E00120702108F09FFF0E221F4B1A7064200DF04FFF0DF0EFFA38BD0DF0C2FA54
:40468000082840F08180164B1B78DBB2AA2B76D1134B9B79DBB2C32B71D1114BDB79DBB23C2B6CD10E4BDB78763B0D2B67D8DFE803F0074E6666666666665F6666662D3DAA
:4046C0000120302108F070FF00230E4A1370054A137001220C4B1A701822044B1A704EE0788CFF1FF185FF1F7888FF1F2F83FF1F0C81FF1F2C84FF1F6C88FF1F7088FF1F87
:404700003283FF1F3C86FF1F6A8AFF1F0120302108F04AFF01231D4A137000211C4A11701C4A137018221C4B1A7028E00120302108F03AFF0222154B1A700022144B1A7013
:404740000122144B1A701822134B1A7017E00120302108F029FF03220C4B1A7000220C4B1A7001220B4B1A7018220B4B1A7006E001205F2108F018FF1B22074B1A70642029
:404780000DF0C8FE0DF068FA38BD00BF3C86FF1FF185FF1F6A8AFF1F2F83FF1F10B5A34B1B78212B01F24A83DFE813F022009C00F800480B5201CC016102D402480B680391
:4047C00037047A04E70466058F057206480B480B480B8807480B480B480B480B480B480B31080209AF09480B480B270A480BED0A8F4B1B78012B03D18E4B1A788B4B1A70CF
:404800008D4B1B78012B06D18C4B1A788C4B1A7001228C4B1A700DF0F5F9082841F00E83894B1B78DBB2AA2B56D1874B9B79DBB2C32B51D1844BDB79DBB23C2B4CD1824B6B
:40484000DB78DBB2562B02D0572B1FD044E07A4B1B78012B04D1794B1A78794B1A7008E00120632108F0A0FE0123764A1370744A13706F4B1B78012B04D16E4B1A786B4B59
:404880001A7029E00022694B1A7025E00120632108F08AFE02226B4B1A70674B1B78012B04D1664B1A78664B1A7002E00022644B1A705F4B1B78012B04D15E4B1A785B4B57
:4048C0001A7009E00120632108F06EFE02225D4B1A700122554B1A7064200DF01BFE0DF0BBF910BD0DF08EF9082841F0A782564B1B78DBB2AA2B4BD1534B9B79DBB2C32B94
:4049000046D1514BDB79DBB23C2B41D14E4BDB78DBB25C2B0AD004D8452B0FD0592B18D036E07E2B25D0942B2BD031E00120492108F03AFE02223D4B1A7029E00120252119
:4049400008F032FE0022414B1A700F22374B1A701EE001202B2108F027FE4FF42F700DF0D9FD01202E2108F01FFE00222F4B1A700EE001202E2108F017FE00222B4B1A7025
:4049800006E001202E2108F00FFE0022274B1A7064200DF0BFFD0DF05FF910BD0DF032F9082841F04B82284B1B78DBB2AA2B36D1254B9B79DBB2C32B31D1234BDB79DBB20A
:4049C0003C2B2CD1204BDB78DBB25F2B08D002D85E2B0DD023E07E2B12D0942B18D01EE001200B2108F0E0FD0A22104B1A7016E001201D2108F0D8FD0B220C4B1A700EE0E2
:404A000001202E2108F0D0FD0022084B1A7006E00120632108F0C8FD0122044B1A7064200DF078FD0DF018F910BD00BFEC85FF1FC785FF1F3083FF1F508AFF1FEF85FF1F1A
:404A40002F83FF1F1089FF1F788CFF1FF185FF1F0DF0D8F8082841F0F181A94B1B78DBB2AA2B69D1A64B9B79DBB2C32B64D1A44BDB79DBB23C2B5FD1A24AD37823F00303CA
:404A8000D3709F4BDB78DBB23B2B3ED004D80F2B09D0102B1BD04FE07E2B3ED0942B44D0432B49D129E00120062108F07DFD0022954B1A700120242108F0AEFD914AD378A1
:404AC00043F00203D3700522904B1A7034E001200D2108F069FD00228B4B1A708C4B1A700120472108F098FD864AD37843F00103D3700522854B1A701EE00120072108F0A0
:404B000053FD0622814B1A7016E001202E2108F04BFD00227D4B1A700EE001202E2108F043FD0022794B1A7006E001200B2108F03BFD0A22754B1A7064200DF0EBFC0DF049
:404B40008BF810BD0DF05EF8082841F077816C4B1B78DBB2AA2B40F08480694B9B79DBB2C32B7ED1664BDB79DBB23C2B79D1664B1B78684A1278013A93423EDC604AD278E6
:404B8000D2B2092A0FD80133DAB25F4B1A705C48C1785C4B13443031D972C17830310120C9B208F039FD564BDB78DBB20A2B0BD1554B1A780132D2B21A70524B134430212E
:404BC000D972012008F028FD4D4BDB78DBB2512B13D14D4B1B7883B14D4A12786AB90133DAB2494B1A70474B13442C21D972012008F012FD0122464B1A70414BDB78DBB280
:404C00000B2B1BD1404B1A783AB90120052108F0CBFC04223D4B1A7010E00120202108F0FBFC394B1B78374A1A44D27A2C2A02D10021374A1170013B334A1370304BDB782B
:404C4000DBB20C2B0DD1304B1B7853B10120072108F0AAFC2C4B1A782A4BDA7206222B4B1A7064200DF056FC0CF0F6FF10BD0CF0C9FF082820D1224B1B78DBB2AA2B15D1E9
:404C80001F4B9B79DBB2C32B10D11D4BDB79DBB23C2B0BD11A4BDB78DBB27E2B06D101202E2108F081FC0022184B1A7064200DF031FC0CF0D1FF10BD174B187804F074F83C
:404CC000072841F0BB8032200DF024FC124B187804F07EF80146114B18700A4BDB7813F003031FD00C4A10780D4A07F0F1FDC8B901202E2108F058FC0022044B1A7010BD69
:404D0000788CFF1F6C8AFF1FF185FF1FEC85FF1F3283FF1FD485FF1F3483FF1FC085FF1F778AFF1F9F4C207804F052F89E4B1870207840F010000CF01FFE0120082108F014
:404D400033FC0723994A1370994A13700122994B1A7010BD32200DF0DDFB924B187804F023F80638052801F26980DFE810F07000670867087C003B00060064200DF0CAFBAE
:404D8000884B187804F098F801280ED18A4B1B785BB9392108F008FC0022864B1A7014200DF0B8FB0D22814B1A707E4B187804F083F8012841F042807F4B1B78012B41F0AE
:404DC0003D800C2108F0F0FB00247A4B1C704FF4FA700DF09FFB01202E2108F0E5FB734B1C7010BD64200DF095FB6E4B187804F063F801280ED1704B1B785BB9392108F069
:404E0000D3FB00226B4B1A7014200DF083FB0D22664B1A70634B187804F04EF8012841F00D80654B1B78012B41F008800C2108F0BBFB00245F4B1C704FF4FA700DF06AFB5E
:404E400001202E2108F0B0FB584B1C7010BD01202E2108F0A9FB0023564A1370574AD370524A137010BD32200DF054FB01202E2108F09AFB00224D4B1A7010BD0CF0C2FE99
:404E8000082840F0DB874E4B1B78DBB2AA2B40F0BE804B4B9B79DBB2C32B40F0B880484BDB79DBB23C2B40F0B280464B1B78062B65D8434AD278D2B2092A10D80133DAB2A2
:404EC000404B1A703E48C1783C4B1344303183F86510C17830310120C9B208F09DFB384BDB78DBB20A2B0CD1364B1A780132D2B21A70324B1344302183F86510012008F0F2
:404F00008BFB2F4BDB78DBB26A2B0CD12D4B1A780132D2B21A70294B13442D2183F86510012008F079FB264BDB78DBB21A2B26D9234BDB78DBB2422B21D80022224B1A60EC
:404F400019E01F4AD278D2B220491944097A8A420DD11C490A780132D2B20A704133D9B2164B134483F86510012008F055FB164A136801331360144B1B68192BE1D9104B29
:404F8000DB78DBB20B2B2BD10E4B1A7802BB01202E2108F009FB0023084A82F86530034A13701DE03483FF1FC085FF1FEC85FF1F3083FF1FC785FF1F8083FF1F6C8AFF1F43
:404FC000788CFF1FF185FF1F2C84FF1F0C81FF1F0120202108F020FBA14A1378013B1370A04BDB78DBB20C2B11D19D4B1B7873B10120052108F0D8FA9B4B994A127883F876
:405000006520012283F883200422984B1A7064200DF080FA0CF020FE10BD0CF0F3FD082840F00C878F4B1B78DBB2AA2B32D18D4B9B79DBB2C32B2DD18A4BDB79DBB23C2B02
:4050400028D1884BDB78DBB2392B04D07E2B1AD0382B1FD10CE001200A2108F0A5FA00237F4A1370824A13700922804B1A7011E00120052108F098FA01227D4B1A700422FC
:405080007A4B1A7006E001202E2108F08DFA0022764B1A7064200DF03DFA0CF0DDFD10BD0320012109F0DAFB052840D90A200DF031FA0320212109F0D1FB052837D90320CF
:4050C00009F0C2FA012832D133200CF0E3FD0120332109F01DFB50B30022664B1A600AE0012009F07FFB604B1C4484F82900614A1368013313605F4B1C68072CF0D9012084
:40510000132108F051FA584CE37843F00403E3704FF4FA700DF0FEF901200E2108F044FA00234F4A137023710C22504B1A700CF069FD082840F082864A4B1B78DBB2AA2BCB
:4051400015D1484B9B79DBB2C32B10D1454BDB79DBB23C2B0BD1434BDB78DBB23B2B06D10120492108F020FA0222404B1A7064200DF0D0F90CF070FD10BD0CF043FD082825
:4051800040F05C86374B1B78DBB2AA2B62D1354B9B79DBB2C32B5DD1324BDB79DBB23C2B58D12F4B1B78052B25D82E4AD278D2B2092A0FD80133DAB2294B1A702948C17806
:4051C000294B134430311971C17830310120C9B208F022FA234BDB78DBB20A2B0BD1204B1A780132D2B21A701F4B134430211971012008F011FA1B4BDB78DBB20B2B12D1F3
:40520000174B1A783AB90120052108F0CDF90422164B1A7007E00120202108F0FDF9104A1378013B13700F4BDB78DBB20C2B11D10B4B1B7873B10C4B5B79302B0AD00120B5
:40524000052108F0B1F9064B1A78074B1A710422064B1A7064200DF05DF90CF0FDFC10BDF185FF1F788CFF1F6C8AFF1FEC85FF1F8083FF1FF485FF1F974B5878974B1978D6
:405280000022974B1B780AF02DFA964B5B788BB901200C2108F088F94FF42F700DF03AF90024914BDC7001202E2108F07DF98F4B1C7010BD0120312108F076F900228C4B35
:4052C0001A702122894B1A7010BD0CF09BFC082840F0B485874B1B78DBB2AA2B40F0D280844B9B79DBB2C32B40F0CC80814BDB79DBB23C2B40F0C6807E4BDB78583B3E2BC5
:4053000000F2C080DFE803F020BE5464BE30BEBEBEBEBEBEBE7FBEBEBEBEBEBEBEBEBEBE9FBEBEBEBEBEBEBEBEBEBEBEBEBEAFBEBEBEBEBEBEBEBEBEBEBEBEBEBEBEBEBE4E
:40534000BEBEBE8FB7BE740001202B2108F02CF94FF42F700DF0DEF80120702108F024F90E22624B1A708DE001205C2108F01CF901200021D62240F2AD1308F011FB0120A5
:405380000021892240F2A71308F00AFB01200146242240F2B31308F003FB0120014678224FF47A7308F0FCFA1322504B1A7069E001202B2108F0F8F84FF42F700DF0AAF803
:4053C0000120702108F0F0F80E22484B1A7059E001202B2108F0E8F84FF42F700DF09AF80120702108F0E0F80E22404B1A7049E001205F2108F0D8F800223F4B1A701B2213
:405400003A4B1A703EE001202B2108F0CDF84FF42F700DF07FF80120702108F0C5F80E22324B1A702EE001202B2108F0BDF84FF42F700DF06FF80120702108F0B5F80E222C
:405440002A4B1A701EE001202B2108F0ADF84FF42F700DF05FF80120702108F0A5F80E22224B1A700EE001202E2108F09DF800221E4B1A7006E001202E2108F095F8002284
:405480001A4B1A7064200DF045F80CF0E5FB10BD0CF0B8FB082840F0D184164B1B78DBB2AA2B40F0CB84134B9B79DBB2C32B40F0C584104BDB79DBB23C2B40F0BF840D4B89
:4054C000DB78DBB27E2B19D10120312108F06CF80022064B1A701DE07488FF1FC085FF1F3483FF1F2C83FF1F6C8AFF1FEC85FF1F1189FF1F788CFF1FF185FF1FA34BDB78FF
:40550000DBB2942B06D10120632108F04DF801229F4B1A709F4B1A78072A26D89B4BDB78DBB2092B0ED8994BD9789B4B1344303183F88E1001202A2108F06EF8954A137824
:4055400001331370914BDB78DBB20A2B0DD1914C2278914B1344302183F88E1001202A2108F05AF8237801332370884BDB78DBB20B2B1AD1874B1B787BB90120392108F099
:4055800013F84FF4FA700CF0C5FF01202E2108F00BF80022814B1A7007E0013BDAB27D4B1A700120202108F037F8784BDB78DBB20C2B7DD1774B1978002979D00023784A34
:4055C0001360784A136015E0581C774A024492F8D720714C234493F88E30303B9A4204D16F4A13680133136002E000226C4B1A606C4B186008466B4B1B689942E4D86A4B77
:4056000093F8D720664B1B689A420FD10120262107F0CAFF4FF4FA700CF07CFF0120702107F0C2FF0E225D4B1A7041E000235C4A13605C4A136010E05C4A1A4492F82410B8
:40564000554A1A4492F88E20914203D154490A6801320A600133534A1360524B1B689842EAD84F4B1B68082B13D10120262107F09BFF4FF4FA700CF04DFF01205D2107F0EA
:4056800093FF0120702107F08FFF0E22434B1A700EE00120272107F087FF4FF4FA700CF039FF01202E2107F07FFF00223B4B1A7064200CF02FFF0CF0CFFA10BD0CF0A2FA35
:4056C000082840F0BB83314B1B78DBB2AA2B40F098802E4B9B79DBB2C32B40F092802B4BDB79DBB23C2B40F08C80284BDB787E3B162B00F28680DFE803F0750C20346184E3
:40570000848484848484848484848484848484847D000120062107F047FF00221D4B1A70234B1978204B83F8A3100120242107F073FF1A22194B1A7063E00120062107F000
:4057400033FF0022134B1A701A4B1978164B83F8A3100120242107F05FFF1A220F4B1A704FE00120062107F01FFF0022094B1A70114B19780C4B83F8A3100120242107F032
:405780004BFF1A22054B1A703BE000BF788CFF1F2F83FF1FF185FF1F6C8AFF1FEC85FF1F3887FF1F2C84FF1F1889FF1F0C81FF1F3287FF1F3787FF1F1689FF1F01200621B9
:4057C00007F0F2FE0022AA4B1A70AA4B1978AA4B83F8A3100120242107F01EFF1A22A74B1A700EE001202E2107F0DEFE0022A34B1A7006E00120702107F0D6FE0E229F4BFE
:405800001A7064200CF086FE0CF026FA10BD0CF0F9F9082840F01283994B1B78DBB2AA2B40F0C080964B9B79DBB2C32B40F0BA80934BDB79DBB23C2B40F0B4808C4B1B78F7
:40584000062B25D88E4AD278D2B2092A0FD80133DAB2874B1A708A48C1788A4B13443031D972C17830310120C9B207F0D5FE844BDB78DBB20A2B0BD17D4B1A780132D2B26A
:405880001A70804B13443021D972012007F0C4FE7B4BDB78DBB20B2B1BD1754B1A783AB90120702107F080FE0E22744B1A7010E00120202107F0B0FE6D4B1B78714A1A44BE
:4058C000D27A2C2A02D100216F4A1170013B684A13706B4BDB78DBB20C2B63D1644B1B78032B5FD90622654B1A700120392107F05BFE5F4B1A78634BDA72644B187807F025
:405900008BFB00283FD05C4B93F8A320604B1B789A4204D140F2A7105E4908F0E9FD564B93F8A3205C4B1B789A4204D140F2B310584908F0DDFD504B93F8A320574B1B78F8
:405940009A4204D140F2AD10524908F0D1FD4A4B93F8A320474B1B789A4204D14FF47A704C4908F0C5FD01203C2107F01DFE4FF4FA700CF0CFFD0120702107F015FE0E2200
:405980003E4B1A700EE00120552107F00DFE4FF42F700CF0BFFD01202E2107F005FE0022364B1A7064200CF0B5FD0CF055F910BD0CF028F9082840F04182314B1B78DBB2F7
:4059C000AA2B40F09C802E4B9B79DBB2C32B40F096802B4BDB79DBB23C2B40F09080284BDB787E3B162B00F28A80DFE803F0790C3059698888888888888888888888888865
:405A00008888888881000120582107F0CDFD0120002173224FF41F7308F024F801200021CF2240F27E2308F01DF801200146292240F27A2308F016F8012001467B224FF4C7
:405A40007C7308F00FF81C220C4B1A7057E001202B2107F0A9FD4FF42F700CF05BFD0120702107F0A1FD0E22044B1A7047E000BFF185FF1F3487FF1F1889FF1FEC85FF1FB1
:405A8000788CFF1F9086FF1F3283FF1F3483FF1F3287FF1F9B86FF1F1689FF1F3787FF1F01202B2107F080FD4FF42F700CF032FD0120702107F078FD0E22784B1A701EE0B2
:405AC00001202B2107F070FD4FF42F700CF022FD0120702107F068FD0E22704B1A700EE001202E2107F060FD00226C4B1A7006E00120702107F058FD0E22684B1A7064206B
:405B00000CF008FD0CF0A8F810BD0CF07BF8082840F09481624B1B78DBB2AA2B67D1604B9B79DBB2C32B62D15D4BDB79DBB23C2B5DD15B4BDB787E3B162B58D8DFE803F0D5
:405B4000480C1B2A39575757575757575757575757575757575750000120062107F024FD0022504B1A7001224F4B83F8A3201F224A4B1A703BE00120062107F015FD0022AC
:405B8000484B1A700222484B83F8A3201F22434B1A702CE00120062107F006FD0022414B1A700322404B83F8A3201F223B4B1A701DE00120062107F0F7FC0022394B1A7056
:405BC0000422394B83F8A3201F22344B1A700EE001202E2107F0E8FC0022304B1A7006E00120702107F0E0FC0E222C4B1A7064200CF090FC0CF030F810BD0CF003F8082853
:405C000040F01C81264B1B78DBB2AA2B40F0B580234B9B79DBB2C32B40F0AF80204BDB79DBB23C2B40F0A9801E4B1B782BBB1C4AD278D2B2092A0FD80133DAB2194B1A7086
:405C40001748C178194B13443031D972C17830310120C9B207F0E0FC114BDB78DBB20A2B0BD1104B1A780132D2B21A700F4B13443021D972012007F0CFFC094BDB78DBB23D
:405C80000B2B26D1074B1A7892B901202E2107F08BFC0022014B1A701BE000BFEC85FF1F788CFF1FF185FF1F1889FF1F6C8AFF1F0120202107F0B0FC614B1B78614A1A4483
:405CC000D27A2C2A02D100215F4A1170013B5C4A13705E4BDB78DBB20C2B4ED1584B1B78012B4AD10120392107F05EFC544B1A78544BDA72564B93F8A330022B08D151499C
:405D00000A7B544B1A704FF41F700B3108F0F0FB4F4B93F8A330012B08D14A490A7B4E4B1A7040F27A200B3108F0E2FB484B93F8A330032B08D143490A7B484B1A7040F257
:405D40007E200B3108F0D4FB414B93F8A330042B08D13C490A7B424B1A704FF47C700B3108F0C6FB4FF4FA700CF0D4FB0120702107F01AFC0E223B4B1A7064200CF0CAFB8F
:405D80000BF06AFF10BD0BF03DFF082856D12F4B1B78DBB2AA2B4CD12C4B9B79DBB2C32B47D12A4BDB79DBB23C2B42D1274BDB78DBB20A2B2ED101222B4B1A6010E02B4BAB
:405DC00058782B4B197801222A4B1B7809F08AFC4FF4FA700CF09EFB234A136801331360254B1B7803F00F031F4A12689342E6D201200C2107F0D8FB4FF42F700CF08AFB5E
:405E000000241E4BDC7001202E2107F0CDFB154B1C700EE001200C2107F0C6FB4FF42F700CF078FB01202E2107F0BEFB00220D4B1A7064200CF06EFB0BF00EFF10BD00BF88
:405E4000F185FF1F6C8AFF1F3283FF1F788CFF1F1889FF1F3287FF1F1689FF1F3787FF1F3487FF1FEC85FF1FF485FF1F7488FF1FC085FF1F3483FF1F048BFF1F7888FF1F3A
:405E800010B59F4B1B78212B01F24A83DFE813F022009500F100480B4C01C6015F02CE02480B660336047904E604690592058606480B480B480B8A07480B480B480B480BC6
:405EC000480B480B2F080009AD09480B480B250A480BEB0A8B4B1B78012B03D18A4B1A78874B1A70894B1B78012B06D1884B1A78884B1A700422884B1A700BF075FF08286F
:405F000041F00E83854B1B78DBB2AA2B4FD1834B9B79DBB2C32B4AD1804BDB79DBB23C2B45D17E4BDB78DBB2562B21D0572B3ED1744B1B78012B04D1734B1A78704B1A7085
:405F400009E00220632107F02FFB0322724B1A7001226B4B1A706D4B1B78012B04D16C4B1A786C4B1A7022E000226A4B1A701EE06B4B1B78012B04D1634B1A78604B1A70AC
:405F800002E000225E4B1A70604B1B78012B04D15F4B1A785F4B1A7009E00220632107F003FB04225C4B1A7001225A4B1A7064200CF0B0FA0BF042FF10BD0BF015FF08285C
:405FC00041F0AE82554B1B78DBB2AA2B4BD1534B9B79DBB2C32B46D1504BDB79DBB23C2B41D14E4BDB78DBB25C2B0AD004D8452B0FD0592B18D036E07E2B25D0942B2BD077
:4060000031E00220492107F0CFFA02223C4B1A7029E00220252107F0C7FA0022414B1A700F22374B1A701EE002202B2107F0BCFA4FF4FA700CF06EFA02202E2107F0B4FAF0
:4060400000222F4B1A700EE002202E2107F0ACFA00222B4B1A7006E002202E2107F0A4FA0022274B1A7064200CF054FA0BF0E6FE10BD0BF0B9FE082841F05282274B1B786C
:40608000DBB2AA2B36D1254B9B79DBB2C32B31D1224BDB79DBB23C2B2CD1204BDB78DBB25F2B08D002D85E2B0DD023E07E2B12D0942B18D01EE002200B2107F075FA0A22C4
:4060C0000F4B1A7016E002201D2107F06DFA0B220B4B1A700EE002202E2107F065FA0022074B1A7006E00220632107F05DFA0122034B1A7064200CF00DFA0BF09FFE10BD87
:40610000C485FF1F3387FF1FED85FF1F3183FF1F6988FF1F3A86FF1FEA85FF1F8C8CFF1F508AFF1F1189FF1F0BF05EFE082841F0F781994B1B78DBB2AA2B69D1964B9B7926
:40614000DBB2C32B64D1944BDB79DBB23C2B5FD1924AD37823F00303D3708F4BDB78DBB23B2B3ED004D80F2B09D0102B1BD04FE07E2B3ED0942B44D0432B49D129E00220E6
:40618000062107F011FA0022854B1A700220242107F042FA814AD37843F00203D3700522804B1A7034E002200D2107F0FDF900227B4B1A707C4B1A700220472107F02CFAD8
:4061C000764AD37843F00103D3700522754B1A701EE00220072107F0E7F90622714B1A7016E002202E2107F0DFF900226D4B1A700EE002202E2107F0D7F90022694B1A70FC
:4062000006E002200B2107F0CFF90A22654B1A7064200CF07FF90BF011FE10BD0BF0E4FD082841F07D815C4B1B78DBB2AA2B40F08880594B9B79DBB2C32B40F08280564B21
:40624000DB79DBB23C2B7CD1554B1B78574A1278013A93423EDC504AD278D2B2092A0FD80133DAB24E4B1A704B48C1784B4B13443031D972C17830310220C9B207F0CCF944
:40628000454BDB78DBB20A2B0BD1454B1A780132D2B21A70414B13443021D972022007F0BBF93D4BDB78DBB2512B13D13C4B1B7883B13D4A12786AB90133DAB2384B1A7097
:4062C000364B13442C21D972022007F0A5F90122354B1A70304BDB78DBB20B2B1BD1304B1A783AB90220052107F05EF904222D4B1A7010E00220202107F08EF9284B1B7838
:40630000264A1A44D27A2C2A02D10021264A1170013B234A1370204BDB78DBB20C2B10D11F4B1B786BB1224B1B7853B90220072107F03AF91A4B1A78184BDA720622194BAE
:406340001A7064200CF0E6F80BF078FD10BD0BF04BFD08282ED1104B1B78DBB2AA2B15D10D4B9B79DBB2C32B10D10B4BDB79DBB23C2B0BD1084BDB78DBB27E2B06D1022039
:406380002E2107F011F90022064B1A7064200CF0C1F80BF053FD10BD8C8CFF1F9086FF1F1189FF1FC485FF1FF285FF1FD485FF1F7088FF1F9B4B187802F0F6FC072841F0DA
:4063C000AF8032200CF0A6F8964B187802F000FD0146954B1870954BDB7813F003030DD0904A1078924A06F073FA38B902202E2107F0DAF800228F4B1A7010BD894C2078CE
:4064000002F0E6FC884B1870207840F010000BF0B3FA0220082107F0C7F80723854A1370854A13700122854B1A7010BD32200CF071F87C4B187802F0B7FC0638052801F283
:406440006F80DFE810F074006D086D0880003D00060064200CF05EF8724B187802F02CFD01280FD1764B1B7863B90220392107F09BF80022714B1A7014200CF04BF80D227E
:406480006C4B1A70674B187802F016FD012841F047806B4B1B78012B41F0428002200C2107F082F80024654B1C704FF4FA700CF031F802202E2107F077F85E4B1C7010BD00
:4064C00064200CF027F8574B187802F0F5FC01280FD15B4B1B7863B90220392107F064F80022564B1A7014200CF014F80D22514B1A704C4B187802F0DFFC012841F01080FF
:406500004F4B1B78012B41F00B8002200C2107F04BF80024494B1C704FF4FA700BF0FAFF02202E2107F040F8424B1C7010BD02202E2107F039F80023404A13703B4AD370C1
:406540003C4A137010BD32200BF0E4FF02202E2107F02AF80022374B1A7010BD0BF044FC082840F0DD87374B1B78DBB2AA2B40F0BF80344B9B79DBB2C32B40F0B980314BB8
:40658000DB79DBB23C2B40F0B3802F4B1B78062B7CD82C4AD278D2B2092A10D80133DAB2294B1A702748C178204B1344303183F86510C17830310220C9B207F02DF8214B07
:4065C000DB78DBB20A2B0CD11F4B1A780132D2B21A70164B1344302183F86510022007F01BF8184BDB78DBB26A2B0CD1164B1A780132D2B21A700D4B13442D2183F8651071
:40660000022007F009F80F4BDB78DBB21A2B3DD90C4BDB78DBB2422B38D800220B4B1A6030E000BF4086FF1F6F88FF1F9086FF1F9B86FF1FC485FF1FED85FF1F3387FF1FFB
:40664000D285FF1F8C8CFF1F1189FF1F2C84FF1FA94AD278D2B2A9491944097A8A420DD1A7490A780132D2B20A704133D9B2A54B134483F86510022006F0CEFFA24A136887
:4066800001331360A04B1B68192BE1D99A4BDB78DBB20B2B15D19A4B1A7852B902202E2106F082FF0023974A82F86530974A137007E00220202106F0AFFF914A1378013B75
:4066C00013708D4BDB78DBB20C2B11D18C4B1B7873B10220052106F067FF8A4B884A127883F86520012283F883200422874B1A7064200BF00FFF0BF0A1FB10BD0BF074FBC5
:40670000082840F00D877C4B1B78DBB2AA2B32D1794B9B79DBB2C32B2DD1774BDB79DBB23C2B28D1744BDB78DBB2392B04D07E2B1AD0382B1FD10CE002200A2106F034FF33
:4067400000236F4A1370724A137009226F4B1A7011E00220052106F027FF01226C4B1A7004226A4B1A7006E002202E2106F01CFF0022664B1A7064200BF0CCFE0BF05EFB8C
:4067800010BD0220012108F069F8052840D90A200BF0C0FE0220212108F060F8052837D9022007F051FF012832D133200BF064FB0220332107F0ACFF50B30022554B1A60BC
:4067C0000AE0022008F00EF84E4B1C4484F82900504A1368013313604E4B1C68072CF0D90220132106F0E0FE464CE37843F00403E3704FF4FA700BF08DFE02200E2106F0FE
:40680000D3FE00233E4A137023710C223F4B1A700BF0EAFA082840F08386374B1B78DBB2AA2B15D1344B9B79DBB2C32B10D1324BDB79DBB23C2B0BD12F4BDB78DBB23B2B8E
:4068400006D10220492106F0AFFE02222F4B1A7064200BF05FFE0BF0F1FA10BD0BF0C4FA082840F05D86244B1B78DBB2AA2B72D1214B9B79DBB2C32B6DD11F4BDB79DBB234
:406880003C2B68D11E4B1B78052B25D81A4AD278D2B2092A0FD80133DAB2194B1A701648C178184B134430311971C17830310220C9B206F0B1FE104BDB78DBB20A2B0BD1B1
:4068C0000F4B1A780132D2B21A700E4B134430211971022006F0A0FE074BDB78DBB20B2B22D1074B1A78BAB90220052106F05CFE0422064B1A7017E08C8CFF1F0C81FF1F07
:406900001189FF1F9086FF1F2C84FF1FC485FF1FD285FF1FF485FF1F0220202106F07CFE964A1378013B1370954BDB78DBB20C2B11D1924B1B7873B1924B5B79302B0AD0DA
:406940000220052106F030FE8C4B1A788D4B1A7104228D4B1A7064200BF0DCFD0BF06EFA10BD8A4B58788A4B19780022894B1B7808F0B8FE884B5B788BB902200C2106F05E
:4069800013FE4FF416700BF0C5FD00247D4BDC7002202E2106F008FE7B4B1C7010BD0220312106F001FE0022744B1A702122764B1A7010BD0BF018FA082840F0B185704BEF
:4069C0001B78DBB2AA2B40F0D2806D4B9B79DBB2C32B40F0CC806A4BDB79DBB23C2B40F0C680674BDB78583B3E2B00F2C080DFE803F020BE5464BE30BEBEBEBEBEBEBE7FC8
:406A0000BEBEBEBEBEBEBEBEBEBE9FBEBEBEBEBEBEBEBEBEBEBEBEBEAFBEBEBEBEBEBEBEBEBEBEBEBEBEBEBEBEBEBEBEBE8FB7BE740002202B2106F0B7FD4FF4FA700BF0E6
:406A400069FD0220702106F0AFFD0E224E4B1A708DE002205C2106F0A7FD02200021D62240F2AD1306F09CFF02200021892240F2A71306F095FF02200121242240F2B313BE
:406A800006F08EFF0220012178224FF47A7306F087FF13223C4B1A7069E002202B2106F083FD4FF4FA700BF035FD0220702106F07BFD0E22344B1A7059E002202B2106F085
:406AC00073FD4FF4FA700BF025FD0220702106F06BFD0E222C4B1A7049E002205F2106F063FD0022254B1A701B22274B1A703EE002202B2106F058FD4FF4FA700BF00AFD1E
:406B00000220702106F050FD0E221F4B1A702EE002202B2106F048FD4FF4FA700BF0FAFC0220702106F040FD0E22174B1A701EE002202B2106F038FD4FF4FA700BF0EAFCBF
:406B40000220702106F030FD0E220F4B1A700EE002202E2106F028FD00220B4B1A7006E002202E2106F020FD0022074B1A7064200BF0D0FC0BF062F910BD00BF1189FF1F62
:406B80008C8CFF1F9086FF1FC485FF1F1489FF1F6F88FF1F4086FF1F688AFF1F0BF024F9082840F0BD84A94B1B78DBB2AA2B40F0B784A64B9B79DBB2C32B40F0B184A34B60
:406BC000DB79DBB23C2B40F0AB84A04BDB78DBB27E2B07D10220312106F0E6FC00229C4B1A700BE0994BDB78DBB2942B06D10220632106F0D9FC0122954B1A70954B1A780E
:406C0000072A26D8914BDB78DBB2092B0ED88F4BD978914B1344303183F88E1002202A2106F0FAFC8B4A137801331370874BDB78DBB20A2B0DD1874C2278874B134430215B
:406C400083F88E1002202A2106F0E6FC2378013323707E4BDB78DBB20B2B1AD17D4B1B787BB90220392106F09FFC4FF4FA700BF051FC02202E2106F097FC0022744B1A7094
:406C800007E0013BDAB2734B1A700220202106F0C3FC6E4BDB78DBB20C2B7DD16D4B1978002979D000236D4A13606D4A136015E0581C6C4A024492F8D720674C234493F8EA
:406CC0008E30303B9A4204D1644A13680133136002E00022614B1A60614B18600846604B1B689942E4D85F4B93F8D7205B4B1B689A420FD10220262106F056FC4FF4FA701A
:406D00000BF008FC0220702106F04EFC0E22504B1A7041E00023514A1360514A136010E0514A1A4492F824104B4A1A4492F88E20914203D149490A6801320A600133484ACC
:406D40001360474B1B689842EAD8444B1B68082B13D10220262106F027FC4FF4FA700BF0D9FB01205D2106F01FFC0220702106F01BFC0E22364B1A700EE00220272106F0CF
:406D800013FC4FF4FA700BF0C5FB02202E2106F00BFC00222E4B1A7064200BF0BBFB0BF04DF810BD0BF020F8082840F0B983274B1B78DBB2AA2B40F09480244B9B79DBB21D
:406DC000C32B40F08E80214BDB79DBB23C2B40F088801E4BDB787E3B162B00F28280DFE803F0710C20495D808080808080808080808080808080808079000220062106F09C
:406E0000D3FB0022134B1A70184B1978154B83F8A3100220242106F0FFFB1A220C4B1A705FE00220062106F0BFFB0022094B1A700F4B19780B4B83F8A3100220242106F080
:406E4000EBFB1A22024B1A704BE000BF8C8CFF1FC485FF1F1189FF1F9086FF1F3887FF1F2C84FF1F1889FF1F0C81FF1F3D86FF1F2E83FF1F0220062106F096FB0022AC4BF8
:406E80001A70AC4B1978AC4B83F8A3100220242106F0C2FB1A22A94B1A7022E00220062106F082FB0022A24B1A70A54B1978A24B83F8A3100220242106F0AEFB1A229F4BA8
:406EC0001A700EE002202E2106F06EFB00229B4B1A7006E00220702106F066FB0E22974B1A7064200BF016FB0AF0A8FF10BD0AF07BFF082840F01483924B1B78DBB2AA2BF1
:406F000040F0C0808F4B9B79DBB2C32B40F0BA808C4BDB79DBB23C2B40F0B480844B1B78062B25D8874AD278D2B2092A0FD80133DAB27F4B1A708348C178834B13443031A4
:406F4000D972C17830310220C9B206F065FB7D4BDB78DBB20A2B0BD1754B1A780132D2B21A70794B13443021D972022006F054FB744BDB78DBB20B2B1BD16D4B1A783AB9D1
:406F80000220702106F010FB0E226C4B1A7010E00220202106F040FB654B1B786A4A1A44D27A2C2A02D10021684A1170013B604A1370644BDB78DBB20C2B63D15C4B1B786D
:406FC000032B5FD906225D4B1A700220392106F0EBFA574B1A785C4BDA725D4B187805F0B9FE00283FD0544B93F8A320594B1B789A4204D140F2A710574907F079FA4E4BD7
:4070000093F8A3204B4B1B789A4204D140F2B310514907F06DFA484B93F8A3204F4B1B789A4204D140F2AD104B4907F061FA424B93F8A320424B1B789A4204D14FF47A70CE
:40704000454907F055FA02203C2106F0ADFA4FF4FA700BF05FFA0220702106F0A5FA0E22364B1A700EE00220552106F09DFA4FF4FA700BF04FFA02202E2106F095FA002280
:407080002E4B1A7064200BF045FA0AF0D7FE10BD0AF0AAFE082840F043822A4B1B78DBB2AA2B40F09C80274B9B79DBB2C32B40F09680244BDB79DBB23C2B40F09080214B4C
:4070C000DB787E3B162B00F28A80DFE803F0790C495969888888888888888888888888888888888881000220582106F05DFA0220002173224FF4936306F0B4FC0220002192
:40710000CF2240F29A4306F0ADFC02200121292240F29C4306F0A6FC022001217B2240F29E4306F09FFC1C22044B1A7057E000BF1189FF1FD385FF1F1889FF1FC485FF1F92
:40714000C685FF1F8C8CFF1F7888FF1FF285FF1F4086FF1F3D86FF1F8388FF1F2E83FF1F02202B2106F020FA4FF4FA700BF0D2F90220702106F018FA0E22804B1A702EE0C1
:4071800002202B2106F010FA4FF4FA700BF0C2F90220702106F008FA0E22784B1A701EE002202B2106F000FA4FF4FA700BF0B2F90220702106F0F8F90E22704B1A700EE02A
:4071C00002202E2106F0F0F900226C4B1A7006E00220702106F0E8F90E22684B1A7064200BF098F90AF02AFE10BD0AF0FDFD082840F09681624B1B78DBB2AA2B67D1604B10
:407200009B79DBB2C32B62D15D4BDB79DBB23C2B5DD15B4BDB787E3B162B58D8DFE803F0482A0C1B39575757575757575757575757575757575750000220062106F0B4F9BC
