:400000000080002011000000A5150100A515010008B5044B1A6803F53F5302331A6011F0C3FA00BFFA46004010B5054C237833B9044B13B10448AFF300800123237010BD33
:40004000F082FF1F0000000050270100084B10B51BB108480849AFF300800848036803B910BD074B002BFBD0BDE81040184700BF0000000050270100F482FF1F0881FF1F7F
:400080000000000010B562B611F076FC11F096FD11F034FE11F024FF11F07CFC12F03EF8052012F0CFFA0024564B1C70564B1C70564B1C70564B1C70204620210EF0ECFA01
:4000C000544B1C6006E0544AD15C544AD1540133504A1360504B1A784E4B1B689A42F2D220200F210EF0D8FA00224A4B1A6007E0494AD15C494A1A4491770133454A136000
:40010000454B1A78434B1B689A42F1D22F200C210EF0C2FA00223F4B1A6008E03E4AD15C3E4A1A4482F82F1001333A4A13603A4B1A78384B1B689A42F0D2402020210EF0D0
:40014000ABFA0022334B1A6008E0334AD15C334A1A4482F8431001332E4A13602E4B1A782C4B1B689A42F0D2602009210EF094FA294B1878431EDBB2082B14D80022254BEB
:400180001A6008E00133244AD15C244A1A4482F8D710204A13601F4B1B68072BF2D91F4B83F8D7000EE001221A4B1A6006E01B4A1A4482F8D7300133164A1360154B1B685A
:4001C000082BF4D9802020210EF066FA0022114B1A6008E0104AD15C104A1A4482F8611001330C4A13600C4B1A780A4B1B689A42F0D2A02020210EF04FFA0022054B1A6026
:4002000017E000BF7088FF1FD285FF1F8083FF1F6A8AFF1F2C84FF1FF885FF1F1889FF1F964AD15C964A1A4482F87F100133954A1360924B1A78934B1B689A42F0D24FF497
:40024000DD7002210EF028FA8C4B1B78052B05D18A4B5B7803F00F038B4A137040F2C31002210EF019FA854B1B781BB1834B5A78864B1A7040F2C51002210EF00DFA7F4B1D
:400280001B781BB17D4B5A78814B1A7040F2C11002210EF001FA794B1B781BB1774B5A787C4B1A7040F2EE3002210EF0F5F9734B1B781BB1714B5A78774B1A704FF41F70A0
:4002C00002210EF0E9F96D4B1B781BB16B4B5A78724B1A7040F27A2002210EF0DDF9674B1B781BB1654B5A786D4B1A7040F27E2002210EF0D1F9614B1B781BB15F4B5A783B
:40030000684B1A704FF47C7002210EF0C5F95B4B1B781BB1594B5A78634B1A704FF4936002210EF0B9F9554B1B781BB1534B5A785E4B1A7040F29A4002210EF0ADF94F4BA7
:400340001B781BB14D4B5A78594B1A7040F29C4002210EF0A1F9494B1B781BB1474B5A78544B1A7040F29E4002210EF095F9434B1B781BB1414B5A784F4B1A704FF49460D8
:4003800002210EF089F93D4B1B781BB13B4B5A784A4B1A7040F2A24002210EF07DF9374B1B781BB1354B5A78454B1A7040F2A44002210EF071F9314B1B781BB12F4B5A787C
:4003C000404B1A7040F2A64002210EF065F92B4B1B781BB1294B5A783B4B1A7040F29F2005210EF059F9254B1878042810D10122244B1A6006E0214AD15C344AD154013351
:40040000204A13601F4B1B68042BF4D92F4B187040F26A400A210EF03FF90022194B1A6006E0164AD15C2A4AD1540133154A1360124B1A78134B1B689A42F2D240F275404E
:400440000A210EF029F900220E4B1A6006E00B4AD15C204AD15401330A4A1360074B1A78084B1B689A42F2D240F2DC500A210EF013F90022034B1A6035E000BFF885FF1F04
:400480001889FF1F2C84FF1FD485FF1F6B8AFF1F7688FF1F538AFF1FF085FF1F3287FF1F1689FF1F3787FF1F3487FF1F3D86FF1F2E83FF1FD385FF1FC685FF1FD585FF1F2B
:4004C000C585FF1F8C86FF1F3B86FF1F0C81FF1FC885FF1F2084FF1F8E4AD15C8E4AD15401338E4A13608B4B1A788C4B1B689A42F2D240F28B400A210EF0CEF80022874BEA
:400500001A6006E0834AD15C854AD1540133834A1360804B1A78814B1B689A42F2D240F2964002210EF0B8F87A4B1B780BB17D4A137040F25A2006210EF0AEF8754B1B78AC
:40054000052B0AD1734AD37803F00F0376490B70537903F00F03754A137040F2C71002210EF09AF86B4B1B78012B06D1704A1370684B5B7803F00F0353704FF4DE700221CF
:400580000EF08AF8634B1B78012B05D1614B5B7803F00F03674A137040F2632002210EF07BF85C4B1B78012B05D15A4B5B7803F00F03614A537040F2652002210EF06CF814
:4005C000544B1B78012B05D1524B5B7803F00F035A4A53704FF4277003210EF05DF84D4B1B78022B06D14B4B9B7843EA0323544A138002E00122524B1A804FF476700221B6
:400600000EF04AF8434B1B78012B04D1414B5A784C4B5A7007E04B4901230B704B704FF476700DF0FBFF4FF4BB6002210EF034F8384B1B78012B04D1364B5A78424B5A7038
:4006400007E0414901230B704B704FF4BB600DF0E5FF40F2D23006210EF01EF82D4B187805280FD100222D4B1A6006E0294AD15C364AD1540133294A1360284B1B689842C3
:40068000F4D20CE0314905230B7030234B708B70CB700B714B7140F2D2300DF0BFFF4FF47D7002210DF0F8FF1A4B187801280ED100221A4B1A6006E0164AD15C244AD154B5
:4006C0000133164A1360154B1B689842F4D21F4A537903F00F00137903F00F014FF47A7303FB01F342F2107101FB0033D07800F00F00642101FB0031937803F00F0303EBAD
:4007000083035B000B44527802F00F021344114A136010BDF885FF1F088BFF1F2C84FF1FD885FF1F048BFF1F1C84FF1F528AFF1FE885FF1F3587FF1F7488FF1F1489FF1F96
:40074000C285FF1F2C83FF1F688AFF1F2C87FF1F6C88FF1F648AFF1F10B50024A0E008F0C1FA01280BD010B1022841D098E0642011F068FF01204F210CF0ACFF90E064209C
:4007800011F060FF484B187808F036FB0B2805D0464B187808F030FB0B2807D1424B187808F0B2FB414B187808F0AEFB642011F049FF3D4B187808F01FFB06280FD13B4B2C
:4007C000187808F019FB062809D101203C210CF081FF02203C210CF07DFF012460E0012055210CF077FF022055210CF073FF57E0642011F027FF2C4B187808F0FDFA0B28E5
:4008000011D02B4B187808F0F7FA0B280BD0274B187808F0F1FA0B2805D0264B187808F0EBFA0B280FD1204B187808F06DFB1F4B187808F069FB1E4B187808F065FB1D4B92
:40084000187808F061FB642011F0FCFE164B187808F0D2FA06281BD1154B187808F0CCFA062815D1114B187808F0C6FA06280FD1104B187808F0C0FA062809D101204A21A1
:400880000CF028FF02204A210CF024FF022407E0012055210CF01EFF022055210CF01AFF002C3FF45CAF10BD048AFF1F4086FF1F3483FF1F3C87FF1F08B500230A4A1370CB
:4008C0000A4A13704FF4FA7011F0BCFE01202E210CF000FF4FF4FA7011F0B4FE02202E210CF0F8FE08BD00BF2F83FF1FEC85FF1F38B59E4B1B782A2B03F25087DFE813F054
:400900002B009E00F5004E1F5901D3019802F9024E1F8D035C049F040C058F05B8059F068308B407DE089C09260AC40B060D7C0E9A0F4E1F77134814DF1455153216CA16D4
:400940009C17AD190C1A7A1AEB1A321BBD1B971C9E1D581EC81E864B1B78012B03D1854B1A78824B1A70844B1B78012B06D1834B1A78834B1A700222824B1A7011F0D8F9C9
:40098000082843F00B87804B1B78DBB2AA2B4FD17D4B9B79DBB2C32B4AD17B4BDB79DBB23C2B45D1784BDB78DBB2562B02D0572B1FD03DE06E4B1B78012B04D16D4B1A78B1
:4009C0006A4B1A7008E0012063210CF083FE01236C4A1370654A1370674B1B78012B04D1664B1A78664B1A7022E00022644B1A701EE05F4B1B78012B04D15E4B1A785B4BE1
:400A00001A7002E00022594B1A705B4B1B78012B04D15A4B1A785A4B1A7009E0012063210CF058FE0222574B1A700122544B1A70642011F007FE11F0A5F938BD11F078F94E
:400A4000082843F0AB86504B1B78DBB2AA2B46D14D4B9B79DBB2C32B41D14B4BDB79DBB23C2B3CD1484BDB78DBB25C2B0AD004D8452B0FD0592B18D031E07E2B20D0942B43
:400A800026D02CE0012049210CF024FE0222374B1A7024E0012025210CF01CFE00223B4B1A700F22314B1A7019E0012025210CF011FE0022354B1A7027222C4B1A700EE0A2
:400AC00001202E210CF006FE0022284B1A7006E001202E210CF0FEFD0022244B1A70642011F0B0FD11F04EF938BD11F021F9082843F05486244B1B78DBB2AA2B53D1224B43
:400B00009B79DBB2C32B4ED11F4BDB79DBB23C2B49D11D4BDB78DBB25F2B08D002D85E2B10D040E07E2B18D0942B35D03BE001200B210CF0CFFD0022154BDA700A220B4B5B
:400B40001A7030E001201D210CF0C4FD0022114B1A700B22054B1A7025E001202E210CF0B9FD0022014B1A701DE000BF2F83FF1F508AFF1FEF85FF1FC785FF1F3083FF1F40
:400B8000EC85FF1F1089FF1F788CFF1FF185FF1F7888FF1FD285FF1F012063210CF09AFD01229B4B1A70642011F04CFD11F0EAF838BD11F0BDF8082843F0F085954B1B7834
:400BC000DBB2AA2B69D1934B9B79DBB2C32B64D1904BDB79DBB23C2B5FD18F4AD37823F00303D3708B4BDB78DBB23B2B3ED004D80F2B09D0102B1BD04FE07E2B3ED0942B00
:400C000044D0432B49D129E0012006210CF062FD0022824B1A70012024210CF093FD7E4AD37843F00203D3700522794B1A7034E001200D210CF04EFD0022784B1A70784B22
:400C40001A70012047210CF07DFD734AD37843F00103D37005226E4B1A701EE0012007210CF038FD06226A4B1A7016E001202E210CF030FD0022664B1A700EE001202E21D6
:400C80000CF028FD0022624B1A7006E001200B210CF020FD0A225E4B1A70642011F0D2FC11F070F838BD11F043F8082843F07685584B1B78DBB2AA2B40F0A480554B9B7924
:400CC000DBB2C32B40F09E80524BDB79DBB23C2B40F09880514B1B78524A1278013A93423EDC4C4AD278D2B2092A0FD80133DAB24A4B1A704748C178474B13443031D972C5
:400D0000C17830310120C9B20CF01CFD414BDB78DBB20A2B0BD1414B1A780132D2B21A703D4B13443021D97201200CF00BFD394BDB78DBB2512B13D1384B1B7883B1384A5C
:400D400012786AB90133DAB2344B1A70324B13442C21D97201200CF0F5FC0122304B1A702C4BDB78DBB20B2B1BD12C4B1A783AB9012005210CF0AEFC0422254B1A7010E0E9
:400D8000012020210CF0DEFC244B1B78224A1A44D27A2C2A02D10021214A1170013B1F4A13701C4BDB78DBB20C2B2BD11B4B1B786BB11D4B1B7853B9012007210CF08AFC24
:400DC000164B1A78144BDA720622114B1A70134B1B78BBB1144B1B78012B13D1012070210CF078FC0C4B1B7B104903F00F030B7040F296400DF012FC00220B4B1A700E22BB
:400E0000034B1A70642011F01DFC10F0BBFF38BD2F83FF1F788CFF1F7888FF1FF185FF1F3283FF1FD485FF1F7088FF1F048BFF1F10F07EFF082820D1A94B1B78DBB2AA2B55
:400E400015D1A74B9B79DBB2C32B10D1A44BDB79DBB23C2B0BD1A24BDB78DBB27E2B06D101202E210CF036FC00229E4B1A70642011F0E8FB10F086FF38BD9B4B187807F048
:400E8000BBFF072843F08A84322011F0DBFB964B187807F0C5FF0146944B1870944BDB7813F003030DD0904A1078924A0BF0A6FD38B901202E210CF00DFC0022894B1A702B
:400EC00038BD894C207807F0ABFF884B1870207840F0100010F0E6FD012008210CF0FAFB0723804A1370844A13700122834B1A7038BD322011F0A6FB7B4B187807F07CFFAA
:400F00000638052803F24A84DFE810F07000481C481C7C003B000600642011F093FB724B187807F0F1FF01280ED1754B1B785BB939210CF0CFFB0022704B1A70142011F055
:400F400081FB0D22674B1A70674B187807F0DCFF012843F023846A4B1B78012B43F01E840C210CF0B7FB0024644B1C704FF4FA7011F068FB01202E210CF0ACFB594B1C709C
:400F800038BD642011F05EFB574B187807F0BCFF01280ED15A4B1B785BB939210CF09AFB0022564B1A70142011F04CFB0D224D4B1A704D4B187807F0A7FF012843F0EE838F
:400FC0004F4B1B78012B43F0E9830C210CF082FB00244A4B1C704FF4FA7011F033FB01202E210CF077FB3F4B1C7038BD01202E210CF070FB0023414A13703D4AD370394AF4
:40100000137038BD322011F01DFB01202E210CF061FB0022334B1A7038BD10F089FE082843F0BC832E4B1B78DBB2AA2B40F0BE802B4B9B79DBB2C32B40F0B880284BDB79AD
:40104000DBB23C2B40F0B2802E4B1B78062B7BD8234AD278D2B2092A10D80133DAB2294B1A701F48C178224B1344303183F86510C17830310120C9B20CF064FB184BDB787A
:40108000DBB20A2B0CD11F4B1A780132D2B21A70174B1344302183F8651001200CF052FB0F4BDB78DBB26A2B0CD1164B1A780132D2B21A700E4B13442D2183F86510012001
:4010C0000CF040FB064BDB78DBB21A2B3CD9044BDB78DBB2422B37D800220B4B1A602FE0788CFF1F2F83FF1F048AFF1F7788FF1F7888FF1F8388FF1FEF85FF1F508AFF1FF6
:40110000D285FF1FF185FF1F2C84FF1FA94AD278D2B2A9491944097A8A420DD1A7490A780132D2B20A704133D9B2A54B134483F8651001200CF006FBA24A13680133136096
:40114000A04B1B68192BE1D99A4BDB78DBB20B2B15D19A4B1A7852B901202E210CF0BAFA0023974A82F86530974A137007E0012020210CF0E7FA914A1378013B13708D4BE6
:40118000DB78DBB20C2B11D18C4B1B7873B1012005210CF09FFA8A4B884A127883F86520012283F883200422874B1A70642011F049FA10F0E7FD38BD10F0BAFD082843F01D
:4011C000ED827C4B1B78DBB2AA2B32D1794B9B79DBB2C32B2DD1774BDB79DBB23C2B28D1744BDB78DBB2392B04D07E2B1AD0382B1FD10CE001200A210CF06CFA00236F4A3A
:401200001370724A137009226F4B1A7011E0012005210CF05FFA01226C4B1A7004226A4B1A7006E001202E210CF054FA0022664B1A70642011F006FA10F0A4FD38BD0120EE
:4012400001460DF0A1FB052840D90A2011F0FAF9012021210DF098FB052837D901200DF089FA012832D1332010F0AAFD012033210DF0E4FA50B30022554B1A600AE0012099
:401280000DF046FB4E4B1C4484F82900504A1368013313604E4B1C68072CF0D9012013210CF018FA464CE37843F00403E3704FF4FA7011F0C7F901200E210CF00BFA0023BE
:4012C0003E4A137023710C223F4B1A7010F030FD082843F06382374B1B78DBB2AA2B15D1344B9B79DBB2C32B10D1324BDB79DBB23C2B0BD12F4BDB78DBB23B2B06D10120F3
:4013000049210CF0E7F902222F4B1A70642011F099F910F037FD38BD10F00AFD082843F03D82244B1B78DBB2AA2B72D1214B9B79DBB2C32B6DD11F4BDB79DBB23C2B68D10B
:401340001E4B1B78052B25D81A4AD278D2B2092A0FD80133DAB2194B1A701648C178184B134430311971C17830310120C9B20CF0E9F9104BDB78DBB20A2B0BD10F4B1A78C2
:401380000132D2B21A700E4B13443021197101200CF0D8F9074BDB78DBB20B2B22D1074B1A78BAB9012005210CF094F90422064B1A7017E0788CFF1F0C81FF1FF185FF1F98
:4013C0007888FF1F2C84FF1F2F83FF1FD285FF1FF485FF1F012020210CF0B4F9AA4A1378013B1370A94BDB78DBB20C2B11D1A64B1B7873B1A64B5B79302B0AD00120052106
:401400000CF068F9A04B1A78A14B1A710422A14B1A70642011F016F910F0B4FC38BD9E4B58789E4B197800229D4B1B780EF0F0F99C4B5B788BB901200C210CF04BF94FF400
:40144000FA7011F0FFF80024914BDC7001202E210CF040F98F4B1C7038BD012031210CF039F90022884B1A7021228A4B1A7038BD10F05EFC082843F09181844B1B78DBB249
:40148000AA2B40F0D680814B9B79DBB2C32B40F0D0807E4BDB79DBB23C2B40F0CA807B4BDB78DBB2652B00F088800AD85A2B54D002D8582B16D0BCE05B2B68D05D2B28D095
:4014C000B7E0932B00F0818006D8702B00F09A807E2B00F09F80ACE0942B00F0A380962B60D0A6E00022684B1A7001203E210CF0F1F80CF0D3FF012801D10CF0A3F90CF075
:40150000FDFF012801D10CF0FBF91022614B1A708FE001205C210CF0DDF801200021D62240F2AD130CF0D2FA01200021892240F2A7130CF0CBFA01200146242240F2B3134A
:401540000CF0C4FA0120014678224FF47A730CF0BDFA13224F4B1A706BE0012060210CF0B9F801200CF030FA01200CF06FFB01200CF0FEFC01200CF081FD01200CF0ECFB55
:4015800001200CF06FFC1222424B1A7051E001202F210CF09FF800223B4B1A7011223D4B1A7046E001205F210CF094F80022364B1A701B22374B1A703BE001204D210CF041
:4015C00089F81422334B1A7033E001206E210CF081F8012001460DF0D7F905280ED90A2011F030F801200CF051FE012021210DF0CBF9052802D901200CF0C6FD2322254B2B
:401600001A7016E0012089210CF064F82922214B1A700EE001202E210CF05CF800221D4B1A7006E001202E210CF054F80022194B1A70642011F006F810F0A4FB38BD10F03F
:4016400077FB082843F0AA80104B1B78DBB2AA2B43F0A4800D4B9B79DBB2C32B43F09E800A4BDB79DBB23C2B43F09880074BDB78DBB27E2B18D1012031210CF02BF800222C
:40168000044B1A701CE000BFF185FF1F788CFF1F7888FF1F2F83FF1F7488FF1F7788FF1F048AFF1F2C83FF1FA34BDB78DBB2942B06D1012063210CF00DF801229F4B1A70A1
:4016C0009F4B1A78072A26D89B4BDB78DBB2092B0ED8994BD9789B4B1344303183F88E1001202A210CF02EF8954A137801331370914BDB78DBB20A2B0DD1914C2278914BA2
:401700001344302183F88E1001202A210CF01AF8237801332370884BDB78DBB20B2B1AD1874B1B787BB9012039210BF0D3FF4FF4FA7010F087FF01202E210BF0CBFF0022CD
:401740007E4B1A7007E0013BDAB27D4B1A70012020210BF0F7FF784BDB78DBB20C2B7DD1774B1A78002A79D0002377490B6077490B6015E0581C7649014491F8D710714CC0
:40178000234493F88E30303B994204D16E490B6801330B6002E000216B4B19606B4B186010466A4B1B689A42E4D8694B93F8D720654B1B689A420FD1012026210BF08AFFFE
:4017C0004FF4FA7010F03EFF012070210BF082FF0E225A4B1A7041E000235B4A13605B4A136010E05B4A1A4492F82410554A1A4492F88E20914203D153490A6801320A60C6
:401800000133524A1360514B1B689842EAD84E4B1B68082B13D1012026210BF05BFF4FF4FA7010F00FFF01205D210BF053FF012070210BF04FFF0E22404B1A700EE00120C4
:4018400027210BF047FF4FF4FA7010F0FBFE01202E210BF03FFF0022384B1A70642010F0F1FE10F08FFA38BD10F062FA082842F09587314B1B78DBB2AA2B40F0BE802E4B3E
:401880009B79DBB2C32B40F0B8802B4BDB79DBB23C2B40F0B280284BDB78DBB2942B06D1012070210BF016FF0E22244B1A70244B1A78072A27D8204BDB78DBB2092B10D8A5
:4018C0001D48C1781F4B1344303183F88E10C17830310120C9B20BF035FF194A137801331370154BDB78DBB20A2B0CD1144C2278144B1344302183F88E1001200BF022FF5C
:401900002378013323700C4BDB78DBB20B2B2BD10B4B1B7803BB012055210BF0DBFE4FF4FA7010F08FFE01202E210BF0D3FE0022024B1A7018E000BF788CFF1F2F83FF1FB2
:40194000F185FF1F7888FF1F3887FF1F2C84FF1F1889FF1F0C81FF1F013BDAB2AC4B1A70012020210BF0EEFEAA4BDB78DBB20C2B43D1A74B1B78052B3FD9012039210BF0AB
:40198000A9FEA34B1978A44B83F8D7100022A34B1A600BE0581CA24A134493F88E209E4B0344303A83F8D7209C4B18609B4B1B689942EFD860209B490CF030FE70B90120FD
:4019C00055210BF087FE4FF4FA7010F03BFE01202E210BF07FFE0022934B1A70012026210BF078FE4FF4FA7010F02CFE01202E210BF070FE00228C4B1A70642010F022FEE9
:401A000010F0C0F938BD10F093F9082842F0C686804B1B78DBB2AA2B4AD17E4B9B79DBB2C32B45D17B4BDB79DBB23C2B40D1794BDB78DBB23F2B08D002D83E2B1CD037E02A
:401A40007E2B26D0942B2CD032E0012040210BF041FE00236E4A1370744A13700120612106220BF06FFE01206D2107220BF06AFE15226D4B1A701BE001203F210BF02AFE19
:401A80000023634A1370694A13701622664B1A700EE001202E210BF01DFE0022624B1A7006E0012070210BF015FE0E225E4B1A70642010F0C7FD10F065F938BD10F038F988
:401AC000082842F06B86534B1B78DBB2AA2B40F09980504B9B79DBB2C32B40F093804D4BDB79DBB23C2B40F08D804A4BDB78DBB27E2B78D00AD8772B42D002D8762B10D0D6
:401B000080E0782B4CD07A2B58D07BE0832B27D002D8822B14D075E0942B6CD0952B5AD070E0012030210BF0D5FD0023404A1370374A13703F4A137018223B4B1A7061E0BA
:401B4000012079210BF0C6FD0222394B1A7000232F4A1370374A13701822334B1A7051E001207A210BF0B6FD0322314B1A700023274A13702F4A137018222B4B1A7041E021
:401B8000012078210BF0A6FD0122294B1A7000231F4A1370274A13701822234B1A7031E0012065210BF096FD0122214B1A700022174B1A7017221C4B1A7023E00120322169
:401BC0000BF088FD00231A4A1370114A13701722154B1A7016E0012066210BF07BFD2022114B1A700EE001202E210BF073FD00220D4B1A7006E0012070210BF06BFD0E2229
:401C0000094B1A70642010F01DFD10F0BBF838BDF185FF1F788CFF1F1889FF1F2C84FF1F7888FF1FEF89FF1F2F83FF1F3283FF1F3C86FF1F6A8AFF1F10F07AF8082842F020
:401C4000AD85B24B1B78DBB2AA2B79D1AF4B9B79DBB2C32B74D1AD4BDB79DBB23C2B6FD1AA4BDB78DBB2802B1FD004D87E2B58D07F2B06D064E0822B3FD02AD3942B58D028
:401C80005EE0012006210BF025FD0022A04B1A70A04B1978A04B83F8A310012024210BF051FD1A229D4B1A704AE0012006210BF011FD0022964B1A70994B1978964B83F81F
:401CC000A310012024210BF03DFD1A22934B1A7036E0012006210BF0FDFC00228C4B1A70904B19788C4B83F8A310012024210BF029FD1A22894B1A7022E0012006210BF046
:401D0000E9FC0022824B1A70874B1978824B83F8A310012024210BF015FD1A227F4B1A700EE001202E210BF0D5FC00227B4B1A7006E0012070210BF0CDFC0E22774B1A7070
:401D4000642010F07FFC10F01DF838BD0FF0F0FF082842F023856D4B1B78DBB2AA2B40F08D816A4B9B79DBB2C32B40F08781674BDB79DBB23C2B40F08181644BDB78DBB240
:401D8000642B00F0048104D8622B09D0632B43D074E17E2B00F06381942B00F068816DE1012039210BF096FC642010F04BFC5F4B187807F021F806281ED15D4B187807F01B
:401DC0001BF8062808D101204A210BF083FC4FF4FA7010F037FC51E1012055210BF07AFC4FF4FA7010F02EFC01202E210BF072FC00224A4B1A7041E1012055210BF06AFC9E
:401E00004FF4FA7010F01EFC01202E210BF062FC0022424B1A7031E1012037210BF05AFC444B5B78012B45D10022434B1A600AE0424A1344012093F82C100CF077FC3E4A83
:401E40001368013313603C4B1B68102BF0D901200A210CF06BFC01200A210CF067FC01200A210CF063FC01200A210CF05FFC0022314B1A600AE0314A1344022093F82C10D1
:401E80000CF054FC2C4A1368013313602A4B1B68102BF0D902200A210CF048FC02200A210CF044FC02200A210CF040FC02200A210CF03CFC1F4B5B78022B60D100221E4B00
:401EC0001A600AE01D4A1344032093F82C100CF02DFC194A136801331360174B1B68102BF0D903200A210CF021FC03200A210CF01DFC03200A210CF019FC03200A210CF0D0
:401F000015FC00220C4B1A6025E000BF788CFF1FF185FF1F6B8AFF1F1889FF1F2F83FF1F7688FF1F538AFF1FF085FF1F048AFF1F3483FF1F6C88FF1F2C84FF1F0C81FF1FCB
:401F4000A64A1344042093F82C100CF0EFFBA44A136801331360A24B1B68102BF0D904200A210CF0E3FB04200A210CF0DFFB04200A210CF0DBFB04200A210CF0D7FB012018
:401F80006B210BF0A7FB2522964B1A7076E001200CF0F0FB012852D133200FF011FF012033210CF04BFC002868D000228E4B1A600AE001200CF0ACFC8C4B1C4484F8290022
:401FC000894A136801331360874B1C68072CF0D90023874A1370844A13600CE0844C834A1344207893F829100DF008F820707E4A1368013313607C4B1B68062BEED97B4B27
:4020000093F830207A4B1B789A4208D101204B210BF060FB4FF47A7010F014FB2EE0012055210BF057FB4FF4FA7010F00BFB01202E210BF04FFB00226A4B1A701EE00120BF
:4020400055210BF047FB4FF4FA7010F0FBFA01202E210BF03FFB0022624B1A700EE001202E210BF037FB00225E4B1A7006E0012070210BF02FFB0E225A4B1A70642010F08D
:40208000E1FA0FF07FFE38BD0FF052FE082842F08583584B1B78DBB2AA2B40F03181554B9B79DBB2C32B40F02B81524BDB79DBB23C2B40F02581504B1B78042B00F2C58047
:4020C000DFE813F005002E005400C3009E00494AD278D2B2012A0FD80133DAB2464B1A70444CE17830310120C9B20BF02BFBE3781B01424A82F8A1303E4BDB78DBB20A2BED
:4021000040F0A3803C4B1A780132D2B21A7000213A4B83F8A110012030210BF013FB94E0344AD278D2B2092A11D80133DAB2324B1A70304CE17830310120C9B20BF002FB38
:40214000E1782E4A92F8A1300B4382F8A130294BDB78DBB20A2B78D1274B1A780132D2B21A70012030210BF0EDFA6EE0214AD278D2B2052A17D80133DAB21F4C22700120AC
:402180003A210BF0DFFA22780132D2B22270194CE17830310120C9B20BF0D4FAE3781B01164A82F8A030134BDB78DBB20A2B4CD1114C22780132D2B2227001203A210BF021
:4021C000C1FA22780132D2B22270012030210BF0B9FA0022094B83F8A02036E00C81FF1F2C84FF1F2F83FF1FF485FF1F7888FF1FD685FF1F788CFF1FF185FF1F1889FF1F6E
:40220000AD4AD278D2B2092A11D80133DAB2AB4B1A70A94CE17830310120C9B20BF092FAE178A74A92F8A0300B4382F8A030A24BDB78DBB20A2B08D1A04B1A780132D2B260
:402240001A70012030210BF07DFA9B4BDB78DBB2402B17D19B4B1B783BB90120994B1870702106220BF06EFA07E00022954B1A700120612106220BF065FA01206D21072251
:402280000BF060FA8C4BDB78DBB20B2B12D18B4B1A783AB9012070210BF01CFA0E228A4B1A7007E0012020210BF04CFA834A1378013B1370804BDB78DBB20C2B20D17F4B0E
:4022C0001B78052B1CD17F4B1B7843F002027C4991F8A13043EA421381F8A1300CF03EF901280DD139210BF0F5F94FF4FA7010F0A9F9012070210BF0EDF90E22724B1A70D9
:40230000642010F09FF90FF03DFD38BD0FF010FD082842F04382684B1B78DBB2AA2B40F06581654B9B79DBB2C32B40F05F81624BDB79DBB23C2B40F05981604B1A78072AA6
:4023400000F22181DFE812F00800310058001F019100C2001F01FA00574BDB78DBB2032B0FD8554CE17830310120C9B20BF0EAF9524A137801331370E3781B01504A82F80D
:402380009D304D4BDB78DBB20A2B40F0FC8000224B4B83F89D20494C0120302122780BF0D1F9237801332370EDE0434BDB78DBB2092B11D8404CE17830310120C9B20BF00A
:4023C000C1F9E1783E4A92F89D300B4382F89D303A4A137801331370374BDB78DBB20A2B40F0D180354C0120302122780BF0AAF9237801332370C6E02F4BDB78DBB2012BBF
:4024000017D801202F210BF09DF92C4C22780132D2B22270284DE97830310120C9B20BF091F9EB781B01264A82F89E30237801332370214BDB78DBB20A2B40F0A4801F4C1F
:4024400001202F2122780BF07DF922780132D2B22270012030210BF075F90022184B83F89E202378013323708DE0134BDB78DBB2092B11D8104CE17830310120C9B20BF08D
:4024800061F9E1780E4A92F89E300B4382F89E300A4A137801331370074BDB78DBB20A2B71D1064C0120302122780BF04BF923780133237067E000BF788CFF1FF185FF1F29
:4024C0001889FF1F3283FF1F2F83FF1FA64BDB78DBB2092B17D801202F210BF033F9A34C22780132D2B222709F4DE97830310120C9B20BF027F9EB781B019D4A82F89F3008
:40250000237801332370984BDB78DBB20A2B3AD1964C01202F2122780BF014F922780132D2B22270012030210BF00CF90022904B83F89F2023780133237024E08A4BDB7827
:40254000DBB2092B11D8884CE17830310120C9B20BF0F8F8E178864A92F89F300B4382F89F30824A1378013313707F4BDB78DBB20A2B08D17D4C0120302122780BF0E2F813
:40258000237801332370784BDB78DBB20B2B12D1764B1B783BB9012070210BF09BF80E22744B1A7007E0013BDAB2704B1A70012020210BF0C7F86C4BDB78DBB20C2B15D138
:4025C0006A4B1B78082B11D10BF0F6FF01280DD139210BF07FF84FF4FA7010F033F8012070210BF077F80E22624B1A70642010F029F80FF0C7FB38BD0FF09AFB082842F00F
:40260000CD80594B1B78DBB2AA2B40F00D81564B9B79DBB2C32B40F00781534BDB79DBB23C2B40F00181504BDB78DBB27E2B06D101202E210BF04EF800224E4B1A704B4BEF
:402640001B780C2B61D8484AD278D2B2092A1ED80133DAB2454B1A70474B1B7813B1012B07D00DE0404BD978414B13443031997706E03D4BD9783E4B1344303183F82F1031
:40268000394BD97830310120C9B20BF083FE364BDB78DBB20A2B18D1344B1A780132D2B21A70354B1B7813B1012B05D009E0304B13443021997704E02D4B1344302183F888
:4026C0002F10012030210BF065FE274BDB78DBB2512B1AD1254B1B78BBB10133DAB2234B1A70254B1B7813B1012B05D009E0204B13442E21997704E01D4B13442E2183F8AC
:402700002F1001202E210BF045FE174BDB78DBB20B2B4ED1154B1A78002A42D10E22154B1A70012070210AF0D5FF2F200C210BF0B3FF0022114B1A6008E0114AD15C0C4A65
:402740001A4482F82F1001330C4A13600C4B1A780A4B1B689A42F0D220200F210BF09CFF0022064B1A6015E0788CFF1FF185FF1F1889FF1F2F83FF1F3C86FF1F2C84FF1F0B
:40278000F885FF1F9A4AD15C9A4A1A4491770133994A1360964B1A78974B1B689A42F1D207E0012020210BF0F5FD944A1378013B1370934BDB78DBB20C2B35D10E22914BBD
:4027C0001A70012070210AF085FF8F4B1B7813B1012B11D028E0894B1B78864901F81E3F20200BF01BFFF8B9012055210AF072FF6422844B1A7017E0804B1B787D4901F852
:402800002F3F2F200BF00AFF70B9012055210AF061FF4FF4FA700FF015FF01202E210AF059FF0022774B1A7064200FF00BFF0FF0A9FA38BD0FF07CFA082841F0AF87704BE2
:402840001B78DBB2AA2B40F0CC836D4B9B79DBB2C32B40F0C6836A4BDB79DBB23C2B40F0C083664B1B78172B00F25A82644AD278D2B2092A61D80133DAB2604B1A70624BD6
:402880001B78042B52D8DFE803F0031427394B005E4B1978012904D1594BDB7830335C488354002942D1564BDB78303351498B543CE0564B1978012904D1514BDB783033F7
:4028C00054488354002931D14D4BD978494B1344303183F8431029E04C4B1978012904D1474BDB7830334C488354F9B9444BD978404B1344303183F8611017E0434B19787D
:40290000012904D13E4BDB7830334448835469B93B4BD978374B1344303183F87F1005E0374BD9783E4B13443031D972344BD97830310120C9B20BF02DFD314BDB78DBB227
:402940000A2B2BD12D4B1A780132D2B21A702E4B1B78042B1ED8DFE803F003070D1319003021244B995415E0224B1344302183F843100FE01F4B1344302183F8611009E052
:402980001C4B1344302183F87F1003E0244B13443021D972012030210BF0FCFC184BDB78DBB2672B46D1154B1A780132D2B21A70154B1B78042B39D8DFE803F003070D131E
:4029C000340023210B4B995430E00A4B1344232183F843102AE0074B1344232183F8611024E0044B1344232183F87F101EE000BFF885FF1F1889FF1F2C84FF1FF185FF1FFA
:402A0000788CFF1F2F83FF1F3C86FF1F6A8AFF1FC885FF1F2084FF1F088BFF1FD885FF1F7888FF1F984B13442321D972012023210BF0B0FC954BDB78DBB26A2B2BD1944B36
:402A40001A780132D2B21A70924B1B78042B1ED8DFE803F003070D1319002D218E4B995415E08D4B13442D2183F843100FE08A4B13442D2183F8611009E0874B13442D21E8
:402A800083F87F1003E0804B13442D21D97201202D210BF07FFC7D4BDB78DBB2662B2BD17B4B1A780132D2B21A707A4B1B78042B1ED8DFE803F003070D1319004021764B1F
:402AC000995415E0744B1344402183F843100FE0714B1344402183F8611009E06E4B1344402183F87F1003E0674B13444021D972012040210BF04EFC644BDB78DBB2692B7A
:402B00002BD1634B1A780132D2B21A70614B1B78042B1ED8DFE803F003070D1319002E215D4B995415E05C4B13442E2183F843100FE0594B13442E2183F8611009E0564B14
:402B400013442E2183F87F1003E04F4B13442E21D97201202E210BF01DFC4C4BDB78DBB2682B4BD14A4B1A780132D2B21A70494B1B78042B3ED8DFE803F0030F1D2B39006C
:402B8000464B1B78012B02D12020454988548BBB2021414B99542DE0404B1B78012B02D12020404988542BBB3B4B1344202183F843101FE0394B1B78012B02D120203A49CF
:402BC0008854BBB9344B1344202183F8611011E0324B1B78012B02D12020344988544BB92D4B1344202183F87F1003E0264B13442021D972012020210BF0CCFB234BDB78AF
:402C0000DBB21A2B40F28C80204BDB78DBB2422B00F286800022264B1A607CE01B4AD278D2B224491944097A8A4270D118490A780132D2B20A7017490978042961D8DFE8BC
:402C400001F003123B4B5B0014490878012803D103F14101124CA154002852D103F141010D4881544DE00D490878012803D103F141010C4CA154002843D10749114403F107
:402C8000410081F843003CE07888FF1F788CFF1FF185FF1F3C86FF1F1889FF1F6A8AFF1FC885FF1F2084FF1F088BFF1FD885FF1F2C84FF1F0C81FF1FA3490878012803D13B
:402CC00003F14101A14CA154D8B9A149114403F1410081F8610014E09B490878012803D103F141019B4CA15458B99949114403F1410081F87F0004E09749114403F14100B3
:402D0000C87203F141010120C9B20BF043FB934A136801331360914B1B68192B7FF67EAF8F4BDB78DBB20B2B6DD18E4B1A78002A61D1012070210AF0CDFC402020210BF004
:402D4000ABFC0022854B1A6008E0874AD15C804A1A4482F843100133804A1360824B1A787E4B1B689A42F0D2802020210BF094FC00227A4B1A6008E07B4AD15C744A1A44E8
:402D800082F861100133754A1360774B1A78734B1B689A42F0D2A02020210BF07DFC00226E4B1A6008E0704AD15C694A1A4482F87F100133694A13606B4B1A78674B1B6805
:402DC0009A42F0D2002020210BF066FC0022634B1A6006E0644AD15C5D4AD15401335F4A1360614B1A785D4B1B689A42F2D20E225E4B1A7007E0012020210BF0CBFA594A38
:402E00001378013B1370564BDB78DBB20C2B40F0E880012039210AF05DFC4FF4FA700FF011FC012070210AF055FC0E224F4B1A704F4B1B78042B00F2D480DFE803F0032E93
:402E40005A9FC700404B1B78012B07D14949454B1B780B7040F26A400BF0E0FB3A4B1B78002B40F0BE803A493E4B1B780B7000200BF0D4FB002840F0B480012055210AF0BC
:402E800029FC4FF4FA700FF0DDFB01202E210AF021FC0022354B1A70A3E02B4B1B78012B07D135492F4B1B780B7040F275400BF0B5FB254B1B78002B40F09380294B1B7816
:402EC000234901F8433F40200BF0A8FB002840F08880012055210AF0FDFB4FF4FA700FF0B1FB01202E210AF0F5FB00221F4B1A7077E0154B1B78012B07D11449194B1B789A
:402F00000B7040F2DC500BF089FB0F4B1B78002B67D1144B1B780E4901F8613F80200BF07DFB00285DD1012055210AF0D3FB4FF4FA700FF087FB01202E210AF0CBFB0022BF
:402F40000A4B1A704DE000BF6A8AFF1F088BFF1F1889FF1FD885FF1F7888FF1F2C84FF1F788CFF1FF185FF1FF885FF1F2F83FF1F3C86FF1FC885FF1F2084FF1FB34B1B78DE
:402F8000012B07D1B249B34B1B780B7040F28B400BF044FBAD4B1B781BBBAE4B1B78AE4901F87F3FA0200BF039FBD0B9012055210AF090FB4FF4FA700FF044FB01202E2145
:402FC0000AF088FB0022A54B1A700AE0A14B1A78A34BDA72012039210AF07CFB24229F4B1A7064200FF02EFB0EF0CCFE38BD0EF09FFE082841F0D2839A4B1B78DBB2AA2BDC
:4030000040F0C080974B9B79DBB2C32B40F0BA80944BDB79DBB23C2B40F0B4808D4B1B78062B25D88F4AD278D2B2092A0FD80133DAB2884B1A708B48C178894B13443031AB
:40304000D972C17830310120C9B20AF07BFB854BDB78DBB20A2B0BD17E4B1A780132D2B21A707F4B13443021D97201200AF06AFB7C4BDB78DBB20B2B1BD1764B1A783AB9B6
:40308000012070210AF026FB0E22744B1A7010E0012020210AF056FB6E4B1B78704A1A44D27A2C2A02D100216F4A1170013B694A13706C4BDB78DBB20C2B63D1654B1B7842
:4030C000032B5FD90622654B1A70012039210AF001FB604B1A78624BDA72644B187809F0CFFE00283FD05C4B93F8A320604B1B789A4204D140F2A7105E490BF08FFA564B8C
:4031000093F8A3205C4B1B789A4204D140F2B31058490BF083FA504B93F8A320574B1B789A4204D140F2AD1052490BF077FA4A4B93F8A320524B1B789A4204D14FF47A7092
:403140004C490BF06BFA01203C210AF0C3FA4FF4FA700FF077FA012070210AF0BBFA0E223E4B1A700EE0012055210AF0B3FA4FF4FA700FF067FA01202E210AF0ABFA0022FA
:40318000364B1A7064200FF05DFA0EF0FBFD38BD0EF0CEFD082841F00183324B1B78DBB2AA2B40F086802F4B9B79DBB2C32B40F080802C4BDB79DBB23C2B7AD1294BDB78DF
:4031C000DBB2802B2FD004D87E2B63D07F2B06D06FE0822B56D031D3942B63D069E0012058210AF077FA01200021732240F2C3130AF0CEFC01200021CF2240F2C5130AF020
:40320000C7FC01200146292240F2C1130AF0C0FC012001467B2240F2EE330AF0B9FC1C220E4B1A7045E0012006210AF053FA0022084B1A701D22094B1A703AE001206D219B
:403240000AF048FA1E22054B1A7032E06A8AFF1FD885FF1FF185FF1F1889FF1F2F83FF1F7888FF1F788CFF1F3283FF1F048AFF1F6B8AFF1F8388FF1F538AFF1F7688FF1F24
:40328000F085FF1F01208A210AF024FA2A22AB4B1A700EE001202E210AF01CFA0022A74B1A7006E0012070210AF014FA0E22A34B1A7064200FF0C6F90EF064FD38BD0EF0E3
:4032C00037FD082841F06A829D4B1B78DBB2AA2B65D19B4B9B79DBB2C32B60D1984BDB79DBB23C2B5BD1964BDB78DBB2802B1AD004D87E2B44D07F2B06D050E0822B30D0F1
:4033000020D3942B44D04AE0012006210AF0E2F900228C4B1A7001228B4B83F8A3201F22864B1A703BE0012006210AF0D3F90022844B1A700222844B83F8A3201F227F4B4A
:403340001A702CE0012006210AF0C4F900227D4B1A7003227C4B83F8A3201F22774B1A701DE0012006210AF0B5F90022754B1A700422754B83F8A3201F22704B1A700EE09C
:4033800001202E210AF0A6F900226C4B1A7006E0012070210AF09EF90E22684B1A7064200FF050F90EF0EEFC38BD0EF0C1FC082841F0F481624B1B78DBB2AA2B40F0B880C7
:4033C0005F4B9B79DBB2C32B40F0B2805C4BDB79DBB23C2B40F0AC80594BDB78DBB2942B06D1012070210AF075F90E22534B1A70544B1B78042B36D8514AD278D2B2092A50
:403400000FD80133DAB24F4B1A704D48C1784F4B13443031D972C17830310120C9B20AF091F9474BDB78DBB20A2B0BD1454B1A780132D2B21A70454B13443021D972012012
:403440000AF080F93E4BDB78DBB2512B0BD13D4B1A780132D2B21A703C4B13442C21D97201200AF06FF9364BDB78DBB20B2B1BD1344B1A783AB9012070210AF02BF90E223D
:403480002E4B1A7010E0012020210AF05BF92D4B1B782E4A1A44D27A2C2A02D100212C4A1170013B274A1370254BDB78DBB20C2B3ED1244B1B78052B3AD1244B1B7B353B83
:4034C000DBB2022B34D8012039210AF003F91D4B1B781E4901F80B3F4FF4DD700BF09EF8012805D1194B1B7B03F00F03194A137040F25A2018490BF091F8012818D1134AEB
:40350000937B03F00F0315490B70137C03F00F03134A13703C210AF0DDF84FF4FA700FF091F8012070210AF0D5F80E22034B1A7064200FF087F80EF025FC38BD2F83FF1F63
:40354000788CFF1FF185FF1F1889FF1F7888FF1F3283FF1FD485FF1F8388FF1F1C84FF1F528AFF1F0EF0E4FB082841F01781A74B1B78DBB2AA2B40F08780A44B9B79DBB209
:40358000C32B40F08180A14BDB79DBB23C2B7BD19E4BDB78DBB28F2B08D002D87E2B64D072E0902B31D0942B67D06DE09849002381F82D3081F82E304FF4DE702D310BF06E
:4035C0002DF8012811D10022924B1A703C210AF081F84FF4FA700FF035F8012070210AF079F80E228C4B1A704EE0012055210AF071F84FF4FA700FF025F801202E210AF060
:4036000069F80022844B1A703EE08149012381F82D3081F82E304FF4DE702D310AF0FEFF012812D101247B4B1C7020463C210AF051F84FF4FA700FF005F80E22764B1A7062
:40364000204670210AF046F81EE0012055210AF041F84FF4FA700EF0F5FF01202E210AF039F800226C4B1A700EE001202E210AF031F80022684B1A7006E0012070210AF044
:4036800029F80E22644B1A7064200EF0DBFF0EF079FB38BD0EF04CFB082841F07F805B4B1B78DBB2AA2B40F0AA80584B9B79DBB2C32B40F0A480554BDB79DBB23C2B40F085
:4036C0009E80564B1B782BBB504AD278D2B2092A0FD80133DAB2514B1A704C48C178504B13443031D972C17830310120C9B20AF029F8464BDB78DBB20A2B0BD1474B1A78C8
:403700000132D2B21A70464B13443021D97201200AF018F83D4BDB78DBB20B2B1BD13F4B1A783AB901202E2109F0D4FF00223A4B1A7010E0012020210AF004F8374B1B7836
:40374000374A1A44D27A2C2A02D10021354A1170013B324A13702D4BDB78DBB20C2B4ED12E4B1B78012B4AD10120392109F0B2FF2A4B1A782A4BDA72254B93F8A330012BB1
:4037800008D127490A7B284B1A7040F2C1100B310AF044FF1E4B93F8A330022B08D120490A7B224B1A7040F2C3100B310AF036FF174B93F8A330032B08D119490A7B1C4B8B
:4037C0001A7040F2C5100B310AF028FF104B93F8A330042B08D112490A7B164B1A7040F2EE300B310AF01AFF4FF4FA700EF02AFF0120702109F06EFF0E22074B1A70642034
:403800000EF020FF0EF0BEFA38BD00BF788CFF1F1889FF1F3587FF1F2F83FF1FF185FF1F7888FF1F3283FF1F538AFF1F6B8AFF1F7688FF1FF085FF1F0EF07AFA082840F062
:40384000AD87CD4B1B78DBB2AA2B40F00082CA4B9B79DBB2C32B40F0FA81C74BDB79DBB23C2B40F0F481C44BDB787E3B252B00F2EE81DFE813F0D401EC01EC01EC01EC01E8
:40388000EC01A10187014000FD007600260091006701EC01EC01EC01EC01EC01EC01EC01EC01BB01EC01EC01C7003101AC00EC01EC01EC01EC01EC01EC0116015B00E2009A
:4038C0004C01AE4901230B704B7040F2C7100AF0A5FE012840F0BB813C2109F0FBFE4FF4FA700EF0AFFE0120702109F0F3FE0E22A34B1A70ABE1A14901230B7002234B700F
:4039000040F2C7100AF08AFE012840F0A0813C2109F0E0FE4FF4FA700EF094FE0120702109F0D8FE0E22964B1A7090E1934901230B7003234B7040F2C7100AF06FFE01288F
:4039400040F085813C2109F0C5FE4FF4FA700EF079FE0120702109F0BDFE0E22884B1A7075E1864901230B7004234B7040F2C7100AF054FE012840F06A813C2109F0AAFEA6
:403980004FF4FA700EF05EFE0120702109F0A2FE0E227B4B1A705AE1784901230B7005234B7040F2C7100AF039FE012840F04F813C2109F08FFE4FF4FA700EF043FE012064
:4039C000702109F087FE0E226D4B1A703FE16B4901230B7006234B7040F2C7100AF01EFE012840F034813C2109F074FE4FF4FA700EF028FE0120702109F06CFE0E22604B39
:403A00001A7024E15D4901230B7007234B7040F2C7100AF003FE012840F019813C2109F059FE4FF4FA700EF00DFE0120702109F051FE0E22524B1A7009E1504901230B7000
:403A400008234B7040F2C7100AF0E8FD012840F0FE803C2109F03EFE4FF4FA700EF0F2FD0120702109F036FE0E22454B1A70EEE0424901240C7009234B7040F2C7100AF068
:403A8000CDFD20463C2109F025FE4FF4FA700EF0D9FD2046702109F01DFE0E22384B1A70D5E0364901230B700A234B7040F2C7100AF0B4FD012840F0CA803C2109F00AFE24
:403AC0004FF4FA700EF0BEFD0120702109F002FE0E222B4B1A70BAE0284901230B700B234B7040F2C7100AF099FD012840F0AF803C2109F0EFFD4FF4FA700EF0A3FD012023
:403B0000702109F0E7FD0E221D4B1A709FE01B4901230B700C234B7040F2C7100AF07EFD012840F094803C2109F0D4FD4FF4FA700EF088FD0120702109F0CCFD0E22104B48
:403B40001A7084E00D4901230B700D234B7040F2C7100AF063FD012879D13C2109F0BAFD4FF4FA700EF06EFD0120702109F0B2FD0E22034B1A706AE0788CFF1FE885FF1F25
:403B80002F83FF1FBD4901230B700E234B7040F2C7100AF043FD012859D13C2109F09AFD4FF4FA700EF04EFD0120702109F092FD0E22B34B1A704AE0B04901230B700F2345
:403BC0004B7040F2C7100AF029FD01283FD13C2109F080FD4FF4FA700EF034FD0120702109F078FD0E22A64B1A7030E0A34900230B704B7040F2C7100AF010FD012826D1A9
:403C00003C2109F067FD4FF4FA700EF01BFD0120702109F05FFD0E22994B1A7017E0974900230B704B7040F2C7100AF0F7FC012806D1702109F04EFD0E22914B1A7006E0EB
:403C400001202E2109F046FD00228D4B1A7064200EF0F8FC0EF096F838BD0EF069F8082840F09C85874B1B78DBB2AA2B4ED1854B9B79DBB2C32B49D1824BDB79DBB23C2BC9
:403C800044D1804BDB78DBB20A2B2ED101227E4B1A6010E07D4B58787D4B197801227D4B1B780BF0B5FD4FF4FA700EF0CBFC764A136801331360784B1B7803F00F03724A33
:403CC00012689342E6D201200C2109F003FD4FF4FA700EF0B7FC0024704BDC7001202E2109F0F8FC664B1C7010E001200C2109F0F1FC4FF4FA700EF0A5FC0024674BDC70C1
:403D000001202E2109F0E6FC5D4B1C7064200EF099FC0EF037F838BD0EF00AF8082840F03D85584B1B78DBB2AA2B5DD1554B9B79DBB2C32B58D1534BDB79DBB23C2B53D181
:403D4000504BDB78DBB2392B10D002D8382B05D04AE07E2B41D0942B34D045E001202E2109F0B8FC0022464B1A703DE001203B2109F0B0FC454C60780CF0EEFF60780A21B8
:403D80000AF0D4FC60780A210AF0D0FC60780A210AF0CCFC60781D210AF0C8FC607856210AF0C4FC607831210AF0C0FC4FF4FA700EF048FC01202E2109F08CFC0022304B71
:403DC0001A7011E001202F2109F084FC0022344B1A7028222A4B1A7006E001202E2109F079FC0022264B1A7064200EF02BFC0DF0C9FF38BD0DF09CFF082840F0CF84214BEF
:403E00001B78DBB2AA2B60D11E4B9B79DBB2C32B5BD11C4BDB79DBB23C2B56D1194BDB78DBB2912B08D002D87E2B3FD04DE0922B13D0942B42D048E001200A2109F04AFCA7
:403E40000122184B1A700422174B1A700022144B1A7018220A4B1A7037E001206F2109F039FC21220F4B1A7004220F4B1A7000220B4B1A701822024B1A7026E0E885FF1F31
:403E80002F83FF1F788CFF1FF485FF1F7488FF1F7788FF1F048AFF1F048BFF1F7888FF1FF185FF1F2887FF1F3C86FF1F01202E2109F010FC0022B94B1A7006E001207021CD
:403EC00009F008FC0E22B54B1A7064200EF0BAFB0DF058FF38BDB24B012013F80B1FB14A12780AF005FF01282CD16E2109F0F2FB2322AA4B1A70012001460AF045FD052885
:403F000010D90A200EF09EFB01200AF0BFF9012021210AF039FD052840F2408401200AF033F938BD0120552109F0D4FB4FF4FA700EF088FB01202E2109F0CCFB0022974B51
:403F40001A7038BD0120552109F0C4FB4FF4FA700EF078FB01202E2109F0BCFB00228F4B1A7038BD0DF0E4FE082840F017848E4B1B78DBB2AA2B7AD18B4B9B79DBB2C32B62
:403F800075D1894BDB79DBB23C2B70D1864BDB78DBB2392B08D002D8382B39D067E07E2B3ED0942B5CD062E0804B5A78012A07D17F4901230B704B707E490B7002234B701C
:403FC000022A08D17A4B01221A7003215970794B1A7004225A7040F2632075490AF01EFB012844D140F2652072490AF017FB01283DD1682109F06EFB4FF4FA700EF022FBF3
:404000000120702109F066FB0E22644B1A702EE02622624B1A700120672109F05BFB26E0654B5B78012B03D10022634B5A7002E00122614B5A7040F2DA305F490AF0EEFA22
:4040400001203C2109F046FB4FF4FA700EF0FAFA01202E2109F03EFB0022504B1A7006E00120702109F036FB0E224C4B1A7064200EF0E8FA0DF086FE38BD0DF059FE08288F
:4040800040F08C83484B1B78DBB2AA2B40F0C980454B9B79DBB2C32B40F0C380424BDB79DBB23C2B40F0BD803F4BDB78DBB28D2B41D005D87E2B00F0A5808C2B06D0B0E001
:4040C0008E2B7BD0942B00F0A580AAE0374B5B78012B07D1364A0120107002215170354A10705170022B07D1314B0121197004225A70304B19705A7040F263202C490AF032
:404100008DFA012840F08D8040F2652029490AF085FA012840F085806A2109F0DBFA4FF4FA700EF08FFA0E221C4B1A700120702109F0D0FA75E01D4B5A78012A06D11C4979
:4041400001230B704B701B490B704B70022A07D1174B0121197003225A70164B19705A7040F2632012490AF059FA012859D140F2652010490AF052FA012852D1692109F0C2
:40418000A9FA4FF4FA700EF05DFA0120702109F0A1FA0E22014B1A7043E000BF2F83FF1F7888FF1F2887FF1F788CFF1F6C88FF1F7488FF1F1489FF1F2C83FF1F964901209B
:4041C000087000224A70954B18705A7040F263200AF024FA012824D140F265208F490AF01DFA01281DD16C2109F074FA4FF4FA700EF028FA0120702109F06CFA0E22884BC2
:404200001A700EE001202E2109F064FA0022844B1A7006E00120702109F05CFA0E22804B1A7064200EF00EFA0DF0ACFD38BD0DF07FFD082840F0B2827A4B1B78DBB2AA2B6C
:4042400040F0E380774B9B79DBB2C32B40F0DD80744BDB79DBB23C2B40F0D780724B1A78032A26D86F4BDB78DBB2092B0ED86D4BD9786E4B1344303183F88E1001202A2112
:4042800009F060FA684A137801331370654BDB78DBB20A2B0DD1644C2278644B1344302183F88E1001202A2109F04CFA2378013323705C4BDB78DBB20B2B1AD15A4B1B786D
:4042C0007BB90120552109F005FA4FF4FA700EF0B9F901202E2109F0FDF90022504B1A7007E0013BDAB2504B1A700120202109F029FA4C4BDB78DBB20C2B40F086804A4B2D
:404300001A78002A72D0002349490B6049490B6012E0591C4848405C444C234493F88E30984204D1424803680133036002E000203F4B18603F4B196010463E4B1B689A420F
:40434000E7D83D4B1A783A4B1B689A420FD10120262109F0BFF94FF4FA700EF073F922222F4B1A700120712109F0B4F94DE000232F4A13602F4A136010E02F4A1A4492F856
:4043800024102A4A1A4492F88E20914203D128490A6801320A600133264A1360254B1B689842EAD8224B1B68042B0FD10120262109F090F94FF4FA700EF044F92222184B7A
:4043C0001A700120712109F085F91EE00120272109F080F94FF4FA700EF034F901202E2109F078F900220E4B1A700EE00120272109F070F94FF42F700EF024F901202E2153
:4044000009F068F90022064B1A7064200EF01AF90DF0B8FC38BD00BF7488FF1F1489FF1F2F83FF1F788CFF1FF185FF1F7888FF1F3887FF1F2C84FF1F0C81FF1F0DF078FCEB
:40444000082840F0AB81AB4B1B78DBB2AA2B40F0A980A84B9B79DBB2C32B40F0A380A54BDB79DBB23C2B40F09D80A34B1A78032A27D8A04BDB78DBB2092B10D89D48C17861
:404480009E4B1344303183F88E10C17830310120C9B209F057F9984A137801331370954BDB78DBB20A2B0CD1934C2278934B1344302183F88E10012009F044F9237801338F
:4044C00023708C4BDB78DBB20B2B1AD18A4B1B787BB90120552109F0FDF84FF4FA700EF0B1F801202E2109F0F5F80022844B1A7007E0013BDAB2804B1A700120202109F0AC
:4045000021F97C4BDB78DBB20C2B4BD17A4B1B78042B47D10120392109F0DCF84FF4FA700EF090F80024764B1C7001203C2109F0D1F8714B1A78734B1A70734B1C6008E0E4
:40454000591C6E48034493F88E006E4B58546E4B19606D4B1B689A42F2D840F29F2069490AF05CF878B90120552109F0B3F84FF4FA700EF067F801202E2109F0ABF80022A3
:404580005F4B1A700EE001203C2109F0A3F84FF4FA700EF057F801202E2109F09BF80022574B1A7064200EF04DF80DF0EBFB38BD0DF0BEFB082840F0F1804E4B1B78DBB2A4
:4045C000AA2B5FD14B4B9B79DBB2C32B5AD1494BDB79DBB23C2B55D1464BDB78DBB2BC2B08D002D87E2B46D04CE0BD2B1AD0BE2B31D047E0454901240C704C704FF47D7071
:404600000AF00CF82046392109F064F84FF42F700EF018F82046702109F05CF80E22384B1A702FE0394901240C7002234B704FF47D7009F0F3FF2046392109F04BF84FF48A
:404640002F700DF0FFFF2046702109F043F80E222B4B1A7016E00120062109F03BF801222B4B1A700023244A13702A4A13700522234B1A7006E00120702109F02BF80E22AA
:404680001F4B1A7064200DF0DDFF0DF07BFB38BD0DF04EFB082840F08180164B1B78DBB2AA2B76D1134B9B79DBB2C32B71D1114BDB79DBB23C2B6CD10E4BDB78763B0D2B58
:4046C00067D8DFE803F0074E6666666666665F6666662D3D0120302108F0FCFF00230E4A1370054A137001220C4B1A701822044B1A704EE0788CFF1FF185FF1F7888FF1FBF
:404700002F83FF1F0C81FF1F2C84FF1F6C88FF1F7088FF1F3283FF1F3C86FF1F6A8AFF1F0120302108F0D6FF01231D4A137000211C4A11701C4A137018221C4B1A7028E0D2
:404740000120302108F0C6FF0222154B1A700022144B1A700122144B1A701822134B1A7017E00120302108F0B5FF03220C4B1A7000220C4B1A7001220B4B1A7018220B4B12
:404780001A7006E001205F2108F0A4FF1B22074B1A7064200DF056FF0DF0F4FA38BD00BF3C86FF1FF185FF1F6A8AFF1F2F83FF1F10B5A64B1B78212B01F25483DFE813F040
:4047C00022009C00F800520B5C01D6016B02DE02520B720341048404F104700599057C06520B520B520B9207520B520B520B520B520B520B3B080C09B909520B520B310A0F
:40480000520BF70A924B1B78012B03D1914B1A788E4B1A70904B1B78012B06D18F4B1A788F4B1A7001228F4B1A700DF081FA082841F018838C4B1B78DBB2AA2B56D18A4BD5
:404840009B79DBB2C32B51D1874BDB79DBB23C2B4CD1854BDB78DBB2562B02D0572B1FD044E07D4B1B78012B04D17C4B1A787C4B1A7008E00120632108F02CFF0123794A1B
:404880001370774A1370724B1B78012B04D1714B1A786E4B1A7029E000226C4B1A7025E00120632108F016FF02226E4B1A706A4B1B78012B04D1694B1A78694B1A7002E016
:4048C0000022674B1A70624B1B78012B04D1614B1A785E4B1A7009E00120632108F0FAFE0222604B1A700122584B1A7064200DF0A9FE0DF047FA10BD0DF01AFA082841F0DC
:40490000B182594B1B78DBB2AA2B4BD1564B9B79DBB2C32B46D1544BDB79DBB23C2B41D1514BDB78DBB25C2B0AD004D8452B0FD0592B18D036E07E2B25D0942B2BD031E05C
:404940000120492108F0C6FE0222404B1A7029E00120252108F0BEFE0022444B1A700F223A4B1A701EE001202B2108F0B3FE4FF42F700DF067FE01202E2108F0ABFE00228D
:40498000324B1A700EE001202E2108F0A3FE00222E4B1A7006E001202E2108F09BFE00222A4B1A7064200DF04DFE0DF0EBF910BD0DF0BEF9082841F055822B4B1B78DBB2D0
:4049C000AA2B3CD1284B9B79DBB2C32B37D1264BDB79DBB23C2B32D1234BDB78DBB25F2B08D002D85E2B10D029E07E2B18D0942B1ED024E001200B2108F06CFE00221C4B99
:404A0000DA700A22114B1A7019E001201D2108F061FE0022174B1A700B220C4B1A700EE001202E2108F056FE0022084B1A7006E00120632108F04EFE0122044B1A70642057
:404A40000DF000FE0DF09EF910BD00BFEC85FF1FC785FF1F3083FF1F508AFF1FEF85FF1F2F83FF1F1089FF1F788CFF1FF185FF1F6C8AFF1FD285FF1F0DF05AF9082841F050
:404A8000F181A94B1B78DBB2AA2B69D1A64B9B79DBB2C32B64D1A44BDB79DBB23C2B5FD1A24AD37823F00303D3709F4BDB78DBB23B2B3ED004D80F2B09D0102B1BD04FE030
:404AC0007E2B3ED0942B44D0432B49D129E00120062108F0FFFD0022954B1A700120242108F030FE914AD37843F00203D3700522904B1A7034E001200D2108F0EBFD0022B5
:404B00008B4B1A708C4B1A700120472108F01AFE864AD37843F00103D3700522854B1A701EE00120072108F0D5FD0622814B1A7016E001202E2108F0CDFD00227D4B1A70DA
:404B40000EE001202E2108F0C5FD0022794B1A7006E001200B2108F0BDFD0A22754B1A7064200DF06FFD0DF00DF910BD0DF0E0F8082841F077816C4B1B78DBB2AA2B40F08B
:404B80008480694B9B79DBB2C32B7ED1664BDB79DBB23C2B79D1664B1B78684A1278013A93423EDC604AD278D2B2092A0FD80133DAB25F4B1A705C48C1785C4B13443031B0
:404BC000D972C17830310120C9B208F0BBFD564BDB78DBB20A2B0BD1554B1A780132D2B21A70524B13443021D972012008F0AAFD4D4BDB78DBB2512B13D14D4B1B7883B1F8
:404C00004D4A12786AB90133DAB2494B1A70474B13442C21D972012008F094FD0122464B1A70414BDB78DBB20B2B1BD1404B1A783AB90120052108F04DFD04223D4B1A708A
:404C400010E00120202108F07DFD394B1B78374A1A44D27A2C2A02D10021374A1170013B334A1370304BDB78DBB20C2B0DD1304B1B7853B10120072108F02CFD2C4B1A78B1
:404C80002A4BDA7206222B4B1A7064200DF0DAFC0DF078F810BD0DF04BF8082820D1224B1B78DBB2AA2B15D11F4B9B79DBB2C32B10D11D4BDB79DBB23C2B0BD11A4BDB78B3
:404CC000DBB27E2B06D101202E2108F003FD0022184B1A7064200DF0B5FC0DF053F810BD174B187804F088F8072841F0BB8032200DF0A8FC124B187804F092F80146114BE7
:404D000018700A4BDB7813F003031FD00C4A10780D4A07F073FEC8B901202E2108F0DAFC0022044B1A7010BD788CFF1F6C8AFF1FF185FF1FEC85FF1F3283FF1FD485FF1F84
:404D40003483FF1FC085FF1F778AFF1F9F4C207804F066F89E4B1870207840F010000CF0A1FE0120082108F0B5FC0723994A1370994A13700122994B1A7010BD32200DF08D
:404D800061FC924B187804F037F80638052801F26980DFE810F07000670867087C003B00060064200DF04EFC884B187804F0ACF801280ED18A4B1B785BB9392108F08AFCCB
:404DC0000022864B1A7014200DF03CFC0D22814B1A707E4B187804F097F8012841F042807F4B1B78012B41F03D800C2108F072FC00247A4B1C704FF4FA700DF023FC0120E7
:404E00002E2108F067FC734B1C7010BD64200DF019FC6E4B187804F077F801280ED1704B1B785BB9392108F055FC00226B4B1A7014200DF007FC0D22664B1A70634B187824
:404E400004F062F8012841F00D80654B1B78012B41F008800C2108F03DFC00245F4B1C704FF4FA700DF0EEFB01202E2108F032FC584B1C7010BD01202E2108F02BFC002346
:404E8000564A1370574AD370524A137010BD32200DF0D8FB01202E2108F01CFC00224D4B1A7010BD0CF044FF082840F0DB874E4B1B78DBB2AA2B40F0BE804B4B9B79DBB218
:404EC000C32B40F0B880484BDB79DBB23C2B40F0B280464B1B78062B65D8434AD278D2B2092A10D80133DAB2404B1A703E48C1783C4B1344303183F86510C1783031012099
:404F0000C9B208F01FFC384BDB78DBB20A2B0CD1364B1A780132D2B21A70324B1344302183F86510012008F00DFC2F4BDB78DBB26A2B0CD12D4B1A780132D2B21A70294B58
:404F400013442D2183F86510012008F0FBFB264BDB78DBB21A2B26D9234BDB78DBB2422B21D80022224B1A6019E01F4AD278D2B220491944097A8A420DD11C490A780132FE
:404F8000D2B20A704133D9B2164B134483F86510012008F0D7FB164A136801331360144B1B68192BE1D9104BDB78DBB20B2B2BD10E4B1A7802BB01202E2108F08BFB0023D9
:404FC000084A82F86530034A13701DE03483FF1FC085FF1FEC85FF1F3083FF1FC785FF1F8083FF1F6C8AFF1F788CFF1FF185FF1F2C84FF1F0C81FF1F0120202108F0A2FB26
:40500000A14A1378013B1370A04BDB78DBB20C2B11D19D4B1B7873B10120052108F05AFB9B4B994A127883F86520012283F883200422984B1A7064200DF004FB0CF0A2FEE1
:4050400010BD0CF075FE082840F00C878F4B1B78DBB2AA2B32D18D4B9B79DBB2C32B2DD18A4BDB79DBB23C2B28D1884BDB78DBB2392B04D07E2B1AD0382B1FD10CE00120D6
:405080000A2108F027FB00237F4A1370824A13700922804B1A7011E00120052108F01AFB01227D4B1A7004227A4B1A7006E001202E2108F00FFB0022764B1A7064200DF0F8
:4050C000C1FA0CF05FFE10BD0320012109F05CFC052840D90A200DF0B5FA0320212109F053FC052837D9032009F044FB012832D133200CF065FE0120332109F09FFB50B3EF
:405100000022664B1A600AE0012009F001FC604B1C4484F82900614A1368013313605F4B1C68072CF0D90120132108F0D3FA584CE37843F00403E3704FF4FA700DF082FAAE
:4051400001200E2108F0C6FA00234F4A137023710C22504B1A700CF0EBFD082840F082864A4B1B78DBB2AA2B15D1484B9B79DBB2C32B10D1454BDB79DBB23C2B0BD1434B00
:40518000DB78DBB23B2B06D10120492108F0A2FA0222404B1A7064200DF054FA0CF0F2FD10BD0CF0C5FD082840F05C86374B1B78DBB2AA2B62D1354B9B79DBB2C32B5DD10C
:4051C000324BDB79DBB23C2B58D12F4B1B78052B25D82E4AD278D2B2092A0FD80133DAB2294B1A702948C178294B134430311971C17830310120C9B208F0A4FA234BDB787C
:40520000DBB20A2B0BD1204B1A780132D2B21A701F4B134430211971012008F093FA1B4BDB78DBB20B2B12D1174B1A783AB90120052108F04FFA0422164B1A7007E0012069
:40524000202108F07FFA104A1378013B13700F4BDB78DBB20C2B11D10B4B1B7873B10C4B5B79302B0AD00120052108F033FA064B1A78074B1A710422064B1A7064200DF06A
:40528000E1F90CF07FFD10BDF185FF1F788CFF1F6C8AFF1FEC85FF1F8083FF1FF485FF1F974B5878974B19780022974B1B780AF0AFFA964B5B788BB901200C2108F00AFA1D
:4052C0004FF42F700DF0BEF90024914BDC7001202E2108F0FFF98F4B1C7010BD0120312108F0F8F900228C4B1A702122894B1A7010BD0CF01DFD082840F0B485874B1B78D8
:40530000DBB2AA2B40F0D280844B9B79DBB2C32B40F0CC80814BDB79DBB23C2B40F0C6807E4BDB78583B3E2B00F2C080DFE803F020BE5464BE30BEBEBEBEBEBEBE7FBEBE70
:40534000BEBEBEBEBEBEBEBE9FBEBEBEBEBEBEBEBEBEBEBEBEBEAFBEBEBEBEBEBEBEBEBEBEBEBEBEBEBEBEBEBEBEBE8FB7BE740001202B2108F0AEF94FF42F700DF062F9B3
:405380000120702108F0A6F90E22624B1A708DE001205C2108F09EF901200021D62240F2AD1308F093FB01200021892240F2A71308F08CFB01200146242240F2B31308F0FB
:4053C00085FB0120014678224FF47A7308F07EFB1322504B1A7069E001202B2108F07AF94FF42F700DF02EF90120702108F072F90E22484B1A7059E001202B2108F06AF9A6
:405400004FF42F700DF01EF90120702108F062F90E22404B1A7049E001205F2108F05AF900223F4B1A701B223A4B1A703EE001202B2108F04FF94FF42F700DF003F90120CE
:40544000702108F047F90E22324B1A702EE001202B2108F03FF94FF42F700DF0F3F80120702108F037F90E222A4B1A701EE001202B2108F02FF94FF42F700DF0E3F8012048
:40548000702108F027F90E22224B1A700EE001202E2108F01FF900221E4B1A7006E001202E2108F017F900221A4B1A7064200DF0C9F80CF067FC10BD0CF03AFC082840F02A
:4054C000D184164B1B78DBB2AA2B40F0CB84134B9B79DBB2C32B40F0C584104BDB79DBB23C2B40F0BF840D4BDB78DBB27E2B19D10120312108F0EEF80022064B1A701DE0F0
:405500007488FF1FC085FF1F3483FF1F2C83FF1F6C8AFF1FEC85FF1F1189FF1F788CFF1FF185FF1FA34BDB78DBB2942B06D10120632108F0CFF801229F4B1A709F4B1A7860
:40554000072A26D89B4BDB78DBB2092B0ED8994BD9789B4B1344303183F88E1001202A2108F0F0F8954A137801331370914BDB78DBB20A2B0DD1914C2278914B13443021F9
:4055800083F88E1001202A2108F0DCF8237801332370884BDB78DBB20B2B1AD1874B1B787BB90120392108F095F84FF4FA700DF049F801202E2108F08DF80022814B1A707B
:4055C00007E0013BDAB27D4B1A700120202108F0B9F8784BDB78DBB20C2B7DD1774B1978002979D00023784A1360784A136015E0581C774A024492F8D720714C234493F885
:405600008E30303B9A4204D16F4A13680133136002E000226C4B1A606C4B186008466B4B1B689942E4D86A4B93F8D720664B1B689A420FD10120262108F04CF84FF4FA70BB
:405640000DF000F80120702108F044F80E225D4B1A7041E000235C4A13605C4A136010E05C4A1A4492F82410554A1A4492F88E20914203D154490A6801320A600133534A6C
:405680001360524B1B689842EAD84F4B1B68082B13D10120262108F01DF84FF4FA700CF0D1FF01205D2108F015F80120702108F011F80E22434B1A700EE00120272108F0AB
:4056C00009F84FF4FA700CF0BDFF01202E2108F001F800223B4B1A7064200CF0B3FF0CF051FB10BD0CF024FB082840F0BB83314B1B78DBB2AA2B40F098802E4B9B79DBB2DE
:40570000C32B40F092802B4BDB79DBB23C2B40F08C80284BDB787E3B162B00F28680DFE803F0750C20346184848484848484848484848484848484847D000120062107F017
:40574000C9FF00221D4B1A70234B1978204B83F8A3100120242107F0F5FF1A22194B1A7063E00120062107F0B5FF0022134B1A701A4B1978164B83F8A3100120242107F018
:40578000E1FF1A220F4B1A704FE00120062107F0A1FF0022094B1A70114B19780C4B83F8A3100120242107F0CDFF1A22054B1A703BE000BF788CFF1F2F83FF1FF185FF1FCA
:4057C0006C8AFF1FEC85FF1F3887FF1F2C84FF1F1889FF1F0C81FF1F3287FF1F3787FF1F1689FF1F0120062107F074FF0022AA4B1A70AA4B1978AA4B83F8A310012024211F
:4058000007F0A0FF1A22A74B1A700EE001202E2107F060FF0022A34B1A7006E00120702107F058FF0E229F4B1A7064200CF00AFF0CF0A8FA10BD0CF07BFA082840F01283E8
:40584000994B1B78DBB2AA2B40F0C080964B9B79DBB2C32B40F0BA80934BDB79DBB23C2B40F0B4808C4B1B78062B25D88E4AD278D2B2092A0FD80133DAB2874B1A708A4835
:40588000C1788A4B13443031D972C17830310120C9B207F057FF844BDB78DBB20A2B0BD17D4B1A780132D2B21A70804B13443021D972012007F046FF7B4BDB78DBB20B2B02
:4058C0001BD1754B1A783AB90120702107F002FF0E22744B1A7010E00120202107F032FF6D4B1B78714A1A44D27A2C2A02D100216F4A1170013B684A13706B4BDB78DBB29F
:405900000C2B63D1644B1B78032B5FD90622654B1A700120392107F0DDFE5F4B1A78634BDA72644B187807F00DFC00283FD05C4B93F8A320604B1B789A4204D140F2A7102C
:405940005E4908F06BFE564B93F8A3205C4B1B789A4204D140F2B310584908F05FFE504B93F8A320574B1B789A4204D140F2AD10524908F053FE4A4B93F8A320474B1B78B0
:405980009A4204D14FF47A704C4908F047FE01203C2107F09FFE4FF4FA700CF053FE0120702107F097FE0E223E4B1A700EE00120552107F08FFE4FF42F700CF043FE012061
:4059C0002E2107F087FE0022364B1A7064200CF039FE0CF0D7F910BD0CF0AAF9082840F04182314B1B78DBB2AA2B40F09C802E4B9B79DBB2C32B40F096802B4BDB79DBB23B
:405A00003C2B40F09080284BDB787E3B162B00F28A80DFE803F0790C305969888888888888888888888888888888888881000120582107F04FFE0120002173224FF41F73BF
:405A400008F0A6F801200021CF2240F27E2308F09FF801200146292240F27A2308F098F8012001467B224FF47C7308F091F81C220C4B1A7057E001202B2107F02BFE4FF413
:405A80002F700CF0DFFD0120702107F023FE0E22044B1A7047E000BFF185FF1F3487FF1F1889FF1FEC85FF1F788CFF1F9086FF1F3283FF1F3483FF1F3287FF1F9B86FF1FE7
:405AC0001689FF1F3787FF1F01202B2107F002FE4FF42F700CF0B6FD0120702107F0FAFD0E22784B1A701EE001202B2107F0F2FD4FF42F700CF0A6FD0120702107F0EAFD99
:405B00000E22704B1A700EE001202E2107F0E2FD00226C4B1A7006E00120702107F0DAFD0E22684B1A7064200CF08CFD0CF02AF910BD0CF0FDF8082840F09481624B1B78EB
:405B4000DBB2AA2B67D1604B9B79DBB2C32B62D15D4BDB79DBB23C2B5DD15B4BDB787E3B162B58D8DFE803F0480C1B2A39575757575757575757575757575757575750003A
:405B80000120062107F0A6FD0022504B1A7001224F4B83F8A3201F224A4B1A703BE00120062107F097FD0022484B1A700222484B83F8A3201F22434B1A702CE00120062192
:405BC00007F088FD0022414B1A700322404B83F8A3201F223B4B1A701DE00120062107F079FD0022394B1A700422394B83F8A3201F22344B1A700EE001202E2107F06AFDE2
:405C00000022304B1A7006E00120702107F062FD0E222C4B1A7064200CF014FD0CF0B2F810BD0CF085F8082840F01C81264B1B78DBB2AA2B40F0B580234B9B79DBB2C32BDC
:405C400040F0AF80204BDB79DBB23C2B40F0A9801E4B1B782BBB1C4AD278D2B2092A0FD80133DAB2194B1A701748C178194B13443031D972C17830310120C9B207F062FD50
:405C8000114BDB78DBB20A2B0BD1104B1A780132D2B21A700F4B13443021D972012007F051FD094BDB78DBB20B2B26D1074B1A7892B901202E2107F00DFD0022014B1A70BD
:405CC0001BE000BFEC85FF1F788CFF1FF185FF1F1889FF1F6C8AFF1F0120202107F032FD614B1B78614A1A44D27A2C2A02D100215F4A1170013B5C4A13705E4BDB78DBB254
:405D00000C2B4ED1584B1B78012B4AD10120392107F0E0FC544B1A78544BDA72564B93F8A330022B08D151490A7B544B1A704FF41F700B3108F072FC4F4B93F8A330012B41
:405D400008D14A490A7B4E4B1A7040F27A200B3108F064FC484B93F8A330032B08D143490A7B484B1A7040F27E200B3108F056FC414B93F8A330042B08D13C490A7B424BAA
:405D80001A704FF47C700B3108F048FC4FF4FA700CF058FC0120702107F09CFC0E223B4B1A7064200CF04EFC0BF0ECFF10BD0BF0BFFF082856D12F4B1B78DBB2AA2B4CD11B
:405DC0002C4B9B79DBB2C32B47D12A4BDB79DBB23C2B42D1274BDB78DBB20A2B2ED101222B4B1A6010E02B4B58782B4B197801222A4B1B7809F00CFD4FF4FA700CF022FCEB
:405E0000234A136801331360254B1B7803F00F031F4A12689342E6D201200C2107F05AFC4FF42F700CF00EFC00241E4BDC7001202E2107F04FFC154B1C700EE001200C2125
:405E400007F048FC4FF42F700CF0FCFB01202E2107F040FC00220D4B1A7064200CF0F2FB0BF090FF10BD00BFF185FF1F6C8AFF1F3283FF1F788CFF1F1889FF1F3287FF1FB5
:405E80001689FF1F3787FF1F3487FF1FEC85FF1FF485FF1F7488FF1FC085FF1F3483FF1F048BFF1F7888FF1F10B5A24B1B78212B01F25483DFE813F022009500F100520B03
:405EC0005601D0016902D802520B700340048304F00473059C059006520B520B520B9407520B520B520B520B520B520B39080A09B709520B520B2F0A520BF50A8E4B1B7848
:405F0000012B03D18D4B1A788A4B1A708C4B1B78012B06D18B4B1A788B4B1A7004228B4B1A700BF0F7FF082841F01883884B1B78DBB2AA2B4FD1864B9B79DBB2C32B4AD18D
:405F4000834BDB79DBB23C2B45D1814BDB78DBB2562B21D0572B3ED1774B1B78012B04D1764B1A78734B1A7009E00220632107F0B1FB0322754B1A7001226E4B1A70704B93
:405F80001B78012B04D16F4B1A786F4B1A7022E000226D4B1A701EE06E4B1B78012B04D1664B1A78634B1A7002E00022614B1A70634B1B78012B04D1624B1A78624B1A709F
:405FC00009E00220632107F085FB04225F4B1A7001225D4B1A7064200CF034FB0BF0C4FF10BD0BF097FF082841F0B882584B1B78DBB2AA2B4BD1564B9B79DBB2C32B46D18B
:40600000534BDB79DBB23C2B41D1514BDB78DBB25C2B0AD004D8452B0FD0592B18D036E07E2B25D0942B2BD031E00220492107F051FB02223F4B1A7029E00220252107F006
:4060400049FB0022444B1A700F223A4B1A701EE002202B2107F03EFB4FF4FA700CF0F2FA02202E2107F036FB0022324B1A700EE002202E2107F02EFB00222E4B1A7006E0E4
:4060800002202E2107F026FB00222A4B1A7064200CF0D8FA0BF068FF10BD0BF03BFF082841F05C822A4B1B78DBB2AA2B3CD1284B9B79DBB2C32B37D1254BDB79DBB23C2B08
:4060C00032D1234BDB78DBB25F2B08D002D85E2B10D029E07E2B18D0942B1ED024E002200B2107F0F7FA00221C4BDA700A22114B1A7019E002201D2107F0ECFA0022184B89
:406100001A700B220B4B1A700EE002202E2107F0E1FA0022074B1A7006E00220632107F0D9FA0122034B1A7064200CF08BFA0BF01BFF10BDC485FF1F3387FF1FED85FF1F92
:406140003183FF1F6988FF1F3A86FF1FEA85FF1F8C8CFF1F508AFF1F1189FF1F9086FF1F8083FF1F0BF0D6FE082841F0F781994B1B78DBB2AA2B69D1964B9B79DBB2C32B6D
:4061800064D1944BDB79DBB23C2B5FD1924AD37823F00303D3708F4BDB78DBB23B2B3ED004D80F2B09D0102B1BD04FE07E2B3ED0942B44D0432B49D129E00220062107F003
:4061C00089FA0022854B1A700220242107F0BAFA814AD37843F00203D3700522804B1A7034E002200D2107F075FA00227B4B1A707C4B1A700220472107F0A4FA764AD378CA
:4062000043F00103D3700522754B1A701EE00220072107F05FFA0622714B1A7016E002202E2107F057FA00226D4B1A700EE002202E2107F04FFA0022694B1A7006E0022053
:406240000B2107F047FA0A22654B1A7064200CF0F9F90BF089FE10BD0BF05CFE082841F07D815C4B1B78DBB2AA2B40F08880594B9B79DBB2C32B40F08280564BDB79DBB224
:406280003C2B7CD1554B1B78574A1278013A93423EDC504AD278D2B2092A0FD80133DAB24E4B1A704B48C1784B4B13443031D972C17830310220C9B207F044FA454BDB7889
:4062C000DBB20A2B0BD1454B1A780132D2B21A70414B13443021D972022007F033FA3D4BDB78DBB2512B13D13C4B1B7883B13D4A12786AB90133DAB2384B1A70364B1344E9
:406300002C21D972022007F01DFA0122354B1A70304BDB78DBB20B2B1BD1304B1A783AB90220052107F0D6F904222D4B1A7010E00220202107F006FA284B1B78264A1A4497
:40634000D27A2C2A02D10021264A1170013B234A1370204BDB78DBB20C2B10D11F4B1B786BB1224B1B7853B90220072107F0B2F91A4B1A78184BDA720622194B1A706420B6
:406380000CF060F90BF0F0FD10BD0BF0C3FD08282ED1104B1B78DBB2AA2B15D10D4B9B79DBB2C32B10D10B4BDB79DBB23C2B0BD1084BDB78DBB27E2B06D102202E2107F056
:4063C00089F90022064B1A7064200CF03BF90BF0CBFD10BD8C8CFF1F9086FF1F1189FF1FC485FF1FF285FF1FD485FF1F7088FF1F9B4B187802F000FD072841F0AF803220E9
:406400000CF020F9964B187802F00AFD0146954B1870954BDB7813F003030DD0904A1078924A06F0EBFA38B902202E2107F052F900228F4B1A7010BD894C207802F0F0FCBA
:40644000884B1870207840F010000BF02BFB0220082107F03FF90723854A1370854A13700122854B1A7010BD32200CF0EBF87C4B187802F0C1FC0638052801F26F80DFE8EB
:4064800010F074006D086D0880003D00060064200CF0D8F8724B187802F036FD01280FD1764B1B7863B90220392107F013F90022714B1A7014200CF0C5F80D226C4B1A703C
:4064C000674B187802F020FD012841F047806B4B1B78012B41F0428002200C2107F0FAF80024654B1C704FF4FA700CF0ABF802202E2107F0EFF85E4B1C7010BD64200CF00D
:40650000A1F8574B187802F0FFFC01280FD15B4B1B7863B90220392107F0DCF80022564B1A7014200CF08EF80D22514B1A704C4B187802F0E9FC012841F010804F4B1B7891
:40654000012B41F00B8002200C2107F0C3F80024494B1C704FF4FA700CF074F802202E2107F0B8F8424B1C7010BD02202E2107F0B1F80023404A13703B4AD3703C4A1370C9
:4065800010BD32200CF05EF802202E2107F0A2F80022374B1A7010BD0BF0BCFC082840F0DD87374B1B78DBB2AA2B40F0BF80344B9B79DBB2C32B40F0B980314BDB79DBB23C
:4065C0003C2B40F0B3802F4B1B78062B7CD82C4AD278D2B2092A10D80133DAB2294B1A702748C178204B1344303183F86510C17830310220C9B207F0A5F8214BDB78DBB250
:406600000A2B0CD11F4B1A780132D2B21A70164B1344302183F86510022007F093F8184BDB78DBB26A2B0CD1164B1A780132D2B21A700D4B13442D2183F86510022007F07F
:4066400081F80F4BDB78DBB21A2B3DD90C4BDB78DBB2422B38D800220B4B1A6030E000BF4086FF1F6F88FF1F9086FF1F9B86FF1FC485FF1FED85FF1F3387FF1FD285FF1FE7
:406680008C8CFF1F1189FF1F2C84FF1FA94AD278D2B2A9491944097A8A420DD1A7490A780132D2B20A704133D9B2A54B134483F86510022007F046F8A24A136801331360A3
:4066C000A04B1B68192BE1D99A4BDB78DBB20B2B15D19A4B1A7852B902202E2106F0FAFF0023974A82F86530974A137007E00220202107F027F8914A1378013B13708D4B97
:40670000DB78DBB20C2B11D18C4B1B7873B10220052106F0DFFF8A4B884A127883F86520012283F883200422874B1A7064200BF089FF0BF019FC10BD0BF0ECFB082840F09C
:406740000D877C4B1B78DBB2AA2B32D1794B9B79DBB2C32B2DD1774BDB79DBB23C2B28D1744BDB78DBB2392B04D07E2B1AD0382B1FD10CE002200A2106F0ACFF00236F4AFF
:406780001370724A137009226F4B1A7011E00220052106F09FFF01226C4B1A7004226A4B1A7006E002202E2106F094FF0022664B1A7064200BF046FF0BF0D6FB10BD022056
:4067C000012108F0E1F8052840D90A200BF03AFF0220212108F0D8F8052837D9022007F0C9FF012832D133200BF0DCFB0220332108F024F850B30022554B1A600AE0022092
:4068000008F086F84E4B1C4484F82900504A1368013313604E4B1C68072CF0D90220132106F058FF464CE37843F00403E3704FF4FA700BF007FF02200E2106F04BFF0023F0
:406840003E4A137023710C223F4B1A700BF062FB082840F08386374B1B78DBB2AA2B15D1344B9B79DBB2C32B10D1324BDB79DBB23C2B0BD12F4BDB78DBB23B2B06D10220D0
:40688000492106F027FF02222F4B1A7064200BF0D9FE0BF069FB10BD0BF03CFB082840F05D86244B1B78DBB2AA2B72D1214B9B79DBB2C32B6DD11F4BDB79DBB23C2B68D168
:4068C0001E4B1B78052B25D81A4AD278D2B2092A0FD80133DAB2194B1A701648C178184B134430311971C17830310220C9B206F029FF104BDB78DBB20A2B0BD10F4B1A78AC
:406900000132D2B21A700E4B134430211971022006F018FF074BDB78DBB20B2B22D1074B1A78BAB90220052106F0D4FE0422064B1A7017E08C8CFF1F0C81FF1F1189FF1F09
:406940009086FF1F2C84FF1FC485FF1FD285FF1FF485FF1F0220202106F0F4FE964A1378013B1370954BDB78DBB20C2B11D1924B1B7873B1924B5B79302B0AD00220052192
:4069800006F0A8FE8C4B1A788D4B1A7104228D4B1A7064200BF056FE0BF0E6FA10BD8A4B58788A4B19780022894B1B7808F030FF884B5B788BB902200C2106F08BFE4FF4B6
:4069C00016700BF03FFE00247D4BDC7002202E2106F080FE7B4B1C7010BD0220312106F079FE0022744B1A702122764B1A7010BD0BF090FA082840F0B185704B1B78DBB200
:406A0000AA2B40F0D2806D4B9B79DBB2C32B40F0CC806A4BDB79DBB23C2B40F0C680674BDB78583B3E2B00F2C080DFE803F020BE5464BE30BEBEBEBEBEBEBE7FBEBEBEBEAF
:406A4000BEBEBEBEBEBE9FBEBEBEBEBEBEBEBEBEBEBEBEBEAFBEBEBEBEBEBEBEBEBEBEBEBEBEBEBEBEBEBEBEBE8FB7BE740002202B2106F02FFE4FF4FA700BF0E3FD022023
:406A8000702106F027FE0E224E4B1A708DE002205C2106F01FFE02200021D62240F2AD1307F014F802200021892240F2A71307F00DF802200121242240F2B31307F006F83B
:406AC0000220012178224FF47A7306F0FFFF13223C4B1A7069E002202B2106F0FBFD4FF4FA700BF0AFFD0220702106F0F3FD0E22344B1A7059E002202B2106F0EBFD4FF4BB
:406B0000FA700BF09FFD0220702106F0E3FD0E222C4B1A7049E002205F2106F0DBFD0022254B1A701B22274B1A703EE002202B2106F0D0FD4FF4FA700BF084FD0220702181
:406B400006F0C8FD0E221F4B1A702EE002202B2106F0C0FD4FF4FA700BF074FD0220702106F0B8FD0E22174B1A701EE002202B2106F0B0FD4FF4FA700BF064FD02207021A9
:406B800006F0A8FD0E220F4B1A700EE002202E2106F0A0FD00220B4B1A7006E002202E2106F098FD0022074B1A7064200BF04AFD0BF0DAF910BD00BF1189FF1F8C8CFF1F44
:406BC0009086FF1FC485FF1F1489FF1F6F88FF1F4086FF1F688AFF1F0BF09CF9082840F0BD84A94B1B78DBB2AA2B40F0B784A64B9B79DBB2C32B40F0B184A34BDB79DBB2FD
:406C00003C2B40F0AB84A04BDB78DBB27E2B07D10220312106F05EFD00229C4B1A700BE0994BDB78DBB2942B06D10220632106F051FD0122954B1A70954B1A78072A26D88D
:406C4000914BDB78DBB2092B0ED88F4BD978914B1344303183F88E1002202A2106F072FD8B4A137801331370874BDB78DBB20A2B0DD1874C2278874B1344302183F88E10B8
:406C800002202A2106F05EFD2378013323707E4BDB78DBB20B2B1AD17D4B1B787BB90220392106F017FD4FF4FA700BF0CBFC02202E2106F00FFD0022744B1A7007E0013B65
:406CC000DAB2734B1A700220202106F03BFD6E4BDB78DBB20C2B7DD16D4B1978002979D000236D4A13606D4A136015E0581C6C4A024492F8D720674C234493F88E30303B2B
:406D00009A4204D1644A13680133136002E00022614B1A60614B18600846604B1B689942E4D85F4B93F8D7205B4B1B689A420FD10220262106F0CEFC4FF4FA700BF082FC11
:406D40000220702106F0C6FC0E22504B1A7041E00023514A1360514A136010E0514A1A4492F824104B4A1A4492F88E20914203D149490A6801320A600133484A1360474B0E
:406D80001B689842EAD8444B1B68082B13D10220262106F09FFC4FF4FA700BF053FC01205D2106F097FC0220702106F093FC0E22364B1A700EE00220272106F08BFC4FF4E7
:406DC000FA700BF03FFC02202E2106F083FC00222E4B1A7064200BF035FC0BF0C5F810BD0BF098F8082840F0B983274B1B78DBB2AA2B40F09480244B9B79DBB2C32B40F0B3
:406E00008E80214BDB79DBB23C2B40F088801E4BDB787E3B162B00F28280DFE803F0710C20495D808080808080808080808080808080808079000220062106F04BFC002210
:406E4000134B1A70184B1978154B83F8A3100220242106F077FC1A220C4B1A705FE00220062106F037FC0022094B1A700F4B19780B4B83F8A3100220242106F063FC1A22A3
:406E8000024B1A704BE000BF8C8CFF1FC485FF1F1189FF1F9086FF1F3887FF1F2C84FF1F1889FF1F0C81FF1F3D86FF1F2E83FF1F0220062106F00EFC0022AC4B1A70AC4BE0
:406EC0001978AC4B83F8A3100220242106F03AFC1A22A94B1A7022E00220062106F0FAFB0022A24B1A70A54B1978A24B83F8A3100220242106F026FC1A229F4B1A700EE007
:406F000002202E2106F0E6FB00229B4B1A7006E00220702106F0DEFB0E22974B1A7064200BF090FB0BF020F810BD0AF0F3FF082840F01483924B1B78DBB2AA2B40F0C08064
:406F40008F4B9B79DBB2C32B40F0BA808C4BDB79DBB23C2B40F0B480844B1B78062B25D8874AD278D2B2092A0FD80133DAB27F4B1A708348C178834B13443031D972C17850
:406F800030310220C9B206F0DDFB7D4BDB78DBB20A2B0BD1754B1A780132D2B21A70794B13443021D972022006F0CCFB744BDB78DBB20B2B1BD16D4B1A783AB90220702172
:406FC00006F088FB0E226C4B1A7010E00220202106F0B8FB654B1B786A4A1A44D27A2C2A02D10021684A1170013B604A1370644BDB78DBB20C2B63D15C4B1B78032B5FD98A
:4070000006225D4B1A700220392106F063FB574B1A785C4BDA725D4B187805F031FF00283FD0544B93F8A320594B1B789A4204D140F2A710574907F0F1FA4E4B93F8A32044
:407040004B4B1B789A4204D140F2B310514907F0E5FA484B93F8A3204F4B1B789A4204D140F2AD104B4907F0D9FA424B93F8A320424B1B789A4204D14FF47A70454907F067
:40708000CDFA02203C2106F025FB4FF4FA700BF0D9FA0220702106F01DFB0E22364B1A700EE00220552106F015FB4FF4FA700BF0C9FA02202E2106F00DFB00222E4B1A7072
:4070C00064200BF0BFFA0AF04FFF10BD0AF022FF082840F043822A4B1B78DBB2AA2B40F09C80274B9B79DBB2C32B40F09680244BDB79DBB23C2B40F09080214BDB787E3B97
:40710000162B00F28A80DFE803F0790C495969888888888888888888888888888888888881000220582106F0D5FA0220002173224FF4936306F02CFD02200021CF2240F249
:407140009A4306F025FD02200121292240F29C4306F01EFD022001217B2240F29E4306F017FD1C22044B1A7057E000BF1189FF1FD385FF1F1889FF1FC485FF1FC685FF1FA1
:407180008C8CFF1F7888FF1FF285FF1F4086FF1F3D86FF1F8388FF1F2E83FF1F02202B2106F098FA4FF4FA700BF04CFA0220702106F090FA0E22804B1A702EE002202B2111
:4071C00006F088FA4FF4FA700BF03CFA0220702106F080FA0E22784B1A701EE002202B2106F078FA4FF4FA700BF02CFA0220702106F070FA0E22704B1A700EE002202E2110
:4072000006F068FA00226C4B1A7006E00220702106F060FA0E22684B1A7064200BF012FA0AF0A2FE10BD0AF075FE082840F09681624B1B78DBB2AA2B67D1604B9B79DBB241
