:400000000080002011000000EDC60000EDC6000008B5044B1A6803F53F5302331A600CF067FB00BFFA46004010B5054C237833B9044B13B10448AFF300800123237010BDA3
:40004000F082FF1F00000000C8D70000084B10B51BB108480849AFF300800848036803B910BD074B002BFBD0BDE81040184700BF00000000C8D70000F482FF1F0881FF1F31
:400080000000000010B562B60CF01AFD0CF03AFE0CF0C6FE0CF0B6FF0CF020FD0DF07CF805200DF00BFB00249C4B1C702046202109F0DAFF9A4B1C6006E09A4AD15C9A4AAD
:4000C000D1540133964A1360964B1A78944B1B689A42F2D220200F2109F0C6FF0022904B1A6007E08F4AD15C8F4A1A44917701338B4A13608B4B1A78894B1B689A42F1D234
:400100002F200C2109F0B0FF0022854B1A6008E0844AD15C844A1A4482F82F100133804A1360804B1A787E4B1B689A42F0D24020202109F099FF0022794B1A6008E0794A72
:40014000D15C794A1A4482F843100133744A1360744B1A78724B1B689A42F0D26020092109F082FF6F4B1878431EDBB2082B14D800226B4B1A6008E001336A4AD15C6A4A52
:400180001A4482F8D710664A1360654B1B68072BF2D9654B83F8D7000EE00122604B1A6006E0614A1A4482F8D73001335C4A13605B4B1B68082BF4D98020202109F054FFE2
:4001C0000022574B1A6008E0564AD15C564A1A4482F861100133524A1360524B1A78504B1B689A42F0D2A020202109F03DFF00224B4B1A6008E04B4AD15C4B4A1A4482F876
:400200007F100133464A1360464B1A78444B1B689A42F0D240F2C110022109F025FF414B1B78012B03D13F4B5A78404B1A7040F2C510022109F018FF3A4B1B78012B03D100
:40024000384B5A783A4B1A7040F2C310022109F00BFF344B1B78012B03D1324B5A78354B1A7040F2EE30022109F0FEFE2D4B1B78012B03D12B4B5A782F4B1A704FF4DD7035
:40028000022109F0F1FE274B1B78052B05D1254B5B7803F00F03294A137040F27A20022109F0E2FE1F4B1B78012B03D11D4B5A78234B1A704FF41F70022109F0D5FE194BCE
:4002C0001B78012B03D1174B5A781E4B1A7040F27E20022109F0C8FE124B1B78012B03D1104B5A78184B1A704FF47C70022109F0BBFE0C4B1B78012B03D10A4B5A78134B15
:400300001A7040F29F20052109F0AEFE054B187804282AD10122024B1A6020E05A86FF1F4883FF1F1485FF1F0087FF1F0B88FF1F5E86FF1FF387FF1F0B85FF1FF084FF1FB8
:400340006685FF1FFE86FF1F6A85FF1F6785FF1F9D4AD15C9D4AD15401339D4A13609C4B1B68042BF4D9994B187040F26A400A2109F07AFE0022964B1A6006E0924AD15C57
:40038000944AD1540133924A13608F4B1A78904B1B689A42F2D240F275400A2109F064FE00228B4B1A6006E0874AD15C8A4AD1540133874A1360844B1A78854B1B689A4289
:4003C000F2D24FF490600A2109F04EFE0022804B1A6006E07C4AD15C804AD15401337C4A1360794B1A787A4B1B689A42F2D240F28B400A2109F038FE0022754B1A6006E023
:40040000714AD15C764AD1540133714A13606E4B1A786F4B1B689A42F2D240F28D40022109F022FE00226A4B1A6006E0664AD15C6C4AD1540133664A1360634B1A78644BF5
:400440001B689A42F2D240F25A20062109F00CFE5D4B1B78052B0AD15B4AD37803F00F0361490B70537903F00F03604A137040F2C710022109F0F8FD534B1B78012B06D1D7
:400480005B4A1370504B5B7803F00F0353704FF4DE70022109F0E8FD4B4B1B78012B05D1494B5B7803F00F03524A137040F26320022109F0D9FD444B1B78012B05D1424B3E
:4004C0005B7803F00F034C4A537040F26520022109F0CAFD3C4B1B78012B05D13A4B5B7803F00F03454A53704FF42770032109F0BBFD354B1B78022B06D1334B9B7843EAE2
:4005000003233F4A138002E001223D4B1A804FF47670022109F0A8FD2B4B1B78012B04D1294B5A78374B5A7007E0364901230B704B704FF4767009F059FD40F28F40022170
:4005400009F092FD204B1B78012B04D11E4B5A782D4B5A7007E02C4901230B704B7040F28F4009F043FD40F2D230062109F07CFD154B187805280ED10022154B1A6006E0DC
:40058000114AD15C214AD1540133114A1360104B1B689842F4D24FF47D70022109F064FD094B1878012835D10022094B1A6006E0054AD15C164AD1540133054A1360044BC7
:4005C0001B689842F4D232E01485FF1F0C81FF1F4883FF1FE484FF1F3C83FF1FA888FF1FF484FF1FA488FF1F3983FF1FF287FF1F0485FF1F6885FF1F5C86FF1FFC86FF1F27
:40060000DE84FF1F2C83FF1F0888FF1F6085FF1F5886FF1F174905230B7030234B708B70CB700B714B7140F2D23009F0DFFC114A537903F00F00137903F00F014FF47A7351
:4006400003FB01F342F2107101FB0033D07800F00F00642101FB0031937803F00F0303EB83035B000B44527802F00F021344024A136010BD6085FF1F0488FF1F10B5002437
:4006800056E004F013FE01280BD010B1022826D04EE064200DF012F801204F2108F002FD46E064200DF00AF8234B187804F07EFE06280FD1214B187804F078FE062809D146
:4006C00001203C2108F0EEFC02203C2108F0EAFC01242DE00120552108F0E4FC28E064200CF0ECFF144B187804F060FE06281BD1124B187804F05AFE062815D1104B187896
:4007000004F054FE06280FD10E4B187804F04EFE062809D101204A2108F0C4FC02204A2108F0C0FC022403E00120552108F0BAFC002CA6D010BD00BFEC87FF1F3483FF1FCD
:400740005885FF1F7085FF1F08B500230A4A13700A4A13704FF4FA700CF0B0FF01202E2108F0A0FC4FF4FA700CF0A8FF02202E2108F098FC08BD00BF2E83FF1F0885FF1F36
:4007800038B5A14B1B782A2B03F28783DFE813F02B009E00F500851B4E01C8017B02E702851B79034A04851B851B8D04B404AE058007C206DB079C082609C80A0C0C810DB1
:4007C0009C0E851B70125613CF135E142715D615851B91160A179617EF173618D6189D19851BA61A161B894B1B78012B03D1884B1A78854B1A70874B1B78012B06D1864B4C
:400800001A78864B1A700222854B1A700CF022FB082843F04283834B1B78DBB2AA2B4FD1804B9B79DBB2C32B4AD17E4BDB79DBB23C2B45D17B4BDB78DBB2562B02D0572B12
:400840001FD03DE0714B1B78012B04D1704B1A786D4B1A7008E00120632108F023FC01236F4A1370684A13706A4B1B78012B04D1694B1A78694B1A7022E00022674B1A7027
:400880001EE0624B1B78012B04D1614B1A785E4B1A7002E000225C4B1A705E4B1B78012B04D15D4B1A785D4B1A7009E00120632108F0F8FB02225A4B1A700122574B1A708F
:4008C00064200CF0FBFE0CF0EFFA38BD0CF0C2FA082843F0E282534B1B78DBB2AA2B46D1504B9B79DBB2C32B41D14E4BDB79DBB23C2B3CD14B4BDB78DBB25C2B0AD004D89F
:40090000452B0FD0592B18D031E07E2B20D0942B26D02CE00120492108F0C4FB02223A4B1A7024E00120252108F0BCFB00223E4B1A700F22344B1A7019E00120252108F03B
:40094000B1FB0022384B1A7027222F4B1A700EE001202E2108F0A6FB00222B4B1A7006E001202E2108F09EFB0022274B1A7064200CF0A4FE0CF098FA38BD0CF06BFA0828FB
:4009800043F08B82274B1B78DBB2AA2B36D1254B9B79DBB2C32B31D1224BDB79DBB23C2B2CD1204BDB78DBB25F2B08D002D85E2B0DD023E07E2B12D0942B18D01EE0012095
:4009C0000B2108F06FFB0A220F4B1A7016E001201D2108F067FB0B220B4B1A700EE001202E2108F05FFB0022074B1A7006E00120632108F057FB0122034B1A7064200CF09F
:400A00005DFE0CF051FA38BD2E83FF1FF087FF1F0A85FF1FE084FF1F2F83FF1F0885FF1FF886FF1F188AFF1F0C85FF1F0CF012FA082843F03282A64B1B78DBB2AA2B69D1C7
:400A4000A34B9B79DBB2C32B64D1A14BDB79DBB23C2B5FD19F4AD37823F00303D3709C4BDB78DBB23B2B3ED004D80F2B09D0102B1BD04FE07E2B3ED0942B44D0432B49D13F
:400A800029E00120062108F00DFB0022924B1A700120242108F03EFB8E4AD37843F00203D37005228D4B1A7034E001200D2108F0F9FA0022884B1A70894B1A7001204721EA
:400AC00008F028FB834AD37843F00103D3700522824B1A701EE00120072108F0E3FA06227E4B1A7016E001202E2108F0DBFA00227A4B1A700EE001202E2108F0D3FA00224B
:400B0000764B1A7006E001200B2108F0CBFA0A22724B1A7064200CF0D1FD0CF0C5F938BD0CF098F9082843F0B881694B1B78DBB2AA2B40F0A280664B9B79DBB2C32B40F076
:400B40009C80634BDB79DBB23C2B40F09680624B1B78644A1278013A93423EDC5C4AD278D2B2092A0FD80133DAB25B4B1A705848C178584B13443031D972C17830310120C3
:400B8000C9B208F0C7FA524BDB78DBB20A2B0BD1514B1A780132D2B21A704E4B13443021D972012008F0B6FA494BDB78DBB2512B13D1494B1B7883B1494A12786AB901330C
:400BC000DAB2454B1A70434B13442C21D972012008F0A0FA0122424B1A703D4BDB78DBB20B2B1BD13C4B1A783AB90120052108F059FA0422394B1A7010E00120202108F03F
:400C000089FA354B1B78334A1A44D27A2C2A02D10021334A1170013B2F4A13702C4BDB78DBB20C2B29D12C4B1B786BB12E4B1B7853B90120072108F035FA274B1A78254BCD
:400C4000DA720622254B1A70234B1B78ABB1264B1B78012B11D10120702108F023FA1D4B1B7B22490B7040F28D4009F0BFF900221D4B1A700E22194B1A7064200CF01EFD6F
:400C80000CF012F938BD0CF0E5F8082830D1104B1B78DBB2AA2B15D10D4B9B79DBB2C32B10D10B4BDB79DBB23C2B0BD1084BDB78DBB27E2B06D101202E2108F0F3F900228D
:400CC000064B1A7064200CF0F9FC0CF0EDF838BD188AFF1F6086FF1F0C85FF1F2E83FF1F3083FF1FF084FF1F5A86FF1FA488FF1FAE4B187804F05AFB072843F0CE8032200D
:400D00000CF0DCFCAA4BDB7813F003030FD0A74A1078A84A1178A84A07F020FE38B901202E2108F0BFF90022A44B1A7038BD9F4C207804F04FFBA24B1870207840F0100005
:400D40000BF054FF0120082108F0ACF907239B4A13709C4A137001229B4B1A7038BD32200CF0ACFC914B187804F020FB0638052803F29380DFE810F07000911891187A00D4
:400D80003B00060064200CF099FC884B187804F095FB01280ED18D4B1B785BB9392108F081F90022884B1A7014200CF087FC0D22824B1A707D4B187804F080FB012843F0C8
:400DC0006C80824B1B78012B43F067800C2108F069F900247C4B1C704FF4FA700CF06EFC01202E2108F05EF9744B1C7038BD64200CF064FC6D4B187804F060FB01280ED1D2
:400E0000724B1B785BB9392108F04CF900226E4B1A7014200CF052FC0D22684B1A70634B187804F04BFB012843F03780674B1B78012B43F032800C2108F034F90024624B64
:400E40001C704FF4FA700CF039FC01202E2108F029F95A4B1C7038BD01202E2108F022F90023594A1370554A137038BD32200CF025FC01202E2108F015F900224F4B1A704A
:400E800038BD0BF0E7FF082843F00780504B1B78DBB2AA2B40F0C0804D4B9B79DBB2C32B40F0BA804A4BDB79DBB23C2B40F0B480484B1B78062B65D8454AD278D2B2092A7C
:400EC00010D80133DAB2434B1A704148C178384B1344303183F86510C17830310120C9B208F018F93A4BDB78DBB20A2B0CD1394B1A780132D2B21A702D4B1344302183F89D
:400F00006510012008F006F9314BDB78DBB26A2B0CD1304B1A780132D2B21A70244B13442D2183F86510012008F0F4F8284BDB78DBB21A2B26D9264BDB78DBB2422B21D8B1
:400F40000022254B1A6019E0214AD278D2B223491944097A8A420DD11E490A780132D2B20A704133D9B2124B134483F86510012008F0D0F8184A136801331360164B1B6837
:400F8000192BE1D9124BDB78DBB20B2B30D1114B1A782ABB01202E2108F084F80023044A82F86530054A137022E000BFEC87FF1F6086FF1F0B88FF1F6B86FF1F2E83FF1FD1
:400FC0005F86FF1F0A85FF1FF087FF1FEF84FF1F188AFF1F0C85FF1F4883FF1F0C81FF1F0120202108F096F8B74A1378013B1370B64BDB78DBB20C2B0ED1B34B1B785BB151
:401000000120052108F04EF8AF4B1A78B04B83F865200422AF4B1A7064200CF04FFB0BF043FF38BD0BF016FF082842F03687A74B1B78DBB2AA2B32D1A44B9B79DBB2C32B67
:401040002DD1A24BDB79DBB23C2B28D19F4BDB78DBB2392B04D07E2B1AD0382B1FD10CE001200A2108F01EF80023974A13709A4A13700922974B1A7011E00120052108F061
:4010800011F80122944B1A700422924B1A7006E001202E2108F006F800228E4B1A7064200CF00CFB0BF000FF38BD8C4B58788C4B197800228B4B1B7809F062FF8A4B5B782B
:4010C0007BB901200C2107F0EDFF4FF42F700CF0F5FA01202E2107F0E5FF00227D4B1A7038BD0120312107F0DDFF0022764B1A702122784B1A7038BD0BF0ACFE082842F0CB
:40110000CC86724B1B78DBB2AA2B40F0D6806F4B9B79DBB2C32B40F0D0806C4BDB79DBB23C2B40F0CA80694BDB78DBB2652B00F088800AD85A2B54D002D8582B16D0BCE05D
:401140005B2B68D05D2B28D0B7E0932B00F0818006D8702B00F09A807E2B00F09F80ACE0942B00F0A380962B60D0A6E00022564B1A7001203E2107F095FF08F077FE0128ED
:4011800001D108F047F808F0A1FE012801D108F09FF810224F4B1A708FE001205C2107F081FF01200021D62240F2AD1308F076F901200021892240F2B31308F06FF9012032
:4011C0000146242240F2A71308F068F90120014678224FF47A7308F061F913223D4B1A706BE00120602107F05DFF012008F0D4F8012008F013FA012008F0A2FB012008F038
:4012000025FC012008F090FA012008F013FB1222304B1A7051E001202F2107F043FF0022294B1A7011222B4B1A7046E001205F2107F038FF0022244B1A701B22254B1A7015
:401240003BE001204D2107F02DFF1422214B1A7033E001206E2107F025FF0120014609F059F805280ED90A200CF028FA012008F0F5FC0120212109F04DF8052802D90120B5
:4012800008F06AFC2322134B1A7016E00120892107F008FF29220F4B1A700EE001202E2107F000FF00220B4B1A7006E001202E2107F0F8FE0022074B1A7064200CF0FEF9A7
:4012C0000BF0F2FD38BD00BF0C85FF1F188AFF1F6086FF1F2E83FF1FEF84FF1F5C86FF1F0B88FF1FEC87FF1F2C83FF1F0BF0B2FD082842F0D2857F4B1B78DBB2AA2B42F01A
:40130000CC857C4B9B79DBB2C32B42F0C685794BDB79DBB23C2B42F0C085764BDB78DBB27E2B07D10120312107F0BCFE0022724B1A700BE06F4BDB78DBB2942B06D101201B
:40134000632107F0AFFE01226B4B1A706B4B1A78072A26D8674BDB78DBB2092B0ED8654BD978674B1344303183F88E1001202A2107F0D0FE614A1378013313705D4BDB7822
:40138000DBB20A2B0DD15D4C22785D4B1344302183F88E1001202A2107F0BCFE237801332370544BDB78DBB20B2B1AD1534B1B787BB90120392107F075FE4FF4FA700CF0CF
:4013C0007DF901202E2107F06DFE00224A4B1A7007E0013BDAB2494B1A700120202107F099FE444BDB78DBB20C2B7DD1434B1A78002A79D0002343490B6043490B6015E01A
:40140000581C4249014491F8D7103D4C234493F88E30303B994204D13A490B6801330B6002E00021374B1960374B18601046364B1B689A42E4D8354B93F8D720314B1B6824
:401440009A420FD10120262107F02CFE4FF4FA700CF034F90120702107F024FE0E22264B1A7041E00023274A1360274A136010E0274A1A4492F82410214A1A4492F88E20D1
:40148000914203D11F490A6801320A6001331E4A13601D4B1B689842EAD81A4B1B68082B13D10120262107F0FDFD4FF4FA700CF005F901205D2107F0F5FD0120702107F048
:4014C000F1FD0E220C4B1A700EE00120272107F0E9FD4FF4FA700CF0F1F801202E2107F0E1FD0022044B1A7064200CF0E7F80BF0DBFC38BD188AFF1F2E83FF1F0C85FF1F83
:401500006086FF1F6C85FF1F4883FF1F0087FF1F0C81FF1F0BF09EFC082842F0BE84B44B1B78DBB2AA2B40F0AD80B14B9B79DBB2C32B40F0A780AE4BDB79DBB23C2B40F082
:40154000A180AB4BDB78DBB2942B06D10120702107F0A8FD0E22A74B1A70A74B1A78072A27D8A34BDB78DBB2092B10D8A048C178A24B1344303183F88E10C17830310120AC
:40158000C9B207F0C7FD9C4A137801331370984BDB78DBB20A2B0CD1974C2278974B1344302183F88E10012007F0B4FD2378013323708F4BDB78DBB20B2B1AD18E4B1B7866
:4015C0007BB90120552107F06DFD4FF42F700CF075F801202E2107F065FD0022854B1A7007E0013BDAB2844B1A700120202107F091FD7F4BDB78DBB20C2B43D17E4B1B78EF
:40160000052B3FD90120392107F04CFD7A4B19787B4B83F8D71000227A4B1A600BE0581C764A134493F88E20754B0344303A83F8D720744B1860734B1B689942EFD860209C
:40164000714908F0D3FC70B90120552107F02AFD4FF42F700CF032F801202E2107F022FD0022644B1A700120262107F01BFD4FF42F700CF023F801202E2107F013FD002219
:401680005C4B1A7064200CF019F80BF00DFC38BD0BF0E0FB082842F00084554B1B78DBB2AA2B4AD1524B9B79DBB2C32B45D1504BDB79DBB23C2B40D14D4BDB78DBB23F2BEB
:4016C00008D002D83E2B1CD037E07E2B26D0942B2CD032E00120402107F0E4FC0023464A13704A4A137001206121062207F012FD01206D21072207F00DFD15223D4B1A70C7
:401700001BE001203F2107F0CDFC00233A4A13703E4A13701622374B1A700EE001202E2107F0C0FC0022334B1A7006E00120702107F0B8FC0E222F4B1A7064200BF0BEFF06
:401740000BF0B2FB38BD0BF085FB082842F0A583274B1B78DBB2AA2B40F0B080244B9B79DBB2C32B40F0AA80214BDB79DBB23C2B40F0A4801E4BDB78DBB27E2B00F08F80AF
:401780000AD8772B58D002D8762B11D096E0782B62D07A2B6ED091E0832B3DD002D8822B15D08BE0942B00F08280952B6FD085E00120302107F076FC0023154A13700E4AA3
:4017C0001370144A137018220A4B1A7076E00120792107F067FC02220D4B1A700023064A13700C4A13701822024B1A7066E000BF188AFF1F2E83FF1F0C85FF1F6086FF1FD4
:401800000087FF1F4883FF1FD787FF1F3083FF1F5685FF1F0A88FF1F01207A2107F042FC0322B94B1A700023B84A1370B84A13701822B84B1A7041E00120782107F032FC8C
:401840000122B14B1A700023B04A1370B04A13701822B04B1A7031E00120652107F022FC0122A94B1A700022A84B1A701722A94B1A7023E00120322107F014FC0023A24A92
:401880001370A24A13701722A24B1A7016E00120662107F007FC20229E4B1A700EE001202E2107F0FFFB00229A4B1A7006E00120702107F0F7FB0E22964B1A7064200BF0BE
:4018C000FDFE0BF0F1FA38BD0BF0C4FA082842F0E482914B1B78DBB2AA2B79D18E4B9B79DBB2C32B74D18C4BDB79DBB23C2B6FD1894BDB78DBB2802B1FD004D87E2B58D06F
:401900007F2B06D064E0822B3FD02AD3942B58D05EE00120062107F0C5FB00227B4B1A707E4B19787E4B83F8A3100120242107F0F1FB1A22774B1A704AE00120062107F009
:40194000B1FB0022714B1A70764B1978744B83F8A3100120242107F0DDFB1A226D4B1A7036E00120062107F09DFB0022674B1A706D4B19786A4B83F8A3100120242107F08D
:40198000C9FB1A22634B1A7022E00120062107F089FB00225D4B1A70644B1978604B83F8A3100120242107F0B5FB1A22594B1A700EE001202E2107F075FB0022554B1A7035
:4019C00006E00120702107F06DFB0E22514B1A7064200BF073FE0BF067FA38BD0BF03AFA082842F05A824C4B1B78DBB2AA2B40F09181494B9B79DBB2C32B40F08B81464B2E
:401A0000DB79DBB23C2B40F08581434BDB78DBB2642B00F0088104D8622B09D0632B43D078E17E2B00F06781942B00F06C8171E10120392107F036FB64200BF03FFE3C4B21
:401A4000187803F0B3FC06281ED13A4B187803F0ADFC062808D101204A2107F023FB4FF42F700BF02BFE55E10120552107F01AFB4FF42F700BF022FE01202E2107F012FB6E
:401A80000022244B1A7045E10120552107F00AFB4FF42F700BF012FE01202E2107F002FB00221C4B1A7035E10120372107F0FAFA214B5B78012B64D10022204B1A600AE0E3
:401AC0001F4A1344012093F82C1008F017FB1B4A136801331360194B1B68102BF0D901200A2108F00BFB01200A2108F007FB01200A2108F003FB01200A2108F0FFFA002291
:401B00000E4B1A6029E000BF5685FF1F0C85FF1F0A88FF1F2E83FF1F188AFF1FF387FF1F0087FF1F5E86FF1F0B88FF1F0B85FF1FEC87FF1F3483FF1F5886FF1F4883FF1F3A
:401B40000C81FF1FAF4A1344022093F82C1008F0D5FAAD4A136801331360AB4B1B68102BF0D902200A2108F0C9FA02200A2108F0C5FA02200A2108F0C1FA02200A2108F0D3
:401B8000BDFAA24B5B78022B45D100229E4B1A600AE09C4A1344032093F82C1008F0AEFA994A136801331360974B1B68102BF0D903200A2108F0A2FA03200A2108F09EFA07
:401BC00003200A2108F09AFA03200A2108F096FA00228D4B1A600AE08A4A1344042093F82C1008F08BFA884A136801331360864B1B68102BF0D904200A2108F07FFA042014
:401C00000A2108F07BFA04200A2108F077FA04200A2108F073FA01206B2107F043FA25227B4B1A7076E0012008F08CFA012852D133200BF057F90120332108F0C5FA0028F5
:401C400068D00022734B1A600AE0012008F026FB714B1C4484F829006E4A1368013313606C4B1C68072CF0D900236C4A1370694A13600CE0694C684A1344207893F8291054
:401C800008F0A8FD2070634A136801331360614B1B68062BEED9604B93F830205F4B1B789A4208D101204B2107F0FCF94FF47A700BF004FD2EE00120552107F0F3F94FF41C
:401CC0002F700BF0FBFC01202E2107F0EBF900224F4B1A701EE00120552107F0E3F94FF42F700BF0EBFC01202E2107F0DBF90022474B1A700EE001202E2107F0D3F90022DA
:401D0000434B1A7006E00120702107F0CBF90E223F4B1A7064200BF0D1FC0BF0C5F838BD0BF098F8082842F0B8803D4B1B78DBB2AA2B40F033813A4B9B79DBB2C32B40F031
:401D40002D81374BDB79DBB23C2B40F02781354B1B78042B00F2C780DFE813F005002E006800C500A0002E4AD278D2B2012A0FD80133DAB22B4B1A70294CE1783031012066
:401D8000C9B207F0C7F9E3781B01274A82F8A130234BDB78DBB20A2B40F0A580214B1A780132D2B21A7000211F4B83F8A1100120302107F0AFF996E0194AD278D2B2092A05
:401DC00011D80133DAB2174B1A70154CE17830310120C9B207F09EF9E178134A92F8A1300B4382F8A1300E4BDB78DBB20A2B7AD10C4B1A780132D2B21A700120302107F013
:401E000089F970E00C81FF1F4883FF1F5886FF1F2E83FF1F1085FF1F6086FF1FF184FF1F188AFF1F0C85FF1F0087FF1F994AD278D2B2052A17D80133DAB2974C22700120EE
:401E40003A2107F067F922780132D2B22270914CE17830310120C9B207F05CF9E3781B018E4A82F8A0308B4BDB78DBB20A2B3AD1894C22780132D2B2227001203A2107F094
:401E800049F922780132D2B222700120302107F041F90022814B83F8A02024E07D4AD278D2B2092A11D80133DAB27B4B1A70794CE17830310120C9B207F02CF9E178774A1B
:401EC00092F8A0300B4382F8A030724BDB78DBB20A2B08D1704B1A780132D2B21A700120302107F017F96B4BDB78DBB2402B17D16B4B1B783BB90120694B18707021062202
:401F000007F008F907E00022654B1A7001206121062207F0FFF801206D21072207F0FAF85C4BDB78DBB20B2B12D15B4B1A783AB90120702107F0B6F80E225A4B1A7007E084
:401F40000120202107F0E6F8534A1378013B1370504BDB78DBB20C2B20D14F4B1B78052B1CD14F4B1B7843F002024C4991F8A13043EA421381F8A13007F0D8FF01280DD162
:401F8000392107F08FF84FF42F700BF097FB0120702107F087F80E22424B1A7064200BF08DFB0AF081FF38BD0AF054FF082841F07487384B1B78DBB2AA2B40F06481354B3F
:401FC0009B79DBB2C32B40F05E81324BDB79DBB23C2B40F05881304B1A78072A00F22081DFE812F00800310062001E019B00C1001E01F900274BDB78DBB2032B0FD8254CD5
:40200000E17830310120C9B207F084F8224A137801331370E3781B01204A82F89D301D4BDB78DBB20A2B40F0FB8000221B4B83F89D20194C01203021227807F06BF82378B3
:4020400001332370ECE0134BDB78DBB2092B11D8104CE17830310120C9B207F05BF8E1780E4A92F89D300B4382F89D300A4A137801331370074BDB78DBB20A2B40F0D0805C
:40208000054C01203021227807F044F8237801332370C5E0188AFF1F0C85FF1F0087FF1F3083FF1F2E83FF1FAA4BDB78DBB2012B17D801202F2107F02DF8A74C2278013298
:4020C000D2B22270A34DE97830310120C9B207F021F8EB781B01A14A82F89E302378013323709C4BDB78DBB20A2B40F099809A4C01202F21227807F00DF822780132D2B2D5
:4021000022700120302107F005F80022934B83F89E2023780133237082E08E4BDB78DBB2092B11D88B4CE17830310120C9B206F0F1FFE178894A92F89E300B4382F89E30A7
:40214000854A137801331370824BDB78DBB20A2B66D1814C01203021227806F0DBFF2378013323705CE07B4BDB78DBB2092B17D801202F2106F0CEFF774C22780132D2B2DD
:402180002270744DE97830310120C9B206F0C2FFEB781B01714A82F89F302378013323706C4BDB78DBB20A2B3AD16B4C01202F21227806F0AFFF22780132D2B22270012091
:4021C000302106F0A7FF0022644B83F89F2023780133237024E05F4BDB78DBB2092B11D85C4CE17830310120C9B206F093FFE1785A4A92F89F300B4382F89F30564A13783C
:4022000001331370534BDB78DBB20A2B08D1524C01203021227806F07DFF2378013323704C4BDB78DBB20B2B12D14B4B1B783BB90120702106F036FF0E22494B1A7007E01E
:40224000013BDAB2444B1A700120202106F062FF404BDB78DBB20C2B15D13F4B1B78082B11D107F091FE01280DD1392106F01AFF4FF42F700BF022FA0120702106F012FF62
:402280000E22374B1A7064200BF018FA0AF00CFE38BD0AF0DFFD082841F0FF852D4B1B78DBB2AA2B40F00A812A4B9B79DBB2C32B40F00481274BDB79DBB23C2B40F0FE8054
:4022C000244BDB78DBB27E2B06D101202E2106F0E9FE0022224B1A701F4B1B780C2B6CD81C4AD278D2B2092A1ED80133DAB21A4B1A701C4B1B7813B1012B07D00DE0154B17
:40230000D978164B13443031997706E0114BD978124B1344303183F82F100E4BD97830310120C9B207F01EFD0A4BDB78DBB20A2B23D1094B1A780132D2B21A70094B1B789C
:4023400013B1012B10D014E0044B1344302199770FE000BF188AFF1F0C85FF1F0087FF1F2E83FF1F5685FF1F934B1344302183F82F100120302107F0F5FC904BDB78DBB2B3
:40238000512B1AD18E4B1B78BBB10133DAB28C4B1A708C4B1B7813B1012B05D009E0864B13442E21997704E0834B13442E2183F82F1001202E2107F0D5FC804BDB78DBB229
:4023C0000B2B40D17E4B1A78002A34D10E227E4B1A700120702106F065FE2F200C2107F043FE0022794B1A6008E0794AD15C724A1A4482F82F100133744A1360744B1A7809
:40240000724B1B689A42F0D220200F2107F02CFE00226E4B1A6007E06D4AD15C664A1A4491770133694A1360694B1A78674B1B689A42F1D207E00120202107F093FC604A0A
:402440001378013B13705D4BDB78DBB20C2B35D10E225D4B1A700120702106F023FE594B1B7813B1012B11D028E0554B1B78524901F81E3F202007F0B9FDF8B901205521B9
:4024800006F010FE6422504B1A7017E04C4B1B78494901F82F3F2F2007F0A8FD70B90120552106F0FFFD4FF42F700BF007F901202E2106F0F7FD0022434B1A7064200BF0C6
:4024C000FDF80AF0F1FC38BD0AF0C4FC082841F0E4843A4B1B78DBB2AA2B40F0C383374B9B79DBB2C32B40F0BD83344BDB79DBB23C2B40F0B783324B1B78172B00F25082D0
:402500002E4AD278D2B2092A7BD80133DAB22C4B1A702C4B1B78042B6CD8DFE803F00314273A65002B4B1978012904D1234BDB7830332948835400295CD1204BDB78303311
:402540001D498B5456E0234B1978012904D11B4BDB7830332148835400294BD1174BD978154B1344303183F8431043E0194B1978012904D1114BDB7830331948835400291E
:4025800038D10E4BD9780C4B1344303183F8611030E0104B1978012904D1084BDB7830331048835431BB054BD978034B1344303183F87F101EE000BF0087FF1F188AFF1F7B
:4025C0000C85FF1F5685FF1F2E83FF1F4883FF1F1485FF1F0A88FF1FE484FF1F3C83FF1FA888FF1FF484FF1F984BD978984B13443031D972954BD97830310120C9B207F08E
:40260000B1FB924BDB78DBB20A2B2BD1914B1A780132D2B21A70904B1B78042B1ED8DFE803F003070D13190030218C4B995415E08A4B1344302183F843100FE0874B134454
:40264000302183F8611009E0844B1344302183F87F1003E07E4B13443021D9720120302107F080FB794BDB78DBB2672B2BD1794B1A780132D2B21A70774B1B78042B1ED8ED
:40268000DFE803F003070D1319002321734B995415E0724B1344232183F843100FE06F4B1344232183F8611009E06C4B1344232183F87F1003E0664B13442321D972012003
:4026C000232107F04FFB614BDB78DBB26A2B2BD1604B1A780132D2B21A705F4B1B78042B1ED8DFE803F003070D1319002D215B4B995415E0594B13442D2183F843100FE07F
:40270000564B13442D2183F8611009E0534B13442D2183F87F1003E04D4B13442D21D97201202D2107F01EFB484BDB78DBB2662B2BD1484B1A780132D2B21A70464B1B78BD
:40274000042B1ED8DFE803F003070D1319004021424B995415E0414B1344402183F843100FE03E4B1344402183F8611009E03B4B1344402183F87F1003E0354B13444021ED
:40278000D9720120402107F0EDFA304BDB78DBB2692B2BD12F4B1A780132D2B21A702E4B1B78042B1ED8DFE803F003070D1319002E212A4B995415E0284B13442E2183F8CE
:4027C00043100FE0254B13442E2183F8611009E0224B13442E2183F87F1003E01C4B13442E21D97201202E2107F0BCFA174BDB78DBB2682B5ED1174B1A780132D2B21A70FE
:40280000154B1B78042B51D8DFE803F00310303E4C00134B1B78012B02D1202011498854002B43D120210D4B99543FE00C4B1B78012B02D120200C498854002B36D1074B9E
:402840001344202183F8431030E000BF188AFF1F6086FF1F0C85FF1F5685FF1F0087FF1F0A88FF1FE484FF1F3C83FF1F964B1B78012B02D1202095498854BBB9944B1344E8
:40288000202183F8611011E08F4B1B78012B02D12020904988544BB98D4B1344202183F87F1003E08C4B13442021D9720120202107F058FA894BDB78DBB21A2B70D9874BBF
:4028C000DB78DBB2422B6BD80022854B1A6063E0824AD278D2B283491944097A8A4257D181490A780132D2B20A7080490978042948D8DFE801F003122232420072490878AD
:40290000012803D103F14101794CA154002839D103F141016E48815434E06B490878012803D103F14101734CA15458BB6849114403F1410081F8430024E063490878012825
:4029400003D103F14101614CA154D8B96049114403F1410081F8610014E05B490878012803D103F141015B4CA15458B95849114403F1410081F87F0004E05749114403F125
:402980004100C87203F141010120C9B207F0EAF9534A136801331360514B1B68192B97D94E4BDB78DBB20B2B6DD14F4B1A78002A61D10120702106F075FB4020202107F039
:4029C00053FB0022464B1A6008E04B4AD15C404A1A4482F843100133414A1360464B1A783F4B1B689A42F0D28020202107F03CFB00223B4B1A6008E03F4AD15C344A1A4452
:402A000082F861100133364A13603B4B1A78344B1B689A42F0D2A020202107F025FB00222F4B1A6008E0344AD15C294A1A4482F87F1001332A4A13602F4B1A78284B1B6814
:402A40009A42F0D20020202107F00EFB0022244B1A6006E0284AD15C1D4AD1540133204A1360254B1A781E4B1B689A42F2D20E22224B1A7007E00120202107F073F91A4A65
:402A80001378013B1370154BDB78DBB20C2B40F0E9800120392106F005FB4FF42F700AF00DFE0120702106F0FDFA0E22134B1A700E4B1B78042B00F2D580DFE813F0210060
:402AC0004C007600A000C8000A88FF1FA888FF1F0087FF1FF484FF1F6086FF1F188AFF1F4883FF1F0C81FF1F0C85FF1F5685FF1FE484FF1F3C83FF1F1485FF1F2E83FF1F8A
:402B0000844B1B78012B07D18349844B1B780B7040F26A4007F06AFA7E4B1B78002B40F0A1807F497D4B1B780B70002007F05EFA002840F097800120552106F0B3FA4FF47E
:402B40002F700AF0BBFD01202E2106F0ABFA0022744B1A7086E06F4B1B78012B07D172496E4B1B780B7040F2754007F03FFA694B1B78002B76D1694B1B78694901F8433F11
:402B8000402007F033FA00286CD10120552106F089FA4FF42F700AF091FD01202E2106F081FA00225F4B1A705CE05A4B1B78012B07D15E49594B1B780B704FF4906007F080
:402BC00015FA544B1B78002B4CD1544B1B78544901F8613F802007F009FA002842D10120552106F05FFA4FF42F700AF067FD01202E2106F057FA00224A4B1A7032E0454B4F
:402C00001B78012B07D14A49444B1B780B7040F28B4007F0EBF93F4B1B781BBB3F4B1B783F4901F87F3FA02007F0E0F9D0B90120552106F037FA4FF42F700AF03FFD012096
:402C40002E2106F02FFA0022364B1A700AE0334B1A78384BDA720120392106F023FA2422304B1A7064200AF029FD0AF01DF938BD0AF0F0F8082841F010812F4B1B78DBB200
:402C8000AA2B40F0D5802C4B9B79DBB2C32B40F0CF80294BDB79DBB23C2B40F0C9801F4B1B78062B25D8244AD278D2B2092A0FD80133DAB2194B1A701F48C1781D4B134472
:402CC0003031D972C17830310120C9B206F022FA194BDB78DBB20A2B0BD1104B1A780132D2B21A70134B13443021D972012006F011FA114BDB78DBB20B2B30D1074B1A7893
:402D0000E2B90120702106F0CDF90E22054B1A7025E000BF0A88FF1FE484FF1F0C85FF1F0087FF1F2E83FF1F3C83FF1FA888FF1FF484FF1F6086FF1F188AFF1F012020217C
:402D400006F0E8F9B54B1B78B54A1A44D27A2C2A02D10021B34A1170013BB04A1370B24BDB78DBB20C2B63D1AC4B1B78032B5FD90622AE4B1A700120392106F093F9A74BED
:402D80001A78A74BDA72AA4B187806F029F800283FD0A84B93F8A320A74B1B789A4204D140F2A710A54907F021F9A24B93F8A320A34B1B789A4204D140F2B3109F4907F0D0
:402DC00015F99C4B93F8A3209E4B1B789A4204D140F2AD10994907F009F9964B93F8A320994B1B789A4204D14FF47A70934907F0FDF801203C2106F055F94FF4FA700AF0E4
:402E00005DFC0120702106F04DF90E22874B1A700EE00120552106F045F94FF42F700AF04DFC01202E2106F03DF900227F4B1A7064200AF043FC0AF037F838BD0AF00AF8F8
:402E4000082841F02A80784B1B78DBB2AA2B68D1754B9B79DBB2C32B63D1734BDB79DBB23C2B5ED1704BDB78DBB2802B2FD004D87E2B47D07F2B06D053E0822B3AD031D34F
:402E8000942B47D04DE00120582106F00BF901200021732240F2C31306F062FB01200021CF2240F2C51306F05BFB01200146292240F2C11306F054FB012001467B2240F28B
:402EC000EE3306F04DFB1C22584B1A7029E00120062106F0E7F80022504B1A701D22534B1A701EE001206D2106F0DCF81E224F4B1A7016E001208A2106F0D4F82A224B4BF3
:402F00001A700EE001202E2106F0CCF80022474B1A7006E00120702106F0C4F80E22434B1A7064200AF0CAFB09F0BEFF38BD09F091FF082840F0B1873B4B1B78DBB2AA2B95
:402F400065D1394B9B79DBB2C32B60D1364BDB79DBB23C2B5BD1344BDB78DBB2802B1AD004D87E2B44D07F2B06D050E0822B30D020D3942B44D04AE00120062106F092F840
:402F80000022264B1A7001222A4B83F8A3201F22264B1A703BE00120062106F083F800221E4B1A700222234B83F8A3201F221F4B1A702CE00120062106F074F80022174BBA
:402FC0001A7003221B4B83F8A3201F22174B1A701DE00120062106F065F800220F4B1A700422144B83F8A3201F22104B1A700EE001202E2106F056F800220C4B1A7006E03F
:403000000120702106F04EF80E22084B1A7064200AF054FB09F048FF38BD00BF0C85FF1F6086FF1F3083FF1F188AFF1F2E83FF1FEC87FF1F0087FF1F0B88FF1F6B86FF1FCB
:40304000F387FF1F5E86FF1F0B85FF1F09F002FF082840F02287AE4B1B78DBB2AA2B40F0B880AB4B9B79DBB2C32B40F0B280A84BDB79DBB23C2B40F0AC80A54BDB78DBB261
:40308000942B06D10120702106F00CF80E22A14B1A70A14B1B78042B36D89D4AD278D2B2092A0FD80133DAB29B4B1A709848C1789A4B13443031D972C17830310120C9B236
:4030C00006F028F8924BDB78DBB20A2B0BD1924B1A780132D2B21A70904B13443021D972012006F017F88A4BDB78DBB2512B0BD1894B1A780132D2B21A70884B13442C211D
:40310000D972012006F006F8814BDB78DBB20B2B1BD1814B1A783AB90120702105F0C2FF0E227C4B1A7010E00120202105F0F2FF794B1B78794A1A44D27A2C2A02D10021E1
:40314000774A1170013B744A1370714BDB78DBB20C2B3ED1704B1B78052B3AD16F4B1B7B353BDBB2022B34D80120392105F09AFF694B1B78694901F80B3F4FF4DD7006F0D4
:4031800035FF012805D1654B1B7B03F00F03654A137040F25A20644906F028FF012818D15E4A937B03F00F0360490B70137C03F00F035F4A13703C2105F074FF4FF4FA70C6
:4031C0000AF07CFA0120702105F06CFF0E22514B1A7064200AF072FA09F066FE38BD09F039FE082840F05986494B1B78DBB2AA2B40F08780464B9B79DBB2C32B40F081803B
:40320000434BDB79DBB23C2B7BD1414BDB78DBB28F2B08D002D87E2B64D072E0902B31D0942B67D06DE04349002381F82D3081F82E304FF4DE702D3106F0D8FE012811D144
:4032400000223D4B1A703C2105F02CFF4FF4FA700AF034FA0120702105F024FF0E222D4B1A704EE00120552105F01CFF4FF42F700AF024FA01202E2105F014FF0022254BF3
:403280001A703EE02B49012381F82D3081F82E304FF4DE702D3106F0A9FE012812D10124254B1C7020463C2105F0FCFE4FF4FA700AF004FA0E22174B1A702046702105F009
:4032C000F1FE1EE00120552105F0ECFE4FF42F700AF0F4F901202E2105F0E4FE00220D4B1A700EE001202E2105F0DCFE0022094B1A7006E00120702105F0D4FE0E22054B4B
:403300001A7064200AF0DAF909F0CEFD38BD00BF188AFF1F2E83FF1F0C85FF1F6086FF1F3083FF1FF084FF1F6B86FF1F3983FF1FF287FF1F0087FF1F6885FF1F09F08AFDE5
:40334000082840F0AA85AC4B1B78DBB2AA2B40F0AA80A94B9B79DBB2C32B40F0A480A64BDB79DBB23C2B40F09E80A44B1B782BBBA14AD278D2B2092A0FD80133DAB29F4B35
:403380001A709D48C1789E4B13443031D972C17830310120C9B205F0BDFE974BDB78DBB20A2B0BD1954B1A780132D2B21A70944B13443021D972012005F0ACFE8E4BDB784F
:4033C000DBB20B2B1BD18D4B1A783AB90120002105F068FE00228B4B1A7010E00120202105F098FE854B1B78854A1A44D27A2C2A02D10021844A1170013B804A13707E4BFE
:40340000DB78DBB20C2B4ED17C4B1B78012B4AD10120392105F046FE784B1A78784BDA727A4B93F8A330012B08D175490A7B784B1A7040F2C1100B3106F0D8FD734B93F892
:40344000A330022B08D16E490A7B724B1A7040F2C3100B3106F0CAFD6C4B93F8A330032B08D167490A7B6C4B1A7040F2C5100B3106F0BCFD654B93F8A330042B08D16049AF
:403480000A7B664B1A7040F2EE300B3106F0AEFD4FF4FA700AF012F90120702105F002FE0E22584B1A7064200AF008F909F0FCFC38BD09F0CFFC082854D14F4B1B78DBB231
:4034C000AA2B4AD14C4B9B79DBB2C32B45D14A4BDB79DBB23C2B40D1474BDB78DBB20A2B2CD101224E4B1A6010E04E4B5878484B197801224C4B1B7807F042FD4FF4FA702B
:403500000AF0DCF8464A136801331360474B1B7803F00F03424A12689342E6D201200C2105F0C0FD4FF42F700AF0C8F801202E2105F0B8FD0022334B1A700EE001200C2132
:4035400005F0B0FD4FF42F700AF0B8F801202E2105F0A8FD00222B4B1A7064200AF0AEF809F0A2FC0022324B1A6007E04FF416700AF0A4F82E4A1368013313602C4B1B6843
:40358000092BF3D901200C2105F08CFD4FF42F700AF094F801202E2105F084FD0022194B1A7038BD09F056FC082840F07684124B1B78DBB2AA2B7BD10F4B9B79DBB2C32BC0
:4035C00076D10D4BDB79DBB23C2B71D10A4BDB78DBB2392B2ED002D8382B05D068E07E2B5FD0942B52D063E00120002105F05AFD0022044B1A705BE0188AFF1F0C85FF1F82
:403600006086FF1F2E83FF1F3083FF1F0087FF1F0B88FF1FF387FF1F5E86FF1F0B85FF1F1085FF1F5C86FF1FEC87FF1FA488FF1F4883FF1F01203B2105F034FDB54C607855
:4036400008F0A6FC60780A2106F058FD60780A2106F054FD60780A2106F050FD60781D2106F04CFD6078562106F048FD6078312106F044FD4FF42F700AF020F801202E212E
:4036800005F010FD0022A44B1A7011E001202F2105F008FD0022A14B1A7027229E4B1A7006E001202E2105F0FDFC00229A4B1A7064200AF003F809F0F7FB38BD09F0CAFBD1
:4036C000082840F0EA83964B1B78DBB2AA2B48D1934B9B79DBB2C32B43D1914BDB79DBB23C2B3ED18E4BDB78DBB2912B08D002D87E2B27D035E0922B13D0942B2AD030E015
:4037000001200A2105F0CEFC0122864B1A700422854B1A700022814B1A7018227E4B1A701FE001206F2105F0BDFC21227D4B1A7004227D4B1A700022784B1A701822764BA6
:403740001A700EE001202E2105F0ACFC0022724B1A7006E00120702105F0A4FC0E226E4B1A70642009F0AAFF09F09EFB38BD6F4B012013F80B1F6B4A127806F0A5FE0128FD
:403780002CD16E2105F08EFC2322634B1A700120014606F0BFFD052810D90A2009F08EFF012006F05BFA0120212106F0B3FD052840F27383012006F0CFF938BD012055216C
:4037C00005F070FC4FF42F7009F078FF01202E2105F068FC0022504B1A7038BD0120552105F060FC4FF42F7009F068FF01202E2105F058FC0022484B1A7038BD09F02AFBDC
:40380000082840F04A83464B1B78DBB2AA2B7AD1434B9B79DBB2C32B75D1414BDB79DBB23C2B70D13E4BDB78DBB2392B08D002D8382B39D067E07E2B3ED0942B5CD062E0FC
:403840003B4B5A78012A07D1324901230B704B7038490B7002234B70022A08D12D4B01221A7003215970334B1A7004225A7040F26320284906F0BAFB012844D140F2652067
:403880002C4906F0B3FB01283DD1682105F00AFC4FF4FA7009F012FF0120702105F002FC0E221D4B1A702EE026221B4B1A700120672105F0F7FB26E01F4B5B78012B03D19D
:4038C00000221D4B5A7002E001221B4B5A7040F2DA30194906F08AFB01203C2105F0E2FB4FF4FA7009F0EAFE01202E2105F0DAFB0022094B1A7006E00120702105F0D2FBB4
:403900000E22054B1A70642009F0D8FE09F0CCFA38BD00BF5C86FF1F2E83FF1F0C85FF1F188AFF1F5C85FF1F5685FF1F6086FF1F5886FF1FFC86FF1F2C83FF1F09F08AFA97
:40394000082840F0AA82B44B1B78DBB2AA2B40F0B680B14B9B79DBB2C32B40F0B080AE4BDB79DBB23C2B40F0AA80AB4BDB78DBB28D2B3FD005D87E2B00F092808C2B06D029
:403980009DE08E2B68D0942B00F0928097E0A34B5B78012B07D1A24A0120107002215170A04A10705170022B07D19D4B0121197004225A709B4B19705A7040F263209849A9
:4039C00006F014FB01287AD140F26520954906F00DFB012873D16A2105F064FB4FF4FA7009F06CFE0E22904B1A700120702105F059FB64E0894B5A78012A06D188490123EE
:403A00000B704B7087490B704B70022A07D1844B0121197003225A70824B19705A7040F263207F4906F0E2FA012848D140F265207C4906F0DBFA012841D1692105F032FBFE
:403A40004FF4FA7009F03AFE0120702105F02AFB0E22754B1A7032E071490120087000224A70704B18705A7040F2632006F0BEFA012824D140F265206A4906F0B7FA012819
:403A80001DD16C2105F00EFB4FF4FA7009F016FE0120702105F006FB0E22634B1A700EE001202E2105F0FEFA00225F4B1A7006E00120702105F0F6FA0E225B4B1A706420C1
:403AC00009F0FCFD09F0F0F938BD09F0C3F9082840F0E381504B1B78DBB2AA2B40F0F8804D4B9B79DBB2C32B40F0F2804A4BDB79DBB23C2B40F0EC804C4B1A78032A26D8B6
:403B0000454BDB78DBB2092B0ED8434BD978484B1344303183F88E1001202A2105F0FAFA424A1378013313703B4BDB78DBB20A2B0DD13E4C22783E4B1344302183F88E10AE
:403B400001202A2105F0E6FA237801332370324BDB78DBB20B2B1AD1344B1B787BB90120552105F09FFA4FF42F7009F0A7FD01202E2105F097FA00222B4B1A7007E0013BFF
:403B8000DAB22A4B1A700120202105F0C3FA224BDB78DBB20C2B40F09B80244B1A78002A00F08780002323490B6023490B6012E0591C2248405C1E4C234493F88E30984243
:403BC00004D11C4803680133036002E00020194B1860194B19601046174B1B689A42E7D8164B1A78134B1B689A420FD10120262105F058FA4FF4FA7009F060FD22220A4B1E
:403C00001A700120712105F04DFA61E00023094A1360094A136024E0188AFF1F5886FF1F5C86FF1FFC86FF1F2E83FF1F0C85FF1F6086FF1F6C85FF1F4883FF1F0C81FF1F96
:403C4000964A1A4492F82410954A1A4492F88E20914203D193490A6801320A600133924A1360914B1B689842EAD88E4B1B68042B0FD10120262105F015FA4FF4FA7009F046
:403C80001DFD2222894B1A700120712105F00AFA1EE00120272105F005FA4FF42F7009F00DFD01202E2105F0FDF900227F4B1A700EE00120272105F0F5F94FF42F7009F076
:403CC000FDFC01202E2105F0EDF90022774B1A70642009F0F3FC09F0E7F838BD09F0BAF8082840F0DA80724B1B78DBB2AA2B5FD16F4B9B79DBB2C32B5AD16D4BDB79DBB285
:403D00003C2B55D16A4BDB78DBB2BC2B08D002D87E2B46D04CE0BD2B1AD0BE2B31D047E0644901240C704C704FF47D7006F05EF92046392105F0B6F94FF42F7009F0BEFC7A
:403D40002046702105F0AEF90E22584B1A702FE0584901240C7002234B704FF47D7006F045F92046392105F09DF94FF42F7009F0A5FC2046702105F095F90E224B4B1A702D
:403D800016E00120062105F08DF901224A4B1A7000234A4A13704A4A13700522434B1A7006E00120702105F07DF90E223F4B1A70642009F083FC09F077F838BD09F04AF89D
:403DC00008286AD13A4B1B78DBB2AA2B60D1384B9B79DBB2C32B5BD1354BDB79DBB23C2B56D1334BDB78763B0D2B51D8DFE803F0073850505050505049505050172701202C
:403E0000302105F04FF900232E4A13702B4A137001222D4B1A701822244B1A7038E00120302105F03FF90123264A13700021234A1170254A137018221C4B1A7028E0012063
:403E4000302105F02FF902221E4B1A7000221B4B1A7001221C4B1A701822144B1A7017E00120302105F01EF90322164B1A700022124B1A700122144B1A7018220B4B1A70C0
:403E800006E001205F2105F00DF91B22074B1A70642009F013FC09F007F838BD0C81FF1F6086FF1F6C85FF1F4883FF1F2E83FF1F188AFF1F5886FF1F5A86FF1F0C85FF1F0F
:403EC0003083FF1F5685FF1F0A88FF1F10B59F4B1B781F2B01F2BA81DFE813F020009A00F100B8094A01C4015902C802B8095A032604B809B809B80969044C05B809B80958
:403F0000B8095706B809B809B809B809B809B809FD06CE077B08B809B809F3088C4B1B78012B03D18B4B1A78884B1A708A4B1B78012B06D1894B1A78894B1A700122894BB0
:403F40001A7008F087FF082841F08081864B1B78DBB2AA2B56D1844B9B79DBB2C32B51D1814BDB79DBB23C2B4CD17F4BDB78DBB2562B02D0572B1FD044E0774B1B78012B26
:403F800004D1764B1A78764B1A7008E00120632105F088F80123734A1370714A13706C4B1B78012B04D16B4B1A78684B1A7029E00022664B1A7025E00120632105F072F8AB
:403FC0000222684B1A70644B1B78012B04D1634B1A78634B1A7002E00022614B1A705C4B1B78012B04D15B4B1A78584B1A7009E00120632105F056F802225A4B1A70012284
:40400000524B1A70642009F059FB08F04DFF10BD08F020FF082841F01981534B1B78DBB2AA2B46D1504B9B79DBB2C32B41D14E4BDB79DBB23C2B3CD14B4BDB78DBB25C2B94
:404040000AD004D8452B0FD0592B18D031E07E2B20D0942B26D02CE00120492105F022F802223A4B1A7024E00120252105F01AF800223E4B1A700F22344B1A7019E001209C
:40408000252105F00FF80022384B1A7027222F4B1A700EE001202E2105F004F800222B4B1A7006E001202E2104F0FCFF0022274B1A70642009F002FB08F0F6FE10BD08F043
:4040C000C9FE082841F0C280274B1B78DBB2AA2B36D1254B9B79DBB2C32B31D1224BDB79DBB23C2B2CD1204BDB78DBB25F2B08D002D85E2B0DD023E07E2B12D0942B18D013
:404100001EE001200B2104F0CDFF0A220F4B1A7016E001201D2104F0C5FF0B220B4B1A700EE001202E2104F0BDFF0022074B1A7006E00120632104F0B5FF0122034B1A7010
:40414000642009F0BBFA08F0AFFE10BD0885FF1FE084FF1F2F83FF1FF087FF1F0A85FF1F2E83FF1FF886FF1F188AFF1F0C85FF1F08F070FE082841F06980A74B1B78DBB2C0
:40418000AA2B69D1A44B9B79DBB2C32B64D1A24BDB79DBB23C2B5FD1A04AD37823F00303D3709D4BDB78DBB23B2B3ED004D80F2B09D0102B1BD04FE07E2B3ED0942B44D03D
:4041C000432B49D129E00120062104F06BFF0022934B1A700120242104F09CFF8F4AD37843F00203D37005228E4B1A7034E001200D2104F057FF0022894B1A708A4B1A7054
:404200000120472104F086FF844AD37843F00103D3700522834B1A701EE00120072104F041FF06227F4B1A7016E001202E2104F039FF00227B4B1A700EE001202E2104F01D
:4042400031FF0022774B1A7006E001200B2104F029FF0A22734B1A70642009F02FFA08F023FE10BD08F0F6FD082840F0EF876A4B1B78DBB2AA2B40F08480674B9B79DBB25F
:40428000C32B7ED1644BDB79DBB23C2B79D1644B1B78664A1278013A93423EDC5E4AD278D2B2092A0FD80133DAB25D4B1A705A48C1785A4B13443031D972C178303101201A
:4042C000C9B204F027FF544BDB78DBB20A2B0BD1534B1A780132D2B21A70504B13443021D972012004F016FF4B4BDB78DBB2512B13D14B4B1B7883B14B4A12786AB90133C7
:40430000DAB2474B1A70454B13442C21D972012004F000FF0122444B1A703F4BDB78DBB20B2B1BD13E4B1A783AB90120052104F0B9FE04223B4B1A7010E00120202104F0FE
:40434000E9FE374B1B78354A1A44D27A2C2A02D10021354A1170013B314A13702E4BDB78DBB20C2B0DD12E4B1B7853B10120072104F098FE2A4B1A78284BDA720622294BE1
:404380001A70642009F09AF908F08EFD10BD08F061FD082820D1204B1B78DBB2AA2B15D11D4B9B79DBB2C32B10D11B4BDB79DBB23C2B0BD1184BDB78DBB27E2B06D1012010
:4043C0002E2104F06FFE0022164B1A70642009F075F908F069FD10BD154B187800F0E6FF072840F03387322009F068F90B4BDB7813F0030322D00E4A10780E4A11780E4AA3
:4044000004F0ACFAD0B901202E2104F04BFE0022044B1A7010BD00BF188AFF1F6086FF1F0C85FF1F0885FF1F3083FF1FF084FF1F3483FF1F0B88FF1F6B86FF1FAF4C20787C
:4044400000F0C8FFAE4B1870207840F0100008F0CDFB0120082104F025FE0723A94A1370A94A13700122A94B1A7010BD322009F025F9A24B187800F099FF0638052800F2BC
:40448000E586DFE810F07000E306E3067A003B000600642009F012F9984B187801F00EF801280ED19A4B1B785BB9392104F0FAFD0022964B1A70142009F000F90D22914B44
:4044C0001A708E4B187800F0F9FF012840F0BE868F4B1B78012B40F0B9860C2104F0E2FD00248A4B1C704FF4FA7009F0E7F801202E2104F0D7FD834B1C7010BD642009F056
:40450000DDF87E4B187800F0D9FF01280ED1804B1B785BB9392104F0C5FD00227B4B1A70142009F0CBF80D22764B1A70734B187800F0C4FF012840F08986754B1B78012B37
:4045400040F084860C2104F0ADFD00246F4B1C704FF4FA7009F0B2F801202E2104F0A2FD684B1C7010BD01202E2104F09BFD0023664A1370634A137010BD322009F09EF83D
:4045800001202E2104F08EFD00225E4B1A7010BD08F060FC082840F059865E4B1B78DBB2AA2B40F0A5805B4B9B79DBB2C32B40F09F80584BDB79DBB23C2B40F09980564B0B
:4045C0001B78062B65D8534AD278D2B2092A10D80133DAB2504B1A704E48C1784F4B1344303183F86510C17830310120C9B204F091FD484BDB78DBB20A2B0CD1464B1A78DE
:404600000132D2B21A70454B1344302183F86510012004F07FFD3F4BDB78DBB26A2B0CD13D4B1A780132D2B21A703C4B13442D2183F86510012004F06DFD364BDB78DBB24D
:404640001A2B26D9334BDB78DBB2422B21D80022334B1A6019E02F4AD278D2B231491944097A8A420DD12C490A780132D2B20A704133D9B2294B134483F86510012004F0DD
:4046800049FD274A136801331360254B1B68192BE1D9204BDB78DBB20B2B15D11E4B1A7852B901202E2104F0FDFC00231B4A82F86530144A137007E00120202104F02AFD8A
:4046C000154A1378013B1370124BDB78DBB20C2B0ED1114B1B785BB10120052104F0E2FC0D4B1A780D4B83F865200422054B1A70642008F0E3FF08F0D7FB10BD3483FF1F9E
:40470000DC84FF1F0885FF1F2F83FF1FE084FF1FEF84FF1F188AFF1F0C85FF1F6086FF1F4883FF1F0C81FF1F08F094FB082840F08D85A24B1B78DBB2AA2B32D19F4B9B798A
:40474000DBB2C32B2DD19D4BDB79DBB23C2B28D19A4BDB78DBB2392B04D07E2B1AD0382B1FD10CE001200A2104F09CFC0023944A1370944A13700922934B1A7011E0012066
:40478000052104F08FFC01228E4B1A7004228E4B1A7006E001202E2104F084FC00228A4B1A70642008F08AFF08F07EFB10BD08F051FB082840F04A85804B1B78DBB2AA2B84
:4047C00040F0D2807D4B9B79DBB2C32B40F0CC807A4BDB79DBB23C2B40F0C680774BDB78583B3E2B00F2C080DFE803F020BE5464BE30BEBEBEBEBEBEBE7FBEBEBEBEBEBE3B
:40480000BEBEBEBE9FBEBEBEBEBEBEBEBEBEBEBEBEBEAFBEBEBEBEBEBEBEBEBEBEBEBEBEBEBEBEBEBEBEBE8FB7BE740001202B2104F038FC4FF42F7008F040FF01207021DC
:4048400004F030FC0E22604B1A708DE001205C2104F028FC01200021D62240F2AD1304F01DFE01200021892240F2B31304F016FE01200146242240F2A71304F00FFE0120AC
:40488000014678224FF47A7304F008FE13224E4B1A7069E001202B2104F004FC4FF42F7008F00CFF0120702104F0FCFB0E22464B1A7059E001202B2104F0F4FB4FF42F70B3
:4048C00008F0FCFE0120702104F0ECFB0E223E4B1A7049E001205F2104F0E4FB0022384B1A701B22384B1A703EE001202B2104F0D9FB4FF42F7008F0E1FE0120702104F02E
:40490000D1FB0E22304B1A702EE001202B2104F0C9FB4FF42F7008F0D1FE0120702104F0C1FB0E22284B1A701EE001202B2104F0B9FB4FF42F7008F0C1FE0120702104F0B9
:40494000B1FB0E22204B1A700EE001202E2104F0A9FB00221C4B1A7006E001202E2104F0A1FB0022184B1A70642008F0A7FE08F09BFA10BD08F06EFA082840F067840F4BE8
:404980001B78DBB2AA2B40F0FA800C4B9B79DBB2C32B40F0F480094BDB79DBB23C2B40F0EE80064BDB78DBB27E2B0FD10120312104F078FB0022044B1A7013E0188AFF1F52
:4049C0000C85FF1FEF84FF1F0885FF1FA24BDB78DBB2942B06D10120632104F063FB01229E4B1A709E4B1A78072A26D89A4BDB78DBB2092B0ED8984BD9789A4B1344303182
:404A000083F88E1001202A2104F084FB944A137801331370904BDB78DBB20A2B0DD1904C2278904B1344302183F88E1001202A2104F070FB237801332370874BDB78DBB29F
:404A40000B2B1AD1864B1B787BB90120392104F029FB4FF4FA7008F031FE01202E2104F021FB00227D4B1A7007E0013BDAB27C4B1A700120202104F04DFB774BDB78DBB2E2
:404A80000C2B7CD1764B1978002936D00023764A1360764A136015E0581C754A024492F8D720704C234493F88E30303B9A4204D16D4A13680133136002E000226A4B1A60E5
:404AC0006A4B1860694B1B689942E5D8684B93F8D720654B1B689A420BD10120262104F0E1FA4FF4FA7008F0E9FD0120702104F0D9FA0E22594B1A7041E000235A4A1360A6
:404B00005A4A136010E05B4A1A4492F82400554A1A4492F88E20904203D153480268013202600133514A1360504B1B689942EAD84D4B1B68082B13D10120262104F0B2FA11
:404B40004FF4FA7008F0BAFD01205D2104F0AAFA0120702104F0A6FA0E22404B1A700EE00120272104F09EFA4FF4FA7008F0A6FD01202E2104F096FA0022384B1A70642045
:404B800008F09CFD08F090F910BD08F063F9082840F05C83304B1B78DBB2AA2B40F095802D4B9B79DBB2C32B40F08F802A4BDB79DBB23C2B40F08980274BDB787E3B162BD3
:404BC00000F28380DFE803F0720C20345E81818181818181818181818181818181817A000120062104F05EFA00221D4B1A70224B19781F4B83F8A3100120242104F08AFAAF
:404C00001A22164B1A7060E00120062104F04AFA0022134B1A70194B1978154B83F8A3100120242104F076FA1A220C4B1A704CE00120062104F036FA0022094B1A70104B26
:404C400019780B4B83F8A3100120242104F062FA1A22024B1A7038E0188AFF1F0885FF1F0C85FF1F6086FF1F6C85FF1F4883FF1F0087FF1F0C81FF1FF387FF1F5E86FF1F3E
:404C80000B88FF1F0120062104F00CFA0022AA4B1A70AA4B1978AA4B83F8A3100120242104F038FA1A22A74B1A700EE001202E2104F0F8F90022A34B1A7006E001207021FE
:404CC00004F0F0F90E229F4B1A70642008F0F6FC08F0EAF810BD08F0BDF8082840F0B682994B1B78DBB2AA2B40F0C080964B9B79DBB2C32B40F0BA80934BDB79DBB23C2B90
:404D000040F0B4808C4B1B78062B25D88E4AD278D2B2092A0FD80133DAB2874B1A708A48C1788A4B13443031D972C17830310120C9B204F0EFF9844BDB78DBB20A2B0BD1E6
:404D40007D4B1A780132D2B21A70804B13443021D972012004F0DEF97B4BDB78DBB20B2B1BD1754B1A783AB90120702104F09AF90E22744B1A7010E00120202104F0CAF926
:404D80006D4B1B78714A1A44D27A2C2A02D100216F4A1170013B684A13706B4BDB78DBB20C2B63D1644B1B78032B5FD90622654B1A700120392104F075F95F4B1A78634B7C
:404DC000DA72644B187804F00BF800283FD05C4B93F8A320604B1B789A4204D140F2A7105E4905F003F9564B93F8A3205C4B1B789A4204D140F2B310584905F0F7F8504BA6
:404E000093F8A320574B1B789A4204D140F2AD10524905F0EBF84A4B93F8A320474B1B789A4204D14FF47A704C4905F0DFF801203C2104F037F94FF4FA7008F03FFC0120F2
:404E4000702104F02FF90E223E4B1A700EE00120552104F027F94FF42F7008F02FFC01202E2104F01FF90022364B1A70642008F025FC08F019F810BD07F0ECFF082840F046
:404E8000E581314B1B78DBB2AA2B40F09C802E4B9B79DBB2C32B40F096802B4BDB79DBB23C2B40F09080284BDB787E3B162B00F28A80DFE803F0790C3059698888888888EE
:404EC00088888888888888888888888881000120582104F0E7F801200021732240F2C31304F03EFB01200021CF2240F2C51304F037FB01200146292240F2C11304F030FB1D
:404F0000012001467B2240F2EE3304F029FB1C220C4B1A7057E001202B2104F0C3F84FF42F7008F0CBFB0120702104F0BBF80E22044B1A7047E000BF0C85FF1F0B85FF1F4A
:404F40000087FF1F0885FF1F188AFF1F6086FF1F3083FF1F3483FF1F0B88FF1F6B86FF1FF387FF1F5E86FF1F01202B2104F09AF84FF42F7008F0A2FB0120702104F092F883
:404F80000E22784B1A701EE001202B2104F08AF84FF42F7008F092FB0120702104F082F80E22704B1A700EE001202E2104F07AF800226C4B1A7006E00120702104F072F87A
:404FC0000E22684B1A70642008F078FB07F06CFF10BD07F03FFF082840F03881624B1B78DBB2AA2B67D1604B9B79DBB2C32B62D15D4BDB79DBB23C2B5DD15B4BDB787E3BC1
:40500000162B58D8DFE803F0480C1B2A39575757575757575757575757575757575750000120062104F03EF80022504B1A7001224F4B83F8A3201F224A4B1A703BE001200C
:40504000062104F02FF80022484B1A700222484B83F8A3201F22434B1A702CE00120062104F020F80022414B1A700322404B83F8A3201F223B4B1A701DE00120062104F051
:4050800011F80022394B1A700422394B83F8A3201F22344B1A700EE001202E2104F002F80022304B1A7006E00120702103F0FAFF0E222C4B1A70642008F000FB07F0F4FEFD
:4050C00010BD07F0C7FE082840F0C080264B1B78DBB2AA2B40F0B580234B9B79DBB2C32B40F0AF80204BDB79DBB23C2B40F0A9801E4B1B782BBB1C4AD278D2B2092A0FD824
:405100000133DAB2194B1A701748C178194B13443031D972C17830310120C9B203F0FAFF114BDB78DBB20A2B0BD1104B1A780132D2B21A700F4B13443021D972012003F0C4
:40514000E9FF094BDB78DBB20B2B26D1074B1A7892B90120002103F0A5FF0022014B1A701BE000BF0885FF1F188AFF1F0C85FF1F0087FF1F6086FF1F0120202103F0CAFF4B
:40518000334B1B78334A1A44D27A2C2A02D10021314A1170013B2E4A1370304BDB78DBB20C2B4ED12A4B1B78012B4AD10120392103F078FF264B1A78264BDA72284B93F897
:4051C000A330012B08D123490A7B264B1A7040F2C1100B3104F00AFF214B93F8A330022B08D11C490A7B204B1A7040F2C3100B3104F0FCFE1A4B93F8A330032B08D11549A9
:405200000A7B1A4B1A7040F2C5100B3104F0EEFE134B93F8A330042B08D10E490A7B144B1A7040F2EE300B3104F0E0FE4FF4FA7008F044FA0120702103F034FF0E220D4BAD
:405240001A70642008F03AFA07F02EFE10BD00BF0C85FF1F6086FF1F3083FF1F188AFF1F0087FF1F0B88FF1FF387FF1F5E86FF1F0B85FF1F0885FF1F08B5FAF703FFFBF716
:40528000FDF9FBF761FA0122074B1A70064B1B78012B02D0022B03D0F8E7FBF771FAF5E7FEF714FEF2E700BFF886FF1F10B5FF233A4A13703A4A13703A4A13703A4A137074
:4052C00000243FE0204607F091FC642008F0F6F907F03EFC38B1314B1B78FF2B03D12F4B1C7007F065FC07F033FC38B12B4B1B78A34203D02A4B1C7007F05AFC07F028FC58
:4053000058B1264B1B78A34207D0254B1B78A34203D0244B1C7007F04BFC07F019FC78B11E4B1B78A3420BD01D4B1B78A34207D01C4B1B78A34203D01B4B1C7007F038FC39
:405340000134E4B20F2CBDD9144B1B78FF2B0BD0134A1278FF2A07D0134A1278FF2A03D0104A1278FF2A0FD1FF2B0FD10C4B1B78FF2B0DD10B4B1B78FF2B0BD10A4B1B7810
:40538000FF2B09D0012010BD022010BD012010BD012010BD012010BD002010BDEC87FF1F3483FF1F5885FF1F7085FF1F10B507F01DFC322008F082F907F0CAFB38B107F0AC
:4053C00099FBC0F3071407F0F3FB204610BD002010BD00BF10B588B00446364A6B461068516803C3127A1A7044F0200007F0FEFBFF22314B1A70642008F060F907F0A8FB28
:40540000002848D007F076FB44F0D004A04244D107F0CEFB002407E008AB234413F8200C07F0E4FB0134E4B2082CF5D9C82008F045F907F08DFB12280AD8002038E007F01E
:4054400059FB08AB234403F8140C0134E4B200E00024122CF3D907F0ABFB9DF80C30BA2B1DD19DF81D308D2B1BD19DF81E308A2B19D19DF81830B12B17D19DF81A30B22B24
:4054800015D0B32B03D0B12B03D1012010E003200EE000200CE000200AE0002008E0002006E0002004E0002002E0002000E0022008B010BDCCD700000E85FF1F30B58BB03F
:4054C000044640F0400007F091FB4FF4967008F0F5F807F03DFB27280AD90020D9E007F009FB0AAB2B4403F8280C0135EDB200E0002507F02DFB0028F1D107F059FB24B9AE
:405500001023654A82F8A23003E0634B83F8A24023469DF80020FF2A40F0B4809DF80220F82A40F0B1809DF8042002F00F02013B9A4204D00020ACE00133DBB200E0002352
:405540000AAA1A4412F8282CF62AF5D1262BF3D80133DBB20AAA1A4412F8282C02F00F0201324D4981F8A32001E00133DBB20AAA1A4412F8282CF72AF7D1262BF5D8013333
:40558000DBB2012209E04448104401F00F0180F8A4100133DBB20132D2B20AA9194411F8281CF929EFD1262BEDD8013A3A4981F8A4200133DBB2012209E03748104401F0EC
:4055C0000F0180F8B4100133DBB20132D2B20AA9194411F8281CFA29EFD1262BEDD8013A2D4981F8B4200133DBB2012209E02A48104401F00F0180F8AB100133DBB20132D8
:40560000D2B20AA9194411F8281CFB29EFD1262BEDD8013A204981F8AB200233DBB20AAA1A4412F8282CF02A30D1262B30D81B4B1B78A34213D101F1AB0440F2C91021462C
:4056400004F0D4FC4FF4E97004F1090104F0CEFC40F2DB10E11F04F0C9FC012019E0104C4FF4F170214604F0C1FC4FF4FA70E11F04F0BCFC40F2EB1004F1090104F0B6FCDA
:40568000012006E0002004E0002002E0002000E000200BB030BD00BF0087FF1FEC87FF1FAB87FF1F70B590B005460C4640F0500007F09CFA4FF47A7008F000F807F048FA6B
:4056C000402800F0178406D822280FD02E2801F0718403F0EDB85E2801F03C80822802F0B884582843F0E48002F087B89C4B1B78DBB2FF2B43F0F180994B5B78DBB2F62B4F
:4057000043F0ED80964B93F82130DBB2F02B43F0E880934BDB78DBB2F92B43F0E480904B997801F00F0101318E4B83F8E01000228D4B1A600BE01A1D8948805C894A1A4479
:4057400000F00F0082F8BD000133874A1360864B1B68072BEFD90022834B1A600CE003F10D027F48805C7F4A1A4400F00F0082F8CA0001337C4A13607B4B1B68072BEED918
:4057800000227A4B1A600AE05A1C7648034493F8BD0010AB134403F81C0C744B1A60734B1B68072BF0D90922704B1A600AE0704A1A4492F8CA0010AA1A4402F81C0C01330D
:4057C0006A4A1360694B1B68102BF0D910238DF82430684B1B7803F00F03994203D1664B1B78AB420BD0654B1B7803F00F03994240F0DC80624B1B78AB4240F0D7800022B0
:40580000594B1A6008E020465E4AD15C04F076FC554A136801331360534B1B68052BF2D920460A2104F06AFC00224F4B1A6008E02046554AD15C04F061FC4B4A1368013314
:405840001360494B1B680A2BF2D920460A2104F055FC0022444B1A6009E04A4A13442046197A04F04BFC404A1368013313603E4B1B680E2BF1D920460A2104F03FFC0820F2
:40588000214605F0CBFA0022374B1A6009E03D4A13442046197E04F031FC334A136801331360314B1B68102BF1D920460A2104F025FC314B1B78AB4204D1C020192104F09C
:4058C000D3FB04E040F21910192104F0CDFB204605F01CFA0122254B1A6010E02B4A1A4492F8CA1010AA1A4402F82C1C03F108012748415C02F83C1C01331C4A13601B4BD8
:405900001B68082BEAD910A9082301F82C3D022001AA04F06FFF0022134B1A600AE0194A1344204693F82C1004F0E8FB0E4A1368013313600C4B1B68112BF0D915482146BA
:4059400005F0F6FA0C4B1B78AB4225D1C02009A904F04CFB4FF400700E4904F047FB25E0B488FF1F0087FF1F4883FF1F1085FF1FF786FF1F0B88FF1FEC87FF1F6685FF1FE2
:405980003483FF1F6081FF1FE484FF1FFF86FF1F1485FF1FF487FF1F40F2191009A904F025FB40F22720B04904F020FBAF4B93F8E020AF4B1B7803F00F03934203D1AD4B40
:4059C0001B78AB420BD0AC4B1B7803F00F039A4240F0C080A94B1B78AB4240F0BB800022A74B1A6008E02046A64AD15C04F086FBA34A136801331360A14B1B68052BF2D9AB
:405A000020460A2104F07AFB00229D4B1A6008E020469D4AD15C04F071FB994A136801331360974B1B680A2BF2D920460A2104F065FB0022924B1A6009E0924A13442046DC
:405A4000197A04F05BFB8E4A1368013313608C4B1B680E2BF1D920460A2104F04FFB0820214605F0DBF90022854B1A6009E0854A13442046197E04F041FB814A13680133A9
:405A800013607F4B1B68102BF1D920460A2104F035FB784B1B78AB4204D1D920192104F0E3FA04E04FF4A070192104F0DDFA204605F02CF90122754B1A6010E0744A1A442B
:405AC00092F8CA1010AA1A4402F82C1C03F108017048415C02F83C1C01336C4A13606B4B1B68082BEAD910A9082301F82C3D022001AA04F07FFE0022614B1A600AE0614A57
:405B00001344204693F82C1004F0F8FA5C4A1368013313605A4B1B68112BF0D95248214605F006FA534B1B78AB4209D1D92009A904F05CFA40F21A204B4904F057FA09E0F5
:405B40004FF4A07009A904F051FA4FF41070464904F04CFA454B93F8E0204F4B1B7803F00F03934203D1434B1B78AB420BD04B4B1B7803F00F039A4240F0E1803F4B1B78BE
:405B8000AB4240F0DC8000223D4B1A6008E020463C4AD15C04F0B2FA394A136801331360374B1B68052BF2D920460A2104F0A6FA0022334B1A6008E02046394AD15C04F0D1
:405BC0009DFA2F4A1368013313602D4B1B680A2BF2D920460A2104F091FA0022284B1A6009E0284A13442046197A04F087FA244A136801331360224B1B680E2BF1D9204650
:405C00000A2104F07BFA0820214605F007F900221B4B1A6009E01B4A13442046197E04F06DFA174A136801331360154B1B68102BF1D920460A2104F061FA0E4B1B78AB4229
:405C400005D14FF48070192104F00EFA04E040F25910192104F008FA204605F057F801220A4B1A602FE000BFF487FF1F0087FF1F5E86FF1FEC87FF1F6A85FF1F3483FF1F19
:405C80004883FF1F6081FF1F3C83FF1F1085FF1FFF86FF1F1485FF1FF387FF1FFE86FF1FA888FF1FA94A1A4492F8CA1010AA1A4402F82C1C03F10801A548415C02F83C1CA2
:405CC0000133A44A1360A34B1B68082BEAD910A9082301F82C3D022001AA04F08BFD00229D4B1A600AE09D4A1344204693F82C1004F004FA984A136801331360964B1B68E6
:405D0000112BF0D99648214605F012F9954B1B78AB420AD14FF4807009A904F067F940F20D208F4904F062F909E040F2591009A904F05CF940F24D20894904F057F98A4B16
:405D400093F8E020894B1B7803F00F03934203D1844B1B78AB420BD0854B1B7803F00F039A4240F0C280834B1B78AB4240F0BD800022794B1A6008E02046784AD15C04F057
:405D8000BDF9754A136801331360734B1B68052BF2D920460A2104F0B1F900226E4B1A6008E02046744AD15C04F0A8F96A4A136801331360684B1B680A2BF2D920460A2121
:405DC00004F09CF90022644B1A6009E0634A13442046197A04F092F95F4A1368013313605D4B1B680E2BF1D920460A2104F086F90820214605F012F80022574B1A6009E0B8
:405E0000564A13442046197E04F078F9524A136801331360504B1B68102BF1D920460A2104F06CF94F4B1B78AB4205D14FF48960192104F019F904E040F21E40192104F040
:405E400013F9204604F062FF0122424B1A6010E03E4A1A4492F8CA1010AA1A4402F82C1C03F108013A48415C02F83C1C0133394A1360384B1B68082BEAD910A9082301F82C
:405E80002C3D022001AA04F0B5FC0022324B1A600AE0324A1344204693F82C1004F02EF92D4A1368013313602B4B1B68112BF0D92B48214605F03CF82A4B1B78AB420AD17F
:405EC0004FF4896009A904F091F840F20E40244904F08CF809E040F21E4009A904F086F840F239401E4904F081F806F061FE012002F022BD214B1B78DBB2FF2B42F0F5841E
:405F00001E4B5B78DBB2F62B42F0F1841B4B93F83F30DBB2F02B42F0EC84184BDB78DBB2F92B42F0E8840022154B1A6000F008BCB31C124AD15C01F00F0101310A4B83F816
:405F4000E0100022044B1A6029E000BFFF86FF1F1485FF1F1085FF1F4883FF1F6081FF1FF487FF1FEC87FF1F0087FF1F0B85FF1F6785FF1F3483FF1FF484FF1FB488FF1F3D
:405F80006C85FF1FF2180432A748805CA74A1A4400F00F0082F8BD000133A54A1360A44B1B68072BEED90022A14B1A600CE0F2180D329D48805C9D4A1A4400F00F0082F805
:405FC000CA0001339A4A1360994B1B68072BEED90022984B1A600AE05A1C9448034493F8BD0010AB134403F81C0C924B1A60914B1B68072BF0D909228E4B1A600AE08E4A7C
:406000001A4492F8CA0010AA1A4402F81C0C0133884A1360874B1B68102BF0D910238DF82430864B1B7803F00F038B4203D1844B1B78AB420BD0834B1B7803F00F03994221
:4060400040F0C080804B1B78AB4240F0BB800022774B1A6008E020467C4AD15C04F04EF8734A136801331360714B1B68052BF2D920460A2104F042F800226D4B1A6008E00D
:406080002046734AD15C04F039F8694A136801331360674B1B680A2BF2D920460A2104F02DF80022624B1A6009E0684A13442046197A04F023F85E4A1368013313605C4B03
:4060C0001B680E2BF1D920460A2104F017F80820214604F0A3FE0022554B1A6009E05B4A13442046197E04F009F8514A1368013313604F4B1B68102BF1D920460A2103F0EC
:40610000FDFF4F4B1B78AB4204D1C020192103F0ABFF04E040F21910192103F0A5FF204604F0F4FD0122434B1A6010E0494A1A4492F8CA1010AA1A4402F82C1C03F108019B
:406140004548415C02F83C1C01333A4A1360394B1B68082BEAD910A9082301F82C3D022001AA04F047FB0022314B1A600AE0374A1344204693F82C1003F0C0FF2C4A136888
:40618000013313602A4B1B68112BF0D93348214604F0CEFE2A4B1B78AB4209D1C02009A903F024FF4FF400702C4903F01FFF09E040F2191009A903F019FF40F227202749FF
:4061C00003F014FF194B93F8E020254B1B7803F00F03934203D11A4B1B78AB420BD0214B1B7803F00F039A4240F0E080164B1B78AB4240F0DB8000220D4B1A6008E020461B
:40620000124AD15C03F07AFF094A136801331360074B1B68052BF2D920460A2103F06EFF0022034B1A6028E0B488FF1F0087FF1F4883FF1F1085FF1FF786FF1F0B88FF1F5A
:40624000EC87FF1F6685FF1F3483FF1F6081FF1FE484FF1FFF86FF1F1485FF1FF487FF1F5E86FF1F6A85FF1F2046A54AD15C03F045FFA44A136801331360A24B1B680A2BBA
:40628000F2D920460A2103F039FF00229D4B1A6009E09D4A13442046197A03F02FFF994A136801331360974B1B680E2BF1D920460A2103F023FF0820214604F0AFFD00222E
:4062C000904B1A6009E0904A13442046197E03F015FF8C4A1368013313608A4B1B68102BF1D920460A2103F009FF884B1B78AB4204D1D920192103F0B7FE04E04FF4A07010
:40630000192103F0B1FE204604F000FD0122804B1A6010E07F4A1A4492F8CA1010AA1A4402F82C1C03F108017B48415C02F83C1C0133774A1360764B1B68082BEAD910A9E3
:40634000082301F82C3D022001AA04F053FA00226C4B1A600AE06C4A1344204693F82C1003F0CCFE674A136801331360654B1B68112BF0D96948214604F0DAFD634B1B781F
:40638000AB4209D1D92009A903F030FE40F21A20624903F02BFE09E04FF4A07009A903F025FE4FF410705D4903F020FE5C4B93F8E0205C4B1B7803F00F03934203D1534BE1
:4063C0001B78AB420BD0584B1B7803F00F039A4240F0DC80554B1B78AB4240F0D7800022484B1A6008E02046474AD15C03F086FE444A136801331360424B1B68052BF2D98B
:4064000020460A2103F07AFE00223E4B1A6008E02046474AD15C03F071FE3A4A136801331360384B1B680A2BF2D920460A2103F065FE0022334B1A6009E0334A13442046FD
:40644000197A03F05BFE2F4A1368013313602D4B1B680E2BF1D920460A2103F04FFE0820214604F0DBFC0022264B1A6009E0264A13442046197E03F041FE224A1368013372
:406480001360204B1B68102BF1D920460A2103F035FE1E4B1B78AB4205D14FF48070192103F0E2FD04E040F25910192103F0DCFD204604F02BFC0122154B1A6010E0154A6F
:4064C0001A4492F8CA1010AA1A4402F82C1C03F108011148415C02F83C1C01330C4A13600B4B1B68082BEAD910A9082301F82C3D022001AA04F07EF90022024B1A6024E004
:406500003C83FF1F4883FF1F6081FF1FEC87FF1F1085FF1FFF86FF1F1485FF1FF487FF1F0087FF1FF387FF1FFE86FF1F3483FF1FA888FF1FA74A1344204693F82C1003F0F5
:40654000DDFDA54A136801331360A34B1B68112BF0D9A248214604F0EBFCA14B1B78AB420AD14FF4807009A903F040FD40F20D209A4903F03BFD09E040F2591009A903F09C
:4065800035FD40F24D20954903F030FD954B93F8E020954B1B7803F00F03934203D1904B1B78AB420BD0914B1B7803F00F039A4240F0C2808E4B1B78AB4240F0BD800022A0
:4065C000854B1A6008E02046824AD15C03F096FD814A1368013313607F4B1B68052BF2D920460A2103F08AFD00227B4B1A6008E02046804AD15C03F081FD774A13680133BC
:406600001360754B1B680A2BF2D920460A2103F075FD0022704B1A6009E06E4A13442046197A03F06BFD6C4A1368013313606A4B1B680E2BF1D920460A2103F05FFD0820F0
:40664000214604F0EBFB0022634B1A6009E0614A13442046197E03F051FD5F4A1368013313605D4B1B68102BF1D920460A2103F045FD5B4B1B78AB4205D14FF48960192143
:4066800003F0F2FC04E040F21E40192103F0ECFC204604F03BFB0122574B1A6010E0574A1A4492F8CA1010AA1A4402F82C1C03F108015348415C02F83C1C01334E4A13602E
:4066C0004D4B1B68082BEAD910A9082301F82C3D022001AA04F08EF800223F4B1A600AE03C4A1344204693F82C1003F007FD3A4A136801331360384B1B68112BF0D93748BB
:40670000214604F015FC364B1B78AB420AD14FF4896009A903F06AFC40F20E402F4903F065FC09E040F21E4009A903F05FFC40F239402A4903F05AFC324A13681E331360F3
:40674000304B1E681E2E7FF6F3AB06F031FA022002F0F2B82C4B1B78DBB2FF2B42F0CD80294B5B78DBB2F62B42F0C980264B93F85D30DBB2F02B42F0C480234BDB78DBB235
:40678000F92B42F0C08000221E4B1A6000F008BCB31C1D4AD15C01F00F010131114B83F8E01000220C4B1A600CE0F21804321648805C0C4A1A4400F00F0082F8BD000133B6
:4067C000054A1360044B1B68072BEED90022024B1A6028E06081FF1F4883FF1FF487FF1FEC87FF1F0087FF1F0B85FF1F6785FF1F3483FF1FF484FF1F1085FF1FFF86FF1FEB
:406800001485FF1F6C85FF1FB488FF1FF2180D32A748805CA74A1A4400F00F0082F8CA000133A54A1360A44B1B68072BEED90022A24B1A600AE05A1C9E48034493F8BD0033
:4068400010AB134403F81C0C9C4B1A609B4B1B68072BF0D90922994B1A600AE0984A1A4492F8CA0010AA1A4402F81C0C0133934A1360924B1B68102BF0D910238DF82430E9
:40688000904B1B7803F00F038B4203D18E4B1B78AB420BD08D4B1B7803F00F03994240F0C0808B4B1B78AB4240F0BB800022824B1A6008E02046874AD15C03F01FFC7E4A89
:4068C0001368013313607C4B1B68052BF2D920460A2103F013FC0022774B1A6008E020467D4AD15C03F00AFC734A136801331360714B1B680A2BF2D920460A2103F0FEFB6A
:4069000000226D4B1A6009E0724A13442046197A03F0F4FB684A136801331360664B1B680E2BF1D920460A2103F0E8FB0820214604F074FA0022604B1A6009E0654A134493
:406940002046197E03F0DAFB5B4A136801331360594B1B68102BF1D920460A2103F0CEFB594B1B78AB4204D1C020192103F07CFB04E040F21910192103F076FB204604F05E
:40698000C5F901224D4B1A6010E0544A1A4492F8CA1010AA1A4402F82C1C03F108015048415C02F83C1C0133444A1360434B1B68082BEAD910A9082301F82C3D022001AA67
:4069C00003F018FF00223C4B1A600AE0414A1344204693F82C1003F091FB374A136801331360354B1B68112BF0D93E48214604F09FFA354B1B78AB4209D1C02009A903F06E
:406A0000F5FA4FF40070374903F0F0FA09E040F2191009A903F0EAFA40F22720314903F0E5FA244B93F8E0202F4B1B7803F00F03934203D1244B1B78AB420BD02B4B1B783D
:406A400003F00F039A4240F0E280214B1B78AB4240F0DD800022184B1A6008E020461D4AD15C03F04BFB144A136801331360124B1B68052BF2D920460A2103F03FFB0022D5
:406A80000D4B1A6008E02046194AD15C03F036FB094A136801331360074B1B680A2BF2D920460A2103F02AFB0022034B1A602BE0B488FF1F0087FF1F4883FF1F1085FF1F7F
:406AC000F786FF1F0B88FF1FEC87FF1F6685FF1F3483FF1F6081FF1FE484FF1FFF86FF1F1485FF1FF487FF1F5E86FF1F6A85FF1F3C83FF1FAC4A13442046197A03F0FEFA46
:406B0000AA4A136801331360A84B1B680E2BF1D920460A2103F0F2FA0820214604F07EF90022A24B1A6009E09F4A13442046197E03F0E4FA9D4A1368013313609B4B1B686A
:406B4000102BF1D920460A2103F0D8FA984B1B78AB4204D1D920192103F086FA04E04FF4A070192103F080FA204604F0CFF80122904B1A6010E0904A1A4492F8CA1010AA1F
:406B80001A4402F82C1C03F108018C48415C02F83C1C0133874A1360864B1B68082BEAD910A9082301F82C3D022001AA03F022FE00227E4B1A600AE07B4A1344204693F831
:406BC0002C1003F09BFA794A136801331360774B1B68112BF0D97A48214604F0A9F9744B1B78AB4209D1D92009A903F0FFF940F21A20734903F0FAF909E04FF4A07009A938
:406C000003F0F4F94FF410706D4903F0EFF96D4B93F8E0206C4B1B7803F00F03934203D1634B1B78AB420BD0684B1B7803F00F039A4240F0DB80664B1B78AB4240F0D68073
:406C400000225A4B1A6008E02046574AD15C03F055FA564A136801331360544B1B68052BF2D920460A2103F049FA00224F4B1A6008E02046574AD15C03F040FA4B4A136840
:406C800001331360494B1B680A2BF2D920460A2103F034FA0022454B1A6009E0424A13442046197A03F02AFA404A1368013313603E4B1B680E2BF1D920460A2103F01EFA05
:406CC0000820214604F0AAF80022384B1A6009E0354A13442046197E03F010FA334A136801331360314B1B68102BF1D920460A2103F004FA2E4B1B78AB4205D14FF4807070
:406D0000192103F0B1F904E040F25910192103F0ABF9204603F0FAFF0122264B1A6010E0254A1A4492F8CA1010AA1A4402F82C1C03F108012148415C02F83C1C01331D4A61
:406D400013601C4B1B68082BEAD910A9082301F82C3D022001AA03F04DFD0022134B1A600AE0114A1344204693F82C1003F0C6F90E4A1368013313600C4B1B68112BF0D9A2
:406D80000F48214604F0D4F8094B1B78AB4223D14FF4807009A903F029F940F20D20084903F024F922E000BF6081FF1F4883FF1FEC87FF1F1085FF1FFF86FF1F1485FF1F8C
:406DC000F487FF1F0087FF1FF387FF1FFE86FF1F3483FF1FA888FF1F40F2591009A903F005F940F24D20A44903F000F9A34B93F8E020A34B1B7803F00F03934203D1A14BAE
:406E00001B78AB420BD0A04B1B7803F00F039A4240F0C2809D4B1B78AB4240F0BD8000229B4B1A6008E020469A4AD15C03F066F9974A136801331360954B1B68052BF2D9BD
:406E400020460A2103F05AF90022914B1A6008E02046914AD15C03F051F98D4A1368013313608B4B1B680A2BF2D920460A2103F045F90022864B1A6009E0864A1344204639
:406E8000197A03F03BF9824A136801331360804B1B680E2BF1D920460A2103F02FF90820214603F0BBFF0022794B1A6009E0794A13442046197E03F021F9754A1368013316
:406EC0001360734B1B68102BF1D920460A2103F015F96C4B1B78AB4205D14FF48960192103F0C2F804E040F21E40192103F0BCF8204603F00BFF0122684B1A6010E0684A7D
:406F00001A4492F8CA1010AA1A4402F82C1C03F108016448415C02F83C1C01335F4A13605E4B1B68082BEAD910A9082301F82C3D022001AA03F05EFC0022554B1A600AE0A5
:406F4000544A1344204693F82C1003F0D7F8504A1368013313604E4B1B68112BF0D94648214603F0E5FF474B1B78AB420AD14FF4896009A903F03AF840F20E403E4903F09A
:406F800035F809E040F21E4009A903F02FF840F23940394903F02AF8434A13681E331360414B1E683C2E7FF6F3AB05F001FE032001F0C2BC3D4B1B78DBB2FF2B41F0A58410
:406FC0003A4B5B78DBB2F62B41F0A184374B93F82D30DBB2F02B41F09C84344BDB78DBB2F92B41F09884314B997801F0F0010131C9B2224B83F8E0100022254B1A600BE017
:407000001A1D2A48805C1D4A1A4400F00F0082F8BD0001331E4A13601D4B1B680B2BEFD900221B4B1A600CE003F111021F48805C124A1A4400F00F0082F8CA000133144A11
:407040001360134B1B680B2BEED90022134B1A600AE05A1C0948034493F8BD0010AB134403F81C0C0D4B1A600C4B1B680B2BF0D90D220A4B1A6026E0F487FF1F0087FF1F63
:407080000B85FF1FEC87FF1F6785FF1F3483FF1F4883FF1F6081FF1FF484FF1F1085FF1FFF86FF1F1485FF1F6C85FF1FB488FF1FAF4A1A4492F8CA0010AA1A4402F81C0CD9
:4070C0000133AC4A1360AB4B1B68182BF0D918238DF82430A84B1B7803F00F038B4203D1A64B1B78AB420BD0A54B1B7803F00F03994240F0C080A34B1B78AB4240F0BB8036
:407100000022A14B1A6008E02046A04AD15C02F0F5FF9D4A1368013313609B4B1B68052BF2D920460A2102F0E9FF0022964B1A6008E02046964AD15C02F0E0FF924A1368A4
:4071400001331360904B1B680A2BF2D920460A2102F0D4FF00228C4B1A6009E08B4A13442046197A02F0CAFF874A136801331360854B1B680E2BF1D920460A2102F0BEFFEF
:407180000C20214603F04AFE00227F4B1A6009E07E4A13442046197E02F0B0FF7A4A136801331360784B1B68102BF1D920460A2102F0A4FF714B1B78AB4204D1C020192173
:4071C00002F052FF04E040F21910192102F04CFF204603F09BFD0122664B1A6010E06D4A1A4492F8CA1010AA1A4402F82C1C03F10C016948415C02F83C1C01335D4A1360A5
:407200005C4B1B680C2BEAD910A90C2301F82C3D022001AA03F0EEFA00225B4B1A600AE05A4A1344204693F82C1002F067FF564A136801331360544B1B68112BF0D9574804
