:400000000080002011000000850701008507010008B5044B1A6803F53F5302331A6010F0B3FB00BFFA46004010B5054C237833B9044B13B10448AFF300800123237010BD9F
:40004000F082FF1F0000000008190100084B10B51BB108480849AFF300800848036803B910BD074B002BFBD0BDE81040184700BF0000000008190100F482FF1F0881FF1F2B
:400080000000000010B562B610F066FD10F086FE10F012FF11F002F810F06CFD11F01CF9052011F0ABFB0024534B1C70204620210DF02AFC514B1C6006E0514AD15C514AAC
:4000C000D15401334D4A13604D4B1A784B4B1B689A42F2D220200F210DF016FC0022474B1A6007E0464AD15C464A1A4491770133424A1360424B1A78404B1B689A42F1D274
:400100002F200C210DF000FC00223C4B1A6008E03B4AD15C3B4A1A4482F82F100133374A1360374B1A78354B1B689A42F0D2402020210DF0E9FB0022304B1A6008E0304A19
:40014000D15C304A1A4482F8431001332B4A13602B4B1A78294B1B689A42F0D2602009210DF0D2FB264B1878431EDBB2082B14D80022224B1A6008E00133214AD15C214A4A
:400180001A4482F8D7101D4A13601C4B1B68072BF2D91C4B83F8D7000EE00122174B1A6006E0184A1A4482F8D7300133134A1360124B1B68082BF4D9802020210DF0A4FB91
:4001C00000220E4B1A6008E00D4AD15C0D4A1A4482F861100133094A1360094B1A78074B1B689A42F0D2A02020210DF08DFB0022024B1A6011E000BF6C88FF1F2C84FF1FAC
:40020000FC85FF1F1489FF1F8D4AD15C8D4A1A4482F87F1001338C4A1360894B1A788A4B1B689A42F0D240F2C31002210DF06CFB834B1B78012B03D1814B5A78834B1A7066
:4002400040F2C51002210DF05FFB7D4B1B78012B03D17B4B5A787E4B1A7040F2C11002210DF052FB764B1B78012B03D1744B5A78784B1A7040F2EE3002210DF045FB704BAA
:400280001B78012B03D16E4B5A78734B1A704FF4DD7002210DF038FB694B1B78052B05D1674B5B7803F00F036C4A13704FF41F7002210DF029FB624B1B78012B03D1604BE4
:4002C0005A78674B1A7040F27A2002210DF01CFB5B4B1B78012B03D1594B5A78614B1A7040F27E2002210DF00FFB554B1B78012B03D1534B5A785C4B1A704FF47C700221E8
:400300000DF002FB4E4B1B78012B03D14C4B5A78564B1A704FF4936002210DF0F5FA484B1B78012B03D1464B5A78514B1A7040F29A4002210DF0E8FA414B1B78012B03D1E2
:400340003F4B5A784B4B1A7040F29F2005210DF0DBFA3B4B1878042810D101223A4B1A6006E0374AD15C444AD1540133364A1360354B1B68042BF4D93F4B187040F26A4078
:400380000A210DF0C1FA00222F4B1A6006E02C4AD15C3A4AD15401332B4A1360284B1A78294B1B689A42F2D240F275400A210DF0ABFA0022244B1A6006E0214AD15C304AA3
:4003C000D1540133204A13601D4B1A781E4B1B689A42F2D24FF490600A210DF095FA0022194B1A6006E0164AD15C264AD1540133154A1360124B1A78134B1B689A42F2D2D9
:4004000040F28B400A210DF07FFA00220E4B1A6006E00B4AD15C1C4AD15401330A4A1360074B1A78084B1B689A42F2D240F2964002210DF069FA0022034B1A602DE000BFA0
:40044000FC85FF1F1489FF1F2C84FF1F6B8AFF1F7288FF1F508AFF1FF485FF1FD585FF1F2E87FF1F1289FF1F3387FF1F3087FF1FC585FF1FE885FF1F0C81FF1FC885FF1FE0
:400480002084FF1F088BFF1FD885FF1F7E4AD15C7E4AD15401337E4A13607B4B1A787C4B1B689A42F2D240F25A2006210DF02CFA754B1B78052B0AD1734AD37803F00F035A
:4004C00074490B70537903F00F03734A137040F2C71002210DF018FA6B4B1B78012B06D16E4A1370684B5B7803F00F0353704FF4DE7002210DF008FA634B1B78012B05D1AD
:40050000614B5B7803F00F03654A137040F2632002210DF0F9F95C4B1B78012B05D15A4B5B7803F00F035F4A537040F2652002210DF0EAF9544B1B78012B05D1524B5B78BB
:4005400003F00F03584A53704FF4277003210DF0DBF94D4B1B78022B06D14B4B9B7843EA0323524A138002E00122504B1A804FF4767002210DF0C8F9434B1B78012B04D182
:40058000414B5A784A4B5A7007E0494901230B704B704FF476700DF079F940F28F4002210DF0B2F9384B1B78012B04D1364B5A78404B5A7007E03F4901230B704B7040F28D
:4005C0008F400DF063F940F2D23006210DF09CF92D4B187805280FD100222D4B1A6006E0294AD15C344AD1540133294A1360284B1B689842F4D20CE02F4905230B7030238A
:400600004B708B70CB700B714B7140F2D2300DF03DF94FF47D7002210DF076F91A4B187801280ED100221A4B1A6006E0164AD15C224AD1540133164A1360154B1B689842A5
:40064000F4D21D4A537903F00F00137903F00F014FF47A7303FB01F342F2107101FB0033D07800F00F00642101FB0031937803F00F0303EB83035B000B44527802F00F02F6
:4006800013440F4A136010BDFC85FF1F048BFF1F2C84FF1F1C84FF1F4F8AFF1FEC85FF1F3187FF1F7088FF1F1089FF1FC285FF1F2C83FF1F688AFF1F2887FF1F6888FF1F2C
:4006C000648AFF1F10B500245EE008F05DF901280BD010B102282AD056E0642011F08EF801204F210CF02EF94EE0642011F086F8274B187808F0D2F906280FD1254B187897
:4007000008F0CCF9062809D101203C210CF01AF902203C210CF016F9012435E0012055210CF010F9022055210CF00CF92CE0642011F064F8164B187808F0B0F906281BD1D5
:40074000144B187808F0AAF9062815D1124B187808F0A4F906280FD1104B187808F09EF9062809D101204A210CF0ECF802204A210CF0E8F8022407E0012055210CF0E2F87A
:40078000022055210CF0DEF8002C9ED010BD00BF008AFF1F3483FF1F4086FF1F3887FF1F08B500230A4A13700A4A13704FF4FA7011F024F801202E210CF0C4F84FF4FA703E
:4007C00011F01CF802202E210CF0BCF808BD00BF2E83FF1FF085FF1F38B5A14B1B782A2B03F27586DFE813F02B009E00F500731E4E01C8017B02EC02731E80035004930491
:4008000000058305AC0593067708A807D20890091A0AB80BFA0C700E8E0F731E6B133C14D31449152616BE169017A119001A6E1ADF1A261BB11B8B1C731E7F1D041E894BB1
:400840001B78012B03D1884B1A78854B1A70874B1B78012B06D1864B1A78864B1A700222854B1A7010F042FB082843F03086834B1B78DBB2AA2B4FD1804B9B79DBB2C32BEF
:400880004AD17E4BDB79DBB23C2B45D17B4BDB78DBB2562B02D0572B1FD03DE0714B1B78012B04D1704B1A786D4B1A7008E0012063210CF047F801236F4A1370684A137033
:4008C0006A4B1B78012B04D1694B1A78694B1A7022E00022674B1A701EE0624B1B78012B04D1614B1A785E4B1A7002E000225C4B1A705E4B1B78012B04D15D4B1A785D4BC7
:400900001A7009E0012063210CF01CF802225A4B1A700122574B1A70642010F06FFF10F00FFB38BD10F0E2FA082843F0D085534B1B78DBB2AA2B46D1504B9B79DBB2C32B94
:4009400041D14E4BDB79DBB23C2B3CD14B4BDB78DBB25C2B0AD004D8452B0FD0592B18D031E07E2B20D0942B26D02CE0012049210BF0E8FF02223A4B1A7024E00120252193
:400980000BF0E0FF00223E4B1A700F22344B1A7019E0012025210BF0D5FF0022384B1A7027222F4B1A700EE001202E210BF0CAFF00222B4B1A7006E001202E210BF0C2FFED
:4009C0000022274B1A70642010F018FF10F0B8FA38BD10F08BFA082843F07985274B1B78DBB2AA2B36D1254B9B79DBB2C32B31D1224BDB79DBB23C2B2CD1204BDB78DBB245
:400A00005F2B08D002D85E2B0DD023E07E2B12D0942B18D01EE001200B210BF093FF0A220F4B1A7016E001201D210BF08BFF0B220B4B1A700EE001202E210BF083FF002213
:400A4000074B1A7006E0012063210BF07BFF0122034B1A70642010F0D1FE10F071FA38BD2E83FF1F4D8AFF1FF385FF1FC685FF1F2F83FF1FF085FF1F0C89FF1F788CFF1FF1
:400A8000F585FF1F10F032FA082843F02085A64B1B78DBB2AA2B69D1A34B9B79DBB2C32B64D1A14BDB79DBB23C2B5FD19F4AD37823F00303D3709C4BDB78DBB23B2B3ED069
:400AC00004D80F2B09D0102B1BD04FE07E2B3ED0942B44D0432B49D129E0012006210BF031FF0022924B1A70012024210BF062FF8E4AD37843F00203D37005228D4B1A70B2
:400B000034E001200D210BF01DFF0022884B1A70894B1A70012047210BF04CFF834AD37843F00103D3700522824B1A701EE0012007210BF007FF06227E4B1A7016E00120A5
:400B40002E210BF0FFFE00227A4B1A700EE001202E210BF0F7FE0022764B1A7006E001200B210BF0EFFE0A22724B1A70642010F045FE10F0E5F938BD10F0B8F9082843F0C6
:400B8000A684694B1B78DBB2AA2B40F0A280664B9B79DBB2C32B40F09C80634BDB79DBB23C2B40F09680624B1B78644A1278013A93423EDC5C4AD278D2B2092A0FD80133E4
:400BC000DAB25B4B1A705848C178584B13443031D972C17830310120C9B20BF0EBFE524BDB78DBB20A2B0BD1514B1A780132D2B21A704E4B13443021D97201200BF0DAFE23
:400C0000494BDB78DBB2512B13D1494B1B7883B1494A12786AB90133DAB2454B1A70434B13442C21D97201200BF0C4FE0122424B1A703D4BDB78DBB20B2B1BD13C4B1A7833
:400C40003AB9012005210BF07DFE0422394B1A7010E0012020210BF0ADFE354B1B78334A1A44D27A2C2A02D10021334A1170013B2F4A13702C4BDB78DBB20C2B29D12C4BDF
:400C80001B786BB12E4B1B7853B9012007210BF059FE274B1A78254BDA720622254B1A70234B1B78ABB1264B1B78012B11D1012070210BF047FE1D4B1B7B22490B7040F279
:400CC00096400CF0E3FD00221D4B1A700E22194B1A70642010F092FD10F032F938BD10F005F9082830D1104B1B78DBB2AA2B15D10D4B9B79DBB2C32B10D10B4BDB79DBB279
:400D00003C2B0BD1084BDB78DBB27E2B06D101202E210BF017FE0022064B1A70642010F06DFD10F00DF938BD788CFF1F7488FF1FF585FF1F2E83FF1F3183FF1FD585FF1F6A
:400D40006C88FF1F048BFF1F994B187807F0A6FE072843F0BC83322010F050FD944B187807F0B0FE0146934B1870934BDB7813F003030DD08E4A1078904A0BF03FFA38B92E
:400D800001202E210BF0DEFD00228D4B1A7038BD874C207807F096FE864B1870207840F010000FF06FFF012008210BF0CBFD0723834A1370834A13700122834B1A7038BD99
:400DC000322010F01BFD7A4B187807F067FE0638052803F27C83DFE810F070007A1B7A1B7C003B000600642010F008FD704B187807F0DCFE01280ED1744B1B785BB93921EE
:400E00000BF0A0FD0022704B1A70142010F0F6FC0D226B4B1A70664B187807F0C7FE012843F05583694B1B78012B43F050830C210BF088FD0024644B1C704FF4FA7010F0BB
:400E4000DDFC01202E210BF07DFD5D4B1C7038BD642010F0D3FC564B187807F0A7FE01280ED15A4B1B785BB939210BF06BFD0022554B1A70142010F0C1FC0D22504B1A70C9
:400E80004B4B187807F092FE012843F020834F4B1B78012B43F01B830C210BF053FD0024494B1C704FF4FA7010F0A8FC01202E210BF048FD424B1C7038BD01202E210BF026
:400EC00041FD0023404A13703B4AD3703C4A137038BD322010F092FC01202E210BF032FD0022374B1A7038BD10F000F8082843F0EE82374B1B78DBB2AA2B40F0BF80344BF1
:400F00009B79DBB2C32B40F0B980314BDB79DBB23C2B40F0B3802F4B1B78062B7CD82C4AD278D2B2092A10D80133DAB2294B1A702748C178204B1344303183F86510C178EF
:400F400030310120C9B20BF035FD214BDB78DBB20A2B0CD11F4B1A780132D2B21A70164B1344302183F8651001200BF023FD184BDB78DBB26A2B0CD1164B1A780132D2B218
:400F80001A700D4B13442D2183F8651001200BF011FD0F4BDB78DBB21A2B3DD90C4BDB78DBB2422B38D800220B4B1A6030E000BF008AFF1F7388FF1F7488FF1F7F88FF1F86
:400FC0002E83FF1FF385FF1F4D8AFF1FD485FF1F788CFF1FF585FF1F2C84FF1FA94AD278D2B2A9491944097A8A420DD1A7490A780132D2B20A704133D9B2A54B134483F8F7
:40100000651001200BF0D6FCA24A136801331360A04B1B68192BE1D99A4BDB78DBB20B2B15D19A4B1A7852B901202E210BF08AFC0023974A82F86530974A137007E0012000
:4010400020210BF0B7FC914A1378013B13708D4BDB78DBB20C2B11D18C4B1B7873B1012005210BF06FFC8A4B884A127883F86520012283F883200422874B1A70642010F0D8
:40108000BDFB0FF05DFF38BD0FF030FF082843F01E827C4B1B78DBB2AA2B32D1794B9B79DBB2C32B2DD1774BDB79DBB23C2B28D1744BDB78DBB2392B04D07E2B1AD0382B17
:4010C0001FD10CE001200A210BF03CFC00236F4A1370724A137009226F4B1A7011E0012005210BF02FFC01226C4B1A7004226A4B1A7006E001202E210BF024FC0022664B1D
:401100001A70642010F07AFB0FF01AFF38BD012001460CF071FD052840D90A2010F06EFB012021210CF068FD052837D901200CF059FC012832D133200FF020FF01203321EF
:401140000CF0B4FC50B30022554B1A600AE001200CF016FD4E4B1C4484F82900504A1368013313604E4B1C68072CF0D9012013210BF0E8FB464CE37843F00403E3704FF407
:40118000FA7010F03BFB01200E210BF0DBFB00233E4A137023710C223F4B1A700FF0A6FE082843F09481374B1B78DBB2AA2B15D1344B9B79DBB2C32B10D1324BDB79DBB2A5
:4011C0003C2B0BD12F4BDB78DBB23B2B06D1012049210BF0B7FB02222F4B1A70642010F00DFB0FF0ADFE38BD0FF080FE082843F06E81244B1B78DBB2AA2B72D1214B9B7994
:40120000DBB2C32B6DD11F4BDB79DBB23C2B68D11E4B1B78052B25D81A4AD278D2B2092A0FD80133DAB2194B1A701648C178184B134430311971C17830310120C9B20BF07A
:40124000B9FB104BDB78DBB20A2B0BD10F4B1A780132D2B21A700E4B13443021197101200BF0A8FB074BDB78DBB20B2B22D1074B1A78BAB9012005210BF064FB0422064B2D
:401280001A7017E0788CFF1F0C81FF1FF585FF1F7488FF1F2C84FF1F2E83FF1FD485FF1FF885FF1F012020210BF084FBAA4A1378013B1370A94BDB78DBB20C2B11D1A64B87
:4012C0001B7873B1A64B5B79302B0AD0012005210BF038FBA04B1A78A14B1A710422A14B1A70642010F08AFA0FF02AFE38BD9E4B58789E4B197800229D4B1B780DF0C0FB8C
:401300009C4B5B788BB901200C210BF01BFB4FF4FA7010F073FA0024914BDC7001202E210BF010FB8F4B1C7038BD012031210BF009FB0022884B1A7021228A4B1A7038BD91
:401340000FF0D4FD082843F0C280844B1B78DBB2AA2B40F0D680814B9B79DBB2C32B40F0D0807E4BDB79DBB23C2B40F0CA807B4BDB78DBB2652B00F088800AD85A2B54D08F
:4013800002D8582B16D0BCE05B2B68D05D2B28D0B7E0932B00F0818006D8702B00F09A807E2B00F09F80ACE0942B00F0A380962B60D0A6E00022684B1A7001203E210BF0E0
:4013C000C1FA0CF0A3F9012801D10BF073FB0CF0CDF9012801D10BF0CBFB1022614B1A708FE001205C210BF0ADFA01200021D62240F2AD130BF0A2FC01200021892240F2BD
:40140000A7130BF09BFC01200146242240F2B3130BF094FC0120014678224FF47A730BF08DFC13224F4B1A706BE0012060210BF089FA01200BF000FC01200BF03FFD012024
:401440000BF0CEFE01200BF051FF01200BF0BCFD01200BF03FFE1222424B1A7051E001202F210BF06FFA00223B4B1A7011223D4B1A7046E001205F210BF064FA0022364B80
:401480001A701B22374B1A703BE001204D210BF059FA1422334B1A7033E001206E210BF051FA012001460CF0A7FB05280ED90A2010F0A4F901200CF021F8012021210CF0A4
:4014C0009BFB052802D901200BF096FF2322254B1A7016E0012089210BF034FA2922214B1A700EE001202E210BF02CFA00221D4B1A7006E001202E210BF024FA0022194BAB
:401500001A70642010F07AF90FF01AFD38BD0FF0EDFC082842F0DB87104B1B78DBB2AA2B42F0D5870D4B9B79DBB2C32B42F0CF870A4BDB79DBB23C2B42F0C987074BDB7862
:40154000DBB27E2B18D1012031210BF0FBF90022044B1A701CE000BFF585FF1F788CFF1F7488FF1F2E83FF1F7088FF1F7388FF1F008AFF1F2C83FF1FA34BDB78DBB2942B60
:4015800006D1012063210BF0DDF901229F4B1A709F4B1A78072A26D89B4BDB78DBB2092B0ED8994BD9789B4B1344303183F88E1001202A210BF0FEF9954A13780133137051
:4015C000914BDB78DBB20A2B0DD1914C2278914B1344302183F88E1001202A210BF0EAF9237801332370884BDB78DBB20B2B1AD1874B1B787BB9012039210BF0A3F94FF49A
:40160000FA7010F0FBF801202E210BF09BF900227E4B1A7007E0013BDAB27D4B1A70012020210BF0C7F9784BDB78DBB20C2B7DD1774B1A78002A79D0002377490B607749BE
:401640000B6015E0581C7649014491F8D710714C234493F88E30303B994204D16E490B6801330B6002E000216B4B19606B4B186010466A4B1B689A42E4D8694B93F8D72015
:40168000654B1B689A420FD1012026210BF05AF94FF4FA7010F0B2F8012070210BF052F90E225A4B1A7041E000235B4A13605B4A136010E05B4A1A4492F82410554A1A44B5
:4016C00092F88E20914203D153490A6801320A600133524A1360514B1B689842EAD84E4B1B68082B13D1012026210BF02BF94FF4FA7010F083F801205D210BF023F90120A9
:4017000070210BF01FF90E22404B1A700EE0012027210BF017F94FF4FA7010F06FF801202E210BF00FF90022384B1A70642010F065F80FF005FC38BD0FF0D8FB082842F09E
:40174000C686314B1B78DBB2AA2B40F0BE802E4B9B79DBB2C32B40F0B8802B4BDB79DBB23C2B40F0B280284BDB78DBB2942B06D1012070210BF0E6F80E22244B1A70244BA2
:401780001A78072A27D8204BDB78DBB2092B10D81D48C1781F4B1344303183F88E10C17830310120C9B20BF005F9194A137801331370154BDB78DBB20A2B0CD1144C227807
:4017C000144B1344302183F88E1001200BF0F2F82378013323700C4BDB78DBB20B2B2BD10B4B1B7803BB012055210BF0ABF84FF4FA7010F003F801202E210BF0A3F800224C
:40180000024B1A7018E000BF788CFF1F2E83FF1FF585FF1F7488FF1F3487FF1F2C84FF1F1489FF1F0C81FF1F013BDAB2AC4B1A70012020210BF0BEF8AA4BDB78DBB20C2B02
:4018400043D1A74B1B78052B3FD9012039210BF079F8A34B1978A44B83F8D7100022A34B1A600BE0581CA24A134493F88E209E4B0344303A83F8D7209C4B18609B4B1B6897
:401880009942EFD860209B490CF000F870B9012055210BF057F84FF4FA700FF0AFFF01202E210BF04FF80022934B1A70012026210BF048F84FF4FA700FF0A0FF01202E2130
:4018C0000BF040F800228C4B1A7064200FF096FF0FF036FB38BD0FF009FB082842F0F785804B1B78DBB2AA2B4AD17E4B9B79DBB2C32B45D17B4BDB79DBB23C2B40D1794BE8
:40190000DB78DBB23F2B08D002D83E2B1CD037E07E2B26D0942B2CD032E0012040210BF011F800236E4A1370744A13700120612106220BF03FF801206D2107220BF03AF8AC
:4019400015226D4B1A701BE001203F210AF0FAFF0023634A1370694A13701622664B1A700EE001202E210AF0EDFF0022624B1A7006E0012070210AF0E5FF0E225E4B1A700D
:4019800064200FF03BFF0FF0DBFA38BD0FF0AEFA082842F09C85534B1B78DBB2AA2B40F09980504B9B79DBB2C32B40F093804D4BDB79DBB23C2B40F08D804A4BDB78DBB29C
:4019C0007E2B78D00AD8772B42D002D8762B10D080E0782B4CD07A2B58D07BE0832B27D002D8822B14D075E0942B6CD0952B5AD070E0012030210AF0A5FF0023404A1370E4
:401A0000374A13703F4A137018223B4B1A7061E0012079210AF096FF0222394B1A7000232F4A1370374A13701822334B1A7051E001207A210AF086FF0322314B1A70002370
:401A4000274A13702F4A137018222B4B1A7041E0012078210AF076FF0122294B1A7000231F4A1370274A13701822234B1A7031E0012065210AF066FF0122214B1A7000224A
:401A8000174B1A7017221C4B1A7023E0012032210AF058FF00231A4A1370114A13701722154B1A7016E0012066210AF04BFF2022114B1A700EE001202E210AF043FF002277
:401AC0000D4B1A7006E0012070210AF03BFF0E22094B1A7064200FF091FE0FF031FA38BDF585FF1F788CFF1F1489FF1F2C84FF1F7488FF1FEB89FF1F2E83FF1F3183FF1F69
:401B00003F86FF1F6A8AFF1F0FF0F0F9082842F0DE84B24B1B78DBB2AA2B79D1AF4B9B79DBB2C32B74D1AD4BDB79DBB23C2B6FD1AA4BDB78DBB2802B1FD004D87E2B58D05E
:401B40007F2B06D064E0822B3FD02AD3942B58D05EE0012006210AF0F5FE0022A04B1A70A04B1978A04B83F8A310012024210AF021FF1A229D4B1A704AE0012006210AF0C8
:401B8000E1FE0022964B1A70994B1978964B83F8A310012024210AF00DFF1A22934B1A7036E0012006210AF0CDFE00228C4B1A70904B19788C4B83F8A310012024210AF0AE
:401BC000F9FE1A22894B1A7022E0012006210AF0B9FE0022824B1A70874B1978824B83F8A310012024210AF0E5FE1A227F4B1A700EE001202E210AF0A5FE00227B4B1A7042
:401C000006E0012070210AF09DFE0E22774B1A7064200FF0F3FD0FF093F938BD0FF066F9082842F054846D4B1B78DBB2AA2B40F08D816A4B9B79DBB2C32B40F08781674B57
:401C4000DB79DBB23C2B40F08181644BDB78DBB2642B00F0048104D8622B09D0632B43D074E17E2B00F06381942B00F068816DE1012039210AF066FE64200FF0BFFD5F4BFA
:401C8000187806F00BFF06281ED15D4B187806F005FF062808D101204A210AF053FE4FF4FA700FF0ABFD51E1012055210AF04AFE4FF4FA700FF0A2FD01202E210AF042FE13
:401CC00000224A4B1A7041E1012055210AF03AFE4FF4FA700FF092FD01202E210AF032FE0022424B1A7031E1012037210AF02AFE444B5B78012B45D10022434B1A600AE045
:401D0000424A1344012093F82C100BF047FE3E4A1368013313603C4B1B68102BF0D901200A210BF03BFE01200A210BF037FE01200A210BF033FE01200A210BF02FFE0022D6
:401D4000314B1A600AE0314A1344022093F82C100BF024FE2C4A1368013313602A4B1B68102BF0D902200A210BF018FE02200A210BF014FE02200A210BF010FE02200A21BC
:401D80000BF00CFE1F4B5B78022B60D100221E4B1A600AE01D4A1344032093F82C100BF0FDFD194A136801331360174B1B68102BF0D903200A210BF0F1FD03200A210BF009
:401DC000EDFD03200A210BF0E9FD03200A210BF0E5FD00220C4B1A6025E000BF788CFF1FF585FF1F6B8AFF1F1489FF1F2E83FF1F7288FF1F508AFF1FF485FF1F008AFF1F42
:401E00003483FF1F6888FF1F2C84FF1F0C81FF1FA64A1344042093F82C100BF0BFFDA44A136801331360A24B1B68102BF0D904200A210BF0B3FD04200A210BF0AFFD0420C5
:401E40000A210BF0ABFD04200A210BF0A7FD01206B210AF077FD2522964B1A7076E001200BF0C0FD012852D133200FF087F8012033210BF01BFE002868D000228E4B1A602F
:401E80000AE001200BF07CFE8C4B1C4484F82900894A136801331360874B1C68072CF0D90023874A1370844A13600CE0844C834A1344207893F829100CF0D8F920707E4A66
:401EC0001368013313607C4B1B68062BEED97B4B93F830207A4B1B789A4208D101204B210AF030FD4FF47A700FF088FC2EE0012055210AF027FD4FF4FA700FF07FFC012061
:401F00002E210AF01FFD00226A4B1A701EE0012055210AF017FD4FF4FA700FF06FFC01202E210AF00FFD0022624B1A700EE001202E210AF007FD00225E4B1A7006E001209A
:401F400070210AF0FFFC0E225A4B1A7064200FF055FC0EF0F5FF38BD0EF0C8FF082842F0B682584B1B78DBB2AA2B40F03181554B9B79DBB2C32B40F02B81524BDB79DBB25F
:401F80003C2B40F02581504B1B78042B00F2C580DFE813F005002E005400C3009E00494AD278D2B2012A0FD80133DAB2464B1A70444CE17830310120C9B20AF0FBFCE3781E
:401FC0001B01424A82F8A1303E4BDB78DBB20A2B40F0A3803C4B1A780132D2B21A7000213A4B83F8A110012030210AF0E3FC94E0344AD278D2B2092A11D80133DAB2324B6D
:402000001A70304CE17830310120C9B20AF0D2FCE1782E4A92F8A1300B4382F8A130294BDB78DBB20A2B78D1274B1A780132D2B21A70012030210AF0BDFC6EE0214AD27878
:40204000D2B2052A17D80133DAB21F4C227001203A210AF0AFFC22780132D2B22270194CE17830310120C9B20AF0A4FCE3781B01164A82F8A030134BDB78DBB20A2B4CD1F7
:40208000114C22780132D2B2227001203A210AF091FC22780132D2B22270012030210AF089FC0022094B83F8A02036E00C81FF1F2C84FF1F2E83FF1FF885FF1F7488FF1F45
:4020C000D685FF1F788CFF1FF585FF1F1489FF1FAD4AD278D2B2092A11D80133DAB2AB4B1A70A94CE17830310120C9B20AF062FCE178A74A92F8A0300B4382F8A030A24B05
:40210000DB78DBB20A2B08D1A04B1A780132D2B21A70012030210AF04DFC9B4BDB78DBB2402B17D19B4B1B783BB90120994B1870702106220AF03EFC07E00022954B1A70CB
:402140000120612106220AF035FC01206D2107220AF030FC8C4BDB78DBB20B2B12D18B4B1A783AB9012070210AF0ECFB0E228A4B1A7007E0012020210AF01CFC834A13786B
:40218000013B1370804BDB78DBB20C2B20D17F4B1B78052B1CD17F4B1B7843F002027C4991F8A13043EA421381F8A1300BF00EFB01280DD139210AF0C5FB4FF4FA700FF0C9
:4021C0001DFB012070210AF0BDFB0E22724B1A7064200FF013FB0EF0B3FE38BD0EF086FE082842F07481684B1B78DBB2AA2B40F06581654B9B79DBB2C32B40F05F81624B24
:40220000DB79DBB23C2B40F05981604B1A78072A00F22181DFE812F00800310058001F019100C2001F01FA00574BDB78DBB2032B0FD8554CE17830310120C9B20AF0BAFB26
:40224000524A137801331370E3781B01504A82F89D304D4BDB78DBB20A2B40F0FC8000224B4B83F89D20494C0120302122780AF0A1FB237801332370EDE0434BDB78DBB20B
:40228000092B11D8404CE17830310120C9B20AF091FBE1783E4A92F89D300B4382F89D303A4A137801331370374BDB78DBB20A2B40F0D180354C0120302122780AF07AFBF2
:4022C000237801332370C6E02F4BDB78DBB2012B17D801202F210AF06DFB2C4C22780132D2B22270284DE97830310120C9B20AF061FBEB781B01264A82F89E302378013304
:402300002370214BDB78DBB20A2B40F0A4801F4C01202F2122780AF04DFB22780132D2B22270012030210AF045FB0022184B83F89E202378013323708DE0134BDB78DBB223
:40234000092B11D8104CE17830310120C9B20AF031FBE1780E4A92F89E300B4382F89E300A4A137801331370074BDB78DBB20A2B71D1064C0120302122780AF01BFB237881
:402380000133237067E000BF788CFF1FF585FF1F1489FF1F3183FF1F2E83FF1FA64BDB78DBB2092B17D801202F210AF003FBA34C22780132D2B222709F4DE978303101203C
:4023C000C9B20AF0F7FAEB781B019D4A82F89F30237801332370984BDB78DBB20A2B3AD1964C01202F2122780AF0E4FA22780132D2B22270012030210AF0DCFA0022904B7C
:4024000083F89F2023780133237024E08A4BDB78DBB2092B11D8884CE17830310120C9B20AF0C8FAE178864A92F89F300B4382F89F30824A1378013313707F4BDB78DBB273
:402440000A2B08D17D4C0120302122780AF0B2FA237801332370784BDB78DBB20B2B12D1764B1B783BB9012070210AF06BFA0E22744B1A7007E0013BDAB2704B1A700120CE
:4024800020210AF097FA6C4BDB78DBB20C2B15D16A4B1B78082B11D10BF0C6F901280DD139210AF04FFA4FF4FA700FF0A7F9012070210AF047FA0E22624B1A7064200FF0BE
:4024C0009DF90EF03DFD38BD0EF010FD082841F0FE87594B1B78DBB2AA2B40F00D81564B9B79DBB2C32B40F00781534BDB79DBB23C2B40F00181504BDB78DBB27E2B06D156
:4025000001202E210AF01EFA00224E4B1A704B4B1B780C2B61D8484AD278D2B2092A1ED80133DAB2454B1A70474B1B7813B1012B07D00DE0404BD978414B134430319977CF
:4025400006E03D4BD9783E4B1344303183F82F10394BD97830310120C9B20BF053F8364BDB78DBB20A2B18D1344B1A780132D2B21A70354B1B7813B1012B05D009E0304B7C
:4025800013443021997704E02D4B1344302183F82F10012030210BF035F8274BDB78DBB2512B1AD1254B1B78BBB10133DAB2234B1A70254B1B7813B1012B05D009E0204B0F
:4025C00013442E21997704E01D4B13442E2183F82F1001202E210BF015F8174BDB78DBB20B2B4ED1154B1A78002A42D10E22154B1A70012070210AF0A5F92F200C210BF060
:4026000083F90022114B1A6008E0114AD15C0C4A1A4482F82F1001330C4A13600C4B1A780A4B1B689A42F0D220200F210BF06CF90022064B1A6015E0788CFF1FF585FF1F81
:402640001489FF1F2E83FF1F3F86FF1F2C84FF1FFC85FF1F9A4AD15C9A4A1A4491770133994A1360964B1A78974B1B689A42F1D207E0012020210AF0C5FF944A1378013B78
:402680001370934BDB78DBB20C2B35D10E22914B1A70012070210AF055F98F4B1B7813B1012B11D028E0894B1B78864901F81E3F20200BF0EBF8F8B9012055210AF042F99F
:4026C0006422844B1A7017E0804B1B787D4901F82F3F2F200BF0DAF870B9012055210AF031F94FF4FA700FF089F801202E210AF029F90022774B1A7064200FF07FF80EF05A
:402700001FFC38BD0EF0F2FB082841F0E086704B1B78DBB2AA2B40F0CC836D4B9B79DBB2C32B40F0C6836A4BDB79DBB23C2B40F0C083664B1B78172B00F25A82644AD2782C
:40274000D2B2092A61D80133DAB2604B1A70624B1B78042B52D8DFE803F0031427394B005E4B1978012904D1594BDB7830335C488354002942D1564BDB78303351498B5445
:402780003CE0564B1978012904D1514BDB78303354488354002931D14D4BD978494B1344303183F8431029E04C4B1978012904D1474BDB7830334C488354F9B9444BD97864
:4027C000404B1344303183F8611017E0434B1978012904D13E4BDB7830334448835469B93B4BD978374B1344303183F87F1005E0374BD9783E4B13443031D972344BD978A2
:4028000030310120C9B20AF0FDFE314BDB78DBB20A2B2BD12D4B1A780132D2B21A702E4B1B78042B1ED8DFE803F003070D1319003021244B995415E0224B1344302183F86E
:4028400043100FE01F4B1344302183F8611009E01C4B1344302183F87F1003E0244B13443021D972012030210AF0CCFE184BDB78DBB2672B46D1154B1A780132D2B21A707C
:40288000154B1B78042B39D8DFE803F003070D13340023210B4B995430E00A4B1344232183F843102AE0074B1344232183F8611024E0044B1344232183F87F101EE000BFE0
:4028C000FC85FF1F1489FF1F2C84FF1FF585FF1F788CFF1F2E83FF1F3F86FF1F6A8AFF1FC885FF1F2084FF1F088BFF1FD885FF1F7488FF1F984B13442321D9720120232191
:402900000AF080FE954BDB78DBB26A2B2BD1944B1A780132D2B21A70924B1B78042B1ED8DFE803F003070D1319002D218E4B995415E08D4B13442D2183F843100FE08A4B72
:4029400013442D2183F8611009E0874B13442D2183F87F1003E0804B13442D21D97201202D210AF04FFE7D4BDB78DBB2662B2BD17B4B1A780132D2B21A707A4B1B78042BB3
:402980001ED8DFE803F003070D1319004021764B995415E0744B1344402183F843100FE0714B1344402183F8611009E06E4B1344402183F87F1003E0674B13444021D97290
:4029C000012040210AF01EFE644BDB78DBB2692B2BD1634B1A780132D2B21A70614B1B78042B1ED8DFE803F003070D1319002E215D4B995415E05C4B13442E2183F843104A
:402A00000FE0594B13442E2183F8611009E0564B13442E2183F87F1003E04F4B13442E21D97201202E210AF0EDFD4C4BDB78DBB2682B4BD14A4B1A780132D2B21A70494B53
:402A40001B78042B3ED8DFE803F0030F1D2B3900464B1B78012B02D12020454988548BBB2021414B99542DE0404B1B78012B02D12020404988542BBB3B4B1344202183F816
:402A800043101FE0394B1B78012B02D120203A498854BBB9344B1344202183F8611011E0324B1B78012B02D12020344988544BB92D4B1344202183F87F1003E0264B134436
:402AC0002021D972012020210AF09CFD234BDB78DBB21A2B40F28C80204BDB78DBB2422B00F286800022264B1A607CE01B4AD278D2B224491944097A8A4270D118490A78FB
:402B00000132D2B20A7017490978042961D8DFE801F003123B4B5B0014490878012803D103F14101124CA154002852D103F141010D4881544DE00D490878012803D103F16D
:402B400041010C4CA154002843D10749114403F1410081F843003CE07488FF1F788CFF1FF585FF1F3F86FF1F1489FF1F6A8AFF1FC885FF1F2084FF1F088BFF1FD885FF1FFB
:402B80002C84FF1F0C81FF1FA3490878012803D103F14101A14CA154D8B9A149114403F1410081F8610014E09B490878012803D103F141019B4CA15458B99949114403F199
:402BC000410081F87F0004E09749114403F14100C87203F141010120C9B20AF013FD934A136801331360914B1B68192B7FF67EAF8F4BDB78DBB20B2B6DD18E4B1A78002A31
:402C000061D10120702109F09DFE402020210AF07BFE0022854B1A6008E0874AD15C804A1A4482F843100133804A1360824B1A787E4B1B689A42F0D2802020210AF064FECA
:402C400000227A4B1A6008E07B4AD15C744A1A4482F861100133754A1360774B1A78734B1B689A42F0D2A02020210AF04DFE00226E4B1A6008E0704AD15C694A1A4482F884
:402C80007F100133694A13606B4B1A78674B1B689A42F0D2002020210AF036FE0022634B1A6006E0644AD15C5D4AD15401335F4A1360614B1A785D4B1B689A42F2D20E2221
:402CC0005E4B1A7007E0012020210AF09BFC594A1378013B1370564BDB78DBB20C2B40F0E8800120392109F02DFE4FF4FA700EF085FD0120702109F025FE0E224F4B1A709C
:402D00004F4B1B78042B00F2D480DFE803F0032E5A9FC700404B1B78012B07D14949454B1B780B7040F26A400AF0B0FD3A4B1B78002B40F0BE803A493E4B1B780B70002086
:402D40000AF0A4FD002840F0B4800120552109F0F9FD4FF4FA700EF051FD01202E2109F0F1FD0022354B1A70A3E02B4B1B78012B07D135492F4B1B780B7040F275400AF0B3
:402D800085FD254B1B78002B40F09380294B1B78234901F8433F40200AF078FD002840F088800120552109F0CDFD4FF4FA700EF025FD01202E2109F0C5FD00221F4B1A709B
:402DC00077E0154B1B78012B07D11449194B1B780B704FF490600AF059FD0F4B1B78002B67D1144B1B780E4901F8613F80200AF04DFD00285DD10120552109F0A3FD4FF454
:402E0000FA700EF0FBFC01202E2109F09BFD00220A4B1A704DE000BF6A8AFF1F088BFF1F1489FF1FD885FF1F7488FF1F2C84FF1F788CFF1FF585FF1FFC85FF1F2E83FF1F3C
:402E40003F86FF1FC885FF1F2084FF1FB34B1B78012B07D1B249B34B1B780B7040F28B400AF014FDAD4B1B781BBBAE4B1B78AE4901F87F3FA0200AF009FDD0B90120552123
:402E800009F060FD4FF4FA700EF0B8FC01202E2109F058FD0022A54B1A700AE0A14B1A78A34BDA720120392109F04CFD24229F4B1A7064200EF0A2FC0EF042F838BD0EF09F
:402EC00015F8082841F003839A4B1B78DBB2AA2B40F0C080974B9B79DBB2C32B40F0BA80944BDB79DBB23C2B40F0B4808D4B1B78062B25D88F4AD278D2B2092A0FD80133A0
:402F0000DAB2884B1A708B48C178894B13443031D972C17830310120C9B209F04BFD854BDB78DBB20A2B0BD17E4B1A780132D2B21A707F4B13443021D972012009F03AFDE3
:402F40007C4BDB78DBB20B2B1BD1764B1A783AB90120702109F0F6FC0E22744B1A7010E00120202109F026FD6E4B1B78704A1A44D27A2C2A02D100216F4A1170013B694A9B
:402F800013706C4BDB78DBB20C2B63D1654B1B78032B5FD90622654B1A700120392109F0D1FC604B1A78624BDA72644B187809F067FB00283FD05C4B93F8A320604B1B7806
:402FC0009A4204D140F2A7105E490AF05FFC564B93F8A3205C4B1B789A4204D140F2B31058490AF053FC504B93F8A320574B1B789A4204D140F2AD1052490AF047FC4A4B57
:4030000093F8A320524B1B789A4204D14FF47A704C490AF03BFC01203C2109F093FC4FF4FA700EF0EBFB0120702109F08BFC0E223E4B1A700EE00120552109F083FC4FF422
:40304000FA700EF0DBFB01202E2109F07BFC0022364B1A7064200EF0D1FB0DF071FF38BD0DF044FF082841F03282324B1B78DBB2AA2B40F086802F4B9B79DBB2C32B40F01F
:4030800080802C4BDB79DBB23C2B7AD1294BDB78DBB2802B2FD004D87E2B63D07F2B06D06FE0822B56D031D3942B63D069E00120582109F047FC01200021732240F2C313BA
:4030C00009F09EFE01200021CF2240F2C51309F097FE01200146292240F2C11309F090FE012001467B2240F2EE3309F089FE1C220E4B1A7045E00120062109F023FC002290
:40310000084B1A701D22094B1A703AE001206D2109F018FC1E22054B1A7032E06A8AFF1FD885FF1FF585FF1F1489FF1F2E83FF1F7488FF1F788CFF1F3183FF1F008AFF1F2E
:403140006B8AFF1F7F88FF1F508AFF1F7288FF1FF485FF1F01208A2109F0F4FB2A22AB4B1A700EE001202E2109F0ECFB0022A74B1A7006E00120702109F0E4FB0E22A34B86
:403180001A7064200EF03AFB0DF0DAFE38BD0DF0ADFE082841F09B819D4B1B78DBB2AA2B65D19B4B9B79DBB2C32B60D1984BDB79DBB23C2B5BD1964BDB78DBB2802B1AD079
:4031C00004D87E2B44D07F2B06D050E0822B30D020D3942B44D04AE00120062109F0B2FB00228C4B1A7001228B4B83F8A3201F22864B1A703BE00120062109F0A3FB002289
:40320000844B1A700222844B83F8A3201F227F4B1A702CE00120062109F094FB00227D4B1A7003227C4B83F8A3201F22774B1A701DE00120062109F085FB0022754B1A703E
:403240000422754B83F8A3201F22704B1A700EE001202E2109F076FB00226C4B1A7006E00120702109F06EFB0E22684B1A7064200EF0C4FA0DF064FE38BD0DF037FE08281C
:4032800041F02581624B1B78DBB2AA2B40F0B8805F4B9B79DBB2C32B40F0B2805C4BDB79DBB23C2B40F0AC80594BDB78DBB2942B06D10120702109F045FB0E22534B1A70EA
:4032C000544B1B78042B36D8514AD278D2B2092A0FD80133DAB24F4B1A704D48C1784F4B13443031D972C17830310120C9B209F061FB474BDB78DBB20A2B0BD1454B1A785D
:403300000132D2B21A70454B13443021D972012009F050FB3E4BDB78DBB2512B0BD13D4B1A780132D2B21A703C4B13442C21D972012009F03FFB364BDB78DBB20B2B1BD1FB
:40334000344B1A783AB90120702109F0FBFA0E222E4B1A7010E00120202109F02BFB2D4B1B782E4A1A44D27A2C2A02D100212C4A1170013B274A1370254BDB78DBB20C2BE0
:403380003ED1244B1B78052B3AD1244B1B7B353BDBB2022B34D80120392109F0D3FA1D4B1B781E4901F80B3F4FF4DD700AF06EFA012805D1194B1B7B03F00F03194A1370CA
:4033C00040F25A2018490AF061FA012818D1134A937B03F00F0315490B70137C03F00F03134A13703C2109F0ADFA4FF4FA700EF005FA0120702109F0A5FA0E22034B1A70A3
:4034000064200EF0FBF90DF09BFD38BD2E83FF1F788CFF1FF585FF1F1489FF1F7488FF1F3183FF1FD585FF1F7F88FF1F1C84FF1F4F8AFF1F0DF05AFD082841F04880A74B9B
:403440001B78DBB2AA2B40F08780A44B9B79DBB2C32B40F08180A14BDB79DBB23C2B7BD19E4BDB78DBB28F2B08D002D87E2B64D072E0902B31D0942B67D06DE0984900238A
:4034800081F82D3081F82E304FF4DE702D310AF0FDF9012811D10022924B1A703C2109F051FA4FF4FA700EF0A9F90120702109F049FA0E228C4B1A704EE00120552109F0C1
:4034C00041FA4FF4FA700EF099F901202E2109F039FA0022844B1A703EE08149012381F82D3081F82E304FF4DE702D310AF0CEF9012812D101247B4B1C7020463C2109F095
:4035000021FA4FF4FA700EF079F90E22764B1A702046702109F016FA1EE00120552109F011FA4FF4FA700EF069F901202E2109F009FA00226C4B1A700EE001202E2109F00C
:4035400001FA0022684B1A7006E00120702109F0F9F90E22644B1A7064200EF04FF90DF0EFFC38BD0DF0C2FC082840F0B0875B4B1B78DBB2AA2B40F0AA80584B9B79DBB2D3
:40358000C32B40F0A480554BDB79DBB23C2B40F09E80564B1B782BBB504AD278D2B2092A0FD80133DAB2514B1A704C48C178504B13443031D972C17830310120C9B209F077
:4035C000F9F9464BDB78DBB20A2B0BD1474B1A780132D2B21A70464B13443021D972012009F0E8F93D4BDB78DBB20B2B1BD13F4B1A783AB90120002109F0A4F900223A4B5B
:403600001A7010E00120202109F0D4F9374B1B78374A1A44D27A2C2A02D10021354A1170013B324A13702D4BDB78DBB20C2B4ED12E4B1B78012B4AD10120392109F082F933
:403640002A4B1A782A4BDA72254B93F8A330012B08D127490A7B284B1A7040F2C1100B310AF014F91E4B93F8A330022B08D120490A7B224B1A7040F2C3100B310AF006F98B
:40368000174B93F8A330032B08D119490A7B1C4B1A7040F2C5100B310AF0F8F8104B93F8A330042B08D112490A7B164B1A7040F2EE300B310AF0EAF84FF4FA700EF09EF809
:4036C0000120702109F03EF90E22074B1A7064200EF094F80DF034FC38BD00BF788CFF1F1489FF1F3187FF1F2E83FF1FF585FF1F7488FF1F3183FF1F508AFF1F6B8AFF1FDC
:403700007288FF1FF485FF1F0DF0F0FB082840F0DE86CD4B1B78DBB2AA2B40F00082CA4B9B79DBB2C32B40F0FA81C74BDB79DBB23C2B40F0F481C44BDB787E3B252B00F2C4
:40374000EE81DFE813F0D401EC01EC01EC01EC01EC01A10187014000FD007600260091006701EC01EC01EC01EC01EC01EC01EC01EC01BB01EC01EC01C7003101AC00EC010E
:40378000EC01EC01EC01EC01EC0116015B00E2004C01AE4901230B704B7040F2C7100AF075F8012840F0BB813C2109F0CBF84FF4FA700EF023F80120702109F0C3F80E22FC
:4037C000A34B1A70ABE1A14901230B7002234B7040F2C7100AF05AF8012840F0A0813C2109F0B0F84FF4FA700EF008F80120702109F0A8F80E22964B1A7090E1934901238D
:403800000B7003234B7040F2C7100AF03FF8012840F085813C2109F095F84FF4FA700DF0EDFF0120702109F08DF80E22884B1A7075E1864901230B7004234B7040F2C710AE
:403840000AF024F8012840F06A813C2109F07AF84FF4FA700DF0D2FF0120702109F072F80E227B4B1A705AE1784901230B7005234B7040F2C7100AF009F8012840F04F816B
:403880003C2109F05FF84FF4FA700DF0B7FF0120702109F057F80E226D4B1A703FE16B4901230B7006234B7040F2C71009F0EEFF012840F034813C2109F044F84FF4FA70FC
:4038C0000DF09CFF0120702109F03CF80E22604B1A7024E15D4901230B7007234B7040F2C71009F0D3FF012840F019813C2109F029F84FF4FA700DF081FF0120702109F0AA
:4039000021F80E22524B1A7009E1504901230B7008234B7040F2C71009F0B8FF012840F0FE803C2109F00EF84FF4FA700DF066FF0120702109F006F80E22454B1A70EEE053
:40394000424901240C7009234B7040F2C71009F09DFF20463C2108F0F5FF4FF4FA700DF04DFF2046702108F0EDFF0E22384B1A70D5E0364901230B700A234B7040F2C71015
:4039800009F084FF012840F0CA803C2108F0DAFF4FF4FA700DF032FF0120702108F0D2FF0E222B4B1A70BAE0284901230B700B234B7040F2C71009F069FF012840F0AF80AF
:4039C0003C2108F0BFFF4FF4FA700DF017FF0120702108F0B7FF0E221D4B1A709FE01B4901230B700C234B7040F2C71009F04EFF012840F094803C2108F0A4FF4FF4FA70A5
:403A00000DF0FCFE0120702108F09CFF0E22104B1A7084E00D4901230B700D234B7040F2C71009F033FF012879D13C2108F08AFF4FF4FA700DF0E2FE0120702108F082FFB7
:403A40000E22034B1A706AE0788CFF1FEC85FF1F2E83FF1FBD4901230B700E234B7040F2C71009F013FF012859D13C2108F06AFF4FF4FA700DF0C2FE0120702108F062FF49
:403A80000E22B34B1A704AE0B04901230B700F234B7040F2C71009F0F9FE01283FD13C2108F050FF4FF4FA700DF0A8FE0120702108F048FF0E22A64B1A7030E0A3490023BE
:403AC0000B704B7040F2C71009F0E0FE012826D13C2108F037FF4FF4FA700DF08FFE0120702108F02FFF0E22994B1A7017E0974900230B704B7040F2C71009F0C7FE012838
:403B000006D1702108F01EFF0E22914B1A7006E001202E2108F016FF00228D4B1A7064200DF06CFE0DF00CFA38BD0DF0DFF9082840F0CD84874B1B78DBB2AA2B4ED1854B6C
:403B40009B79DBB2C32B49D1824BDB79DBB23C2B44D1804BDB78DBB20A2B2ED101227E4B1A6010E07D4B58787D4B197801227D4B1B780AF085FF4FF4FA700DF03FFE764AA9
:403B8000136801331360784B1B7803F00F03724A12689342E6D201200C2108F0D3FE4FF4FA700DF02BFE0024704BDC7001202E2108F0C8FE664B1C7010E001200C2108F00F
:403BC000C1FE4FF4FA700DF019FE0024674BDC7001202E2108F0B6FE5D4B1C7064200DF00DFE0DF0ADF938BD0DF080F9082840F06E84584B1B78DBB2AA2B5DD1554B9B796D
:403C0000DBB2C32B58D1534BDB79DBB23C2B53D1504BDB78DBB2392B10D002D8382B05D04AE07E2B41D0942B34D045E001202E2108F088FE0022464B1A703DE001203B2174
:403C400008F080FE454C60780CF076F960780A2109F0A4FE60780A2109F0A0FE60780A2109F09CFE60781D2109F098FE6078562109F094FE6078312109F090FE4FF4FA704F
:403C80000DF0BCFD01202E2108F05CFE0022304B1A7011E001202F2108F054FE0022344B1A7027222A4B1A7006E001202E2108F049FE0022264B1A7064200DF09FFD0DF07A
:403CC0003FF938BD0DF012F9082840F00084214B1B78DBB2AA2B60D11E4B9B79DBB2C32B5BD11C4BDB79DBB23C2B56D1194BDB78DBB2912B08D002D87E2B3FD04DE0922BCB
:403D000013D0942B42D048E001200A2108F01AFE0122184B1A700422174B1A700022144B1A7018220A4B1A7037E001206F2108F009FE21220F4B1A7004220F4B1A700022EB
:403D40000B4B1A701822024B1A7026E0EC85FF1F2E83FF1F788CFF1FF885FF1F7088FF1F7388FF1F008AFF1F048BFF1F7488FF1FF585FF1F2487FF1F3F86FF1F01202E21DF
:403D800008F0E0FD0022B94B1A7006E00120702108F0D8FD0E22B54B1A7064200DF02EFD0DF0CEF838BDB24B012013F80B1FB14A12780AF0D5F801282CD16E2108F0C2FDF0
:403DC0002322AA4B1A700120014609F015FF052810D90A200DF012FD012009F08FFB0120212109F009FF052840F27183012009F003FB38BD0120552108F0A4FD4FF4FA70F9
:403E00000DF0FCFC01202E2108F09CFD0022974B1A7038BD0120552108F094FD4FF4FA700DF0ECFC01202E2108F08CFD00228F4B1A7038BD0DF05AF8082840F048838E4B98
:403E40001B78DBB2AA2B7AD18B4B9B79DBB2C32B75D1894BDB79DBB23C2B70D1864BDB78DBB2392B08D002D8382B39D067E07E2B3ED0942B5CD062E0804B5A78012A07D1FC
:403E80007F4901230B704B707E490B7002234B70022A08D17A4B01221A7003215970794B1A7004225A7040F26320754909F0EEFC012844D140F26520724909F0E7FC012811
:403EC0003DD1682108F03EFD4FF4FA700DF096FC0120702108F036FD0E22644B1A702EE02622624B1A700120672108F02BFD26E0654B5B78012B03D10022634B5A7002E01B
:403F00000122614B5A7040F2DA305F4909F0BEFC01203C2108F016FD4FF4FA700DF06EFC01202E2108F00EFD0022504B1A7006E00120702108F006FD0E224C4B1A70642092
:403F40000DF05CFC0CF0FCFF38BD0CF0CFFF082840F0BD82484B1B78DBB2AA2B40F0C980454B9B79DBB2C32B40F0C380424BDB79DBB23C2B40F0BD803F4BDB78DBB28D2BA0
:403F800041D005D87E2B00F0A5808C2B06D0B0E08E2B7BD0942B00F0A580AAE0374B5B78012B07D1364A0120107002215170354A10705170022B07D1314B01211970042266
:403FC0005A70304B19705A7040F263202C4909F05DFC012840F08D8040F26520294909F055FC012840F085806A2108F0ABFC4FF4FA700DF003FC0E221C4B1A7001207021D0
:4040000008F0A0FC75E01D4B5A78012A06D11C4901230B704B701B490B704B70022A07D1174B0121197003225A70164B19705A7040F26320124909F029FC012859D140F29B
:404040006520104909F022FC012852D1692108F079FC4FF4FA700DF0D1FB0120702108F071FC0E22014B1A7043E000BF2E83FF1F7488FF1F2487FF1F788CFF1F6888FF1FB1
:404080007088FF1F1089FF1F2C83FF1FB3490120087000224A70B24B18705A7040F2632009F0F4FB012824D140F26520AC4909F0EDFB01281DD16C2108F044FC4FF4FA70D5
:4040C0000DF09CFB0120702108F03CFC0E22A54B1A700EE001202E2108F034FC0022A14B1A7006E00120702108F02CFC0E229D4B1A7064200DF082FB0CF022FF38BD0CF01C
:40410000F5FE082840F0E381974B1B78DBB2AA2B40F0E380944B9B79DBB2C32B40F0DD80914BDB79DBB23C2B40F0D7808F4B1A78032A26D88C4BDB78DBB2092B0ED88A4B7B
:40414000D9788B4B1344303183F88E1001202A2108F030FC854A137801331370824BDB78DBB20A2B0DD1814C2278814B1344302183F88E1001202A2108F01CFC23780133A7
:404180002370794BDB78DBB20B2B1AD1774B1B787BB90120552108F0D5FB4FF4FA700DF02DFB01202E2108F0CDFB00226D4B1A7007E0013BDAB26D4B1A700120202108F00E
:4041C000F9FB694BDB78DBB20C2B40F08680674B1A78002A72D0002366490B6066490B6012E0591C6548405C614C234493F88E30984204D15F4803680133036002E000205C
:404200005C4B18605C4B196010465B4B1B689A42E7D85A4B1A78574B1B689A420FD10120262108F08FFB4FF4FA700DF0E7FA22224C4B1A700120712108F084FB4DE00023B9
:404240004C4A13604C4A136010E04C4A1A4492F82410474A1A4492F88E20914203D145490A6801320A600133434A1360424B1B689842EAD83F4B1B68042B0FD101202621BB
:4042800008F060FB4FF4FA700DF0B8FA2222354B1A700120712108F055FB1EE00120272108F050FB4FF4FA700DF0A8FA01202E2108F048FB00222B4B1A700EE001202721EC
:4042C00008F040FB4FF42F700DF098FA01202E2108F038FB0022234B1A7064200DF08EFA0CF02EFE38BD0CF001FE082840F0EF801D4B1B78DBB2AA2B74D11B4B9B79DBB2CC
:40430000C32B6FD1184BDB79DBB23C2B6AD1164BDB78DBB2BC2B08D002D87E2B5BD061E0BD2B2FD0BE2B46D05CE0154901240C704C704FF47D7009F0A9FA2046392108F019
:4043400001FB4FF42F700DF059FA2046702108F0F9FA0E22034B1A7044E000BF7088FF1F1089FF1F2E83FF1F788CFF1FF585FF1F7488FF1F3487FF1F2C84FF1F0C81FF1F80
:404380006888FF1F524901240C7002234B704FF47D7009F07BFA2046392108F0D3FA4FF42F700DF02BFA2046702108F0CBFA0E22484B1A7016E00120062108F0C3FA012295
:4043C000454B1A700023454A1370454A13700522404B1A7006E00120702108F0B3FA0E223C4B1A7064200DF009FA0CF0A9FD38BD0CF07CFD08286AD13A4B1B78DBB2AA2B2D
:4044000060D1384B9B79DBB2C32B5BD1354BDB79DBB23C2B56D1334BDB78763B0D2B51D8DFE803F007385050505050504950505017270120302108F085FA00232A4A1370E8
:40444000264A13700122294B1A701822214B1A7038E00120302108F075FA0123224A137000211E4A1170214A13701822194B1A7028E00120302108F065FA02221A4B1A70F0
:404480000022164B1A700122184B1A701822114B1A7017E00120302108F054FA0322124B1A7000220D4B1A700122104B1A701822084B1A7006E001205F2108F043FA1B22E8
:4044C000044B1A7064200DF099F90CF039FD38BD6888FF1F2E83FF1F6C88FF1FF585FF1F3183FF1F788CFF1F3F86FF1F6A8AFF1F10B5A34B1B78212B01F24883DFE813F01F
:4045000022009C00F800460B5201CC016102D602460B6A0339047C04E904680591057406460B460B460B8907460B460B460B460B460B460B2F080009AD09460B460B250A04
:40454000460BEB0A8F4B1B78012B03D18E4B1A788B4B1A708D4B1B78012B06D18C4B1A788C4B1A7001228C4B1A700CF0BFFC082841F00C83894B1B78DBB2AA2B56D1874B98
:404580009B79DBB2C32B51D1844BDB79DBB23C2B4CD1824BDB78DBB2562B02D0572B1FD044E07A4B1B78012B04D1794B1A78794B1A7008E00120632108F0C4F90123764A5E
:4045C0001370744A13706F4B1B78012B04D16E4B1A786B4B1A7029E00022694B1A7025E00120632108F0AEF902226B4B1A70674B1B78012B04D1664B1A78664B1A7002E062
:404600000022644B1A705F4B1B78012B04D15E4B1A785B4B1A7009E00120632108F092F902225D4B1A700122554B1A7064200DF0E5F80CF085FC10BD0CF058FC082841F069
:40464000A582564B1B78DBB2AA2B4BD1534B9B79DBB2C32B46D1514BDB79DBB23C2B41D14E4BDB78DBB25C2B0AD004D8452B0FD0592B18D036E07E2B25D0942B2BD031E037
:404680000120492108F05EF902223D4B1A7029E00120252108F056F90022414B1A700F22374B1A701EE001202B2108F04BF94FF42F700DF0A3F801202E2108F043F90022D7
:4046C0002F4B1A700EE001202E2108F03BF900222B4B1A7006E001202E2108F033F90022274B1A7064200DF089F80CF029FC10BD0CF0FCFB082841F04982284B1B78DBB2D0
:40470000AA2B36D1254B9B79DBB2C32B31D1234BDB79DBB23C2B2CD1204BDB78DBB25F2B08D002D85E2B0DD023E07E2B12D0942B18D01EE001200B2108F004F90A22104B00
:404740001A7016E001201D2108F0FCF80B220C4B1A700EE001202E2108F0F4F80022084B1A7006E00120632108F0ECF80122044B1A7064200DF042F80CF0E2FB10BD00BF9C
:40478000F085FF1FC685FF1F2F83FF1F4D8AFF1FF385FF1F2E83FF1F0C89FF1F788CFF1FF585FF1F0CF0A2FB082841F0EF81A94B1B78DBB2AA2B69D1A64B9B79DBB2C32B59
:4047C00064D1A44BDB79DBB23C2B5FD1A24AD37823F00303D3709F4BDB78DBB23B2B3ED004D80F2B09D0102B1BD04FE07E2B3ED0942B44D0432B49D129E00120062108F0AD
:40480000A1F80022954B1A700120242108F0D2F8934AD37843F00203D3700522914B1A7034E001200D2108F08DF800228B4B1A708D4B1A700120472108F0BCF8884AD378E5
:4048400043F00103D3700522864B1A701EE00120072108F077F80622824B1A7016E001202E2108F06FF800227E4B1A700EE001202E2108F067F800227A4B1A7006E00120A8
:404880000B2108F05FF80A22764B1A7064200CF0B5FF0CF055FB10BD0CF028FB082841F075816C4B1B78DBB2AA2B40F08480694B9B79DBB2C32B7ED1664BDB79DBB23C2BD8
:4048C00079D1664B1B78694A1278013A93423EDC604AD278D2B2092A0FD80133DAB25F4B1A705C48C1785E4B13443031D972C17830310120C9B208F05DF8564BDB78DBB2B0
:404900000A2B0BD1554B1A780132D2B21A70544B13443021D972012008F04CF84D4BDB78DBB2512B13D14D4B1B7883B14E4A12786AB90133DAB2494B1A70494B13442C2172
:40494000D972012008F036F80122474B1A70414BDB78DBB20B2B1BD1404B1A783AB90120052107F0EFFF04223E4B1A7010E00120202108F01FF8394B1B78374A1A44D27AC0
:404980002C2A02D10021384A1170013B334A1370304BDB78DBB20C2B0DD1304B1B7853B10120072107F0CEFF2C4B1A782C4BDA7206222C4B1A7064200CF020FF0CF0C0FA95
:4049C00010BD0CF093FA082820D1224B1B78DBB2AA2B15D11F4B9B79DBB2C32B10D11D4BDB79DBB23C2B0BD11A4BDB78DBB27E2B06D101202E2107F0A5FF0022194B1A70B2
:404A000064200CF0FBFE0CF09BFA10BD184B187804F044F8072841F0B98032200CF0EEFE134B187804F04EF80146124B18700C4BDB7813F0030321D00D4A10780E4A07F083
:404A4000DDFBD8B901202E2107F07CFF0022054B1A7010BD788CFF1F7488FF1FF585FF1F6C8AFF1FF085FF1F3183FF1FD585FF1F3483FF1FC085FF1F778AFF1F9F4C207883
:404A800004F020F89E4B1870207840F010000CF0F9F80120082107F055FF0723994A1370994A13700122994B1A7010BD32200CF0A5FE924B187803F0F1FF0638052801F22C
:404AC0006580DFE810F07000630863087C003B00060064200CF092FE884B187804F066F801280ED18A4B1B785BB9392107F02AFF0022864B1A7014200CF080FE0D22814B1E
:404B00001A707E4B187804F051F8012841F03E807F4B1B78012B41F039800C2107F012FF00247A4B1C704FF4FA700CF067FE01202E2107F007FF734B1C7010BD64200CF00E
:404B40005DFE6E4B187804F031F801280ED1704B1B785BB9392107F0F5FE00226B4B1A7014200CF04BFE0D22664B1A70634B187804F01CF8012841F00980654B1B78012BE9
:404B800041F004800C2107F0DDFE00245F4B1C704FF4FA700CF032FE01202E2107F0D2FE584B1C7010BD01202E2107F0CBFE0023564A1370574AD370524A137010BD322043
:404BC0000CF01CFE01202E2107F0BCFE00224D4B1A7010BD0CF08AF9082840F0D7874E4B1B78DBB2AA2B40F0BE804B4B9B79DBB2C32B40F0B880484BDB79DBB23C2B40F09C
:404C0000B280464B1B78062B65D8434AD278D2B2092A10D80133DAB2404B1A703E48C1783C4B1344303183F86510C17830310120C9B207F0BFFE384BDB78DBB20A2B0CD118
:404C4000364B1A780132D2B21A70324B1344302183F86510012007F0ADFE2F4BDB78DBB26A2B0CD12D4B1A780132D2B21A70294B13442D2183F86510012007F09BFE264BC6
:404C8000DB78DBB21A2B26D9234BDB78DBB2422B21D80022224B1A6019E01F4AD278D2B220491944097A8A420DD11C490A780132D2B20A704133D9B2164B134483F8651031
:404CC000012007F077FE164A136801331360144B1B68192BE1D9104BDB78DBB20B2B2BD10E4B1A7802BB01202E2107F02BFE0023084A82F86530034A13701DE03483FF1FFA
:404D0000C085FF1FF085FF1F2F83FF1FC685FF1F8083FF1F6C8AFF1F788CFF1FF585FF1F2C84FF1F0C81FF1F0120202107F042FEA14A1378013B1370A04BDB78DBB20C2B0C
:404D400011D19D4B1B7873B10120052107F0FAFD9B4B994A127883F86520012283F883200422984B1A7064200CF048FD0CF0E8F810BD0CF0BBF8082840F008878F4B1B78DD
:404D8000DBB2AA2B32D18D4B9B79DBB2C32B2DD18A4BDB79DBB23C2B28D1884BDB78DBB2392B04D07E2B1AD0382B1FD10CE001200A2107F0C7FD00237F4A1370824A137091
:404DC0000922804B1A7011E00120052107F0BAFD01227D4B1A7004227A4B1A7006E001202E2107F0AFFD0022764B1A7064200CF005FD0CF0A5F810BD0320012108F0FCFEDE
:404E0000052840D90A200CF0F9FC0320212108F0F3FE052837D9032008F0E4FD012832D133200CF0ABF80120332108F03FFE50B30022664B1A600AE0012008F0A1FE604B25
:404E40001C4484F82900614A1368013313605F4B1C68072CF0D90120132107F073FD584CE37843F00403E3704FF4FA700CF0C6FC01200E2107F066FD00234F4A1370237106
:404E80000C22504B1A700CF031F8082840F07E864A4B1B78DBB2AA2B15D1484B9B79DBB2C32B10D1454BDB79DBB23C2B0BD1434BDB78DBB23B2B06D10120492107F042FD83
:404EC0000222404B1A7064200CF098FC0CF038F810BD0CF00BF8082840F05886374B1B78DBB2AA2B62D1354B9B79DBB2C32B5DD1324BDB79DBB23C2B58D12F4B1B78052B1D
:404F000025D82E4AD278D2B2092A0FD80133DAB2294B1A702948C178294B134430311971C17830310120C9B207F044FD234BDB78DBB20A2B0BD1204B1A780132D2B21A70EB
:404F40001F4B134430211971012007F033FD1B4BDB78DBB20B2B12D1174B1A783AB90120052107F0EFFC0422164B1A7007E00120202107F01FFD104A1378013B13700F4B73
:404F8000DB78DBB20C2B11D10B4B1B7873B10C4B5B79302B0AD00120052107F0D3FC064B1A78074B1A710422064B1A7064200CF025FC0BF0C5FF10BDF585FF1F788CFF1FD6
:404FC0006C8AFF1FF085FF1F8083FF1FF885FF1F974B5878974B19780022974B1B7809F04FFD964B5B788BB901200C2107F0AAFC4FF42F700CF002FC0024914BDC70012021
:405000002E2107F09FFC8F4B1C7010BD0120312107F098FC00228C4B1A702122894B1A7010BD0BF063FF082840F0B085874B1B78DBB2AA2B40F0D280844B9B79DBB2C32BD4
:4050400040F0CC80814BDB79DBB23C2B40F0C6807E4BDB78583B3E2B00F2C080DFE803F020BE5464BE30BEBEBEBEBEBEBE7FBEBEBEBEBEBEBEBEBEBE9FBEBEBEBEBEBEBEB4
:40508000BEBEBEBEBEBEAFBEBEBEBEBEBEBEBEBEBEBEBEBEBEBEBEBEBEBEBE8FB7BE740001202B2107F04EFC4FF42F700CF0A6FB0120702107F046FC0E22624B1A708DE091
:4050C00001205C2107F03EFC01200021D62240F2AD1307F033FE01200021892240F2A71307F02CFE01200146242240F2B31307F025FE0120014678224FF47A7307F01EFE8E
:405100001322504B1A7069E001202B2107F01AFC4FF42F700CF072FB0120702107F012FC0E22484B1A7059E001202B2107F00AFC4FF42F700CF062FB0120702107F002FC7E
:405140000E22404B1A7049E001205F2107F0FAFB00223F4B1A701B223A4B1A703EE001202B2107F0EFFB4FF42F700CF047FB0120702107F0E7FB0E22324B1A702EE0012035
:405180002B2107F0DFFB4FF42F700CF037FB0120702107F0D7FB0E222A4B1A701EE001202B2107F0CFFB4FF42F700CF027FB0120702107F0C7FB0E22224B1A700EE001204B
:4051C0002E2107F0BFFB00221E4B1A7006E001202E2107F0B7FB00221A4B1A7064200CF00DFB0BF0ADFE10BD0BF080FE082840F0CD84164B1B78DBB2AA2B40F00481134BFC
:405200009B79DBB2C32B40F0FE80104BDB79DBB23C2B40F0F8800D4BDB78DBB27E2B19D10120312107F08EFB0022064B1A701DE07088FF1FC085FF1F3483FF1F2C83FF1F13
:405240006C8AFF1FF085FF1F0D89FF1F788CFF1FF585FF1FA24BDB78DBB2942B06D10120632107F06FFB01229E4B1A709E4B1A78072A26D89A4BDB78DBB2092B0ED8984BAE
:40528000D9789A4B1344303183F88E1001202A2107F090FB944A137801331370904BDB78DBB20A2B0DD1904C2278904B1344302183F88E1001202A2107F07CFB2378013350
:4052C0002370874BDB78DBB20B2B1AD1864B1B787BB90120392107F035FB4FF4FA700CF08DFA01202E2107F02DFB00227D4B1A7007E0013BDAB27C4B1A700120202107F082
:4053000059FB774BDB78DBB20C2B7CD1764B1A78002A36D0002376490B6076490B6015E0581C7549014491F8D710704C234493F88E30303B994204D16D490B6801330B60CE
:4053400002E000216A4B19606A4B1860694B1B689A42E5D8684B93F8D720654B1B689A420BD10120262107F0EDFA4FF4FA700CF045FA0120702107F0E5FA0E22594B1A70CB
:4053800041E000235A490B605A490B6010E05B49194491F824005549194491F88E10884203D15348016801310160013351490B60504B1B689A42EAD84D4B1B68082B13D171
:4053C0000120262107F0BEFA4FF4FA700CF016FA01205D2107F0B6FA0120702107F0B2FA0E22404B1A700EE00120272107F0AAFA4FF4FA700CF002FA01202E2107F0A2FA63
:405400000022384B1A7064200CF0F8F90BF098FD10BD0BF06BFD082840F0B883304B1B78DBB2AA2B40F095802D4B9B79DBB2C32B40F08F802A4BDB79DBB23C2B40F0898080
:40544000274BDB787E3B162B00F28380DFE803F0720C20345E81818181818181818181818181818181817A000120062107F06AFA00221D4B1A70224B19781F4B83F8A31036
:405480000120242107F096FA1A22164B1A7060E00120062107F056FA0022134B1A70194B1978154B83F8A3100120242107F082FA1A220C4B1A704CE00120062107F042FADF
:4054C0000022094B1A70104B19780B4B83F8A3100120242107F06EFA1A22024B1A7038E0788CFF1FF085FF1FF585FF1F6C8AFF1F3487FF1F2C84FF1F1489FF1F0C81FF1FDE
:405500006B8AFF1F7288FF1F508AFF1F0120062107F018FA0022AA4B1A70AA4B1978AA4B83F8A3100120242107F044FA1A22A74B1A700EE001202E2107F004FA0022A34BF7
:405540001A7006E00120702107F0FCF90E229F4B1A7064200CF052F90BF0F2FC10BD0BF0C5FC082840F01283994B1B78DBB2AA2B40F0C080964B9B79DBB2C32B40F0BA8024
:40558000934BDB79DBB23C2B40F0B4808C4B1B78062B25D88E4AD278D2B2092A0FD80133DAB2874B1A708A48C1788A4B13443031D972C17830310120C9B207F0FBF9844B1A
:4055C000DB78DBB20A2B0BD17D4B1A780132D2B21A70804B13443021D972012007F0EAF97B4BDB78DBB20B2B1BD1754B1A783AB90120702107F0A6F90E22744B1A7010E0A8
:405600000120202107F0D6F96D4B1B78714A1A44D27A2C2A02D100216F4A1170013B684A13706B4BDB78DBB20C2B63D1644B1B78032B5FD90622654B1A700120392107F020
:4056400081F95F4B1A78634BDA72644B187807F017F800283FD05C4B93F8A320604B1B789A4204D140F2A7105E4908F00FF9564B93F8A3205C4B1B789A4204D140F2B310BB
:40568000584908F003F9504B93F8A320574B1B789A4204D140F2AD10524908F0F7F84A4B93F8A320474B1B789A4204D14FF47A704C4908F0EBF801203C2107F043F94FF4CB
:4056C000FA700CF09BF80120702107F03BF90E223E4B1A700EE00120552107F033F94FF42F700CF08BF801202E2107F02BF90022364B1A7064200CF081F80BF021FC10BDF2
:405700000BF0F4FB082840F04182314B1B78DBB2AA2B40F09C802E4B9B79DBB2C32B40F096802B4BDB79DBB23C2B40F09080284BDB787E3B162B00F28A80DFE803F0790C58
:40574000305969888888888888888888888888888888888881000120582107F0F3F80120002173224FF41F7307F04AFB01200021CF2240F27E2307F043FB0120014629225C
:4057800040F27A2307F03CFB012001467B224FF47C7307F035FB1C220C4B1A7057E001202B2107F0CFF84FF42F700CF027F80120702107F0C7F80E22044B1A7047E000BFB9
:4057C000F585FF1FF485FF1F1489FF1FF085FF1F788CFF1F7488FF1F3183FF1F3483FF1F6B8AFF1F7F88FF1F508AFF1F7288FF1F01202B2107F0A6F84FF42F700BF0FEFF25
:405800000120702107F09EF80E22784B1A701EE001202B2107F096F84FF42F700BF0EEFF0120702107F08EF80E22704B1A700EE001202E2107F086F800226C4B1A7006E032
:405840000120702107F07EF80E22684B1A7064200BF0D4FF0BF074FB10BD0BF047FB082840F09481624B1B78DBB2AA2B67D1604B9B79DBB2C32B62D15D4BDB79DBB23C2B2A
:405880005DD15B4BDB787E3B162B58D8DFE803F0480C1B2A39575757575757575757575757575757575750000120062107F04AF80022504B1A7001224F4B83F8A3201F22F0
:4058C0004A4B1A703BE00120062107F03BF80022484B1A700222484B83F8A3201F22434B1A702CE00120062107F02CF80022414B1A700322404B83F8A3201F223B4B1A7089
:405900001DE00120062107F01DF80022394B1A700422394B83F8A3201F22344B1A700EE001202E2107F00EF80022304B1A7006E00120702107F006F80E222C4B1A706420F0
:405940000BF05CFF0BF0FCFA10BD0BF0CFFA082840F01C81264B1B78DBB2AA2B40F0B580234B9B79DBB2C32B40F0AF80204BDB79DBB23C2B40F0A9801E4B1B782BBB1C4AD7
:40598000D278D2B2092A0FD80133DAB2194B1A701748C178194B13443031D972C17830310120C9B207F006F8114BDB78DBB20A2B0BD1104B1A780132D2B21A700F4B1344FB
:4059C0003021D972012006F0F5FF094BDB78DBB20B2B26D1074B1A7892B90120002106F0B1FF0022014B1A701BE000BFF085FF1F788CFF1FF585FF1F1489FF1F6C8AFF1FBA
:405A00000120202106F0D6FF614B1B78614A1A44D27A2C2A02D100215F4A1170013B5C4A13705E4BDB78DBB20C2B4ED1584B1B78012B4AD10120392106F084FF544B1A784B
:405A4000544BDA72564B93F8A330022B08D151490A7B544B1A704FF41F700B3107F016FF4F4B93F8A330012B08D14A490A7B4E4B1A7040F27A200B3107F008FF484B93F878
:405A8000A330032B08D143490A7B484B1A7040F27E200B3107F0FAFE414B93F8A330042B08D13C490A7B424B1A704FF47C700B3107F0ECFE4FF4FA700BF0A0FE012070218C
:405AC00006F040FF0E223B4B1A7064200BF096FE0BF036FA10BD0BF009FA082856D12F4B1B78DBB2AA2B4CD12C4B9B79DBB2C32B47D12A4BDB79DBB23C2B42D1274BDB7892
:405B0000DBB20A2B2ED101222B4B1A6010E02B4B58782B4B197801222A4B1B7808F0B0FF4FF4FA700BF06AFE234A136801331360254B1B7803F00F031F4A12689342E6D26B
:405B400001200C2106F0FEFE4FF42F700BF056FE00241E4BDC7001202E2106F0F3FE154B1C700EE001200C2106F0ECFE4FF42F700BF044FE01202E2106F0E4FE00220D4B9B
:405B80001A7064200BF03AFE0BF0DAF910BD00BFF585FF1F6C8AFF1F3183FF1F788CFF1F1489FF1F2E87FF1F1289FF1F3387FF1F3087FF1FF085FF1FF885FF1F7088FF1F72
:405BC000C085FF1F3483FF1F048BFF1F7488FF1F10B5A04B1B78212B01F22B83DFE813F022009600F200290B4E01C8017B02EC02290B84035604990406058B05B405A80697
:405C0000290B290B290BAC07290B290B290B290B290B290B53082409C109290B290B1B0A290BBA0A8C4B1B78012B03D18B4B1A78884B1A708A4B1B78012B06D1894B1A7806
:405C4000894B1A700422894B1A700BF041FA082841F0EF82864B1B78DBB2AA2B50D1844B9B79DBB2C32B4BD1814BDB79DBB23C2B46D17F4BDB78DBB2562B02D0572B20D03F
:405C80003EE0754B1B78012B04D1744B1A78714B1A7009E00220632106F054FE0322734B1A7001226B4B1A706D4B1B78012B04D16C4B1A786C4B1A7022E000226A4B1A70FB
:405CC0001EE06C4B1B78012B04D1644B1A78614B1A7002E000225F4B1A70614B1B78012B04D1604B1A78604B1A7009E00220632106F028FE04225D4B1A7001225A4B1A70A5
:405D000064200BF07BFD0BF00DFA10BD0BF0E0F9082841F08E82564B1B78DBB2AA2B4BD1534B9B79DBB2C32B46D1514BDB79DBB23C2B41D14E4BDB78DBB25C2B0AD004D8B6
:405D4000452B0FD0592B18D036E07E2B25D0942B2BD031E00220492106F0F4FD02223D4B1A7029E00220252106F0ECFD0022424B1A700F22374B1A701EE002202B2106F018
:405D8000E1FD4FF4FA700BF039FD02202E2106F0D9FD00222F4B1A700EE002202E2106F0D1FD00222B4B1A7006E002202E2106F0C9FD0022274B1A7064200BF01FFD0BF0B8
:405DC000B1F910BD0BF084F9082841F03282284B1B78DBB2AA2B36D1254B9B79DBB2C32B31D1234BDB79DBB23C2B2CD1204BDB78DBB25F2B08D002D85E2B0DD023E07E2BE3
:405E000012D0942B18D01EE002200B2106F09AFD0A22104B1A7016E002201D2106F092FD0B220C4B1A700EE002202E2106F08AFD0022084B1A7006E00220632106F082FD2A
:405E40000122044B1A7064200BF0D8FC0BF06AF910BD00BFC485FF1F2F87FF1FF185FF1F3083FF1F6588FF1F3E86FF1FEE85FF1F8C8CFF1F4D8AFF1F0D89FF1F0BF028F9D0
:405E8000082841F0D681A64B1B78DBB2AA2B69D1A34B9B79DBB2C32B64D1A14BDB79DBB23C2B5FD19F4AD37823F00303D3709C4BDB78DBB23B2B3ED004D80F2B09D0102BFF
:405EC0001BD04FE07E2B3ED0942B44D0432B49D129E00220062106F035FD0022924B1A700220242106F066FD8E4AD37843F00203D37005228D4B1A7034E002200D2106F032
:405F000021FD0022884B1A70894B1A700220472106F050FD834AD37843F00103D3700522824B1A701EE00220072106F00BFD06227E4B1A7016E002202E2106F003FD002249
:405F40007A4B1A700EE002202E2106F0FBFC0022764B1A7006E002200B2106F0F3FC0A22724B1A7064200BF049FC0BF0DBF810BD0BF0AEF8082841F05C81694B1B78DBB27B
:405F8000AA2B40F0A280664B9B79DBB2C32B40F09C80634BDB79DBB23C2B40F09680624B1B78644A1278013A93423EDC5C4AD278D2B2092A0FD80133DAB25B4B1A70584832
:405FC000C178584B13443031D972C17830310220C9B206F0EFFC524BDB78DBB20A2B0BD1514B1A780132D2B21A704E4B13443021D972022006F0DEFC494BDB78DBB2512B3F
:4060000013D1494B1B7883B1494A12786AB90133DAB2454B1A70434B13442C21D972022006F0C8FC0122424B1A703D4BDB78DBB20B2B1BD13C4B1A783AB90220052106F0A0
:4060400081FC0422394B1A7010E00220202106F0B1FC354B1B78334A1A44D27A2C2A02D10021334A1170013B2F4A13702C4BDB78DBB20C2B29D12C4B1B786BB12E4B1B7805
:4060800053B90220072106F05DFC274B1A78254BDA720622254B1A70234B1B78ABB1264B1B78012B11D10220702106F04BFC1D4B1B7B22490B7040F2964007F0E7FB002213
:4060C0001D4B1A700E22194B1A7064200BF096FB0BF028F810BD0AF0FBFF082830D1104B1B78DBB2AA2B15D10D4B9B79DBB2C32B10D10B4BDB79DBB23C2B0BD1084BDB7855
:40610000DBB27E2B06D102202E2106F01BFC0022064B1A7064200BF071FB0BF003F810BD8C8CFF1F8C86FF1F0D89FF1FC485FF1FF685FF1FD585FF1F6C88FF1F048BFF1FD8
:406140009B4B187802F0AAFC072841F0728032200BF054FB964B187802F0B4FC0146954B1870954BDB7813F003030DD0904A1078924A06F043F838B902202E2106F0E2FBA4
:4061800000228F4B1A7010BD894C207802F09AFC884B1870207840F010000AF073FD0220082106F0CFFB0723854A1370854A13700122854B1A7010BD32200BF01FFB7C4BA9
:4061C000187802F06BFC0638052801F23280DFE810F074003008300880003D00060064200BF00CFB724B187802F0E0FC01280FD1764B1B7863B90220392106F0A3FB0022EC
:40620000714B1A7014200BF0F9FA0D226C4B1A70674B187802F0CAFC012841F00A806B4B1B78012B41F0058002200C2106F08AFB0024654B1C704FF4FA700BF0DFFA0220B0
:406240002E2106F07FFB5E4B1C7010BD64200BF0D5FA574B187802F0A9FC01280FD15B4B1B7863B90220392106F06CFB0022564B1A7014200BF0C2FA0D22514B1A704C4BEB
:40628000187802F093FC012840F0D3874F4B1B78012B40F0CE8702200C2106F053FB0024494B1C704FF4FA700BF0A8FA02202E2106F048FB424B1C7010BD02202E2106F024
:4062C00041FB0023404A13703B4AD3703C4A137010BD32200BF092FA02202E2106F032FB0022374B1A7010BD0AF0F2FE082840F0A087374B1B78DBB2AA2B40F0C180344B54
:406300009B79DBB2C32B40F0BB80314BDB79DBB23C2B40F0B5802F4B1B78062B7ED82C4AD278D2B2092A10D80133DAB2294B1A702748C178204B1344303183F86510C17895
:4063400030310220C9B206F035FB214BDB78DBB20A2B0CD11F4B1A780132D2B21A701E4B1344302183F86510022006F023FB184BDB78DBB26A2B0CD1164B1A780132D2B2C8
:406380001A700D4B13442D2183F86510022006F011FB0F4BDB78DBB21A2B3FD90C4BDB78DBB2422B3AD800220C4B1A6032E000BF4086FF1F6B88FF1F8C86FF1F9786FF1FD1
:4063C000C485FF1FF185FF1F2F87FF1FD485FF1F8C8CFF1F0D89FF1F6C8AFF1F2C84FF1FA94AD278D2B2A9491944097A8A420DD1A7490A780132D2B20A704133D9B2A54BBC
:40640000134483F86510022006F0D4FAA24A136801331360A04B1B68192BE1D99A4BDB78DBB20B2B15D19A4B1A7852B902202E2106F088FA0023994A82F86530984A1370EF
:4064400007E00220202106F0B5FA914A1378013B13708D4BDB78DBB20C2B11D18C4B1B7873B10220052106F06DFA8A4B884A127883F86520012283F883200422884B1A700F
:4064800064200BF0BBF90AF04DFE10BD0AF020FE082840F0CE867C4B1B78DBB2AA2B32D1794B9B79DBB2C32B2DD1774BDB79DBB23C2B28D1744BDB78DBB2392B04D07E2B38
:4064C0001AD0382B1FD10CE002200A2106F03AFA00236F4A1370734A13700922704B1A7011E00220052106F02DFA01226D4B1A7004226B4B1A7006E002202E2106F022FA63
:406500000022674B1A7064200BF078F90AF00AFE10BD0220012107F06FFB052840D90A200BF06CF90220212107F066FB052837D9022007F057FA012832D133200AF010FEDF
:406540000220332107F0B2FA50B30022564B1A600AE0022007F014FB4E4B1C4484F82900514A1368013313604F4B1C68072CF0D90220132106F0E6F9464CE37843F00403E9
:40658000E3704FF4FA700BF039F902200E2106F0D9F900233E4A137023710C22404B1A700AF096FD082840F04486374B1B78DBB2AA2B15D1344B9B79DBB2C32B10D1324B10
:4065C000DB79DBB23C2B0BD12F4BDB78DBB23B2B06D10220492106F0B5F90222304B1A7064200BF00BF90AF09DFD10BD0AF070FD082840F01E86244B1B78DBB2AA2B74D18F
:40660000214B9B79DBB2C32B6FD11F4BDB79DBB23C2B6AD11E4B1B78052B25D81A4AD278D2B2092A0FD80133DAB2194B1A701648C178184B134430311971C1783031022017
:40664000C9B206F0B7F9104BDB78DBB20A2B0BD10F4B1A780132D2B21A700E4B134430211971022006F0A6F9074BDB78DBB20B2B24D1074B1A78CAB90220052106F062F9E1
:406680000422074B1A7019E08C8CFF1F0C81FF1F0D89FF1F8C86FF1F2C84FF1F6C8AFF1FC485FF1FD485FF1FF885FF1F0220202106F080F9964A1378013B1370954BDB7890
:4066C000DBB20C2B11D1924B1B7873B1924B5B79302B0AD00220052106F034F98C4B1A788D4B1A7104228D4B1A7064200BF086F80AF018FD10BD8A4B58788A4B19780022B5
:40670000894B1B7808F0BCF9884B5B788BB902200C2106F017F94FF416700BF06FF800247D4BDC7002202E2106F00CF97B4B1C7010BD0220312106F005F90022744B1A7045
:406740002122764B1A7010BD0AF0C2FC082840F07085704B1B78DBB2AA2B40F0D2806D4B9B79DBB2C32B40F0CC806A4BDB79DBB23C2B40F0C680674BDB78583B3E2B00F256
:40678000C080DFE803F020BE5464BE30BEBEBEBEBEBEBE7FBEBEBEBEBEBEBEBEBEBE9FBEBEBEBEBEBEBEBEBEBEBEBEBEAFBEBEBEBEBEBEBEBEBEBEBEBEBEBEBEBEBEBEBE30
:4067C000BE8FB7BE740002202B2106F0BBF84FF4FA700BF013F80220702106F0B3F80E224E4B1A708DE002205C2106F0ABF802200021D62240F2AD1306F0A0FA022000214D
:40680000892240F2A71306F099FA02200121242240F2B31306F092FA0220012178224FF47A7306F08BFA13223C4B1A7069E002202B2106F087F84FF4FA700AF0DFFF022092
:40684000702106F07FF80E22344B1A7059E002202B2106F077F84FF4FA700AF0CFFF0220702106F06FF80E222C4B1A7049E002205F2106F067F80022254B1A701B22274B34
:406880001A703EE002202B2106F05CF84FF4FA700AF0B4FF0220702106F054F80E221F4B1A702EE002202B2106F04CF84FF4FA700AF0A4FF0220702106F044F80E22174B8E
:4068C0001A701EE002202B2106F03CF84FF4FA700AF094FF0220702106F034F80E220F4B1A700EE002202E2106F02CF800220B4B1A7006E002202E2106F024F80022074BFD
:406900001A7064200AF07AFF0AF00CFC10BD00BF0D89FF1F8C8CFF1F8C86FF1FC485FF1F1089FF1F6B88FF1F4086FF1F688AFF1F0AF0CEFB082840F07C84A94B1B78DBB2D4
:40694000AA2B40F07684A64B9B79DBB2C32B40F07084A34BDB79DBB23C2B40F06A84A04BDB78DBB27E2B07D10220312105F0EAFF00229C4B1A700BE0994BDB78DBB2942B81
:4069800006D10220632105F0DDFF0122954B1A70954B1A78072A26D8914BDB78DBB2092B0ED88F4BD978914B1344303183F88E1002202A2105F0FEFF8B4A13780133137037
:4069C000874BDB78DBB20A2B0DD1874C2278874B1344302183F88E1002202A2105F0EAFF2378013323707E4BDB78DBB20B2B1AD17D4B1B787BB90220392105F0A3FF4FF476
:406A0000FA700AF0FBFE02202E2105F09BFF0022744B1A7007E0013BDAB2734B1A700220202105F0C7FF6E4BDB78DBB20C2B7DD16D4B1978002979D000236D4A13606D4A9C
:406A4000136015E0581C6C4A024492F8D720674C234493F88E30303B9A4204D1644A13680133136002E00022614B1A60614B18600846604B1B689942E4D85F4B93F8D720E1
:406A80005B4B1B689A420FD10220262105F05AFF4FF4FA700AF0B2FE0220702105F052FF0E22504B1A7041E00023514A1360514A136010E0514A1A4492F824104B4A1A449B
:406AC00092F88E20914203D149490A6801320A600133484A1360474B1B689842EAD8444B1B68082B13D10220262105F02BFF4FF4FA700AF083FE01205D2105F023FF02207B
:406B0000702105F01FFF0E223D4B1A700EE00220272105F017FF4FF4FA700AF06FFE02202E2105F00FFF00222E4B1A7064200AF065FE0AF0F7FA10BD0AF0CAFA082840F0A8
:406B40007883274B1B78DBB2AA2B40F09680244B9B79DBB2C32B40F09080214BDB79DBB23C2B40F08A801E4BDB787E3B162B00F28480DFE803F0730C204B5F828282828208
:406B80008282828282828282828282827B000220062105F0D7FE0022134B1A70194B1978154B83F8A3100220242105F003FF1A220C4B1A7061E00220062105F0C3FE0022C5
:406BC000094B1A70104B19780B4B83F8A3100220242105F0EFFE1A22024B1A704DE000BF8C8CFF1FC485FF1F0D89FF1F8C86FF1F3487FF1F2C84FF1F1489FF1F0C81FF1F71
:406C00002E83FF1FC585FF1FE885FF1F0220062105F098FE0022AC4B1A70AC4B1978AC4B83F8A3100220242105F0C4FE1A22A94B1A7022E00220062105F084FE0022A24BC5
:406C40001A70A54B1978A24B83F8A3100220242105F0B0FE1A229F4B1A700EE002202E2105F070FE00229B4B1A7006E00220702105F068FE0E22974B1A7064200AF0BEFD17
:406C80000AF050FA10BD0AF023FA082840F0D182924B1B78DBB2AA2B40F0C0808F4B9B79DBB2C32B40F0BA808C4BDB79DBB23C2B40F0B480844B1B78062B25D8874AD278B6
:406CC000D2B2092A0FD80133DAB27F4B1A708348C178834B13443031D972C17830310220C9B205F067FE7D4BDB78DBB20A2B0BD1754B1A780132D2B21A70794B13443021C4
:406D0000D972022005F056FE744BDB78DBB20B2B1BD16D4B1A783AB90220702105F012FE0E226C4B1A7010E00220202105F042FE654B1B786A4A1A44D27A2C2A02D1002103
:406D4000684A1170013B604A1370644BDB78DBB20C2B63D15C4B1B78032B5FD906225D4B1A700220392105F0EDFD574B1A785C4BDA725D4B187805F083FC00283FD0544B7F
:406D800093F8A320594B1B789A4204D140F2A710574906F07BFD4E4B93F8A3204B4B1B789A4204D140F2B310514906F06FFD484B93F8A3204F4B1B789A4204D140F2AD1046
:406DC0004B4906F063FD424B93F8A320424B1B789A4204D14FF47A70454906F057FD02203C2105F0AFFD4FF4FA700AF007FD0220702105F0A7FD0E22364B1A700EE0022096
:406E0000552105F09FFD4FF4FA700AF0F7FC02202E2105F097FD00222E4B1A7064200AF0EDFC0AF07FF910BD0AF052F9082840F000822A4B1B78DBB2AA2B40F08C80274BAD
:406E40009B79DBB2C32B40F08680244BDB79DBB23C2B40F08080214BDB787E3B162B7AD8DFE803F06A0C224A5A79797979797979797979797979797979797200022058214F
:406E800005F060FD0220002173224FF4936305F0B7FF02200021CF2240F29A4305F0B0FF1C220C4B1A7056E002202B2105F04AFD4FF4FA700AF0A2FC0220702105F042FDB2
:406EC0000E22044B1A7046E00D89FF1F508AFF1F1489FF1FC485FF1FF485FF1F8C8CFF1F7488FF1FF685FF1F4086FF1F6B8AFF1F7F88FF1F7288FF1F02202B2105F022FD5F
:406F00004FF4FA700AF07AFC0220702105F01AFD0E229E4B1A701EE002202B2105F012FD4FF4FA700AF06AFC0220702105F00AFD0E22964B1A700EE002202E2105F002FDB8
:406F40000022924B1A7006E00220702105F0FAFC0E228E4B1A7064200AF050FC0AF0E2F810BD0AF0B5F8082840F06381884B1B78DBB2AA2B49D1864B9B79DBB2C32B44D1C4
:406F8000834BDB79DBB23C2B3FD1814BDB787E3B162B3AD8DFE803F02A390C1B39393939393939393939393939393939393932000220062105F0C6FC0022764B1A70012278
:406FC000754B83F8A3201F22704B1A701DE00220062105F0B7FC00226E4B1A7002226E4B83F8A3201F22694B1A700EE002202E2105F0A8FC0022654B1A7006E00220702133
:4070000005F0A0FC0E22614B1A7064200AF0F6FB0AF088F810BD0AF05BF8082840F009815B4B1B78DBB2AA2B40F08E80584B9B79DBB2C32B40F08880554BDB79DBB23C2B41
:4070400040F08280534B1B782BBB514AD278D2B2092A0FD80133DAB24E4B1A704C48C1784E4B13443031D972C17830310220C9B205F0A0FC464BDB78DBB20A2B0BD1454B1E
:407080001A780132D2B21A70444B13443021D972022005F08FFC3E4BDB78DBB20B2B1BD13C4B1A783AB90220002105F04BFC0022364B1A7010E00220202105F07BFC354B57
:4070C0001B78364A1A44D27A2C2A02D10021344A1170013B2F4A13702D4BDB78DBB20C2B32D12C4B1B78012B2ED10220392105F029FC284B1A78294BDA72274B93F8A33060
:40710000012B08D125490A7B264B1A704FF493600B3106F0BBFB204B93F8A330022B08D11E490A7B204B1A7040F29A400B3106F0ADFB4FF4FA700AF061FB0220702105F0FD
:4071400001FC0E22114B1A7064200AF057FB09F0E9FF10BD09F0BCFF08286AD10C4B1B78DBB2AA2B60D10A4B9B79DBB2C32B5BD1074BDB79DBB23C2B56D1054BDB78DBB2E1
:407180000A2B40D10122094B1A6022E0C485FF1F8C8CFF1F0D89FF1F1489FF1F8C86FF1FF685FF1FC585FF1FE885FF1FF885FF1F204B5878204B19780122204B1B7807F0E4
:4071C0005FFC4FF4FA700AF019FB1D4A1368013313601C4B1B7803F00F03194A12689342E6D202200C2105F0ADFB4FF4FA700AF005FB0024144BDC7002202E2105F0A2FB22
:40720000124B1C7010E002200C2105F09BFB4FF4FA700AF0F3FA00240B4BDC7002202E2105F090FB094B1C7064200AF0E7FA09F079FF10BD1089FF1F6B88FF1F4086FF1F27
