:400000000080002011000000090001000900010008B5044B1A6803F53F5302331A600FF0F5FF00BFFA46004010B5054C237833B9044B13B10448AFF300800123237010BD60
:40004000F082FF1F0000000090110100084B10B51BB108480849AFF300800848036803B910BD074B002BFBD0BDE81040184700BF0000000090110100F482FF1F0881FF1F2B
:400080000000000010B562B610F0A8F910F0C8FA10F054FB10F044FC10F0AEF910F05EFD052010F0EFFF00249C4B1C70204620210DF098FB9A4B1C6006E09A4AD15C9A4A52
:4000C000D1540133964A1360964B1A78944B1B689A42F2D220200F210DF084FB0022904B1A6007E08F4AD15C8F4A1A44917701338B4A13608B4B1A78894B1B689A42F1D276
:400100002F200C210DF06EFB0022854B1A6008E0844AD15C844A1A4482F82F100133804A1360804B1A787E4B1B689A42F0D2402020210DF057FB0022794B1A6008E0794AF6
:40014000D15C794A1A4482F843100133744A1360744B1A78724B1B689A42F0D2602009210DF040FB6F4B1878431EDBB2082B14D800226B4B1A6008E001336A4AD15C6A4A94
:400180001A4482F8D710664A1360654B1B68072BF2D9654B83F8D7000EE00122604B1A6006E0614A1A4482F8D73001335C4A13605B4B1B68082BF4D9802020210DF012FB24
:4001C0000022574B1A6008E0564AD15C564A1A4482F861100133524A1360524B1A78504B1B689A42F0D2A02020210DF0FBFA00224B4B1A6008E04B4AD15C4B4A1A4482F8B9
:400200007F100133464A1360464B1A78444B1B689A42F0D240F2C31002210DF0E3FA414B1B78012B03D13F4B5A78404B1A7040F2C51002210DF0D6FA3A4B1B78012B03D184
:40024000384B5A783A4B1A7040F2C11002210DF0C9FA344B1B78012B03D1324B5A78354B1A7040F2EE3002210DF0BCFA2D4B1B78012B03D12B4B5A782F4B1A704FF4DD70BC
:4002800002210DF0AFFA274B1B78052B05D1254B5B7803F00F03294A13704FF41F7002210DF0A0FA1F4B1B78012B03D11D4B5A78234B1A7040F27A2002210DF093FA194B94
:4002C0001B78012B03D1174B5A781E4B1A7040F27E2002210DF086FA124B1B78012B03D1104B5A78184B1A704FF47C7002210DF079FA0C4B1B78012B03D10A4B5A78134B99
:400300001A7040F29F2005210DF06CFA054B187804282AD10122024B1A6020E09087FF1FE483FF1FB085FF1F3888FF1F4389FF1F9687FF1F2B89FF1FA885FF1F8C85FF1F6C
:400340009A86FF1F3688FF1F9F86FF1F9C86FF1F9E4AD15C9E4AD15401339E4A13609D4B1B68042BF4D99A4B187040F26A400A210DF038FA0022974B1A6006E0934AD15CB7
:40038000954AD1540133934A1360904B1A78914B1B689A42F2D240F275400A210DF022FA00228C4B1A6006E0884AD15C8B4AD1540133884A1360854B1A78864B1B689A42C1
:4003C000F2D24FF490600A210DF00CFA0022814B1A6006E07D4AD15C814AD15401337D4A13607A4B1A787B4B1B689A42F2D240F28B400A210DF0F6F90022764B1A6006E0A1
:40040000724AD15C774AD1540133724A13606F4B1A78704B1B689A42F2D240F28D4002210DF0E0F900226B4B1A6006E0674AD15C6D4AD1540133674A1360644B1A78654B2D
:400440001B689A42F2D240F25A2006210DF0CAF95E4B1B78052B0AD15C4AD37803F00F0362490B70537903F00F03614A137040F2C71002210DF0B6F9544B1B78012B06D157
:400480005C4A1370514B5B7803F00F0353704FF4DE7002210DF0A6F94C4B1B78012B05D14A4B5B7803F00F03534A137040F2632002210DF097F9454B1B78012B05D1434BBB
:4004C0005B7803F00F034D4A537040F2652002210DF088F93D4B1B78012B05D13B4B5B7803F00F03464A53704FF4277003210DF079F9364B1B78022B06D1344B9B7843EA60
:400500000323404A138002E001223E4B1A804FF4767002210DF066F92C4B1B78012B04D12A4B5A78384B5A7007E0374901230B704B704FF476700DF017F940F28F400221EE
:400540000DF050F9214B1B78012B04D11F4B5A782E4B5A7007E02D4901230B704B7040F28F400DF001F940F2D23006210DF03AF9164B187805280FD10022164B1A6006E09B
:40058000124AD15C224AD1540133124A1360114B1B689842F4D20CE01D4905230B7030234B708B70CB700B714B7140F2D2300DF0DBF84FF47D7002210DF014F9034B1878EF
:4005C000012832D10022034B1A602AE0B085FF1F0C81FF1FE483FF1F8085FF1FD883FF1FE089FF1F9085FF1FDC89FF1FD483FF1F2A89FF1FA085FF1F9D86FF1F9487FF1F7C
:400600003488FF1F7A85FF1F2C83FF1F4089FF1F9486FF1F164AD15C164AD1540133164A1360154B1B689842F4D2144A537903F00F00137903F00F014FF47A7303FB01F35E
:4006400042F2107101FB0033D07800F00F00642101FB0031937803F00F0303EB83035B000B44527802F00F021344054A136010BDB085FF1F8C87FF1FE483FF1F9486FF1F7B
:400680003C89FF1F10B500245EE008F0CDF901280BD010B102282AD056E0642010F0F2FC01204F210CF0BCF84EE0642010F0EAFC274B187808F038FA06280FD1254B1878CE
:4006C00008F032FA062809D101203C210CF0A8F802203C210CF0A4F8012435E0012055210CF09EF8022055210CF09AF82CE0642010F0C8FC164B187808F016FA06281BD1AD
:40070000144B187808F010FA062815D1124B187808F00AFA06280FD1104B187808F004FA062809D101204A210CF07AF802204A210CF076F8022407E0012055210CF070F8DB
:40074000022055210CF06CF8002C9ED010BD00BF2489FF1F3483FF1FF485FF1FA486FF1F08B500230A4A13700A4A13704FF4FA7010F088FC01202E210CF052F84FF4FA70BA
:4007800010F080FC02202E210CF04AF808BD00BF2E83FF1FA485FF1F38B5A14B1B782A2B03F27586DFE813F02B009E00F500731E4E01C8017B02EC02731E80035004930428
:4007C00000058305AC0593067708A807D20890091A0AB80BFA0C700E8E0F731E6B133C14D31449152616BE169017A119001A6E1ADF1A261BB11B8B1C731E7F1D041E894BF2
:400800001B78012B03D1884B1A78854B1A70874B1B78012B06D1864B1A78864B1A700222854B1A700FF0A4FF082843F03086834B1B78DBB2AA2B4FD1804B9B79DBB2C32BCA
:400840004AD17E4BDB79DBB23C2B45D17B4BDB78DBB2562B02D0572B1FD03DE0714B1B78012B04D1704B1A786D4B1A7008E0012063210BF0D5FF01236F4A1370684A1370DF
:400880006A4B1B78012B04D1694B1A78694B1A7022E00022674B1A701EE0624B1B78012B04D1614B1A785E4B1A7002E000225C4B1A705E4B1B78012B04D15D4B1A785D4B07
:4008C0001A7009E0012063210BF0AAFF02225A4B1A700122574B1A70642010F0D3FB0FF071FF38BD0FF044FF082843F0D085534B1B78DBB2AA2B46D1504B9B79DBB2C32B16
:4009000041D14E4BDB79DBB23C2B3CD14B4BDB78DBB25C2B0AD004D8452B0FD0592B18D031E07E2B20D0942B26D02CE0012049210BF076FF02223A4B1A7024E00120252145
:400940000BF06EFF00223E4B1A700F22344B1A7019E0012025210BF063FF0022384B1A7027222F4B1A700EE001202E210BF058FF00222B4B1A7006E001202E210BF050FFF5
:400980000022274B1A70642010F07CFB0FF01AFF38BD0FF0EDFE082843F07985274B1B78DBB2AA2B36D1254B9B79DBB2C32B31D1224BDB79DBB23C2B2CD1204BDB78DBB25A
:4009C0005F2B08D002D85E2B0DD023E07E2B12D0942B18D01EE001200B210BF021FF0A220F4B1A7016E001201D210BF019FF0B220B4B1A700EE001202E210BF011FF0022AA
:400A0000074B1A7006E0012063210BF009FF0122034B1A70642010F035FB0FF0D3FE38BD2E83FF1F2889FF1FA785FF1F7D85FF1F2F83FF1FA485FF1F3088FF1F508BFF1FEA
:400A4000A985FF1F0FF094FE082843F02085A64B1B78DBB2AA2B69D1A34B9B79DBB2C32B64D1A14BDB79DBB23C2B5FD19F4AD37823F00303D3709C4BDB78DBB23B2B3ED090
:400A800004D80F2B09D0102B1BD04FE07E2B3ED0942B44D0432B49D129E0012006210BF0BFFE0022924B1A70012024210BF0F0FE8E4AD37843F00203D37005228D4B1A70D8
:400AC00034E001200D210BF0ABFE0022884B1A70894B1A70012047210BF0DAFE834AD37843F00103D3700522824B1A701EE0012007210BF095FE06227E4B1A7016E001203F
:400B00002E210BF08DFE00227A4B1A700EE001202E210BF085FE0022764B1A7006E001200B210BF07DFE0A22724B1A70642010F0A9FA0FF047FE38BD0FF01AFE082843F030
:400B4000A684694B1B78DBB2AA2B40F0A280664B9B79DBB2C32B40F09C80634BDB79DBB23C2B40F09680624B1B78644A1278013A93423EDC5C4AD278D2B2092A0FD8013324
:400B8000DAB25B4B1A705848C178584B13443031D972C17830310120C9B20BF079FE524BDB78DBB20A2B0BD1514B1A780132D2B21A704E4B13443021D97201200BF068FE47
:400BC000494BDB78DBB2512B13D1494B1B7883B1494A12786AB90133DAB2454B1A70434B13442C21D97201200BF052FE0122424B1A703D4BDB78DBB20B2B1BD13C4B1A78E6
:400C00003AB9012005210BF00BFE0422394B1A7010E0012020210BF03BFE354B1B78334A1A44D27A2C2A02D10021334A1170013B2F4A13702C4BDB78DBB20C2B29D12C4B03
:400C40001B786BB12E4B1B7853B9012007210BF0E7FD274B1A78254BDA720622254B1A70234B1B78ABB1264B1B78012B11D1012070210BF0D5FD1D4B1B7B22490B7040F29F
:400C80008D400CF071FD00221D4B1A700E22194B1A70642010F0F6F90FF094FD38BD0FF067FD082830D1104B1B78DBB2AA2B15D10D4B9B79DBB2C32B10D10B4BDB79DBB20A
:400CC0003C2B0BD1084BDB78DBB27E2B06D101202E210BF0A5FD0022064B1A70642010F0D1F90FF06FFD38BD508BFF1F9887FF1FA985FF1F2E83FF1F3183FF1F8C85FF1FF4
:400D00009087FF1FDC89FF1F994B187807F00CFF072843F0BC83322010F0B4F9944B187807F016FF0146934B1870934BDB7813F003030DD08E4A1078904A0BF0CDF938B9BA
:400D400001202E210BF06CFD00228D4B1A7038BD874C207807F0FCFE864B1870207840F010000FF0D1FB012008210BF059FD0723834A1370834A13700122834B1A7038BDF9
:400D8000322010F07FF97A4B187807F0CDFE0638052803F27C83DFE810F070007A1B7A1B7C003B000600642010F06CF9704B187807F042FF01280ED1744B1B785BB93921A1
:400DC0000BF02EFD0022704B1A70142010F05AF90D226B4B1A70664B187807F02DFF012843F05583694B1B78012B43F050830C210BF016FD0024644B1C704FF4FA7010F018
:400E000041F901202E210BF00BFD5D4B1C7038BD642010F037F9564B187807F00DFF01280ED15A4B1B785BB939210BF0F9FC0022554B1A70142010F025F90D22504B1A7064
:400E40004B4B187807F0F8FE012843F020834F4B1B78012B43F01B830C210BF0E1FC0024494B1C704FF4FA7010F00CF901202E210BF0D6FC424B1C7038BD01202E210BF085
:400E8000CFFC0023404A13703B4AD3703C4A137038BD322010F0F6F801202E210BF0C0FC0022374B1A7038BD0FF062FC082843F0EE82374B1B78DBB2AA2B40F0BF80344B52
:400EC0009B79DBB2C32B40F0B980314BDB79DBB23C2B40F0B3802F4B1B78062B7CD82C4AD278D2B2092A10D80133DAB2294B1A702748C178204B1344303183F86510C17830
:400F000030310120C9B20BF0C3FC214BDB78DBB20A2B0CD11F4B1A780132D2B21A70164B1344302183F8651001200BF0B1FC184BDB78DBB26A2B0CD1164B1A780132D2B23E
:400F40001A700D4B13442D2183F8651001200BF09FFC0F4BDB78DBB21A2B3DD90C4BDB78DBB2422B38D800220B4B1A6030E000BF2489FF1F9787FF1F9887FF1FA387FF1FAD
:400F80002E83FF1FA785FF1F2889FF1F8B85FF1F508BFF1FA985FF1FE483FF1FA94AD278D2B2A9491944097A8A420DD1A7490A780132D2B20A704133D9B2A54B134483F8B0
:400FC000651001200BF064FCA24A136801331360A04B1B68192BE1D99A4BDB78DBB20B2B15D19A4B1A7852B901202E210BF018FC0023974A82F86530974A137007E0012025
:4010000020210BF045FC914A1378013B13708D4BDB78DBB20C2B11D18C4B1B7873B1012005210BF0FDFB8A4B884A127883F86520012283F883200422874B1A70642010F0FD
:4010400021F80FF0BFFB38BD0FF092FB082843F01E827C4B1B78DBB2AA2B32D1794B9B79DBB2C32B2DD1774BDB79DBB23C2B28D1744BDB78DBB2392B04D07E2B1AD0382B3A
:401080001FD10CE001200A210BF0CAFB00236F4A1370724A137009226F4B1A7011E0012005210BF0BDFB01226C4B1A7004226A4B1A7006E001202E210BF0B2FB0022664BB6
:4010C0001A7064200FF0DEFF0FF07CFB38BD012001460CF0FFFC052840D90A200FF0D2FF012021210CF0F6FC052837D901200CF0E7FB012832D133200FF082FB01203321FF
:401100000CF042FC50B30022554B1A600AE001200CF0A4FC4E4B1C4484F82900504A1368013313604E4B1C68072CF0D9012013210BF076FB464CE37843F00403E3704FF49E
:40114000FA700FF09FFF01200E210BF069FB00233E4A137023710C223F4B1A700FF008FB082843F09481374B1B78DBB2AA2B15D1344B9B79DBB2C32B10D1324BDB79DBB291
:401180003C2B0BD12F4BDB78DBB23B2B06D1012049210BF045FB02222F4B1A7064200FF071FF0FF00FFB38BD0FF0E2FA082843F06E81244B1B78DBB2AA2B72D1214B9B7922
:4011C000DBB2C32B6DD11F4BDB79DBB23C2B68D11E4B1B78052B25D81A4AD278D2B2092A0FD80133DAB2194B1A701648C178184B134430311971C17830310120C9B20BF0BB
:4012000047FB104BDB78DBB20A2B0BD10F4B1A780132D2B21A700E4B13443021197101200BF036FB074BDB78DBB20B2B22D1074B1A78BAB9012005210BF0F2FA0422064BC4
:401240001A7017E0508BFF1F0C81FF1FA985FF1F9887FF1FE483FF1F2E83FF1F8B85FF1FAC85FF1F012020210BF012FBAA4A1378013B1370A94BDB78DBB20C2B11D1A64B69
:401280001B7873B1A64B5B79302B0AD0012005210BF0C6FAA04B1A78A14B1A710422A14B1A7064200FF0EEFE0FF08CFA38BD9E4B58789E4B197800229D4B1B780DF0E6FA55
:4012C0009C4B5B788BB901200C210BF0A9FA4FF42F700FF0D7FE0024914BDC7001202E210BF09EFA8F4B1C7038BD012031210BF097FA0022884B1A7021228A4B1A7038BD8F
:401300000FF036FA082843F0C280844B1B78DBB2AA2B40F0D680814B9B79DBB2C32B40F0D0807E4BDB79DBB23C2B40F0CA807B4BDB78DBB2652B00F088800AD85A2B54D070
:4013400002D8582B16D0BCE05B2B68D05D2B28D0B7E0932B00F0818006D8702B00F09A807E2B00F09F80ACE0942B00F0A380962B60D0A6E00022684B1A7001203E210BF020
:401380004FFA0CF031F9012801D10BF001FB0CF05BF9012801D10BF059FB1022614B1A708FE001205C210BF03BFA01200021D62240F2AD130BF030FC01200021892240F21B
:4013C000B3130BF029FC01200146242240F2A7130BF022FC0120014678224FF47A730BF01BFC13224F4B1A706BE0012060210BF017FA01200BF08EFB01200BF0CDFC012013
:401400000BF05CFE01200BF0DFFE01200BF04AFD01200BF0CDFD1222424B1A7051E001202F210BF0FDF900223B4B1A7011223D4B1A7046E001205F210BF0F2F90022364B70
:401440001A701B22374B1A703BE001204D210BF0E7F91422334B1A7033E001206E210BF0DFF9012001460CF035FB05280ED90A200FF008FE01200BF0AFFF012021210CF040
:4014800029FB052802D901200BF024FF2322254B1A7016E0012089210BF0C2F92922214B1A700EE001202E210BF0BAF900221D4B1A7006E001202E210BF0B2F90022194B28
:4014C0001A7064200FF0DEFD0FF07CF938BD0FF04FF9082842F0DB87104B1B78DBB2AA2B42F0D5870D4B9B79DBB2C32B42F0CF870A4BDB79DBB23C2B42F0C987074BDB787F
:40150000DBB27E2B18D1012031210BF089F90022044B1A701CE000BFA985FF1F508BFF1F9887FF1F2E83FF1F9487FF1F9787FF1F2489FF1F2C83FF1FA34BDB78DBB2942BFB
:4015400006D1012063210BF06BF901229F4B1A709F4B1A78072A26D89B4BDB78DBB2092B0ED8994BD9789B4B1344303183F88E1001202A210BF08CF9954A13780133137075
:40158000914BDB78DBB20A2B0DD1914C2278914B1344302183F88E1001202A210BF078F9237801332370884BDB78DBB20B2B1AD1874B1B787BB9012039210BF031F94FF4BE
:4015C000FA700FF05FFD01202E210BF029F900227E4B1A7007E0013BDAB27D4B1A70012020210BF055F9784BDB78DBB20C2B7DD1774B1A78002A79D0002377490B6077497B
:401600000B6015E0581C7649014491F8D710714C234493F88E30303B994204D16E490B6801330B6002E000216B4B19606B4B186010466A4B1B689A42E4D8694B93F8D72055
:40164000654B1B689A420FD1012026210BF0E8F84FF4FA700FF016FD012070210BF0E0F80E225A4B1A7041E000235B4A13605B4A136010E05B4A1A4492F82410554A1A4473
:4016800092F88E20914203D153490A6801320A600133524A1360514B1B689842EAD84E4B1B68082B13D1012026210BF0B9F84FF4FA700FF0E7FC01205D210BF0B1F8012068
:4016C00070210BF0ADF80E22404B1A700EE0012027210BF0A5F84FF4FA700FF0D3FC01202E210BF09DF80022384B1A7064200FF0C9FC0FF067F838BD0FF03AF8082842F0AD
:40170000C686314B1B78DBB2AA2B40F0BE802E4B9B79DBB2C32B40F0B8802B4BDB79DBB23C2B40F0B280284BDB78DBB2942B06D1012070210BF074F80E22244B1A70244B54
:401740001A78072A27D8204BDB78DBB2092B10D81D48C1781F4B1344303183F88E10C17830310120C9B20BF093F8194A137801331370154BDB78DBB20A2B0CD1144C2278BA
:40178000144B1344302183F88E1001200BF080F82378013323700C4BDB78DBB20B2B2BD10B4B1B7803BB012055210BF039F84FF42F700FF067FC01202E210BF031F8002246
:4017C000024B1A7018E000BF508BFF1F2E83FF1FA985FF1F9887FF1FA086FF1FE483FF1F3888FF1F0C81FF1F013BDAB2AC4B1A70012020210BF04CF8AA4BDB78DBB20C2BC2
:4018000043D1A74B1B78052B3FD9012039210BF007F8A34B1978A44B83F8D7100022A34B1A600BE0581CA24A134493F88E209E4B0344303A83F8D7209C4B18609B4B1B6849
:401840009942EFD860209B490BF08EFF70B9012055210AF0E5FF4FF42F700FF013FC01202E210AF0DDFF0022934B1A70012026210AF0D6FF4FF42F700FF004FC01202E21F4
:401880000AF0CEFF00228C4B1A7064200FF0FAFB0EF098FF38BD0EF06BFF082842F0F785804B1B78DBB2AA2B4AD17E4B9B79DBB2C32B45D17B4BDB79DBB23C2B40D1794B6A
:4018C000DB78DBB23F2B08D002D83E2B1CD037E07E2B26D0942B2CD032E0012040210AF09FFF00236E4A1370744A13700120612106220AF0CDFF01206D2107220AF0C8FF31
:4019000015226D4B1A701BE001203F210AF088FF0023634A1370694A13701622664B1A700EE001202E210AF07BFF0022624B1A7006E0012070210AF073FF0E225E4B1A70A3
:4019400064200FF09FFB0EF03DFF38BD0EF010FF082842F09C85534B1B78DBB2AA2B40F09980504B9B79DBB2C32B40F093804D4BDB79DBB23C2B40F08D804A4BDB78DBB2B0
:401980007E2B78D00AD8772B42D002D8762B10D080E0782B4CD07A2B58D07BE0832B27D002D8822B14D075E0942B6CD0952B5AD070E0012030210AF033FF0023404A137096
:4019C000374A13703F4A137018223B4B1A7061E0012079210AF024FF0222394B1A7000232F4A1370374A13701822334B1A7051E001207A210AF014FF0322314B1A70002395
:401A0000274A13702F4A137018222B4B1A7041E0012078210AF004FF0122294B1A7000231F4A1370274A13701822234B1A7031E0012065210AF0F4FE0122214B1A7000226F
:401A4000174B1A7017221C4B1A7023E0012032210AF0E6FE00231A4A1370114A13701722154B1A7016E0012066210AF0D9FE2022114B1A700EE001202E210AF0D1FE002210
:401A80000D4B1A7006E0012070210AF0C9FE0E22094B1A7064200FF0F5FA0EF093FE38BDA985FF1F508BFF1F3888FF1FE483FF1F9887FF1F0F89FF1F2E83FF1F3183FF1FAB
:401AC000F385FF1F4289FF1F0EF052FE082842F0DE84B24B1B78DBB2AA2B79D1AF4B9B79DBB2C32B74D1AD4BDB79DBB23C2B6FD1AA4BDB78DBB2802B1FD004D87E2B58D0AF
:401B00007F2B06D064E0822B3FD02AD3942B58D05EE0012006210AF083FE0022A04B1A70A04B1978A04B83F8A310012024210AF0AFFE1A229D4B1A704AE0012006210AF0ED
:401B40006FFE0022964B1A70994B1978964B83F8A310012024210AF09BFE1A22934B1A7036E0012006210AF05BFE00228C4B1A70904B19788C4B83F8A310012024210AF045
:401B800087FE1A22894B1A7022E0012006210AF047FE0022824B1A70874B1978824B83F8A310012024210AF073FE1A227F4B1A700EE001202E210AF033FE00227B4B1A704A
:401BC00006E0012070210AF02BFE0E22774B1A7064200FF057FA0EF0F5FD38BD0EF0C8FD082842F054846D4B1B78DBB2AA2B40F08D816A4B9B79DBB2C32B40F08781674BDF
:401C0000DB79DBB23C2B40F08181644BDB78DBB2642B00F0048104D8622B09D0632B43D074E17E2B00F06381942B00F068816DE1012039210AF0F4FD64200FF023FA5F4B4C
:401C4000187806F071FF06281ED15D4B187806F06BFF062808D101204A210AF0E1FD4FF42F700FF00FFA51E1012055210AF0D8FD4FF42F700FF006FA01202E210AF0D0FDB4
:401C800000224A4B1A7041E1012055210AF0C8FD4FF42F700FF0F6F901202E210AF0C0FD0022424B1A7031E1012037210AF0B8FD444B5B78012B45D10022434B1A600AE049
:401CC000424A1344012093F82C100BF0D5FD3E4A1368013313603C4B1B68102BF0D901200A210BF0C9FD01200A210BF0C5FD01200A210BF0C1FD01200A210BF0BDFD002256
:401D0000314B1A600AE0314A1344022093F82C100BF0B2FD2C4A1368013313602A4B1B68102BF0D902200A210BF0A6FD02200A210BF0A2FD02200A210BF09EFD02200A21C8
:401D40000BF09AFD1F4B5B78022B60D100221E4B1A600AE01D4A1344032093F82C100BF08BFD194A136801331360174B1B68102BF0D903200A210BF07FFD03200A210BF0A0
:401D80007BFD03200A210BF077FD03200A210BF073FD00220C4B1A6025E000BF508BFF1FA985FF1F4389FF1F3888FF1F2E83FF1F9687FF1F2B89FF1FA885FF1F2489FF1F7F
:401DC0003483FF1F8C87FF1FE483FF1F0C81FF1FA64A1344042093F82C100BF04DFDA44A136801331360A24B1B68102BF0D904200A210BF041FD04200A210BF03DFD042082
:401E00000A210BF039FD04200A210BF035FD01206B210AF005FD2522964B1A7076E001200BF04EFD012852D133200EF0E9FC012033210BF0A9FD002868D000228E4B1A6045
:401E40000AE001200BF00AFE8C4B1C4484F82900894A136801331360874B1C68072CF0D90023874A1370844A13600CE0844C834A1344207893F829100CF0FEF820707E4AF3
:401E80001368013313607C4B1B68062BEED97B4B93F830207A4B1B789A4208D101204B210AF0BEFC4FF47A700FF0ECF82EE0012055210AF0B5FC4FF42F700FF0E3F8012092
:401EC0002E210AF0ADFC00226A4B1A701EE0012055210AF0A5FC4FF42F700FF0D3F801202E210AF09DFC0022624B1A700EE001202E210AF095FC00225E4B1A7006E0012012
:401F000070210AF08DFC0E225A4B1A7064200FF0B9F80EF057FC38BD0EF02AFC082842F0B682584B1B78DBB2AA2B40F03181554B9B79DBB2C32B40F02B81524BDB79DBB2F3
:401F40003C2B40F02581504B1B78042B00F2C580DFE813F005002E005400C3009E00494AD278D2B2012A0FD80133DAB2464B1A70444CE17830310120C9B20AF089FCE378D0
:401F80001B01424A82F8A1303E4BDB78DBB20A2B40F0A3803C4B1A780132D2B21A7000213A4B83F8A110012030210AF071FC94E0344AD278D2B2092A11D80133DAB2324B1F
:401FC0001A70304CE17830310120C9B20AF060FCE1782E4A92F8A1300B4382F8A130294BDB78DBB20A2B78D1274B1A780132D2B21A70012030210AF04BFC6EE0214AD2789D
:40200000D2B2052A17D80133DAB21F4C227001203A210AF03DFC22780132D2B22270194CE17830310120C9B20AF032FCE3781B01164A82F8A030134BDB78DBB20A2B4CD11B
:40204000114C22780132D2B2227001203A210AF01FFC22780132D2B22270012030210AF017FC0022094B83F8A02036E00C81FF1FE483FF1F2E83FF1FAC85FF1F9887FF1FDB
:402080008D85FF1F508BFF1FA985FF1F3888FF1FAD4AD278D2B2092A11D80133DAB2AB4B1A70A94CE17830310120C9B20AF0F0FBE178A74A92F8A0300B4382F8A030A24B53
:4020C000DB78DBB20A2B08D1A04B1A780132D2B21A70012030210AF0DBFB9B4BDB78DBB2402B17D19B4B1B783BB90120994B1870702106220AF0CCFB07E00022954B1A70F2
:402100000120612106220AF0C3FB01206D2107220AF0BEFB8C4BDB78DBB20B2B12D18B4B1A783AB9012070210AF07AFB0E228A4B1A7007E0012020210AF0AAFB834A137876
:40214000013B1370804BDB78DBB20C2B20D17F4B1B78052B1CD17F4B1B7843F002027C4991F8A13043EA421381F8A1300BF09CFA01280DD139210AF053FB4FF42F700EF0BA
:4021800081FF012070210AF04BFB0E22724B1A7064200EF077FF0EF015FB38BD0EF0E8FA082842F07481684B1B78DBB2AA2B40F06581654B9B79DBB2C32B40F05F81624B4A
:4021C000DB79DBB23C2B40F05981604B1A78072A00F22181DFE812F00800310058001F019100C2001F01FA00574BDB78DBB2032B0FD8554CE17830310120C9B20AF048FBD9
:40220000524A137801331370E3781B01504A82F89D304D4BDB78DBB20A2B40F0FC8000224B4B83F89D20494C0120302122780AF02FFB237801332370EDE0434BDB78DBB2BD
:40224000092B11D8404CE17830310120C9B20AF01FFBE1783E4A92F89D300B4382F89D303A4A137801331370374BDB78DBB20A2B40F0D180354C0120302122780AF008FB16
:40228000237801332370C6E02F4BDB78DBB2012B17D801202F210AF0FBFA2C4C22780132D2B22270284DE97830310120C9B20AF0EFFAEB781B01264A82F89E30237801332A
:4022C0002370214BDB78DBB20A2B40F0A4801F4C01202F2122780AF0DBFA22780132D2B22270012030210AF0D3FA0022184B83F89E202378013323708DE0134BDB78DBB24A
:40230000092B11D8104CE17830310120C9B20AF0BFFAE1780E4A92F89E300B4382F89E300A4A137801331370074BDB78DBB20A2B71D1064C0120302122780AF0A9FA2378A7
:402340000133237067E000BF508BFF1FA985FF1F3888FF1F3183FF1F2E83FF1FA64BDB78DBB2092B17D801202F210AF091FAA34C22780132D2B222709F4DE9783031012041
:40238000C9B20AF085FAEB781B019D4A82F89F30237801332370984BDB78DBB20A2B3AD1964C01202F2122780AF072FA22780132D2B22270012030210AF06AFA0022904B12
:4023C00083F89F2023780133237024E08A4BDB78DBB2092B11D8884CE17830310120C9B20AF056FAE178864A92F89F300B4382F89F30824A1378013313707F4BDB78DBB226
:402400000A2B08D17D4C0120302122780AF040FA237801332370784BDB78DBB20B2B12D1764B1B783BB9012070210AF0F9F90E22744B1A7007E0013BDAB2704B1A700120F3
:4024400020210AF025FA6C4BDB78DBB20C2B15D16A4B1B78082B11D10BF054F901280DD139210AF0DDF94FF42F700EF00BFE012070210AF0D5F90E22624B1A7064200EF02C
:4024800001FE0EF09FF938BD0EF072F9082841F0FE87594B1B78DBB2AA2B40F00D81564B9B79DBB2C32B40F00781534BDB79DBB23C2B40F00181504BDB78DBB27E2B06D171
:4024C00001202E210AF0ACF900224E4B1A704B4B1B780C2B61D8484AD278D2B2092A1ED80133DAB2454B1A70474B1B7813B1012B07D00DE0404BD978414B13443031997783
:4025000006E03D4BD9783E4B1344303183F82F10394BD97830310120C9B20AF0E1FF364BDB78DBB20A2B18D1344B1A780132D2B21A70354B1B7813B1012B05D009E0304B28
:4025400013443021997704E02D4B1344302183F82F10012030210AF0C3FF274BDB78DBB2512B1AD1254B1B78BBB10133DAB2234B1A70254B1B7813B1012B05D009E0204BBB
:4025800013442E21997704E01D4B13442E2183F82F1001202E210AF0A3FF174BDB78DBB20B2B4ED1154B1A78002A42D10E22154B1A70012070210AF033F92F200C210BF07E
:4025C00011F90022114B1A6008E0114AD15C0C4A1A4482F82F1001330C4A13600C4B1A780A4B1B689A42F0D220200F210BF0FAF80022064B1A6015E0508BFF1FA985FF1F1C
:402600003888FF1F2E83FF1FF385FF1FE483FF1FB085FF1F9A4AD15C9A4A1A4491770133994A1360964B1A78974B1B689A42F1D207E0012020210AF053FF944A1378013BE9
:402640001370934BDB78DBB20C2B35D10E22914B1A70012070210AF0E3F88F4B1B7813B1012B11D028E0894B1B78864901F81E3F20200BF079F8F8B9012055210AF0D0F837
:402680006422844B1A7017E0804B1B787D4901F82F3F2F200BF068F870B9012055210AF0BFF84FF42F700EF0EDFC01202E210AF0B7F80022774B1A7064200EF0E3FC0EF0EF
:4026C00081F838BD0EF054F8082841F0E086704B1B78DBB2AA2B40F0CC836D4B9B79DBB2C32B40F0C6836A4BDB79DBB23C2B40F0C083664B1B78172B00F25A82644AD278B0
:40270000D2B2092A61D80133DAB2604B1A70624B1B78042B52D8DFE803F0031427394B005E4B1978012904D1594BDB7830335C488354002942D1564BDB78303351498B5485
:402740003CE0564B1978012904D1514BDB78303354488354002931D14D4BD978494B1344303183F8431029E04C4B1978012904D1474BDB7830334C488354F9B9444BD978A4
:40278000404B1344303183F8611017E0434B1978012904D13E4BDB7830334448835469B93B4BD978374B1344303183F87F1005E0374BD9783E4B13443031D972344BD978E2
:4027C00030310120C9B20AF08BFE314BDB78DBB20A2B2BD12D4B1A780132D2B21A702E4B1B78042B1ED8DFE803F003070D1319003021244B995415E0224B1344302183F821
:4028000043100FE01F4B1344302183F8611009E01C4B1344302183F87F1003E0244B13443021D972012030210AF05AFE184BDB78DBB2672B46D1154B1A780132D2B21A702E
:40284000154B1B78042B39D8DFE803F003070D13340023210B4B995430E00A4B1344232183F843102AE0074B1344232183F8611024E0044B1344232183F87F101EE000BF20
:40288000B085FF1F3888FF1FE483FF1FA985FF1F508BFF1F2E83FF1FF385FF1F4289FF1F8085FF1FD883FF1FE089FF1F9085FF1F9887FF1F984B13442321D972012023210E
:4028C0000AF00EFE954BDB78DBB26A2B2BD1944B1A780132D2B21A70924B1B78042B1ED8DFE803F003070D1319002D218E4B995415E08D4B13442D2183F843100FE08A4B25
:4029000013442D2183F8611009E0874B13442D2183F87F1003E0804B13442D21D97201202D210AF0DDFD7D4BDB78DBB2662B2BD17B4B1A780132D2B21A707A4B1B78042B66
:402940001ED8DFE803F003070D1319004021764B995415E0744B1344402183F843100FE0714B1344402183F8611009E06E4B1344402183F87F1003E0674B13444021D972D0
:40298000012040210AF0ACFD644BDB78DBB2692B2BD1634B1A780132D2B21A70614B1B78042B1ED8DFE803F003070D1319002E215D4B995415E05C4B13442E2183F84310FD
:4029C0000FE0594B13442E2183F8611009E0564B13442E2183F87F1003E04F4B13442E21D97201202E210AF07BFD4C4BDB78DBB2682B4BD14A4B1A780132D2B21A70494B06
:402A00001B78042B3ED8DFE803F0030F1D2B3900464B1B78012B02D12020454988548BBB2021414B99542DE0404B1B78012B02D12020404988542BBB3B4B1344202183F856
:402A400043101FE0394B1B78012B02D120203A498854BBB9344B1344202183F8611011E0324B1B78012B02D12020344988544BB92D4B1344202183F87F1003E0264B134476
:402A80002021D972012020210AF02AFD234BDB78DBB21A2B40F28C80204BDB78DBB2422B00F286800022264B1A607CE01B4AD278D2B224491944097A8A4270D118490A78AD
:402AC0000132D2B20A7017490978042961D8DFE801F003123B4B5B0014490878012803D103F14101124CA154002852D103F141010D4881544DE00D490878012803D103F1AE
:402B000041010C4CA154002843D10749114403F1410081F843003CE09887FF1F508BFF1FA985FF1FF385FF1F3888FF1F4289FF1F8085FF1FD883FF1FE089FF1F9085FF1FE3
:402B4000E483FF1F0C81FF1FA3490878012803D103F14101A14CA154D8B9A149114403F1410081F8610014E09B490878012803D103F141019B4CA15458B99949114403F122
:402B8000410081F87F0004E09749114403F14100C87203F141010120C9B20AF0A1FC934A136801331360914B1B68192B7FF67EAF8F4BDB78DBB20B2B6DD18E4B1A78002AE4
:402BC00061D10120702109F02BFE402020210AF009FE0022854B1A6008E0874AD15C804A1A4482F843100133804A1360824B1A787E4B1B689A42F0D2802020210AF0F2FD62
:402C000000227A4B1A6008E07B4AD15C744A1A4482F861100133754A1360774B1A78734B1B689A42F0D2A02020210AF0DBFD00226E4B1A6008E0704AD15C694A1A4482F837
:402C40007F100133694A13606B4B1A78674B1B689A42F0D2002020210AF0C4FD0022634B1A6006E0644AD15C5D4AD15401335F4A1360614B1A785D4B1B689A42F2D20E22D4
:402C80005E4B1A7007E0012020210AF029FC594A1378013B1370564BDB78DBB20C2B40F0E8800120392109F0BBFD4FF42F700EF0E9F90120702109F0B3FD0E224F4B1A709F
:402CC0004F4B1B78042B00F2D480DFE803F0032E5A9FC700404B1B78012B07D14949454B1B780B7040F26A400AF03EFD3A4B1B78002B40F0BE803A493E4B1B780B70002039
:402D00000AF032FD002840F0B4800120552109F087FD4FF42F700EF0B5F901202E2109F07FFD0022354B1A70A3E02B4B1B78012B07D135492F4B1B780B7040F275400AF0B4
:402D400013FD254B1B78002B40F09380294B1B78234901F8433F40200AF006FD002840F088800120552109F05BFD4FF42F700EF089F901202E2109F053FD00221F4B1A700E
:402D800077E0154B1B78012B07D11449194B1B780B704FF490600AF0E7FC0F4B1B78002B67D1144B1B780E4901F8613F80200AF0DBFC00285DD10120552109F031FD4FF4EC
:402DC0002F700EF05FF901202E2109F029FD00220A4B1A704DE000BF4289FF1FE089FF1F3888FF1F9085FF1F9887FF1FE483FF1F508BFF1FA985FF1FB085FF1F2E83FF1FB8
:402E0000F385FF1F8085FF1FD883FF1FB34B1B78012B07D1B249B34B1B780B7040F28B400AF0A2FCAD4B1B781BBBAE4B1B78AE4901F87F3FA0200AF097FCD0B90120552127
:402E400009F0EEFC4FF42F700EF01CF901202E2109F0E6FC0022A54B1A700AE0A14B1A78A34BDA720120392109F0DAFC24229F4B1A7064200EF006F90DF0A4FC38BD0DF0DD
:402E800077FC082841F003839A4B1B78DBB2AA2B40F0C080974B9B79DBB2C32B40F0BA80944BDB79DBB23C2B40F0B4808D4B1B78062B25D88F4AD278D2B2092A0FD801337A
:402EC000DAB2884B1A708B48C178894B13443031D972C17830310120C9B209F0D9FC854BDB78DBB20A2B0BD17E4B1A780132D2B21A707F4B13443021D972012009F0C8FC0A
:402F00007C4BDB78DBB20B2B1BD1764B1A783AB90120702109F084FC0E22744B1A7010E00120202109F0B4FC6E4B1B78704A1A44D27A2C2A02D100216F4A1170013B694AC0
:402F400013706C4BDB78DBB20C2B63D1654B1B78032B5FD90622654B1A700120392109F05FFC604B1A78624BDA72644B187809F0F5FA00283FD05C4B93F8A320604B1B782B
:402F80009A4204D140F2A7105E490AF0EDFB564B93F8A3205C4B1B789A4204D140F2B31058490AF0E1FB504B93F8A320574B1B789A4204D140F2AD1052490AF0D5FB4A4BF0
:402FC00093F8A320524B1B789A4204D14FF47A704C490AF0C9FB01203C2109F021FC4FF4FA700EF04FF80120702109F019FC0E223E4B1A700EE00120552109F011FC4FF4CB
:403000002F700EF03FF801202E2109F009FC0022364B1A7064200EF035F80DF0D3FB38BD0DF0A6FB082841F03282324B1B78DBB2AA2B40F086802F4B9B79DBB2C32B40F01E
:4030400080802C4BDB79DBB23C2B7AD1294BDB78DBB2802B2FD004D87E2B63D07F2B06D06FE0822B56D031D3942B63D069E00120582109F0D5FB01200021732240F2C3136D
:4030800009F02CFE01200021CF2240F2C51309F025FE01200146292240F2C11309F01EFE012001467B2240F2EE3309F017FE1C220E4B1A7045E00120062109F0B1FB00220B
:4030C000084B1A701D22094B1A703AE001206D2109F0A6FB1E22054B1A7032E04289FF1F9085FF1FA985FF1F3888FF1F2E83FF1F9887FF1F508BFF1F3183FF1F2489FF1F5F
:403100004389FF1FA387FF1F2B89FF1F9687FF1FA885FF1F01208A2109F082FB2A22AB4B1A700EE001202E2109F07AFB0022A74B1A7006E00120702109F072FB0E22A34B71
:403140001A7064200DF09EFF0DF03CFB38BD0DF00FFB082841F09B819D4B1B78DBB2AA2B65D19B4B9B79DBB2C32B60D1984BDB79DBB23C2B5BD1964BDB78DBB2802B1AD094
:4031800004D87E2B44D07F2B06D050E0822B30D020D3942B44D04AE00120062109F040FB00228C4B1A7001228B4B83F8A3201F22864B1A703BE00120062109F031FB0022AD
:4031C000844B1A700222844B83F8A3201F227F4B1A702CE00120062109F022FB00227D4B1A7003227C4B83F8A3201F22774B1A701DE00120062109F013FB0022754B1A7063
:403200000422754B83F8A3201F22704B1A700EE001202E2109F004FB00226C4B1A7006E00120702109F0FCFA0E22684B1A7064200DF028FF0DF0C6FA38BD0DF099FA08281D
:4032400041F02581624B1B78DBB2AA2B40F0B8805F4B9B79DBB2C32B40F0B2805C4BDB79DBB23C2B40F0AC80594BDB78DBB2942B06D10120702109F0D3FA0E22534B1A709D
:40328000544B1B78042B36D8514AD278D2B2092A0FD80133DAB24F4B1A704D48C1784F4B13443031D972C17830310120C9B209F0EFFA474BDB78DBB20A2B0BD1454B1A7810
:4032C0000132D2B21A70454B13443021D972012009F0DEFA3E4BDB78DBB2512B0BD13D4B1A780132D2B21A703C4B13442C21D972012009F0CDFA364BDB78DBB20B2B1BD122
:40330000344B1A783AB90120702109F089FA0E222E4B1A7010E00120202109F0B9FA2D4B1B782E4A1A44D27A2C2A02D100212C4A1170013B274A1370254BDB78DBB20C2B05
:403340003ED1244B1B78052B3AD1244B1B7B353BDBB2022B34D80120392109F061FA1D4B1B781E4901F80B3F4FF4DD700AF0FCF9012805D1194B1B7B03F00F03194A1370EF
:4033800040F25A2018490AF0EFF9012818D1134A937B03F00F0315490B70137C03F00F03134A13703C2109F03BFA4FF4FA700DF069FE0120702109F033FA0E22034B1A70D3
:4033C00064200DF05FFE0DF0FDF938BD2E83FF1F508BFF1FA985FF1F3888FF1F9887FF1F3183FF1F8C85FF1FA387FF1FD483FF1F2A89FF1F0DF0BCF9082841F04880A74B7C
:403400001B78DBB2AA2B40F08780A44B9B79DBB2C32B40F08180A14BDB79DBB23C2B7BD19E4BDB78DBB28F2B08D002D87E2B64D072E0902B31D0942B67D06DE098490023CA
:4034400081F82D3081F82E304FF4DE702D310AF08BF9012811D10022924B1A703C2109F0DFF94FF4FA700DF00DFE0120702109F0D7F90E228C4B1A704EE00120552109F0F1
:40348000CFF94FF42F700DF0FDFD01202E2109F0C7F90022844B1A703EE08149012381F82D3081F82E304FF4DE702D310AF05CF9012812D101247B4B1C7020463C2109F091
:4034C000AFF94FF4FA700DF0DDFD0E22764B1A702046702109F0A4F91EE00120552109F09FF94FF42F700DF0CDFD01202E2109F097F900226C4B1A700EE001202E2109F016
:403500008FF90022684B1A7006E00120702109F087F90E22644B1A7064200DF0B3FD0DF051F938BD0DF024F9082840F0B0875B4B1B78DBB2AA2B40F0AA80584B9B79DBB2D3
:40354000C32B40F0A480554BDB79DBB23C2B40F09E80564B1B782BBB504AD278D2B2092A0FD80133DAB2514B1A704C48C178504B13443031D972C17830310120C9B209F0B7
:4035800087F9464BDB78DBB20A2B0BD1474B1A780132D2B21A70464B13443021D972012009F076F93D4BDB78DBB20B2B1BD13F4B1A783AB90120002109F032F900223A4BF1
:4035C0001A7010E00120202109F062F9374B1B78374A1A44D27A2C2A02D10021354A1170013B324A13702D4BDB78DBB20C2B4ED12E4B1B78012B4AD10120392109F010F958
:403600002A4B1A782A4BDA72254B93F8A330012B08D127490A7B284B1A7040F2C1100B310AF0A2F81E4B93F8A330022B08D120490A7B224B1A7040F2C3100B310AF094F8B1
:40364000174B93F8A330032B08D119490A7B1C4B1A7040F2C5100B310AF086F8104B93F8A330042B08D112490A7B164B1A7040F2EE300B310AF078F84FF4FA700DF002FDC5
:403680000120702109F0CCF80E22074B1A7064200DF0F8FC0DF096F838BD00BF508BFF1F3888FF1F9D86FF1F2E83FF1FA985FF1F9887FF1F3183FF1F2B89FF1F4389FF1FDD
:4036C0009687FF1FA885FF1F0DF052F8082840F0DE86CD4B1B78DBB2AA2B40F00082CA4B9B79DBB2C32B40F0FA81C74BDB79DBB23C2B40F0F481C44BDB787E3B252B00F2CF
:40370000EE81DFE813F0D401EC01EC01EC01EC01EC01A10187014000FD007600260091006701EC01EC01EC01EC01EC01EC01EC01EC01BB01EC01EC01C7003101AC00EC014E
:40374000EC01EC01EC01EC01EC0116015B00E2004C01AE4901230B704B7040F2C7100AF003F8012840F0BB813C2109F059F84FF4FA700DF087FC0120702109F051F80E222B
:40378000A34B1A70ABE1A14901230B7002234B7040F2C71009F0E8FF012840F0A0813C2109F03EF84FF4FA700DF06CFC0120702109F036F80E22964B1A7090E193490123B6
:4037C0000B7003234B7040F2C71009F0CDFF012840F085813C2109F023F84FF4FA700DF051FC0120702109F01BF80E22884B1A7075E1864901230B7004234B7040F2C710DE
:4038000009F0B2FF012840F06A813C2109F008F84FF4FA700DF036FC0120702109F000F80E227B4B1A705AE1784901230B7005234B7040F2C71009F097FF012840F04F8106
:403840003C2108F0EDFF4FF4FA700DF01BFC0120702108F0E5FF0E226D4B1A703FE16B4901230B7006234B7040F2C71009F07CFF012840F034813C2108F0D2FF4FF4FA7091
:403880000DF000FC0120702108F0CAFF0E22604B1A7024E15D4901230B7007234B7040F2C71009F061FF012840F019813C2108F0B7FF4FF4FA700DF0E5FB0120702108F074
:4038C000AFFF0E22524B1A7009E1504901230B7008234B7040F2C71009F046FF012840F0FE803C2108F09CFF4FF4FA700DF0CAFB0120702108F094FF0E22454B1A70EEE0E9
:40390000424901240C7009234B7040F2C71009F02BFF20463C2108F083FF4FF4FA700DF0B1FB2046702108F07BFF0E22384B1A70D5E0364901230B700A234B7040F2C7104B
:4039400009F012FF012840F0CA803C2108F068FF4FF4FA700DF096FB0120702108F060FF0E222B4B1A70BAE0284901230B700B234B7040F2C71009F0F7FE012840F0AF8058
:403980003C2108F04DFF4FF4FA700DF07BFB0120702108F045FF0E221D4B1A709FE01B4901230B700C234B7040F2C71009F0DCFE012840F094803C2108F032FF4FF4FA704E
:4039C0000DF060FB0120702108F02AFF0E22104B1A7084E00D4901230B700D234B7040F2C71009F0C1FE012879D13C2108F018FF4FF4FA700DF046FB0120702108F010FFFF
:403A00000E22034B1A706AE0508BFF1FA085FF1F2E83FF1FBD4901230B700E234B7040F2C71009F0A1FE012859D13C2108F0F8FE4FF4FA700DF026FB0120702108F0F0FEF6
:403A40000E22B34B1A704AE0B04901230B700F234B7040F2C71009F087FE01283FD13C2108F0DEFE4FF4FA700DF00CFB0120702108F0D6FE0E22A64B1A7030E0A3490023F5
:403A80000B704B7040F2C71009F06EFE012826D13C2108F0C5FE4FF4FA700DF0F3FA0120702108F0BDFE0E22994B1A7017E0974900230B704B7040F2C71009F055FE0128E2
:403AC00006D1702108F0ACFE0E22914B1A7006E001202E2108F0A4FE00228D4B1A7064200DF0D0FA0CF06EFE38BD0CF041FE082840F0CD84874B1B78DBB2AA2B4ED1854B68
:403B00009B79DBB2C32B49D1824BDB79DBB23C2B44D1804BDB78DBB20A2B2ED101227E4B1A6010E07D4B58787D4B197801227D4B1B780AF0ABFE4FF4FA700DF0A3FA764A64
:403B4000136801331360784B1B7803F00F03724A12689342E6D201200C2108F061FE4FF42F700DF08FFA0024704BDC7001202E2108F056FE664B1C7010E001200C2108F09E
:403B80004FFE4FF42F700DF07DFA0024674BDC7001202E2108F044FE5D4B1C7064200DF071FA0CF00FFE38BD0CF0E2FD082840F06E84584B1B78DBB2AA2B5DD1554B9B79D1
:403BC000DBB2C32B58D1534BDB79DBB23C2B53D1504BDB78DBB2392B10D002D8382B05D04AE07E2B41D0942B34D045E00120002108F016FE0022464B1A703DE001203B2155
:403C000008F00EFE454C60780BF050FE60780A2109F032FE60780A2109F02EFE60780A2109F02AFE60781D2109F026FE6078562109F022FE6078312109F01EFE4FF42F709A
:403C40000DF020FA01202E2108F0EAFD0022304B1A7011E001202F2108F0E2FD0022344B1A7027222A4B1A7006E001202E2108F0D7FD0022264B1A7064200DF003FA0CF052
:403C8000A1FD38BD0CF074FD082840F00084214B1B78DBB2AA2B60D11E4B9B79DBB2C32B5BD11C4BDB79DBB23C2B56D1194BDB78DBB2912B08D002D87E2B3FD04DE0922B40
:403CC00013D0942B42D048E001200A2108F0A8FD0122184B1A700422174B1A700022144B1A7018220A4B1A7037E001206F2108F097FD21220F4B1A7004220F4B1A70002212
:403D00000B4B1A701822024B1A7026E0A085FF1F2E83FF1F508BFF1FAC85FF1F9487FF1F9787FF1F2489FF1FDC89FF1F9887FF1FA985FF1F9086FF1FF385FF1F01202E21AC
:403D400008F06EFD0022B94B1A7006E00120702108F066FD0E22B54B1A7064200DF092F90CF030FD38BDB24B012013F80B1FB14A127809F0FBFF01282CD16E2108F050FD94
:403D80002322AA4B1A700120014609F0A3FE052810D90A200DF076F9012009F01DFB0120212109F097FE052840F27183012009F091FA38BD0120552108F032FD4FF42F70E1
:403DC0000DF060F901202E2108F02AFD0022974B1A7038BD0120552108F022FD4FF42F700DF050F901202E2108F01AFD00228F4B1A7038BD0CF0BCFC082840F048838E4BD3
:403E00001B78DBB2AA2B7AD18B4B9B79DBB2C32B75D1894BDB79DBB23C2B70D1864BDB78DBB2392B08D002D8382B39D067E07E2B3ED0942B5CD062E0804B5A78012A07D13C
:403E40007F4901230B704B707E490B7002234B70022A08D17A4B01221A7003215970794B1A7004225A7040F26320754909F07CFC012844D140F26520724909F075FC012835
:403E80003DD1682108F0CCFC4FF4FA700DF0FAF80120702108F0C4FC0E22644B1A702EE02622624B1A700120672108F0B9FC26E0654B5B78012B03D10022634B5A7002E054
:403EC0000122614B5A7040F2DA305F4909F04CFC01203C2108F0A4FC4FF4FA700DF0D2F801202E2108F09CFC0022504B1A7006E00120702108F094FC0E224C4B1A7064203E
:403F00000DF0C0F80CF05EFC38BD0CF031FC082840F0BD82484B1B78DBB2AA2B40F0C980454B9B79DBB2C32B40F0C380424BDB79DBB23C2B40F0BD803F4BDB78DBB28D2BC2
:403F400041D005D87E2B00F0A5808C2B06D0B0E08E2B7BD0942B00F0A580AAE0374B5B78012B07D1364A0120107002215170354A10705170022B07D1314B012119700422A6
:403F80005A70304B19705A7040F263202C4909F0EBFB012840F08D8040F26520294909F0E3FB012840F085806A2108F039FC4FF4FA700DF067F80E221C4B1A700120702108
:403FC00008F02EFC75E01D4B5A78012A06D11C4901230B704B701B490B704B70022A07D1174B0121197003225A70164B19705A7040F26320124909F0B7FB012859D140F2C1
:404000006520104909F0B0FB012852D1692108F007FC4FF4FA700DF035F80120702108F0FFFB0E22014B1A7043E000BF2E83FF1F9887FF1F9086FF1F508BFF1F8C87FF1F60
:404040009487FF1F3488FF1F2C83FF1FB3490120087000224A70B24B18705A7040F2632009F082FB012824D140F26520AC4909F07BFB01281DD16C2108F0D2FB4FF4FA7026
:404080000DF000F80120702108F0CAFB0E22A54B1A700EE001202E2108F0C2FB0022A14B1A7006E00120702108F0BAFB0E229D4B1A7064200CF0E6FF0CF084FB38BD0CF08F
:4040C00057FB082840F0E381974B1B78DBB2AA2B40F0E380944B9B79DBB2C32B40F0DD80914BDB79DBB23C2B40F0D7808F4B1A78032A26D88C4BDB78DBB2092B0ED88A4B5D
:40410000D9788B4B1344303183F88E1001202A2108F0BEFB854A137801331370824BDB78DBB20A2B0DD1814C2278814B1344302183F88E1001202A2108F0AAFB23780133CD
:404140002370794BDB78DBB20B2B1AD1774B1B787BB90120552108F063FB4FF42F700CF091FF01202E2108F05BFB00226D4B1A7007E0013BDAB26D4B1A700120202108F096
:4041800087FB694BDB78DBB20C2B40F08680674B1A78002A72D0002366490B6066490B6012E0591C6548405C614C234493F88E30984204D15F4803680133036002E000200E
:4041C0005C4B18605C4B196010465B4B1B689A42E7D85A4B1A78574B1B689A420FD10120262108F01DFB4FF4FA700CF04BFF22224C4B1A700120712108F012FB4DE0002376
:404200004C4A13604C4A136010E04C4A1A4492F82410474A1A4492F88E20914203D145490A6801320A600133434A1360424B1B689842EAD83F4B1B68042B0FD101202621FB
:4042400008F0EEFA4FF4FA700CF01CFF2222354B1A700120712108F0E3FA1EE00120272108F0DEFA4FF42F700CF00CFF01202E2108F0D6FA00222B4B1A700EE001202721F3
:4042800008F0CEFA4FF42F700CF0FCFE01202E2108F0C6FA0022234B1A7064200CF0F2FE0CF090FA38BD0CF063FA082840F0EF801D4B1B78DBB2AA2B74D11B4B9B79DBB268
:4042C000C32B6FD1184BDB79DBB23C2B6AD1164BDB78DBB2BC2B08D002D87E2B5BD061E0BD2B2FD0BE2B46D05CE0154901240C704C704FF47D7009F037FA2046392108F0CC
:404300008FFA4FF42F700CF0BDFE2046702108F087FA0E22034B1A7044E000BF9487FF1F3488FF1F2E83FF1F508BFF1FA985FF1F9887FF1FA086FF1FE483FF1F0C81FF1F28
:404340008C87FF1F524901240C7002234B704FF47D7009F009FA2046392108F061FA4FF42F700CF08FFE2046702108F059FA0E22484B1A7016E00120062108F051FA012213
:40438000454B1A700023454A1370454A13700522404B1A7006E00120702108F041FA0E223C4B1A7064200CF06DFE0CF00BFA38BD0CF0DEF908286AD13A4B1B78DBB2AA2BBB
:4043C00060D1384B9B79DBB2C32B5BD1354BDB79DBB23C2B56D1334BDB78763B0D2B51D8DFE803F007385050505050504950505017270120302108F013FA00232A4A13709B
:40440000264A13700122294B1A701822214B1A7038E00120302108F003FA0123224A137000211E4A1170214A13701822194B1A7028E00120302108F0F3F902221A4B1A7015
:404440000022164B1A700122184B1A701822114B1A7017E00120302108F0E2F90322124B1A7000220D4B1A700122104B1A701822084B1A7006E001205F2108F0D1F91B220E
:40448000044B1A7064200CF0FDFD0CF09BF938BD8C87FF1F2E83FF1F9087FF1FA985FF1F3183FF1F508BFF1FF385FF1F4289FF1F10B5A34B1B78212B01F24883DFE813F03F
:4044C00022009C00F800460B5201CC016102D602460B6A0339047C04E904680591057406460B460B460B8907460B460B460B460B460B460B2F080009AD09460B460B250A45
:40450000460BEB0A8F4B1B78012B03D18E4B1A788B4B1A708D4B1B78012B06D18C4B1A788C4B1A7001228C4B1A700CF021F9082841F00C83894B1B78DBB2AA2B56D1874B79
:404540009B79DBB2C32B51D1844BDB79DBB23C2B4CD1824BDB78DBB2562B02D0572B1FD044E07A4B1B78012B04D1794B1A78794B1A7008E00120632108F052F90123764A10
:404580001370744A13706F4B1B78012B04D16E4B1A786B4B1A7029E00022694B1A7025E00120632108F03CF902226B4B1A70674B1B78012B04D1664B1A78664B1A7002E014
:4045C0000022644B1A705F4B1B78012B04D15E4B1A785B4B1A7009E00120632108F020F902225D4B1A700122554B1A7064200CF049FD0CF0E7F810BD0CF0BAF8082841F0F8
:40460000A582564B1B78DBB2AA2B4BD1534B9B79DBB2C32B46D1514BDB79DBB23C2B41D14E4BDB78DBB25C2B0AD004D8452B0FD0592B18D036E07E2B25D0942B2BD031E077
:404640000120492108F0ECF802223D4B1A7029E00120252108F0E4F80022414B1A700F22374B1A701EE001202B2108F0D9F84FF42F700CF007FD01202E2108F0D1F800227B
:404680002F4B1A700EE001202E2108F0C9F800222B4B1A7006E001202E2108F0C1F80022274B1A7064200CF0EDFC0CF08BF810BD0CF05EF8082841F04982284B1B78DBB2D2
:4046C000AA2B36D1254B9B79DBB2C32B31D1234BDB79DBB23C2B2CD1204BDB78DBB25F2B08D002D85E2B0DD023E07E2B12D0942B18D01EE001200B2108F092F80A22104BB4
:404700001A7016E001201D2108F08AF80B220C4B1A700EE001202E2108F082F80022084B1A7006E00120632108F07AF80122044B1A7064200CF0A6FC0CF044F810BD00BF6C
:40474000A485FF1F7D85FF1F2F83FF1F2889FF1FA785FF1F2E83FF1F3088FF1F508BFF1FA985FF1F0CF004F8082841F0EF81A94B1B78DBB2AA2B69D1A64B9B79DBB2C32B93
:4047800064D1A44BDB79DBB23C2B5FD1A24AD37823F00303D3709F4BDB78DBB23B2B3ED004D80F2B09D0102B1BD04FE07E2B3ED0942B44D0432B49D129E00120062108F0ED
:4047C0002FF80022954B1A700120242108F060F8934AD37843F00203D3700522914B1A7034E001200D2108F01BF800228B4B1A708D4B1A700120472108F04AF8884AD378EE
:4048000043F00103D3700522864B1A701EE00120072108F005F80622824B1A7016E001202E2107F0FDFF00227E4B1A700EE001202E2107F0F5FF00227A4B1A7006E0012032
:404840000B2107F0EDFF0A22764B1A7064200CF019FC0BF0B7FF10BD0BF08AFF082841F075816C4B1B78DBB2AA2B40F08480694B9B79DBB2C32B7ED1664BDB79DBB23C2B59
:4048800079D1664B1B78694A1278013A93423EDC604AD278D2B2092A0FD80133DAB25F4B1A705C48C1785E4B13443031D972C17830310120C9B207F0EBFF564BDB78DBB25C
:4048C0000A2B0BD1554B1A780132D2B21A70544B13443021D972012007F0DAFF4D4BDB78DBB2512B13D14D4B1B7883B14E4A12786AB90133DAB2494B1A70494B13442C211F
:40490000D972012007F0C4FF0122474B1A70414BDB78DBB20B2B1BD1404B1A783AB90120052107F07DFF04223E4B1A7010E00120202107F0ADFF394B1B78374A1A44D27A4A
:404940002C2A02D10021384A1170013B334A1370304BDB78DBB20C2B0DD1304B1B7853B10120072107F05CFF2C4B1A782C4BDA7206222C4B1A7064200CF084FB0BF022FF81
:4049800010BD0BF0F5FE082820D1224B1B78DBB2AA2B15D11F4B9B79DBB2C32B10D11D4BDB79DBB23C2B0BD11A4BDB78DBB27E2B06D101202E2107F033FF0022194B1A70FF
:4049C00064200CF05FFB0BF0FDFE10BD184B187804F0AAF8072841F0B98032200CF052FB134B187804F0B4F80146124B18700C4BDB7813F0030321D00D4A10780E4A07F0D1
:404A00006BFBD8B901202E2107F00AFF0022054B1A7010BD508BFF1F9887FF1FA985FF1F4489FF1FA485FF1F3183FF1F8C85FF1F3483FF1F7885FF1F4F89FF1F9F4C207828
:404A400004F086F89E4B1870207840F010000BF05BFD0120082107F0E3FE0723994A1370994A13700122994B1A7010BD32200CF009FB924B187804F057F80638052801F252
:404A80006580DFE810F07000630863087C003B00060064200CF0F6FA884B187804F0CCF801280ED18A4B1B785BB9392107F0B8FE0022864B1A7014200CF0E4FA0D22814BAB
:404AC0001A707E4B187804F0B7F8012841F03E807F4B1B78012B41F039800C2107F0A0FE00247A4B1C704FF4FA700CF0CBFA01202E2107F095FE734B1C7010BD64200CF06F
:404B0000C1FA6E4B187804F097F801280ED1704B1B785BB9392107F083FE00226B4B1A7014200CF0AFFA0D22664B1A70634B187804F082F8012841F00980654B1B78012B0F
:404B400041F004800C2107F06BFE00245F4B1C704FF4FA700CF096FA01202E2107F060FE584B1C7010BD01202E2107F059FE0023564A1370574AD370524A137010BD322079
:404B80000CF080FA01202E2107F04AFE00224D4B1A7010BD0BF0ECFD082840F0D7874E4B1B78DBB2AA2B40F0BE804B4B9B79DBB2C32B40F0B880484BDB79DBB23C2B40F089
:404BC000B280464B1B78062B65D8434AD278D2B2092A10D80133DAB2404B1A703E48C1783C4B1344303183F86510C17830310120C9B207F04DFE384BDB78DBB20A2B0CD1CB
:404C0000364B1A780132D2B21A70324B1344302183F86510012007F03BFE2F4BDB78DBB26A2B0CD12D4B1A780132D2B21A70294B13442D2183F86510012007F029FE264BEA
:404C4000DB78DBB21A2B26D9234BDB78DBB2422B21D80022224B1A6019E01F4AD278D2B220491944097A8A420DD11C490A780132D2B20A704133D9B2164B134483F8651071
:404C8000012007F005FE164A136801331360144B1B68192BE1D9104BDB78DBB20B2B2BD10E4B1A7802BB01202E2107F0B9FD0023084A82F86530034A13701DE03483FF1F1F
:404CC0007885FF1FA485FF1F2F83FF1F7D85FF1F3883FF1F4489FF1F508BFF1FA985FF1FE483FF1F0C81FF1F0120202107F0D0FDA14A1378013B1370A04BDB78DBB20C2BCC
:404D000011D19D4B1B7873B10120052107F088FD9B4B994A127883F86520012283F883200422984B1A7064200CF0ACF90BF04AFD10BD0BF01DFD082840F008878F4B1B7863
:404D4000DBB2AA2B32D18D4B9B79DBB2C32B2DD18A4BDB79DBB23C2B28D1884BDB78DBB2392B04D07E2B1AD0382B1FD10CE001200A2107F055FD00237F4A1370824A137043
:404D80000922804B1A7011E00120052107F048FD01227D4B1A7004227A4B1A7006E001202E2107F03DFD0022764B1A7064200CF069F90BF007FD10BD0320012108F08AFEAE
:404DC000052840D90A200CF05DF90320212108F081FE052837D9032008F072FD012832D133200BF00DFD0120332108F0CDFD50B30022664B1A600AE0012008F02FFE604B68
:404E00001C4484F82900614A1368013313605F4B1C68072CF0D90120132107F001FD584CE37843F00403E3704FF4FA700CF02AF901200E2107F0F4FC00234F4A13702371CA
:404E40000C22504B1A700BF093FC082840F07E864A4B1B78DBB2AA2B15D1484B9B79DBB2C32B10D1454BDB79DBB23C2B0BD1434BDB78DBB23B2B06D10120492107F0D0FCD1
:404E80000222404B1A7064200CF0FCF80BF09AFC10BD0BF06DFC082840F05886374B1B78DBB2AA2B62D1354B9B79DBB2C32B5DD1324BDB79DBB23C2B58D12F4B1B78052B33
:404EC00025D82E4AD278D2B2092A0FD80133DAB2294B1A702948C178294B134430311971C17830310120C9B207F0D2FC234BDB78DBB20A2B0BD1204B1A780132D2B21A709F
:404F00001F4B134430211971012007F0C1FC1B4BDB78DBB20B2B12D1174B1A783AB90120052107F07DFC0422164B1A7007E00120202107F0ADFC104A1378013B13700F4B0B
:404F4000DB78DBB20C2B11D10B4B1B7873B10C4B5B79302B0AD00120052107F061FC064B1A78074B1A710422064B1A7064200CF089F80BF027FC10BDA985FF1F508BFF1F3E
:404F80004489FF1FA485FF1F3883FF1FAC85FF1F974B5878974B19780022974B1B7809F075FC964B5B788BB901200C2107F038FC4FF42F700CF066F80024914BDC70012057
:404FC0002E2107F02DFC8F4B1C7010BD0120312107F026FC00228C4B1A702122894B1A7010BD0BF0C5FB082840F0B085874B1B78DBB2AA2B40F0D280844B9B79DBB2C32B9B
:4050000040F0CC80814BDB79DBB23C2B40F0C6807E4BDB78583B3E2B00F2C080DFE803F020BE5464BE30BEBEBEBEBEBEBE7FBEBEBEBEBEBEBEBEBEBE9FBEBEBEBEBEBEBEF4
:40504000BEBEBEBEBEBEAFBEBEBEBEBEBEBEBEBEBEBEBEBEBEBEBEBEBEBEBE8FB7BE740001202B2107F0DCFB4FF42F700CF00AF80120702107F0D4FB0E22624B1A708DE056
:4050800001205C2107F0CCFB01200021D62240F2AD1307F0C1FD01200021892240F2A71307F0BAFD01200146242240F2B31307F0B3FD0120014678224FF47A7307F0ACFD0D
:4050C0001322504B1A7069E001202B2107F0A8FB4FF42F700BF0D6FF0120702107F0A0FB0E22484B1A7059E001202B2107F098FB4FF42F700BF0C6FF0120702107F090FBBD
:405100000E22404B1A7049E001205F2107F088FB00223F4B1A701B223A4B1A703EE001202B2107F07DFB4FF42F700BF0ABFF0120702107F075FB0E22324B1A702EE0012064
:405140002B2107F06DFB4FF42F700BF09BFF0120702107F065FB0E222A4B1A701EE001202B2107F05DFB4FF42F700BF08BFF0120702107F055FB0E22224B1A700EE0012085
:405180002E2107F04DFB00221E4B1A7006E001202E2107F045FB00221A4B1A7064200BF071FF0BF00FFB10BD0BF0E2FA082840F0CD84164B1B78DBB2AA2B40F00481134BFC
:4051C0009B79DBB2C32B40F0FE80104BDB79DBB23C2B40F0F8800D4BDB78DBB27E2B19D10120312107F01CFB0022064B1A701DE03488FF1F7885FF1F3483FF1F4089FF1F30
:405200004489FF1FA485FF1F3188FF1F508BFF1FA985FF1FA24BDB78DBB2942B06D10120632107F0FDFA01229E4B1A709E4B1A78072A26D89A4BDB78DBB2092B0ED8984B28
:40524000D9789A4B1344303183F88E1001202A2107F01EFB944A137801331370904BDB78DBB20A2B0DD1904C2278904B1344302183F88E1001202A2107F00AFB2378013374
:405280002370874BDB78DBB20B2B1AD1864B1B787BB90120392107F0C3FA4FF4FA700BF0F1FE01202E2107F0BBFA00227D4B1A7007E0013BDAB27C4B1A700120202107F041
:4052C000E7FA774BDB78DBB20C2B7CD1764B1A78002A36D0002376490B6076490B6015E0581C7549014491F8D710704C234493F88E30303B994204D16D490B6801330B6082
:4053000002E000216A4B19606A4B1860694B1B689A42E5D8684B93F8D720654B1B689A420BD10120262107F07BFA4FF4FA700BF0A9FE0120702107F073FA0E22594B1A7088
:4053400041E000235A490B605A490B6010E05B49194491F824005549194491F88E10884203D15348016801310160013351490B60504B1B689A42EAD84D4B1B68082B13D1B1
:405380000120262107F04CFA4FF4FA700BF07AFE01205D2107F044FA0120702107F040FA0E22404B1A700EE00120272107F038FA4FF4FA700BF066FE01202E2107F030FA0F
:4053C0000022384B1A7064200BF05CFE0BF0FAF910BD0BF0CDF9082840F0B883304B1B78DBB2AA2B40F095802D4B9B79DBB2C32B40F08F802A4BDB79DBB23C2B40F089809D
:40540000274BDB787E3B162B00F28380DFE803F0720C20345E81818181818181818181818181818181817A000120062107F0F8F900221D4B1A70224B19781F4B83F8A310E9
:405440000120242107F024FA1A22164B1A7060E00120062107F0E4F90022134B1A70194B1978154B83F8A3100120242107F010FA1A220C4B1A704CE00120062107F0D0F9E9
:405480000022094B1A70104B19780B4B83F8A3100120242107F0FCF91A22024B1A7038E0508BFF1FA485FF1FA985FF1F4489FF1FA086FF1FE483FF1F3888FF1F0C81FF1F36
:4054C0004389FF1F9687FF1F2B89FF1F0120062107F0A6F90022AA4B1A70AA4B1978AA4B83F8A3100120242107F0D2F91A22A74B1A700EE001202E2107F092F90022A34BBD
:405500001A7006E00120702107F08AF90E229F4B1A7064200BF0B6FD0BF054F910BD0BF027F9082840F01283994B1B78DBB2AA2B40F0C080964B9B79DBB2C32B40F0BA80B1
:40554000934BDB79DBB23C2B40F0B4808C4B1B78062B25D88E4AD278D2B2092A0FD80133DAB2874B1A708A48C1788A4B13443031D972C17830310120C9B207F089F9844BCC
:40558000DB78DBB20A2B0BD17D4B1A780132D2B21A70804B13443021D972012007F078F97B4BDB78DBB20B2B1BD1754B1A783AB90120702107F034F90E22744B1A7010E0CC
:4055C0000120202107F064F96D4B1B78714A1A44D27A2C2A02D100216F4A1170013B684A13706B4BDB78DBB20C2B63D1644B1B78032B5FD90622654B1A700120392107F0D3
:405600000FF95F4B1A78634BDA72644B187806F0A5FF00283FD05C4B93F8A320604B1B789A4204D140F2A7105E4908F09DF8564B93F8A3205C4B1B789A4204D140F2B3104C
:40564000584908F091F8504B93F8A320574B1B789A4204D140F2AD10524908F085F84A4B93F8A320474B1B789A4204D14FF47A704C4908F079F801203C2107F0D1F84FF4D5
:40568000FA700BF0FFFC0120702107F0C9F80E223E4B1A700EE00120552107F0C1F84FF42F700BF0EFFC01202E2107F0B9F80022364B1A7064200BF0E5FC0BF083F810BDF8
:4056C0000BF056F8082840F04182314B1B78DBB2AA2B40F09C802E4B9B79DBB2C32B40F096802B4BDB79DBB23C2B40F09080284BDB787E3B162B00F28A80DFE803F0790C3A
:40570000305969888888888888888888888888888888888881000120582107F081F80120002173224FF41F7307F0D8FA01200021CF2240F27E2307F0D1FA012001462922F4
:4057400040F27A2307F0CAFA012001467B224FF47C7307F0C3FA1C220C4B1A7057E001202B2107F05DF84FF42F700BF08BFC0120702107F055F80E22044B1A7047E000BF5C
:40578000A985FF1FA885FF1F3888FF1FA485FF1F508BFF1F9887FF1F3183FF1F3483FF1F4389FF1FA387FF1F2B89FF1F9687FF1F01202B2107F034F84FF42F700BF062FC46
:4057C0000120702107F02CF80E22784B1A701EE001202B2107F024F84FF42F700BF052FC0120702107F01CF80E22704B1A700EE001202E2107F014F800226C4B1A7006E0DA
:405800000120702107F00CF80E22684B1A7064200BF038FC0AF0D6FF10BD0AF0A9FF082840F09481624B1B78DBB2AA2B67D1604B9B79DBB2C32B62D15D4BDB79DBB23C2BB1
:405840005DD15B4BDB787E3B162B58D8DFE803F0480C1B2A39575757575757575757575757575757575750000120062106F0D8FF0022504B1A7001224F4B83F8A3201F229C
:405880004A4B1A703BE00120062106F0C9FF0022484B1A700222484B83F8A3201F22434B1A702CE00120062106F0BAFF0022414B1A700322404B83F8A3201F223B4B1A70A1
:4058C0001DE00120062106F0ABFF0022394B1A700422394B83F8A3201F22344B1A700EE001202E2106F09CFF0022304B1A7006E00120702106F094FF0E222C4B1A70642075
:405900000BF0C0FB0AF05EFF10BD0AF031FF082840F01C81264B1B78DBB2AA2B40F0B580234B9B79DBB2C32B40F0AF80204BDB79DBB23C2B40F0A9801E4B1B782BBB1C4AEB
:40594000D278D2B2092A0FD80133DAB2194B1A701748C178194B13443031D972C17830310120C9B206F094FF114BDB78DBB20A2B0BD1104B1A780132D2B21A700F4B1344A7
:405980003021D972012006F083FF094BDB78DBB20B2B26D1074B1A7892B90120002106F03FFF0022014B1A701BE000BFA485FF1F508BFF1FA985FF1F3888FF1F4489FF1FA5
:4059C0000120202106F064FF614B1B78614A1A44D27A2C2A02D100215F4A1170013B5C4A13705E4BDB78DBB20C2B4ED1584B1B78012B4AD10120392106F012FF544B1A7870
:405A0000544BDA72564B93F8A330022B08D151490A7B544B1A704FF41F700B3107F0A4FE4F4B93F8A330012B08D14A490A7B4E4B1A7040F27A200B3107F096FE484B93F89E
:405A4000A330032B08D143490A7B484B1A7040F27E200B3107F088FE414B93F8A330042B08D13C490A7B424B1A704FF47C700B3107F07AFE4FF4FA700BF004FB012070214F
:405A800006F0CEFE0E223B4B1A7064200BF0FAFA0AF098FE10BD0AF06BFE082856D12F4B1B78DBB2AA2B4CD12C4B9B79DBB2C32B47D12A4BDB79DBB23C2B42D1274BDB781B
:405AC000DBB20A2B2ED101222B4B1A6010E02B4B58782B4B197801222A4B1B7808F0D6FE4FF4FA700BF0CEFA234A136801331360254B1B7803F00F031F4A12689342E6D227
:405B000001200C2106F08CFE4FF42F700BF0BAFA00241E4BDC7001202E2106F081FE154B1C700EE001200C2106F07AFE4FF42F700BF0A8FA01202E2106F072FE00220D4BE3
:405B40001A7064200BF09EFA0AF03CFE10BD00BFA985FF1F4489FF1F3183FF1F508BFF1F3888FF1F9A86FF1F3688FF1F9F86FF1F9C86FF1FA485FF1FAC85FF1F3488FF1FD7
:405B80007885FF1F3483FF1FDC89FF1F9887FF1F10B5A04B1B78212B01F28683DFE813F022009600F200840B4E01C8017F02F402840B8C035E04A1040E059905C205B806BD
:405BC000840B840B840BBC07840B840B840B840B840B840B63083409E309840B840B5B0A840B270B8C4B1B78012B03D18B4B1A78884B1A708A4B1B78012B06D1894B1A7803
:405C0000894B1A700422894B1A700AF0A3FE082841F04A83864B1B78DBB2AA2B50D1844B9B79DBB2C32B4BD1814BDB79DBB23C2B46D17F4BDB78DBB2562B02D0572B20D0BE
:405C40003EE0754B1B78012B04D1744B1A78714B1A7009E00220632106F0E2FD0322734B1A7001226B4B1A706D4B1B78012B04D16C4B1A786C4B1A7022E000226A4B1A70AE
:405C80001EE06C4B1B78012B04D1644B1A78614B1A7002E000225F4B1A70614B1B78012B04D1604B1A78604B1A7009E00220632106F0B6FD04225D4B1A7001225A4B1A7058
:405CC00064200BF0DFF90AF06FFE10BD0AF042FE082841F0E982564B1B78DBB2AA2B4BD1534B9B79DBB2C32B46D1514BDB79DBB23C2B41D14E4BDB78DBB25C2B0AD004D871
:405D0000452B0FD0592B18D036E07E2B25D0942B2BD031E00220492106F082FD02223D4B1A7029E00220252106F07AFD0022424B1A700F22374B1A701EE002202B2106F03C
:405D40006FFD4FF4FA700BF09DF902202E2106F067FD00222F4B1A700EE002202E2106F05FFD00222B4B1A7006E002202E2106F057FD0022274B1A7064200BF083F90AF001
:405D800013FE10BD0AF0E6FD082841F08D82284B1B78DBB2AA2B36D1254B9B79DBB2C32B31D1234BDB79DBB23C2B2CD1204BDB78DBB25F2B08D002D85E2B0DD023E07E2BFC
:405DC00012D0942B18D01EE002200B2106F028FD0A22104B1A7016E002201D2106F020FD0B220C4B1A700EE002202E2106F018FD0022084B1A7006E00220632106F010FD33
:405E00000122044B1A7064200BF03CF90AF0CCFD10BD00BF7C85FF1F9B86FF1FA585FF1F3083FF1F8987FF1FF285FF1FA285FF1F648BFF1F2889FF1F3188FF1F0AF08AFDB0
:405E4000082841F03182A84B1B78DBB2AA2B69D1A54B9B79DBB2C32B64D1A34BDB79DBB23C2B5FD1A14AD37823F00303D3709E4BDB78DBB23B2B3ED004D80F2B09D0102BD9
:405E80001BD04FE07E2B3ED0942B44D0432B49D129E00220062106F0C3FC0022944B1A700220242106F0F4FC904AD37843F00203D37005228F4B1A7034E002200D2106F052
:405EC000AFFC00228A4B1A708B4B1A700220472106F0DEFC854AD37843F00103D3700522844B1A701EE00220072106F099FC0622804B1A7016E002202E2106F091FC00224C
:405F00007C4B1A700EE002202E2106F089FC0022784B1A7006E002200B2106F081FC0A22744B1A7064200BF0ADF80AF03DFD10BD0AF010FD082841F0B7816B4B1B78DBB210
:405F4000AA2B40F0A680684B9B79DBB2C32B40F0A080654BDB79DBB23C2B40F09A80644B1B78664A1278013A934242DC5E4AD278D2B2092A11D80133DAB25D4B1A70604B49
:405F80001B785948C178594C23443031D972C17830310220C9B206F07BFC534BDB78DBB20A2B0DD1524B1A780132D2B21A70544B1B784E490B443021D972022006F068FCE7
:405FC000494BDB78DBB2512B13D1494B1B7883B1494A12786AB90133DAB2454B1A70494B13442C21D972022006F052FC0122424B1A703D4BDB78DBB20B2B1BD13C4B1A7892
:406000003AB90220052106F00BFC0422394B1A7010E00220202106F03BFC354B1B78334A1A44D27A2C2A02D10021334A1170013B2F4A13702C4BDB78DBB20C2B29D12C4BBB
:406040001B786BB1304B1B7853B90220072106F0E7FB274B1A78254BDA720622254B1A70234B1B78ABB1284B1B78012B11D10220702106F0D5FB1D4B1B7B24490B7040F251
:406080008D4007F071FB00221F4B1A700E22194B1A7064200AF0F6FF0AF086FC10BD0AF059FC082834D1104B1B78DBB2AA2B15D10D4B9B79DBB2C32B10D10B4BDB79DBB207
:4060C0003C2B0BD1084BDB78DBB27E2B06D102202E2106F0A5FB0022064B1A7064200AF0D1FF0AF061FC10BD648BFF1FF885FF1F3188FF1F7C85FF1FAA85FF1F8C85FF1F1A
:40610000A985FF1F4489FF1F9087FF1FDC89FF1F9B4B187802F008FD072841F0C58032200AF0B0FF964B187802F012FD0146954B1870954BDB7813F003030DD0904A1078C7
:40614000924A05F0C9FF38B902202E2106F068FB00228F4B1A7010BD894C207802F0F8FC884B1870207840F010000AF0CDF90220082106F055FB0723854A1370854A1370D3
:406180000122854B1A7010BD32200AF07BFF7C4B187802F0C9FC0638052801F28580DFE810F074008308830880003D00060064200AF068FF724B187802F03EFD01280FD1E2
:4061C000764B1B7863B90220392106F029FB0022714B1A7014200AF055FF0D226C4B1A70674B187802F028FD012841F05D806B4B1B78012B41F0588002200C2106F010FBE1
:406200000024654B1C704FF4FA700AF03BFF02202E2106F005FB5E4B1C7010BD64200AF031FF574B187802F007FD01280FD15B4B1B7863B90220392106F0F2FA0022564B5F
:406240001A7014200AF01EFF0D22514B1A704C4B187802F0F1FC012841F026804F4B1B78012B41F0218002200C2106F0D9FA0024494B1C704FF4FA700AF004FF02202E214C
:4062800006F0CEFA424B1C7010BD02202E2106F0C7FA0023404A13703B4AD3703C4A137010BD32200AF0EEFE02202E2106F0B8FA0022374B1A7010BD0AF04CFB082840F057
:4062C000F387374B1B78DBB2AA2B40F0C180344B9B79DBB2C32B40F0BB80314BDB79DBB23C2B40F0B5802F4B1B78062B7ED82C4AD278D2B2092A10D80133DAB2294B1A70E9
:406300002748C178204B1344303183F86510C17830310220C9B206F0BBFA214BDB78DBB20A2B0CD11F4B1A780132D2B21A701E4B1344302183F86510022006F0A9FA184B06
:40634000DB78DBB26A2B0CD1164B1A780132D2B21A700D4B13442D2183F86510022006F097FA0F4BDB78DBB21A2B3FD90C4BDB78DBB2422B3AD800220C4B1A6032E000BFF0
:406380002489FF1F8F87FF1FF885FF1F0386FF1F7C85FF1FA585FF1F9B86FF1F8B85FF1F648BFF1F3188FF1F4489FF1FE483FF1FAB4AD278D2B2AB491944097A8A420DD133
:4063C000A9490A780132D2B20A704133D9B2A74B134483F86510022006F05AFAA44A136801331360A24B1B68192BE1D99C4BDB78DBB20B2B15D19C4B1A7852B902202E21FE
:4064000006F00EFA00239B4A82F865309A4A137007E00220202106F03BFA934A1378013B13708F4BDB78DBB20C2B11D18E4B1B7873B10220052106F0F3F98C4B8A4A127882
:4064400083F86520012283F8832004228A4B1A7064200AF017FE0AF0A7FA10BD0AF07AFA082840F021877E4B1B78DBB2AA2B32D17B4B9B79DBB2C32B2DD1794BDB79DBB22C
:406480003C2B28D1764BDB78DBB2392B04D07E2B1AD0382B1FD10CE002200A2106F0C0F90023714A1370754A13700922724B1A7011E00220052106F0B3F901226F4B1A707E
:4064C00004226D4B1A7006E002202E2106F0A8F90022694B1A7064200AF0D4FD0AF064FA10BD0220012107F0F5FA052840D90A200AF0C8FD0220212107F0ECFA052837D99B
:40650000022007F0DDF9012832D133200AF078F90220332107F038FA50B30022584B1A600AE0022007F09AFA504B1C4484F82900534A136801331360514B1C68072CF0D98F
:406540000220132106F06CF9484CE37843F00403E3704FF4FA700AF095FD02200E2106F05FF90023404A137023710C22424B1A700AF0F0F9082840F09786394B1B78DBB209
:40658000AA2B15D1364B9B79DBB2C32B10D1344BDB79DBB23C2B0BD1314BDB78DBB23B2B06D10220492106F03BF90222324B1A7064200AF067FD0AF0F7F910BD0AF0CAF9BC
:4065C000082840F07186264B1B78DBB2AA2B7AD1234B9B79DBB2C32B75D1214BDB79DBB23C2B70D1204B1B78052B28D81C4AD278D2B2092A11D80133DAB21B4B1A70214BC1
:406600001B781748C1781B4C234430311971C17830310220C9B206F03BF9114BDB78DBB20A2B0CD1104A137801331370154B1A780E4B134430211971022006F029F9084B21
:40664000DB78DBB20B2B27D1074B1A78E2B90220052106F0E5F80422074B1A701CE000BF648BFF1F0C81FF1F3188FF1FF885FF1FE483FF1F4489FF1F7C85FF1F8B85FF1FCE
:40668000AC85FF1FA985FF1F0220202106F000F9964A1378013B1370954BDB78DBB20C2B11D1924B1B7873B1924B5B79302B0AD00220052106F0B4F88C4B1A788E4B1A71B9
:4066C00004228E4B1A7064200AF0DCFC0AF06CF910BD8B4B58788B4B197800228A4B1B7808F0D4F8894B5B788BB902200C2106F097F84FF42F700AF0C5FC00247E4BDC709F
:4067000002202E2106F08CF87C4B1C7010BD0220312106F085F80022744B1A702122774B1A7010BD0AF016F9082840F0BD85704B1B78DBB2AA2B40F0D2806D4B9B79DBB26A
:40674000C32B40F0CC806A4BDB79DBB23C2B40F0C680674BDB78583B3E2B00F2C080DFE803F020BE5464BE30BEBEBEBEBEBEBE7FBEBEBEBEBEBEBEBEBEBE9FBEBEBEBEBE59
:40678000BEBEBEBEBEBEBEBEAFBEBEBEBEBEBEBEBEBEBEBEBEBEBEBEBEBEBEBEBE8FB7BE740002202B2106F03BF84FF42F700AF069FC0220702106F033F80E224F4B1A70EA
:4067C0008DE002205C2106F02BF802200021D62240F2AD1306F020FA02200021892240F2B31306F019FA02200121242240F2A71306F012FA0220012178224FF47A7306F0CC
:406800000BFA13223D4B1A7069E002202B2106F007F84FF42F700AF035FC0220702105F0FFFF0E22354B1A7059E002202B2105F0F7FF4FF42F700AF025FC0220702105F03C
:40684000EFFF0E222D4B1A7049E002205F2105F0E7FF0022254B1A701B22284B1A703EE002202B2105F0DCFF4FF42F700AF00AFC0220702105F0D4FF0E22204B1A702EE010
:4068800002202B2105F0CCFF4FF42F700AF0FAFB0220702105F0C4FF0E22184B1A701EE002202B2105F0BCFF4FF42F700AF0EAFB0220702105F0B4FF0E22104B1A700EE016
:4068C00002202E2105F0ACFF00220C4B1A7006E002202E2105F0A4FF0022084B1A7064200AF0D0FB0AF060F810BD00BF3188FF1F648BFF1F4489FF1FF885FF1F7C85FF1FE6
:406900009487FF1F8F87FF1F2489FF1F2C83FF1F0AF020F8082840F0C784A94B1B78DBB2AA2B40F0C184A64B9B79DBB2C32B40F0BB84A34BDB79DBB23C2B40F0B584A04BBE
:40694000DB78DBB27E2B07D10220312105F068FF00229C4B1A700BE0994BDB78DBB2942B06D10220632105F05BFF0122954B1A70954B1A78072A26D8914BDB78DBB2092BFB
:406980000ED88F4BD978914B1344303183F88E1002202A2105F07CFF8B4A137801331370874BDB78DBB20A2B0DD1874C2278874B1344302183F88E1002202A2105F068FF97
:4069C0002378013323707E4BDB78DBB20B2B1AD17D4B1B787BB90220392105F021FF4FF4FA700AF04FFB02202E2105F019FF0022744B1A7007E0013BDAB2734B1A70022058
:406A0000202105F045FF6E4BDB78DBB20C2B7DD16D4B1978002979D000236D4A13606D4A136015E0581C6C4A024492F8D720674C234493F88E30303B9A4204D1644A1368FE
:406A40000133136002E00022614B1A60614B18600846604B1B689942E4D85F4B93F8D7205B4B1B689A420FD10220262105F0D8FE4FF4FA700AF006FB0220702105F0D0FEAB
:406A80000E22504B1A7041E00023514A1360514A136010E0514A1A4492F824104B4A1A4492F88E20914203D149490A6801320A600133484A1360474B1B689842EAD8444B8E
:406AC0001B68082B13D10220262105F0A9FE4FF4FA700AF0D7FA01205D2105F0A1FE0220702105F09DFE0E223D4B1A700EE00220272105F095FE4FF4FA700AF0C3FA022061
:406B00002E2105F08DFE00222E4B1A7064200AF0B9FA09F049FF10BD09F01CFF082840F0C383274B1B78DBB2AA2B40F09680244B9B79DBB2C32B40F09080214BDB79DBB230
:406B40003C2B40F08A801E4BDB787E3B162B00F28480DFE803F0730C204B5F82828282828282828282828282828282827B000220062105F055FE0022134B1A70194B197818
:406B8000154B83F8A3100220242105F081FE1A220C4B1A7061E00220062105F041FE0022094B1A70104B19780B4B83F8A3100220242105F06DFE1A22024B1A704DE000BF5B
:406BC000648BFF1F7C85FF1F3188FF1FF885FF1FA086FF1FE483FF1F3888FF1F0C81FF1F2E83FF1F4389FF1F9687FF1F0220062105F016FE0022AC4B1A70AC4B1978AC4B3D
:406C000083F8A3100220242105F042FE1A22A94B1A7022E00220062105F002FE0022A24B1A70A54B1978A24B83F8A3100220242105F02EFE1A229F4B1A700EE002202E21C4
:406C400005F0EEFD00229B4B1A7006E00220702105F0E6FD0E22974B1A7064200AF012FA09F0A2FE10BD09F075FE082840F01C83924B1B78DBB2AA2B40F0C0808F4B9B790A
:406C8000DBB2C32B40F0BA808C4BDB79DBB23C2B40F0B480844B1B78062B25D8874AD278D2B2092A0FD80133DAB27F4B1A708348C178834B13443031D972C178303102207E
:406CC000C9B205F0E5FD7D4BDB78DBB20A2B0BD1754B1A780132D2B21A707A4B13443021D972022005F0D4FD744BDB78DBB20B2B1BD16D4B1A783AB90220702105F090FD23
:406D00000E226C4B1A7010E00220202105F0C0FD654B1B786A4A1A44D27A2C2A02D10021694A1170013B604A1370644BDB78DBB20C2B63D15C4B1B78032B5FD906225D4BEB
:406D40001A700220392105F06BFD574B1A785C4BDA725E4B187805F001FC00283FD0544B93F8A3205A4B1B789A4204D140F2A710584906F0F9FC4E4B93F8A3204B4B1B78CC
:406D80009A4204D140F2B310524906F0EDFC484B93F8A320504B1B789A4204D140F2AD104C4906F0E1FC424B93F8A320424B1B789A4204D14FF47A70464906F0D5FC02204B
:406DC0003C2105F02DFD4FF4FA700AF05BF90220702105F025FD0E22364B1A700EE00220552105F01DFD4FF42F700AF04BF902202E2105F015FD00222E4B1A7064200AF047
:406E000041F909F0D1FD10BD09F0A4FD082840F04B822A4B1B78DBB2AA2B40F09E80274B9B79DBB2C32B40F09880244BDB79DBB23C2B40F09280214BDB787E3B162B00F218
:406E40008C80DFE803F07B0C4B5B6B8A8A8A8A8A8A8A8A8A8A8A8A8A8A8A8A8A83000220582105F0DDFC02200021732240F2C31305F034FF02200021CF2240F2C51305F063
:406E80002DFF02200121292240F2C11305F026FF022001217B2240F2EE3305F01FFF1C22044B1A7059E000BF3188FF1F2B89FF1F3888FF1F7C85FF1FA885FF1F648BFF1FA3
:406EC000F885FF1F4489FF1FAA85FF1F2489FF1F4389FF1F0386FF1F9687FF1F02202B2105F09EFC4FF42F700AF0CCF80220702105F096FC0E22814B1A702EE002202B214F
:406F000005F08EFC4FF42F700AF0BCF80220702105F086FC0E22794B1A701EE002202B2105F07EFC4FF42F700AF0ACF80220702105F076FC0E22714B1A700EE002202E2150
:406F400005F06EFC00226D4B1A7006E00220702105F066FC0E22694B1A7064200AF092F809F022FD10BD09F0F5FC082840F09C81634B1B78DBB2AA2B67D1614B9B79DBB274
:406F8000C32B62D15E4BDB79DBB23C2B5DD15C4BDB787E3B162B58D8DFE803F0480C1B2A39575757575757575757575757575757575750000220062105F032FC0022514BA0
:406FC0001A700122504B83F8A3201F224B4B1A703BE00220062105F023FC0022494B1A700222494B83F8A3201F22444B1A702CE00220062105F014FC0022424B1A700322EA
:40700000414B83F8A3201F223C4B1A701DE00220062105F005FC00223A4B1A7004223A4B83F8A3201F22354B1A700EE002202E2105F0F6FB0022314B1A7006E0022070218D
:4070400005F0EEFB0E222D4B1A7064200AF01AF809F0AAFC10BD09F07DFC082840F02481274B1B78DBB2AA2B40F0BB80244B9B79DBB2C32B40F0B580214BDB79DBB23C2BA4
:4070800040F0AF801F4B1B7843BB1D4AD278D2B2092A12D80133DAB21A4B1A701B4B1B781B49C9781B4803443031D972144BD97830310220C9B205F0EBFB114BDB78DBB2BC
:4070C0000A2B0BD10F4B1A780132D2B21A70114B13443021D972022005F0DAFB084BDB78DBB20B2B29D1074B1A78AAB90220002105F096FB0022014B1A701EE07C85FF1F8F
:40710000648BFF1F3188FF1F3888FF1FA985FF1F508BFF1FF885FF1F0220202105F0B8FB624B1B78624A1A44D27A2C2A02D10021604A1170013B5D4A13705F4BDB78DBB2A7
:407140000C2B4ED1594B1B78012B4AD10220392105F066FB554B1A78584BDA72584B93F8A330012B08D155490A7B564B1A7040F2C1100B3106F0F8FA514B93F8A330022BA6
:4071800008D14E490A7B504B1A7040F2C3100B3106F0EAFA4A4B93F8A330032B08D147490A7B4A4B1A7040F2C5100B3106F0DCFA434B93F8A330042B08D140490A7B444BCC
:4071C0001A7040F2EE300B3106F0CEFA4FF4FA7009F058FF0220702105F022FB0E223D4B1A70642009F04EFF09F0DEFB10BD09F0B1FB082858D1304B1B78DBB2AA2B4ED1C1
:407200002D4B9B79DBB2C32B49D12B4BDB79DBB23C2B44D1284BDB78DBB20A2B2ED101222D4B1A6010E02D4B58782D4B197801222C4B1B7807F02AFB4FF4FA7009F022FF6D
