:400000000080002011000000C90C0100C90C010008B5044B1A6803F53F5302331A6010F055FE00BFFA46004010B5054C237833B9044B13B10448AFF300800123237010BD68
:40004000F082FF1F00000000701E0100084B10B51BB108480849AFF300800848036803B910BD074B002BFBD0BDE81040184700BF00000000701E0100F482FF1F0881FF1F51
:400080000000000010B562B611F008F811F028F911F0C6F911F0B6FA11F00EF811F0D0FB052011F05FFE0024544B1C70544B1C70204620210DF0C8FE524B1C6006E0524AFA
:4000C000D15C524AD15401334E4A13604E4B1A784C4B1B689A42F2D220200F210DF0B4FE0022484B1A6007E0474AD15C474A1A4491770133434A1360434B1A78414B1B68A1
:400100009A42F1D22F200C210DF09EFE00223D4B1A6008E03C4AD15C3C4A1A4482F82F100133384A1360384B1A78364B1B689A42F0D2402020210DF087FE0022314B1A6094
:4001400008E0314AD15C314A1A4482F8431001332C4A13602C4B1A782A4B1B689A42F0D2602009210DF070FE274B1878431EDBB2082B14D80022234B1A6008E00133224AD7
:40018000D15C224A1A4482F8D7101E4A13601D4B1B68072BF2D91D4B83F8D7000EE00122184B1A6006E0194A1A4482F8D7300133144A1360134B1B68082BF4D9802020218D
:4001C0000DF042FE00220F4B1A6008E00E4AD15C0E4A1A4482F8611001330A4A13600A4B1A78084B1B689A42F0D2A02020210DF02BFE0022034B1A6013E000BF7088FF1F8F
:400200006A8AFF1F2C84FF1FF885FF1F1889FF1FA94AD15CA94A1A4482F87F100133A84A1360A54B1A78A64B1B689A42F0D24FF4DD7002210DF008FE9F4B1B78052B05D1A4
:400240009D4B5B7803F00F039E4A137040F2C31002210DF0F9FD984B1B78012B03D1964B5A78994B1A7040F2C51002210DF0ECFD914B1B78012B03D18F4B5A78934B1A700E
:4002800040F2C11002210DF0DFFD8B4B1B78012B03D1894B5A788E4B1A7040F2EE3002210DF0D2FD844B1B78012B03D1824B5A78884B1A704FF41F7002210DF0C5FD7E4BB3
:4002C0001B78012B03D17C4B5A78834B1A7040F27A2002210DF0B8FD774B1B78012B03D1754B5A787D4B1A7040F27E2002210DF0ABFD714B1B78012B03D16F4B5A78784B6A
:400300001A704FF47C7002210DF09EFD6A4B1B78012B03D1684B5A78724B1A704FF4936002210DF091FD644B1B78012B03D1624B5A786D4B1A7040F29A4002210DF084FDA1
:400340005D4B1B78012B03D15B4B5A78674B1A7040F29C4002210DF077FD574B1B78012B03D1554B5A78624B1A7040F29E4002210DF06AFD504B1B78012B03D14E4B5A78DE
:400380005C4B1A704FF4946002210DF05DFD4A4B1B78012B03D1484B5A78574B1A7040F2A24002210DF050FD434B1B78012B03D1414B5A78514B1A7040F2A44002210DF046
:4003C00043FD3D4B1B78012B03D13B4B5A784C4B1A7040F2A64002210DF036FD364B1B78012B03D1344B5A78464B1A7040F29F2005210DF029FD304B1878042810D10122C9
:400400002F4B1A6006E02C4AD15C3F4AD15401332B4A13602A4B1B68042BF4D93A4B187040F26A400A210DF00FFD0022244B1A6006E0214AD15C354AD1540133204A136026
:400440001D4B1A781E4B1B689A42F2D240F275400A210DF0F9FC0022194B1A6006E0164AD15C2B4AD1540133154A1360124B1A78134B1B689A42F2D240F2DC500A210DF0E9
:40048000E3FC00220E4B1A6006E00B4AD15C214AD15401330A4A1360074B1A78084B1B689A42F2D240F28B400A210DF0CDFC0022034B1A6037E000BFF885FF1F1889FF1F13
:4004C0002C84FF1FD485FF1F6B8AFF1F7688FF1F538AFF1FF085FF1F3287FF1F1689FF1F3787FF1F3487FF1F3D86FF1F2E83FF1FD385FF1FC685FF1FD585FF1FC585FF1F42
:400500008C86FF1F3B86FF1F0C81FF1FC885FF1F2084FF1F088BFF1F834AD15C834AD1540133834A1360804B1A78814B1B689A42F2D240F2964002210DF086FC7A4B1B7875
:400540000BB17C4A137040F25A2006210DF07CFC754B1B78052B0AD1734AD37803F00F0375490B70537903F00F03744A137040F2C71002210DF068FC6B4B1B78012B06D19F
:400580006F4A1370684B5B7803F00F0353704FF4DE7002210DF058FC634B1B78012B05D1614B5B7803F00F03664A137040F2632002210DF049FC5C4B1B78012B05D15A4BB7
:4005C0005B7803F00F03604A537040F2652002210DF03AFC544B1B78012B05D1524B5B7803F00F03594A53704FF4277003210DF02BFC4D4B1B78022B06D14B4B9B7843EA73
:400600000323534A138002E00122514B1A804FF4767002210DF018FC434B1B78012B04D1414B5A784B4B5A7007E04A4901230B704B704FF476700DF0C9FB4FF4BB600221AD
:400640000DF002FC384B1B78012B04D1364B5A78414B5A7007E0404901230B704B704FF4BB600DF0B3FB40F2D23006210DF0ECFB2D4B187805280FD100222D4B1A6006E09E
:40068000294AD15C354AD1540133294A1360284B1B689842F4D20CE0304905230B7030234B708B70CB700B714B7140F2D2300DF08DFB4FF47D7002210DF0C6FB1A4B187803
:4006C00001280ED100221A4B1A6006E0164AD15C234AD1540133164A1360154B1B689842F4D21E4A537903F00F00137903F00F014FF47A7303FB01F342F2107101FB003397
:40070000D07800F00F00642101FB0031937803F00F0303EB83035B000B44527802F00F021344104A136010BDF885FF1FD885FF1F2C84FF1F048BFF1F1C84FF1F528AFF1F8B
:40074000E885FF1F3587FF1F7488FF1F1489FF1FC285FF1F2C83FF1F688AFF1F2C87FF1F6C88FF1F648AFF1F10B500245EE008F059FA01280BD010B102282AD056E06420F9
:4007800011F0F0FA01204F210CF07CFB4EE0642011F0E8FA274B187808F0CEFA06280FD1254B187808F0C8FA062809D101203C210CF068FB02203C210CF064FB012435E032
:4007C000012055210CF05EFB022055210CF05AFB2CE0642011F0C6FA164B187808F0ACFA06281BD1154B187808F0A6FA062815D1114B187808F0A0FA06280FD1104B187817
:4008000008F09AFA062809D101204A210CF03AFB02204A210CF036FB022407E0012055210CF030FB022055210CF02CFB002C9ED010BD00BF048AFF1F4086FF1F3483FF1F9C
:400840003C87FF1F08B500230A4A13700A4A13704FF4FA7011F086FA01202E210CF012FB4FF4FA7011F07EFA02202E210CF00AFB08BD00BF2F83FF1FEC85FF1F38B5A14B0E
:400880001B782A2B03F24687DFE813F02B009E00F500441F4E01C8017D02EE02441F82035204950402058505AE0595067908AA07D40892091C0ABA0BFC0C720E900F441F48
:4008C0006D133E14D5144B152816C0169217A319021A701AE11A281BB31B8D1C941D4E1EBE1E894B1B78012B03D1884B1A78854B1A70874B1B78012B06D1864B1A78864B4E
:400900001A700222854B1A7010F0A4FD082843F00187834B1B78DBB2AA2B4FD1804B9B79DBB2C32B4AD17E4BDB79DBB23C2B45D17B4BDB78DBB2562B02D0572B1FD03DE01D
:40094000714B1B78012B04D1704B1A786D4B1A7008E0012063210CF095FA01236F4A1370684A13706A4B1B78012B04D1694B1A78694B1A7022E00022674B1A701EE0624B13
:400980001B78012B04D1614B1A785E4B1A7002E000225C4B1A705E4B1B78012B04D15D4B1A785D4B1A7009E0012063210CF06AFA02225A4B1A700122574B1A70642011F03F
:4009C000D1F910F071FD38BD10F044FD082843F0A186534B1B78DBB2AA2B46D1504B9B79DBB2C32B41D14E4BDB79DBB23C2B3CD14B4BDB78DBB25C2B0AD004D8452B0FD029
:400A0000592B18D031E07E2B20D0942B26D02CE0012049210CF036FA02223A4B1A7024E0012025210CF02EFA00223E4B1A700F22344B1A7019E0012025210CF023FA00225C
:400A4000384B1A7027222F4B1A700EE001202E210CF018FA00222B4B1A7006E001202E210CF010FA0022274B1A70642011F07AF910F01AFD38BD10F0EDFC082843F04A86F4
:400A8000274B1B78DBB2AA2B36D1254B9B79DBB2C32B31D1224BDB79DBB23C2B2CD1204BDB78DBB25F2B08D002D85E2B0DD023E07E2B12D0942B18D01EE001200B210CF0AC
:400AC000E1F90A220F4B1A7016E001201D210CF0D9F90B220B4B1A700EE001202E210CF0D1F90022074B1A7006E0012063210CF0C9F90122034B1A70642011F033F910F0C5
:400B0000D3FC38BD2F83FF1F508AFF1FEF85FF1FC785FF1F3083FF1FEC85FF1F1089FF1F788CFF1FF185FF1F10F094FC082843F0F185A74B1B78DBB2AA2B69D1A44B9B79D3
:400B4000DBB2C32B64D1A24BDB79DBB23C2B5FD1A04AD37823F00303D3709D4BDB78DBB23B2B3ED004D80F2B09D0102B1BD04FE07E2B3ED0942B44D0432B49D129E0012013
:400B800006210CF07FF90022934B1A70012024210CF0B0F98F4AD37843F00203D37005228E4B1A7034E001200D210CF06BF90022894B1A708A4B1A70012047210CF09AF922
:400BC000844AD37843F00103D3700522834B1A701EE0012007210CF055F906227F4B1A7016E001202E210CF04DF900227B4B1A700EE001202E210CF045F90022774B1A70B6
:400C000006E001200B210CF03DF90A22734B1A70642011F0A7F810F047FC38BD10F01AFC082843F077856A4B1B78DBB2AA2B40F0A480674B9B79DBB2C32B40F09E80644BCE
:400C4000DB79DBB23C2B40F09880634B1B78654A1278013A93423EDC5D4AD278D2B2092A0FD80133DAB25C4B1A705948C178594B13443031D972C17830310120C9B20CF00D
:400C800039F9534BDB78DBB20A2B0BD1524B1A780132D2B21A704F4B13443021D97201200CF028F94A4BDB78DBB2512B13D14A4B1B7883B14A4A12786AB90133DAB2464B75
:400CC0001A70444B13442C21D97201200CF012F90122434B1A703E4BDB78DBB20B2B1BD13D4B1A783AB9012005210CF0CBF804223A4B1A7010E0012020210CF0FBF8364BF4
:400D00001B78344A1A44D27A2C2A02D10021344A1170013B304A13702D4BDB78DBB20C2B2BD12D4B1B786BB12F4B1B7853B9012007210CF0A7F8284B1A78264BDA720622DD
:400D4000264B1A70244B1B78BBB1274B1B78012B13D1012070210CF095F81E4B1B7B234903F00F030B7040F296400DF02FF800221D4B1A700E22194B1A70642010F0F2FFFC
:400D800010F092FB38BD10F065FB082830D1104B1B78DBB2AA2B15D10D4B9B79DBB2C32B10D10B4BDB79DBB23C2B0BD1084BDB78DBB27E2B06D101202E210CF063F800220C
:400DC000064B1A70642010F0CDFF10F06DFB38BD788CFF1F7888FF1FF185FF1F2F83FF1F3283FF1FD485FF1F7088FF1F048BFF1F994B187807F0A0FF072843F08B843220ED
:400E000010F0B0FF944B187807F0AAFF0146934B1870934BDB7813F003030DD08E4A1078904A0BF08BFC38B901202E210CF02AF800228D4B1A7038BD874C207807F090FF8B
:400E4000864B1870207840F0100010F0BDF9012008210CF017F80723834A1370834A13700122834B1A7038BD322010F07BFF7A4B187807F061FF0638052803F24B84DFE88E
:400E800010F07000491C491C7C003B000600642010F068FF704B187807F0D6FF01280ED1744B1B785BB939210BF0ECFF0022704B1A70142010F056FF0D226B4B1A70664B7B
:400EC000187807F0C1FF012843F02484694B1B78012B43F01F840C210BF0D4FF0024644B1C704FF4FA7010F03DFF01202E210BF0C9FF5D4B1C7038BD642010F033FF564B68
:400F0000187807F0A1FF01280ED15A4B1B785BB939210BF0B7FF0022554B1A70142010F021FF0D22504B1A704B4B187807F08CFF012843F0EF834F4B1B78012B43F0EA83C8
:400F40000C210BF09FFF0024494B1C704FF4FA7010F008FF01202E210BF094FF424B1C7038BD01202E210BF08DFF0023404A13703B4AD3703C4A137038BD322010F0F2FE78
:400F800001202E210BF07EFF0022374B1A7038BD10F060FA082843F0BD83374B1B78DBB2AA2B40F0BF80344B9B79DBB2C32B40F0B980314BDB79DBB23C2B40F0B3802F4B2B
:400FC0001B78062B7CD82C4AD278D2B2092A10D80133DAB2294B1A702748C178204B1344303183F86510C17830310120C9B20BF081FF214BDB78DBB20A2B0CD11F4B1A78F6
:401000000132D2B21A70164B1344302183F8651001200BF06FFF184BDB78DBB26A2B0CD1164B1A780132D2B21A700D4B13442D2183F8651001200BF05DFF0F4BDB78DBB264
:401040001A2B3DD90C4BDB78DBB2422B38D800220B4B1A6030E000BF048AFF1F7788FF1F7888FF1F8388FF1F2F83FF1FEF85FF1F508AFF1FD285FF1F788CFF1FF185FF1F0B
:401080002C84FF1FA94AD278D2B2A9491944097A8A420DD1A7490A780132D2B20A704133D9B2A54B134483F8651001200BF022FFA24A136801331360A04B1B68192BE1D995
:4010C0009A4BDB78DBB20B2B15D19A4B1A7852B901202E210BF0D6FE0023974A82F86530974A137007E0012020210BF003FF914A1378013B13708D4BDB78DBB20C2B11D19B
:401100008C4B1B7873B1012005210BF0BBFE8A4B884A127883F86520012283F883200422874B1A70642010F01DFE10F0BDF938BD10F090F9082843F0ED827C4B1B78DBB2A6
:40114000AA2B32D1794B9B79DBB2C32B2DD1774BDB79DBB23C2B28D1744BDB78DBB2392B04D07E2B1AD0382B1FD10CE001200A210BF088FE00236F4A1370724A1370092204
:401180006F4B1A7011E0012005210BF07BFE01226C4B1A7004226A4B1A7006E001202E210BF070FE0022664B1A70642010F0DAFD10F07AF938BD012001460CF0BDFF05284A
:4011C00040D90A2010F0CEFD012021210CF0B4FF052837D901200CF0A5FE012832D1332010F080F9012033210CF000FF50B30022554B1A600AE001200CF062FF4E4B1C44CA
:4012000084F82900504A1368013313604E4B1C68072CF0D9012013210BF034FE464CE37843F00403E3704FF4FA7010F09BFD01200E210BF027FE00233E4A137023710C2293
:401240003F4B1A7010F006F9082843F06382374B1B78DBB2AA2B15D1344B9B79DBB2C32B10D1324BDB79DBB23C2B0BD12F4BDB78DBB23B2B06D1012049210BF003FE0222E4
:401280002F4B1A70642010F06DFD10F00DF938BD10F0E0F8082843F03D82244B1B78DBB2AA2B72D1214B9B79DBB2C32B6DD11F4BDB79DBB23C2B68D11E4B1B78052B25D853
:4012C0001A4AD278D2B2092A0FD80133DAB2194B1A701648C178184B134430311971C17830310120C9B20BF005FE104BDB78DBB20A2B0BD10F4B1A780132D2B21A700E4BB2
:4013000013443021197101200BF0F4FD074BDB78DBB20B2B22D1074B1A78BAB9012005210BF0B0FD0422064B1A7017E0788CFF1F0C81FF1FF185FF1F7888FF1F2C84FF1F88
:401340002F83FF1FD285FF1FF485FF1F012020210BF0D0FDAA4A1378013B1370A94BDB78DBB20C2B11D1A64B1B7873B1A64B5B79302B0AD0012005210BF084FDA04B1A785A
:40138000A14B1A710422A14B1A70642010F0EAFC10F08AF838BD9E4B58789E4B197800229D4B1B780DF00CFE9C4B5B788BB901200C210BF067FD4FF4FA7010F0D3FC002417
:4013C000914BDC7001202E210BF05CFD8F4B1C7038BD012031210BF055FD0022884B1A7021228A4B1A7038BD10F034F8082843F09181844B1B78DBB2AA2B40F0D680814B19
:401400009B79DBB2C32B40F0D0807E4BDB79DBB23C2B40F0CA807B4BDB78DBB2652B00F088800AD85A2B54D002D8582B16D0BCE05B2B68D05D2B28D0B7E0932B00F08180F6
:4014400006D8702B00F09A807E2B00F09F80ACE0942B00F0A380962B60D0A6E00022684B1A7001203E210BF00DFD0CF0EFFB012801D10BF0BFFD0CF019FC012801D10BF0D9
:4014800017FE1022614B1A708FE001205C210BF0F9FC01200021D62240F2AD130BF0EEFE01200021892240F2A7130BF0E7FE01200146242240F2B3130BF0E0FE01200146FF
:4014C00078224FF47A730BF0D9FE13224F4B1A706BE0012060210BF0D5FC01200BF04CFE01200BF08BFF01200CF01AF901200CF09DF901200CF008F801200CF08BF812225E
:40150000424B1A7051E001202F210BF0BBFC00223B4B1A7011223D4B1A7046E001205F210BF0B0FC0022364B1A701B22374B1A703BE001204D210BF0A5FC1422334B1A7061
:4015400033E001206E210BF09DFC012001460CF0F3FD05280ED90A2010F004FC01200CF06DFA012021210CF0E7FD052802D901200CF0E2F92322254B1A7016E001208921BB
:401580000BF080FC2922214B1A700EE001202E210BF078FC00221D4B1A7006E001202E210BF070FC0022194B1A70642010F0DAFB0FF07AFF38BD0FF04DFF082843F0AA8027
:4015C000104B1B78DBB2AA2B43F0A4800D4B9B79DBB2C32B43F09E800A4BDB79DBB23C2B43F09880074BDB78DBB27E2B18D1012031210BF047FC0022044B1A701CE000BFF9
:40160000F185FF1F788CFF1F7888FF1F2F83FF1F7488FF1F7788FF1F048AFF1F2C83FF1FA34BDB78DBB2942B06D1012063210BF029FC01229F4B1A709F4B1A78072A26D8EB
:401640009B4BDB78DBB2092B0ED8994BD9789B4B1344303183F88E1001202A210BF04AFC954A137801331370914BDB78DBB20A2B0DD1914C2278914B1344302183F88E10ED
:4016800001202A210BF036FC237801332370884BDB78DBB20B2B1AD1874B1B787BB9012039210BF0EFFB4FF4FA7010F05BFB01202E210BF0E7FB00227E4B1A7007E0013B7A
:4016C000DAB27D4B1A70012020210BF013FC784BDB78DBB20C2B7DD1774B1A78002A79D0002377490B6077490B6015E0581C7649014491F8D710714C234493F88E30303B83
:40170000994204D16E490B6801330B6002E000216B4B19606B4B186010466A4B1B689A42E4D8694B93F8D720654B1B689A420FD1012026210BF0A6FB4FF4FA7010F012FBC7
:40174000012070210BF09EFB0E225A4B1A7041E000235B4A13605B4A136010E05B4A1A4492F82410554A1A4492F88E20914203D153490A6801320A600133524A1360514B39
:401780001B689842EAD84E4B1B68082B13D1012026210BF077FB4FF4FA7010F0E3FA01205D210BF06FFB012070210BF06BFB0E22404B1A700EE0012027210BF063FB4FF429
:4017C000FA7010F0CFFA01202E210BF05BFB0022384B1A70642010F0C5FA0FF065FE38BD0FF038FE082842F09587314B1B78DBB2AA2B40F0BE802E4B9B79DBB2C32B40F062
:40180000B8802B4BDB79DBB23C2B40F0B280284BDB78DBB2942B06D1012070210BF032FB0E22244B1A70244B1A78072A27D8204BDB78DBB2092B10D81D48C1781F4B13446D
:40184000303183F88E10C17830310120C9B20BF051FB194A137801331370154BDB78DBB20A2B0CD1144C2278144B1344302183F88E1001200BF03EFB2378013323700C4B52
:40188000DB78DBB20B2B2BD10B4B1B7803BB012055210BF0F7FA4FF4FA7010F063FA01202E210BF0EFFA0022024B1A7018E000BF788CFF1F2F83FF1FF185FF1F7888FF1F3A
:4018C0003887FF1F2C84FF1F1889FF1F0C81FF1F013BDAB2AC4B1A70012020210BF00AFBAA4BDB78DBB20C2B43D1A74B1B78052B3FD9012039210BF0C5FAA34B1978A44B98
:4019000083F8D7100022A34B1A600BE0581CA24A134493F88E209E4B0344303A83F8D7209C4B18609B4B1B689942EFD860209B490CF04CFA70B9012055210BF0A3FA4FF429
:40194000FA7010F00FFA01202E210BF09BFA0022934B1A70012026210BF094FA4FF4FA7010F000FA01202E210BF08CFA00228C4B1A70642010F0F6F90FF096FD38BD0FF065
:4019800069FD082842F0C686804B1B78DBB2AA2B4AD17E4B9B79DBB2C32B45D17B4BDB79DBB23C2B40D1794BDB78DBB23F2B08D002D83E2B1CD037E07E2B26D0942B2CD025
:4019C00032E0012040210BF05DFA00236E4A1370744A13700120612106220BF08BFA01206D2107220BF086FA15226D4B1A701BE001203F210BF046FA0023634A1370694A8E
:401A000013701622664B1A700EE001202E210BF039FA0022624B1A7006E0012070210BF031FA0E225E4B1A70642010F09BF90FF03BFD38BD0FF00EFD082842F06B86534B6B
:401A40001B78DBB2AA2B40F09980504B9B79DBB2C32B40F093804D4BDB79DBB23C2B40F08D804A4BDB78DBB27E2B78D00AD8772B42D002D8762B10D080E0782B4CD07A2B83
:401A800058D07BE0832B27D002D8822B14D075E0942B6CD0952B5AD070E0012030210BF0F1F90023404A1370374A13703F4A137018223B4B1A7061E0012079210BF0E2F956
:401AC0000222394B1A7000232F4A1370374A13701822334B1A7051E001207A210BF0D2F90322314B1A700023274A13702F4A137018222B4B1A7041E0012078210BF0C2F993
:401B00000122294B1A7000231F4A1370274A13701822234B1A7031E0012065210BF0B2F90122214B1A700022174B1A7017221C4B1A7023E0012032210BF0A4F900231A4A0A
:401B40001370114A13701722154B1A7016E0012066210BF097F92022114B1A700EE001202E210BF08FF900220D4B1A7006E0012070210BF087F90E22094B1A70642010F006
:401B8000F1F80FF091FC38BDF185FF1F788CFF1F1889FF1F2C84FF1F7888FF1FEF89FF1F2F83FF1F3283FF1F3C86FF1F6A8AFF1F0FF050FC082842F0AD85B24B1B78DBB233
:401BC000AA2B79D1AF4B9B79DBB2C32B74D1AD4BDB79DBB23C2B6FD1AA4BDB78DBB2802B1FD004D87E2B58D07F2B06D064E0822B3FD02AD3942B58D05EE0012006210BF077
:401C000041F90022A04B1A70A04B1978A04B83F8A310012024210BF06DF91A229D4B1A704AE0012006210BF02DF90022964B1A70994B1978964B83F8A310012024210BF0C4
:401C400059F91A22934B1A7036E0012006210BF019F900228C4B1A70904B19788C4B83F8A310012024210BF045F91A22894B1A7022E0012006210BF005F90022824B1A701A
:401C8000874B1978824B83F8A310012024210BF031F91A227F4B1A700EE001202E210BF0F1F800227B4B1A7006E0012070210BF0E9F80E22774B1A70642010F053F80FF039
:401CC000F3FB38BD0FF0C6FB082842F023856D4B1B78DBB2AA2B40F08D816A4B9B79DBB2C32B40F08781674BDB79DBB23C2B40F08181644BDB78DBB2642B00F0048104D835
:401D0000622B09D0632B43D074E17E2B00F06381942B00F068816DE1012039210BF0B2F8642010F01FF85F4B187807F005F806281ED15D4B187806F0FFFF062808D101208A
:401D40004A210BF09FF84FF4FA7010F00BF851E1012055210BF096F84FF4FA7010F002F801202E210BF08EF800224A4B1A7041E1012055210BF086F84FF4FA700FF0F2FFBC
:401D800001202E210BF07EF80022424B1A7031E1012037210BF076F8444B5B78012B45D10022434B1A600AE0424A1344012093F82C100CF093F83E4A1368013313603C4BDA
:401DC0001B68102BF0D901200A210CF087F801200A210CF083F801200A210CF07FF801200A210CF07BF80022314B1A600AE0314A1344022093F82C100CF070F82C4A136846
:401E0000013313602A4B1B68102BF0D902200A210CF064F802200A210CF060F802200A210CF05CF802200A210CF058F81F4B5B78022B60D100221E4B1A600AE01D4A13443B
:401E4000032093F82C100CF049F8194A136801331360174B1B68102BF0D903200A210CF03DF803200A210CF039F803200A210CF035F803200A210CF031F800220C4B1A60F6
:401E800025E000BF788CFF1FF185FF1F6B8AFF1F1889FF1F2F83FF1F7688FF1F538AFF1FF085FF1F048AFF1F3483FF1F6C88FF1F2C84FF1F0C81FF1FA64A1344042093F85A
:401EC0002C100CF00BF8A44A136801331360A24B1B68102BF0D904200A210BF0FFFF04200A210BF0FBFF04200A210BF0F7FF04200A210BF0F3FF01206B210AF0C3FF25226B
:401F0000964B1A7076E001200CF00CF8012852D133200FF0E7FA012033210CF067F8002868D000228E4B1A600AE001200CF0C8F88C4B1C4484F82900894A13680133136003
:401F4000874B1C68072CF0D90023874A1370844A13600CE0844C834A1344207893F829100CF024FC20707E4A1368013313607C4B1B68062BEED97B4B93F830207A4B1B784A
:401F80009A4208D101204B210AF07CFF4FF47A700FF0E8FE2EE0012055210AF073FF4FF4FA700FF0DFFE01202E210AF06BFF00226A4B1A701EE0012055210AF063FF4FF455
:401FC000FA700FF0CFFE01202E210AF05BFF0022624B1A700EE001202E210AF053FF00225E4B1A7006E0012070210AF04BFF0E225A4B1A7064200FF0B5FE0FF055FA38BDDB
:402000000FF028FA082842F08583584B1B78DBB2AA2B40F03181554B9B79DBB2C32B40F02B81524BDB79DBB23C2B40F02581504B1B78042B00F2C580DFE813F005002E0044
:402040005400C3009E00494AD278D2B2012A0FD80133DAB2464B1A70444CE17830310120C9B20AF047FFE3781B01424A82F8A1303E4BDB78DBB20A2B40F0A3803C4B1A78DF
:402080000132D2B21A7000213A4B83F8A110012030210AF02FFF94E0344AD278D2B2092A11D80133DAB2324B1A70304CE17830310120C9B20AF01EFFE1782E4A92F8A130BB
:4020C0000B4382F8A130294BDB78DBB20A2B78D1274B1A780132D2B21A70012030210AF009FF6EE0214AD278D2B2052A17D80133DAB21F4C227001203A210AF0FBFE227851
:402100000132D2B22270194CE17830310120C9B20AF0F0FEE3781B01164A82F8A030134BDB78DBB20A2B4CD1114C22780132D2B2227001203A210AF0DDFE22780132D2B220
:402140002270012030210AF0D5FE0022094B83F8A02036E00C81FF1F2C84FF1F2F83FF1FF485FF1F7888FF1FD685FF1F788CFF1FF185FF1F1889FF1FAD4AD278D2B2092AE3
:4021800011D80133DAB2AB4B1A70A94CE17830310120C9B20AF0AEFEE178A74A92F8A0300B4382F8A030A24BDB78DBB20A2B08D1A04B1A780132D2B21A70012030210AF0C4
:4021C00099FE9B4BDB78DBB2402B17D19B4B1B783BB90120994B1870702106220AF08AFE07E00022954B1A700120612106220AF081FE01206D2107220AF07CFE8C4BDB78CD
:40220000DBB20B2B12D18B4B1A783AB9012070210AF038FE0E228A4B1A7007E0012020210AF068FE834A1378013B1370804BDB78DBB20C2B20D17F4B1B78052B1CD17F4B55
:402240001B7843F002027C4991F8A13043EA421381F8A1300BF05AFD01280DD139210AF011FE4FF4FA700FF07DFD012070210AF009FE0E22724B1A7064200FF073FD0FF0AB
:4022800013F938BD0FF0E6F8082842F04382684B1B78DBB2AA2B40F06581654B9B79DBB2C32B40F05F81624BDB79DBB23C2B40F05981604B1A78072A00F22181DFE812F042
:4022C0000800310058001F019100C2001F01FA00574BDB78DBB2032B0FD8554CE17830310120C9B20AF006FE524A137801331370E3781B01504A82F89D304D4BDB78DBB286
:402300000A2B40F0FC8000224B4B83F89D20494C0120302122780AF0EDFD237801332370EDE0434BDB78DBB2092B11D8404CE17830310120C9B20AF0DDFDE1783E4A92F86C
:402340009D300B4382F89D303A4A137801331370374BDB78DBB20A2B40F0D180354C0120302122780AF0C6FD237801332370C6E02F4BDB78DBB2012B17D801202F210AF0EB
:40238000B9FD2C4C22780132D2B22270284DE97830310120C9B20AF0ADFDEB781B01264A82F89E30237801332370214BDB78DBB20A2B40F0A4801F4C01202F2122780AF0B7
:4023C00099FD22780132D2B22270012030210AF091FD0022184B83F89E202378013323708DE0134BDB78DBB2092B11D8104CE17830310120C9B20AF07DFDE1780E4A92F821
:402400009E300B4382F89E300A4A137801331370074BDB78DBB20A2B71D1064C0120302122780AF067FD23780133237067E000BF788CFF1FF185FF1F1889FF1F3283FF1F8D
:402440002F83FF1FA64BDB78DBB2092B17D801202F210AF04FFDA34C22780132D2B222709F4DE97830310120C9B20AF043FDEB781B019D4A82F89F30237801332370984B97
:40248000DB78DBB20A2B3AD1964C01202F2122780AF030FD22780132D2B22270012030210AF028FD0022904B83F89F2023780133237024E08A4BDB78DBB2092B11D8884C31
:4024C000E17830310120C9B20AF014FDE178864A92F89F300B4382F89F30824A1378013313707F4BDB78DBB20A2B08D17D4C0120302122780AF0FEFC237801332370784BAE
:40250000DB78DBB20B2B12D1764B1B783BB9012070210AF0B7FC0E22744B1A7007E0013BDAB2704B1A70012020210AF0E3FC6C4BDB78DBB20C2B15D16A4B1B78082B11D142
:402540000BF012FC01280DD139210AF09BFC4FF4FA700FF007FC012070210AF093FC0E22624B1A7064200FF0FDFB0EF09DFF38BD0EF070FF082842F0CD80594B1B78DBB225
:40258000AA2B40F00D81564B9B79DBB2C32B40F00781534BDB79DBB23C2B40F00181504BDB78DBB27E2B06D101202E210AF06AFC00224E4B1A704B4B1B780C2B61D8484ACD
:4025C000D278D2B2092A1ED80133DAB2454B1A70474B1B7813B1012B07D00DE0404BD978414B13443031997706E03D4BD9783E4B1344303183F82F10394BD97830310120F0
:40260000C9B20BF09FFA364BDB78DBB20A2B18D1344B1A780132D2B21A70354B1B7813B1012B05D009E0304B13443021997704E02D4B1344302183F82F10012030210BF09B
:4026400081FA274BDB78DBB2512B1AD1254B1B78BBB10133DAB2234B1A70254B1B7813B1012B05D009E0204B13442E21997704E01D4B13442E2183F82F1001202E210BF016
:4026800061FA174BDB78DBB20B2B4ED1154B1A78002A42D10E22154B1A70012070210AF0F1FB2F200C210BF0CFFB0022114B1A6008E0114AD15C0C4A1A4482F82F100133FD
:4026C0000C4A13600C4B1A780A4B1B689A42F0D220200F210BF0B8FB0022064B1A6015E0788CFF1FF185FF1F1889FF1F2F83FF1F3C86FF1F2C84FF1FF885FF1F9A4AD15C13
:402700009A4A1A4491770133994A1360964B1A78974B1B689A42F1D207E0012020210BF011FA944A1378013B1370934BDB78DBB20C2B35D10E22914B1A70012070210AF09A
:40274000A1FB8F4B1B7813B1012B11D028E0894B1B78864901F81E3F20200BF037FBF8B9012055210AF08EFB6422844B1A7017E0804B1B787D4901F82F3F2F200BF026FBE7
:4027800070B9012055210AF07DFB4FF4FA700FF0E9FA01202E210AF075FB0022774B1A7064200FF0DFFA0EF07FFE38BD0EF052FE082841F0AF87704B1B78DBB2AA2B40F07F
:4027C000CC836D4B9B79DBB2C32B40F0C6836A4BDB79DBB23C2B40F0C083664B1B78172B00F25A82644AD278D2B2092A61D80133DAB2604B1A70624B1B78042B52D8DFE8C9
:4028000003F0031427394B005E4B1978012904D1594BDB7830335C488354002942D1564BDB78303351498B543CE0564B1978012904D1514BDB78303354488354002931D18C
:402840004D4BD978494B1344303183F8431029E04C4B1978012904D1474BDB7830334C488354F9B9444BD978404B1344303183F8611017E0434B1978012904D13E4BDB78C0
:4028800030334448835469B93B4BD978374B1344303183F87F1005E0374BD9783E4B13443031D972344BD97830310120C9B20BF049F9314BDB78DBB20A2B2BD12D4B1A7830
:4028C0000132D2B21A702E4B1B78042B1ED8DFE803F003070D1319003021244B995415E0224B1344302183F843100FE01F4B1344302183F8611009E01C4B1344302183F884
:402900007F1003E0244B13443021D972012030210BF018F9184BDB78DBB2672B46D1154B1A780132D2B21A70154B1B78042B39D8DFE803F003070D13340023210B4B995454
:4029400030E00A4B1344232183F843102AE0074B1344232183F8611024E0044B1344232183F87F101EE000BFF885FF1F1889FF1F2C84FF1FF185FF1F788CFF1F2F83FF1F43
:402980003C86FF1F6A8AFF1FC885FF1F2084FF1F088BFF1FD885FF1F7888FF1F984B13442321D972012023210BF0CCF8954BDB78DBB26A2B2BD1944B1A780132D2B21A70BE
:4029C000924B1B78042B1ED8DFE803F003070D1319002D218E4B995415E08D4B13442D2183F843100FE08A4B13442D2183F8611009E0874B13442D2183F87F1003E0804B84
:402A000013442D21D97201202D210BF09BF87D4BDB78DBB2662B2BD17B4B1A780132D2B21A707A4B1B78042B1ED8DFE803F003070D1319004021764B995415E0744B134447
:402A4000402183F843100FE0714B1344402183F8611009E06E4B1344402183F87F1003E0674B13444021D972012040210BF06AF8644BDB78DBB2692B2BD1634B1A7801326B
:402A8000D2B21A70614B1B78042B1ED8DFE803F003070D1319002E215D4B995415E05C4B13442E2183F843100FE0594B13442E2183F8611009E0564B13442E2183F87F1054
:402AC00003E04F4B13442E21D97201202E210BF039F84C4BDB78DBB2682B4BD14A4B1A780132D2B21A70494B1B78042B3ED8DFE803F0030F1D2B3900464B1B78012B02D162
:402B00002020454988548BBB2021414B99542DE0404B1B78012B02D12020404988542BBB3B4B1344202183F843101FE0394B1B78012B02D120203A498854BBB9344B13444C
:402B4000202183F8611011E0324B1B78012B02D12020344988544BB92D4B1344202183F87F1003E0264B13442021D972012020210AF0E8FF234BDB78DBB21A2B40F28C8026
:402B8000204BDB78DBB2422B00F286800022264B1A607CE01B4AD278D2B224491944097A8A4270D118490A780132D2B20A7017490978042961D8DFE801F003123B4B5B0066
:402BC00014490878012803D103F14101124CA154002852D103F141010D4881544DE00D490878012803D103F141010C4CA154002843D10749114403F1410081F843003CE056
:402C00007888FF1F788CFF1FF185FF1F3C86FF1F1889FF1F6A8AFF1FC885FF1F2084FF1F088BFF1FD885FF1F2C84FF1F0C81FF1FA3490878012803D103F14101A14CA154BC
:402C4000D8B9A149114403F1410081F8610014E09B490878012803D103F141019B4CA15458B99949114403F1410081F87F0004E09749114403F14100C87203F141010120BA
:402C8000C9B20AF05FFF934A136801331360914B1B68192B7FF67EAF8F4BDB78DBB20B2B6DD18E4B1A78002A61D1012070210AF0E9F8402020210BF0C7F80022854B1A60B4
:402CC00008E0874AD15C804A1A4482F843100133804A1360824B1A787E4B1B689A42F0D2802020210BF0B0F800227A4B1A6008E07B4AD15C744A1A4482F861100133754A86
:402D00001360774B1A78734B1B689A42F0D2A02020210BF099F800226E4B1A6008E0704AD15C694A1A4482F87F100133694A13606B4B1A78674B1B689A42F0D2002020214C
:402D40000BF082F80022634B1A6006E0644AD15C5D4AD15401335F4A1360614B1A785D4B1B689A42F2D20E225E4B1A7007E0012020210AF0E7FE594A1378013B1370564B95
:402D8000DB78DBB20C2B40F0E880012039210AF079F84FF4FA700EF0E5FF012070210AF071F80E224F4B1A704F4B1B78042B00F2D480DFE803F0032E5A9FC700404B1B781B
:402DC000012B07D14949454B1B780B7040F26A400AF0FCFF3A4B1B78002B40F0BE803A493E4B1B780B7000200AF0F0FF002840F0B480012055210AF045F84FF4FA700EF0F5
:402E0000B1FF01202E210AF03DF80022354B1A70A3E02B4B1B78012B07D135492F4B1B780B7040F275400AF0D1FF254B1B78002B40F09380294B1B78234901F8433F402011
:402E40000AF0C4FF002840F08880012055210AF019F84FF4FA700EF085FF01202E210AF011F800221F4B1A7077E0154B1B78012B07D11449194B1B780B7040F2DC500AF066
:402E8000A5FF0F4B1B78002B67D1144B1B780E4901F8613F80200AF099FF00285DD10120552109F0EFFF4FF4FA700EF05BFF01202E2109F0E7FF00220A4B1A704DE000BFF5
:402EC0006A8AFF1F088BFF1F1889FF1FD885FF1F7888FF1F2C84FF1F788CFF1FF185FF1FF885FF1F2F83FF1F3C86FF1FC885FF1F2084FF1FB34B1B78012B07D1B249B34B2D
:402F00001B780B7040F28B400AF060FFAD4B1B781BBBAE4B1B78AE4901F87F3FA0200AF055FFD0B90120552109F0ACFF4FF4FA700EF018FF01202E2109F0A4FF0022A54BE0
:402F40001A700AE0A14B1A78A34BDA720120392109F098FF24229F4B1A7064200EF002FF0EF0A2FA38BD0EF075FA082841F0D2839A4B1B78DBB2AA2B40F0C080974B9B79EB
:402F8000DBB2C32B40F0BA80944BDB79DBB23C2B40F0B4808D4B1B78062B25D88F4AD278D2B2092A0FD80133DAB2884B1A708B48C178894B13443031D972C178303101208C
:402FC000C9B209F097FF854BDB78DBB20A2B0BD17E4B1A780132D2B21A707F4B13443021D972012009F086FF7C4BDB78DBB20B2B1BD1764B1A783AB90120702109F042FF13
:403000000E22744B1A7010E00120202109F072FF6E4B1B78704A1A44D27A2C2A02D100216F4A1170013B694A13706C4BDB78DBB20C2B63D1654B1B78032B5FD90622654B32
:403040001A700120392109F01DFF604B1A78624BDA72644B187809F0B3FD00283FD05C4B93F8A320604B1B789A4204D140F2A7105E490AF0ABFE564B93F8A3205C4B1B78A1
:403080009A4204D140F2B31058490AF09FFE504B93F8A320574B1B789A4204D140F2AD1052490AF093FE4A4B93F8A320524B1B789A4204D14FF47A704C490AF087FE012028
:4030C0003C2109F0DFFE4FF4FA700EF04BFE0120702109F0D7FE0E223E4B1A700EE00120552109F0CFFE4FF4FA700EF03BFE01202E2109F0C7FE0022364B1A7064200EF0DA
:4031000031FE0EF0D1F938BD0EF0A4F9082841F00183324B1B78DBB2AA2B40F086802F4B9B79DBB2C32B40F080802C4BDB79DBB23C2B7AD1294BDB78DBB2802B2FD004D85E
:403140007E2B63D07F2B06D06FE0822B56D031D3942B63D069E00120582109F093FE01200021732240F2C3130AF0EAF801200021CF2240F2C5130AF0E3F8012001462922EE
:4031800040F2C1130AF0DCF8012001467B2240F2EE330AF0D5F81C220E4B1A7045E00120062109F06FFE0022084B1A701D22094B1A703AE001206D2109F064FE1E22054B58
:4031C0001A7032E06A8AFF1FD885FF1FF185FF1F1889FF1F2F83FF1F7888FF1F788CFF1F3283FF1F048AFF1F6B8AFF1F8388FF1F538AFF1F7688FF1FF085FF1F01208A2112
:4032000009F040FE2A22AB4B1A700EE001202E2109F038FE0022A74B1A7006E00120702109F030FE0E22A34B1A7064200EF09AFD0EF03AF938BD0EF00DF9082841F06A8269
:403240009D4B1B78DBB2AA2B65D19B4B9B79DBB2C32B60D1984BDB79DBB23C2B5BD1964BDB78DBB2802B1AD004D87E2B44D07F2B06D050E0822B30D020D3942B44D04AE002
:403280000120062109F0FEFD00228C4B1A7001228B4B83F8A3201F22864B1A703BE00120062109F0EFFD0022844B1A700222844B83F8A3201F227F4B1A702CE0012006219F
:4032C00009F0E0FD00227D4B1A7003227C4B83F8A3201F22774B1A701DE00120062109F0D1FD0022754B1A700422754B83F8A3201F22704B1A700EE001202E2109F0C2FD95
:4033000000226C4B1A7006E00120702109F0BAFD0E22684B1A7064200EF024FD0EF0C4F838BD0EF097F8082841F0F481624B1B78DBB2AA2B40F0B8805F4B9B79DBB2C32B7D
:4033400040F0B2805C4BDB79DBB23C2B40F0AC80594BDB78DBB2942B06D10120702109F091FD0E22534B1A70544B1B78042B36D8514AD278D2B2092A0FD80133DAB24F4BA9
:403380001A704D48C1784F4B13443031D972C17830310120C9B209F0ADFD474BDB78DBB20A2B0BD1454B1A780132D2B21A70454B13443021D972012009F09CFD3E4BDB7847
:4033C000DBB2512B0BD13D4B1A780132D2B21A703C4B13442C21D972012009F08BFD364BDB78DBB20B2B1BD1344B1A783AB90120702109F047FD0E222E4B1A7010E00120BB
:40340000202109F077FD2D4B1B782E4A1A44D27A2C2A02D100212C4A1170013B274A1370254BDB78DBB20C2B3ED1244B1B78052B3AD1244B1B7B353BDBB2022B34D8012011
:40344000392109F01FFD1D4B1B781E4901F80B3F4FF4DD700AF0BAFC012805D1194B1B7B03F00F03194A137040F25A2018490AF0ADFC012818D1134A937B03F00F03154984
:403480000B70137C03F00F03134A13703C2109F0F9FC4FF4FA700EF065FC0120702109F0F1FC0E22034B1A7064200EF05BFC0DF0FBFF38BD2F83FF1F788CFF1FF185FF1FDB
:4034C0001889FF1F7888FF1F3283FF1FD485FF1F8388FF1F1C84FF1F528AFF1F0DF0BAFF082841F01781A74B1B78DBB2AA2B40F08780A44B9B79DBB2C32B40F08180A14B5C
:40350000DB79DBB23C2B7BD19E4BDB78DBB28F2B08D002D87E2B64D072E0902B31D0942B67D06DE09849002381F82D3081F82E304FF4DE702D310AF049FC012811D1002288
:40354000924B1A703C2109F09DFC4FF4FA700EF009FC0120702109F095FC0E228C4B1A704EE00120552109F08DFC4FF4FA700EF0F9FB01202E2109F085FC0022844B1A702D
:403580003EE08149012381F82D3081F82E304FF4DE702D310AF01AFC012812D101247B4B1C7020463C2109F06DFC4FF4FA700EF0D9FB0E22764B1A702046702109F062FC63
:4035C0001EE00120552109F05DFC4FF4FA700EF0C9FB01202E2109F055FC00226C4B1A700EE001202E2109F04DFC0022684B1A7006E00120702109F045FC0E22644B1A701E
:4036000064200EF0AFFB0DF04FFF38BD0DF022FF082841F07F805B4B1B78DBB2AA2B40F0AA80584B9B79DBB2C32B40F0A480554BDB79DBB23C2B40F09E80564B1B782BBBD5
:40364000504AD278D2B2092A0FD80133DAB2514B1A704C48C178504B13443031D972C17830310120C9B209F045FC464BDB78DBB20A2B0BD1474B1A780132D2B21A70464B8F
:4036800013443021D972012009F034FC3D4BDB78DBB20B2B1BD13F4B1A783AB901202E2109F0F0FB00223A4B1A7010E00120202109F020FC374B1B78374A1A44D27A2C2AB2
:4036C00002D10021354A1170013B324A13702D4BDB78DBB20C2B4ED12E4B1B78012B4AD10120392109F0CEFB2A4B1A782A4BDA72254B93F8A330012B08D127490A7B284B5A
:403700001A7040F2C1100B310AF060FB1E4B93F8A330022B08D120490A7B224B1A7040F2C3100B310AF052FB174B93F8A330032B08D119490A7B1C4B1A7040F2C5100B314F
:403740000AF044FB104B93F8A330042B08D112490A7B164B1A7040F2EE300B310AF036FB4FF4FA700EF0FEFA0120702109F08AFB0E22074B1A7064200EF0F4FA0DF094FEEF
:4037800038BD00BF788CFF1F1889FF1F3587FF1F2F83FF1FF185FF1F7888FF1F3283FF1F538AFF1F6B8AFF1F7688FF1FF085FF1F0DF050FE082840F0AD87CD4B1B78DBB271
:4037C000AA2B40F00082CA4B9B79DBB2C32B40F0FA81C74BDB79DBB23C2B40F0F481C44BDB787E3B252B00F2EE81DFE813F0D401EC01EC01EC01EC01EC01A101870140007E
:40380000FD007600260091006701EC01EC01EC01EC01EC01EC01EC01EC01BB01EC01EC01C7003101AC00EC01EC01EC01EC01EC01EC0116015B00E2004C01AE4901230B708E
:403840004B7040F2C7100AF0C1FA012840F0BB813C2109F017FB4FF4FA700EF083FA0120702109F00FFB0E22A34B1A70ABE1A14901230B7002234B7040F2C7100AF0A6FAB5
:40388000012840F0A0813C2109F0FCFA4FF4FA700EF068FA0120702109F0F4FA0E22964B1A7090E1934901230B7003234B7040F2C7100AF08BFA012840F085813C2109F0F7
:4038C000E1FA4FF4FA700EF04DFA0120702109F0D9FA0E22884B1A7075E1864901230B7004234B7040F2C7100AF070FA012840F06A813C2109F0C6FA4FF4FA700EF032FAAC
:403900000120702109F0BEFA0E227B4B1A705AE1784901230B7005234B7040F2C7100AF055FA012840F04F813C2109F0ABFA4FF4FA700EF017FA0120702109F0A3FA0E227C
:403940006D4B1A703FE16B4901230B7006234B7040F2C7100AF03AFA012840F034813C2109F090FA4FF4FA700EF0FCF90120702109F088FA0E22604B1A7024E15D49012388
:403980000B7007234B7040F2C7100AF01FFA012840F019813C2109F075FA4FF4FA700EF0E1F90120702109F06DFA0E22524B1A7009E1504901230B7008234B7040F2C710D4
:4039C0000AF004FA012840F0FE803C2109F05AFA4FF4FA700EF0C6F90120702109F052FA0E22454B1A70EEE0424901240C7009234B7040F2C7100AF0E9F920463C2109F021
:403A000041FA4FF4FA700EF0ADF92046702109F039FA0E22384B1A70D5E0364901230B700A234B7040F2C7100AF0D0F9012840F0CA803C2109F026FA4FF4FA700EF092F9C4
:403A40000120702109F01EFA0E222B4B1A70BAE0284901230B700B234B7040F2C7100AF0B5F9012840F0AF803C2109F00BFA4FF4FA700EF077F90120702109F003FA0E2239
:403A80001D4B1A709FE01B4901230B700C234B7040F2C7100AF09AF9012840F094803C2109F0F0F94FF4FA700EF05CF90120702109F0E8F90E22104B1A7084E00D490123E7
:403AC0000B700D234B7040F2C7100AF07FF9012879D13C2109F0D6F94FF4FA700EF042F90120702109F0CEF90E22034B1A706AE0788CFF1FE885FF1F2F83FF1FBD490123FC
:403B00000B700E234B7040F2C7100AF05FF9012859D13C2109F0B6F94FF4FA700EF022F90120702109F0AEF90E22B34B1A704AE0B04901230B700F234B7040F2C7100AF0E9
:403B400045F901283FD13C2109F09CF94FF4FA700EF008F90120702109F094F90E22A64B1A7030E0A34900230B704B7040F2C7100AF02CF9012826D13C2109F083F94FF4A2
:403B8000FA700EF0EFF80120702109F07BF90E22994B1A7017E0974900230B704B7040F2C7100AF013F9012806D1702109F06AF90E22914B1A7006E001202E2109F062F98D
:403BC00000228D4B1A7064200EF0CCF80DF06CFC38BD0DF03FFC082840F09C85874B1B78DBB2AA2B4ED1854B9B79DBB2C32B49D1824BDB79DBB23C2B44D1804BDB78DBB2B4
:403C00000A2B2ED101227E4B1A6010E07D4B58787D4B197801227D4B1B780BF0D1F94FF4FA700EF09FF8764A136801331360784B1B7803F00F03724A12689342E6D2012063
:403C40000C2109F01FF94FF4FA700EF08BF80024704BDC7001202E2109F014F9664B1C7010E001200C2109F00DF94FF4FA700EF079F80024674BDC7001202E2109F002F91B
:403C80005D4B1C7064200EF06DF80DF00DFC38BD0DF0E0FB082840F03D85584B1B78DBB2AA2B5DD1554B9B79DBB2C32B58D1534BDB79DBB23C2B53D1504BDB78DBB2392BED
:403CC00010D002D8382B05D04AE07E2B41D0942B34D045E001202E2109F0D4F80022464B1A703DE001203B2109F0CCF8454C60780CF0C4FB60780A210AF0F0F860780A2131
:403D00000AF0ECF860780A210AF0E8F860781D210AF0E4F8607856210AF0E0F8607831210AF0DCF84FF4FA700EF01CF801202E2109F0A8F80022304B1A7011E001202F2172
:403D400009F0A0F80022344B1A7028222A4B1A7006E001202E2109F095F80022264B1A7064200DF0FFFF0DF09FFB38BD0DF072FB082840F0CF84214B1B78DBB2AA2B60D18B
:403D80001E4B9B79DBB2C32B5BD11C4BDB79DBB23C2B56D1194BDB78DBB2912B08D002D87E2B3FD04DE0922B13D0942B42D048E001200A2109F066F80122184B1A70042200
:403DC000174B1A700022144B1A7018220A4B1A7037E001206F2109F055F821220F4B1A7004220F4B1A7000220B4B1A701822024B1A7026E0E885FF1F2F83FF1F788CFF1FDE
:403E0000F485FF1F7488FF1F7788FF1F048AFF1F048BFF1F7888FF1FF185FF1F2887FF1F3C86FF1F01202E2109F02CF80022B94B1A7006E00120702109F024F80E22B54BE2
:403E40001A7064200DF08EFF0DF02EFB38BDB24B012013F80B1FB14A12780AF021FB01282CD16E2109F00EF82322AA4B1A70012001460AF061F9052810D90A200DF072FFBF
:403E8000012009F0DBFD012021210AF055F9052840F24084012009F04FFD38BD0120552108F0F0FF4FF4FA700DF05CFF01202E2108F0E8FF0022974B1A7038BD01205521FB
:403EC00008F0E0FF4FF4FA700DF04CFF01202E2108F0D8FF00228F4B1A7038BD0DF0BAFA082840F017848E4B1B78DBB2AA2B7AD18B4B9B79DBB2C32B75D1894BDB79DBB217
:403F00003C2B70D1864BDB78DBB2392B08D002D8382B39D067E07E2B3ED0942B5CD062E0804B5A78012A07D17F4901230B704B707E490B7002234B70022A08D17A4B0122AA
:403F40001A7003215970794B1A7004225A7040F26320754909F03AFF012844D140F26520724909F033FF01283DD1682108F08AFF4FF4FA700DF0F6FE0120702108F082FF02
:403F80000E22644B1A702EE02622624B1A700120672108F077FF26E0654B5B78012B03D10022634B5A7002E00122614B5A7040F2DA305F4909F00AFF01203C2108F062FF99
:403FC0004FF4FA700DF0CEFE01202E2108F05AFF0022504B1A7006E00120702108F052FF0E224C4B1A7064200DF0BCFE0DF05CFA38BD0DF02FFA082840F08C83484B1B78D3
:40400000DBB2AA2B40F0C980454B9B79DBB2C32B40F0C380424BDB79DBB23C2B40F0BD803F4BDB78DBB28D2B41D005D87E2B00F0A5808C2B06D0B0E08E2B7BD0942B00F033
:40404000A580AAE0374B5B78012B07D1364A0120107002215170354A10705170022B07D1314B0121197004225A70304B19705A7040F263202C4909F0A9FE012840F08D8059
:4040800040F26520294909F0A1FE012840F085806A2108F0F7FE4FF4FA700DF063FE0E221C4B1A700120702108F0ECFE75E01D4B5A78012A06D11C4901230B704B701B49F5
:4040C0000B704B70022A07D1174B0121197003225A70164B19705A7040F26320124909F075FE012859D140F26520104909F06EFE012852D1692108F0C5FE4FF4FA700DF057
:4041000031FE0120702108F0BDFE0E22014B1A7043E000BF2F83FF1F7888FF1F2887FF1F788CFF1F6C88FF1F7488FF1F1489FF1F2C83FF1F96490120087000224A70954B3E
:4041400018705A7040F2632009F040FE012824D140F265208F4909F039FE01281DD16C2108F090FE4FF4FA700DF0FCFD0120702108F088FE0E22884B1A700EE001202E213C
:4041800008F080FE0022844B1A7006E00120702108F078FE0E22804B1A7064200DF0E2FD0DF082F938BD0DF055F9082840F0B2827A4B1B78DBB2AA2B40F0E380774B9B79B4
:4041C000DBB2C32B40F0DD80744BDB79DBB23C2B40F0D780724B1A78032A26D86F4BDB78DBB2092B0ED86D4BD9786E4B1344303183F88E1001202A2108F07CFE684A13784D
:4042000001331370654BDB78DBB20A2B0DD1644C2278644B1344302183F88E1001202A2108F068FE2378013323705C4BDB78DBB20B2B1AD15A4B1B787BB90120552108F09B
:4042400021FE4FF4FA700DF08DFD01202E2108F019FE0022504B1A7007E0013BDAB2504B1A700120202108F045FE4C4BDB78DBB20C2B40F086804A4B1A78002A72D000231A
:4042800049490B6049490B6012E0591C4848405C444C234493F88E30984204D1424803680133036002E000203F4B18603F4B196010463E4B1B689A42E7D83D4B1A783A4B53
:4042C0001B689A420FD10120262108F0DBFD4FF4FA700DF047FD22222F4B1A700120712108F0D0FD4DE000232F4A13602F4A136010E02F4A1A4492F824102A4A1A4492F890
:404300008E20914203D128490A6801320A600133264A1360254B1B689842EAD8224B1B68042B0FD10120262108F0ACFD4FF4FA700DF018FD2222184B1A700120712108F05F
:40434000A1FD1EE00120272108F09CFD4FF4FA700DF008FD01202E2108F094FD00220E4B1A700EE00120272108F08CFD4FF42F700DF0F8FC01202E2108F084FD0022064BF3
:404380001A7064200DF0EEFC0DF08EF838BD00BF7488FF1F1489FF1F2F83FF1F788CFF1FF185FF1F7888FF1F3887FF1F2C84FF1F0C81FF1F0DF04EF8082840F0AB81AB4B3D
:4043C0001B78DBB2AA2B40F0A980A84B9B79DBB2C32B40F0A380A54BDB79DBB23C2B40F09D80A34B1A78032A27D8A04BDB78DBB2092B10D89D48C1789E4B1344303183F848
:404400008E10C17830310120C9B208F073FD984A137801331370954BDB78DBB20A2B0CD1934C2278934B1344302183F88E10012008F060FD2378013323708C4BDB78DBB2A3
:404440000B2B1AD18A4B1B787BB90120552108F019FD4FF4FA700DF085FC01202E2108F011FD0022844B1A7007E0013BDAB2804B1A700120202108F03DFD7C4BDB78DBB27F
:404480000C2B4BD17A4B1B78042B47D10120392108F0F8FC4FF4FA700DF064FC0024764B1C7001203C2108F0EDFC714B1A78734B1A70734B1C6008E0591C6E48034493F814
:4044C0008E006E4B58546E4B19606D4B1B689A42F2D840F29F20694909F078FC78B90120552108F0CFFC4FF4FA700DF03BFC01202E2108F0C7FC00225F4B1A700EE00120AA
:404500003C2108F0BFFC4FF4FA700DF02BFC01202E2108F0B7FC0022574B1A7064200DF021FC0CF0C1FF38BD0CF094FF082840F0F1804E4B1B78DBB2AA2B5FD14B4B9B791A
:40454000DBB2C32B5AD1494BDB79DBB23C2B55D1464BDB78DBB2BC2B08D002D87E2B46D04CE0BD2B1AD0BE2B31D047E0454901240C704C704FF47D7009F028FC20463921C3
:4045800008F080FC4FF42F700DF0ECFB2046702108F078FC0E22384B1A702FE0394901240C7002234B704FF47D7009F00FFC2046392108F067FC4FF42F700DF0D3FB2046AD
:4045C000702108F05FFC0E222B4B1A7016E00120062108F057FC01222B4B1A700023244A13702A4A13700522234B1A7006E00120702108F047FC0E221F4B1A7064200DF059
:40460000B1FB0CF051FF38BD0CF024FF082840F08180164B1B78DBB2AA2B76D1134B9B79DBB2C32B71D1114BDB79DBB23C2B6CD10E4BDB78763B0D2B67D8DFE803F0074E7D
:404640006666666666665F6666662D3D0120302108F018FC00230E4A1370054A137001220C4B1A701822044B1A704EE0788CFF1FF185FF1F7888FF1F2F83FF1F0C81FF1FF9
:404680002C84FF1F6C88FF1F7088FF1F3283FF1F3C86FF1F6A8AFF1F0120302108F0F2FB01231D4A137000211C4A11701C4A137018221C4B1A7028E00120302108F0E2FB6F
:4046C0000222154B1A700022144B1A700122144B1A701822134B1A7017E00120302108F0D1FB03220C4B1A7000220C4B1A7001220B4B1A7018220B4B1A7006E001205F2199
:4047000008F0C0FB1B22074B1A7064200DF02AFB0CF0CAFE38BD00BF3C86FF1FF185FF1F6A8AFF1F2F83FF1F10B5A34B1B78212B01F24883DFE813F022009C00F800460B18
:404740005201CC016102D602460B6A0339047C04E904680591057406460B460B460B8907460B460B460B460B460B460B2F080009AD09460B460B250A460BEB0A8F4B1B7816
:40478000012B03D18E4B1A788B4B1A708D4B1B78012B06D18C4B1A788C4B1A7001228C4B1A700CF057FE082841F00C83894B1B78DBB2AA2B56D1874B9B79DBB2C32B51D1BE
:4047C000844BDB79DBB23C2B4CD1824BDB78DBB2562B02D0572B1FD044E07A4B1B78012B04D1794B1A78794B1A7008E00120632108F048FB0123764A1370744A13706F4BC9
:404800001B78012B04D16E4B1A786B4B1A7029E00022694B1A7025E00120632108F032FB02226B4B1A70674B1B78012B04D1664B1A78664B1A7002E00022644B1A705F4B12
:404840001B78012B04D15E4B1A785B4B1A7009E00120632108F016FB02225D4B1A700122554B1A7064200DF07DFA0CF01DFE10BD0CF0F0FD082841F0A582564B1B78DBB2F1
:40488000AA2B4BD1534B9B79DBB2C32B46D1514BDB79DBB23C2B41D14E4BDB78DBB25C2B0AD004D8452B0FD0592B18D036E07E2B25D0942B2BD031E00120492108F0E2FA7E
:4048C00002223D4B1A7029E00120252108F0DAFA0022414B1A700F22374B1A701EE001202B2108F0CFFA4FF42F700DF03BFA01202E2108F0C7FA00222F4B1A700EE0012033
:404900002E2108F0BFFA00222B4B1A7006E001202E2108F0B7FA0022274B1A7064200DF021FA0CF0C1FD10BD0CF094FD082841F04982284B1B78DBB2AA2B36D1254B9B7969
:40494000DBB2C32B31D1234BDB79DBB23C2B2CD1204BDB78DBB25F2B08D002D85E2B0DD023E07E2B12D0942B18D01EE001200B2108F088FA0A22104B1A7016E001201D21BA
:4049800008F080FA0B220C4B1A700EE001202E2108F078FA0022084B1A7006E00120632108F070FA0122044B1A7064200DF0DAF90CF07AFD10BD00BFEC85FF1FC785FF1F7B
:4049C0003083FF1F508AFF1FEF85FF1F2F83FF1F1089FF1F788CFF1FF185FF1F0CF03AFD082841F0EF81A94B1B78DBB2AA2B69D1A64B9B79DBB2C32B64D1A44BDB79DBB273
:404A00003C2B5FD1A24AD37823F00303D3709F4BDB78DBB23B2B3ED004D80F2B09D0102B1BD04FE07E2B3ED0942B44D0432B49D129E00120062108F025FA0022954B1A70C4
:404A40000120242108F056FA934AD37843F00203D3700522914B1A7034E001200D2108F011FA00228B4B1A708D4B1A700120472108F040FA884AD37843F00103D370052295
:404A8000864B1A701EE00120072108F0FBF90622824B1A7016E001202E2108F0F3F900227E4B1A700EE001202E2108F0EBF900227A4B1A7006E001200B2108F0E3F90A224C
:404AC000764B1A7064200DF04DF90CF0EDFC10BD0CF0C0FC082841F075816C4B1B78DBB2AA2B40F08480694B9B79DBB2C32B7ED1664BDB79DBB23C2B79D1664B1B78694A37
:404B00001278013A93423EDC604AD278D2B2092A0FD80133DAB25F4B1A705C48C1785E4B13443031D972C17830310120C9B208F0E1F9564BDB78DBB20A2B0BD1554B1A78E6
:404B40000132D2B21A70544B13443021D972012008F0D0F94D4BDB78DBB2512B13D14D4B1B7883B14E4A12786AB90133DAB2494B1A70494B13442C21D972012008F0BAF9D7
:404B80000122474B1A70414BDB78DBB20B2B1BD1404B1A783AB90120052108F073F904223E4B1A7010E00120202108F0A3F9394B1B78374A1A44D27A2C2A02D10021384A40
:404BC0001170013B334A1370304BDB78DBB20C2B0DD1304B1B7853B10120072108F052F92C4B1A782C4BDA7206222C4B1A7064200DF0B8F80CF058FC10BD0CF02BFC082854
:404C000020D1224B1B78DBB2AA2B15D11F4B9B79DBB2C32B10D11D4BDB79DBB23C2B0BD11A4BDB78DBB27E2B06D101202E2108F029F90022194B1A7064200DF093F80CF06E
:404C400033FC10BD184B187804F076F8072841F0B98032200DF086F8134B187804F080F80146124B18700C4BDB7813F0030321D00D4A10780E4A07F061FDD8B901202E21C6
:404C800008F000F90022054B1A7010BD788CFF1F7888FF1FF185FF1F6C8AFF1FEC85FF1F3283FF1FD485FF1F3483FF1FC085FF1F778AFF1F9F4C207804F052F89E4B1870F0
:404CC000207840F010000CF07FFA0120082108F0D9F80723994A1370994A13700122994B1A7010BD32200DF03DF8924B187804F023F80638052801F26580DFE810F0700086
:404D0000630863087C003B00060064200DF02AF8884B187804F098F801280ED18A4B1B785BB9392108F0AEF80022864B1A7014200DF018F80D22814B1A707E4B187804F04A
:404D400083F8012841F03E807F4B1B78012B41F039800C2108F096F800247A4B1C704FF4FA700CF0FFFF01202E2108F08BF8734B1C7010BD64200CF0F5FF6E4B187804F0AB
:404D800063F801280ED1704B1B785BB9392108F079F800226B4B1A7014200CF0E3FF0D22664B1A70634B187804F04EF8012841F00980654B1B78012B41F004800C2108F0E9
:404DC00061F800245F4B1C704FF4FA700CF0CAFF01202E2108F056F8584B1C7010BD01202E2108F04FF80023564A1370574AD370524A137010BD32200CF0B4FF01202E21A6
:404E000008F040F800224D4B1A7010BD0CF022FB082840F0D7874E4B1B78DBB2AA2B40F0BE804B4B9B79DBB2C32B40F0B880484BDB79DBB23C2B40F0B280464B1B78062B3F
:404E400065D8434AD278D2B2092A10D80133DAB2404B1A703E48C1783C4B1344303183F86510C17830310120C9B208F043F8384BDB78DBB20A2B0CD1364B1A780132D2B214
:404E80001A70324B1344302183F86510012008F031F82F4BDB78DBB26A2B0CD12D4B1A780132D2B21A70294B13442D2183F86510012008F01FF8264BDB78DBB21A2B26D92C
:404EC000234BDB78DBB2422B21D80022224B1A6019E01F4AD278D2B220491944097A8A420DD11C490A780132D2B20A704133D9B2164B134483F86510012007F0FBFF164AA1
:404F0000136801331360144B1B68192BE1D9104BDB78DBB20B2B2BD10E4B1A7802BB01202E2107F0AFFF0023084A82F86530034A13701DE03483FF1FC085FF1FEC85FF1F2D
:404F40003083FF1FC785FF1F8083FF1F6C8AFF1F788CFF1FF185FF1F2C84FF1F0C81FF1F0120202107F0C6FFA14A1378013B1370A04BDB78DBB20C2B11D19D4B1B7873B1BC
:404F80000120052107F07EFF9B4B994A127883F86520012283F883200422984B1A7064200CF0E0FE0CF080FA10BD0CF053FA082840F008878F4B1B78DBB2AA2B32D18D4B8C
:404FC0009B79DBB2C32B2DD18A4BDB79DBB23C2B28D1884BDB78DBB2392B04D07E2B1AD0382B1FD10CE001200A2107F04BFF00237F4A1370824A13700922804B1A7011E095
:405000000120052107F03EFF01227D4B1A7004227A4B1A7006E001202E2107F033FF0022764B1A7064200CF09DFE0CF03DFA10BD0320012109F080F8052840D90A200CF0E2
:4050400091FE0320212109F077F8052837D9032008F068FF012832D133200CF043FA0120332108F0C3FF50B30022664B1A600AE0012009F025F8604B1C4484F82900614A62
:405080001368013313605F4B1C68072CF0D90120132107F0F7FE584CE37843F00403E3704FF4FA700CF05EFE01200E2107F0EAFE00234F4A137023710C22504B1A700CF081
:4050C000C9F9082840F07E864A4B1B78DBB2AA2B15D1484B9B79DBB2C32B10D1454BDB79DBB23C2B0BD1434BDB78DBB23B2B06D10120492107F0C6FE0222404B1A706420B5
:405100000CF030FE0CF0D0F910BD0CF0A3F9082840F05886374B1B78DBB2AA2B62D1354B9B79DBB2C32B5DD1324BDB79DBB23C2B58D12F4B1B78052B25D82E4AD278D2B288
:40514000092A0FD80133DAB2294B1A702948C178294B134430311971C17830310120C9B207F0C8FE234BDB78DBB20A2B0BD1204B1A780132D2B21A701F4B134430211971CB
:40518000012007F0B7FE1B4BDB78DBB20B2B12D1174B1A783AB90120052107F073FE0422164B1A7007E00120202107F0A3FE104A1378013B13700F4BDB78DBB20C2B11D144
:4051C0000B4B1B7873B10C4B5B79302B0AD00120052107F057FE064B1A78074B1A710422064B1A7064200CF0BDFD0CF05DF910BDF185FF1F788CFF1F6C8AFF1FEC85FF1F3C
:405200008083FF1FF485FF1F974B5878974B19780022974B1B7809F0D3FE964B5B788BB901200C2107F02EFE4FF42F700CF09AFD0024914BDC7001202E2107F023FE8F4BA4
:405240001C7010BD0120312107F01CFE00228C4B1A702122894B1A7010BD0CF0FBF8082840F0B085874B1B78DBB2AA2B40F0D280844B9B79DBB2C32B40F0CC80814BDB7999
:40528000DBB23C2B40F0C6807E4BDB78583B3E2B00F2C080DFE803F020BE5464BE30BEBEBEBEBEBEBE7FBEBEBEBEBEBEBEBEBEBE9FBEBEBEBEBEBEBEBEBEBEBEBEBEAFBE2D
:4052C000BEBEBEBEBEBEBEBEBEBEBEBEBEBEBEBEBEBEBE8FB7BE740001202B2107F0D2FD4FF42F700CF03EFD0120702107F0CAFD0E22624B1A708DE001205C2107F0C2FD38
:4053000001200021D62240F2AD1307F0B7FF01200021892240F2A71307F0B0FF01200146242240F2B31307F0A9FF0120014678224FF47A7307F0A2FF1322504B1A7069E063
:4053400001202B2107F09EFD4FF42F700CF00AFD0120702107F096FD0E22484B1A7059E001202B2107F08EFD4FF42F700CF0FAFC0120702107F086FD0E22404B1A7049E02A
:4053800001205F2107F07EFD00223F4B1A701B223A4B1A703EE001202B2107F073FD4FF42F700CF0DFFC0120702107F06BFD0E22324B1A702EE001202B2107F063FD4FF450
:4053C0002F700CF0CFFC0120702107F05BFD0E222A4B1A701EE001202B2107F053FD4FF42F700CF0BFFC0120702107F04BFD0E22224B1A700EE001202E2107F043FD0022FD
:405400001E4B1A7006E001202E2107F03BFD00221A4B1A7064200CF0A5FC0CF045F810BD0CF018F8082840F0CD84164B1B78DBB2AA2B40F00481134B9B79DBB2C32B40F0D7
:40544000FE80104BDB79DBB23C2B40F0F8800D4BDB78DBB27E2B19D10120312107F012FD0022064B1A701DE07488FF1FC085FF1F3483FF1F2C83FF1F6C8AFF1FEC85FF1F63
:405480001189FF1F788CFF1FF185FF1FA24BDB78DBB2942B06D10120632107F0F3FC01229E4B1A709E4B1A78072A26D89A4BDB78DBB2092B0ED8984BD9789A4B13443031A0
:4054C00083F88E1001202A2107F014FD944A137801331370904BDB78DBB20A2B0DD1904C2278904B1344302183F88E1001202A2107F000FD237801332370874BDB78DBB2AB
:405500000B2B1AD1864B1B787BB90120392107F0B9FC4FF4FA700CF025FC01202E2107F0B1FC00227D4B1A7007E0013BDAB27C4B1A700120202107F0DDFC774BDB78DBB265
:405540000C2B7CD1764B1A78002A36D0002376490B6076490B6015E0581C7549014491F8D710704C234493F88E30303B994204D16D490B6801330B6002E000216A4B196051
:405580006A4B1860694B1B689A42E5D8684B93F8D720654B1B689A420BD10120262107F071FC4FF4FA700CF0DDFB0120702107F069FC0E22594B1A7041E000235A490B60C3
:4055C0005A490B6010E05B49194491F824005549194491F88E10884203D15348016801310160013351490B60504B1B689A42EAD84D4B1B68082B13D10120262107F042FCE4
:405600004FF4FA700CF0AEFB01205D2107F03AFC0120702107F036FC0E22404B1A700EE00120272107F02EFC4FF4FA700CF09AFB01202E2107F026FC0022384B1A7064203A
:405640000CF090FB0BF030FF10BD0BF003FF082840F0B883304B1B78DBB2AA2B40F095802D4B9B79DBB2C32B40F08F802A4BDB79DBB23C2B40F08980274BDB787E3B162B64
:4056800000F28380DFE803F0720C20345E81818181818181818181818181818181817A000120062107F0EEFB00221D4B1A70224B19781F4B83F8A3100120242107F01AFCBB
:4056C0001A22164B1A7060E00120062107F0DAFB0022134B1A70194B1978154B83F8A3100120242107F006FC1A220C4B1A704CE00120062107F0C6FB0022094B1A70104B9F
:4057000019780B4B83F8A3100120242107F0F2FB1A22024B1A7038E0788CFF1FEC85FF1FF185FF1F6C8AFF1F3887FF1F2C84FF1F1889FF1F0C81FF1F3287FF1F3787FF1FBE
:405740001689FF1F0120062107F09CFB0022AA4B1A70AA4B1978AA4B83F8A3100120242107F0C8FB1A22A74B1A700EE001202E2107F088FB0022A34B1A7006E0012070216A
:4057800007F080FB0E229F4B1A7064200CF0EAFA0BF08AFE10BD0BF05DFE082840F01283994B1B78DBB2AA2B40F0C080964B9B79DBB2C32B40F0BA80934BDB79DBB23C2B8B
:4057C00040F0B4808C4B1B78062B25D88E4AD278D2B2092A0FD80133DAB2874B1A708A48C1788A4B13443031D972C17830310120C9B207F07FFB844BDB78DBB20A2B0BD187
:405800007D4B1A780132D2B21A70804B13443021D972012007F06EFB7B4BDB78DBB20B2B1BD1754B1A783AB90120702107F02AFB0E22744B1A7010E00120202107F05AFB9C
:405840006D4B1B78714A1A44D27A2C2A02D100216F4A1170013B684A13706B4BDB78DBB20C2B63D1644B1B78032B5FD90622654B1A700120392107F005FB5F4B1A78634B1C
:40588000DA72644B187807F09BF900283FD05C4B93F8A320604B1B789A4204D140F2A7105E4908F093FA564B93F8A3205C4B1B789A4204D140F2B310584908F087FA504B1E
:4058C00093F8A320574B1B789A4204D140F2AD10524908F07BFA4A4B93F8A320474B1B789A4204D14FF47A704C4908F06FFA01203C2107F0C7FA4FF4FA700CF033FA012074
:40590000702107F0BFFA0E223E4B1A700EE00120552107F0B7FA4FF42F700CF023FA01202E2107F0AFFA0022364B1A7064200CF019FA0BF0B9FD10BD0BF08CFD082840F089
:405940004182314B1B78DBB2AA2B40F09C802E4B9B79DBB2C32B40F096802B4BDB79DBB23C2B40F09080284BDB787E3B162B00F28A80DFE803F0790C3059698888888888C6
:4059800088888888888888888888888881000120582107F077FA0120002173224FF41F7307F0CEFC01200021CF2240F27E2307F0C7FC01200146292240F27A2307F0C0FCA2
:4059C000012001467B224FF47C7307F0B9FC1C220C4B1A7057E001202B2107F053FA4FF42F700CF0BFF90120702107F04BFA0E22044B1A7047E000BFF185FF1F3487FF1FDD
:405A00001889FF1FEC85FF1F788CFF1F7888FF1F3283FF1F3483FF1F3287FF1F8388FF1F1689FF1F3787FF1F01202B2107F02AFA4FF42F700CF096F90120702107F022FADD
:405A40000E22784B1A701EE001202B2107F01AFA4FF42F700CF086F90120702107F012FA0E22704B1A700EE001202E2107F00AFA00226C4B1A7006E00120702107F002FA65
:405A80000E22684B1A7064200CF06CF90BF00CFD10BD0BF0DFFC082840F09481624B1B78DBB2AA2B67D1604B9B79DBB2C32B62D15D4BDB79DBB23C2B5DD15B4BDB787E3B61
:405AC000162B58D8DFE803F0480C1B2A39575757575757575757575757575757575750000120062107F0CEF90022504B1A7001224F4B83F8A3201F224A4B1A703BE00120AE
:405B0000062107F0BFF90022484B1A700222484B83F8A3201F22434B1A702CE00120062107F0B0F90022414B1A700322404B83F8A3201F223B4B1A701DE00120062107F05B
:405B4000A1F90022394B1A700422394B83F8A3201F22344B1A700EE001202E2107F092F90022304B1A7006E00120702107F08AF90E222C4B1A7064200CF0F4F80BF094FCE8
:405B800010BD0BF067FC082840F01C81264B1B78DBB2AA2B40F0B580234B9B79DBB2C32B40F0AF80204BDB79DBB23C2B40F0A9801E4B1B782BBB1C4AD278D2B2092A0FD85A
:405BC0000133DAB2194B1A701748C178194B13443031D972C17830310120C9B207F08AF9114BDB78DBB20A2B0BD1104B1A780132D2B21A700F4B13443021D972012007F068
:405C000079F9094BDB78DBB20B2B26D1074B1A7892B901202E2107F035F90022014B1A701BE000BFEC85FF1F788CFF1FF185FF1F1889FF1F6C8AFF1F0120202107F05AF957
:405C4000614B1B78614A1A44D27A2C2A02D100215F4A1170013B5C4A13705E4BDB78DBB20C2B4ED1584B1B78012B4AD10120392107F008F9544B1A78544BDA72564B93F8A0
:405C8000A330022B08D151490A7B544B1A704FF41F700B3108F09AF84F4B93F8A330012B08D14A490A7B4E4B1A7040F27A200B3108F08CF8484B93F8A330032B08D14349EB
:405CC0000A7B484B1A7040F27E200B3108F07EF8414B93F8A330042B08D13C490A7B424B1A704FF47C700B3108F070F84FF4FA700CF038F80120702107F0C4F80E223B4BB6
:405D00001A7064200CF02EF80BF0CEFB10BD0BF0A1FB082856D12F4B1B78DBB2AA2B4CD12C4B9B79DBB2C32B47D12A4BDB79DBB23C2B42D1274BDB78DBB20A2B2ED1012291
:405D40002B4B1A6010E02B4B58782B4B197801222A4B1B7809F034F94FF4FA700CF002F8234A136801331360254B1B7803F00F031F4A12689342E6D201200C2107F082F83C
:405D80004FF42F700BF0EEFF00241E4BDC7001202E2107F077F8154B1C700EE001200C2107F070F84FF42F700BF0DCFF01202E2107F068F800220D4B1A7064200BF0D2FF10
:405DC0000BF072FB10BD00BFF185FF1F6C8AFF1F3283FF1F788CFF1F1889FF1F3287FF1F1689FF1F3787FF1F3487FF1FEC85FF1FF485FF1F7488FF1FC085FF1F3483FF1F92
:405E0000048BFF1F7888FF1F10B59F4B1B78212B01F24C83DFE813F022009500F1004A0B4C01C6015F02CE024A0B660336047904E6046905920586064A0B4A0B4A0B8A07BB
:405E40004A0B4A0B4A0B4A0B4A0B4A0B31080209AF094A0B4A0B270A4A0BED0A8B4B1B78012B03D18A4B1A78874B1A70894B1B78012B06D1884B1A78884B1A700422884BB0
:405E80001A700BF0D9FB082841F01083854B1B78DBB2AA2B4FD1834B9B79DBB2C32B4AD1804BDB79DBB23C2B45D17E4BDB78DBB2562B21D0572B3ED1744B1B78012B04D110
:405EC000734B1A78704B1A7009E00220632106F0D9FF0322724B1A7001226B4B1A706D4B1B78012B04D16C4B1A786C4B1A7022E000226A4B1A701EE06B4B1B78012B04D160
:405F0000634B1A78604B1A7002E000225E4B1A70604B1B78012B04D15F4B1A785F4B1A7009E00220632106F0ADFF04225C4B1A7001225A4B1A7064200BF014FF0BF0A6FBFE
:405F400010BD0BF079FB082841F0B082554B1B78DBB2AA2B4BD1534B9B79DBB2C32B46D1504BDB79DBB23C2B41D14E4BDB78DBB25C2B0AD004D8452B0FD0592B18D036E0E1
:405F80007E2B25D0942B2BD031E00220492106F079FF02223C4B1A7029E00220252106F071FF0022414B1A700F22374B1A701EE002202B2106F066FF4FF4FA700BF0D2FEBE
:405FC00002202E2106F05EFF00222F4B1A700EE002202E2106F056FF00222B4B1A7006E002202E2106F04EFF0022274B1A7064200BF0B8FE0BF04AFB10BD0BF01DFB0828AE
:4060000041F05482274B1B78DBB2AA2B36D1254B9B79DBB2C32B31D1224BDB79DBB23C2B2CD1204BDB78DBB25F2B08D002D85E2B0DD023E07E2B12D0942B18D01EE00220F6
:406040000B2106F01FFF0A220F4B1A7016E002201D2106F017FF0B220B4B1A700EE002202E2106F00FFF0022074B1A7006E00220632106F007FF0122034B1A7064200BF0FE
:4060800071FE0BF003FB10BDC485FF1F3387FF1FED85FF1F3183FF1F6988FF1F3A86FF1FEA85FF1F8C8CFF1F508AFF1F1189FF1F0BF0C2FA082841F0F981994B1B78DBB214
:4060C000AA2B69D1964B9B79DBB2C32B64D1944BDB79DBB23C2B5FD1924AD37823F00303D3708F4BDB78DBB23B2B3ED004D80F2B09D0102B1BD04FE07E2B3ED0942B44D016
:40610000432B49D129E00220062106F0BBFE0022854B1A700220242106F0ECFE814AD37843F00203D3700522804B1A7034E002200D2106F0A7FE00227B4B1A707C4B1A7044
:406140000220472106F0D6FE764AD37843F00103D3700522754B1A701EE00220072106F091FE0622714B1A7016E002202E2106F089FE00226D4B1A700EE002202E2106F0FD
:4061800081FE0022694B1A7006E002200B2106F079FE0A22654B1A7064200BF0E3FD0BF075FA10BD0BF048FA082841F07F815C4B1B78DBB2AA2B40F08880594B9B79DBB2AC
:4061C000C32B40F08280564BDB79DBB23C2B7CD1554B1B78574A1278013A93423EDC504AD278D2B2092A0FD80133DAB24E4B1A704B48C1784B4B13443031D972C17830315D
:406200000220C9B206F076FE454BDB78DBB20A2B0BD1454B1A780132D2B21A70414B13443021D972022006F065FE3D4BDB78DBB2512B13D13C4B1B7883B13D4A12786AB92F
:406240000133DAB2384B1A70364B13442C21D972022006F04FFE0122354B1A70304BDB78DBB20B2B1BD1304B1A783AB90220052106F008FE04222D4B1A7010E00220202113
:4062800006F038FE284B1B78264A1A44D27A2C2A02D10021264A1170013B234A1370204BDB78DBB20C2B10D11F4B1B786BB1224B1B7853B90220072106F0E4FD1A4B1A788B
:4062C000184BDA720622194B1A7064200BF04AFD0BF0DCF910BD0BF0AFF908282ED1104B1B78DBB2AA2B15D10D4B9B79DBB2C32B10D10B4BDB79DBB23C2B0BD1084BDB7886
:40630000DBB27E2B06D102202E2106F0BBFD0022064B1A7064200BF025FD0BF0B7F910BD8C8CFF1F9086FF1F1189FF1FC485FF1FF285FF1FD485FF1F7088FF1F9B4B1878FA
:4063400002F0FAFC072841F0B18032200BF00AFD964B187802F004FD0146954B1870954BDB7813F003030DD0904A1078924A06F0E5F938B902202E2106F084FD00228F4B3D
:406380001A7010BD894C207802F0EAFC884B1870207840F010000AF017FF0220082106F071FD0723854A1370854A13700122854B1A7010BD32200BF0D5FC7C4B187802F0D0
:4063C000BBFC0638052801F27180DFE810F074006F086F0880003D00060064200BF0C2FC724B187802F030FD01280FD1764B1B7863B90220392106F045FD0022714B1A706D
:4064000014200BF0AFFC0D226C4B1A70674B187802F01AFD012841F049806B4B1B78012B41F0448002200C2106F02CFD0024654B1C704FF4FA700BF095FC02202E2106F0CC
:4064400021FD5E4B1C7010BD64200BF08BFC574B187802F0F9FC01280FD15B4B1B7863B90220392106F00EFD0022564B1A7014200BF078FC0D22514B1A704C4B187802F0A4
:40648000E3FC012841F012804F4B1B78012B41F00D8002200C2106F0F5FC0024494B1C704FF4FA700BF05EFC02202E2106F0EAFC424B1C7010BD02202E2106F0E3FC0023E2
:4064C000404A13703B4AD3703C4A137010BD32200BF048FC02202E2106F0D4FC0022374B1A7010BD0BF0A8F8082840F0DF87374B1B78DBB2AA2B40F0BF80344B9B79DBB2C7
:40650000C32B40F0B980314BDB79DBB23C2B40F0B3802F4B1B78062B7CD82C4AD278D2B2092A10D80133DAB2294B1A702748C178204B1344303183F86510C17830310220B7
:40654000C9B206F0D7FC214BDB78DBB20A2B0CD11F4B1A780132D2B21A70164B1344302183F86510022006F0C5FC184BDB78DBB26A2B0CD1164B1A780132D2B21A700D4B29
:4065800013442D2183F86510022006F0B3FC0F4BDB78DBB21A2B3DD90C4BDB78DBB2422B38D800220B4B1A6030E000BF4086FF1F6F88FF1F9086FF1F9B86FF1FC485FF1FA2
:4065C000ED85FF1F3387FF1FD285FF1F8C8CFF1F1189FF1F2C84FF1FA94AD278D2B2A9491944097A8A420DD1A7490A780132D2B20A704133D9B2A54B134483F865100220CA
:4066000006F078FCA24A136801331360A04B1B68192BE1D99A4BDB78DBB20B2B15D19A4B1A7852B902202E2106F02CFC0023974A82F86530974A137007E00220202106F0CD
:4066400059FC914A1378013B13708D4BDB78DBB20C2B11D18C4B1B7873B10220052106F011FC8A4B884A127883F86520012283F883200422874B1A7064200BF073FB0BF01A
:4066800005F810BD0AF0D8FF082840F00F877C4B1B78DBB2AA2B32D1794B9B79DBB2C32B2DD1774BDB79DBB23C2B28D1744BDB78DBB2392B04D07E2B1AD0382B1FD10CE08D
:4066C00002200A2106F0DEFB00236F4A1370724A137009226F4B1A7011E00220052106F0D1FB01226C4B1A7004226A4B1A7006E002202E2106F0C6FB0022664B1A706420BE
:406700000BF030FB0AF0C2FF10BD0220012107F013FD052840D90A200BF024FB0220212107F00AFD052837D9022007F0FBFB012832D133200AF0C8FF0220332107F056FC29
:4067400050B30022554B1A600AE0022007F0B8FC4E4B1C4484F82900504A1368013313604E4B1C68072CF0D90220132106F08AFB464CE37843F00403E3704FF4FA700BF0BD
:40678000F1FA02200E2106F07DFB00233E4A137023710C223F4B1A700AF04EFF082840F08586374B1B78DBB2AA2B15D1344B9B79DBB2C32B10D1324BDB79DBB23C2B0BD18C
:4067C0002F4BDB78DBB23B2B06D10220492106F059FB02222F4B1A7064200BF0C3FA0AF055FF10BD0AF028FF082840F05F86244B1B78DBB2AA2B72D1214B9B79DBB2C32BA5
:406800006DD11F4BDB79DBB23C2B68D11E4B1B78052B25D81A4AD278D2B2092A0FD80133DAB2194B1A701648C178184B134430311971C17830310220C9B206F05BFB104BF2
:40684000DB78DBB20A2B0BD10F4B1A780132D2B21A700E4B134430211971022006F04AFB074BDB78DBB20B2B22D1074B1A78BAB90220052106F006FB0422064B1A7017E029
:406880008C8CFF1F0C81FF1F1189FF1F9086FF1F2C84FF1FC485FF1FD285FF1FF485FF1F0220202106F026FB964A1378013B1370954BDB78DBB20C2B11D1924B1B7873B1B9
:4068C000924B5B79302B0AD00220052106F0DAFA8C4B1A788D4B1A7104228D4B1A7064200BF040FA0AF0D2FE10BD8A4B58788A4B19780022894B1B7808F062FB884B5B786D
:406900008BB902200C2106F0BDFA4FF416700BF029FA00247D4BDC7002202E2106F0B2FA7B4B1C7010BD0220312106F0ABFA0022744B1A702122764B1A7010BD0AF07CFE7D
:40694000082840F0B385704B1B78DBB2AA2B40F0D2806D4B9B79DBB2C32B40F0CC806A4BDB79DBB23C2B40F0C680674BDB78583B3E2B00F2C080DFE803F020BE5464BE30A6
:40698000BEBEBEBEBEBEBE7FBEBEBEBEBEBEBEBEBEBE9FBEBEBEBEBEBEBEBEBEBEBEBEBEAFBEBEBEBEBEBEBEBEBEBEBEBEBEBEBEBEBEBEBEBE8FB7BE740002202B2106F012
:4069C00061FA4FF4FA700BF0CDF90220702106F059FA0E224E4B1A708DE002205C2106F051FA02200021D62240F2AD1306F046FC02200021892240F2A71306F03FFC0220A0
:406A00000121242240F2B31306F038FC0220012178224FF47A7306F031FC13223C4B1A7069E002202B2106F02DFA4FF4FA700BF099F90220702106F025FA0E22344B1A7046
:406A400059E002202B2106F01DFA4FF4FA700BF089F90220702106F015FA0E222C4B1A7049E002205F2106F00DFA0022254B1A701B22274B1A703EE002202B2106F002FAB4
:406A80004FF4FA700BF06EF90220702106F0FAF90E221F4B1A702EE002202B2106F0F2F94FF4FA700BF05EF90220702106F0EAF90E22174B1A701EE002202B2106F0E2F9C6
:406AC0004FF4FA700BF04EF90220702106F0DAF90E220F4B1A700EE002202E2106F0D2F900220B4B1A7006E002202E2106F0CAF90022074B1A7064200BF034F90AF0C6FD7E
:406B000010BD00BF1189FF1F8C8CFF1F9086FF1FC485FF1F1489FF1F6F88FF1F4086FF1F688AFF1F0AF088FD082840F0BF84A94B1B78DBB2AA2B40F0B984A64B9B79DBB272
:406B4000C32B40F0B384A34BDB79DBB23C2B40F0AD84A04BDB78DBB27E2B07D10220312106F090F900229C4B1A700BE0994BDB78DBB2942B06D10220632106F083F90122D7
:406B8000954B1A70954B1A78072A26D8914BDB78DBB2092B0ED88F4BD978914B1344303183F88E1002202A2106F0A4F98B4A137801331370874BDB78DBB20A2B0DD1874C6D
:406BC0002278874B1344302183F88E1002202A2106F090F92378013323707E4BDB78DBB20B2B1AD17D4B1B787BB90220392106F049F94FF4FA700BF0B5F802202E2106F051
:406C000041F90022744B1A7007E0013BDAB2734B1A700220202106F06DF96E4BDB78DBB20C2B7DD16D4B1978002979D000236D4A13606D4A136015E0581C6C4A024492F8BA
:406C4000D720674C234493F88E30303B9A4204D1644A13680133136002E00022614B1A60614B18600846604B1B689942E4D85F4B93F8D7205B4B1B689A420FD102202621F3
:406C800006F000F94FF4FA700BF06CF80220702106F0F8F80E22504B1A7041E00023514A1360514A136010E0514A1A4492F824104B4A1A4492F88E20914203D149490A680E
:406CC00001320A600133484A1360474B1B689842EAD8444B1B68082B13D10220262106F0D1F84FF4FA700BF03DF801205D2106F0C9F80220702106F0C5F80E223D4B1A70E1
:406D00000EE00220272106F0BDF84FF4FA700BF029F802202E2106F0B5F800222E4B1A7064200BF01FF80AF0B1FC10BD0AF084FC082840F0BB83274B1B78DBB2AA2B40F095
:406D40009680244B9B79DBB2C32B40F09080214BDB79DBB23C2B40F08A801E4BDB787E3B162B00F28480DFE803F0730C204B5F828282828282828282828282828282828280
:406D80007B000220062106F07DF80022134B1A70194B1978154B83F8A3100220242106F0A9F81A220C4B1A7061E00220062106F069F80022094B1A70104B19780B4B83F85E
:406DC000A3100220242106F095F81A22024B1A704DE000BF8C8CFF1FC485FF1F1189FF1F9086FF1F3887FF1F2C84FF1F1889FF1F0C81FF1F2F83FF1F3D86FF1F2E83FF1FD9
:406E00000220062106F03EF80022AC4B1A70AC4B1978AC4B83F8A3100220242106F06AF81A22A94B1A7022E00220062106F02AF80022A24B1A70A54B1978A24B83F8A3107C
:406E40000220242106F056F81A229F4B1A700EE002202E2106F016F800229B4B1A7006E00220702106F00EF80E22974B1A7064200AF078FF0AF00AFC10BD0AF0DDFB0828CD
:406E800040F01483924B1B78DBB2AA2B40F0C0808F4B9B79DBB2C32B40F0BA808C4BDB79DBB23C2B40F0B480844B1B78062B25D8874AD278D2B2092A0FD80133DAB27F4BA0
:406EC0001A708348C178834B13443031D972C17830310220C9B206F00DF87D4BDB78DBB20A2B0BD1754B1A780132D2B21A70794B13443021D972022005F0FCFF744BDB78DA
:406F0000DBB20B2B1BD16D4B1A783AB90220702105F0B8FF0E226C4B1A7010E00220202105F0E8FF654B1B786A4A1A44D27A2C2A02D10021684A1170013B604A1370644B30
:406F4000DB78DBB20C2B63D15C4B1B78032B5FD906225D4B1A700220392105F093FF574B1A785C4BDA725D4B187805F029FE00283FD0544B93F8A320594B1B789A4204D142
:406F800040F2A710574906F021FF4E4B93F8A3204B4B1B789A4204D140F2B310514906F015FF484B93F8A3204F4B1B789A4204D140F2AD104B4906F009FF424B93F8A320BD
:406FC000424B1B789A4204D14FF47A70454906F0FDFE02203C2105F055FF4FF4FA700AF0C1FE0220702105F04DFF0E22364B1A700EE00220552105F045FF4FF4FA700AF051
:40700000B1FE02202E2105F03DFF00222E4B1A7064200AF0A7FE0AF039FB10BD0AF00CFB082840F043822A4B1B78DBB2AA2B40F09C80274B9B79DBB2C32B40F09680244B2A
:40704000DB79DBB23C2B40F09080214BDB787E3B162B00F28A80DFE803F0790C495969888888888888888888888888888888888881000220582105F005FF02200021732294
:407080004FF4936306F05CF902200021CF2240F29A4306F055F902200121292240F29C4306F04EF9022001217B2240F29E4306F047F91C22044B1A7057E000BF1189FF1FF9
:4070C000D385FF1F1889FF1FC485FF1FC685FF1F8C8CFF1F7888FF1FF285FF1F4086FF1F3D86FF1F8388FF1F2E83FF1F02202B2105F0C8FE4FF4FA700AF034FE0220702130
:4071000005F0C0FE0E22804B1A702EE002202B2105F0B8FE4FF4FA700AF024FE0220702105F0B0FE0E22784B1A701EE002202B2105F0A8FE4FF4FA700AF014FE02207021E1
:4071400005F0A0FE0E22704B1A700EE002202E2105F098FE00226C4B1A7006E00220702105F090FE0E22684B1A7064200AF0FAFD0AF08CFA10BD0AF05FFA082840F09681A5
:40718000624B1B78DBB2AA2B67D1604B9B79DBB2C32B62D15D4BDB79DBB23C2B5DD15B4BDB787E3B162B58D8DFE803F0482A0C1B39575757575757575757575757575757A2
:4071C000575750000220062105F05CFE0022504B1A7001224F4B83F8A3201F224A4B1A703BE00220062105F04DFE0022484B1A700222484B83F8A3201F22434B1A702CE01A
:407200000220062105F03EFE0022414B1A700322404B83F8A3201F223B4B1A701DE00220062105F02FFE0022394B1A700422394B83F8A3201F22344B1A700EE002202E2134
