:4000000000800020110000007D0B01007D0B010008B5044B1A6803F53F5302331A6010F0AFFD00BFFA46004010B5054C237833B9044B13B10448AFF300800123237010BDA9
:40004000F082FF1F00000000001D0100084B10B51BB108480849AFF300800848036803B910BD074B002BFBD0BDE81040184700BF00000000001D0100F482FF1F0881FF1F33
:400080000000000010B562B610F062FF11F082F811F00EF911F0FEF910F068FF11F018FB052011F0A7FD0024534B1C70204620210DF026FE514B1C6006E0514AD15C514ACB
:4000C000D15401334D4A13604D4B1A784B4B1B689A42F2D220200F210DF012FE0022474B1A6007E0464AD15C464A1A4491770133424A1360424B1A78404B1B689A42F1D276
:400100002F200C210DF0FCFD00223C4B1A6008E03B4AD15C3B4A1A4482F82F100133374A1360374B1A78354B1B689A42F0D2402020210DF0E5FD0022304B1A6008E0304A1E
:40014000D15C304A1A4482F8431001332B4A13602B4B1A78294B1B689A42F0D2602009210DF0CEFD264B1878431EDBB2082B14D80022224B1A6008E00133214AD15C214A4C
:400180001A4482F8D7101D4A13601C4B1B68072BF2D91C4B83F8D7000EE00122174B1A6006E0184A1A4482F8D7300133134A1360124B1B68082BF4D9802020210DF0A0FD93
:4001C00000220E4B1A6008E00D4AD15C0D4A1A4482F861100133094A1360094B1A78074B1B689A42F0D2A02020210DF089FD0022024B1A6011E000BF7088FF1F2C84FF1FAA
:40020000F885FF1F1889FF1FA94AD15CA94A1A4482F87F100133A84A1360A54B1A78A64B1B689A42F0D24FF4DD7002210DF068FD9F4B1B78052B05D19D4B5B7803F00F0365
:400240009E4A137040F2C31002210DF059FD984B1B78012B03D1964B5A78994B1A7040F2C51002210DF04CFD914B1B78012B03D18F4B5A78934B1A7040F2C11002210DF0EB
:400280003FFD8B4B1B78012B03D1894B5A788E4B1A7040F2EE3002210DF032FD844B1B78012B03D1824B5A78884B1A704FF41F7002210DF025FD7E4B1B78012B03D17C4B5C
:4002C0005A78834B1A7040F27A2002210DF018FD774B1B78012B03D1754B5A787D4B1A7040F27E2002210DF00BFD714B1B78012B03D16F4B5A78784B1A704FF47C70022128
:400300000DF0FEFC6A4B1B78012B03D1684B5A78724B1A704FF4936002210DF0F1FC644B1B78012B03D1624B5A786D4B1A7040F29A4002210DF0E4FC5D4B1B78012B03D125
:400340005B4B5A78674B1A7040F29C4002210DF0D7FC574B1B78012B03D1554B5A78624B1A7040F29E4002210DF0CAFC504B1B78012B03D14E4B5A785C4B1A704FF49460F3
:4003800002210DF0BDFC4A4B1B78012B03D1484B5A78574B1A7040F2A24002210DF0B0FC434B1B78012B03D1414B5A78514B1A7040F2A44002210DF0A3FC3D4B1B78012B0A
:4003C00003D13B4B5A784C4B1A7040F2A64002210DF096FC364B1B78012B03D1344B5A78464B1A7040F29F2005210DF089FC304B1878042810D101222F4B1A6006E02C4A42
:40040000D15C3F4AD15401332B4A13602A4B1B68042BF4D93A4B187040F26A400A210DF06FFC0022244B1A6006E0214AD15C354AD1540133204A13601D4B1A781E4B1B6831
:400440009A42F2D240F275400A210DF059FC0022194B1A6006E0164AD15C2B4AD1540133154A1360124B1A78134B1B689A42F2D24FF490600A210DF043FC00220E4B1A6066
:4004800006E00B4AD15C214AD15401330A4A1360074B1A78084B1B689A42F2D240F28B400A210DF02DFC0022034B1A6037E000BFF885FF1F1889FF1F2C84FF1FD585FF1F41
:4004C0006B8AFF1F7688FF1F538AFF1FF085FF1F3287FF1F1689FF1F3787FF1F3487FF1F3D86FF1F2E83FF1FD485FF1FC685FF1FD685FF1FC585FF1F8C86FF1F3B86FF1F76
:400500000C81FF1FC885FF1F2084FF1F088BFF1F894AD15C894AD1540133894A1360864B1A78874B1B689A42F2D240F2964002210DF0E6FB0022824B1A6006E07E4AD15C1B
:40054000804AD15401337E4A13607B4B1A787C4B1B689A42F2D240F25A2006210DF0D0FB754B1B78052B0AD1734AD37803F00F0375490B70537903F00F03744A137040F258
:40058000C71002210DF0BCFB6B4B1B78012B06D16F4A1370684B5B7803F00F0353704FF4DE7002210DF0ACFB634B1B78012B05D1614B5B7803F00F03664A137040F26320B0
:4005C00002210DF09DFB5C4B1B78012B05D15A4B5B7803F00F03604A537040F2652002210DF08EFB544B1B78012B05D1524B5B7803F00F03594A53704FF4277003210DF0B3
:400600007FFB4D4B1B78022B06D14B4B9B7843EA0323534A138002E00122514B1A804FF4767002210DF06CFB434B1B78012B04D1414B5A784B4B5A7007E04A4901230B7001
:400640004B704FF476700DF01DFB40F28F4002210DF056FB384B1B78012B04D1364B5A78414B5A7007E0404901230B704B7040F28F400DF007FB40F2D23006210DF040FBF2
:400680002D4B187805280FD100222D4B1A6006E0294AD15C354AD1540133294A1360284B1B689842F4D20CE0304905230B7030234B708B70CB700B714B7140F2D2300DF082
:4006C000E1FA4FF47D7002210DF01AFB1A4B187801280ED100221A4B1A6006E0164AD15C234AD1540133164A1360154B1B689842F4D21E4A537903F00F00137903F00F0168
:400700004FF47A7303FB01F342F2107101FB0033D07800F00F00642101FB0031937803F00F0303EB83035B000B44527802F00F021344104A136010BDF885FF1FD885FF1FB8
:400740002C84FF1F048BFF1F1C84FF1F528AFF1FE885FF1F3587FF1F7488FF1F1489FF1FC285FF1F2C83FF1F688AFF1F2C87FF1F6C88FF1F648AFF1F10B500245EE008F0BC
:40078000ADF901280BD010B102282AD056E0642011F030FA01204F210CF0D0FA4EE0642011F028FA274B187808F022FA06280FD1254B187808F01CFA062809D101203C21E1
:4007C0000CF0BCFA02203C210CF0B8FA012435E0012055210CF0B2FA022055210CF0AEFA2CE0642011F006FA164B187808F000FA06281BD1144B187808F0FAF9062815D1E9
:40080000124B187808F0F4F906280FD1104B187808F0EEF9062809D101204A210CF08EFA02204A210CF08AFA022407E0012055210CF084FA022055210CF080FA002C9ED023
:4008400010BD00BF048AFF1F3483FF1F4086FF1F3C87FF1F08B500230A4A13700A4A13704FF4FA7011F0C6F901202E210CF066FA4FF4FA7011F0BEF902202E210CF05EFAB5
:4008800008BD00BF2F83FF1FEC85FF1F38B5A14B1B782A2B03F27586DFE813F02B009E00F500731E4E01C8017B02EC02731E80035004930400058305AC0593067708A80704
:4008C000D20890091A0AB80BFA0C700E8E0F731E6B133C14D31449152616BE169017A119001A6E1ADF1A261BB11B8B1C731E7F1D041E894B1B78012B03D1884B1A78854B2E
:400900001A70874B1B78012B06D1864B1A78864B1A700222854B1A7010F0E4FC082843F03086834B1B78DBB2AA2B4FD1804B9B79DBB2C32B4AD17E4BDB79DBB23C2B45D111
:400940007B4BDB78DBB2562B02D0572B1FD03DE0714B1B78012B04D1704B1A786D4B1A7008E0012063210CF0E9F901236F4A1370684A13706A4B1B78012B04D1694B1A7882
:40098000694B1A7022E00022674B1A701EE0624B1B78012B04D1614B1A785E4B1A7002E000225C4B1A705E4B1B78012B04D15D4B1A785D4B1A7009E0012063210CF0BEF9CA
:4009C00002225A4B1A700122574B1A70642011F011F910F0B1FC38BD10F084FC082843F0D085534B1B78DBB2AA2B46D1504B9B79DBB2C32B41D14E4BDB79DBB23C2B3CD118
:400A00004B4BDB78DBB25C2B0AD004D8452B0FD0592B18D031E07E2B20D0942B26D02CE0012049210CF08AF902223A4B1A7024E0012025210CF082F900223E4B1A700F2258
:400A4000344B1A7019E0012025210CF077F90022384B1A7027222F4B1A700EE001202E210CF06CF900222B4B1A7006E001202E210CF064F90022274B1A70642011F0BAF840
:400A800010F05AFC38BD10F02DFC082843F07985274B1B78DBB2AA2B36D1254B9B79DBB2C32B31D1224BDB79DBB23C2B2CD1204BDB78DBB25F2B08D002D85E2B0DD023E050
:400AC0007E2B12D0942B18D01EE001200B210CF035F90A220F4B1A7016E001201D210CF02DF90B220B4B1A700EE001202E210CF025F90022074B1A7006E0012063210CF0BE
:400B00001DF90122034B1A70642011F073F810F013FC38BD2F83FF1F508AFF1FEF85FF1FC785FF1F3083FF1FEC85FF1F1089FF1F788CFF1FF185FF1F10F0D4FB082843F0ED
:400B40002085A64B1B78DBB2AA2B69D1A34B9B79DBB2C32B64D1A14BDB79DBB23C2B5FD19F4AD37823F00303D3709C4BDB78DBB23B2B3ED004D80F2B09D0102B1BD04FE08B
:400B80007E2B3ED0942B44D0432B49D129E0012006210CF0D3F80022924B1A70012024210CF004F98E4AD37843F00203D37005228D4B1A7034E001200D210CF0BFF80022C4
:400BC000884B1A70894B1A70012047210CF0EEF8834AD37843F00103D3700522824B1A701EE0012007210CF0A9F806227E4B1A7016E001202E210CF0A1F800227A4B1A70F4
:400C00000EE001202E210CF099F80022764B1A7006E001200B210CF091F80A22724B1A70642010F0E7FF10F087FB38BD10F05AFB082843F0A684694B1B78DBB2AA2B40F095
:400C4000A280664B9B79DBB2C32B40F09C80634BDB79DBB23C2B40F09680624B1B78644A1278013A93423EDC5C4AD278D2B2092A0FD80133DAB25B4B1A705848C178584BEE
:400C800013443031D972C17830310120C9B20CF08DF8524BDB78DBB20A2B0BD1514B1A780132D2B21A704E4B13443021D97201200CF07CF8494BDB78DBB2512B13D1494BF8
:400CC0001B7883B1494A12786AB90133DAB2454B1A70434B13442C21D97201200CF066F80122424B1A703D4BDB78DBB20B2B1BD13C4B1A783AB9012005210CF01FF80422CB
:400D0000394B1A7010E0012020210CF04FF8354B1B78334A1A44D27A2C2A02D10021334A1170013B2F4A13702C4BDB78DBB20C2B29D12C4B1B786BB12E4B1B7853B901206F
:400D400007210BF0FBFF274B1A78254BDA720622254B1A70234B1B78ABB1264B1B78012B11D1012070210BF0E9FF1D4B1B7B22490B7040F296400CF085FF00221D4B1A70F0
:400D80000E22194B1A70642010F034FF10F0D4FA38BD10F0A7FA082830D1104B1B78DBB2AA2B15D10D4B9B79DBB2C32B10D10B4BDB79DBB23C2B0BD1084BDB78DBB27E2B75
:400DC00006D101202E210BF0B9FF0022064B1A70642010F00FFF10F0AFFA38BD788CFF1F7888FF1FF185FF1F2F83FF1F3283FF1FD585FF1F7088FF1F048BFF1F994B1878A6
:400E000007F0F6FE072843F0BC83322010F0F2FE944B187807F000FF0146934B1870934BDB7813F003030DD08E4A1078904A0BF0E1FB38B901202E210BF080FF00228D4BD5
:400E40001A7038BD874C207807F0E6FE864B1870207840F0100010F011F9012008210BF06DFF0723834A1370834A13700122834B1A7038BD322010F0BDFE7A4B187807F02E
:400E8000B7FE0638052803F27C83DFE810F070007A1B7A1B7C003B000600642010F0AAFE704B187807F02CFF01280ED1744B1B785BB939210BF042FF0022704B1A701420C8
:400EC00010F098FE0D226B4B1A70664B187807F017FF012843F05583694B1B78012B43F050830C210BF02AFF0024644B1C704FF4FA7010F07FFE01202E210BF01FFF5D4BE7
:400F00001C7038BD642010F075FE564B187807F0F7FE01280ED15A4B1B785BB939210BF00DFF0022554B1A70142010F063FE0D22504B1A704B4B187807F0E2FE012843F0D9
:400F400020834F4B1B78012B43F01B830C210BF0F5FE0024494B1C704FF4FA7010F04AFE01202E210BF0EAFE424B1C7038BD01202E210BF0E3FE0023404A13703B4AD370AB
:400F80003C4A137038BD322010F034FE01202E210BF0D4FE0022374B1A7038BD10F0A2F9082843F0EE82374B1B78DBB2AA2B40F0BF80344B9B79DBB2C32B40F0B980314B08
:400FC000DB79DBB23C2B40F0B3802F4B1B78062B7CD82C4AD278D2B2092A10D80133DAB2294B1A702748C178204B1344303183F86510C17830310120C9B20BF0D7FE214B6A
:40100000DB78DBB20A2B0CD11F4B1A780132D2B21A70164B1344302183F8651001200BF0C5FE184BDB78DBB26A2B0CD1164B1A780132D2B21A700D4B13442D2183F86510D3
:4010400001200BF0B3FE0F4BDB78DBB21A2B3DD90C4BDB78DBB2422B38D800220B4B1A6030E000BF048AFF1F7788FF1F7888FF1F8388FF1F2F83FF1FEF85FF1F508AFF1F2F
:40108000D385FF1F788CFF1FF185FF1F2C84FF1FA94AD278D2B2A9491944097A8A420DD1A7490A780132D2B20A704133D9B2A54B134483F8651001200BF078FEA24A136827
:4010C00001331360A04B1B68192BE1D99A4BDB78DBB20B2B15D19A4B1A7852B901202E210BF02CFE0023974A82F86530974A137007E0012020210BF059FE914A1378013B31
:4011000013708D4BDB78DBB20C2B11D18C4B1B7873B1012005210BF011FE8A4B884A127883F86520012283F883200422874B1A70642010F05FFD10F0FFF838BD10F0D2F8F2
:40114000082843F01E827C4B1B78DBB2AA2B32D1794B9B79DBB2C32B2DD1774BDB79DBB23C2B28D1744BDB78DBB2392B04D07E2B1AD0382B1FD10CE001200A210BF0DEFD8E
:4011800000236F4A1370724A137009226F4B1A7011E0012005210BF0D1FD01226C4B1A7004226A4B1A7006E001202E210BF0C6FD0022664B1A70642010F01CFD10F0BCF896
:4011C00038BD012001460CF013FF052840D90A2010F010FD012021210CF00AFF052837D901200CF0FBFD012832D1332010F0C2F8012033210CF056FE50B30022554B1A6010
:401200000AE001200CF0B8FE4E4B1C4484F82900504A1368013313604E4B1C68072CF0D9012013210BF08AFD464CE37843F00403E3704FF4FA7010F0DDFC01200E210BF05C
:401240007DFD00233E4A137023710C223F4B1A7010F048F8082843F09481374B1B78DBB2AA2B15D1344B9B79DBB2C32B10D1324BDB79DBB23C2B0BD12F4BDB78DBB23B2B8B
:4012800006D1012049210BF059FD02222F4B1A70642010F0AFFC10F04FF838BD10F022F8082843F06E81244B1B78DBB2AA2B72D1214B9B79DBB2C32B6DD11F4BDB79DBB251
:4012C0003C2B68D11E4B1B78052B25D81A4AD278D2B2092A0FD80133DAB2194B1A701648C178184B134430311971C17830310120C9B20BF05BFD104BDB78DBB20A2B0BD11A
:401300000F4B1A780132D2B21A700E4B13443021197101200BF04AFD074BDB78DBB20B2B22D1074B1A78BAB9012005210BF006FD0422064B1A7017E0788CFF1F0C81FF1FD6
:40134000F185FF1F7888FF1F2C84FF1F2F83FF1FD385FF1FF485FF1F012020210BF026FDAA4A1378013B1370A94BDB78DBB20C2B11D1A64B1B7873B1A64B5B79302B0AD0C3
:40138000012005210BF0DAFCA04B1A78A14B1A710422A14B1A70642010F02CFC0FF0CCFF38BD9E4B58789E4B197800229D4B1B780DF062FD9C4B5B788BB901200C210BF0A7
:4013C000BDFC4FF4FA7010F015FC0024914BDC7001202E210BF0B2FC8F4B1C7038BD012031210BF0ABFC0022884B1A7021228A4B1A7038BD0FF076FF082843F0C280844BA3
:401400001B78DBB2AA2B40F0D680814B9B79DBB2C32B40F0D0807E4BDB79DBB23C2B40F0CA807B4BDB78DBB2652B00F088800AD85A2B54D002D8582B16D0BCE05B2B68D075
:401440005D2B28D0B7E0932B00F0818006D8702B00F09A807E2B00F09F80ACE0942B00F0A380962B60D0A6E00022684B1A7001203E210BF063FC0CF045FB012801D10BF02B
:4014800015FD0CF06FFB012801D10BF06DFD1022614B1A708FE001205C210BF04FFC01200021D62240F2AD130BF044FE01200021892240F2A7130BF03DFE01200146242273
:4014C00040F2B3130BF036FE0120014678224FF47A730BF02FFE13224F4B1A706BE0012060210BF02BFC01200BF0A2FD01200BF0E1FE01200CF070F801200CF0F3F801209F
:401500000BF05EFF01200BF0E1FF1222424B1A7051E001202F210BF011FC00223B4B1A7011223D4B1A7046E001205F210BF006FC0022364B1A701B22374B1A703BE0012075
:401540004D210BF0FBFB1422334B1A7033E001206E210BF0F3FB012001460CF049FD05280ED90A2010F046FB01200CF0C3F9012021210CF03DFD052802D901200CF038F931
:401580002322254B1A7016E0012089210BF0D6FB2922214B1A700EE001202E210BF0CEFB00221D4B1A7006E001202E210BF0C6FB0022194B1A70642010F01CFB0FF0BCFE72
:4015C00038BD0FF08FFE082842F0DB87104B1B78DBB2AA2B42F0D5870D4B9B79DBB2C32B42F0CF870A4BDB79DBB23C2B42F0C987074BDB78DBB27E2B18D1012031210BF008
:401600009DFB0022044B1A701CE000BFF185FF1F788CFF1F7888FF1F2F83FF1F7488FF1F7788FF1F048AFF1F2C83FF1FA34BDB78DBB2942B06D1012063210BF07FFB012267
:401640009F4B1A709F4B1A78072A26D89B4BDB78DBB2092B0ED8994BD9789B4B1344303183F88E1001202A210BF0A0FB954A137801331370914BDB78DBB20A2B0DD1914CB0
:401680002278914B1344302183F88E1001202A210BF08CFB237801332370884BDB78DBB20B2B1AD1874B1B787BB9012039210BF045FB4FF4FA7010F09DFA01202E210BF0D1
:4016C0003DFB00227E4B1A7007E0013BDAB27D4B1A70012020210BF069FB784BDB78DBB20C2B7DD1774B1A78002A79D0002377490B6077490B6015E0581C7649014491F81D
:40170000D710714C234493F88E30303B994204D16E490B6801330B6002E000216B4B19606B4B186010466A4B1B689A42E4D8694B93F8D720654B1B689A420FD1012026215E
:401740000BF0FCFA4FF4FA7010F054FA012070210BF0F4FA0E225A4B1A7041E000235B4A13605B4A136010E05B4A1A4492F82410554A1A4492F88E20914203D153490A6874
:4017800001320A600133524A1360514B1B689842EAD84E4B1B68082B13D1012026210BF0CDFA4FF4FA7010F025FA01205D210BF0C5FA012070210BF0C1FA0E22404B1A705F
:4017C0000EE0012027210BF0B9FA4FF4FA7010F011FA01202E210BF0B1FA0022384B1A70642010F007FA0FF0A7FD38BD0FF07AFD082842F0C686314B1B78DBB2AA2B40F005
:40180000BE802E4B9B79DBB2C32B40F0B8802B4BDB79DBB23C2B40F0B280284BDB78DBB2942B06D1012070210BF088FA0E22244B1A70244B1A78072A27D8204BDB78DBB21D
:40184000092B10D81D48C1781F4B1344303183F88E10C17830310120C9B20BF0A7FA194A137801331370154BDB78DBB20A2B0CD1144C2278144B1344302183F88E1001206F
:401880000BF094FA2378013323700C4BDB78DBB20B2B2BD10B4B1B7803BB012055210BF04DFA4FF4FA7010F0A5F901202E210BF045FA0022024B1A7018E000BF788CFF1F8D
:4018C0002F83FF1FF185FF1F7888FF1F3887FF1F2C84FF1F1889FF1F0C81FF1F013BDAB2AC4B1A70012020210BF060FAAA4BDB78DBB20C2B43D1A74B1B78052B3FD9012043
:4019000039210BF01BFAA34B1978A44B83F8D7100022A34B1A600BE0581CA24A134493F88E209E4B0344303A83F8D7209C4B18609B4B1B689942EFD860209B490CF0A2F997
:4019400070B9012055210BF0F9F94FF4FA7010F051F901202E210BF0F1F90022934B1A70012026210BF0EAF94FF4FA7010F042F901202E210BF0E2F900228C4B1A70642069
:4019800010F038F90FF0D8FC38BD0FF0ABFC082842F0F785804B1B78DBB2AA2B4AD17E4B9B79DBB2C32B45D17B4BDB79DBB23C2B40D1794BDB78DBB23F2B08D002D83E2B19
:4019C0001CD037E07E2B26D0942B2CD032E0012040210BF0B3F900236E4A1370744A13700120612106220BF0E1F901206D2107220BF0DCF915226D4B1A701BE001203F2173
:401A00000BF09CF90023634A1370694A13701622664B1A700EE001202E210BF08FF90022624B1A7006E0012070210BF087F90E225E4B1A70642010F0DDF80FF07DFC38BDA4
:401A40000FF050FC082842F09C85534B1B78DBB2AA2B40F09980504B9B79DBB2C32B40F093804D4BDB79DBB23C2B40F08D804A4BDB78DBB27E2B78D00AD8772B42D002D85C
:401A8000762B10D080E0782B4CD07A2B58D07BE0832B27D002D8822B14D075E0942B6CD0952B5AD070E0012030210BF047F90023404A1370374A13703F4A137018223B4B17
:401AC0001A7061E0012079210BF038F90222394B1A7000232F4A1370374A13701822334B1A7051E001207A210BF028F90322314B1A700023274A13702F4A137018222B4BA6
:401B00001A7041E0012078210BF018F90122294B1A7000231F4A1370274A13701822234B1A7031E0012065210BF008F90122214B1A700022174B1A7017221C4B1A7023E0D6
:401B4000012032210BF0FAF800231A4A1370114A13701722154B1A7016E0012066210BF0EDF82022114B1A700EE001202E210BF0E5F800220D4B1A7006E0012070210BF086
:401B8000DDF80E22094B1A70642010F033F80FF0D3FB38BDF185FF1F788CFF1F1889FF1F2C84FF1F7888FF1FEF89FF1F2F83FF1F3283FF1F3C86FF1F6A8AFF1F0FF092FBB9
:401BC000082842F0DE84B24B1B78DBB2AA2B79D1AF4B9B79DBB2C32B74D1AD4BDB79DBB23C2B6FD1AA4BDB78DBB2802B1FD004D87E2B58D07F2B06D064E0822B3FD02AD3FE
:401C0000942B58D05EE0012006210BF097F80022A04B1A70A04B1978A04B83F8A310012024210BF0C3F81A229D4B1A704AE0012006210BF083F80022964B1A70994B1978CD
:401C4000964B83F8A310012024210BF0AFF81A22934B1A7036E0012006210BF06FF800228C4B1A70904B19788C4B83F8A310012024210BF09BF81A22894B1A7022E0012044
:401C800006210BF05BF80022824B1A70874B1978824B83F8A310012024210BF087F81A227F4B1A700EE001202E210BF047F800227B4B1A7006E0012070210BF03FF80E2264
:401CC000774B1A7064200FF095FF0FF035FB38BD0FF008FB082842F054846D4B1B78DBB2AA2B40F08D816A4B9B79DBB2C32B40F08781674BDB79DBB23C2B40F08181644BDF
:401D0000DB78DBB2642B00F0048104D8622B09D0632B43D074E17E2B00F06381942B00F068816DE1012039210BF008F864200FF061FF5F4B187806F05BFF06281ED15D4B7C
:401D4000187806F055FF062808D101204A210AF0F5FF4FF4FA700FF04DFF51E1012055210AF0ECFF4FF4FA700FF044FF01202E210AF0E4FF00224A4B1A7041E1012055212C
:401D80000AF0DCFF4FF4FA700FF034FF01202E210AF0D4FF0022424B1A7031E1012037210AF0CCFF444B5B78012B45D10022434B1A600AE0424A1344012093F82C100BF02B
:401DC000E9FF3E4A1368013313603C4B1B68102BF0D901200A210BF0DDFF01200A210BF0D9FF01200A210BF0D5FF01200A210BF0D1FF0022314B1A600AE0314A13440220D9
:401E000093F82C100BF0C6FF2C4A1368013313602A4B1B68102BF0D902200A210BF0BAFF02200A210BF0B6FF02200A210BF0B2FF02200A210BF0AEFF1F4B5B78022B60D100
:401E400000221E4B1A600AE01D4A1344032093F82C100BF09FFF194A136801331360174B1B68102BF0D903200A210BF093FF03200A210BF08FFF03200A210BF08BFF03201C
:401E80000A210BF087FF00220C4B1A6025E000BF788CFF1FF185FF1F6B8AFF1F1889FF1F2F83FF1F7688FF1F538AFF1FF085FF1F048AFF1F3483FF1F6C88FF1F2C84FF1F5C
:401EC0000C81FF1FA64A1344042093F82C100BF061FFA44A136801331360A24B1B68102BF0D904200A210BF055FF04200A210BF051FF04200A210BF04DFF04200A210BF00E
:401F000049FF01206B210AF019FF2522964B1A7076E001200BF062FF012852D133200FF029FA012033210BF0BDFF002868D000228E4B1A600AE001200CF01EF88C4B1C44FF
:401F400084F82900894A136801331360874B1C68072CF0D90023874A1370844A13600CE0844C834A1344207893F829100CF07AFB20707E4A1368013313607C4B1B68062B1B
:401F8000EED97B4B93F830207A4B1B789A4208D101204B210AF0D2FE4FF47A700FF02AFE2EE0012055210AF0C9FE4FF4FA700FF021FE01202E210AF0C1FE00226A4B1A7046
:401FC0001EE0012055210AF0B9FE4FF4FA700FF011FE01202E210AF0B1FE0022624B1A700EE001202E210AF0A9FE00225E4B1A7006E0012070210AF0A1FE0E225A4B1A708A
:4020000064200FF0F7FD0FF097F938BD0FF06AF9082842F0B682584B1B78DBB2AA2B40F03181554B9B79DBB2C32B40F02B81524BDB79DBB23C2B40F02581504B1B78042B0C
:4020400000F2C580DFE813F005002E005400C3009E00494AD278D2B2012A0FD80133DAB2464B1A70444CE17830310120C9B20AF09DFEE3781B01424A82F8A1303E4BDB7884
:40208000DBB20A2B40F0A3803C4B1A780132D2B21A7000213A4B83F8A110012030210AF085FE94E0344AD278D2B2092A11D80133DAB2324B1A70304CE17830310120C9B27B
:4020C0000AF074FEE1782E4A92F8A1300B4382F8A130294BDB78DBB20A2B78D1274B1A780132D2B21A70012030210AF05FFE6EE0214AD278D2B2052A17D80133DAB21F4CFF
:40210000227001203A210AF051FE22780132D2B22270194CE17830310120C9B20AF046FEE3781B01164A82F8A030134BDB78DBB20A2B4CD1114C22780132D2B2227001205A
:402140003A210AF033FE22780132D2B22270012030210AF02BFE0022094B83F8A02036E00C81FF1F2C84FF1F2F83FF1FF485FF1F7888FF1FD785FF1F788CFF1FF185FF1F6C
:402180001889FF1FAD4AD278D2B2092A11D80133DAB2AB4B1A70A94CE17830310120C9B20AF004FEE178A74A92F8A0300B4382F8A030A24BDB78DBB20A2B08D1A04B1A7864
:4021C0000132D2B21A70012030210AF0EFFD9B4BDB78DBB2402B17D19B4B1B783BB90120994B1870702106220AF0E0FD07E00022954B1A700120612106220AF0D7FD012076
:402200006D2107220AF0D2FD8C4BDB78DBB20B2B12D18B4B1A783AB9012070210AF08EFD0E228A4B1A7007E0012020210AF0BEFD834A1378013B1370804BDB78DBB20C2B36
:4022400020D17F4B1B78052B1CD17F4B1B7843F002027C4991F8A13043EA421381F8A1300BF0B0FC01280DD139210AF067FD4FF4FA700FF0BFFC012070210AF05FFD0E226F
:40228000724B1A7064200FF0B5FC0FF055F838BD0FF028F8082842F07481684B1B78DBB2AA2B40F06581654B9B79DBB2C32B40F05F81624BDB79DBB23C2B40F05981604B35
:4022C0001A78072A00F22181DFE812F00800310058001F019100C2001F01FA00574BDB78DBB2032B0FD8554CE17830310120C9B20AF05CFD524A137801331370E3781B016A
:40230000504A82F89D304D4BDB78DBB20A2B40F0FC8000224B4B83F89D20494C0120302122780AF043FD237801332370EDE0434BDB78DBB2092B11D8404CE1783031012077
:40234000C9B20AF033FDE1783E4A92F89D300B4382F89D303A4A137801331370374BDB78DBB20A2B40F0D180354C0120302122780AF01CFD237801332370C6E02F4BDB7898
:40238000DBB2012B17D801202F210AF00FFD2C4C22780132D2B22270284DE97830310120C9B20AF003FDEB781B01264A82F89E30237801332370214BDB78DBB20A2B40F08C
:4023C000A4801F4C01202F2122780AF0EFFC22780132D2B22270012030210AF0E7FC0022184B83F89E202378013323708DE0134BDB78DBB2092B11D8104CE178303101200D
:40240000C9B20AF0D3FCE1780E4A92F89E300B4382F89E300A4A137801331370074BDB78DBB20A2B71D1064C0120302122780AF0BDFC23780133237067E000BF788CFF1FDF
:40244000F185FF1F1889FF1F3283FF1F2F83FF1FA64BDB78DBB2092B17D801202F210AF0A5FCA34C22780132D2B222709F4DE97830310120C9B20AF099FCEB781B019D4A55
:4024800082F89F30237801332370984BDB78DBB20A2B3AD1964C01202F2122780AF086FC22780132D2B22270012030210AF07EFC0022904B83F89F2023780133237024E09F
:4024C0008A4BDB78DBB2092B11D8884CE17830310120C9B20AF06AFCE178864A92F89F300B4382F89F30824A1378013313707F4BDB78DBB20A2B08D17D4C012030212278CC
:402500000AF054FC237801332370784BDB78DBB20B2B12D1764B1B783BB9012070210AF00DFC0E22744B1A7007E0013BDAB2704B1A70012020210AF039FC6C4BDB78DBB2A1
:402540000C2B15D16A4B1B78082B11D10BF068FB01280DD139210AF0F1FB4FF4FA700FF049FB012070210AF0E9FB0E22624B1A7064200FF03FFB0EF0DFFE38BD0EF0B2FE1A
:40258000082841F0FE87594B1B78DBB2AA2B40F00D81564B9B79DBB2C32B40F00781534BDB79DBB23C2B40F00181504BDB78DBB27E2B06D101202E210AF0C0FB00224E4B83
:4025C0001A704B4B1B780C2B61D8484AD278D2B2092A1ED80133DAB2454B1A70474B1B7813B1012B07D00DE0404BD978414B13443031997706E03D4BD9783E4B134430314C
:4026000083F82F10394BD97830310120C9B20BF0F5F9364BDB78DBB20A2B18D1344B1A780132D2B21A70354B1B7813B1012B05D009E0304B13443021997704E02D4B1344AD
:40264000302183F82F10012030210BF0D7F9274BDB78DBB2512B1AD1254B1B78BBB10133DAB2234B1A70254B1B7813B1012B05D009E0204B13442E21997704E01D4B1344BD
:402680002E2183F82F1001202E210BF0B7F9174BDB78DBB20B2B4ED1154B1A78002A42D10E22154B1A70012070210AF047FB2F200C210BF025FB0022114B1A6008E0114A56
:4026C000D15C0C4A1A4482F82F1001330C4A13600C4B1A780A4B1B689A42F0D220200F210BF00EFB0022064B1A6015E0788CFF1FF185FF1F1889FF1F2F83FF1F3C86FF1F69
:402700002C84FF1FF885FF1F9A4AD15C9A4A1A4491770133994A1360964B1A78974B1B689A42F1D207E0012020210BF067F9944A1378013B1370934BDB78DBB20C2B35D10D
:402740000E22914B1A70012070210AF0F7FA8F4B1B7813B1012B11D028E0894B1B78864901F81E3F20200BF08DFAF8B9012055210AF0E4FA6422844B1A7017E0804B1B783E
:402780007D4901F82F3F2F200BF07CFA70B9012055210AF0D3FA4FF4FA700FF02BFA01202E210AF0CBFA0022774B1A7064200FF021FA0EF0C1FD38BD0EF094FD082841F0F8
:4027C000E086704B1B78DBB2AA2B40F0CC836D4B9B79DBB2C32B40F0C6836A4BDB79DBB23C2B40F0C083664B1B78172B00F25A82644AD278D2B2092A61D80133DAB2604B6D
:402800001A70624B1B78042B52D8DFE803F0031427394B005E4B1978012904D1594BDB7830335C488354002942D1564BDB78303351498B543CE0564B1978012904D1514BF6
:40284000DB78303354488354002931D14D4BD978494B1344303183F8431029E04C4B1978012904D1474BDB7830334C488354F9B9444BD978404B1344303183F8611017E066
:40288000434B1978012904D13E4BDB7830334448835469B93B4BD978374B1344303183F87F1005E0374BD9783E4B13443031D972344BD97830310120C9B20BF09FF8314BFC
:4028C000DB78DBB20A2B2BD12D4B1A780132D2B21A702E4B1B78042B1ED8DFE803F003070D1319003021244B995415E0224B1344302183F843100FE01F4B1344302183F84D
:40290000611009E01C4B1344302183F87F1003E0244B13443021D972012030210BF06EF8184BDB78DBB2672B46D1154B1A780132D2B21A70154B1B78042B39D8DFE803F000
:4029400003070D13340023210B4B995430E00A4B1344232183F843102AE0074B1344232183F8611024E0044B1344232183F87F101EE000BFF885FF1F1889FF1F2C84FF1FE4
:40298000F185FF1F788CFF1F2F83FF1F3C86FF1F6A8AFF1FC885FF1F2084FF1F088BFF1FD885FF1F7888FF1F984B13442321D972012023210BF022F8954BDB78DBB26A2B90
:4029C0002BD1944B1A780132D2B21A70924B1B78042B1ED8DFE803F003070D1319002D218E4B995415E08D4B13442D2183F843100FE08A4B13442D2183F8611009E0874B33
:402A000013442D2183F87F1003E0804B13442D21D97201202D210AF0F1FF7D4BDB78DBB2662B2BD17B4B1A780132D2B21A707A4B1B78042B1ED8DFE803F003070D131900A8
:402A40004021764B995415E0744B1344402183F843100FE0714B1344402183F8611009E06E4B1344402183F87F1003E0674B13444021D972012040210AF0C0FF644BDB7885
:402A8000DBB2692B2BD1634B1A780132D2B21A70614B1B78042B1ED8DFE803F003070D1319002E215D4B995415E05C4B13442E2183F843100FE0594B13442E2183F86110FE
:402AC00009E0564B13442E2183F87F1003E04F4B13442E21D97201202E210AF08FFF4C4BDB78DBB2682B4BD14A4B1A780132D2B21A70494B1B78042B3ED8DFE803F0030F70
:402B00001D2B3900464B1B78012B02D12020454988548BBB2021414B99542DE0404B1B78012B02D12020404988542BBB3B4B1344202183F843101FE0394B1B78012B02D191
:402B400020203A498854BBB9344B1344202183F8611011E0324B1B78012B02D12020344988544BB92D4B1344202183F87F1003E0264B13442021D972012020210AF03EFFB8
:402B8000234BDB78DBB21A2B40F28C80204BDB78DBB2422B00F286800022264B1A607CE01B4AD278D2B224491944097A8A4270D118490A780132D2B20A701749097804297C
:402BC00061D8DFE801F003123B4B5B0014490878012803D103F14101124CA154002852D103F141010D4881544DE00D490878012803D103F141010C4CA154002843D10749D1
:402C0000114403F1410081F843003CE07888FF1F788CFF1FF185FF1F3C86FF1F1889FF1F6A8AFF1FC885FF1F2084FF1F088BFF1FD885FF1F2C84FF1F0C81FF1FA34908786F
:402C4000012803D103F14101A14CA154D8B9A149114403F1410081F8610014E09B490878012803D103F141019B4CA15458B99949114403F1410081F87F0004E0974911446B
:402C800003F14100C87203F141010120C9B20AF0B5FE934A136801331360914B1B68192B7FF67EAF8F4BDB78DBB20B2B6DD18E4B1A78002A61D1012070210AF03FF84020AA
:402CC00020210BF01DF80022854B1A6008E0874AD15C804A1A4482F843100133804A1360824B1A787E4B1B689A42F0D2802020210BF006F800227A4B1A6008E07B4AD15C6D
:402D0000744A1A4482F861100133754A1360774B1A78734B1B689A42F0D2A02020210AF0EFFF00226E4B1A6008E0704AD15C694A1A4482F87F100133694A13606B4B1A782A
:402D4000674B1B689A42F0D2002020210AF0D8FF0022634B1A6006E0644AD15C5D4AD15401335F4A1360614B1A785D4B1B689A42F2D20E225E4B1A7007E0012020210AF078
:402D80003DFE594A1378013B1370564BDB78DBB20C2B40F0E8800120392109F0CFFF4FF4FA700EF027FF0120702109F0C7FF0E224F4B1A704F4B1B78042B00F2D480DFE85A
:402DC00003F0032E5A9FC700404B1B78012B07D14949454B1B780B7040F26A400AF052FF3A4B1B78002B40F0BE803A493E4B1B780B7000200AF046FF002840F0B48001209F
:402E0000552109F09BFF4FF4FA700EF0F3FE01202E2109F093FF0022354B1A70A3E02B4B1B78012B07D135492F4B1B780B7040F275400AF027FF254B1B78002B40F09380B8
:402E4000294B1B78234901F8433F40200AF01AFF002840F088800120552109F06FFF4FF4FA700EF0C7FE01202E2109F067FF00221F4B1A7077E0154B1B78012B07D1144993
:402E8000194B1B780B704FF490600AF0FBFE0F4B1B78002B67D1144B1B780E4901F8613F80200AF0EFFE00285DD10120552109F045FF4FF4FA700EF09DFE01202E2109F0E8
:402EC0003DFF00220A4B1A704DE000BF6A8AFF1F088BFF1F1889FF1FD885FF1F7888FF1F2C84FF1F788CFF1FF185FF1FF885FF1F2F83FF1F3C86FF1FC885FF1F2084FF1F92
:402F0000B34B1B78012B07D1B249B34B1B780B7040F28B400AF0B6FEAD4B1B781BBBAE4B1B78AE4901F87F3FA0200AF0ABFED0B90120552109F002FF4FF4FA700EF05AFE2F
:402F400001202E2109F0FAFE0022A54B1A700AE0A14B1A78A34BDA720120392109F0EEFE24229F4B1A7064200EF044FE0EF0E4F938BD0EF0B7F9082841F003839A4B1B78F7
:402F8000DBB2AA2B40F0C080974B9B79DBB2C32B40F0BA80944BDB79DBB23C2B40F0B4808D4B1B78062B25D88F4AD278D2B2092A0FD80133DAB2884B1A708B48C178894B82
:402FC00013443031D972C17830310120C9B209F0EDFE854BDB78DBB20A2B0BD17E4B1A780132D2B21A707F4B13443021D972012009F0DCFE7C4BDB78DBB20B2B1BD1764B1C
:403000001A783AB90120702109F098FE0E22744B1A7010E00120202109F0C8FE6E4B1B78704A1A44D27A2C2A02D100216F4A1170013B694A13706C4BDB78DBB20C2B63D198
:40304000654B1B78032B5FD90622654B1A700120392109F073FE604B1A78624BDA72644B187809F009FD00283FD05C4B93F8A320604B1B789A4204D140F2A7105E490AF047
:4030800001FE564B93F8A3205C4B1B789A4204D140F2B31058490AF0F5FD504B93F8A320574B1B789A4204D140F2AD1052490AF0E9FD4A4B93F8A320524B1B789A4204D1B8
:4030C0004FF47A704C490AF0DDFD01203C2109F035FE4FF4FA700EF08DFD0120702109F02DFE0E223E4B1A700EE00120552109F025FE4FF4FA700EF07DFD01202E2109F013
:403100001DFE0022364B1A7064200EF073FD0EF013F938BD0EF0E6F8082841F03282324B1B78DBB2AA2B40F086802F4B9B79DBB2C32B40F080802C4BDB79DBB23C2B7AD17A
:40314000294BDB78DBB2802B2FD004D87E2B63D07F2B06D06FE0822B56D031D3942B63D069E00120582109F0E9FD01200021732240F2C3130AF040F801200021CF2240F2C9
:40318000C5130AF039F801200146292240F2C1130AF032F8012001467B2240F2EE330AF02BF81C220E4B1A7045E00120062109F0C5FD0022084B1A701D22094B1A703AE03B
:4031C00001206D2109F0BAFD1E22054B1A7032E06A8AFF1FD885FF1FF185FF1F1889FF1F2F83FF1F7888FF1F788CFF1F3283FF1F048AFF1F6B8AFF1F8388FF1F538AFF1F9E
:403200007688FF1FF085FF1F01208A2109F096FD2A22AB4B1A700EE001202E2109F08EFD0022A74B1A7006E00120702109F086FD0E22A34B1A7064200EF0DCFC0EF07CF8B3
:4032400038BD0EF04FF8082841F09B819D4B1B78DBB2AA2B65D19B4B9B79DBB2C32B60D1984BDB79DBB23C2B5BD1964BDB78DBB2802B1AD004D87E2B44D07F2B06D050E0E8
:40328000822B30D020D3942B44D04AE00120062109F054FD00228C4B1A7001228B4B83F8A3201F22864B1A703BE00120062109F045FD0022844B1A700222844B83F8A3203F
:4032C0001F227F4B1A702CE00120062109F036FD00227D4B1A7003227C4B83F8A3201F22774B1A701DE00120062109F027FD0022754B1A700422754B83F8A3201F22704BA0
:403300001A700EE001202E2109F018FD00226C4B1A7006E00120702109F010FD0E22684B1A7064200EF066FC0EF006F838BD0DF0D9FF082841F02581624B1B78DBB2AA2BD6
:4033400040F0B8805F4B9B79DBB2C32B40F0B2805C4BDB79DBB23C2B40F0AC80594BDB78DBB2942B06D10120702109F0E7FC0E22534B1A70544B1B78042B36D8514AD278AB
:40338000D2B2092A0FD80133DAB24F4B1A704D48C1784F4B13443031D972C17830310120C9B209F003FD474BDB78DBB20A2B0BD1454B1A780132D2B21A70454B13443021D3
:4033C000D972012009F0F2FC3E4BDB78DBB2512B0BD13D4B1A780132D2B21A703C4B13442C21D972012009F0E1FC364BDB78DBB20B2B1BD1344B1A783AB90120702109F0BF
:403400009DFC0E222E4B1A7010E00120202109F0CDFC2D4B1B782E4A1A44D27A2C2A02D100212C4A1170013B274A1370254BDB78DBB20C2B3ED1244B1B78052B3AD1244BCC
:403440001B7B353BDBB2022B34D80120392109F075FC1D4B1B781E4901F80B3F4FF4DD700AF010FC012805D1194B1B7B03F00F03194A137040F25A2018490AF003FC01284D
:4034800018D1134A937B03F00F0315490B70137C03F00F03134A13703C2109F04FFC4FF4FA700EF0A7FB0120702109F047FC0E22034B1A7064200EF09DFB0DF03DFF38BD3A
:4034C0002F83FF1F788CFF1FF185FF1F1889FF1F7888FF1F3283FF1FD585FF1F8388FF1F1C84FF1F528AFF1F0DF0FCFE082841F04880A74B1B78DBB2AA2B40F08780A44B10
:403500009B79DBB2C32B40F08180A14BDB79DBB23C2B7BD19E4BDB78DBB28F2B08D002D87E2B64D072E0902B31D0942B67D06DE09849002381F82D3081F82E304FF4DE70A6
:403540002D310AF09FFB012811D10022924B1A703C2109F0F3FB4FF4FA700EF04BFB0120702109F0EBFB0E228C4B1A704EE00120552109F0E3FB4FF4FA700EF03BFB0120D0
:403580002E2109F0DBFB0022844B1A703EE08149012381F82D3081F82E304FF4DE702D310AF070FB012812D101247B4B1C7020463C2109F0C3FB4FF4FA700EF01BFB0E2277
:4035C000764B1A702046702109F0B8FB1EE00120552109F0B3FB4FF4FA700EF00BFB01202E2109F0ABFB00226C4B1A700EE001202E2109F0A3FB0022684B1A7006E0012023
:40360000702109F09BFB0E22644B1A7064200EF0F1FA0DF091FE38BD0DF064FE082840F0B0875B4B1B78DBB2AA2B40F0AA80584B9B79DBB2C32B40F0A480554BDB79DBB221
:403640003C2B40F09E80564B1B782BBB504AD278D2B2092A0FD80133DAB2514B1A704C48C178504B13443031D972C17830310120C9B209F09BFB464BDB78DBB20A2B0BD161
:40368000474B1A780132D2B21A70464B13443021D972012009F08AFB3D4BDB78DBB20B2B1BD13F4B1A783AB90120002109F046FB00223A4B1A7010E00120202109F076FB80
:4036C000374B1B78374A1A44D27A2C2A02D10021354A1170013B324A13702D4BDB78DBB20C2B4ED12E4B1B78012B4AD10120392109F024FB2A4B1A782A4BDA72254B93F8AE
:40370000A330012B08D127490A7B284B1A7040F2C1100B310AF0B6FA1E4B93F8A330022B08D120490A7B224B1A7040F2C3100B310AF0A8FA174B93F8A330032B08D119491E
:403740000A7B1C4B1A7040F2C5100B310AF09AFA104B93F8A330042B08D112490A7B164B1A7040F2EE300B310AF08CFA4FF4FA700EF040FA0120702109F0E0FA0E22074B7E
:403780001A7064200EF036FA0DF0D6FD38BD00BF788CFF1F1889FF1F3587FF1F2F83FF1FF185FF1F7888FF1F3283FF1F538AFF1F6B8AFF1F7688FF1FF085FF1F0DF092FDF0
:4037C000082840F0DE86CD4B1B78DBB2AA2B40F00082CA4B9B79DBB2C32B40F0FA81C74BDB79DBB23C2B40F0F481C44BDB787E3B252B00F2EE81DFE813F0D401EC01EC01B3
:40380000EC01EC01EC01A10187014000FD007600260091006701EC01EC01EC01EC01EC01EC01EC01EC01BB01EC01EC01C7003101AC00EC01EC01EC01EC01EC01EC0116017D
:403840005B00E2004C01AE4901230B704B7040F2C7100AF017FA012840F0BB813C2109F06DFA4FF4FA700EF0C5F90120702109F065FA0E22A34B1A70ABE1A14901230B70D7
:4038800002234B7040F2C7100AF0FCF9012840F0A0813C2109F052FA4FF4FA700EF0AAF90120702109F04AFA0E22964B1A7090E1934901230B7003234B7040F2C7100AF06C
:4038C000E1F9012840F085813C2109F037FA4FF4FA700EF08FF90120702109F02FFA0E22884B1A7075E1864901230B7004234B7040F2C7100AF0C6F9012840F06A813C216B
:4039000009F01CFA4FF4FA700EF074F90120702109F014FA0E227B4B1A705AE1784901230B7005234B7040F2C7100AF0ABF9012840F04F813C2109F001FA4FF4FA700EF0DD
:4039400059F90120702109F0F9F90E226D4B1A703FE16B4901230B7006234B7040F2C7100AF090F9012840F034813C2109F0E6F94FF4FA700EF03EF90120702109F0DEF95C
:403980000E22604B1A7024E15D4901230B7007234B7040F2C7100AF075F9012840F019813C2109F0CBF94FF4FA700EF023F90120702109F0C3F90E22524B1A7009E15049ED
:4039C00001230B7008234B7040F2C7100AF05AF9012840F0FE803C2109F0B0F94FF4FA700EF008F90120702109F0A8F90E22454B1A70EEE0424901240C7009234B7040F2C1
:403A0000C7100AF03FF920463C2109F097F94FF4FA700EF0EFF82046702109F08FF90E22384B1A70D5E0364901230B700A234B7040F2C7100AF026F9012840F0CA803C210D
:403A400009F07CF94FF4FA700EF0D4F80120702109F074F90E222B4B1A70BAE0284901230B700B234B7040F2C7100AF00BF9012840F0AF803C2109F061F94FF4FA700EF09C
:403A8000B9F80120702109F059F90E221D4B1A709FE01B4901230B700C234B7040F2C7100AF0F0F8012840F094803C2109F046F94FF4FA700EF09EF80120702109F03EF9BA
:403AC0000E22104B1A7084E00D4901230B700D234B7040F2C7100AF0D5F8012879D13C2109F02CF94FF4FA700EF084F80120702109F024F90E22034B1A706AE0788CFF1F4C
:403B0000E885FF1F2F83FF1FBD4901230B700E234B7040F2C7100AF0B5F8012859D13C2109F00CF94FF4FA700EF064F80120702109F004F90E22B34B1A704AE0B04901238D
:403B40000B700F234B7040F2C7100AF09BF801283FD13C2109F0F2F84FF4FA700EF04AF80120702109F0EAF80E22A64B1A7030E0A34900230B704B7040F2C7100AF082F8D7
:403B8000012826D13C2109F0D9F84FF4FA700EF031F80120702109F0D1F80E22994B1A7017E0974900230B704B7040F2C7100AF069F8012806D1702109F0C0F80E22914BF6
:403BC0001A7006E001202E2109F0B8F800228D4B1A7064200EF00EF80DF0AEFB38BD0DF081FB082840F0CD84874B1B78DBB2AA2B4ED1854B9B79DBB2C32B49D1824BDB79EB
:403C0000DBB23C2B44D1804BDB78DBB20A2B2ED101227E4B1A6010E07D4B58787D4B197801227D4B1B780BF027F94FF4FA700DF0E1FF764A136801331360784B1B7803F007
:403C40000F03724A12689342E6D201200C2109F075F84FF4FA700DF0CDFF0024704BDC7001202E2109F06AF8664B1C7010E001200C2109F063F84FF4FA700DF0BBFF0024F8
:403C8000674BDC7001202E2109F058F85D4B1C7064200DF0AFFF0DF04FFB38BD0DF022FB082840F06E84584B1B78DBB2AA2B5DD1554B9B79DBB2C32B58D1534BDB79DBB2A5
:403CC0003C2B53D1504BDB78DBB2392B10D002D8382B05D04AE07E2B41D0942B34D045E001202E2109F02AF80022464B1A703DE001203B2109F022F8454C60780CF018FBAF
:403D000060780A210AF046F860780A210AF042F860780A210AF03EF860781D210AF03AF8607856210AF036F8607831210AF032F84FF4FA700DF05EFF01202E2108F0FEFF6B
:403D40000022304B1A7011E001202F2108F0F6FF0022344B1A7027222A4B1A7006E001202E2108F0EBFF0022264B1A7064200DF041FF0DF0E1FA38BD0DF0B4FA082840F06C
:403D80000084214B1B78DBB2AA2B60D11E4B9B79DBB2C32B5BD11C4BDB79DBB23C2B56D1194BDB78DBB2912B08D002D87E2B3FD04DE0922B13D0942B42D048E001200A2177
:403DC00008F0BCFF0122184B1A700422174B1A700022144B1A7018220A4B1A7037E001206F2108F0ABFF21220F4B1A7004220F4B1A7000220B4B1A701822024B1A7026E016
:403E0000E885FF1F2F83FF1F788CFF1FF485FF1F7488FF1F7788FF1F048AFF1F048BFF1F7888FF1FF185FF1F2887FF1F3C86FF1F01202E2108F082FF0022B94B1A7006E000
:403E40000120702108F07AFF0E22B54B1A7064200DF0D0FE0DF070FA38BDB24B012013F80B1FB14A12780AF077FA01282CD16E2108F064FF2322AA4B1A70012001460AF041
:403E8000B7F8052810D90A200DF0B4FE012009F031FD012021210AF0ABF8052840F27183012009F0A5FC38BD0120552108F046FF4FF4FA700DF09EFE01202E2108F03EFF5A
:403EC0000022974B1A7038BD0120552108F036FF4FF4FA700DF08EFE01202E2108F02EFF00228F4B1A7038BD0DF0FCF9082840F048838E4B1B78DBB2AA2B7AD18B4B9B7915
:403F0000DBB2C32B75D1894BDB79DBB23C2B70D1864BDB78DBB2392B08D002D8382B39D067E07E2B3ED0942B5CD062E0804B5A78012A07D17F4901230B704B707E490B7001
:403F400002234B70022A08D17A4B01221A7003215970794B1A7004225A7040F26320754909F090FE012844D140F26520724909F089FE01283DD1682108F0E0FE4FF4FA7052
:403F80000DF038FE0120702108F0D8FE0E22644B1A702EE02622624B1A700120672108F0CDFE26E0654B5B78012B03D10022634B5A7002E00122614B5A7040F2DA305F496A
:403FC00009F060FE01203C2108F0B8FE4FF4FA700DF010FE01202E2108F0B0FE0022504B1A7006E00120702108F0A8FE0E224C4B1A7064200DF0FEFD0DF09EF938BD0DF0A0
:4040000071F9082840F0BD82484B1B78DBB2AA2B40F0C980454B9B79DBB2C32B40F0C380424BDB79DBB23C2B40F0BD803F4BDB78DBB28D2B41D005D87E2B00F0A5808C2B1D
:4040400006D0B0E08E2B7BD0942B00F0A580AAE0374B5B78012B07D1364A0120107002215170354A10705170022B07D1314B0121197004225A70304B19705A7040F26320BB
:404080002C4909F0FFFD012840F08D8040F26520294909F0F7FD012840F085806A2108F04DFE4FF4FA700DF0A5FD0E221C4B1A700120702108F042FE75E01D4B5A78012ADD
:4040C00006D11C4901230B704B701B490B704B70022A07D1174B0121197003225A70164B19705A7040F26320124909F0CBFD012859D140F26520104909F0C4FD012852D1A2
:40410000692108F01BFE4FF4FA700DF073FD0120702108F013FE0E22014B1A7043E000BF2F83FF1F7888FF1F2887FF1F788CFF1F6C88FF1F7488FF1F1489FF1F2C83FF1F96
:40414000B3490120087000224A70B24B18705A7040F2632009F096FD012824D140F26520AC4909F08FFD01281DD16C2108F0E6FD4FF4FA700DF03EFD0120702108F0DEFD06
:404180000E22A54B1A700EE001202E2108F0D6FD0022A14B1A7006E00120702108F0CEFD0E229D4B1A7064200DF024FD0DF0C4F838BD0DF097F8082840F0E381974B1B7882
:4041C000DBB2AA2B40F0E380944B9B79DBB2C32B40F0DD80914BDB79DBB23C2B40F0D7808F4B1A78032A26D88C4BDB78DBB2092B0ED88A4BD9788B4B1344303183F88E10EF
:4042000001202A2108F0D2FD854A137801331370824BDB78DBB20A2B0DD1814C2278814B1344302183F88E1001202A2108F0BEFD237801332370794BDB78DBB20B2B1AD140
:40424000774B1B787BB90120552108F077FD4FF4FA700DF0CFFC01202E2108F06FFD00226D4B1A7007E0013BDAB26D4B1A700120202108F09BFD694BDB78DBB20C2B40F027
:404280008680674B1A78002A72D0002366490B6066490B6012E0591C6548405C614C234493F88E30984204D15F4803680133036002E000205C4B18605C4B196010465B4B4F
:4042C0001B689A42E7D85A4B1A78574B1B689A420FD10120262108F031FD4FF4FA700DF089FC22224C4B1A700120712108F026FD4DE000234C4A13604C4A136010E04C4AB0
:404300001A4492F82410474A1A4492F88E20914203D145490A6801320A600133434A1360424B1B689842EAD83F4B1B68042B0FD10120262108F002FD4FF4FA700DF05AFC9B
:404340002222354B1A700120712108F0F7FC1EE00120272108F0F2FC4FF4FA700DF04AFC01202E2108F0EAFC00222B4B1A700EE00120272108F0E2FC4FF42F700DF03AFC62
:4043800001202E2108F0DAFC0022234B1A7064200DF030FC0CF0D0FF38BD0CF0A3FF082840F0EF801D4B1B78DBB2AA2B74D11B4B9B79DBB2C32B6FD1184BDB79DBB23C2B49
:4043C0006AD1164BDB78DBB2BC2B08D002D87E2B5BD061E0BD2B2FD0BE2B46D05CE0154901240C704C704FF47D7009F04BFC2046392108F0A3FC4FF42F700DF0FBFB2046B4
:40440000702108F09BFC0E22034B1A7044E000BF7488FF1F1489FF1F2F83FF1F788CFF1FF185FF1F7888FF1F3887FF1F2C84FF1F0C81FF1F6C88FF1F524901240C7002232F
:404440004B704FF47D7009F01DFC2046392108F075FC4FF42F700DF0CDFB2046702108F06DFC0E22484B1A7016E00120062108F065FC0122454B1A700023454A1370454A32
:4044800013700522404B1A7006E00120702108F055FC0E223C4B1A7064200DF0ABFB0CF04BFF38BD0CF01EFF08286AD13A4B1B78DBB2AA2B60D1384B9B79DBB2C32B5BD14C
:4044C000354BDB79DBB23C2B56D1334BDB78763B0D2B51D8DFE803F007385050505050504950505017270120302108F027FC00232A4A1370264A13700122294B1A701822A5
:40450000214B1A7038E00120302108F017FC0123224A137000211E4A1170214A13701822194B1A7028E00120302108F007FC02221A4B1A700022164B1A700122184B1A7018
:404540001822114B1A7017E00120302108F0F6FB0322124B1A7000220D4B1A700122104B1A701822084B1A7006E001205F2108F0E5FB1B22044B1A7064200DF03BFB0CF072
:40458000DBFE38BD6C88FF1F2F83FF1F7088FF1FF185FF1F3283FF1F788CFF1F3C86FF1F6A8AFF1F10B5A34B1B78212B01F24883DFE813F022009C00F800460B5201CC0179
:4045C0006102D602460B6A0339047C04E904680591057406460B460B460B8907460B460B460B460B460B460B2F080009AD09460B460B250A460BEB0A8F4B1B78012B03D1B8
:404600008E4B1A788B4B1A708D4B1B78012B06D18C4B1A788C4B1A7001228C4B1A700CF061FE082841F00C83894B1B78DBB2AA2B56D1874B9B79DBB2C32B51D1844BDB7912
:40464000DBB23C2B4CD1824BDB78DBB2562B02D0572B1FD044E07A4B1B78012B04D1794B1A78794B1A7008E00120632108F066FB0123764A1370744A13706F4B1B78012B90
:4046800004D16E4B1A786B4B1A7029E00022694B1A7025E00120632108F050FB02226B4B1A70674B1B78012B04D1664B1A78664B1A7002E00022644B1A705F4B1B78012B76
:4046C00004D15E4B1A785B4B1A7009E00120632108F034FB02225D4B1A700122554B1A7064200DF087FA0CF027FE10BD0CF0FAFD082841F0A582564B1B78DBB2AA2B4BD105
:40470000534B9B79DBB2C32B46D1514BDB79DBB23C2B41D14E4BDB78DBB25C2B0AD004D8452B0FD0592B18D036E07E2B25D0942B2BD031E00120492108F000FB02223D4B25
:404740001A7029E00120252108F0F8FA0022414B1A700F22374B1A701EE001202B2108F0EDFA4FF42F700DF045FA01202E2108F0E5FA00222F4B1A700EE001202E2108F0B5
:40478000DDFA00222B4B1A7006E001202E2108F0D5FA0022274B1A7064200DF02BFA0CF0CBFD10BD0CF09EFD082841F04982284B1B78DBB2AA2B36D1254B9B79DBB2C32B5D
:4047C00031D1234BDB79DBB23C2B2CD1204BDB78DBB25F2B08D002D85E2B0DD023E07E2B12D0942B18D01EE001200B2108F0A6FA0A22104B1A7016E001201D2108F09EFA09
:404800000B220C4B1A700EE001202E2108F096FA0022084B1A7006E00120632108F08EFA0122044B1A7064200DF0E4F90CF084FD10BD00BFEC85FF1FC785FF1F3083FF1F4D
:40484000508AFF1FEF85FF1F2F83FF1F1089FF1F788CFF1FF185FF1F0CF044FD082841F0EF81A94B1B78DBB2AA2B69D1A64B9B79DBB2C32B64D1A44BDB79DBB23C2B5FD124
:40488000A24AD37823F00303D3709F4BDB78DBB23B2B3ED004D80F2B09D0102B1BD04FE07E2B3ED0942B44D0432B49D129E00120062108F043FA0022954B1A700120242159
:4048C00008F074FA934AD37843F00203D3700522914B1A7034E001200D2108F02FFA00228B4B1A708D4B1A700120472108F05EFA884AD37843F00103D3700522864B1A70C8
:404900001EE00120072108F019FA0622824B1A7016E001202E2108F011FA00227E4B1A700EE001202E2108F009FA00227A4B1A7006E001200B2108F001FA0A22764B1A7061
:4049400064200DF057F90CF0F7FC10BD0CF0CAFC082841F075816C4B1B78DBB2AA2B40F08480694B9B79DBB2C32B7ED1664BDB79DBB23C2B79D1664B1B78694A1278013A20
:4049800093423EDC604AD278D2B2092A0FD80133DAB25F4B1A705C48C1785E4B13443031D972C17830310120C9B208F0FFF9564BDB78DBB20A2B0BD1554B1A780132D2B258
:4049C0001A70544B13443021D972012008F0EEF94D4BDB78DBB2512B13D14D4B1B7883B14E4A12786AB90133DAB2494B1A70494B13442C21D972012008F0D8F90122474B1F
:404A00001A70414BDB78DBB20B2B1BD1404B1A783AB90120052108F091F904223E4B1A7010E00120202108F0C1F9394B1B78374A1A44D27A2C2A02D10021384A1170013B7D
:404A4000334A1370304BDB78DBB20C2B0DD1304B1B7853B10120072108F070F92C4B1A782C4BDA7206222C4B1A7064200DF0C2F80CF062FC10BD0CF035FC082820D1224BF8
:404A80001B78DBB2AA2B15D11F4B9B79DBB2C32B10D11D4BDB79DBB23C2B0BD11A4BDB78DBB27E2B06D101202E2108F047F90022194B1A7064200DF09DF80CF03DFC10BD20
:404AC000184B187804F094F8072841F0B98032200DF090F8134B187804F09EF80146124B18700C4BDB7813F0030321D00D4A10780E4A07F07FFDD8B901202E2108F01EF9D1
:404B00000022054B1A7010BD788CFF1F7888FF1FF185FF1F6C8AFF1FEC85FF1F3283FF1FD585FF1F3483FF1FC085FF1F778AFF1F9F4C207804F070F89E4B1870207840F07B
:404B400010000CF09BFA0120082108F0F7F80723994A1370994A13700122994B1A7010BD32200DF047F8924B187804F041F80638052801F26580DFE810F070006308630897
:404B80007C003B00060064200DF034F8884B187804F0B6F801280ED18A4B1B785BB9392108F0CCF80022864B1A7014200DF022F80D22814B1A707E4B187804F0A1F8012890
:404BC00041F03E807F4B1B78012B41F039800C2108F0B4F800247A4B1C704FF4FA700DF009F801202E2108F0A9F8734B1C7010BD64200CF0FFFF6E4B187804F081F80128E5
:404C00000ED1704B1B785BB9392108F097F800226B4B1A7014200CF0EDFF0D22664B1A70634B187804F06CF8012841F00980654B1B78012B41F004800C2108F07FF800240D
:404C40005F4B1C704FF4FA700CF0D4FF01202E2108F074F8584B1C7010BD01202E2108F06DF80023564A1370574AD370524A137010BD32200CF0BEFF01202E2108F05EF806
:404C800000224D4B1A7010BD0CF02CFB082840F0D7874E4B1B78DBB2AA2B40F0BE804B4B9B79DBB2C32B40F0B880484BDB79DBB23C2B40F0B280464B1B78062B65D8434A1D
:404CC000D278D2B2092A10D80133DAB2404B1A703E48C1783C4B1344303183F86510C17830310120C9B208F061F8384BDB78DBB20A2B0CD1364B1A780132D2B21A70324B3B
:404D00001344302183F86510012008F04FF82F4BDB78DBB26A2B0CD12D4B1A780132D2B21A70294B13442D2183F86510012008F03DF8264BDB78DBB21A2B26D9234BDB78B7
:404D4000DBB2422B21D80022224B1A6019E01F4AD278D2B220491944097A8A420DD11C490A780132D2B20A704133D9B2164B134483F86510012008F019F8164A136801331C
:404D80001360144B1B68192BE1D9104BDB78DBB20B2B2BD10E4B1A7802BB01202E2107F0CDFF0023084A82F86530034A13701DE03483FF1FC085FF1FEC85FF1F3083FF1F6F
:404DC000C785FF1F8083FF1F6C8AFF1F788CFF1FF185FF1F2C84FF1F0C81FF1F0120202107F0E4FFA14A1378013B1370A04BDB78DBB20C2B11D19D4B1B7873B101200521AA
:404E000007F09CFF9B4B994A127883F86520012283F883200422984B1A7064200CF0EAFE0CF08AFA10BD0CF05DFA082840F008878F4B1B78DBB2AA2B32D18D4B9B79DBB277
:404E4000C32B2DD18A4BDB79DBB23C2B28D1884BDB78DBB2392B04D07E2B1AD0382B1FD10CE001200A2107F069FF00237F4A1370824A13700922804B1A7011E00120052152
:404E800007F05CFF01227D4B1A7004227A4B1A7006E001202E2107F051FF0022764B1A7064200CF0A7FE0CF047FA10BD0320012109F09EF8052840D90A200CF09BFE032081
:404EC000212109F095F8052837D9032008F086FF012832D133200CF04DFA0120332108F0E1FF50B30022664B1A600AE0012009F043F8604B1C4484F82900614A1368013365
:404F000013605F4B1C68072CF0D90120132107F015FF584CE37843F00403E3704FF4FA700CF068FE01200E2107F008FF00234F4A137023710C22504B1A700CF0D3F908286D
:404F400040F07E864A4B1B78DBB2AA2B15D1484B9B79DBB2C32B10D1454BDB79DBB23C2B0BD1434BDB78DBB23B2B06D10120492107F0E4FE0222404B1A7064200CF03AFED6
:404F80000CF0DAF910BD0CF0ADF9082840F05886374B1B78DBB2AA2B62D1354B9B79DBB2C32B5DD1324BDB79DBB23C2B58D12F4B1B78052B25D82E4AD278D2B2092A0FD806
:404FC0000133DAB2294B1A702948C178294B134430311971C17830310120C9B207F0E6FE234BDB78DBB20A2B0BD1204B1A780132D2B21A701F4B134430211971012007F031
:40500000D5FE1B4BDB78DBB20B2B12D1174B1A783AB90120052107F091FE0422164B1A7007E00120202107F0C1FE104A1378013B13700F4BDB78DBB20C2B11D10B4B1B789A
:4050400073B10C4B5B79302B0AD00120052107F075FE064B1A78074B1A710422064B1A7064200CF0C7FD0CF067F910BDF185FF1F788CFF1F6C8AFF1FEC85FF1F8083FF1F53
:40508000F485FF1F974B5878974B19780022974B1B7809F0F1FE964B5B788BB901200C2107F04CFE4FF42F700CF0A4FD0024914BDC7001202E2107F041FE8F4B1C7010BD8A
:4050C0000120312107F03AFE00228C4B1A702122894B1A7010BD0CF005F9082840F0B085874B1B78DBB2AA2B40F0D280844B9B79DBB2C32B40F0CC80814BDB79DBB23C2B57
:4051000040F0C6807E4BDB78583B3E2B00F2C080DFE803F020BE5464BE30BEBEBEBEBEBEBE7FBEBEBEBEBEBEBEBEBEBE9FBEBEBEBEBEBEBEBEBEBEBEBEBEAFBEBEBEBEBEAA
:40514000BEBEBEBEBEBEBEBEBEBEBEBEBEBEBE8FB7BE740001202B2107F0F0FD4FF42F700CF048FD0120702107F0E8FD0E22624B1A708DE001205C2107F0E0FD012000210B
:40518000D62240F2AD1307F0D5FF01200021892240F2A71307F0CEFF01200146242240F2B31307F0C7FF0120014678224FF47A7307F0C0FF1322504B1A7069E001202B2142
:4051C00007F0BCFD4FF42F700CF014FD0120702107F0B4FD0E22484B1A7059E001202B2107F0ACFD4FF42F700CF004FD0120702107F0A4FD0E22404B1A7049E001205F21EB
:4052000007F09CFD00223F4B1A701B223A4B1A703EE001202B2107F091FD4FF42F700CF0E9FC0120702107F089FD0E22324B1A702EE001202B2107F081FD4FF42F700CF055
:40524000D9FC0120702107F079FD0E222A4B1A701EE001202B2107F071FD4FF42F700CF0C9FC0120702107F069FD0E22224B1A700EE001202E2107F061FD00221E4B1A709A
:4052800006E001202E2107F059FD00221A4B1A7064200CF0AFFC0CF04FF810BD0CF022F8082840F0CD84164B1B78DBB2AA2B40F00481134B9B79DBB2C32B40F0FE80104B37
:4052C000DB79DBB23C2B40F0F8800D4BDB78DBB27E2B19D10120312107F030FD0022064B1A701DE07488FF1FC085FF1F3483FF1F2C83FF1F6C8AFF1FEC85FF1F1189FF1FE8
:40530000788CFF1FF185FF1FA24BDB78DBB2942B06D10120632107F011FD01229E4B1A709E4B1A78072A26D89A4BDB78DBB2092B0ED8984BD9789A4B1344303183F88E10A1
:4053400001202A2107F032FD944A137801331370904BDB78DBB20A2B0DD1904C2278904B1344302183F88E1001202A2107F01EFD237801332370874BDB78DBB20B2B1AD1E8
:40538000864B1B787BB90120392107F0D7FC4FF4FA700CF02FFC01202E2107F0CFFC00227D4B1A7007E0013BDAB27C4B1A700120202107F0FBFC774BDB78DBB20C2B7CD120
:4053C000764B1A78002A36D0002376490B6076490B6015E0581C7549014491F8D710704C234493F88E30303B994204D16D490B6801330B6002E000216A4B19606A4B18602A
:40540000694B1B689A42E5D8684B93F8D720654B1B689A420BD10120262107F08FFC4FF4FA700CF0E7FB0120702107F087FC0E22594B1A7041E000235A490B605A490B601D
:4054400010E05B49194491F824005549194491F88E10884203D15348016801310160013351490B60504B1B689A42EAD84D4B1B68082B13D10120262107F060FC4FF4FA70A8
:405480000CF0B8FB01205D2107F058FC0120702107F054FC0E22404B1A700EE00120272107F04CFC4FF4FA700CF0A4FB01202E2107F044FC0022384B1A7064200CF09AFB4C
:4054C0000BF03AFF10BD0BF00DFF082840F0B883304B1B78DBB2AA2B40F095802D4B9B79DBB2C32B40F08F802A4BDB79DBB23C2B40F08980274BDB787E3B162B00F2838064
:40550000DFE803F0720C20345E81818181818181818181818181818181817A000120062107F00CFC00221D4B1A70224B19781F4B83F8A3100120242107F038FC1A22164B57
:405540001A7060E00120062107F0F8FB0022134B1A70194B1978154B83F8A3100120242107F024FC1A220C4B1A704CE00120062107F0E4FB0022094B1A70104B19780B4B7C
:4055800083F8A3100120242107F010FC1A22024B1A7038E0788CFF1FEC85FF1FF185FF1F6C8AFF1F3887FF1F2C84FF1F1889FF1F0C81FF1F3287FF1F3787FF1F1689FF1F4B
:4055C0000120062107F0BAFB0022AA4B1A70AA4B1978AA4B83F8A3100120242107F0E6FB1A22A74B1A700EE001202E2107F0A6FB0022A34B1A7006E00120702107F09EFBBF
:405600000E229F4B1A7064200CF0F4FA0BF094FE10BD0BF067FE082840F01283994B1B78DBB2AA2B40F0C080964B9B79DBB2C32B40F0BA80934BDB79DBB23C2B40F0B480FC
:405640008C4B1B78062B25D88E4AD278D2B2092A0FD80133DAB2874B1A708A48C1788A4B13443031D972C17830310120C9B207F09DFB844BDB78DBB20A2B0BD17D4B1A78F4
:405680000132D2B21A70804B13443021D972012007F08CFB7B4BDB78DBB20B2B1BD1754B1A783AB90120702107F048FB0E22744B1A7010E00120202107F078FB6D4B1B78D3
:4056C000714A1A44D27A2C2A02D100216F4A1170013B684A13706B4BDB78DBB20C2B63D1644B1B78032B5FD90622654B1A700120392107F023FB5F4B1A78634BDA72644BD0
:40570000187807F0B9F900283FD05C4B93F8A320604B1B789A4204D140F2A7105E4908F0B1FA564B93F8A3205C4B1B789A4204D140F2B310584908F0A5FA504B93F8A320F2
:40574000574B1B789A4204D140F2AD10524908F099FA4A4B93F8A320474B1B789A4204D14FF47A704C4908F08DFA01203C2107F0E5FA4FF4FA700CF03DFA0120702107F057
:40578000DDFA0E223E4B1A700EE00120552107F0D5FA4FF42F700CF02DFA01202E2107F0CDFA0022364B1A7064200CF023FA0BF0C3FD10BD0BF096FD082840F04182314BD2
:4057C0001B78DBB2AA2B40F09C802E4B9B79DBB2C32B40F096802B4BDB79DBB23C2B40F09080284BDB787E3B162B00F28A80DFE803F0790C30596988888888888888888867
:40580000888888888888888881000120582107F095FA0120002173224FF41F7307F0ECFC01200021CF2240F27E2307F0E5FC01200146292240F27A2307F0DEFC0120014663
:405840007B224FF47C7307F0D7FC1C220C4B1A7057E001202B2107F071FA4FF42F700CF0C9F90120702107F069FA0E22044B1A7047E000BFF185FF1F3487FF1F1889FF1FA3
:40588000EC85FF1F788CFF1F7888FF1F3283FF1F3483FF1F3287FF1F8388FF1F1689FF1F3787FF1F01202B2107F048FA4FF42F700CF0A0F90120702107F040FA0E22784BE5
:4058C0001A701EE001202B2107F038FA4FF42F700CF090F90120702107F030FA0E22704B1A700EE001202E2107F028FA00226C4B1A7006E00120702107F020FA0E22684B75
:405900001A7064200CF076F90BF016FD10BD0BF0E9FC082840F09481624B1B78DBB2AA2B67D1604B9B79DBB2C32B62D15D4BDB79DBB23C2B5DD15B4BDB787E3B162B58D836
:40594000DFE803F0480C1B2A39575757575757575757575757575757575750000120062107F0ECF90022504B1A7001224F4B83F8A3201F224A4B1A703BE00120062107F064
:40598000DDF90022484B1A700222484B83F8A3201F22434B1A702CE00120062107F0CEF90022414B1A700322404B83F8A3201F223B4B1A701DE00120062107F0BFF90022E5
:4059C000394B1A700422394B83F8A3201F22344B1A700EE001202E2107F0B0F90022304B1A7006E00120702107F0A8F90E222C4B1A7064200CF0FEF80BF09EFC10BD0BF00E
:405A000071FC082840F01C81264B1B78DBB2AA2B40F0B580234B9B79DBB2C32B40F0AF80204BDB79DBB23C2B40F0A9801E4B1B782BBB1C4AD278D2B2092A0FD80133DAB2D9
:405A4000194B1A701748C178194B13443031D972C17830310120C9B207F0A8F9114BDB78DBB20A2B0BD1104B1A780132D2B21A700F4B13443021D972012007F097F9094BA7
:405A8000DB78DBB20B2B26D1074B1A7892B90120002107F053F90022014B1A701BE000BFEC85FF1F788CFF1FF185FF1F1889FF1F6C8AFF1F0120202107F078F9614B1B7852
:405AC000614A1A44D27A2C2A02D100215F4A1170013B5C4A13705E4BDB78DBB20C2B4ED1584B1B78012B4AD10120392107F026F9544B1A78544BDA72564B93F8A330022B43
:405B000008D151490A7B544B1A704FF41F700B3108F0B8F84F4B93F8A330012B08D14A490A7B4E4B1A7040F27A200B3108F0AAF8484B93F8A330032B08D143490A7B484B18
:405B40001A7040F27E200B3108F09CF8414B93F8A330042B08D13C490A7B424B1A704FF47C700B3108F08EF84FF4FA700CF042F80120702107F0E2F80E223B4B1A706420DD
:405B80000CF038F80BF0D8FB10BD0BF0ABFB082856D12F4B1B78DBB2AA2B4CD12C4B9B79DBB2C32B47D12A4BDB79DBB23C2B42D1274BDB78DBB20A2B2ED101222B4B1A6013
:405BC00010E02B4B58782B4B197801222A4B1B7809F052F94FF4FA700CF00CF8234A136801331360254B1B7803F00F031F4A12689342E6D201200C2107F0A0F84FF42F7086
:405C00000BF0F8FF00241E4BDC7001202E2107F095F8154B1C700EE001200C2107F08EF84FF42F700BF0E6FF01202E2107F086F800220D4B1A7064200BF0DCFF0BF07CFB89
:405C400010BD00BFF185FF1F6C8AFF1F3283FF1F788CFF1F1889FF1F3287FF1F1689FF1F3787FF1F3487FF1FEC85FF1FF485FF1F7488FF1FC085FF1F3483FF1F048BFF1FCE
:405C80007888FF1F10B5A04B1B78212B01F26A83DFE813F022009600F200680B4E01C8017B02EC02680B84035404970404058705B005A406680B680B680BA807680B680B1E
:405CC000680B680B680B680B4F082009CD09680B680B450A680B0B0B8C4B1B78012B03D18B4B1A78884B1A708A4B1B78012B06D1894B1A78894B1A700422894B1A700BF0E7
:405D0000E3FB082841F02E83864B1B78DBB2AA2B50D1844B9B79DBB2C32B4BD1814BDB79DBB23C2B46D17F4BDB78DBB2562B02D0572B20D03EE0754B1B78012B04D1744B47
:405D40001A78714B1A7009E00220632106F0F6FF0322734B1A7001226B4B1A706D4B1B78012B04D16C4B1A786C4B1A7022E000226A4B1A701EE06C4B1B78012B04D1644BD0
:405D80001A78614B1A7002E000225F4B1A70614B1B78012B04D1604B1A78604B1A7009E00220632106F0CAFF04225D4B1A7001225A4B1A7064200BF01DFF0BF0AFFB10BD2C
:405DC0000BF082FB082841F0CD82564B1B78DBB2AA2B4BD1534B9B79DBB2C32B46D1514BDB79DBB23C2B41D14E4BDB78DBB25C2B0AD004D8452B0FD0592B18D036E07E2B5F
:405E000025D0942B2BD031E00220492106F096FF02223D4B1A7029E00220252106F08EFF0022424B1A700F22374B1A701EE002202B2106F083FF4FF4FA700BF0DBFE022064
:405E40002E2106F07BFF00222F4B1A700EE002202E2106F073FF00222B4B1A7006E002202E2106F06BFF0022274B1A7064200BF0C1FE0BF053FB10BD0BF026FB082841F0AE
:405E80007182284B1B78DBB2AA2B36D1254B9B79DBB2C32B31D1234BDB79DBB23C2B2CD1204BDB78DBB25F2B08D002D85E2B0DD023E07E2B12D0942B18D01EE002200B215E
:405EC00006F03CFF0A22104B1A7016E002201D2106F034FF0B220C4B1A700EE002202E2106F02CFF0022084B1A7006E00220632106F024FF0122044B1A7064200BF07AFEBC
:405F00000BF00CFB10BD00BFC485FF1F3387FF1FED85FF1F3183FF1F6988FF1F3A86FF1FEA85FF1F8C8CFF1F508AFF1F1189FF1F0BF0CAFA082841F01582A64B1B78DBB20A
:405F4000AA2B69D1A34B9B79DBB2C32B64D1A14BDB79DBB23C2B5FD19F4AD37823F00303D3709C4BDB78DBB23B2B3ED004D80F2B09D0102B1BD04FE07E2B3ED0942B44D063
:405F8000432B49D129E00220062106F0D7FE0022924B1A700220242106F008FF8E4AD37843F00203D37005228D4B1A7034E002200D2106F0C3FE0022884B1A70894B1A7030
:405FC0000220472106F0F2FE834AD37843F00103D3700522824B1A701EE00220072106F0ADFE06227E4B1A7016E002202E2106F0A5FE00227A4B1A700EE002202E2106F0F7
:406000009DFE0022764B1A7006E002200B2106F095FE0A22724B1A7064200BF0EBFD0BF07DFA10BD0BF050FA082841F09B81694B1B78DBB2AA2B40F0A280664B9B79DBB273
:40604000C32B40F09C80634BDB79DBB23C2B40F09680624B1B78644A1278013A93423EDC5C4AD278D2B2092A0FD80133DAB25B4B1A705848C178584B13443031D972C178D2
:4060800030310220C9B206F091FE524BDB78DBB20A2B0BD1514B1A780132D2B21A704E4B13443021D972022006F080FE494BDB78DBB2512B13D1494B1B7883B1494A1278F2
:4060C0006AB90133DAB2454B1A70434B13442C21D972022006F06AFE0122424B1A703D4BDB78DBB20B2B1BD13C4B1A783AB90220052106F023FE0422394B1A7010E0022031
:40610000202106F053FE354B1B78334A1A44D27A2C2A02D10021334A1170013B2F4A13702C4BDB78DBB20C2B29D12C4B1B786BB12E4B1B7853B90220072106F0FFFD274BA9
:406140001A78254BDA720622254B1A70234B1B78ABB1264B1B78012B11D10220702106F0EDFD1D4B1B7B22490B7040F2964007F089FD00221D4B1A700E22194B1A7064208E
:406180000BF038FD0BF0CAF910BD0BF09DF9082830D1104B1B78DBB2AA2B15D10D4B9B79DBB2C32B10D10B4BDB79DBB23C2B0BD1084BDB78DBB27E2B06D102202E2106F0D0
:4061C000BDFD0022064B1A7064200BF013FD0BF0A5F910BD8C8CFF1F9086FF1F1189FF1FC485FF1FF285FF1FD585FF1F7088FF1F048BFF1F9B4B187802F0FAFC072841F0DC
:40620000B18032200BF0F6FC964B187802F004FD0146954B1870954BDB7813F003030DD0904A1078924A06F0E5F938B902202E2106F084FD00228F4B1A7010BD894C207817
:4062400002F0EAFC884B1870207840F010000AF015FF0220082106F071FD0723854A1370854A13700122854B1A7010BD32200BF0C1FC7C4B187802F0BBFC0638052801F2D6
:406280007180DFE810F074006F086F0880003D00060064200BF0AEFC724B187802F030FD01280FD1764B1B7863B90220392106F045FD0022714B1A7014200BF09BFC0D22E2
:4062C0006C4B1A70674B187802F01AFD012841F049806B4B1B78012B41F0448002200C2106F02CFD0024654B1C704FF4FA700BF081FC02202E2106F021FD5E4B1C7010BD0B
:4063000064200BF077FC574B187802F0F9FC01280FD15B4B1B7863B90220392106F00EFD0022564B1A7014200BF064FC0D22514B1A704C4B187802F0E3FC012841F0128062
:406340004F4B1B78012B41F00D8002200C2106F0F5FC0024494B1C704FF4FA700BF04AFC02202E2106F0EAFC424B1C7010BD02202E2106F0E3FC0023404A13703B4AD3702D
:406380003C4A137010BD32200BF034FC02202E2106F0D4FC0022374B1A7010BD0BF094F8082840F0DF87374B1B78DBB2AA2B40F0BF80344B9B79DBB2C32B40F0B980314B32
:4063C000DB79DBB23C2B40F0B3802F4B1B78062B7CD82C4AD278D2B2092A10D80133DAB2294B1A702748C178204B1344303183F86510C17830310220C9B206F0D7FC214B1C
:40640000DB78DBB20A2B0CD11F4B1A780132D2B21A70164B1344302183F86510022006F0C5FC184BDB78DBB26A2B0CD1164B1A780132D2B21A700D4B13442D2183F8651085
:40644000022006F0B3FC0F4BDB78DBB21A2B3DD90C4BDB78DBB2422B38D800220B4B1A6030E000BF4086FF1F6F88FF1F9086FF1F9B86FF1FC485FF1FED85FF1F3387FF1F10
:40648000D385FF1F8C8CFF1F1189FF1F2C84FF1FA94AD278D2B2A9491944097A8A420DD1A7490A780132D2B20A704133D9B2A54B134483F86510022006F078FCA24A1368A1
:4064C00001331360A04B1B68192BE1D99A4BDB78DBB20B2B15D19A4B1A7852B902202E2106F02CFC0023974A82F86530974A137007E00220202106F059FC914A1378013BE9
:4065000013708D4BDB78DBB20C2B11D18C4B1B7873B10220052106F011FC8A4B884A127883F86520012283F883200422874B1A7064200BF05FFB0AF0F1FF10BD0AF0C4FFED
:40654000082840F00F877C4B1B78DBB2AA2B32D1794B9B79DBB2C32B2DD1774BDB79DBB23C2B28D1744BDB78DBB2392B04D07E2B1AD0382B1FD10CE002200A2106F0DEFB4D
:4065800000236F4A1370724A137009226F4B1A7011E00220052106F0D1FB01226C4B1A7004226A4B1A7006E002202E2106F0C6FB0022664B1A7064200BF01CFB0AF0AEFF62
:4065C00010BD0220012107F013FD052840D90A200BF010FB0220212107F00AFD052837D9022007F0FBFB012832D133200AF0B4FF0220332107F056FC50B30022554B1A6035
:406600000AE0022007F0B8FC4E4B1C4484F82900504A1368013313604E4B1C68072CF0D90220132106F08AFB464CE37843F00403E3704FF4FA700BF0DDFA02200E2106F01F
:406640007DFB00233E4A137023710C223F4B1A700AF03AFF082840F08586374B1B78DBB2AA2B15D1344B9B79DBB2C32B10D1324BDB79DBB23C2B0BD12F4BDB78DBB23B2B53
:4066800006D10220492106F059FB02222F4B1A7064200BF0AFFA0AF041FF10BD0AF014FF082840F05F86244B1B78DBB2AA2B72D1214B9B79DBB2C32B6DD11F4BDB79DBB259
:4066C0003C2B68D11E4B1B78052B25D81A4AD278D2B2092A0FD80133DAB2194B1A701648C178184B134430311971C17830310220C9B206F05BFB104BDB78DBB20A2B0BD1CC
:406700000F4B1A780132D2B21A700E4B134430211971022006F04AFB074BDB78DBB20B2B22D1074B1A78BAB90220052106F006FB0422064B1A7017E08C8CFF1F0C81FF1F7A
:406740001189FF1F9086FF1F2C84FF1FC485FF1FD385FF1FF485FF1F0220202106F026FB964A1378013B1370954BDB78DBB20C2B11D1924B1B7873B1924B5B79302B0AD0F4
:406780000220052106F0DAFA8C4B1A788D4B1A7104228D4B1A7064200BF02CFA0AF0BEFE10BD8A4B58788A4B19780022894B1B7808F062FB884B5B788BB902200C2106F033
:4067C000BDFA4FF416700BF015FA00247D4BDC7002202E2106F0B2FA7B4B1C7010BD0220312106F0ABFA0022744B1A702122764B1A7010BD0AF068FE082840F0B385704B1D
:406800001B78DBB2AA2B40F0D2806D4B9B79DBB2C32B40F0CC806A4BDB79DBB23C2B40F0C680674BDB78583B3E2B00F2C080DFE803F020BE5464BE30BEBEBEBEBEBEBE7F89
:40684000BEBEBEBEBEBEBEBEBEBE9FBEBEBEBEBEBEBEBEBEBEBEBEBEAFBEBEBEBEBEBEBEBEBEBEBEBEBEBEBEBEBEBEBEBE8FB7BE740002202B2106F061FA4FF4FA700BF001
:40688000B9F90220702106F059FA0E224E4B1A708DE002205C2106F051FA02200021D62240F2AD1306F046FC02200021892240F2A71306F03FFC02200121242240F2B31398
:4068C00006F038FC0220012178224FF47A7306F031FC13223C4B1A7069E002202B2106F02DFA4FF4FA700BF085F90220702106F025FA0E22344B1A7059E002202B2106F05F
:406900001DFA4FF4FA700BF075F90220702106F015FA0E222C4B1A7049E002205F2106F00DFA0022254B1A701B22274B1A703EE002202B2106F002FA4FF4FA700BF05AF9AB
:406940000220702106F0FAF90E221F4B1A702EE002202B2106F0F2F94FF4FA700BF04AF90220702106F0EAF90E22174B1A701EE002202B2106F0E2F94FF4FA700BF03AF94F
:406980000220702106F0DAF90E220F4B1A700EE002202E2106F0D2F900220B4B1A7006E002202E2106F0CAF90022074B1A7064200BF020F90AF0B2FD10BD00BF1189FF1F92
:4069C0008C8CFF1F9086FF1FC485FF1F1489FF1F6F88FF1F4086FF1F688AFF1F0AF074FD082840F0BF84A94B1B78DBB2AA2B40F0B984A64B9B79DBB2C32B40F0B384A34BC9
:406A0000DB79DBB23C2B40F0AD84A04BDB78DBB27E2B07D10220312106F090F900229C4B1A700BE0994BDB78DBB2942B06D10220632106F083F90122954B1A70954B1A787F
:406A4000072A26D8914BDB78DBB2092B0ED88F4BD978914B1344303183F88E1002202A2106F0A4F98B4A137801331370874BDB78DBB20A2B0DD1874C2278874B1344302176
:406A800083F88E1002202A2106F090F92378013323707E4BDB78DBB20B2B1AD17D4B1B787BB90220392106F049F94FF4FA700BF0A1F802202E2106F041F90022744B1A7015
:406AC00007E0013BDAB2734B1A700220202106F06DF96E4BDB78DBB20C2B7DD16D4B1978002979D000236D4A13606D4A136015E0581C6C4A024492F8D720674C234493F805
:406B00008E30303B9A4204D1644A13680133136002E00022614B1A60614B18600846604B1B689942E4D85F4B93F8D7205B4B1B689A420FD10220262106F000F94FF4FA7034
:406B40000BF058F80220702106F0F8F80E22504B1A7041E00023514A1360514A136010E0514A1A4492F824104B4A1A4492F88E20914203D149490A6801320A600133484A9C
:406B80001360474B1B689842EAD8444B1B68082B13D10220262106F0D1F84FF4FA700BF029F801205D2106F0C9F80220702106F0C5F80E223D4B1A700EE00220272106F04B
:406BC000BDF84FF4FA700BF015F802202E2106F0B5F800222E4B1A7064200BF00BF80AF09DFC10BD0AF070FC082840F0BB83274B1B78DBB2AA2B40F09680244B9B79DBB24F
:406C0000C32B40F09080214BDB79DBB23C2B40F08A801E4BDB787E3B162B00F28480DFE803F0730C204B5F82828282828282828282828282828282827B000220062106F02D
:406C40007DF80022134B1A70194B1978154B83F8A3100220242106F0A9F81A220C4B1A7061E00220062106F069F80022094B1A70104B19780B4B83F8A3100220242106F049
:406C800095F81A22024B1A704DE000BF8C8CFF1FC485FF1F1189FF1F9086FF1F3887FF1F2C84FF1F1889FF1F0C81FF1F2F83FF1F3D86FF1F2E83FF1F0220062106F03EF8B5
:406CC0000022AC4B1A70AC4B1978AC4B83F8A3100220242106F06AF81A22A94B1A7022E00220062106F02AF80022A24B1A70A54B1978A24B83F8A3100220242106F056F888
:406D00001A229F4B1A700EE002202E2106F016F800229B4B1A7006E00220702106F00EF80E22974B1A7064200AF064FF0AF0F6FB10BD0AF0C9FB082840F01483924B1B78BF
:406D4000DBB2AA2B40F0C0808F4B9B79DBB2C32B40F0BA808C4BDB79DBB23C2B40F0B480844B1B78062B25D8874AD278D2B2092A0FD80133DAB27F4B1A708348C178834BBC
:406D800013443031D972C17830310220C9B206F00DF87D4BDB78DBB20A2B0BD1754B1A780132D2B21A70794B13443021D972022005F0FCFF744BDB78DBB20B2B1BD16D4B10
:406DC0001A783AB90220702105F0B8FF0E226C4B1A7010E00220202105F0E8FF654B1B786A4A1A44D27A2C2A02D10021684A1170013B604A1370644BDB78DBB20C2B63D18E
:406E00005C4B1B78032B5FD906225D4B1A700220392105F093FF574B1A785C4BDA725D4B187805F029FE00283FD0544B93F8A320594B1B789A4204D140F2A710574906F04F
:406E400021FF4E4B93F8A3204B4B1B789A4204D140F2B310514906F015FF484B93F8A3204F4B1B789A4204D140F2AD104B4906F009FF424B93F8A320424B1B789A4204D1AC
:406E80004FF47A70454906F0FDFE02203C2105F055FF4FF4FA700AF0ADFE0220702105F04DFF0E22364B1A700EE00220552105F045FF4FF4FA700AF09DFE02202E2105F076
:406EC0003DFF00222E4B1A7064200AF093FE0AF025FB10BD0AF0F8FA082840F043822A4B1B78DBB2AA2B40F09C80274B9B79DBB2C32B40F09680244BDB79DBB23C2B40F046
:406F00009080214BDB787E3B162B00F28A80DFE803F0790C495969888888888888888888888888888888888881000220582105F005FF0220002173224FF4936306F05CF9C9
:406F400002200021CF2240F29A4306F055F902200121292240F29C4306F04EF9022001217B2240F29E4306F047F91C22044B1A7057E000BF1189FF1FD485FF1F1889FF1F88
:406F8000C485FF1FC685FF1F8C8CFF1F7888FF1FF285FF1F4086FF1F3D86FF1F8388FF1F2E83FF1F02202B2105F0C8FE4FF4FA700AF020FE0220702105F0C0FE0E22804B0C
:406FC0001A702EE002202B2105F0B8FE4FF4FA700AF010FE0220702105F0B0FE0E22784B1A701EE002202B2105F0A8FE4FF4FA700AF000FE0220702105F0A0FE0E22704B7B
:407000001A700EE002202E2105F098FE00226C4B1A7006E00220702105F090FE0E22684B1A7064200AF0E6FD0AF078FA10BD0AF04BFA082840F09681624B1B78DBB2AA2BFE
:4070400067D1604B9B79DBB2C32B62D15D4BDB79DBB23C2B5DD15B4BDB787E3B162B58D8DFE803F0482A0C1B3957575757575757575757575757575757575000022006213E
:4070800005F05CFE0022504B1A7001224F4B83F8A3201F224A4B1A703BE00220062105F04DFE0022484B1A700222484B83F8A3201F22434B1A702CE00220062105F03EFE28
:4070C0000022414B1A700322404B83F8A3201F223B4B1A701DE00220062105F02FFE0022394B1A700422394B83F8A3201F22344B1A700EE002202E2105F020FE0022304B40
:407100001A7006E00220702105F018FE0E222C4B1A7064200AF06EFD0AF000FA10BD0AF0D3F9082840F01E81264B1B78DBB2AA2B40F0B580234B9B79DBB2C32B40F0AF805A
:40714000204BDB79DBB23C2B40F0A9801E4B1B782BBB1C4AD278D2B2092A0FD80133DAB2194B1A701748C178194B13443031D972C17830310220C9B205F018FE114BDB7835
:40718000DBB20A2B0BD1104B1A780132D2B21A700F4B13443021D972022005F007FE094BDB78DBB20B2B26D1074B1A7892B90220002105F0C3FD0022014B1A701BE000BF60
:4071C000C485FF1F8C8CFF1F1189FF1F1889FF1F9086FF1F0220202105F0E8FD624B1B78624A1A44D27A2C2A02D10021604A1170013B5D4A13705F4BDB78DBB20C2B4ED1B9
:40720000594B1B78012B4AD10220392105F096FD554B1A78554BDA72574B93F8A330012B08D152490A7B554B1A704FF493600B3106F028FD504B93F8A330022B08D14B493F
