:400000000080002011000000611301006113010008B5044B1A6803F53F5302331A6011F0A1F900BFFA46004010B5054C237833B9044B13B10448AFF300800123237010BDE2
:40004000F082FF1F0000000008250100084B10B51BB108480849AFF300800848036803B910BD074B002BFBD0BDE81040184700BF0000000008250100F482FF1F0881FF1F13
:400080000000000010B562B611F054FB11F074FC11F012FD11F002FE11F05AFB11F01CFF052012F0ABF90024544B1C70544B1C70204620210EF0CEF9524B1C6006E0524AD3
:4000C000D15C524AD15401334E4A13604E4B1A784C4B1B689A42F2D220200F210EF0BAF90022484B1A6007E0474AD15C474A1A4491770133434A1360434B1A78414B1B689F
:400100009A42F1D22F200C210EF0A4F900223D4B1A6008E03C4AD15C3C4A1A4482F82F100133384A1360384B1A78364B1B689A42F0D2402020210EF08DF90022314B1A6090
:4001400008E0314AD15C314A1A4482F8431001332C4A13602C4B1A782A4B1B689A42F0D2602009210EF076F9274B1878431EDBB2082B14D80022234B1A6008E00133224AD5
:40018000D15C224A1A4482F8D7101E4A13601D4B1B68072BF2D91D4B83F8D7000EE00122184B1A6006E0194A1A4482F8D7300133144A1360134B1B68082BF4D9802020218D
:4001C0000EF048F900220F4B1A6008E00E4AD15C0E4A1A4482F8611001330A4A13600A4B1A78084B1B689A42F0D2A02020210EF031F90022034B1A6013E000BF7088FF1F8B
:400200006A8AFF1F2C84FF1FF885FF1F1889FF1FA94AD15CA94A1A4482F87F100133A84A1360A54B1A78A64B1B689A42F0D24FF4DD7002210EF00EF99F4B1B78052B05D1A2
:400240009D4B5B7803F00F039E4A137040F2C31002210EF0FFF8984B1B78012B03D1964B5A78994B1A7040F2C51002210EF0F2F8914B1B78012B03D18F4B5A78934B1A700A
:4002800040F2C11002210EF0E5F88B4B1B78012B03D1894B5A788E4B1A7040F2EE3002210EF0D8F8844B1B78012B03D1824B5A78884B1A704FF41F7002210EF0CBF87E4BAD
:4002C0001B78012B03D17C4B5A78834B1A7040F27A2002210EF0BEF8774B1B78012B03D1754B5A787D4B1A7040F27E2002210EF0B1F8714B1B78012B03D16F4B5A78784B66
:400300001A704FF47C7002210EF0A4F86A4B1B78012B03D1684B5A78724B1A704FF4936002210EF097F8644B1B78012B03D1624B5A786D4B1A7040F29A4002210EF08AF89B
:400340005D4B1B78012B03D15B4B5A78674B1A7040F29C4002210EF07DF8574B1B78012B03D1554B5A78624B1A7040F29E4002210EF070F8504B1B78012B03D14E4B5A78DA
:400380005C4B1A704FF4946002210EF063F84A4B1B78012B03D1484B5A78574B1A7040F2A24002210EF056F8434B1B78012B03D1414B5A78514B1A7040F2A44002210EF041
:4003C00049F83D4B1B78012B03D13B4B5A784C4B1A7040F2A64002210EF03CF8364B1B78012B03D1344B5A78464B1A7040F29F2005210EF02FF8304B1878042810D10122C4
:400400002F4B1A6006E02C4AD15C3F4AD15401332B4A13602A4B1B68042BF4D93A4B187040F26A400A210EF015F80022244B1A6006E0214AD15C354AD1540133204A136024
:400440001D4B1A781E4B1B689A42F2D240F275400A210DF0FFFF0022194B1A6006E0164AD15C2B4AD1540133154A1360124B1A78134B1B689A42F2D240F2DC500A210DF0E0
:40048000E9FF00220E4B1A6006E00B4AD15C214AD15401330A4A1360074B1A78084B1B689A42F2D240F28B400A210DF0D3FF0022034B1A6037E000BFF885FF1F1889FF1F01
:4004C0002C84FF1FD485FF1F6B8AFF1F7688FF1F538AFF1FF085FF1F3287FF1F1689FF1F3787FF1F3487FF1F3D86FF1F2E83FF1FD385FF1FC685FF1FD585FF1FC585FF1F42
:400500008C86FF1F3B86FF1F0C81FF1FC885FF1F2084FF1F088BFF1F834AD15C834AD1540133834A1360804B1A78814B1B689A42F2D240F2964002210DF08CFF7A4B1B786C
:400540000BB17C4A137040F25A2006210DF082FF754B1B78052B0AD1734AD37803F00F0375490B70537903F00F03744A137040F2C71002210DF06EFF6B4B1B78012B06D18D
:400580006F4A1370684B5B7803F00F0353704FF4DE7002210DF05EFF634B1B78012B05D1614B5B7803F00F03664A137040F2632002210DF04FFF5C4B1B78012B05D15A4BA5
:4005C0005B7803F00F03604A537040F2652002210DF040FF544B1B78012B05D1524B5B7803F00F03594A53704FF4277003210DF031FF4D4B1B78022B06D14B4B9B7843EA61
:400600000323534A138002E00122514B1A804FF4767002210DF01EFF434B1B78012B04D1414B5A784B4B5A7007E04A4901230B704B704FF476700DF0CFFE4FF4BB6002219B
:400640000DF008FF384B1B78012B04D1364B5A78414B5A7007E0404901230B704B704FF4BB600DF0B9FE40F2D23006210DF0F2FE2D4B187805280FD100222D4B1A6006E083
:40068000294AD15C354AD1540133294A1360284B1B689842F4D20CE0304905230B7030234B708B70CB700B714B7140F2D2300DF093FE4FF47D7002210DF0CCFE1A4B1878F1
:4006C00001280ED100221A4B1A6006E0164AD15C234AD1540133164A1360154B1B689842F4D21E4A537903F00F00137903F00F014FF47A7303FB01F342F2107101FB003397
:40070000D07800F00F00642101FB0031937803F00F0303EB83035B000B44527802F00F021344104A136010BDF885FF1FD885FF1F2C84FF1F048BFF1F1C84FF1F528AFF1F8B
:40074000E885FF1F3587FF1F7488FF1F1489FF1FC285FF1F2C83FF1F688AFF1F2C87FF1F6C88FF1F648AFF1F10B50024A0E008F097FA01280BD010B1022841D098E0642020
:4007800011F03CFE01204F210CF082FE90E0642011F034FE484B187808F00CFB0B2805D0464B187808F006FB0B2807D1424B187808F088FB414B187808F084FB642011F0CB
:4007C0001DFE3D4B187808F0F5FA06280FD13B4B187808F0EFFA062809D101203C210CF057FE02203C210CF053FE012460E0012055210CF04DFE022055210CF049FE57E0E2
:40080000642011F0FBFD2C4B187808F0D3FA0B2811D02B4B187808F0CDFA0B280BD0274B187808F0C7FA0B2805D0264B187808F0C1FA0B280FD1204B187808F043FB1F4B63
:40084000187808F03FFB1E4B187808F03BFB1D4B187808F037FB642011F0D0FD164B187808F0A8FA06281BD1154B187808F0A2FA062815D1114B187808F09CFA06280FD156
:40088000104B187808F096FA062809D101204A210CF0FEFD02204A210CF0FAFD022407E0012055210CF0F4FD022055210CF0F0FD002C3FF45CAF10BD048AFF1F4086FF1FE1
:4008C0003483FF1F3C87FF1F08B500230A4A13700A4A13704FF4FA7011F090FD01202E210CF0D6FD4FF4FA7011F088FD02202E210CF0CEFD08BD00BF2F83FF1FEC85FF1FEC
:4009000038B5A14B1B782A2B03F24687DFE813F02B009E00F500441F4E01C8017D02EE02441F82035204950402058505AE0595067908AA07D40892091C0ABA0BFC0C720EF0
:40094000900F441F6D133E14D5144B152816C0169217A319021A701AE11A281BB31B8D1C941D4E1EBE1E894B1B78012B03D1884B1A78854B1A70874B1B78012B06D1864B2E
:400980001A78864B1A700222854B1A7011F0AEF8082843F00187834B1B78DBB2AA2B4FD1804B9B79DBB2C32B4AD17E4BDB79DBB23C2B45D17B4BDB78DBB2562B02D0572B40
:4009C0001FD03DE0714B1B78012B04D1704B1A786D4B1A7008E0012063210CF059FD01236F4A1370684A13706A4B1B78012B04D1694B1A78694B1A7022E00022674B1A706B
:400A00001EE0624B1B78012B04D1614B1A785E4B1A7002E000225C4B1A705E4B1B78012B04D15D4B1A785D4B1A7009E0012063210CF02EFD02225A4B1A700122574B1A70D1
:400A4000642011F0DBFC11F07BF838BD11F04EF8082843F0A186534B1B78DBB2AA2B46D1504B9B79DBB2C32B41D14E4BDB79DBB23C2B3CD14B4BDB78DBB25C2B0AD004D859
:400A8000452B0FD0592B18D031E07E2B20D0942B26D02CE0012049210CF0FAFC02223A4B1A7024E0012025210CF0F2FC00223E4B1A700F22344B1A7019E0012025210CF040
:400AC000E7FC0022384B1A7027222F4B1A700EE001202E210CF0DCFC00222B4B1A7006E001202E210CF0D4FC0022274B1A70642011F084FC11F024F838BD10F0F7FF0828C6
:400B000043F04A86274B1B78DBB2AA2B36D1254B9B79DBB2C32B31D1224BDB79DBB23C2B2CD1204BDB78DBB25F2B08D002D85E2B0DD023E07E2B12D0942B18D01EE0012050
:400B40000B210CF0A5FC0A220F4B1A7016E001201D210CF09DFC0B220B4B1A700EE001202E210CF095FC0022074B1A7006E0012063210CF08DFC0122034B1A70642011F02C
:400B80003DFC10F0DDFF38BD2F83FF1F508AFF1FEF85FF1FC785FF1F3083FF1FEC85FF1F1089FF1F788CFF1FF185FF1F10F09EFF082843F0F185A74B1B78DBB2AA2B69D103
:400BC000A44B9B79DBB2C32B64D1A24BDB79DBB23C2B5FD1A04AD37823F00303D3709D4BDB78DBB23B2B3ED004D80F2B09D0102B1BD04FE07E2B3ED0942B44D0432B49D1BA
:400C000029E0012006210CF043FC0022934B1A70012024210CF074FC8F4AD37843F00203D37005228E4B1A7034E001200D210CF02FFC0022894B1A708A4B1A7001204721B1
:400C40000CF05EFC844AD37843F00103D3700522834B1A701EE0012007210CF019FC06227F4B1A7016E001202E210CF011FC00227B4B1A700EE001202E210CF009FC0022D6
:400C8000774B1A7006E001200B210CF001FC0A22734B1A70642011F0B1FB10F051FF38BD10F024FF082843F077856A4B1B78DBB2AA2B40F0A480674B9B79DBB2C32B40F0E1
:400CC0009E80644BDB79DBB23C2B40F09880634B1B78654A1278013A93423EDC5D4AD278D2B2092A0FD80133DAB25C4B1A705948C178594B13443031D972C1783031012037
:400D0000C9B20CF0FDFB534BDB78DBB20A2B0BD1524B1A780132D2B21A704F4B13443021D97201200CF0ECFB4A4BDB78DBB2512B13D14A4B1B7883B14A4A12786AB901330E
:400D4000DAB2464B1A70444B13442C21D97201200CF0D6FB0122434B1A703E4BDB78DBB20B2B1BD13D4B1A783AB9012005210CF08FFB04223A4B1A7010E0012020210CF03D
:400D8000BFFB364B1B78344A1A44D27A2C2A02D10021344A1170013B304A13702D4BDB78DBB20C2B2BD12D4B1B786BB12F4B1B7853B9012007210CF06BFB284B1A78264BCF
:400DC000DA720622264B1A70244B1B78BBB1274B1B78012B13D1012070210CF059FB1E4B1B7B234903F00F030B7040F296400DF0F3FA00221D4B1A700E22194B1A7064206C
:400E000011F0FCFA10F09CFE38BD10F06FFE082830D1104B1B78DBB2AA2B15D10D4B9B79DBB2C32B10D10B4BDB79DBB23C2B0BD1084BDB78DBB27E2B06D101202E210CF0F7
:400E400027FB0022064B1A70642011F0D7FA10F077FE38BD788CFF1F7888FF1FF185FF1F2F83FF1F3283FF1FD485FF1F7088FF1F048BFF1F994B187807F09CFF072843F07A
:400E80008B84322011F0BAFA944B187807F0A6FF0146934B1870934BDB7813F003030DD08E4A1078904A0BF087FC38B901202E210CF0EEFA00228D4B1A7038BD874C20786C
:400EC00007F08CFF864B1870207840F0100010F0C7FC012008210CF0DBFA0723834A1370834A13700122834B1A7038BD322011F085FA7A4B187807F05DFF0638052803F24D
:400F00004B84DFE810F07000491C491C7C003B000600642011F072FA704B187807F0D2FF01280ED1744B1B785BB939210CF0B0FA0022704B1A70142011F060FA0D226B4BD7
:400F40001A70664B187807F0BDFF012843F02484694B1B78012B43F01F840C210CF098FA0024644B1C704FF4FA7011F047FA01202E210CF08DFA5D4B1C7038BD642011F0FC
:400F80003DFA564B187807F09DFF01280ED15A4B1B785BB939210CF07BFA0022554B1A70142011F02BFA0D22504B1A704B4B187807F088FF012843F0EF834F4B1B78012B52
:400FC00043F0EA830C210CF063FA0024494B1C704FF4FA7011F012FA01202E210CF058FA424B1C7038BD01202E210CF051FA0023404A13703B4AD3703C4A137038BD322002
:4010000011F0FCF901202E210CF042FA0022374B1A7038BD10F06AFD082843F0BD83374B1B78DBB2AA2B40F0BF80344B9B79DBB2C32B40F0B980314BDB79DBB23C2B40F094
:40104000B3802F4B1B78062B7CD82C4AD278D2B2092A10D80133DAB2294B1A702748C178204B1344303183F86510C17830310120C9B20CF045FA214BDB78DBB20A2B0CD104
:401080001F4B1A780132D2B21A70164B1344302183F8651001200CF033FA184BDB78DBB26A2B0CD1164B1A780132D2B21A700D4B13442D2183F8651001200CF021FA0F4B48
:4010C000DB78DBB21A2B3DD90C4BDB78DBB2422B38D800220B4B1A6030E000BF048AFF1F7788FF1F7888FF1F8388FF1F2F83FF1FEF85FF1F508AFF1FD285FF1F788CFF1F3F
:40110000F185FF1F2C84FF1FA94AD278D2B2A9491944097A8A420DD1A7490A780132D2B20A704133D9B2A54B134483F8651001200CF0E6F9A24A136801331360A04B1B68BF
:40114000192BE1D99A4BDB78DBB20B2B15D19A4B1A7852B901202E210CF09AF90023974A82F86530974A137007E0012020210CF0C7F9914A1378013B13708D4BDB78DBB2B6
:401180000C2B11D18C4B1B7873B1012005210CF07FF98A4B884A127883F86520012283F883200422874B1A70642011F027F910F0C7FC38BD10F09AFC082843F0ED827C4B4D
:4011C0001B78DBB2AA2B32D1794B9B79DBB2C32B2DD1774BDB79DBB23C2B28D1744BDB78DBB2392B04D07E2B1AD0382B1FD10CE001200A210CF04CF900236F4A1370724A52
:40120000137009226F4B1A7011E0012005210CF03FF901226C4B1A7004226A4B1A7006E001202E210CF034F90022664B1A70642011F0E4F810F084FC38BD012001460DF070
:4012400081FA052840D90A2011F0D8F8012021210DF078FA052837D901200DF069F9012832D1332010F08AFC012033210DF0C4F950B30022554B1A600AE001200DF026FA88
:401280004E4B1C4484F82900504A1368013313604E4B1C68072CF0D9012013210CF0F8F8464CE37843F00403E3704FF4FA7011F0A5F801200E210CF0EBF800233E4A137058
:4012C00023710C223F4B1A7010F010FC082843F06382374B1B78DBB2AA2B15D1344B9B79DBB2C32B10D1324BDB79DBB23C2B0BD12F4BDB78DBB23B2B06D1012049210CF0B9
:40130000C7F802222F4B1A70642011F077F810F017FC38BD10F0EAFB082843F03D82244B1B78DBB2AA2B72D1214B9B79DBB2C32B6DD11F4BDB79DBB23C2B68D11E4B1B78FC
:40134000052B25D81A4AD278D2B2092A0FD80133DAB2194B1A701648C178184B134430311971C17830310120C9B20CF0C9F8104BDB78DBB20A2B0BD10F4B1A780132D2B228
:401380001A700E4B13443021197101200CF0B8F8074BDB78DBB20B2B22D1074B1A78BAB9012005210CF074F80422064B1A7017E0788CFF1F0C81FF1FF185FF1F7888FF1F73
:4013C0002C84FF1F2F83FF1FD285FF1FF485FF1F012020210CF094F8AA4A1378013B1370A94BDB78DBB20C2B11D1A64B1B7873B1A64B5B79302B0AD0012005210CF048F809
:40140000A04B1A78A14B1A710422A14B1A70642010F0F4FF10F094FB38BD9E4B58789E4B197800229D4B1B780EF0D0F89C4B5B788BB901200C210CF02BF84FF4FA7010F073
:40144000DDFF0024914BDC7001202E210CF020F88F4B1C7038BD012031210CF019F80022884B1A7021228A4B1A7038BD10F03EFB082843F09181844B1B78DBB2AA2B40F02D
:40148000D680814B9B79DBB2C32B40F0D0807E4BDB79DBB23C2B40F0CA807B4BDB78DBB2652B00F088800AD85A2B54D002D8582B16D0BCE05B2B68D05D2B28D0B7E0932B45
:4014C00000F0818006D8702B00F09A807E2B00F09F80ACE0942B00F0A380962B60D0A6E00022684B1A7001203E210BF0D1FF0CF0B3FE012801D10CF083F80CF0DDFE012822
:4015000001D10CF0DBF81022614B1A708FE001205C210BF0BDFF01200021D62240F2AD130CF0B2F901200021892240F2A7130CF0ABF901200146242240F2B3130CF0A4F953
:401540000120014678224FF47A730CF09DF913224F4B1A706BE0012060210BF099FF01200CF010F901200CF04FFA01200CF0DEFB01200CF061FC01200CF0CCFA01200CF0D2
:401580004FFB1222424B1A7051E001202F210BF07FFF00223B4B1A7011223D4B1A7046E001205F210BF074FF0022364B1A701B22374B1A703BE001204D210BF069FF142216
:4015C000334B1A7033E001206E210BF061FF012001460DF0B7F805280ED90A2010F00EFF01200CF031FD012021210DF0ABF8052802D901200CF0A6FC2322254B1A7016E01C
:40160000012089210BF044FF2922214B1A700EE001202E210BF03CFF00221D4B1A7006E001202E210BF034FF0022194B1A70642010F0E4FE10F084FA38BD10F057FA0828CA
:4016400043F0AA80104B1B78DBB2AA2B43F0A4800D4B9B79DBB2C32B43F09E800A4BDB79DBB23C2B43F09880074BDB78DBB27E2B18D1012031210BF00BFF0022044B1A700F
:401680001CE000BFF185FF1F788CFF1F7888FF1F2F83FF1F7488FF1F7788FF1F048AFF1F2C83FF1FA34BDB78DBB2942B06D1012063210BF0EDFE01229F4B1A709F4B1A7819
:4016C000072A26D89B4BDB78DBB2092B0ED8994BD9789B4B1344303183F88E1001202A210BF00EFF954A137801331370914BDB78DBB20A2B0DD1914C2278914B1344302190
:4017000083F88E1001202A210BF0FAFE237801332370884BDB78DBB20B2B1AD1874B1B787BB9012039210BF0B3FE4FF4FA7010F065FE01202E210BF0ABFE00227E4B1A70A2
:4017400007E0013BDAB27D4B1A70012020210BF0D7FE784BDB78DBB20C2B7DD1774B1A78002A79D0002377490B6077490B6015E0581C7649014491F8D710714C234493F842
:401780008E30303B994204D16E490B6801330B6002E000216B4B19606B4B186010466A4B1B689A42E4D8694B93F8D720654B1B689A420FD1012026210BF06AFE4FF4FA7064
:4017C00010F01CFE012070210BF062FE0E225A4B1A7041E000235B4A13605B4A136010E05B4A1A4492F82410554A1A4492F88E20914203D153490A6801320A600133524AE7
:401800001360514B1B689842EAD84E4B1B68082B13D1012026210BF03BFE4FF4FA7010F0EDFD01205D210BF033FE012070210BF02FFE0E22404B1A700EE0012027210BF0D8
:4018400027FE4FF4FA7010F0D9FD01202E210BF01FFE0022384B1A70642010F0CFFD10F06FF938BD10F042F9082842F09587314B1B78DBB2AA2B40F0BE802E4B9B79DBB2AA
:40188000C32B40F0B8802B4BDB79DBB23C2B40F0B280284BDB78DBB2942B06D1012070210BF0F6FD0E22244B1A70244B1A78072A27D8204BDB78DBB2092B10D81D48C178CA
:4018C0001F4B1344303183F88E10C17830310120C9B20BF015FE194A137801331370154BDB78DBB20A2B0CD1144C2278144B1344302183F88E1001200BF002FE237801336D
:4019000023700C4BDB78DBB20B2B2BD10B4B1B7803BB012055210BF0BBFD4FF4FA7010F06DFD01202E210BF0B3FD0022024B1A7018E000BF788CFF1F2F83FF1FF185FF1F52
:401940007888FF1F3887FF1F2C84FF1F1889FF1F0C81FF1F013BDAB2AC4B1A70012020210BF0CEFDAA4BDB78DBB20C2B43D1A74B1B78052B3FD9012039210BF089FDA34BEC
:401980001978A44B83F8D7100022A34B1A600BE0581CA24A134493F88E209E4B0344303A83F8D7209C4B18609B4B1B689942EFD860209B490CF010FD70B9012055210BF042
:4019C00067FD4FF4FA7010F019FD01202E210BF05FFD0022934B1A70012026210BF058FD4FF4FA7010F00AFD01202E210BF050FD00228C4B1A70642010F000FD10F0A0F8AF
:401A000038BD10F073F8082842F0C686804B1B78DBB2AA2B4AD17E4B9B79DBB2C32B45D17B4BDB79DBB23C2B40D1794BDB78DBB23F2B08D002D83E2B1CD037E07E2B26D065
:401A4000942B2CD032E0012040210BF021FD00236E4A1370744A13700120612106220BF04FFD01206D2107220BF04AFD15226D4B1A701BE001203F210BF00AFD0023634A6C
:401A80001370694A13701622664B1A700EE001202E210BF0FDFC0022624B1A7006E0012070210BF0F5FC0E225E4B1A70642010F0A5FC10F045F838BD10F018F8082842F09F
:401AC0006B86534B1B78DBB2AA2B40F09980504B9B79DBB2C32B40F093804D4BDB79DBB23C2B40F08D804A4BDB78DBB27E2B78D00AD8772B42D002D8762B10D080E0782B35
:401B00004CD07A2B58D07BE0832B27D002D8822B14D075E0942B6CD0952B5AD070E0012030210BF0B5FC0023404A1370374A13703F4A137018223B4B1A7061E00120792123
:401B40000BF0A6FC0222394B1A7000232F4A1370374A13701822334B1A7051E001207A210BF096FC0322314B1A700023274A13702F4A137018222B4B1A7041E00120782164
:401B80000BF086FC0122294B1A7000231F4A1370274A13701822234B1A7031E0012065210BF076FC0122214B1A700022174B1A7017221C4B1A7023E0012032210BF068FC06
:401BC00000231A4A1370114A13701722154B1A7016E0012066210BF05BFC2022114B1A700EE001202E210BF053FC00220D4B1A7006E0012070210BF04BFC0E22094B1A702E
:401C0000642010F0FBFB0FF09BFF38BDF185FF1F788CFF1F1889FF1F2C84FF1F7888FF1FEF89FF1F2F83FF1F3283FF1F3C86FF1F6A8AFF1F0FF05AFF082842F0AD85B24B27
:401C40001B78DBB2AA2B79D1AF4B9B79DBB2C32B74D1AD4BDB79DBB23C2B6FD1AA4BDB78DBB2802B1FD004D87E2B58D07F2B06D064E0822B3FD02AD3942B58D05EE00120F8
:401C800006210BF005FC0022A04B1A70A04B1978A04B83F8A310012024210BF031FC1A229D4B1A704AE0012006210BF0F1FB0022964B1A70994B1978964B83F8A31001200E
:401CC00024210BF01DFC1A22934B1A7036E0012006210BF0DDFB00228C4B1A70904B19788C4B83F8A310012024210BF009FC1A22894B1A7022E0012006210BF0C9FB002297
:401D0000824B1A70874B1978824B83F8A310012024210BF0F5FB1A227F4B1A700EE001202E210BF0B5FB00227B4B1A7006E0012070210BF0ADFB0E22774B1A70642010F057
:401D40005DFB0FF0FDFE38BD0FF0D0FE082842F023856D4B1B78DBB2AA2B40F08D816A4B9B79DBB2C32B40F08781674BDB79DBB23C2B40F08181644BDB78DBB2642B00F0A4
:401D8000048104D8622B09D0632B43D074E17E2B00F06381942B00F068816DE1012039210BF076FB642010F029FB5F4B187807F001F806281ED15D4B187806F0FBFF0628D7
:401DC00008D101204A210BF063FB4FF4FA7010F015FB51E1012055210BF05AFB4FF4FA7010F00CFB01202E210BF052FB00224A4B1A7041E1012055210BF04AFB4FF4FA70FC
:401E000010F0FCFA01202E210BF042FB0022424B1A7031E1012037210BF03AFB444B5B78012B45D10022434B1A600AE0424A1344012093F82C100CF057FB3E4A1368013308
:401E400013603C4B1B68102BF0D901200A210CF04BFB01200A210CF047FB01200A210CF043FB01200A210CF03FFB0022314B1A600AE0314A1344022093F82C100CF034FBD9
:401E80002C4A1368013313602A4B1B68102BF0D902200A210CF028FB02200A210CF024FB02200A210CF020FB02200A210CF01CFB1F4B5B78022B60D100221E4B1A600AE06C
:401EC0001D4A1344032093F82C100CF00DFB194A136801331360174B1B68102BF0D903200A210CF001FB03200A210CF0FDFA03200A210CF0F9FA03200A210CF0F5FA0022A9
:401F00000C4B1A6025E000BF788CFF1FF185FF1F6B8AFF1F1889FF1F2F83FF1F7688FF1F538AFF1FF085FF1F048AFF1F3483FF1F6C88FF1F2C84FF1F0C81FF1FA64A1344B7
:401F4000042093F82C100CF0CFFAA44A136801331360A24B1B68102BF0D904200A210CF0C3FA04200A210CF0BFFA04200A210CF0BBFA04200A210CF0B7FA01206B210BF07D
:401F800087FA2522964B1A7076E001200CF0D0FA012852D133200FF0F1FD012033210CF02BFB002868D000228E4B1A600AE001200CF08CFB8C4B1C4484F82900894A136801
:401FC00001331360874B1C68072CF0D90023874A1370844A13600CE0844C834A1344207893F829100CF0E8FE20707E4A1368013313607C4B1B68062BEED97B4B93F83020B5
:402000007A4B1B789A4208D101204B210BF040FA4FF47A7010F0F2F92EE0012055210BF037FA4FF4FA7010F0E9F901202E210BF02FFA00226A4B1A701EE0012055210BF0D4
:4020400027FA4FF4FA7010F0D9F901202E210BF01FFA0022624B1A700EE001202E210BF017FA00225E4B1A7006E0012070210BF00FFA0E225A4B1A70642010F0BFF90FF0EE
:402080005FFD38BD0FF032FD082842F08583584B1B78DBB2AA2B40F03181554B9B79DBB2C32B40F02B81524BDB79DBB23C2B40F02581504B1B78042B00F2C580DFE813F099
:4020C00005002E005400C3009E00494AD278D2B2012A0FD80133DAB2464B1A70444CE17830310120C9B20BF00BFAE3781B01424A82F8A1303E4BDB78DBB20A2B40F0A38085
:402100003C4B1A780132D2B21A7000213A4B83F8A110012030210BF0F3F994E0344AD278D2B2092A11D80133DAB2324B1A70304CE17830310120C9B20BF0E2F9E1782E4AFE
:4021400092F8A1300B4382F8A130294BDB78DBB20A2B78D1274B1A780132D2B21A70012030210BF0CDF96EE0214AD278D2B2052A17D80133DAB21F4C227001203A210BF048
:40218000BFF922780132D2B22270194CE17830310120C9B20BF0B4F9E3781B01164A82F8A030134BDB78DBB20A2B4CD1114C22780132D2B2227001203A210BF0A1F9227885
:4021C0000132D2B22270012030210BF099F90022094B83F8A02036E00C81FF1F2C84FF1F2F83FF1FF485FF1F7888FF1FD685FF1F788CFF1FF185FF1F1889FF1FAD4AD278A3
:40220000D2B2092A11D80133DAB2AB4B1A70A94CE17830310120C9B20BF072F9E178A74A92F8A0300B4382F8A030A24BDB78DBB20A2B08D1A04B1A780132D2B21A70012017
:4022400030210BF05DF99B4BDB78DBB2402B17D19B4B1B783BB90120994B1870702106220BF04EF907E00022954B1A700120612106220BF045F901206D2107220BF040F92B
:402280008C4BDB78DBB20B2B12D18B4B1A783AB9012070210BF0FCF80E228A4B1A7007E0012020210BF02CF9834A1378013B1370804BDB78DBB20C2B20D17F4B1B78052BE3
:4022C0001CD17F4B1B7843F002027C4991F8A13043EA421381F8A1300CF01EF801280DD139210BF0D5F84FF4FA7010F087F8012070210BF0CDF80E22724B1A70642010F09E
:402300007DF80FF01DFC38BD0FF0F0FB082842F04382684B1B78DBB2AA2B40F06581654B9B79DBB2C32B40F05F81624BDB79DBB23C2B40F05981604B1A78072A00F22181FC
:40234000DFE812F00800310058001F019100C2001F01FA00574BDB78DBB2032B0FD8554CE17830310120C9B20BF0CAF8524A137801331370E3781B01504A82F89D304D4B5D
:40238000DB78DBB20A2B40F0FC8000224B4B83F89D20494C0120302122780BF0B1F8237801332370EDE0434BDB78DBB2092B11D8404CE17830310120C9B20BF0A1F8E1789E
:4023C0003E4A92F89D300B4382F89D303A4A137801331370374BDB78DBB20A2B40F0D180354C0120302122780BF08AF8237801332370C6E02F4BDB78DBB2012B17D80120E3
:402400002F210BF07DF82C4C22780132D2B22270284DE97830310120C9B20BF071F8EB781B01264A82F89E30237801332370214BDB78DBB20A2B40F0A4801F4C01202F2100
:4024400022780BF05DF822780132D2B22270012030210BF055F80022184B83F89E202378013323708DE0134BDB78DBB2092B11D8104CE17830310120C9B20BF041F8E178AE
:402480000E4A92F89E300B4382F89E300A4A137801331370074BDB78DBB20A2B71D1064C0120302122780BF02BF823780133237067E000BF788CFF1FF185FF1F1889FF1F3E
:4024C0003283FF1F2F83FF1FA64BDB78DBB2092B17D801202F210BF013F8A34C22780132D2B222709F4DE97830310120C9B20BF007F8EB781B019D4A82F89F30237801333A
:402500002370984BDB78DBB20A2B3AD1964C01202F2122780AF0F4FF22780132D2B22270012030210AF0ECFF0022904B83F89F2023780133237024E08A4BDB78DBB2092B6B
:4025400011D8884CE17830310120C9B20AF0D8FFE178864A92F89F300B4382F89F30824A1378013313707F4BDB78DBB20A2B08D17D4C0120302122780AF0C2FF2378013339
:402580002370784BDB78DBB20B2B12D1764B1B783BB9012070210AF07BFF0E22744B1A7007E0013BDAB2704B1A70012020210AF0A7FF6C4BDB78DBB20C2B15D16A4B1B78F3
:4025C000082B11D10BF0D6FE01280DD139210AF05FFF4FF4FA700FF011FF012070210AF057FF0E22624B1A7064200FF007FF0FF0A7FA38BD0FF07AFA082842F0CD80594B35
:402600001B78DBB2AA2B40F00D81564B9B79DBB2C32B40F00781534BDB79DBB23C2B40F00181504BDB78DBB27E2B06D101202E210AF02EFF00224E4B1A704B4B1B780C2B30
:4026400061D8484AD278D2B2092A1ED80133DAB2454B1A70474B1B7813B1012B07D00DE0404BD978414B13443031997706E03D4BD9783E4B1344303183F82F10394BD97826
:4026800030310120C9B20BF063FD364BDB78DBB20A2B18D1344B1A780132D2B21A70354B1B7813B1012B05D009E0304B13443021997704E02D4B1344302183F82F1001201E
:4026C00030210BF045FD274BDB78DBB2512B1AD1254B1B78BBB10133DAB2234B1A70254B1B7813B1012B05D009E0204B13442E21997704E01D4B13442E2183F82F100120CD
:402700002E210BF025FD174BDB78DBB20B2B4ED1154B1A78002A42D10E22154B1A70012070210AF0B5FE2F200C210BF093FE0022114B1A6008E0114AD15C0C4A1A4482F850
:402740002F1001330C4A13600C4B1A780A4B1B689A42F0D220200F210BF07CFE0022064B1A6015E0788CFF1FF185FF1F1889FF1F2F83FF1F3C86FF1F2C84FF1FF885FF1F69
:402780009A4AD15C9A4A1A4491770133994A1360964B1A78974B1B689A42F1D207E0012020210BF0D5FC944A1378013B1370934BDB78DBB20C2B35D10E22914B1A700120CE
:4027C00070210AF065FE8F4B1B7813B1012B11D028E0894B1B78864901F81E3F20200BF0FBFDF8B9012055210AF052FE6422844B1A7017E0804B1B787D4901F82F3F2F20A4
:402800000BF0EAFD70B9012055210AF041FE4FF4FA700FF0F3FD01202E210AF039FE0022774B1A7064200FF0E9FD0FF089F938BD0FF05CF9082841F0AF87704B1B78DBB26D
:40284000AA2B40F0CC836D4B9B79DBB2C32B40F0C6836A4BDB79DBB23C2B40F0C083664B1B78172B00F25A82644AD278D2B2092A61D80133DAB2604B1A70624B1B78042B34
:4028800052D8DFE803F0031427394B005E4B1978012904D1594BDB7830335C488354002942D1564BDB78303351498B543CE0564B1978012904D1514BDB7830335448835446
:4028C000002931D14D4BD978494B1344303183F8431029E04C4B1978012904D1474BDB7830334C488354F9B9444BD978404B1344303183F8611017E0434B1978012904D1F1
:402900003E4BDB7830334448835469B93B4BD978374B1344303183F87F1005E0374BD9783E4B13443031D972344BD97830310120C9B20BF00DFC314BDB78DBB20A2B2BD116
:402940002D4B1A780132D2B21A702E4B1B78042B1ED8DFE803F003070D1319003021244B995415E0224B1344302183F843100FE01F4B1344302183F8611009E01C4B1344C5
:40298000302183F87F1003E0244B13443021D972012030210BF0DCFB184BDB78DBB2672B46D1154B1A780132D2B21A70154B1B78042B39D8DFE803F003070D133400232185
:4029C0000B4B995430E00A4B1344232183F843102AE0074B1344232183F8611024E0044B1344232183F87F101EE000BFF885FF1F1889FF1F2C84FF1FF185FF1F788CFF1F50
:402A00002F83FF1F3C86FF1F6A8AFF1FC885FF1F2084FF1F088BFF1FD885FF1F7888FF1F984B13442321D972012023210BF090FB954BDB78DBB26A2B2BD1944B1A780132B4
:402A4000D2B21A70924B1B78042B1ED8DFE803F003070D1319002D218E4B995415E08D4B13442D2183F843100FE08A4B13442D2183F8611009E0874B13442D2183F87F10A3
:402A800003E0804B13442D21D97201202D210BF05FFB7D4BDB78DBB2662B2BD17B4B1A780132D2B21A707A4B1B78042B1ED8DFE803F003070D1319004021764B995415E068
:402AC000744B1344402183F843100FE0714B1344402183F8611009E06E4B1344402183F87F1003E0674B13444021D972012040210BF02EFB644BDB78DBB2692B2BD1634BD3
:402B00001A780132D2B21A70614B1B78042B1ED8DFE803F003070D1319002E215D4B995415E05C4B13442E2183F843100FE0594B13442E2183F8611009E0564B13442E2118
:402B400083F87F1003E04F4B13442E21D97201202E210BF0FDFA4C4BDB78DBB2682B4BD14A4B1A780132D2B21A70494B1B78042B3ED8DFE803F0030F1D2B3900464B1B7810
:402B8000012B02D12020454988548BBB2021414B99542DE0404B1B78012B02D12020404988542BBB3B4B1344202183F843101FE0394B1B78012B02D120203A498854BBB9A3
:402BC000344B1344202183F8611011E0324B1B78012B02D12020344988544BB92D4B1344202183F87F1003E0264B13442021D972012020210BF0ACFA234BDB78DBB21A2B4E
:402C000040F28C80204BDB78DBB2422B00F286800022264B1A607CE01B4AD278D2B224491944097A8A4270D118490A780132D2B20A7017490978042961D8DFE801F0031288
:402C40003B4B5B0014490878012803D103F14101124CA154002852D103F141010D4881544DE00D490878012803D103F141010C4CA154002843D10749114403F1410081F853
:402C800043003CE07888FF1F788CFF1FF185FF1F3C86FF1F1889FF1F6A8AFF1FC885FF1F2084FF1F088BFF1FD885FF1F2C84FF1F0C81FF1FA3490878012803D103F14101BF
:402CC000A14CA154D8B9A149114403F1410081F8610014E09B490878012803D103F141019B4CA15458B99949114403F1410081F87F0004E09749114403F14100C87203F1BB
:402D000041010120C9B20BF023FA934A136801331360914B1B68192B7FF67EAF8F4BDB78DBB20B2B6DD18E4B1A78002A61D1012070210AF0ADFB402020210BF08BFB0022CC
:402D4000854B1A6008E0874AD15C804A1A4482F843100133804A1360824B1A787E4B1B689A42F0D2802020210BF074FB00227A4B1A6008E07B4AD15C744A1A4482F86110E7
:402D80000133754A1360774B1A78734B1B689A42F0D2A02020210BF05DFB00226E4B1A6008E0704AD15C694A1A4482F87F100133694A13606B4B1A78674B1B689A42F0D273
:402DC000002020210BF046FB0022634B1A6006E0644AD15C5D4AD15401335F4A1360614B1A785D4B1B689A42F2D20E225E4B1A7007E0012020210BF0ABF9594A1378013B51
:402E00001370564BDB78DBB20C2B40F0E880012039210AF03DFB4FF4FA700FF0EFFA012070210AF035FB0E224F4B1A704F4B1B78042B00F2D480DFE803F0032E5A9FC70000
:402E4000404B1B78012B07D14949454B1B780B7040F26A400BF0C0FA3A4B1B78002B40F0BE803A493E4B1B780B7000200BF0B4FA002840F0B480012055210AF009FB4FF477
:402E8000FA700FF0BBFA01202E210AF001FB0022354B1A70A3E02B4B1B78012B07D135492F4B1B780B7040F275400BF095FA254B1B78002B40F09380294B1B78234901F87E
:402EC000433F40200BF088FA002840F08880012055210AF0DDFA4FF4FA700FF08FFA01202E210AF0D5FA00221F4B1A7077E0154B1B78012B07D11449194B1B780B7040F2D8
:402F0000DC500BF069FA0F4B1B78002B67D1144B1B780E4901F8613F80200BF05DFA00285DD1012055210AF0B3FA4FF4FA700FF065FA01202E210AF0ABFA00220A4B1A7034
:402F40004DE000BF6A8AFF1F088BFF1F1889FF1FD885FF1F7888FF1F2C84FF1F788CFF1FF185FF1FF885FF1F2F83FF1F3C86FF1FC885FF1F2084FF1FB34B1B78012B07D1B9
:402F8000B249B34B1B780B7040F28B400BF024FAAD4B1B781BBBAE4B1B78AE4901F87F3FA0200BF019FAD0B9012055210AF070FA4FF4FA700FF022FA01202E210AF068FA73
:402FC0000022A54B1A700AE0A14B1A78A34BDA72012039210AF05CFA24229F4B1A7064200FF00CFA0EF0ACFD38BD0EF07FFD082841F0D2839A4B1B78DBB2AA2B40F0C0806F
:40300000974B9B79DBB2C32B40F0BA80944BDB79DBB23C2B40F0B4808D4B1B78062B25D88F4AD278D2B2092A0FD80133DAB2884B1A708B48C178894B13443031D972C17897
:4030400030310120C9B20AF05BFA854BDB78DBB20A2B0BD17E4B1A780132D2B21A707F4B13443021D97201200AF04AFA7C4BDB78DBB20B2B1BD1764B1A783AB901207021CA
:403080000AF006FA0E22744B1A7010E0012020210AF036FA6E4B1B78704A1A44D27A2C2A02D100216F4A1170013B694A13706C4BDB78DBB20C2B63D1654B1B78032B5FD9D0
:4030C0000622654B1A70012039210AF0E1F9604B1A78624BDA72644B187809F0AFFD00283FD05C4B93F8A320604B1B789A4204D140F2A7105E490BF06FF9564B93F8A32008
:403100005C4B1B789A4204D140F2B31058490BF063F9504B93F8A320574B1B789A4204D140F2AD1052490BF057F94A4B93F8A320524B1B789A4204D14FF47A704C490BF092
:403140004BF901203C210AF0A3F94FF4FA700FF055F9012070210AF09BF90E223E4B1A700EE0012055210AF093F94FF4FA700FF045F901202E210AF08BF90022364B1A706A
:4031800064200FF03BF90EF0DBFC38BD0EF0AEFC082841F00183324B1B78DBB2AA2B40F086802F4B9B79DBB2C32B40F080802C4BDB79DBB23C2B7AD1294BDB78DBB2802B17
:4031C0002FD004D87E2B63D07F2B06D06FE0822B56D031D3942B63D069E0012058210AF057F901200021732240F2C3130AF0AEFB01200021CF2240F2C5130AF0A7FB0120D7
:403200000146292240F2C1130AF0A0FB012001467B2240F2EE330AF099FB1C220E4B1A7045E0012006210AF033F90022084B1A701D22094B1A703AE001206D210AF028F9C7
:403240001E22054B1A7032E06A8AFF1FD885FF1FF185FF1F1889FF1F2F83FF1F7888FF1F788CFF1F3283FF1F048AFF1F6B8AFF1F8388FF1F538AFF1F7688FF1FF085FF1FCD
:4032800001208A210AF004F92A22AB4B1A700EE001202E210AF0FCF80022A74B1A7006E0012070210AF0F4F80E22A34B1A7064200FF0A4F80EF044FC38BD0EF017FC0828DC
:4032C00041F06A829D4B1B78DBB2AA2B65D19B4B9B79DBB2C32B60D1984BDB79DBB23C2B5BD1964BDB78DBB2802B1AD004D87E2B44D07F2B06D050E0822B30D020D3942BA3
:4033000044D04AE0012006210AF0C2F800228C4B1A7001228B4B83F8A3201F22864B1A703BE0012006210AF0B3F80022844B1A700222844B83F8A3201F227F4B1A702CE0A8
:40334000012006210AF0A4F800227D4B1A7003227C4B83F8A3201F22774B1A701DE0012006210AF095F80022754B1A700422754B83F8A3201F22704B1A700EE001202E2104
:403380000AF086F800226C4B1A7006E0012070210AF07EF80E22684B1A7064200FF02EF80EF0CEFB38BD0EF0A1FB082841F0F481624B1B78DBB2AA2B40F0B8805F4B9B7920
:4033C000DBB2C32B40F0B2805C4BDB79DBB23C2B40F0AC80594BDB78DBB2942B06D1012070210AF055F80E22534B1A70544B1B78042B36D8514AD278D2B2092A0FD8013314
:40340000DAB24F4B1A704D48C1784F4B13443031D972C17830310120C9B20AF071F8474BDB78DBB20A2B0BD1454B1A780132D2B21A70454B13443021D97201200AF060F8FC
:403440003E4BDB78DBB2512B0BD13D4B1A780132D2B21A703C4B13442C21D97201200AF04FF8364BDB78DBB20B2B1BD1344B1A783AB9012070210AF00BF80E222E4B1A70EF
:4034800010E0012020210AF03BF82D4B1B782E4A1A44D27A2C2A02D100212C4A1170013B274A1370254BDB78DBB20C2B3ED1244B1B78052B3AD1244B1B7B353BDBB2022BED
:4034C00034D80120392109F0E3FF1D4B1B781E4901F80B3F4FF4DD700AF07EFF012805D1194B1B7B03F00F03194A137040F25A2018490AF071FF012818D1134A937B03F0F3
:403500000F0315490B70137C03F00F03134A13703C2109F0BDFF4FF4FA700EF06FFF0120702109F0B5FF0E22034B1A7064200EF065FF0EF005FB38BD2F83FF1F788CFF1FCF
:40354000F185FF1F1889FF1F7888FF1F3283FF1FD485FF1F8388FF1F1C84FF1F528AFF1F0EF0C4FA082841F01781A74B1B78DBB2AA2B40F08780A44B9B79DBB2C32B40F02E
:403580008180A14BDB79DBB23C2B7BD19E4BDB78DBB28F2B08D002D87E2B64D072E0902B31D0942B67D06DE09849002381F82D3081F82E304FF4DE702D310AF00DFF012858
:4035C00011D10022924B1A703C2109F061FF4FF4FA700EF013FF0120702109F059FF0E228C4B1A704EE00120552109F051FF4FF4FA700EF003FF01202E2109F049FF0022CB
:40360000844B1A703EE08149012381F82D3081F82E304FF4DE702D310AF0DEFE012812D101247B4B1C7020463C2109F031FF4FF4FA700EF0E3FE0E22764B1A702046702146
:4036400009F026FF1EE00120552109F021FF4FF4FA700EF0D3FE01202E2109F019FF00226C4B1A700EE001202E2109F011FF0022684B1A7006E00120702109F009FF0E228F
:40368000644B1A7064200EF0B9FE0EF059FA38BD0EF02CFA082841F07F805B4B1B78DBB2AA2B40F0AA80584B9B79DBB2C32B40F0A480554BDB79DBB23C2B40F09E80564B7C
:4036C0001B782BBB504AD278D2B2092A0FD80133DAB2514B1A704C48C178504B13443031D972C17830310120C9B209F009FF464BDB78DBB20A2B0BD1474B1A780132D2B2EA
:403700001A70464B13443021D972012009F0F8FE3D4BDB78DBB20B2B1BD13F4B1A783AB901202E2109F0B4FE00223A4B1A7010E00120202109F0E4FE374B1B78374A1A4465
:40374000D27A2C2A02D10021354A1170013B324A13702D4BDB78DBB20C2B4ED12E4B1B78012B4AD10120392109F092FE2A4B1A782A4BDA72254B93F8A330012B08D1274968
:403780000A7B284B1A7040F2C1100B310AF024FE1E4B93F8A330022B08D120490A7B224B1A7040F2C3100B310AF016FE174B93F8A330032B08D119490A7B1C4B1A7040F25A
:4037C000C5100B310AF008FE104B93F8A330042B08D112490A7B164B1A7040F2EE300B310AF0FAFD4FF4FA700EF008FE0120702109F04EFE0E22074B1A7064200EF0FEFD7E
:403800000EF09EF938BD00BF788CFF1F1889FF1F3587FF1F2F83FF1FF185FF1F7888FF1F3283FF1F538AFF1F6B8AFF1F7688FF1FF085FF1F0EF05AF9082840F0AD87CD4B75
:403840001B78DBB2AA2B40F00082CA4B9B79DBB2C32B40F0FA81C74BDB79DBB23C2B40F0F481C44BDB787E3B252B00F2EE81DFE813F0D401EC01EC01EC01EC01EC01A101A5
:4038800087014000FD007600260091006701EC01EC01EC01EC01EC01EC01EC01EC01BB01EC01EC01C7003101AC00EC01EC01EC01EC01EC01EC0116015B00E2004C01AE49E5
:4038C00001230B704B7040F2C7100AF085FD012840F0BB813C2109F0DBFD4FF4FA700EF08DFD0120702109F0D3FD0E22A34B1A70ABE1A14901230B7002234B7040F2C710D0
:403900000AF06AFD012840F0A0813C2109F0C0FD4FF4FA700EF072FD0120702109F0B8FD0E22964B1A7090E1934901230B7003234B7040F2C7100AF04FFD012840F0858109
:403940003C2109F0A5FD4FF4FA700EF057FD0120702109F09DFD0E22884B1A7075E1864901230B7004234B7040F2C7100AF034FD012840F06A813C2109F08AFD4FF4FA70D6
:403980000EF03CFD0120702109F082FD0E227B4B1A705AE1784901230B7005234B7040F2C7100AF019FD012840F04F813C2109F06FFD4FF4FA700EF021FD0120702109F030
:4039C00067FD0E226D4B1A703FE16B4901230B7006234B7040F2C7100AF0FEFC012840F034813C2109F054FD4FF4FA700EF006FD0120702109F04CFD0E22604B1A7024E1DC
:403A00005D4901230B7007234B7040F2C7100AF0E3FC012840F019813C2109F039FD4FF4FA700EF0EBFC0120702109F031FD0E22524B1A7009E1504901230B7008234B7031
:403A400040F2C7100AF0C8FC012840F0FE803C2109F01EFD4FF4FA700EF0D0FC0120702109F016FD0E22454B1A70EEE0424901240C7009234B7040F2C7100AF0ADFC2046C5
:403A80003C2109F005FD4FF4FA700EF0B7FC2046702109F0FDFC0E22384B1A70D5E0364901230B700A234B7040F2C7100AF094FC012840F0CA803C2109F0EAFC4FF4FA7050
:403AC0000EF09CFC0120702109F0E2FC0E222B4B1A70BAE0284901230B700B234B7040F2C7100AF079FC012840F0AF803C2109F0CFFC4FF4FA700EF081FC0120702109F0F0
:403B0000C7FC0E221D4B1A709FE01B4901230B700C234B7040F2C7100AF05EFC012840F094803C2109F0B4FC4FF4FA700EF066FC0120702109F0ACFC0E22104B1A7084E08B
:403B40000D4901230B700D234B7040F2C7100AF043FC012879D13C2109F09AFC4FF4FA700EF04CFC0120702109F092FC0E22034B1A706AE0788CFF1FE885FF1F2F83FF1FC9
:403B8000BD4901230B700E234B7040F2C7100AF023FC012859D13C2109F07AFC4FF4FA700EF02CFC0120702109F072FC0E22B34B1A704AE0B04901230B700F234B7040F2AE
:403BC000C7100AF009FC01283FD13C2109F060FC4FF4FA700EF012FC0120702109F058FC0E22A64B1A7030E0A34900230B704B7040F2C7100AF0F0FB012826D13C2109F0E8
:403C000047FC4FF4FA700EF0F9FB0120702109F03FFC0E22994B1A7017E0974900230B704B7040F2C7100AF0D7FB012806D1702109F02EFC0E22914B1A7006E001202E2179
:403C400009F026FC00228D4B1A7064200EF0D6FB0DF076FF38BD0DF049FF082840F09C85874B1B78DBB2AA2B4ED1854B9B79DBB2C32B49D1824BDB79DBB23C2B44D1804BD1
:403C8000DB78DBB20A2B2ED101227E4B1A6010E07D4B58787D4B197801227D4B1B780BF095FC4FF4FA700EF0A9FB764A136801331360784B1B7803F00F03724A1268934208
:403CC000E6D201200C2109F0E3FB4FF4FA700EF095FB0024704BDC7001202E2109F0D8FB664B1C7010E001200C2109F0D1FB4FF4FA700EF083FB0024674BDC7001202E214A
:403D000009F0C6FB5D4B1C7064200EF077FB0DF017FF38BD0DF0EAFE082840F03D85584B1B78DBB2AA2B5DD1554B9B79DBB2C32B58D1534BDB79DBB23C2B53D1504BDB787C
:403D4000DBB2392B10D002D8382B05D04AE07E2B41D0942B34D045E001202E2109F098FB0022464B1A703DE001203B2109F090FB454C60780CF0CEFE60780A210AF0B4FB60
:403D800060780A210AF0B0FB60780A210AF0ACFB60781D210AF0A8FB607856210AF0A4FB607831210AF0A0FB4FF4FA700EF026FB01202E2109F06CFB0022304B1A7011E0A9
:403DC00001202F2109F064FB0022344B1A7028222A4B1A7006E001202E2109F059FB0022264B1A7064200EF009FB0DF0A9FE38BD0DF07CFE082840F0CF84214B1B78DBB2F1
:403E0000AA2B60D11E4B9B79DBB2C32B5BD11C4BDB79DBB23C2B56D1194BDB78DBB2912B08D002D87E2B3FD04DE0922B13D0942B42D048E001200A2109F02AFB0122184B62
:403E40001A700422174B1A700022144B1A7018220A4B1A7037E001206F2109F019FB21220F4B1A7004220F4B1A7000220B4B1A701822024B1A7026E0E885FF1F2F83FF1F08
:403E8000788CFF1FF485FF1F7488FF1F7788FF1F048AFF1F048BFF1F7888FF1FF185FF1F2887FF1F3C86FF1F01202E2109F0F0FA0022B94B1A7006E00120702109F0E8FAE4
:403EC0000E22B54B1A7064200EF098FA0DF038FE38BDB24B012013F80B1FB14A12780AF0E5FD01282CD16E2109F0D2FA2322AA4B1A70012001460AF025FC052810D90A2017
:403F00000EF07CFA01200AF09FF8012021210AF019FC052840F2408401200AF013F838BD0120552109F0B4FA4FF4FA700EF066FA01202E2109F0ACFA0022974B1A7038BDD0
:403F40000120552109F0A4FA4FF4FA700EF056FA01202E2109F09CFA00228F4B1A7038BD0DF0C4FD082840F017848E4B1B78DBB2AA2B7AD18B4B9B79DBB2C32B75D1894B4D
:403F8000DB79DBB23C2B70D1864BDB78DBB2392B08D002D8382B39D067E07E2B3ED0942B5CD062E0804B5A78012A07D17F4901230B704B707E490B7002234B70022A08D131
:403FC0007A4B01221A7003215970794B1A7004225A7040F2632075490AF0FEF9012844D140F2652072490AF0F7F901283DD1682109F04EFA4FF4FA700EF000FA01207021CE
:4040000009F046FA0E22644B1A702EE02622624B1A700120672109F03BFA26E0654B5B78012B03D10022634B5A7002E00122614B5A7040F2DA305F490AF0CEF901203C21B9
:4040400009F026FA4FF4FA700EF0D8F901202E2109F01EFA0022504B1A7006E00120702109F016FA0E224C4B1A7064200EF0C6F90DF066FD38BD0DF039FD082840F08C83B9
:40408000484B1B78DBB2AA2B40F0C980454B9B79DBB2C32B40F0C380424BDB79DBB23C2B40F0BD803F4BDB78DBB28D2B41D005D87E2B00F0A5808C2B06D0B0E08E2B7BD03C
:4040C000942B00F0A580AAE0374B5B78012B07D1364A0120107002215170354A10705170022B07D1314B0121197004225A70304B19705A7040F263202C490AF06DF90128A7
:4041000040F08D8040F2652029490AF065F9012840F085806A2109F0BBF94FF4FA700EF06DF90E221C4B1A700120702109F0B0F975E01D4B5A78012A06D11C4901230B7010
:404140004B701B490B704B70022A07D1174B0121197003225A70164B19705A7040F2632012490AF039F9012859D140F2652010490AF032F9012852D1692109F089F94FF4DE
:40418000FA700EF03BF90120702109F081F90E22014B1A7043E000BF2F83FF1F7888FF1F2887FF1F788CFF1F6C88FF1F7488FF1F1489FF1F2C83FF1F96490120087000222B
:4041C0004A70954B18705A7040F263200AF004F9012824D140F265208F490AF0FDF801281DD16C2109F054F94FF4FA700EF006F90120702109F04CF90E22884B1A700EE08C
:4042000001202E2109F044F90022844B1A7006E00120702109F03CF90E22804B1A7064200EF0ECF80DF08CFC38BD0DF05FFC082840F0B2827A4B1B78DBB2AA2B40F0E380F9
:40424000774B9B79DBB2C32B40F0DD80744BDB79DBB23C2B40F0D780724B1A78032A26D86F4BDB78DBB2092B0ED86D4BD9786E4B1344303183F88E1001202A2109F040F973
:40428000684A137801331370654BDB78DBB20A2B0DD1644C2278644B1344302183F88E1001202A2109F02CF92378013323705C4BDB78DBB20B2B1AD15A4B1B787BB901208C
:4042C000552109F0E5F84FF4FA700EF097F801202E2109F0DDF80022504B1A7007E0013BDAB2504B1A700120202109F009F94C4BDB78DBB20C2B40F086804A4B1A78002A4D
:4043000072D0002349490B6049490B6012E0591C4848405C444C234493F88E30984204D1424803680133036002E000203F4B18603F4B196010463E4B1B689A42E7D83D4B84
:404340001A783A4B1B689A420FD10120262109F09FF84FF4FA700EF051F822222F4B1A700120712109F094F84DE000232F4A13602F4A136010E02F4A1A4492F824102A4A5A
:404380001A4492F88E20914203D128490A6801320A600133264A1360254B1B689842EAD8224B1B68042B0FD10120262109F070F84FF4FA700EF022F82222184B1A700120BB
:4043C000712109F065F81EE00120272109F060F84FF4FA700EF012F801202E2109F058F800220E4B1A700EE00120272109F050F84FF42F700EF002F801202E2109F048F88F
:404400000022064B1A7064200DF0F8FF0DF098FB38BD00BF7488FF1F1489FF1F2F83FF1F788CFF1FF185FF1F7888FF1F3887FF1F2C84FF1F0C81FF1F0DF058FB082840F044
:40444000AB81AB4B1B78DBB2AA2B40F0A980A84B9B79DBB2C32B40F0A380A54BDB79DBB23C2B40F09D80A34B1A78032A27D8A04BDB78DBB2092B10D89D48C1789E4B134481
:40448000303183F88E10C17830310120C9B209F037F8984A137801331370954BDB78DBB20A2B0CD1934C2278934B1344302183F88E10012009F024F82378013323708C4BA7
:4044C000DB78DBB20B2B1AD18A4B1B787BB90120552108F0DDFF4FF4FA700DF08FFF01202E2108F0D5FF0022844B1A7007E0013BDAB2804B1A700120202109F001F87C4BA6
:40450000DB78DBB20C2B4BD17A4B1B78042B47D10120392108F0BCFF4FF4FA700DF06EFF0024764B1C7001203C2108F0B1FF714B1A78734B1A70734B1C6008E0591C6E48EA
:40454000034493F88E006E4B58546E4B19606D4B1B689A42F2D840F29F20694909F03CFF78B90120552108F093FF4FF4FA700DF045FF01202E2108F08BFF00225F4B1A7004
:404580000EE001203C2108F083FF4FF4FA700DF035FF01202E2108F07BFF0022574B1A7064200DF02BFF0DF0CBFA38BD0DF09EFA082840F0F1804E4B1B78DBB2AA2B5FD181
:4045C0004B4B9B79DBB2C32B5AD1494BDB79DBB23C2B55D1464BDB78DBB2BC2B08D002D87E2B46D04CE0BD2B1AD0BE2B31D047E0454901240C704C704FF47D7009F0ECFE93
:404600002046392108F044FF4FF42F700DF0F6FE2046702108F03CFF0E22384B1A702FE0394901240C7002234B704FF47D7009F0D3FE2046392108F02BFF4FF42F700DF078
:40464000DDFE2046702108F023FF0E222B4B1A7016E00120062108F01BFF01222B4B1A700023244A13702A4A13700522234B1A7006E00120702108F00BFF0E221F4B1A70C3
:4046800064200DF0BBFE0DF05BFA38BD0DF02EFA082840F08180164B1B78DBB2AA2B76D1134B9B79DBB2C32B71D1114BDB79DBB23C2B6CD10E4BDB78763B0D2B67D8DFE8AB
:4046C00003F0074E6666666666665F6666662D3D0120302108F0DCFE00230E4A1370054A137001220C4B1A701822044B1A704EE0788CFF1FF185FF1F7888FF1F2F83FF1F16
:404700000C81FF1F2C84FF1F6C88FF1F7088FF1F3283FF1F3C86FF1F6A8AFF1F0120302108F0B6FE01231D4A137000211C4A11701C4A137018221C4B1A7028E00120302151
:4047400008F0A6FE0222154B1A700022144B1A700122144B1A701822134B1A7017E00120302108F095FE03220C4B1A7000220C4B1A7001220B4B1A7018220B4B1A7006E056
:4047800001205F2108F084FE1B22074B1A7064200DF034FE0DF0D4F938BD00BF3C86FF1FF185FF1F6A8AFF1F2F83FF1F10B5A34B1B78212B01F24683DFE813F022009C0068
:4047C000F800440B5201CC016102D402440B680337047A04E70466058F057206440B440B440B8707440B440B440B440B440B440B2D08FE08AB09440B440B230A440BE90AF3
:404800008F4B1B78012B03D18E4B1A788B4B1A708D4B1B78012B06D18C4B1A788C4B1A7001228C4B1A700DF061F9082841F00A83894B1B78DBB2AA2B56D1874B9B79DBB2DC
:40484000C32B51D1844BDB79DBB23C2B4CD1824BDB78DBB2562B02D0572B1FD044E07A4B1B78012B04D1794B1A78794B1A7008E00120632108F00CFE0123764A1370744AAE
:4048800013706F4B1B78012B04D16E4B1A786B4B1A7029E00022694B1A7025E00120632108F0F6FD02226B4B1A70674B1B78012B04D1664B1A78664B1A7002E00022644BC3
:4048C0001A705F4B1B78012B04D15E4B1A785B4B1A7009E00120632108F0DAFD02225D4B1A700122554B1A7064200DF087FD0DF027F910BD0DF0FAF8082841F0A382564B80
:404900001B78DBB2AA2B4BD1534B9B79DBB2C32B46D1514BDB79DBB23C2B41D14E4BDB78DBB25C2B0AD004D8452B0FD0592B18D036E07E2B25D0942B2BD031E001204921B1
:4049400008F0A6FD02223D4B1A7029E00120252108F09EFD0022414B1A700F22374B1A701EE001202B2108F093FD4FF42F700DF045FD01202E2108F08BFD00222F4B1A70C4
:404980000EE001202E2108F083FD00222B4B1A7006E001202E2108F07BFD0022274B1A7064200DF02BFD0DF0CBF810BD0DF09EF8082841F04782284B1B78DBB2AA2B36D1B9
:4049C000254B9B79DBB2C32B31D1234BDB79DBB23C2B2CD1204BDB78DBB25F2B08D002D85E2B0DD023E07E2B12D0942B18D01EE001200B2108F04CFD0A22104B1A7016E04E
:404A000001201D2108F044FD0B220C4B1A700EE001202E2108F03CFD0022084B1A7006E00120632108F034FD0122044B1A7064200DF0E4FC0DF084F810BD00BFEC85FF1F9D
:404A4000C785FF1F3083FF1F508AFF1FEF85FF1F2F83FF1F1089FF1F788CFF1FF185FF1F0DF044F8082841F0ED81A94B1B78DBB2AA2B69D1A64B9B79DBB2C32B64D1A44B65
:404A8000DB79DBB23C2B5FD1A24AD37823F00303D3709F4BDB78DBB23B2B3ED004D80F2B09D0102B1BD04FE07E2B3ED0942B44D0432B49D129E00120062108F0E9FC002207
:404AC000954B1A700120242108F01AFD914AD37843F00203D3700522904B1A7034E001200D2108F0D5FC00228B4B1A708C4B1A700120472108F004FD864AD37843F00103C7
:404B0000D3700522854B1A701EE00120072108F0BFFC0622814B1A7016E001202E2108F0B7FC00227D4B1A700EE001202E2108F0AFFC0022794B1A7006E001200B2108F018
:404B4000A7FC0A22754B1A7064200DF057FC0CF0F7FF10BD0CF0CAFF082841F073816C4B1B78DBB2AA2B40F08480694B9B79DBB2C32B7ED1664BDB79DBB23C2B79D1664B09
:404B80001B78684A1278013A93423EDC604AD278D2B2092A0FD80133DAB25F4B1A705C48C1785C4B13443031D972C17830310120C9B208F0A5FC564BDB78DBB20A2B0BD18E
:404BC000554B1A780132D2B21A70524B13443021D972012008F094FC4D4BDB78DBB2512B13D14D4B1B7883B14D4A12786AB90133DAB2494B1A70474B13442C21D97201200E
:404C000008F07EFC0122464B1A70414BDB78DBB20B2B1BD1404B1A783AB90120052108F037FC04223D4B1A7010E00120202108F067FC394B1B78374A1A44D27A2C2A02D164
:404C40000021374A1170013B334A1370304BDB78DBB20C2B0DD1304B1B7853B10120072108F016FC2C4B1A782A4BDA7206222B4B1A7064200DF0C2FB0CF062FF10BD0CF0AA
:404C800035FF082820D1224B1B78DBB2AA2B15D11F4B9B79DBB2C32B10D11D4BDB79DBB23C2B0BD11A4BDB78DBB27E2B06D101202E2108F0EDFB0022184B1A7064200DF04C
:404CC0009DFB0CF03DFF10BD174B187804F072F8072841F0B78032200DF090FB124B187804F07CF80146114B18700A4BDB7813F003031FD00C4A10780D4A07F05DFDC8B92F
:404D000001202E2108F0C4FB0022044B1A7010BD788CFF1F6C8AFF1FF185FF1FEC85FF1F3283FF1FD485FF1F3483FF1FC085FF1F778AFF1F9F4C207804F050F89E4B18705A
:404D4000207840F010000CF08BFD0120082108F09FFB0723994A1370994A13700122994B1A7010BD32200DF049FB924B187804F021F80638052801F26580DFE810F0700020
:404D8000630863087C003B00060064200DF036FB884B187804F096F801280ED18A4B1B785BB9392108F074FB0022864B1A7014200DF024FB0D22814B1A707E4B187804F0E5
:404DC00081F8012841F03E807F4B1B78012B41F039800C2108F05CFB00247A4B1C704FF4FA700DF00BFB01202E2108F051FB734B1C7010BD64200DF001FB6E4B187804F089
:404E000061F801280ED1704B1B785BB9392108F03FFB00226B4B1A7014200DF0EFFA0D22664B1A70634B187804F04CF8012841F00980654B1B78012B41F004800C2108F09B
:404E400027FB00245F4B1C704FF4FA700DF0D6FA01202E2108F01CFB584B1C7010BD01202E2108F015FB0023564A1370574AD370524A137010BD32200DF0C0FA01202E21BA
:404E800008F006FB00224D4B1A7010BD0CF02EFE082840F0D7874E4B1B78DBB2AA2B40F0BE804B4B9B79DBB2C32B40F0B880484BDB79DBB23C2B40F0B280464B1B78062BE7
:404EC00065D8434AD278D2B2092A10D80133DAB2404B1A703E48C1783C4B1344303183F86510C17830310120C9B208F009FB384BDB78DBB20A2B0CD1364B1A780132D2B2CB
:404F00001A70324B1344302183F86510012008F0F7FA2F4BDB78DBB26A2B0CD12D4B1A780132D2B21A70294B13442D2183F86510012008F0E5FA264BDB78DBB21A2B26D91B
:404F4000234BDB78DBB2422B21D80022224B1A6019E01F4AD278D2B220491944097A8A420DD11C490A780132D2B20A704133D9B2164B134483F86510012008F0C1FA164A5E
:404F8000136801331360144B1B68192BE1D9104BDB78DBB20B2B2BD10E4B1A7802BB01202E2108F075FA0023084A82F86530034A13701DE03483FF1FC085FF1FEC85FF1FEB
:404FC0003083FF1FC785FF1F8083FF1F6C8AFF1F788CFF1FF185FF1F2C84FF1F0C81FF1F0120202108F08CFAA14A1378013B1370A04BDB78DBB20C2B11D19D4B1B7873B17A
:405000000120052108F044FA9B4B994A127883F86520012283F883200422984B1A7064200DF0ECF90CF08CFD10BD0CF05FFD082840F008878F4B1B78DBB2AA2B32D18D4B23
:405040009B79DBB2C32B2DD18A4BDB79DBB23C2B28D1884BDB78DBB2392B04D07E2B1AD0382B1FD10CE001200A2108F011FA00237F4A1370824A13700922804B1A7011E052
:405080000120052108F004FA01227D4B1A7004227A4B1A7006E001202E2108F0F9F90022764B1A7064200DF0A9F90CF049FD10BD0320012109F046FB052840D90A200DF0FE
:4050C0009DF90320212109F03DFB052837D9032009F02EFA012832D133200CF04FFD0120332109F089FA50B30022664B1A600AE0012009F0EBFA604B1C4484F82900614AB7
:405100001368013313605F4B1C68072CF0D90120132108F0BDF9584CE37843F00403E3704FF4FA700DF06AF901200E2108F0B0F900234F4A137023710C22504B1A700CF074
:40514000D5FC082840F07E864A4B1B78DBB2AA2B15D1484B9B79DBB2C32B10D1454BDB79DBB23C2B0BD1434BDB78DBB23B2B06D10120492108F08CF90222404B1A70642063
:405180000DF03CF90CF0DCFC10BD0CF0AFFC082840F05886374B1B78DBB2AA2B62D1354B9B79DBB2C32B5DD1324BDB79DBB23C2B58D12F4B1B78052B25D82E4AD278D2B2E2
:4051C000092A0FD80133DAB2294B1A702948C178294B134430311971C17830310120C9B208F08EF9234BDB78DBB20A2B0BD1204B1A780132D2B21A701F4B13443021197189
:40520000012008F07DF91B4BDB78DBB20B2B12D1174B1A783AB90120052108F039F90422164B1A7007E00120202108F069F9104A1378013B13700F4BDB78DBB20C2B11D17D
:405240000B4B1B7873B10C4B5B79302B0AD00120052108F01DF9064B1A78074B1A710422064B1A7064200DF0C9F80CF069FC10BDF185FF1F788CFF1F6C8AFF1FEC85FF1FE2
:405280008083FF1FF485FF1F974B5878974B19780022974B1B780AF099F9964B5B788BB901200C2108F0F4F84FF42F700DF0A6F80024914BDC7001202E2108F0E9F88F4BD8
:4052C0001C7010BD0120312108F0E2F800228C4B1A702122894B1A7010BD0CF007FC082840F0B085874B1B78DBB2AA2B40F0D280844B9B79DBB2C32B40F0CC80814BDB7948
:40530000DBB23C2B40F0C6807E4BDB78583B3E2B00F2C080DFE803F020BE5464BE30BEBEBEBEBEBEBE7FBEBEBEBEBEBEBEBEBEBE9FBEBEBEBEBEBEBEBEBEBEBEBEBEAFBEAC
:40534000BEBEBEBEBEBEBEBEBEBEBEBEBEBEBEBEBEBEBE8FB7BE740001202B2108F098F84FF42F700DF04AF80120702108F090F80E22624B1A708DE001205C2108F088F869
:4053800001200021D62240F2AD1308F07DFA01200021892240F2A71308F076FA01200146242240F2B31308F06FFA0120014678224FF47A7308F068FA1322504B1A7069E0DB
:4053C00001202B2108F064F84FF42F700DF016F80120702108F05CF80E22484B1A7059E001202B2108F054F84FF42F700DF006F80120702108F04CF80E22404B1A7049E091
:4054000001205F2108F044F800223F4B1A701B223A4B1A703EE001202B2108F039F84FF42F700CF0EBFF0120702108F031F80E22324B1A702EE001202B2108F029F84FF4B8
:405440002F700CF0DBFF0120702108F021F80E222A4B1A701EE001202B2108F019F84FF42F700CF0CBFF0120702108F011F80E22224B1A700EE001202E2108F009F8002256
:405480001E4B1A7006E001202E2108F001F800221A4B1A7064200CF0B1FF0CF051FB10BD0CF024FB082840F0CD84164B1B78DBB2AA2B40F00481134B9B79DBB2C32B40F068
:4054C000FE80104BDB79DBB23C2B40F0F8800D4BDB78DBB27E2B19D10120312107F0D8FF0022064B1A701DE07488FF1FC085FF1F3483FF1F2C83FF1F6C8AFF1FEC85FF1F1B
:405500001189FF1F788CFF1FF185FF1FA24BDB78DBB2942B06D10120632107F0B9FF01229E4B1A709E4B1A78072A26D89A4BDB78DBB2092B0ED8984BD9789A4B1344303156
:4055400083F88E1001202A2107F0DAFF944A137801331370904BDB78DBB20A2B0DD1904C2278904B1344302183F88E1001202A2107F0C6FF237801332370874BDB78DBB29A
:405580000B2B1AD1864B1B787BB90120392107F07FFF4FF4FA700CF031FF01202E2107F077FF00227D4B1A7007E0013BDAB27C4B1A700120202107F0A3FF774BDB78DBB27B
:4055C0000C2B7CD1764B1A78002A36D0002376490B6076490B6015E0581C7549014491F8D710704C234493F88E30303B994204D16D490B6801330B6002E000216A4B1960D1
:405600006A4B1860694B1B689A42E5D8684B93F8D720654B1B689A420BD10120262107F037FF4FF4FA700CF0E9FE0120702107F02FFF0E22594B1A7041E000235A490B60A1
:405640005A490B6010E05B49194491F824005549194491F88E10884203D15348016801310160013351490B60504B1B689A42EAD84D4B1B68082B13D10120262107F008FF9A
:405680004FF4FA700CF0BAFE01205D2107F000FF0120702107F0FCFE0E22404B1A700EE00120272107F0F4FE4FF4FA700CF0A6FE01202E2107F0ECFE0022384B1A7064207B
:4056C0000CF09CFE0CF03CFA10BD0CF00FFA082840F0B883304B1B78DBB2AA2B40F095802D4B9B79DBB2C32B40F08F802A4BDB79DBB23C2B40F08980274BDB787E3B162BC5
:4057000000F28380DFE803F0720C20345E81818181818181818181818181818181817A000120062107F0B4FE00221D4B1A70224B19781F4B83F8A3100120242107F0E0FEA9
:405740001A22164B1A7060E00120062107F0A0FE0022134B1A70194B1978154B83F8A3100120242107F0CCFE1A220C4B1A704CE00120062107F08CFE0022094B1A70104BC4
:4057800019780B4B83F8A3100120242107F0B8FE1A22024B1A7038E0788CFF1FEC85FF1FF185FF1F6C8AFF1F3887FF1F2C84FF1F1889FF1F0C81FF1F3287FF1F3787FF1F75
:4057C0001689FF1F0120062107F062FE0022AA4B1A70AA4B1978AA4B83F8A3100120242107F08EFE1A22A74B1A700EE001202E2107F04EFE0022A34B1A7006E0012070218F
:4058000007F046FE0E229F4B1A7064200CF0F6FD0CF096F910BD0CF069F9082840F01283994B1B78DBB2AA2B40F0C080964B9B79DBB2C32B40F0BA80934BDB79DBB23C2B22
:4058400040F0B4808C4B1B78062B25D88E4AD278D2B2092A0FD80133DAB2874B1A708A48C1788A4B13443031D972C17830310120C9B207F045FE844BDB78DBB20A2B0BD13D
:405880007D4B1A780132D2B21A70804B13443021D972012007F034FE7B4BDB78DBB20B2B1BD1754B1A783AB90120702107F0F0FD0E22744B1A7010E00120202107F020FEC2
:4058C0006D4B1B78714A1A44D27A2C2A02D100216F4A1170013B684A13706B4BDB78DBB20C2B63D1644B1B78032B5FD90622654B1A700120392107F0CBFD5F4B1A78634BD4
:40590000DA72644B187807F0FBFA00283FD05C4B93F8A320604B1B789A4204D140F2A7105E4908F059FD564B93F8A3205C4B1B789A4204D140F2B310584908F04DFD504BAA
:4059400093F8A320574B1B789A4204D140F2AD10524908F041FD4A4B93F8A320474B1B789A4204D14FF47A704C4908F035FD01203C2107F08DFD4FF4FA700CF03FFD012089
:40598000702107F085FD0E223E4B1A700EE00120552107F07DFD4FF42F700CF02FFD01202E2107F075FD0022364B1A7064200CF025FD0CF0C5F810BD0CF098F8082840F080
:4059C0004182314B1B78DBB2AA2B40F09C802E4B9B79DBB2C32B40F096802B4BDB79DBB23C2B40F09080284BDB787E3B162B00F28A80DFE803F0790C305969888888888846
:405A000088888888888888888888888881000120582107F03DFD0120002173224FF41F7307F094FF01200021CF2240F27E2307F08DFF01200146292240F27A2307F086FFFD
:405A4000012001467B224FF47C7307F07FFF1C220C4B1A7057E001202B2107F019FD4FF42F700CF0CBFC0120702107F011FD0E22044B1A7047E000BFF185FF1F3487FF1FF2
:405A80001889FF1FEC85FF1F788CFF1F9086FF1F3283FF1F3483FF1F3287FF1F9B86FF1F1689FF1F3787FF1F01202B2107F0F0FC4FF42F700CF0A2FC0120702107F0E8FC92
:405AC0000E22784B1A701EE001202B2107F0E0FC4FF42F700CF092FC0120702107F0D8FC0E22704B1A700EE001202E2107F0D0FC00226C4B1A7006E00120702107F0C8FCB6
:405B00000E22684B1A7064200CF078FC0CF018F810BD0BF0EBFF082840F09481624B1B78DBB2AA2B67D1604B9B79DBB2C32B62D15D4BDB79DBB23C2B5DD15B4BDB787E3BBA
:405B4000162B58D8DFE803F0480C1B2A39575757575757575757575757575757575750000120062107F094FC0022504B1A7001224F4B83F8A3201F224A4B1A703BE0012064
:405B8000062107F085FC0022484B1A700222484B83F8A3201F22434B1A702CE00120062107F076FC0022414B1A700322404B83F8A3201F223B4B1A701DE00120062107F049
:405BC00067FC0022394B1A700422394B83F8A3201F22344B1A700EE001202E2107F058FC0022304B1A7006E00120702107F050FC0E222C4B1A7064200CF000FC0BF0A0FFEE
:405C000010BD0BF073FF082840F01C81264B1B78DBB2AA2B40F0B580234B9B79DBB2C32B40F0AF80204BDB79DBB23C2B40F0A9801E4B1B782BBB1C4AD278D2B2092A0FD8CA
:405C40000133DAB2194B1A701748C178194B13443031D972C17830310120C9B207F050FC114BDB78DBB20A2B0BD1104B1A780132D2B21A700F4B13443021D972012007F01E
:405C80003FFC094BDB78DBB20B2B26D1074B1A7892B901202E2107F0FBFB0022014B1A701BE000BFEC85FF1F788CFF1FF185FF1F1889FF1F6C8AFF1F0120202107F020FC7D
:405CC000614B1B78614A1A44D27A2C2A02D100215F4A1170013B5C4A13705E4BDB78DBB20C2B4ED1584B1B78012B4AD10120392107F0CEFB544B1A78544BDA72564B93F858
:405D0000A330022B08D151490A7B544B1A704FF41F700B3108F060FB4F4B93F8A330012B08D14A490A7B4E4B1A7040F27A200B3108F052FB484B93F8A330032B08D14349D8
:405D40000A7B484B1A7040F27E200B3108F044FB414B93F8A330042B08D13C490A7B424B1A704FF47C700B3108F036FB4FF4FA700CF044FB0120702107F08AFB0E223B4BCB
:405D80001A7064200CF03AFB0BF0DAFE10BD0BF0ADFE082856D12F4B1B78DBB2AA2B4CD12C4B9B79DBB2C32B47D12A4BDB79DBB23C2B42D1274BDB78DBB20A2B2ED10122E4
:405DC0002B4B1A6010E02B4B58782B4B197801222A4B1B7809F0FAFB4FF4FA700CF00EFB234A136801331360254B1B7803F00F031F4A12689342E6D201200C2107F048FB1C
:405E00004FF42F700CF0FAFA00241E4BDC7001202E2107F03DFB154B1C700EE001200C2107F036FB4FF42F700CF0E8FA01202E2107F02EFB00220D4B1A7064200CF0DEFA1C
:405E40000BF07EFE10BD00BFF185FF1F6C8AFF1F3283FF1F788CFF1F1889FF1F3287FF1F1689FF1F3787FF1F3487FF1FEC85FF1FF485FF1F7488FF1FC085FF1F3483FF1F02
:405E8000048BFF1F7888FF1F10B59F4B1B78212B01F24C83DFE813F022009500F1004A0B4C01C6015F02CE024A0B660336047904E6046905920586064A0B4A0B4A0B8A073B
:405EC0004A0B4A0B4A0B4A0B4A0B4A0B31080209AF094A0B4A0B270A4A0BED0A8B4B1B78012B03D18A4B1A78874B1A70894B1B78012B06D1884B1A78884B1A700422884B30
:405F00001A700BF0E5FE082841F01083854B1B78DBB2AA2B4FD1834B9B79DBB2C32B4AD1804BDB79DBB23C2B45D17E4BDB78DBB2562B21D0572B3ED1744B1B78012B04D180
:405F4000734B1A78704B1A7009E00220632107F09FFA0322724B1A7001226B4B1A706D4B1B78012B04D16C4B1A786C4B1A7022E000226A4B1A701EE06B4B1B78012B04D11D
:405F8000634B1A78604B1A7002E000225E4B1A70604B1B78012B04D15F4B1A785F4B1A7009E00220632107F073FA04225C4B1A7001225A4B1A7064200CF020FA0BF0B2FEA5
:405FC00010BD0BF085FE082841F0B082554B1B78DBB2AA2B4BD1534B9B79DBB2C32B46D1504BDB79DBB23C2B41D14E4BDB78DBB25C2B0AD004D8452B0FD0592B18D036E052
:406000007E2B25D0942B2BD031E00220492107F03FFA02223C4B1A7029E00220252107F037FA0022414B1A700F22374B1A701EE002202B2107F02CFA4FF4FA700CF0DEF9EF
:4060400002202E2107F024FA00222F4B1A700EE002202E2107F01CFA00222B4B1A7006E002202E2107F014FA0022274B1A7064200CF0C4F90BF056FE10BD0BF029FE0828C1
:4060800041F05482274B1B78DBB2AA2B36D1254B9B79DBB2C32B31D1224BDB79DBB23C2B2CD1204BDB78DBB25F2B08D002D85E2B0DD023E07E2B12D0942B18D01EE0022076
:4060C0000B2107F0E5F90A220F4B1A7016E002201D2107F0DDF90B220B4B1A700EE002202E2107F0D5F90022074B1A7006E00220632107F0CDF90122034B1A7064200CF079
:406100007DF90BF00FFE10BDC485FF1F3387FF1FED85FF1F3183FF1F6988FF1F3A86FF1FEA85FF1F8C8CFF1F508AFF1F1189FF1F0BF0CEFD082841F0F981994B1B78DBB26E
:40614000AA2B69D1964B9B79DBB2C32B64D1944BDB79DBB23C2B5FD1924AD37823F00303D3708F4BDB78DBB23B2B3ED004D80F2B09D0102B1BD04FE07E2B3ED0942B44D095
:40618000432B49D129E00220062107F081F90022854B1A700220242107F0B2F9814AD37843F00203D3700522804B1A7034E002200D2107F06DF900227B4B1A707C4B1A707E
:4061C0000220472107F09CF9764AD37843F00103D3700522754B1A701EE00220072107F057F90622714B1A7016E002202E2107F04FF900226D4B1A700EE002202E2107F036
:4062000047F90022694B1A7006E002200B2107F03FF90A22654B1A7064200CF0EFF80BF081FD10BD0BF054FD082841F07F815C4B1B78DBB2AA2B40F08880594B9B79DBB282
:40624000C32B40F08280564BDB79DBB23C2B7CD1554B1B78574A1278013A93423EDC504AD278D2B2092A0FD80133DAB24E4B1A704B48C1784B4B13443031D972C1783031DC
:406280000220C9B207F03CF9454BDB78DBB20A2B0BD1454B1A780132D2B21A70414B13443021D972022007F02BF93D4BDB78DBB2512B13D13C4B1B7883B13D4A12786AB92B
:4062C0000133DAB2384B1A70364B13442C21D972022007F015F90122354B1A70304BDB78DBB20B2B1BD1304B1A783AB90220052107F0CEF804222D4B1A7010E00220202110
:4063000007F0FEF8284B1B78264A1A44D27A2C2A02D10021264A1170013B234A1370204BDB78DBB20C2B10D11F4B1B786BB1224B1B7853B90220072107F0AAF81A4B1A7887
:40634000184BDA720622194B1A7064200CF056F80BF0E8FC10BD0BF0BBFC08282ED1104B1B78DBB2AA2B15D10D4B9B79DBB2C32B10D10B4BDB79DBB23C2B0BD1084BDB78DF
:40638000DBB27E2B06D102202E2107F081F80022064B1A7064200CF031F80BF0C3FC10BD8C8CFF1F9086FF1F1189FF1FC485FF1FF285FF1FD485FF1F7088FF1F9B4B1878A1
:4063C00002F0F8FC072841F0B18032200CF016F8964B187802F002FD0146954B1870954BDB7813F003030DD0904A1078924A06F0E3F938B902202E2107F04AF800228F4BF9
:406400001A7010BD894C207802F0E8FC884B1870207840F010000BF023FA0220082107F037F80723854A1370854A13700122854B1A7010BD32200BF0E1FF7C4B187802F078
:40644000B9FC0638052801F27180DFE810F074006F086F0880003D00060064200BF0CEFF724B187802F02EFD01280FD1764B1B7863B90220392107F00BF80022714B1A701F
:4064800014200BF0BBFF0D226C4B1A70674B187802F018FD012841F049806B4B1B78012B41F0448002200C2106F0F2FF0024654B1C704FF4FA700BF0A1FF02202E2106F068
:4064C000E7FF5E4B1C7010BD64200BF097FF574B187802F0F7FC01280FD15B4B1B7863B90220392106F0D4FF0022564B1A7014200BF084FF0D22514B1A704C4B187802F078
:40650000E1FC012841F012804F4B1B78012B41F00D8002200C2106F0BBFF0024494B1C704FF4FA700BF06AFF02202E2106F0B0FF424B1C7010BD02202E2106F0A9FF0023F9
:40654000404A13703B4AD3703C4A137010BD32200BF054FF02202E2106F09AFF0022374B1A7010BD0BF0B4FB082840F0DF87374B1B78DBB2AA2B40F0BF80344B9B79DBB25F
:40658000C32B40F0B980314BDB79DBB23C2B40F0B3802F4B1B78062B7CD82C4AD278D2B2092A10D80133DAB2294B1A702748C178204B1344303183F86510C1783031022037
:4065C000C9B206F09DFF214BDB78DBB20A2B0CD11F4B1A780132D2B21A70164B1344302183F86510022006F08BFF184BDB78DBB26A2B0CD1164B1A780132D2B21A700D4B17
:4066000013442D2183F86510022006F079FF0F4BDB78DBB21A2B3DD90C4BDB78DBB2422B38D800220B4B1A6030E000BF4086FF1F6F88FF1F9086FF1F9B86FF1FC485FF1F58
:40664000ED85FF1F3387FF1FD285FF1F8C8CFF1F1189FF1F2C84FF1FA94AD278D2B2A9491944097A8A420DD1A7490A780132D2B20A704133D9B2A54B134483F86510022049
:4066800006F03EFFA24A136801331360A04B1B68192BE1D99A4BDB78DBB20B2B15D19A4B1A7852B902202E2106F0F2FE0023974A82F86530974A137007E00220202106F0BC
:4066C0001FFF914A1378013B13708D4BDB78DBB20C2B11D18C4B1B7873B10220052106F0D7FE8A4B884A127883F86520012283F883200422874B1A7064200BF07FFE0BF0FA
:4067000011FB10BD0BF0E4FA082840F00F877C4B1B78DBB2AA2B32D1794B9B79DBB2C32B2DD1774BDB79DBB23C2B28D1744BDB78DBB2392B04D07E2B1AD0382B1FD10CE0F5
:4067400002200A2106F0A4FE00236F4A1370724A137009226F4B1A7011E00220052106F097FE01226C4B1A7004226A4B1A7006E002202E2106F08CFE0022664B1A706420E2
:406780000BF03CFE0BF0CEFA10BD0220012107F0D9FF052840D90A200BF030FE0220212107F0D0FF052837D9022007F0C1FE012832D133200BF0D4FA0220332107F01CFF59
:4067C00050B30022554B1A600AE0022007F07EFF4E4B1C4484F82900504A1368013313604E4B1C68072CF0D90220132106F050FE464CE37843F00403E3704FF4FA700BF0AB
:40680000FDFD02200E2106F043FE00233E4A137023710C223F4B1A700BF05AFA082840F08586374B1B78DBB2AA2B15D1344B9B79DBB2C32B10D1324BDB79DBB23C2B0BD12B
:406840002F4BDB78DBB23B2B06D10220492106F01FFE02222F4B1A7064200BF0CFFD0BF061FA10BD0BF034FA082840F05F86244B1B78DBB2AA2B72D1214B9B79DBB2C32B3C
:406880006DD11F4BDB79DBB23C2B68D11E4B1B78052B25D81A4AD278D2B2092A0FD80133DAB2194B1A701648C178184B134430311971C17830310220C9B206F021FE104BA9
:4068C000DB78DBB20A2B0BD10F4B1A780132D2B21A700E4B134430211971022006F010FE074BDB78DBB20B2B22D1074B1A78BAB90220052106F0CCFD0422064B1A7017E018
:406900008C8CFF1F0C81FF1F1189FF1F9086FF1F2C84FF1FC485FF1FD285FF1FF485FF1F0220202106F0ECFD964A1378013B1370954BDB78DBB20C2B11D1924B1B7873B170
:40694000924B5B79302B0AD00220052106F0A0FD8C4B1A788D4B1A7104228D4B1A7064200BF04CFD0BF0DEF910BD8A4B58788A4B19780022894B1B7808F028FE884B5B7843
:406980008BB902200C2106F083FD4FF416700BF035FD00247D4BDC7002202E2106F078FD7B4B1C7010BD0220312106F071FD0022744B1A702122764B1A7010BD0BF088F98B
:4069C000082840F0B385704B1B78DBB2AA2B40F0D2806D4B9B79DBB2C32B40F0CC806A4BDB79DBB23C2B40F0C680674BDB78583B3E2B00F2C080DFE803F020BE5464BE3026
:406A0000BEBEBEBEBEBEBE7FBEBEBEBEBEBEBEBEBEBE9FBEBEBEBEBEBEBEBEBEBEBEBEBEAFBEBEBEBEBEBEBEBEBEBEBEBEBEBEBEBEBEBEBEBE8FB7BE740002202B2106F091
:406A400027FD4FF4FA700BF0D9FC0220702106F01FFD0E224E4B1A708DE002205C2106F017FD02200021D62240F2AD1306F00CFF02200021892240F2A71306F005FF022023
:406A80000121242240F2B31306F0FEFE0220012178224FF47A7306F0F7FE13223C4B1A7069E002202B2106F0F3FC4FF4FA700BF0A5FC0220702106F0EBFC0E22344B1A7097
:406AC00059E002202B2106F0E3FC4FF4FA700BF095FC0220702106F0DBFC0E222C4B1A7049E002205F2106F0D3FC0022254B1A701B22274B1A703EE002202B2106F0C8FC05
:406B00004FF4FA700BF07AFC0220702106F0C0FC0E221F4B1A702EE002202B2106F0B8FC4FF4FA700BF06AFC0220702106F0B0FC0E22174B1A701EE002202B2106F0A8FC03
:406B40004FF4FA700BF05AFC0220702106F0A0FC0E220F4B1A700EE002202E2106F098FC00220B4B1A7006E002202E2106F090FC0022074B1A7064200BF040FC0BF0D2F87C
:406B800010BD00BF1189FF1F8C8CFF1F9086FF1FC485FF1F1489FF1F6F88FF1F4086FF1F688AFF1F0BF094F8082840F0BF84A94B1B78DBB2AA2B40F0B984A64B9B79DBB2EA
:406BC000C32B40F0B384A34BDB79DBB23C2B40F0AD84A04BDB78DBB27E2B07D10220312106F056FC00229C4B1A700BE0994BDB78DBB2942B06D10220632106F049FC0122C5
:406C0000954B1A70954B1A78072A26D8914BDB78DBB2092B0ED88F4BD978914B1344303183F88E1002202A2106F06AFC8B4A137801331370874BDB78DBB20A2B0DD1874C23
:406C40002278874B1344302183F88E1002202A2106F056FC2378013323707E4BDB78DBB20B2B1AD17D4B1B787BB90220392106F00FFC4FF4FA700BF0C1FB02202E2106F02F
:406C800007FC0022744B1A7007E0013BDAB2734B1A700220202106F033FC6E4BDB78DBB20C2B7DD16D4B1978002979D000236D4A13606D4A136015E0581C6C4A024492F8A8
:406CC000D720674C234493F88E30303B9A4204D1644A13680133136002E00022614B1A60614B18600846604B1B689942E4D85F4B93F8D7205B4B1B689A420FD10220262173
:406D000006F0C6FB4FF4FA700BF078FB0220702106F0BEFB0E22504B1A7041E00023514A1360514A136010E0514A1A4492F824104B4A1A4492F88E20914203D149490A68ED
:406D400001320A600133484A1360474B1B689842EAD8444B1B68082B13D10220262106F097FB4FF4FA700BF049FB01205D2106F08FFB0220702106F08BFB0E223D4B1A70F6
:406D80000EE00220272106F083FB4FF4FA700BF035FB02202E2106F07BFB00222E4B1A7064200BF02BFB0AF0BDFF10BD0AF090FF082840F0BB83274B1B78DBB2AA2B40F047
:406DC0009680244B9B79DBB2C32B40F09080214BDB79DBB23C2B40F08A801E4BDB787E3B162B00F28480DFE803F0730C204B5F828282828282828282828282828282828200
:406E00007B000220062106F043FB0022134B1A70194B1978154B83F8A3100220242106F06FFB1A220C4B1A7061E00220062106F02FFB0022094B1A70104B19780B4B83F882
:406E4000A3100220242106F05BFB1A22024B1A704DE000BF8C8CFF1FC485FF1F1189FF1F9086FF1F3887FF1F2C84FF1F1889FF1F0C81FF1F2F83FF1F3D86FF1F2E83FF1F8F
:406E80000220062106F004FB0022AC4B1A70AC4B1978AC4B83F8A3100220242106F030FB1A22A94B1A7022E00220062106F0F0FA0022A24B1A70A54B1978A24B83F8A310A2
:406EC0000220242106F01CFB1A229F4B1A700EE002202E2106F0DCFA00229B4B1A7006E00220702106F0D4FA0E22974B1A7064200BF084FA0AF016FF10BD0AF0E9FE0828CE
:406F000040F01483924B1B78DBB2AA2B40F0C0808F4B9B79DBB2C32B40F0BA808C4BDB79DBB23C2B40F0B480844B1B78062B25D8874AD278D2B2092A0FD80133DAB27F4B1F
:406F40001A708348C178834B13443031D972C17830310220C9B206F0D3FA7D4BDB78DBB20A2B0BD1754B1A780132D2B21A70794B13443021D972022006F0C2FA744BDB78CF
:406F8000DBB20B2B1BD16D4B1A783AB90220702106F07EFA0E226C4B1A7010E00220202106F0AEFA654B1B786A4A1A44D27A2C2A02D10021684A1170013B604A1370644B2C
:406FC000DB78DBB20C2B63D15C4B1B78032B5FD906225D4B1A700220392106F059FA574B1A785C4BDA725D4B187805F027FE00283FD0544B93F8A320594B1B789A4204D102
:4070000040F2A710574907F0E7F94E4B93F8A3204B4B1B789A4204D140F2B310514907F0DBF9484B93F8A3204F4B1B789A4204D140F2AD104B4907F0CFF9424B93F8A320F9
:40704000424B1B789A4204D14FF47A70454907F0C3F902203C2106F01BFA4FF4FA700BF0CDF90220702106F013FA0E22364B1A700EE00220552106F00BFA4FF4FA700BF0BF
:40708000BDF902202E2106F003FA00222E4B1A7064200BF0B3F90AF045FE10BD0AF018FE082840F043822A4B1B78DBB2AA2B40F09C80274B9B79DBB2C32B40F09680244BBB
:4070C000DB79DBB23C2B40F09080214BDB787E3B162B00F28A80DFE803F0790C495969888888888888888888888888888888888881000220582106F0CBF902200021732253
:407100004FF4936306F022FC02200021CF2240F29A4306F01BFC02200121292240F29C4306F014FC022001217B2240F29E4306F00DFC1C22044B1A7057E000BF1189FF1F54
:40714000D385FF1F1889FF1FC485FF1FC685FF1F8C8CFF1F7888FF1FF285FF1F4086FF1F3D86FF1F8388FF1F2E83FF1F02202B2106F08EF94FF4FA700BF040F902207021E5
:4071800006F086F90E22804B1A702EE002202B2106F07EF94FF4FA700BF030F90220702106F076F90E22784B1A701EE002202B2106F06EF94FF4FA700BF020F90220702149
:4071C00006F066F90E22704B1A700EE002202E2106F05EF900226C4B1A7006E00220702106F056F90E22684B1A7064200BF006F90AF098FD10BD0AF06BFD082840F09681B8
:40720000624B1B78DBB2AA2B67D1604B9B79DBB2C32B62D15D4BDB79DBB23C2B5DD15B4BDB787E3B162B58D8DFE803F0482A0C1B3957575757575757575757575757575721
