:400000000080002011000000AD080100AD08010008B5044B1A6803F53F5302331A6010F047FC00BFFA46004010B5054C237833B9044B13B10448AFF300800123237010BDB8
:40004000F082FF1F00000000301A0100084B10B51BB108480849AFF300800848036803B910BD074B002BFBD0BDE81040184700BF00000000301A0100F482FF1F0881FF1FD9
:400080000000000010B562B610F0FAFD10F01AFF10F0A6FF11F096F810F000FE11F0B0F9052011F03FFC0024534B1C70204620210DF0BEFC514B1C6006E0514AD15C514A09
:4000C000D15401334D4A13604D4B1A784B4B1B689A42F2D220200F210DF0AAFC0022474B1A6007E0464AD15C464A1A4491770133424A1360424B1A78404B1B689A42F1D2E0
:400100002F200C210DF094FC00223C4B1A6008E03B4AD15C3B4A1A4482F82F100133374A1360374B1A78354B1B689A42F0D2402020210DF07DFC0022304B1A6008E0304AF0
:40014000D15C304A1A4482F8431001332B4A13602B4B1A78294B1B689A42F0D2602009210DF066FC264B1878431EDBB2082B14D80022224B1A6008E00133214AD15C214AB5
:400180001A4482F8D7101D4A13601C4B1B68072BF2D91C4B83F8D7000EE00122174B1A6006E0184A1A4482F8D7300133134A1360124B1B68082BF4D9802020210DF038FCFC
:4001C00000220E4B1A6008E00D4AD15C0D4A1A4482F861100133094A1360094B1A78074B1B689A42F0D2A02020210DF021FC0022024B1A6011E000BF7088FF1F2C84FF1F13
:40020000F885FF1F1889FF1FA94AD15CA94A1A4482F87F100133A84A1360A54B1A78A64B1B689A42F0D24FF4DD7002210DF000FC9F4B1B78052B05D19D4B5B7803F00F03CE
:400240009E4A137040F2C31002210DF0F1FB984B1B78012B03D1964B5A78994B1A7040F2C51002210DF0E4FB914B1B78012B03D18F4B5A78934B1A7040F2C11002210DF0BF
:40028000D7FB8B4B1B78012B03D1894B5A788E4B1A7040F2EE3002210DF0CAFB844B1B78012B03D1824B5A78884B1A704FF41F7002210DF0BDFB7E4B1B78012B03D17C4B9A
:4002C0005A78834B1A7040F27A2002210DF0B0FB774B1B78012B03D1754B5A787D4B1A7040F27E2002210DF0A3FB714B1B78012B03D16F4B5A78784B1A704FF47C700221FC
:400300000DF096FB6A4B1B78012B03D1684B5A78724B1A704FF4936002210DF089FB644B1B78012B03D1624B5A786D4B1A7040F29A4002210DF07CFB5D4B1B78012B03D160
:400340005B4B5A78674B1A7040F29C4002210DF06FFB574B1B78012B03D1554B5A78624B1A7040F29E4002210DF062FB504B1B78012B03D14E4B5A785C4B1A704FF49460C5
:4003800002210DF055FB4A4B1B78012B03D1484B5A78574B1A7040F2A24002210DF048FB434B1B78012B03D1414B5A78514B1A7040F2A44002210DF03BFB3D4B1B78012B45
:4003C00003D13B4B5A784C4B1A7040F2A64002210DF02EFB364B1B78012B03D1344B5A78464B1A7040F29F2005210DF021FB304B1878042810D101222F4B1A6006E02C4A14
:40040000D15C3F4AD15401332B4A13602A4B1B68042BF4D93A4B187040F26A400A210DF007FB0022244B1A6006E0214AD15C354AD1540133204A13601D4B1A781E4B1B689A
:400440009A42F2D240F275400A210DF0F1FA0022194B1A6006E0164AD15C2B4AD1540133154A1360124B1A78134B1B689A42F2D24FF490600A210DF0DBFA00220E4B1A603A
:4004800006E00B4AD15C214AD15401330A4A1360074B1A78084B1B689A42F2D240F28B400A210DF0C5FA0022034B1A6037E000BFF885FF1F1889FF1F2C84FF1FD585FF1FAB
:4004C0006B8AFF1F7688FF1F538AFF1FF085FF1F3287FF1F1689FF1F3787FF1F3487FF1F3D86FF1F2E83FF1FD485FF1FC685FF1FD685FF1FC585FF1F8C86FF1F3B86FF1F76
:400500000C81FF1FC885FF1F2084FF1F088BFF1F894AD15C894AD1540133894A1360864B1A78874B1B689A42F2D240F2964002210DF07EFA0022824B1A6006E07E4AD15C84
:40054000804AD15401337E4A13607B4B1A787C4B1B689A42F2D240F25A2006210DF068FA754B1B78052B0AD1734AD37803F00F0375490B70537903F00F03744A137040F2C1
:40058000C71002210DF054FA6B4B1B78012B06D16F4A1370684B5B7803F00F0353704FF4DE7002210DF044FA634B1B78012B05D1614B5B7803F00F03664A137040F2632082
:4005C00002210DF035FA5C4B1B78012B05D15A4B5B7803F00F03604A537040F2652002210DF026FA544B1B78012B05D1524B5B7803F00F03594A53704FF4277003210DF085
:4006000017FA4D4B1B78022B06D14B4B9B7843EA0323534A138002E00122514B1A804FF4767002210DF004FA434B1B78012B04D1414B5A784B4B5A7007E04A4901230B70D3
:400640004B704FF476700DF0B5F940F28F4002210DF0EEF9384B1B78012B04D1364B5A78414B5A7007E0404901230B704B7040F28F400DF09FF940F2D23006210DF0D8F99A
:400680002D4B187805280FD100222D4B1A6006E0294AD15C354AD1540133294A1360284B1B689842F4D20CE0304905230B7030234B708B70CB700B714B7140F2D2300DF082
:4006C00079F94FF47D7002210DF0B2F91A4B187801280ED100221A4B1A6006E0164AD15C234AD1540133164A1360154B1B689842F4D21E4A537903F00F00137903F00F013B
:400700004FF47A7303FB01F342F2107101FB0033D07800F00F00642101FB0031937803F00F0303EB83035B000B44527802F00F021344104A136010BDF885FF1FD885FF1FB8
:400740002C84FF1F048BFF1F1C84FF1F528AFF1FE885FF1F3587FF1F7488FF1F1489FF1FC285FF1F2C83FF1F688AFF1F2C87FF1F6C88FF1F648AFF1F10B500245EE008F0BC
:400780008BF901280BD010B102282AD056E0642011F0C8F801204F210CF068F94EE0642011F0C0F8274B187808F000FA06280FD1254B187808F0FAF9062809D101203C2185
:4007C0000CF054F902203C210CF050F9012435E0012055210CF04AF9022055210CF046F92CE0642011F09EF8164B187808F0DEF906281BD1144B187808F0D8F9062815D13C
:40080000124B187808F0D2F906280FD1104B187808F0CCF9062809D101204A210CF026F902204A210CF022F9022407E0012055210CF01CF9022055210CF018F9002C9ED00B
:4008400010BD00BF048AFF1F3483FF1F4086FF1F3C87FF1F08B500230A4A13700A4A13704FF4FA7011F05EF801202E210CF0FEF84FF4FA7011F056F802202E210CF0F6F85B
:4008800008BD00BF2F83FF1FEC85FF1F38B5A14B1B782A2B03F27586DFE813F02B009E00F500731E4E01C8017B02EC02731E80035004930400058305AC0593067708A80704
:4008C000D20890091A0AB80BFA0C700E8E0F731E6B133C14D31449152616BE169017A119001A6E1ADF1A261BB11B8B1C731E7F1D041E894B1B78012B03D1884B1A78854B2E
:400900001A70874B1B78012B06D1864B1A78864B1A700222854B1A7010F07CFB082843F03086834B1B78DBB2AA2B4FD1804B9B79DBB2C32B4AD17E4BDB79DBB23C2B45D17A
:400940007B4BDB78DBB2562B02D0572B1FD03DE0714B1B78012B04D1704B1A786D4B1A7008E0012063210CF081F801236F4A1370684A13706A4B1B78012B04D1694B1A78EB
:40098000694B1A7022E00022674B1A701EE0624B1B78012B04D1614B1A785E4B1A7002E000225C4B1A705E4B1B78012B04D15D4B1A785D4B1A7009E0012063210CF056F833
:4009C00002225A4B1A700122574B1A70642010F0A9FF10F049FB38BD10F01CFB082843F0D085534B1B78DBB2AA2B46D1504B9B79DBB2C32B41D14E4BDB79DBB23C2B3CD14D
:400A00004B4BDB78DBB25C2B0AD004D8452B0FD0592B18D031E07E2B20D0942B26D02CE0012049210CF022F802223A4B1A7024E0012025210CF01AF800223E4B1A700F222A
:400A4000344B1A7019E0012025210CF00FF80022384B1A7027222F4B1A700EE001202E210CF004F800222B4B1A7006E001202E210BF0FCFF0022274B1A70642010F052FFD7
:400A800010F0F2FA38BD10F0C5FA082843F07985274B1B78DBB2AA2B36D1254B9B79DBB2C32B31D1224BDB79DBB23C2B2CD1204BDB78DBB25F2B08D002D85E2B0DD023E024
:400AC0007E2B12D0942B18D01EE001200B210BF0CDFF0A220F4B1A7016E001201D210BF0C5FF0B220B4B1A700EE001202E210BF0BDFF0022074B1A7006E0012063210BF0E8
:400B0000B5FF0122034B1A70642010F00BFF10F0ABFA38BD2F83FF1F508AFF1FEF85FF1FC785FF1F3083FF1FEC85FF1F1089FF1F788CFF1FF185FF1F10F06CFA082843F084
:400B40002085A64B1B78DBB2AA2B69D1A34B9B79DBB2C32B64D1A14BDB79DBB23C2B5FD19F4AD37823F00303D3709C4BDB78DBB23B2B3ED004D80F2B09D0102B1BD04FE08B
:400B80007E2B3ED0942B44D0432B49D129E0012006210BF06BFF0022924B1A70012024210BF09CFF8E4AD37843F00203D37005228D4B1A7034E001200D210BF057FF0022EB
:400BC000884B1A70894B1A70012047210BF086FF834AD37843F00103D3700522824B1A701EE0012007210BF041FF06227E4B1A7016E001202E210BF039FF00227A4B1A701A
:400C00000EE001202E210BF031FF0022764B1A7006E001200B210BF029FF0A22724B1A70642010F07FFE10F01FFA38BD10F0F2F9082843F0A684694B1B78DBB2AA2B40F095
:400C4000A280664B9B79DBB2C32B40F09C80634BDB79DBB23C2B40F09680624B1B78644A1278013A93423EDC5C4AD278D2B2092A0FD80133DAB25B4B1A705848C178584BEE
:400C800013443031D972C17830310120C9B20BF025FF524BDB78DBB20A2B0BD1514B1A780132D2B21A704E4B13443021D97201200BF014FF494BDB78DBB2512B13D1494BBC
:400CC0001B7883B1494A12786AB90133DAB2454B1A70434B13442C21D97201200BF0FEFE0122424B1A703D4BDB78DBB20B2B1BD13C4B1A783AB9012005210BF0B7FE042291
:400D0000394B1A7010E0012020210BF0E7FE354B1B78334A1A44D27A2C2A02D10021334A1170013B2F4A13702C4BDB78DBB20C2B29D12C4B1B786BB12E4B1B7853B90120D2
:400D400007210BF093FE274B1A78254BDA720622254B1A70234B1B78ABB1264B1B78012B11D1012070210BF081FE1D4B1B7B22490B7040F296400CF01DFE00221D4B1A702B
:400D80000E22194B1A70642010F0CCFD10F06CF938BD10F03FF9082830D1104B1B78DBB2AA2B15D10D4B9B79DBB2C32B10D10B4BDB79DBB23C2B0BD1084BDB78DBB27E2BB1
:400DC00006D101202E210BF051FE0022064B1A70642010F0A7FD10F047F938BD788CFF1F7888FF1FF185FF1F2F83FF1F3283FF1FD585FF1F7088FF1F048BFF1F994B1878E2
:400E000007F0D4FE072843F0BC83322010F08AFD944B187807F0DEFE0146934B1870934BDB7813F003030DD08E4A1078904A0BF079FA38B901202E210BF018FE00228D4B55
:400E40001A7038BD874C207807F0C4FE864B1870207840F010000FF0A9FF012008210BF005FE0723834A1370834A13700122834B1A7038BD322010F055FD7A4B187807F085
:400E800095FE0638052803F27C83DFE810F070007A1B7A1B7C003B000600642010F042FD704B187807F00AFF01280ED1744B1B785BB939210BF0DAFD0022704B1A701420DF
:400EC00010F030FD0D226B4B1A70664B187807F0F5FE012843F05583694B1B78012B43F050830C210BF0C2FD0024644B1C704FF4FA7010F017FD01202E210BF0B7FD5D4BB0
:400F00001C7038BD642010F00DFD564B187807F0D5FE01280ED15A4B1B785BB939210BF0A5FD0022554B1A70142010F0FBFC0D22504B1A704B4B187807F0C0FE012843F05A
:400F400020834F4B1B78012B43F01B830C210BF08DFD0024494B1C704FF4FA7010F0E2FC01202E210BF082FD424B1C7038BD01202E210BF07BFD0023404A13703B4AD37050
:400F80003C4A137038BD322010F0CCFC01202E210BF06CFD0022374B1A7038BD10F03AF8082843F0EE82374B1B78DBB2AA2B40F0BF80344B9B79DBB2C32B40F0B980314B44
:400FC000DB79DBB23C2B40F0B3802F4B1B78062B7CD82C4AD278D2B2092A10D80133DAB2294B1A702748C178204B1344303183F86510C17830310120C9B20BF06FFD214BD3
:40100000DB78DBB20A2B0CD11F4B1A780132D2B21A70164B1344302183F8651001200BF05DFD184BDB78DBB26A2B0CD1164B1A780132D2B21A700D4B13442D2183F865103C
:4010400001200BF04BFD0F4BDB78DBB21A2B3DD90C4BDB78DBB2422B38D800220B4B1A6030E000BF048AFF1F7788FF1F7888FF1F8388FF1F2F83FF1FEF85FF1F508AFF1F98
:40108000D385FF1F788CFF1FF185FF1F2C84FF1FA94AD278D2B2A9491944097A8A420DD1A7490A780132D2B20A704133D9B2A54B134483F8651001200BF010FDA24A136890
:4010C00001331360A04B1B68192BE1D99A4BDB78DBB20B2B15D19A4B1A7852B901202E210BF0C4FC0023974A82F86530974A137007E0012020210BF0F1FC914A1378013B05
:4011000013708D4BDB78DBB20C2B11D18C4B1B7873B1012005210BF0A9FC8A4B884A127883F86520012283F883200422874B1A70642010F0F7FB0FF097FF38BD0FF06AFF8A
:40114000082843F01E827C4B1B78DBB2AA2B32D1794B9B79DBB2C32B2DD1774BDB79DBB23C2B28D1744BDB78DBB2392B04D07E2B1AD0382B1FD10CE001200A210BF076FCF7
:4011800000236F4A1370724A137009226F4B1A7011E0012005210BF069FC01226C4B1A7004226A4B1A7006E001202E210BF05EFC0022664B1A70642010F0B4FB0FF054FF34
:4011C00038BD012001460CF0ABFD052840D90A2010F0A8FB012021210CF0A2FD052837D901200CF093FC012832D133200FF05AFF012033210CF0EEFC50B30022554B1A6083
:401200000AE001200CF050FD4E4B1C4484F82900504A1368013313604E4B1C68072CF0D9012013210BF022FC464CE37843F00403E3704FF4FA7010F075FB01200E210BF097
:4012400015FC00233E4A137023710C223F4B1A700FF0E0FE082843F09481374B1B78DBB2AA2B15D1344B9B79DBB2C32B10D1324BDB79DBB23C2B0BD12F4BDB78DBB23B2B57
:4012800006D1012049210BF0F1FB02222F4B1A70642010F047FB0FF0E7FE38BD0FF0BAFE082843F06E81244B1B78DBB2AA2B72D1214B9B79DBB2C32B6DD11F4BDB79DBB2EA
:4012C0003C2B68D11E4B1B78052B25D81A4AD278D2B2092A0FD80133DAB2194B1A701648C178184B134430311971C17830310120C9B20BF0F3FB104BDB78DBB20A2B0BD184
:401300000F4B1A780132D2B21A700E4B13443021197101200BF0E2FB074BDB78DBB20B2B22D1074B1A78BAB9012005210BF09EFB0422064B1A7017E0788CFF1F0C81FF1FAA
:40134000F185FF1F7888FF1F2C84FF1F2F83FF1FD385FF1FF485FF1F012020210BF0BEFBAA4A1378013B1370A94BDB78DBB20C2B11D1A64B1B7873B1A64B5B79302B0AD02D
:40138000012005210BF072FBA04B1A78A14B1A710422A14B1A70642010F0C4FA0FF064FE38BD9E4B58789E4B197800229D4B1B780DF0FAFB9C4B5B788BB901200C210BF04D
:4013C00055FB4FF4FA7010F0ADFA0024914BDC7001202E210BF04AFB8F4B1C7038BD012031210BF043FB0022884B1A7021228A4B1A7038BD0FF00EFE082843F0C280844BB1
:401400001B78DBB2AA2B40F0D680814B9B79DBB2C32B40F0D0807E4BDB79DBB23C2B40F0CA807B4BDB78DBB2652B00F088800AD85A2B54D002D8582B16D0BCE05B2B68D075
:401440005D2B28D0B7E0932B00F0818006D8702B00F09A807E2B00F09F80ACE0942B00F0A380962B60D0A6E00022684B1A7001203E210BF0FBFA0CF0DDF9012801D10BF0FF
:40148000ADFB0CF007FA012801D10BF005FC1022614B1A708FE001205C210BF0E7FA01200021D62240F2AD130BF0DCFC01200021892240F2A7130BF0D5FC012001462422ED
:4014C00040F2B3130BF0CEFC0120014678224FF47A730BF0C7FC13224F4B1A706BE0012060210BF0C3FA01200BF03AFC01200BF079FD01200BF008FF01200BF08BFF012073
:401500000BF0F6FD01200BF079FE1222424B1A7051E001202F210BF0A9FA00223B4B1A7011223D4B1A7046E001205F210BF09EFA0022364B1A701B22374B1A703BE001201C
:401540004D210BF093FA1422334B1A7033E001206E210BF08BFA012001460CF0E1FB05280ED90A2010F0DEF901200CF05BF8012021210CF0D5FB052802D901200BF0D0FF0D
:401580002322254B1A7016E0012089210BF06EFA2922214B1A700EE001202E210BF066FA00221D4B1A7006E001202E210BF05EFA0022194B1A70642010F0B4F90FF054FD80
:4015C00038BD0FF027FD082842F0DB87104B1B78DBB2AA2B42F0D5870D4B9B79DBB2C32B42F0CF870A4BDB79DBB23C2B42F0C987074BDB78DBB27E2B18D1012031210BF071
:4016000035FA0022044B1A701CE000BFF185FF1F788CFF1F7888FF1F2F83FF1F7488FF1F7788FF1F048AFF1F2C83FF1FA34BDB78DBB2942B06D1012063210BF017FA012239
:401640009F4B1A709F4B1A78072A26D89B4BDB78DBB2092B0ED8994BD9789B4B1344303183F88E1001202A210BF038FA954A137801331370914BDB78DBB20A2B0DD1914C19
:401680002278914B1344302183F88E1001202A210BF024FA237801332370884BDB78DBB20B2B1AD1874B1B787BB9012039210BF0DDF94FF4FA7010F035F901202E210BF00D
:4016C000D5F900227E4B1A7007E0013BDAB27D4B1A70012020210BF001FA784BDB78DBB20C2B7DD1774B1A78002A79D0002377490B6077490B6015E0581C7649014491F8F0
:40170000D710714C234493F88E30303B994204D16E490B6801330B6002E000216B4B19606B4B186010466A4B1B689A42E4D8694B93F8D720654B1B689A420FD1012026215E
:401740000BF094F94FF4FA7010F0ECF8012070210BF08CF90E225A4B1A7041E000235B4A13605B4A136010E05B4A1A4492F82410554A1A4492F88E20914203D153490A68B0
:4017800001320A600133524A1360514B1B689842EAD84E4B1B68082B13D1012026210BF065F94FF4FA7010F0BDF801205D210BF05DF9012070210BF059F90E22404B1A7004
:4017C0000EE0012027210BF051F94FF4FA7010F0A9F801202E210BF049F90022384B1A70642010F09FF80FF03FFC38BD0FF012FC082842F0C686314B1B78DBB2AA2B40F07D
:40180000BE802E4B9B79DBB2C32B40F0B8802B4BDB79DBB23C2B40F0B280284BDB78DBB2942B06D1012070210BF020F90E22244B1A70244B1A78072A27D8204BDB78DBB286
:40184000092B10D81D48C1781F4B1344303183F88E10C17830310120C9B20BF03FF9194A137801331370154BDB78DBB20A2B0CD1144C2278144B1344302183F88E100120D8
:401880000BF02CF92378013323700C4BDB78DBB20B2B2BD10B4B1B7803BB012055210BF0E5F84FF4FA7010F03DF801202E210BF0DDF80022024B1A7018E000BF788CFF1F33
:4018C0002F83FF1FF185FF1F7888FF1F3887FF1F2C84FF1F1889FF1F0C81FF1F013BDAB2AC4B1A70012020210BF0F8F8AA4BDB78DBB20C2B43D1A74B1B78052B3FD90120AD
:4019000039210BF0B3F8A34B1978A44B83F8D7100022A34B1A600BE0581CA24A134493F88E209E4B0344303A83F8D7209C4B18609B4B1B689942EFD860209B490CF03AF86A
:4019400070B9012055210BF091F84FF4FA700FF0E9FF01202E210BF089F80022934B1A70012026210BF082F84FF4FA700FF0DAFF01202E210BF07AF800228C4B1A706420D3
:401980000FF0D0FF0FF070FB38BD0FF043FB082842F0F785804B1B78DBB2AA2B4AD17E4B9B79DBB2C32B45D17B4BDB79DBB23C2B40D1794BDB78DBB23F2B08D002D83E2B4E
:4019C0001CD037E07E2B26D0942B2CD032E0012040210BF04BF800236E4A1370744A13700120612106220BF079F801206D2107220BF074F815226D4B1A701BE001203F21AE
:401A00000BF034F80023634A1370694A13701622664B1A700EE001202E210BF027F80022624B1A7006E0012070210BF01FF80E225E4B1A7064200FF075FF0FF015FB38BDAA
:401A40000FF0E8FA082842F09C85534B1B78DBB2AA2B40F09980504B9B79DBB2C32B40F093804D4BDB79DBB23C2B40F08D804A4BDB78DBB27E2B78D00AD8772B42D002D8C6
:401A8000762B10D080E0782B4CD07A2B58D07BE0832B27D002D8822B14D075E0942B6CD0952B5AD070E0012030210AF0DFFF0023404A1370374A13703F4A137018223B4B7A
:401AC0001A7061E0012079210AF0D0FF0222394B1A7000232F4A1370374A13701822334B1A7051E001207A210AF0C0FF0322314B1A700023274A13702F4A137018222B4B6C
:401B00001A7041E0012078210AF0B0FF0122294B1A7000231F4A1370274A13701822234B1A7031E0012065210AF0A0FF0122214B1A700022174B1A7017221C4B1A7023E09C
:401B4000012032210AF092FF00231A4A1370114A13701722154B1A7016E0012066210AF085FF2022114B1A700EE001202E210AF07DFF00220D4B1A7006E0012070210AF0AD
:401B800075FF0E22094B1A7064200FF0CBFE0FF06BFA38BDF185FF1F788CFF1F1889FF1F2C84FF1F7888FF1FEF89FF1F2F83FF1F3283FF1F3C86FF1F6A8AFF1F0FF02AFA4F
:401BC000082842F0DE84B24B1B78DBB2AA2B79D1AF4B9B79DBB2C32B74D1AD4BDB79DBB23C2B6FD1AA4BDB78DBB2802B1FD004D87E2B58D07F2B06D064E0822B3FD02AD3FE
:401C0000942B58D05EE0012006210AF02FFF0022A04B1A70A04B1978A04B83F8A310012024210AF05BFF1A229D4B1A704AE0012006210AF01BFF0022964B1A70994B1978F3
:401C4000964B83F8A310012024210AF047FF1A22934B1A7036E0012006210AF007FF00228C4B1A70904B19788C4B83F8A310012024210AF033FF1A22894B1A7022E001206A
:401C800006210AF0F3FE0022824B1A70874B1978824B83F8A310012024210AF01FFF1A227F4B1A700EE001202E210AF0DFFE00227B4B1A7006E0012070210AF0D7FE0E22EF
:401CC000774B1A7064200FF02DFE0FF0CDF938BD0FF0A0F9082842F054846D4B1B78DBB2AA2B40F08D816A4B9B79DBB2C32B40F08781674BDB79DBB23C2B40F08181644B1C
:401D0000DB78DBB2642B00F0048104D8622B09D0632B43D074E17E2B00F06381942B00F068816DE1012039210AF0A0FE64200FF0F9FD5F4B187806F039FF06281ED15D4B6B
:401D4000187806F033FF062808D101204A210AF08DFE4FF4FA700FF0E5FD51E1012055210AF084FE4FF4FA700FF0DCFD01202E210AF07CFE00224A4B1A7041E1012055215D
:401D80000AF074FE4FF4FA700FF0CCFD01202E210AF06CFE0022424B1A7031E1012037210AF064FE444B5B78012B45D10022434B1A600AE0424A1344012093F82C100BF0D0
:401DC00081FE3E4A1368013313603C4B1B68102BF0D901200A210BF075FE01200A210BF071FE01200A210BF06DFE01200A210BF069FE0022314B1A600AE0314A13440220E6
:401E000093F82C100BF05EFE2C4A1368013313602A4B1B68102BF0D902200A210BF052FE02200A210BF04EFE02200A210BF04AFE02200A210BF046FE1F4B5B78022B60D10D
:401E400000221E4B1A600AE01D4A1344032093F82C100BF037FE194A136801331360174B1B68102BF0D903200A210BF02BFE03200A210BF027FE03200A210BF023FE0320C0
:401E80000A210BF01FFE00220C4B1A6025E000BF788CFF1FF185FF1F6B8AFF1F1889FF1F2F83FF1F7688FF1F538AFF1FF085FF1F048AFF1F3483FF1F6C88FF1F2C84FF1FC5
:401EC0000C81FF1FA64A1344042093F82C100BF0F9FDA44A136801331360A24B1B68102BF0D904200A210BF0EDFD04200A210BF0E9FD04200A210BF0E5FD04200A210BF0B6
:401F0000E1FD01206B210AF0B1FD2522964B1A7076E001200BF0FAFD012852D133200FF0C1F8012033210BF055FE002868D000228E4B1A600AE001200BF0B6FE8C4B1C4473
:401F400084F82900894A136801331360874B1C68072CF0D90023874A1370844A13600CE0844C834A1344207893F829100CF012FA20707E4A1368013313607C4B1B68062B84
:401F8000EED97B4B93F830207A4B1B789A4208D101204B210AF06AFD4FF47A700FF0C2FC2EE0012055210AF061FD4FF4FA700FF0B9FC01202E210AF059FD00226A4B1A7055
:401FC0001EE0012055210AF051FD4FF4FA700FF0A9FC01202E210AF049FD0022624B1A700EE001202E210AF041FD00225E4B1A7006E0012070210AF039FD0E225A4B1A7098
:4020000064200FF08FFC0FF02FF838BD0FF002F8082842F0B682584B1B78DBB2AA2B40F03181554B9B79DBB2C32B40F02B81524BDB79DBB23C2B40F02581504B1B78042B47
:4020400000F2C580DFE813F005002E005400C3009E00494AD278D2B2012A0FD80133DAB2464B1A70444CE17830310120C9B20AF035FDE3781B01424A82F8A1303E4BDB78ED
:40208000DBB20A2B40F0A3803C4B1A780132D2B21A7000213A4B83F8A110012030210AF01DFD94E0344AD278D2B2092A11D80133DAB2324B1A70304CE17830310120C9B2E4
:4020C0000AF00CFDE1782E4A92F8A1300B4382F8A130294BDB78DBB20A2B78D1274B1A780132D2B21A70012030210AF0F7FC6EE0214AD278D2B2052A17D80133DAB21F4CD2
:40210000227001203A210AF0E9FC22780132D2B22270194CE17830310120C9B20AF0DEFCE3781B01164A82F8A030134BDB78DBB20A2B4CD1114C22780132D2B2227001202E
:402140003A210AF0CBFC22780132D2B22270012030210AF0C3FC0022094B83F8A02036E00C81FF1F2C84FF1F2F83FF1FF485FF1F7888FF1FD785FF1F788CFF1FF185FF1F40
:402180001889FF1FAD4AD278D2B2092A11D80133DAB2AB4B1A70A94CE17830310120C9B20AF09CFCE178A74A92F8A0300B4382F8A030A24BDB78DBB20A2B08D1A04B1A78CE
:4021C0000132D2B21A70012030210AF087FC9B4BDB78DBB2402B17D19B4B1B783BB90120994B1870702106220AF078FC07E00022954B1A700120612106220AF06FFC0120B1
:402200006D2107220AF06AFC8C4BDB78DBB20B2B12D18B4B1A783AB9012070210AF026FC0E228A4B1A7007E0012020210AF056FC834A1378013B1370804BDB78DBB20C2B71
:4022400020D17F4B1B78052B1CD17F4B1B7843F002027C4991F8A13043EA421381F8A1300BF048FB01280DD139210AF0FFFB4FF4FA700FF057FB012070210AF0F7FB0E2215
:40228000724B1A7064200FF04DFB0EF0EDFE38BD0EF0C0FE082842F07481684B1B78DBB2AA2B40F06581654B9B79DBB2C32B40F05F81624BDB79DBB23C2B40F05981604B64
:4022C0001A78072A00F22181DFE812F00800310058001F019100C2001F01FA00574BDB78DBB2032B0FD8554CE17830310120C9B20AF0F4FB524A137801331370E3781B01D4
:40230000504A82F89D304D4BDB78DBB20A2B40F0FC8000224B4B83F89D20494C0120302122780AF0DBFB237801332370EDE0434BDB78DBB2092B11D8404CE17830310120E1
:40234000C9B20AF0CBFBE1783E4A92F89D300B4382F89D303A4A137801331370374BDB78DBB20A2B40F0D180354C0120302122780AF0B4FB237801332370C6E02F4BDB786C
:40238000DBB2012B17D801202F210AF0A7FB2C4C22780132D2B22270284DE97830310120C9B20AF09BFBEB781B01264A82F89E30237801332370214BDB78DBB20A2B40F060
:4023C000A4801F4C01202F2122780AF087FB22780132D2B22270012030210AF07FFB0022184B83F89E202378013323708DE0134BDB78DBB2092B11D8104CE17830310120DF
:40240000C9B20AF06BFBE1780E4A92F89E300B4382F89E300A4A137801331370074BDB78DBB20A2B71D1064C0120302122780AF055FB23780133237067E000BF788CFF1FB1
:40244000F185FF1F1889FF1F3283FF1F2F83FF1FA64BDB78DBB2092B17D801202F210AF03DFBA34C22780132D2B222709F4DE97830310120C9B20AF031FBEB781B019D4A27
:4024800082F89F30237801332370984BDB78DBB20A2B3AD1964C01202F2122780AF01EFB22780132D2B22270012030210AF016FB0022904B83F89F2023780133237024E071
:4024C0008A4BDB78DBB2092B11D8884CE17830310120C9B20AF002FBE178864A92F89F300B4382F89F30824A1378013313707F4BDB78DBB20A2B08D17D4C01203021227835
:402500000AF0ECFA237801332370784BDB78DBB20B2B12D1764B1B783BB9012070210AF0A5FA0E22744B1A7007E0013BDAB2704B1A70012020210AF0D1FA6C4BDB78DBB2DF
:402540000C2B15D16A4B1B78082B11D10BF000FA01280DD139210AF089FA4FF4FA700FF0E1F9012070210AF081FA0E22624B1A7064200FF0D7F90EF077FD38BD0EF04AFDFB
:40258000082841F0FE87594B1B78DBB2AA2B40F00D81564B9B79DBB2C32B40F00781534BDB79DBB23C2B40F00181504BDB78DBB27E2B06D101202E210AF058FA00224E4BEC
:4025C0001A704B4B1B780C2B61D8484AD278D2B2092A1ED80133DAB2454B1A70474B1B7813B1012B07D00DE0404BD978414B13443031997706E03D4BD9783E4B134430314C
:4026000083F82F10394BD97830310120C9B20BF08DF8364BDB78DBB20A2B18D1344B1A780132D2B21A70354B1B7813B1012B05D009E0304B13443021997704E02D4B134416
:40264000302183F82F10012030210BF06FF8274BDB78DBB2512B1AD1254B1B78BBB10133DAB2234B1A70254B1B7813B1012B05D009E0204B13442E21997704E01D4B134426
:402680002E2183F82F1001202E210BF04FF8174BDB78DBB20B2B4ED1154B1A78002A42D10E22154B1A70012070210AF0DFF92F200C210BF0BDF90022114B1A6008E0114A93
:4026C000D15C0C4A1A4482F82F1001330C4A13600C4B1A780A4B1B689A42F0D220200F210BF0A6F90022064B1A6015E0788CFF1FF185FF1F1889FF1F2F83FF1F3C86FF1FD3
:402700002C84FF1FF885FF1F9A4AD15C9A4A1A4491770133994A1360964B1A78974B1B689A42F1D207E0012020210AF0FFFF944A1378013B1370934BDB78DBB20C2B35D170
:402740000E22914B1A70012070210AF08FF98F4B1B7813B1012B11D028E0894B1B78864901F81E3F20200BF025F9F8B9012055210AF07CF96422844B1A7017E0804B1B7879
:402780007D4901F82F3F2F200BF014F970B9012055210AF06BF94FF4FA700FF0C3F801202E210AF063F90022774B1A7064200FF0B9F80EF059FC38BD0EF02CFC082841F0D9
:4027C000E086704B1B78DBB2AA2B40F0CC836D4B9B79DBB2C32B40F0C6836A4BDB79DBB23C2B40F0C083664B1B78172B00F25A82644AD278D2B2092A61D80133DAB2604B6D
:402800001A70624B1B78042B52D8DFE803F0031427394B005E4B1978012904D1594BDB7830335C488354002942D1564BDB78303351498B543CE0564B1978012904D1514BF6
:40284000DB78303354488354002931D14D4BD978494B1344303183F8431029E04C4B1978012904D1474BDB7830334C488354F9B9444BD978404B1344303183F8611017E066
:40288000434B1978012904D13E4BDB7830334448835469B93B4BD978374B1344303183F87F1005E0374BD9783E4B13443031D972344BD97830310120C9B20AF037FF314B5E
:4028C000DB78DBB20A2B2BD12D4B1A780132D2B21A702E4B1B78042B1ED8DFE803F003070D1319003021244B995415E0224B1344302183F843100FE01F4B1344302183F84D
:40290000611009E01C4B1344302183F87F1003E0244B13443021D972012030210AF006FF184BDB78DBB2672B46D1154B1A780132D2B21A70154B1B78042B39D8DFE803F062
:4029400003070D13340023210B4B995430E00A4B1344232183F843102AE0074B1344232183F8611024E0044B1344232183F87F101EE000BFF885FF1F1889FF1F2C84FF1FE4
:40298000F185FF1F788CFF1F2F83FF1F3C86FF1F6A8AFF1FC885FF1F2084FF1F088BFF1FD885FF1F7888FF1F984B13442321D972012023210AF0BAFE954BDB78DBB26A2BF3
:4029C0002BD1944B1A780132D2B21A70924B1B78042B1ED8DFE803F003070D1319002D218E4B995415E08D4B13442D2183F843100FE08A4B13442D2183F8611009E0874B33
:402A000013442D2183F87F1003E0804B13442D21D97201202D210AF089FE7D4BDB78DBB2662B2BD17B4B1A780132D2B21A707A4B1B78042B1ED8DFE803F003070D13190011
:402A40004021764B995415E0744B1344402183F843100FE0714B1344402183F8611009E06E4B1344402183F87F1003E0674B13444021D972012040210AF058FE644BDB78EE
:402A8000DBB2692B2BD1634B1A780132D2B21A70614B1B78042B1ED8DFE803F003070D1319002E215D4B995415E05C4B13442E2183F843100FE0594B13442E2183F86110FE
:402AC00009E0564B13442E2183F87F1003E04F4B13442E21D97201202E210AF027FE4C4BDB78DBB2682B4BD14A4B1A780132D2B21A70494B1B78042B3ED8DFE803F0030FD9
:402B00001D2B3900464B1B78012B02D12020454988548BBB2021414B99542DE0404B1B78012B02D12020404988542BBB3B4B1344202183F843101FE0394B1B78012B02D191
:402B400020203A498854BBB9344B1344202183F8611011E0324B1B78012B02D12020344988544BB92D4B1344202183F87F1003E0264B13442021D972012020210AF0D6FD22
:402B8000234BDB78DBB21A2B40F28C80204BDB78DBB2422B00F286800022264B1A607CE01B4AD278D2B224491944097A8A4270D118490A780132D2B20A701749097804297C
:402BC00061D8DFE801F003123B4B5B0014490878012803D103F14101124CA154002852D103F141010D4881544DE00D490878012803D103F141010C4CA154002843D10749D1
:402C0000114403F1410081F843003CE07888FF1F788CFF1FF185FF1F3C86FF1F1889FF1F6A8AFF1FC885FF1F2084FF1F088BFF1FD885FF1F2C84FF1F0C81FF1FA34908786F
:402C4000012803D103F14101A14CA154D8B9A149114403F1410081F8610014E09B490878012803D103F141019B4CA15458B99949114403F1410081F87F0004E0974911446B
:402C800003F14100C87203F141010120C9B20AF04DFD934A136801331360914B1B68192B7FF67EAF8F4BDB78DBB20B2B6DD18E4B1A78002A61D10120702109F0D7FE402076
:402CC00020210AF0B5FE0022854B1A6008E0874AD15C804A1A4482F843100133804A1360824B1A787E4B1B689A42F0D2802020210AF09EFE00227A4B1A6008E07B4AD15C33
:402D0000744A1A4482F861100133754A1360774B1A78734B1B689A42F0D2A02020210AF087FE00226E4B1A6008E0704AD15C694A1A4482F87F100133694A13606B4B1A7893
:402D4000674B1B689A42F0D2002020210AF070FE0022634B1A6006E0644AD15C5D4AD15401335F4A1360614B1A785D4B1B689A42F2D20E225E4B1A7007E0012020210AF0E1
:402D8000D5FC594A1378013B1370564BDB78DBB20C2B40F0E8800120392109F067FE4FF4FA700EF0BFFD0120702109F05FFE0E224F4B1A704F4B1B78042B00F2D480DFE800
:402DC00003F0032E5A9FC700404B1B78012B07D14949454B1B780B7040F26A400AF0EAFD3A4B1B78002B40F0BE803A493E4B1B780B7000200AF0DEFD002840F0B480012073
:402E0000552109F033FE4FF4FA700EF08BFD01202E2109F02BFE0022354B1A70A3E02B4B1B78012B07D135492F4B1B780B7040F275400AF0BFFD254B1B78002B40F093805D
:402E4000294B1B78234901F8433F40200AF0B2FD002840F088800120552109F007FE4FF4FA700EF05FFD01202E2109F0FFFD00221F4B1A7077E0154B1B78012B07D1144939
:402E8000194B1B780B704FF490600AF093FD0F4B1B78002B67D1144B1B780E4901F8613F80200AF087FD00285DD10120552109F0DDFD4FF4FA700EF035FD01202E2109F08D
:402EC000D5FD00220A4B1A704DE000BF6A8AFF1F088BFF1F1889FF1FD885FF1F7888FF1F2C84FF1F788CFF1FF185FF1FF885FF1F2F83FF1F3C86FF1FC885FF1F2084FF1FFC
:402F0000B34B1B78012B07D1B249B34B1B780B7040F28B400AF04EFDAD4B1B781BBBAE4B1B78AE4901F87F3FA0200AF043FDD0B90120552109F09AFD4FF4FA700EF0F2FCD5
:402F400001202E2109F092FD0022A54B1A700AE0A14B1A78A34BDA720120392109F086FD24229F4B1A7064200EF0DCFC0EF07CF838BD0EF04FF8082841F003839A4B1B7805
:402F8000DBB2AA2B40F0C080974B9B79DBB2C32B40F0BA80944BDB79DBB23C2B40F0B4808D4B1B78062B25D88F4AD278D2B2092A0FD80133DAB2884B1A708B48C178894B82
:402FC00013443031D972C17830310120C9B209F085FD854BDB78DBB20A2B0BD17E4B1A780132D2B21A707F4B13443021D972012009F074FD7C4BDB78DBB20B2B1BD1764BEE
:403000001A783AB90120702109F030FD0E22744B1A7010E00120202109F060FD6E4B1B78704A1A44D27A2C2A02D100216F4A1170013B694A13706C4BDB78DBB20C2B63D16A
:40304000654B1B78032B5FD90622654B1A700120392109F00BFD604B1A78624BDA72644B187809F0A1FB00283FD05C4B93F8A320604B1B789A4204D140F2A7105E490AF01A
:4030800099FC564B93F8A3205C4B1B789A4204D140F2B31058490AF08DFC504B93F8A320574B1B789A4204D140F2AD1052490AF081FC4A4B93F8A320524B1B789A4204D1F4
:4030C0004FF47A704C490AF075FC01203C2109F0CDFC4FF4FA700EF025FC0120702109F0C5FC0E223E4B1A700EE00120552109F0BDFC4FF4FA700EF015FC01202E2109F08C
:40310000B5FC0022364B1A7064200EF00BFC0DF0ABFF38BD0DF07EFF082841F03282324B1B78DBB2AA2B40F086802F4B9B79DBB2C32B40F080802C4BDB79DBB23C2B7AD112
:40314000294BDB78DBB2802B2FD004D87E2B63D07F2B06D06FE0822B56D031D3942B63D069E00120582109F081FC01200021732240F2C31309F0D8FE01200021CF2240F295
:40318000C51309F0D1FE01200146292240F2C11309F0CAFE012001467B2240F2EE3309F0C3FE1C220E4B1A7045E00120062109F05DFC0022084B1A701D22094B1A703AE0CD
:4031C00001206D2109F052FC1E22054B1A7032E06A8AFF1FD885FF1FF185FF1F1889FF1F2F83FF1F7888FF1F788CFF1F3283FF1F048AFF1F6B8AFF1F8388FF1F538AFF1F07
:403200007688FF1FF085FF1F01208A2109F02EFC2A22AB4B1A700EE001202E2109F026FC0022A74B1A7006E00120702109F01EFC0E22A34B1A7064200EF074FB0DF014FFB9
:4032400038BD0DF0E7FE082841F09B819D4B1B78DBB2AA2B65D19B4B9B79DBB2C32B60D1984BDB79DBB23C2B5BD1964BDB78DBB2802B1AD004D87E2B44D07F2B06D050E04B
:40328000822B30D020D3942B44D04AE00120062109F0ECFB00228C4B1A7001228B4B83F8A3201F22864B1A703BE00120062109F0DDFB0022844B1A700222844B83F8A32013
:4032C0001F227F4B1A702CE00120062109F0CEFB00227D4B1A7003227C4B83F8A3201F22774B1A701DE00120062109F0BFFB0022754B1A700422754B83F8A3201F22704B74
:403300001A700EE001202E2109F0B0FB00226C4B1A7006E00120702109F0A8FB0E22684B1A7064200EF0FEFA0DF09EFE38BD0DF071FE082841F02581624B1B78DBB2AA2BE0
:4033400040F0B8805F4B9B79DBB2C32B40F0B2805C4BDB79DBB23C2B40F0AC80594BDB78DBB2942B06D10120702109F07FFB0E22534B1A70544B1B78042B36D8514AD27814
:40338000D2B2092A0FD80133DAB24F4B1A704D48C1784F4B13443031D972C17830310120C9B209F09BFB474BDB78DBB20A2B0BD1454B1A780132D2B21A70454B134430213D
:4033C000D972012009F08AFB3E4BDB78DBB2512B0BD13D4B1A780132D2B21A703C4B13442C21D972012009F079FB364BDB78DBB20B2B1BD1344B1A783AB90120702109F091
:4034000035FB0E222E4B1A7010E00120202109F065FB2D4B1B782E4A1A44D27A2C2A02D100212C4A1170013B274A1370254BDB78DBB20C2B3ED1244B1B78052B3AD1244B9E
:403440001B7B353BDBB2022B34D80120392109F00DFB1D4B1B781E4901F80B3F4FF4DD700AF0A8FA012805D1194B1B7B03F00F03194A137040F25A2018490AF09BFA01288A
:4034800018D1134A937B03F00F0315490B70137C03F00F03134A13703C2109F0E7FA4FF4FA700EF03FFA0120702109F0DFFA0E22034B1A7064200EF035FA0DF0D5FD38BD4A
:4034C0002F83FF1F788CFF1FF185FF1F1889FF1F7888FF1F3283FF1FD585FF1F8388FF1F1C84FF1F528AFF1F0DF094FD082841F04880A74B1B78DBB2AA2B40F08780A44B79
:403500009B79DBB2C32B40F08180A14BDB79DBB23C2B7BD19E4BDB78DBB28F2B08D002D87E2B64D072E0902B31D0942B67D06DE09849002381F82D3081F82E304FF4DE70A6
:403540002D310AF037FA012811D10022924B1A703C2109F08BFA4FF4FA700EF0E3F90120702109F083FA0E228C4B1A704EE00120552109F07BFA4FF4FA700EF0D3F9012048
:403580002E2109F073FA0022844B1A703EE08149012381F82D3081F82E304FF4DE702D310AF008FA012812D101247B4B1C7020463C2109F05BFA4FF4FA700EF0B3F90E221C
:4035C000764B1A702046702109F050FA1EE00120552109F04BFA4FF4FA700EF0A3F901202E2109F043FA00226C4B1A700EE001202E2109F03BFA0022684B1A7006E0012031
:40360000702109F033FA0E22644B1A7064200EF089F90DF029FD38BD0DF0FCFC082840F0B0875B4B1B78DBB2AA2B40F0AA80584B9B79DBB2C32B40F0A480554BDB79DBB2C6
:403640003C2B40F09E80564B1B782BBB504AD278D2B2092A0FD80133DAB2514B1A704C48C178504B13443031D972C17830310120C9B209F033FA464BDB78DBB20A2B0BD1CA
:40368000474B1A780132D2B21A70464B13443021D972012009F022FA3D4BDB78DBB20B2B1BD13F4B1A783AB90120002109F0DEF900223A4B1A7010E00120202109F00EFABC
:4036C000374B1B78374A1A44D27A2C2A02D10021354A1170013B324A13702D4BDB78DBB20C2B4ED12E4B1B78012B4AD10120392109F0BCF92A4B1A782A4BDA72254B93F818
:40370000A330012B08D127490A7B284B1A7040F2C1100B310AF04EF91E4B93F8A330022B08D120490A7B224B1A7040F2C3100B310AF040F9174B93F8A330032B08D11949F0
:403740000A7B1C4B1A7040F2C5100B310AF032F9104B93F8A330042B08D112490A7B164B1A7040F2EE300B310AF024F94FF4FA700EF0D8F80120702109F078F90E22074B23
:403780001A7064200EF0CEF80DF06EFC38BD00BF788CFF1F1889FF1F3587FF1F2F83FF1FF185FF1F7888FF1F3283FF1F538AFF1F6B8AFF1F7688FF1FF085FF1F0DF02AFC2C
:4037C000082840F0DE86CD4B1B78DBB2AA2B40F00082CA4B9B79DBB2C32B40F0FA81C74BDB79DBB23C2B40F0F481C44BDB787E3B252B00F2EE81DFE813F0D401EC01EC01B3
:40380000EC01EC01EC01A10187014000FD007600260091006701EC01EC01EC01EC01EC01EC01EC01EC01BB01EC01EC01C7003101AC00EC01EC01EC01EC01EC01EC0116017D
:403840005B00E2004C01AE4901230B704B7040F2C7100AF0AFF8012840F0BB813C2109F005F94FF4FA700EF05DF80120702109F0FDF80E22A34B1A70ABE1A14901230B707D
:4038800002234B7040F2C7100AF094F8012840F0A0813C2109F0EAF84FF4FA700EF042F80120702109F0E2F80E22964B1A7090E1934901230B7003234B7040F2C7100AF012
:4038C00079F8012840F085813C2109F0CFF84FF4FA700EF027F80120702109F0C7F80E22884B1A7075E1864901230B7004234B7040F2C7100AF05EF8012840F06A813C217A
:4039000009F0B4F84FF4FA700EF00CF80120702109F0ACF80E227B4B1A705AE1784901230B7005234B7040F2C7100AF043F8012840F04F813C2109F099F84FF4FA700DF0EE
:40394000F1FF0120702109F091F80E226D4B1A703FE16B4901230B7006234B7040F2C7100AF028F8012840F034813C2109F07EF84FF4FA700DF0D6FF0120702109F076F8C5
:403980000E22604B1A7024E15D4901230B7007234B7040F2C7100AF00DF8012840F019813C2109F063F84FF4FA700DF0BBFF0120702109F05BF80E22524B1A7009E150498B
:4039C00001230B7008234B7040F2C71009F0F2FF012840F0FE803C2109F048F84FF4FA700DF0A0FF0120702109F040F80E22454B1A70EEE0424901240C7009234B7040F259
:403A0000C71009F0D7FF20463C2109F02FF84FF4FA700DF087FF2046702109F027F80E22384B1A70D5E0364901230B700A234B7040F2C71009F0BEFF012840F0CA803C2107
:403A400009F014F84FF4FA700DF06CFF0120702109F00CF80E222B4B1A70BAE0284901230B700B234B7040F2C71009F0A3FF012840F0AF803C2108F0F9FF4FF4FA700DF097
:403A800051FF0120702108F0F1FF0E221D4B1A709FE01B4901230B700C234B7040F2C71009F088FF012840F094803C2108F0DEFF4FF4FA700DF036FF0120702108F0D6FF08
:403AC0000E22104B1A7084E00D4901230B700D234B7040F2C71009F06DFF012879D13C2108F0C4FF4FF4FA700DF01CFF0120702108F0BCFF0E22034B1A706AE0788CFF1FD6
:403B0000E885FF1F2F83FF1FBD4901230B700E234B7040F2C71009F04DFF012859D13C2108F0A4FF4FF4FA700DF0FCFE0120702108F09CFF0E22B34B1A704AE0B049012318
:403B40000B700F234B7040F2C71009F033FF01283FD13C2108F08AFF4FF4FA700DF0E2FE0120702108F082FF0E22A64B1A7030E0A34900230B704B7040F2C71009F01AFFC2
:403B8000012826D13C2108F071FF4FF4FA700DF0C9FE0120702108F069FF0E22994B1A7017E0974900230B704B7040F2C71009F001FF012806D1702108F058FF0E22914BE1
:403BC0001A7006E001202E2108F050FF00228D4B1A7064200DF0A6FE0DF046FA38BD0DF019FA082840F0CD84874B1B78DBB2AA2B4ED1854B9B79DBB2C32B49D1824BDB7982
:403C0000DBB23C2B44D1804BDB78DBB20A2B2ED101227E4B1A6010E07D4B58787D4B197801227D4B1B780AF0BFFF4FF4FA700DF079FE764A136801331360784B1B7803F0D3
:403C40000F03724A12689342E6D201200C2108F00DFF4FF4FA700DF065FE0024704BDC7001202E2108F002FF664B1C7010E001200C2108F0FBFE4FF4FA700DF053FE0024F1
:403C8000674BDC7001202E2108F0F0FE5D4B1C7064200DF047FE0DF0E7F938BD0DF0BAF9082840F06E84584B1B78DBB2AA2B5DD1554B9B79DBB2C32B58D1534BDB79DBB245
:403CC0003C2B53D1504BDB78DBB2392B10D002D8382B05D04AE07E2B41D0942B34D045E001202E2108F0C2FE0022464B1A703DE001203B2108F0BAFE454C60780CF0B0F9DF
:403D000060780A2109F0DEFE60780A2109F0DAFE60780A2109F0D6FE60781D2109F0D2FE6078562109F0CEFE6078312109F0CAFE4FF4FA700DF0F6FD01202E2108F096FE90
:403D40000022304B1A7011E001202F2108F08EFE0022344B1A7027222A4B1A7006E001202E2108F083FE0022264B1A7064200DF0D9FD0DF079F938BD0DF04CF9082840F07A
:403D80000084214B1B78DBB2AA2B60D11E4B9B79DBB2C32B5BD11C4BDB79DBB23C2B56D1194BDB78DBB2912B08D002D87E2B3FD04DE0922B13D0942B42D048E001200A2177
:403DC00008F054FE0122184B1A700422174B1A700022144B1A7018220A4B1A7037E001206F2108F043FE21220F4B1A7004220F4B1A7000220B4B1A701822024B1A7026E0E8
:403E0000E885FF1F2F83FF1F788CFF1FF485FF1F7488FF1F7788FF1F048AFF1F048BFF1F7888FF1FF185FF1F2887FF1F3C86FF1F01202E2108F01AFE0022B94B1A7006E069
:403E40000120702108F012FE0E22B54B1A7064200DF068FD0DF008F938BDB24B012013F80B1FB14A12780AF00FF901282CD16E2108F0FCFD2322AA4B1A700120014609F050
:403E80004FFF052810D90A200DF04CFD012009F0C9FB0120212109F043FF052840F27183012009F03DFB38BD0120552108F0DEFD4FF4FA700DF036FD01202E2108F0D6FD96
:403EC0000022974B1A7038BD0120552108F0CEFD4FF4FA700DF026FD01202E2108F0C6FD00228F4B1A7038BD0DF094F8082840F048838E4B1B78DBB2AA2B7AD18B4B9B79BB
:403F0000DBB2C32B75D1894BDB79DBB23C2B70D1864BDB78DBB2392B08D002D8382B39D067E07E2B3ED0942B5CD062E0804B5A78012A07D17F4901230B704B707E490B7001
:403F400002234B70022A08D17A4B01221A7003215970794B1A7004225A7040F26320754909F028FD012844D140F26520724909F021FD01283DD1682108F078FD4FF4FA708D
:403F80000DF0D0FC0120702108F070FD0E22644B1A702EE02622624B1A700120672108F065FD26E0654B5B78012B03D10022634B5A7002E00122614B5A7040F2DA305F49A6
:403FC00009F0F8FC01203C2108F050FD4FF4FA700DF0A8FC01202E2108F048FD0022504B1A7006E00120702108F040FD0E224C4B1A7064200DF096FC0DF036F838BD0DF081
:4040000009F8082840F0BD82484B1B78DBB2AA2B40F0C980454B9B79DBB2C32B40F0C380424BDB79DBB23C2B40F0BD803F4BDB78DBB28D2B41D005D87E2B00F0A5808C2B86
:4040400006D0B0E08E2B7BD0942B00F0A580AAE0374B5B78012B07D1364A0120107002215170354A10705170022B07D1314B0121197004225A70304B19705A7040F26320BB
:404080002C4909F097FC012840F08D8040F26520294909F08FFC012840F085806A2108F0E5FC4FF4FA700DF03DFC0E221C4B1A700120702108F0DAFC75E01D4B5A78012AEC
:4040C00006D11C4901230B704B701B490B704B70022A07D1174B0121197003225A70164B19705A7040F26320124909F063FC012859D140F26520104909F05CFC012852D174
:40410000692108F0B3FC4FF4FA700DF00BFC0120702108F0ABFC0E22014B1A7043E000BF2F83FF1F7888FF1F2887FF1F788CFF1F6C88FF1F7488FF1F1489FF1F2C83FF1FD3
:40414000B3490120087000224A70B24B18705A7040F2632009F02EFC012824D140F26520AC4909F027FC01281DD16C2108F07EFC4FF4FA700DF0D6FB0120702108F076FC14
:404180000E22A54B1A700EE001202E2108F06EFC0022A14B1A7006E00120702108F066FC0E229D4B1A7064200DF0BCFB0CF05CFF38BD0CF02FFF082840F0E381974B1B7882
:4041C000DBB2AA2B40F0E380944B9B79DBB2C32B40F0DD80914BDB79DBB23C2B40F0D7808F4B1A78032A26D88C4BDB78DBB2092B0ED88A4BD9788B4B1344303183F88E10EF
:4042000001202A2108F06AFC854A137801331370824BDB78DBB20A2B0DD1814C2278814B1344302183F88E1001202A2108F056FC237801332370794BDB78DBB20B2B1AD112
:40424000774B1B787BB90120552108F00FFC4FF4FA700DF067FB01202E2108F007FC00226D4B1A7007E0013BDAB26D4B1A700120202108F033FC694BDB78DBB20C2B40F0CB
:404280008680674B1A78002A72D0002366490B6066490B6012E0591C6548405C614C234493F88E30984204D15F4803680133036002E000205C4B18605C4B196010465B4B4F
:4042C0001B689A42E7D85A4B1A78574B1B689A420FD10120262108F0C9FB4FF4FA700DF021FB22224C4B1A700120712108F0BEFB4DE000234C4A13604C4A136010E04C4AED
:404300001A4492F82410474A1A4492F88E20914203D145490A6801320A600133434A1360424B1B689842EAD83F4B1B68042B0FD10120262108F09AFB4FF4FA700DF0F2FA6F
:404340002222354B1A700120712108F08FFB1EE00120272108F08AFB4FF4FA700DF0E2FA01202E2108F082FB00222B4B1A700EE00120272108F07AFB4FF42F700DF0D2FADA
:4043800001202E2108F072FB0022234B1A7064200DF0C8FA0CF068FE38BD0CF03BFE082840F0EF801D4B1B78DBB2AA2B74D11B4B9B79DBB2C32B6FD1184BDB79DBB23C2BEE
:4043C0006AD1164BDB78DBB2BC2B08D002D87E2B5BD061E0BD2B2FD0BE2B46D05CE0154901240C704C704FF47D7009F0E3FA2046392108F03BFB4FF42F700DF093FA2046F0
:40440000702108F033FB0E22034B1A7044E000BF7488FF1F1489FF1F2F83FF1F788CFF1FF185FF1F7888FF1F3887FF1F2C84FF1F0C81FF1F6C88FF1F524901240C70022398
:404440004B704FF47D7009F0B5FA2046392108F00DFB4FF42F700DF065FA2046702108F005FB0E22484B1A7016E00120062108F0FDFA0122454B1A700023454A1370454A41
:4044800013700522404B1A7006E00120702108F0EDFA0E223C4B1A7064200DF043FA0CF0E3FD38BD0CF0B6FD08286AD13A4B1B78DBB2AA2B60D1384B9B79DBB2C32B5BD1F3
:4044C000354BDB79DBB23C2B56D1334BDB78763B0D2B51D8DFE803F007385050505050504950505017270120302108F0BFFA00232A4A1370264A13700122294B1A7018220F
:40450000214B1A7038E00120302108F0AFFA0123224A137000211E4A1170214A13701822194B1A7028E00120302108F09FFA02221A4B1A700022164B1A700122184B1A70EC
:404540001822114B1A7017E00120302108F08EFA0322124B1A7000220D4B1A700122104B1A701822084B1A7006E001205F2108F07DFA1B22044B1A7064200DF0D3F90CF0AE
:4045800073FD38BD6C88FF1F2F83FF1F7088FF1FF185FF1F3283FF1F788CFF1F3C86FF1F6A8AFF1F10B5A34B1B78212B01F24883DFE813F022009C00F800460B5201CC01E2
:4045C0006102D602460B6A0339047C04E904680591057406460B460B460B8907460B460B460B460B460B460B2F080009AD09460B460B250A460BEB0A8F4B1B78012B03D1B8
:404600008E4B1A788B4B1A708D4B1B78012B06D18C4B1A788C4B1A7001228C4B1A700CF0F9FC082841F00C83894B1B78DBB2AA2B56D1874B9B79DBB2C32B51D1844BDB797C
:40464000DBB23C2B4CD1824BDB78DBB2562B02D0572B1FD044E07A4B1B78012B04D1794B1A78794B1A7008E00120632108F0FEF90123764A1370744A13706F4B1B78012BFA
:4046800004D16E4B1A786B4B1A7029E00022694B1A7025E00120632108F0E8F902226B4B1A70674B1B78012B04D1664B1A78664B1A7002E00022644B1A705F4B1B78012BE0
:4046C00004D15E4B1A785B4B1A7009E00120632108F0CCF902225D4B1A700122554B1A7064200DF01FF90CF0BFFC10BD0CF092FC082841F0A582564B1B78DBB2AA2B4BD1AB
:40470000534B9B79DBB2C32B46D1514BDB79DBB23C2B41D14E4BDB78DBB25C2B0AD004D8452B0FD0592B18D036E07E2B25D0942B2BD031E00120492108F098F902223D4B8F
:404740001A7029E00120252108F090F90022414B1A700F22374B1A701EE001202B2108F085F94FF42F700DF0DDF801202E2108F07DF900222F4B1A700EE001202E2108F05A
:4047800075F900222B4B1A7006E001202E2108F06DF90022274B1A7064200DF0C3F80CF063FC10BD0CF036FC082841F04982284B1B78DBB2AA2B36D1254B9B79DBB2C32B6B
:4047C00031D1234BDB79DBB23C2B2CD1204BDB78DBB25F2B08D002D85E2B0DD023E07E2B12D0942B18D01EE001200B2108F03EF90A22104B1A7016E001201D2108F036F9DB
:404800000B220C4B1A700EE001202E2108F02EF90022084B1A7006E00120632108F026F90122044B1A7064200DF07CF80CF01CFC10BD00BFEC85FF1FC785FF1F3083FF1FF1
:40484000508AFF1FEF85FF1F2F83FF1F1089FF1F788CFF1FF185FF1F0CF0DCFB082841F0EF81A94B1B78DBB2AA2B69D1A64B9B79DBB2C32B64D1A44BDB79DBB23C2B5FD18E
:40488000A24AD37823F00303D3709F4BDB78DBB23B2B3ED004D80F2B09D0102B1BD04FE07E2B3ED0942B44D0432B49D129E00120062108F0DBF80022954B1A7001202421C3
:4048C00008F00CF9934AD37843F00203D3700522914B1A7034E001200D2108F0C7F800228B4B1A708D4B1A700120472108F0F6F8884AD37843F00103D3700522864B1A7005
:404900001EE00120072108F0B1F80622824B1A7016E001202E2108F0A9F800227E4B1A700EE001202E2108F0A1F800227A4B1A7006E001200B2108F099F80A22764B1A7009
:4049400064200CF0EFFF0CF08FFB10BD0CF062FB082841F075816C4B1B78DBB2AA2B40F08480694B9B79DBB2C32B7ED1664BDB79DBB23C2B79D1664B1B78694A1278013A55
:4049800093423EDC604AD278D2B2092A0FD80133DAB25F4B1A705C48C1785E4B13443031D972C17830310120C9B208F097F8564BDB78DBB20A2B0BD1554B1A780132D2B2C1
:4049C0001A70544B13443021D972012008F086F84D4BDB78DBB2512B13D14D4B1B7883B14E4A12786AB90133DAB2494B1A70494B13442C21D972012008F070F80122474BF1
:404A00001A70414BDB78DBB20B2B1BD1404B1A783AB90120052108F029F804223E4B1A7010E00120202108F059F8394B1B78374A1A44D27A2C2A02D10021384A1170013B4F
:404A4000334A1370304BDB78DBB20C2B0DD1304B1B7853B10120072108F008F82C4B1A782C4BDA7206222C4B1A7064200CF05AFF0CF0FAFA10BD0CF0CDFA082820D1224B97
:404A80001B78DBB2AA2B15D11F4B9B79DBB2C32B10D11D4BDB79DBB23C2B0BD11A4BDB78DBB27E2B06D101202E2107F0DFFF0022194B1A7064200CF035FF0CF0D5FA10BD4F
:404AC000184B187804F072F8072841F0B98032200CF028FF134B187804F07CF80146124B18700C4BDB7813F0030321D00D4A10780E4A07F017FCD8B901202E2107F0B6FF43
:404B00000022054B1A7010BD788CFF1F7888FF1FF185FF1F6C8AFF1FEC85FF1F3283FF1FD585FF1F3483FF1FC085FF1F778AFF1F9F4C207804F04EF89E4B1870207840F09D
:404B400010000CF033F90120082107F08FFF0723994A1370994A13700122994B1A7010BD32200CF0DFFE924B187804F01FF80638052801F26580DFE810F0700063086308E7
:404B80007C003B00060064200CF0CCFE884B187804F094F801280ED18A4B1B785BB9392107F064FF0022864B1A7014200CF0BAFE0D22814B1A707E4B187804F07FF80128FC
:404BC00041F03E807F4B1B78012B41F039800C2107F04CFF00247A4B1C704FF4FA700CF0A1FE01202E2107F041FF734B1C7010BD64200CF097FE6E4B187804F05FF8012897
:404C00000ED1704B1B785BB9392107F02FFF00226B4B1A7014200CF085FE0D22664B1A70634B187804F04AF8012841F00980654B1B78012B41F004800C2107F017FF00245C
:404C40005F4B1C704FF4FA700CF06CFE01202E2107F00CFF584B1C7010BD01202E2107F005FF0023564A1370574AD370524A137010BD32200CF056FE01202E2107F0F6FEFF
:404C800000224D4B1A7010BD0CF0C4F9082840F0D7874E4B1B78DBB2AA2B40F0BE804B4B9B79DBB2C32B40F0B880484BDB79DBB23C2B40F0B280464B1B78062B65D8434A87
:404CC000D278D2B2092A10D80133DAB2404B1A703E48C1783C4B1344303183F86510C17830310120C9B207F0F9FE384BDB78DBB20A2B0CD1364B1A780132D2B21A70324B9E
:404D00001344302183F86510012007F0E7FE2F4BDB78DBB26A2B0CD12D4B1A780132D2B21A70294B13442D2183F86510012007F0D5FE264BDB78DBB21A2B26D9234BDB787D
:404D4000DBB2422B21D80022224B1A6019E01F4AD278D2B220491944097A8A420DD11C490A780132D2B20A704133D9B2164B134483F86510012007F0B1FE164A136801337F
:404D80001360144B1B68192BE1D9104BDB78DBB20B2B2BD10E4B1A7802BB01202E2107F065FE0023084A82F86530034A13701DE03483FF1FC085FF1FEC85FF1F3083FF1FD8
:404DC000C785FF1F8083FF1F6C8AFF1F788CFF1FF185FF1F2C84FF1F0C81FF1F0120202107F07CFEA14A1378013B1370A04BDB78DBB20C2B11D19D4B1B7873B10120052113
:404E000007F034FE9B4B994A127883F86520012283F883200422984B1A7064200CF082FD0CF022F910BD0CF0F5F8082840F008878F4B1B78DBB2AA2B32D18D4B9B79DBB21C
:404E4000C32B2DD18A4BDB79DBB23C2B28D1884BDB78DBB2392B04D07E2B1AD0382B1FD10CE001200A2107F001FE00237F4A1370824A13700922804B1A7011E001200521BB
:404E800007F0F4FD01227D4B1A7004227A4B1A7006E001202E2107F0E9FD0022764B1A7064200CF03FFD0CF0DFF810BD0320012108F036FF052840D90A200CF033FD0320F3
:404EC000212108F02DFF052837D9032008F01EFE012832D133200CF0E5F80120332108F079FE50B30022664B1A600AE0012008F0DBFE604B1C4484F82900614A1368013366
:404F000013605F4B1C68072CF0D90120132107F0ADFD584CE37843F00403E3704FF4FA700CF000FD01200E2107F0A0FD00234F4A137023710C22504B1A700CF06BF8082813
:404F400040F07E864A4B1B78DBB2AA2B15D1484B9B79DBB2C32B10D1454BDB79DBB23C2B0BD1434BDB78DBB23B2B06D10120492107F07CFD0222404B1A7064200CF0D2FCA9
:404F80000CF072F810BD0CF045F8082840F05886374B1B78DBB2AA2B62D1354B9B79DBB2C32B5DD1324BDB79DBB23C2B58D12F4B1B78052B25D82E4AD278D2B2092A0FD8D8
:404FC0000133DAB2294B1A702948C178294B134430311971C17830310120C9B207F07EFD234BDB78DBB20A2B0BD1204B1A780132D2B21A701F4B134430211971012007F09A
:405000006DFD1B4BDB78DBB20B2B12D1174B1A783AB90120052107F029FD0422164B1A7007E00120202107F059FD104A1378013B13700F4BDB78DBB20C2B11D10B4B1B78D5
:4050400073B10C4B5B79302B0AD00120052107F00DFD064B1A78074B1A710422064B1A7064200CF05FFC0BF0FFFF10BDF185FF1F788CFF1F6C8AFF1FEC85FF1F8083FF1F88
:40508000F485FF1F974B5878974B19780022974B1B7809F089FD964B5B788BB901200C2107F0E4FC4FF42F700CF03CFC0024914BDC7001202E2107F0D9FC8F4B1C7010BD30
:4050C0000120312107F0D2FC00228C4B1A702122894B1A7010BD0BF09DFF082840F0B085874B1B78DBB2AA2B40F0D280844B9B79DBB2C32B40F0CC80814BDB79DBB23C2B24
:4051000040F0C6807E4BDB78583B3E2B00F2C080DFE803F020BE5464BE30BEBEBEBEBEBEBE7FBEBEBEBEBEBEBEBEBEBE9FBEBEBEBEBEBEBEBEBEBEBEBEBEAFBEBEBEBEBEAA
:40514000BEBEBEBEBEBEBEBEBEBEBEBEBEBEBE8FB7BE740001202B2107F088FC4FF42F700CF0E0FB0120702107F080FC0E22624B1A708DE001205C2107F078FC01200021B0
:40518000D62240F2AD1307F06DFE01200021892240F2A71307F066FE01200146242240F2B31307F05FFE0120014678224FF47A7307F058FE1322504B1A7069E001202B21E6
:4051C00007F054FC4FF42F700CF0ACFB0120702107F04CFC0E22484B1A7059E001202B2107F044FC4FF42F700CF09CFB0120702107F03CFC0E22404B1A7049E001205F2163
:4052000007F034FC00223F4B1A701B223A4B1A703EE001202B2107F029FC4FF42F700CF081FB0120702107F021FC0E22324B1A702EE001202B2107F019FC4FF42F700CF062
:4052400071FB0120702107F011FC0E222A4B1A701EE001202B2107F009FC4FF42F700CF061FB0120702107F001FC0E22224B1A700EE001202E2107F0F9FB00221E4B1A7011
:4052800006E001202E2107F0F1FB00221A4B1A7064200CF047FB0BF0E7FE10BD0BF0BAFE082840F0CD84164B1B78DBB2AA2B40F00481134B9B79DBB2C32B40F0FE80104BD0
:4052C000DB79DBB23C2B40F0F8800D4BDB78DBB27E2B19D10120312107F0C8FB0022064B1A701DE07488FF1FC085FF1F3483FF1F2C83FF1F6C8AFF1FEC85FF1F1189FF1F52
:40530000788CFF1FF185FF1FA24BDB78DBB2942B06D10120632107F0A9FB01229E4B1A709E4B1A78072A26D89A4BDB78DBB2092B0ED8984BD9789A4B1344303183F88E100B
:4053400001202A2107F0CAFB944A137801331370904BDB78DBB20A2B0DD1904C2278904B1344302183F88E1001202A2107F0B6FB237801332370874BDB78DBB20B2B1AD1BC
:40538000864B1B787BB90120392107F06FFB4FF4FA700CF0C7FA01202E2107F067FB00227D4B1A7007E0013BDAB27C4B1A700120202107F093FB774BDB78DBB20C2B7CD1C5
:4053C000764B1A78002A36D0002376490B6076490B6015E0581C7549014491F8D710704C234493F88E30303B994204D16D490B6801330B6002E000216A4B19606A4B18602A
:40540000694B1B689A42E5D8684B93F8D720654B1B689A420BD10120262107F027FB4FF4FA700CF07FFA0120702107F01FFB0E22594B1A7041E000235A490B605A490B6058
:4054400010E05B49194491F824005549194491F88E10884203D15348016801310160013351490B60504B1B689A42EAD84D4B1B68082B13D10120262107F0F8FA4FF4FA7012
:405480000CF050FA01205D2107F0F0FA0120702107F0ECFA0E22404B1A700EE00120272107F0E4FA4FF4FA700CF03CFA01202E2107F0DCFA0022384B1A7064200CF032FA2F
:4054C0000BF0D2FD10BD0BF0A5FD082840F0B883304B1B78DBB2AA2B40F095802D4B9B79DBB2C32B40F08F802A4BDB79DBB23C2B40F08980274BDB787E3B162B00F2838038
:40550000DFE803F0720C20345E81818181818181818181818181818181817A000120062107F0A4FA00221D4B1A70224B19781F4B83F8A3100120242107F0D0FA1A22164B2B
:405540001A7060E00120062107F090FA0022134B1A70194B1978154B83F8A3100120242107F0BCFA1A220C4B1A704CE00120062107F07CFA0022094B1A70104B19780B4BB8
:4055800083F8A3100120242107F0A8FA1A22024B1A7038E0788CFF1FEC85FF1FF185FF1F6C8AFF1F3887FF1F2C84FF1F1889FF1F0C81FF1F3287FF1F3787FF1F1689FF1FB5
:4055C0000120062107F052FA0022AA4B1A70AA4B1978AA4B83F8A3100120242107F07EFA1A22A74B1A700EE001202E2107F03EFA0022A34B1A7006E00120702107F036FA63
:405600000E229F4B1A7064200CF08CF90BF02CFD10BD0BF0FFFC082840F01283994B1B78DBB2AA2B40F0C080964B9B79DBB2C32B40F0BA80934BDB79DBB23C2B40F0B48038
:405640008C4B1B78062B25D88E4AD278D2B2092A0FD80133DAB2874B1A708A48C1788A4B13443031D972C17830310120C9B207F035FA844BDB78DBB20A2B0BD17D4B1A785D
:405680000132D2B21A70804B13443021D972012007F024FA7B4BDB78DBB20B2B1BD1754B1A783AB90120702107F0E0F90E22744B1A7010E00120202107F010FA6D4B1B780F
:4056C000714A1A44D27A2C2A02D100216F4A1170013B684A13706B4BDB78DBB20C2B63D1644B1B78032B5FD90622654B1A700120392107F0BBF95F4B1A78634BDA72644B3A
:40570000187807F051F800283FD05C4B93F8A320604B1B789A4204D140F2A7105E4908F049F9564B93F8A3205C4B1B789A4204D140F2B310584908F03DF9504B93F8A3202D
:40574000574B1B789A4204D140F2AD10524908F031F94A4B93F8A320474B1B789A4204D14FF47A704C4908F025F901203C2107F07DF94FF4FA700CF0D5F80120702107F0FC
:4057800075F90E223E4B1A700EE00120552107F06DF94FF42F700CF0C5F801202E2107F065F90022364B1A7064200CF0BBF80BF05BFC10BD0BF02EFC082840F04182314BB3
:4057C0001B78DBB2AA2B40F09C802E4B9B79DBB2C32B40F096802B4BDB79DBB23C2B40F09080284BDB787E3B162B00F28A80DFE803F0790C30596988888888888888888867
:40580000888888888888888881000120582107F02DF90120002173224FF41F7307F084FB01200021CF2240F27E2307F07DFB01200146292240F27A2307F076FB0120014607
:405840007B224FF47C7307F06FFB1C220C4B1A7057E001202B2107F009F94FF42F700CF061F80120702107F001F90E22044B1A7047E000BFF185FF1F3487FF1F1889FF1F47
:40588000EC85FF1F788CFF1F7888FF1F3283FF1F3483FF1F3287FF1F8388FF1F1689FF1F3787FF1F01202B2107F0E0F84FF42F700CF038F80120702107F0D8F80E22784B22
:4058C0001A701EE001202B2107F0D0F84FF42F700CF028F80120702107F0C8F80E22704B1A700EE001202E2107F0C0F800226C4B1A7006E00120702107F0B8F80E22684B86
:405900001A7064200CF00EF80BF0AEFB10BD0BF081FB082840F09481624B1B78DBB2AA2B67D1604B9B79DBB2C32B62D15D4BDB79DBB23C2B5DD15B4BDB787E3B162B58D872
:40594000DFE803F0480C1B2A39575757575757575757575757575757575750000120062107F084F80022504B1A7001224F4B83F8A3201F224A4B1A703BE00120062107F0CD
:4059800075F80022484B1A700222484B83F8A3201F22434B1A702CE00120062107F066F80022414B1A700322404B83F8A3201F223B4B1A701DE00120062107F057F8002220
:4059C000394B1A700422394B83F8A3201F22344B1A700EE001202E2107F048F80022304B1A7006E00120702107F040F80E222C4B1A7064200BF096FF0BF036FB10BD0BF0AB
:405A000009FB082840F01C81264B1B78DBB2AA2B40F0B580234B9B79DBB2C32B40F0AF80204BDB79DBB23C2B40F0A9801E4B1B782BBB1C4AD278D2B2092A0FD80133DAB242
:405A4000194B1A701748C178194B13443031D972C17830310120C9B207F040F8114BDB78DBB20A2B0BD1104B1A780132D2B21A700F4B13443021D972012007F02FF8094B79
:405A8000DB78DBB20B2B26D1074B1A7892B90120002106F0EBFF0022014B1A701BE000BFEC85FF1F788CFF1FF185FF1F1889FF1F6C8AFF1F0120202107F010F8614B1B781E
:405AC000614A1A44D27A2C2A02D100215F4A1170013B5C4A13705E4BDB78DBB20C2B4ED1584B1B78012B4AD10120392106F0BEFF544B1A78544BDA72564B93F8A330022BA6
:405B000008D151490A7B544B1A704FF41F700B3107F050FF4F4B93F8A330012B08D14A490A7B4E4B1A7040F27A200B3107F042FF484B93F8A330032B08D143490A7B484BDC
:405B40001A7040F27E200B3107F034FF414B93F8A330042B08D13C490A7B424B1A704FF47C700B3107F026FF4FF4FA700BF0DAFE0120702106F07AFF0E223B4B1A70642066
:405B80000BF0D0FE0BF070FA10BD0BF043FA082856D12F4B1B78DBB2AA2B4CD12C4B9B79DBB2C32B47D12A4BDB79DBB23C2B42D1274BDB78DBB20A2B2ED101222B4B1A6048
:405BC00010E02B4B58782B4B197801222A4B1B7808F0EAFF4FF4FA700BF0A4FE234A136801331360254B1B7803F00F031F4A12689342E6D201200C2106F038FF4FF42F70AE
:405C00000BF090FE00241E4BDC7001202E2106F02DFF154B1C700EE001200C2106F026FF4FF42F700BF07EFE01202E2106F01EFF00220D4B1A7064200BF074FE0BF014FA53
:405C400010BD00BFF185FF1F6C8AFF1F3283FF1F788CFF1F1889FF1F3287FF1F1689FF1F3787FF1F3487FF1FEC85FF1FF485FF1F7488FF1FC085FF1F3483FF1F048BFF1FCE
:405C80007888FF1F10B5A04B1B78212B01F25583DFE813F022009600F200530B4E01C8017B02EC02530B84035404970404058705B005A406530B530B530BA807530B530BC6
:405CC000530B530B530B530B4F082009CD09530B530B270A530BF60A8C4B1B78012B03D18B4B1A78884B1A708A4B1B78012B06D1894B1A78894B1A700422894B1A700BF0AE
:405D00007BFA082841F01983864B1B78DBB2AA2B50D1844B9B79DBB2C32B4BD1814BDB79DBB23C2B46D17F4BDB78DBB2562B02D0572B20D03EE0754B1B78012B04D1744BC5
:405D40001A78714B1A7009E00220632106F08EFE0322734B1A7001226B4B1A706D4B1B78012B04D16C4B1A786C4B1A7022E000226A4B1A701EE06C4B1B78012B04D1644B39
:405D80001A78614B1A7002E000225F4B1A70614B1B78012B04D1604B1A78604B1A7009E00220632106F062FE04225D4B1A7001225A4B1A7064200BF0B5FD0BF047FA10BD68
:405DC0000BF01AFA082841F0B882564B1B78DBB2AA2B4BD1534B9B79DBB2C32B46D1514BDB79DBB23C2B41D14E4BDB78DBB25C2B0AD004D8452B0FD0592B18D036E07E2BDD
:405E000025D0942B2BD031E00220492106F02EFE02223D4B1A7029E00220252106F026FE0022424B1A700F22374B1A701EE002202B2106F01BFE4FF4FA700BF073FD022008
:405E40002E2106F013FE00222F4B1A700EE002202E2106F00BFE00222B4B1A7006E002202E2106F003FE0022274B1A7064200BF059FD0BF0EBF910BD0BF0BEF9082841F026
:405E80005C82284B1B78DBB2AA2B36D1254B9B79DBB2C32B31D1234BDB79DBB23C2B2CD1204BDB78DBB25F2B08D002D85E2B0DD023E07E2B12D0942B18D01EE002200B2173
:405EC00006F0D4FD0A22104B1A7016E002201D2106F0CCFD0B220C4B1A700EE002202E2106F0C4FD0022084B1A7006E00220632106F0BCFD0122044B1A7064200BF012FDCD
:405F00000BF0A4F910BD00BFC485FF1F3387FF1FED85FF1F3183FF1F6988FF1F3A86FF1FEA85FF1F8C8CFF1F508AFF1F1189FF1F0BF062F9082841F00082A64B1B78DBB2F2
:405F4000AA2B69D1A34B9B79DBB2C32B64D1A14BDB79DBB23C2B5FD19F4AD37823F00303D3709C4BDB78DBB23B2B3ED004D80F2B09D0102B1BD04FE07E2B3ED0942B44D063
:405F8000432B49D129E00220062106F06FFD0022924B1A700220242106F0A0FD8E4AD37843F00203D37005228D4B1A7034E002200D2106F05BFD0022884B1A70894B1A706C
:405FC0000220472106F08AFD834AD37843F00103D3700522824B1A701EE00220072106F045FD06227E4B1A7016E002202E2106F03DFD00227A4B1A700EE002202E2106F032
:4060000035FD0022764B1A7006E002200B2106F02DFD0A22724B1A7064200BF083FC0BF015F910BD0BF0E8F8082841F08681694B1B78DBB2AA2B40F0A280664B9B79DBB296
:40604000C32B40F09C80634BDB79DBB23C2B40F09680624B1B78644A1278013A93423EDC5C4AD278D2B2092A0FD80133DAB25B4B1A705848C178584B13443031D972C178D2
:4060800030310220C9B206F029FD524BDB78DBB20A2B0BD1514B1A780132D2B21A704E4B13443021D972022006F018FD494BDB78DBB2512B13D1494B1B7883B1494A1278C4
:4060C0006AB90133DAB2454B1A70434B13442C21D972022006F002FD0122424B1A703D4BDB78DBB20B2B1BD13C4B1A783AB90220052106F0BBFC0422394B1A7010E0022004
:40610000202106F0EBFC354B1B78334A1A44D27A2C2A02D10021334A1170013B2F4A13702C4BDB78DBB20C2B29D12C4B1B786BB12E4B1B7853B90220072106F097FC274B7C
:406140001A78254BDA720622254B1A70234B1B78ABB1264B1B78012B11D10220702106F085FC1D4B1B7B22490B7040F2964007F021FC00221D4B1A700E22194B1A70642060
:406180000BF0D0FB0BF062F810BD0BF035F8082830D1104B1B78DBB2AA2B15D10D4B9B79DBB2C32B10D10B4BDB79DBB23C2B0BD1084BDB78DBB27E2B06D102202E2106F00C
:4061C00055FC0022064B1A7064200BF0ABFB0BF03DF810BD8C8CFF1F9086FF1F1189FF1FC485FF1FF285FF1FD585FF1F7088FF1F048BFF1F9B4B187802F0D8FC072841F03A
:406200009C8032200BF08EFB964B187802F0E2FC0146954B1870954BDB7813F003030DD0904A1078924A06F07DF838B902202E2106F01CFC00228F4B1A7010BD894C20788A
:4062400002F0C8FC884B1870207840F010000AF0ADFD0220082106F009FC0723854A1370854A13700122854B1A7010BD32200BF059FB7C4B187802F099FC0638052801F256
:406280005C80DFE810F074005A085A0880003D00060064200BF046FB724B187802F00EFD01280FD1764B1B7863B90220392106F0DDFB0022714B1A7014200BF033FB0D227F
:4062C0006C4B1A70674B187802F0F8FC012841F034806B4B1B78012B41F02F8002200C2106F0C4FB0024654B1C704FF4FA700BF019FB02202E2106F0B9FB5E4B1C7010BD95
:4063000064200BF00FFB574B187802F0D7FC01280FD15B4B1B7863B90220392106F0A6FB0022564B1A7014200BF0FCFA0D22514B1A704C4B187802F0C1FC012840F0FD87F2
:406340004F4B1B78012B40F0F88702200C2106F08DFB0024494B1C704FF4FA700BF0E2FA02202E2106F082FB424B1C7010BD02202E2106F07BFB0023404A13703B4AD370E1
:406380003C4A137010BD32200BF0CCFA02202E2106F06CFB0022374B1A7010BD0AF02CFF082840F0CA87374B1B78DBB2AA2B40F0BF80344B9B79DBB2C32B40F0B980314B7C
:4063C000DB79DBB23C2B40F0B3802F4B1B78062B7CD82C4AD278D2B2092A10D80133DAB2294B1A702748C178204B1344303183F86510C17830310220C9B206F06FFB214B85
:40640000DB78DBB20A2B0CD11F4B1A780132D2B21A70164B1344302183F86510022006F05DFB184BDB78DBB26A2B0CD1164B1A780132D2B21A700D4B13442D2183F86510EE
:40644000022006F04BFB0F4BDB78DBB21A2B3DD90C4BDB78DBB2422B38D800220B4B1A6030E000BF4086FF1F6F88FF1F9086FF1F9B86FF1FC485FF1FED85FF1F3387FF1F79
:40648000D385FF1F8C8CFF1F1189FF1F2C84FF1FA94AD278D2B2A9491944097A8A420DD1A7490A780132D2B20A704133D9B2A54B134483F86510022006F010FBA24A13680A
:4064C00001331360A04B1B68192BE1D99A4BDB78DBB20B2B15D19A4B1A7852B902202E2106F0C4FA0023974A82F86530974A137007E00220202106F0F1FA914A1378013BBD
:4065000013708D4BDB78DBB20C2B11D18C4B1B7873B10220052106F0A9FA8A4B884A127883F86520012283F883200422874B1A7064200BF0F7F90AF089FE10BD0AF05CFE93
:40654000082840F0FA867C4B1B78DBB2AA2B32D1794B9B79DBB2C32B2DD1774BDB79DBB23C2B28D1744BDB78DBB2392B04D07E2B1AD0382B1FD10CE002200A2106F076FACC
:4065800000236F4A1370724A137009226F4B1A7011E00220052106F069FA01226C4B1A7004226A4B1A7006E002202E2106F05EFA0022664B1A7064200BF0B4F90AF046FE07
:4065C00010BD0220012107F0ABFB052840D90A200BF0A8F90220212107F0A2FB052837D9022007F093FA012832D133200AF04CFE0220332107F0EEFA50B30022554B1A60AF
:406600000AE0022007F050FB4E4B1C4484F82900504A1368013313604E4B1C68072CF0D90220132106F022FA464CE37843F00403E3704FF4FA700BF075F902200E2106F05A
:4066400015FA00233E4A137023710C223F4B1A700AF0D2FD082840F07086374B1B78DBB2AA2B15D1344B9B79DBB2C32B10D1324BDB79DBB23C2B0BD12F4BDB78DBB23B2B3B
:4066800006D10220492106F0F1F902222F4B1A7064200BF047F90AF0D9FD10BD0AF0ACFD082840F04A86244B1B78DBB2AA2B72D1214B9B79DBB2C32B6DD11F4BDB79DBB215
:4066C0003C2B68D11E4B1B78052B25D81A4AD278D2B2092A0FD80133DAB2194B1A701648C178184B134430311971C17830310220C9B206F0F3F9104BDB78DBB20A2B0BD136
:406700000F4B1A780132D2B21A700E4B134430211971022006F0E2F9074BDB78DBB20B2B22D1074B1A78BAB90220052106F09EF90422064B1A7017E08C8CFF1F0C81FF1F4E
:406740001189FF1F9086FF1F2C84FF1FC485FF1FD385FF1FF485FF1F0220202106F0BEF9964A1378013B1370954BDB78DBB20C2B11D1924B1B7873B1924B5B79302B0AD05E
:406780000220052106F072F98C4B1A788D4B1A7104228D4B1A7064200BF0C4F80AF056FD10BD8A4B58788A4B19780022894B1B7808F0FAF9884B5B788BB902200C2106F0D9
:4067C00055F94FF416700BF0ADF800247D4BDC7002202E2106F04AF97B4B1C7010BD0220312106F043F90022744B1A702122764B1A7010BD0AF000FD082840F09E85704B40
:406800001B78DBB2AA2B40F0D2806D4B9B79DBB2C32B40F0CC806A4BDB79DBB23C2B40F0C680674BDB78583B3E2B00F2C080DFE803F020BE5464BE30BEBEBEBEBEBEBE7F89
:40684000BEBEBEBEBEBEBEBEBEBE9FBEBEBEBEBEBEBEBEBEBEBEBEBEAFBEBEBEBEBEBEBEBEBEBEBEBEBEBEBEBEBEBEBEBE8FB7BE740002202B2106F0F9F84FF4FA700BF06B
:4068800051F80220702106F0F1F80E224E4B1A708DE002205C2106F0E9F802200021D62240F2AD1306F0DEFA02200021892240F2A71306F0D7FA02200121242240F2B313A9
:4068C00006F0D0FA0220012178224FF47A7306F0C9FA13223C4B1A7069E002202B2106F0C5F84FF4FA700BF01DF80220702106F0BDF80E22344B1A7059E002202B2106F070
:40690000B5F84FF4FA700BF00DF80220702106F0ADF80E222C4B1A7049E002205F2106F0A5F80022254B1A701B22274B1A703EE002202B2106F09AF84FF4FA700AF0F2FF1F
:406940000220702106F092F80E221F4B1A702EE002202B2106F08AF84FF4FA700AF0E2FF0220702106F082F80E22174B1A701EE002202B2106F07AF84FF4FA700AF0D2FFB9
:406980000220702106F072F80E220F4B1A700EE002202E2106F06AF800220B4B1A7006E002202E2106F062F80022074B1A7064200AF0B8FF0AF04AFC10BD00BF1189FF1F99
:4069C0008C8CFF1F9086FF1FC485FF1F1489FF1F6F88FF1F4086FF1F688AFF1F0AF00CFC082840F0AA84A94B1B78DBB2AA2B40F0A484A64B9B79DBB2C32B40F09E84A34B71
:406A0000DB79DBB23C2B40F09884A04BDB78DBB27E2B07D10220312106F028F800229C4B1A700BE0994BDB78DBB2942B06D10220632106F01BF80122954B1A70954B1A7866
:406A4000072A26D8914BDB78DBB2092B0ED88F4BD978914B1344303183F88E1002202A2106F03CF88B4A137801331370874BDB78DBB20A2B0DD1874C2278874B13443021DF
:406A800083F88E1002202A2106F028F82378013323707E4BDB78DBB20B2B1AD17D4B1B787BB90220392105F0E1FF4FF4FA700AF039FF02202E2105F0D9FF0022744B1A70A6
:406AC00007E0013BDAB2734B1A700220202106F005F86E4BDB78DBB20C2B7DD16D4B1978002979D000236D4A13606D4A136015E0581C6C4A024492F8D720674C234493F86E
:406B00008E30303B9A4204D1644A13680133136002E00022614B1A60614B18600846604B1B689942E4D85F4B93F8D7205B4B1B689A420FD10220262105F098FF4FF4FA7097
:406B40000AF0F0FE0220702105F090FF0E22504B1A7041E00023514A1360514A136010E0514A1A4492F824104B4A1A4492F88E20914203D149490A6801320A600133484A61
:406B80001360474B1B689842EAD8444B1B68082B13D10220262105F069FF4FF4FA700AF0C1FE01205D2105F061FF0220702105F05DFF0E223D4B1A700EE00220272105F0D5
:406BC00055FF4FF4FA700AF0ADFE02202E2105F04DFF00222E4B1A7064200AF0A3FE0AF035FB10BD0AF008FB082840F0A683274B1B78DBB2AA2B40F09680244B9B79DBB2BF
:406C0000C32B40F09080214BDB79DBB23C2B40F08A801E4BDB787E3B162B00F28480DFE803F0730C204B5F82828282828282828282828282828282827B000220062105F02E
:406C400015FF0022134B1A70194B1978154B83F8A3100220242105F041FF1A220C4B1A7061E00220062105F001FF0022094B1A70104B19780B4B83F8A3100220242105F06F
:406C80002DFF1A22024B1A704DE000BF8C8CFF1FC485FF1F1189FF1F9086FF1F3887FF1F2C84FF1F1889FF1F0C81FF1F2F83FF1F3D86FF1F2E83FF1F0220062105F0D6FE79
:406CC0000022AC4B1A70AC4B1978AC4B83F8A3100220242105F002FF1A22A94B1A7022E00220062105F0C2FE0022A24B1A70A54B1978A24B83F8A3100220242105F0EEFEB0
:406D00001A229F4B1A700EE002202E2105F0AEFE00229B4B1A7006E00220702105F0A6FE0E22974B1A7064200AF0FCFD0AF08EFA10BD0AF061FA082840F0FF82924B1B78D7
:406D4000DBB2AA2B40F0C0808F4B9B79DBB2C32B40F0BA808C4BDB79DBB23C2B40F0B480844B1B78062B25D8874AD278D2B2092A0FD80133DAB27F4B1A708348C178834BBC
:406D800013443031D972C17830310220C9B205F0A5FE7D4BDB78DBB20A2B0BD1754B1A780132D2B21A70794B13443021D972022005F094FE744BDB78DBB20B2B1BD16D4BDC
:406DC0001A783AB90220702105F050FE0E226C4B1A7010E00220202105F080FE654B1B786A4A1A44D27A2C2A02D10021684A1170013B604A1370644BDB78DBB20C2B63D160
:406E00005C4B1B78032B5FD906225D4B1A700220392105F02BFE574B1A785C4BDA725D4B187805F0C1FC00283FD0544B93F8A320594B1B789A4204D140F2A710574906F022
:406E4000B9FD4E4B93F8A3204B4B1B789A4204D140F2B310514906F0ADFD484B93F8A3204F4B1B789A4204D140F2AD104B4906F0A1FD424B93F8A320424B1B789A4204D1EA
:406E80004FF47A70454906F095FD02203C2105F0EDFD4FF4FA700AF045FD0220702105F0E5FD0E22364B1A700EE00220552105F0DDFD4FF4FA700AF035FD02202E2105F0EF
:406EC000D5FD00222E4B1A7064200AF02BFD0AF0BDF910BD0AF090F9082840F02E822A4B1B78DBB2AA2B40F09C80274B9B79DBB2C32B40F09680244BDB79DBB23C2B40F001
:406F00009080214BDB787E3B162B00F28A80DFE803F0790C495969888888888888888888888888888888888881000220582105F09DFD0220002173224FF4936305F0F4FF96
:406F400002200021CF2240F29A4305F0EDFF02200121292240F29C4305F0E6FF022001217B2240F29E4305F0DFFF1C22044B1A7057E000BF1189FF1FD485FF1F1889FF1FB1
:406F8000C485FF1FC685FF1F8C8CFF1F7888FF1FF285FF1F4086FF1F3D86FF1F8388FF1F2E83FF1F02202B2105F060FD4FF4FA700AF0B8FC0220702105F058FD0E22A64B22
:406FC0001A702EE002202B2105F050FD4FF4FA700AF0A8FC0220702105F048FD0E229E4B1A701EE002202B2105F040FD4FF4FA700AF098FC0220702105F038FD0E22964BA7
:407000001A700EE002202E2105F030FD0022924B1A7006E00220702105F028FD0E228E4B1A7064200AF07EFC0AF010F910BD0AF0E3F8082840F08181884B1B78DBB2AA2BAF
:4070400049D1864B9B79DBB2C32B44D1834BDB79DBB23C2B3FD1814BDB787E3B162B3AD8DFE803F02A390C1B3939393939393939393939393939393939393200022006216F
:4070800005F0F4FC0022764B1A700122754B83F8A3201F22704B1A701DE00220062105F0E5FC00226E4B1A7002226E4B83F8A3201F22694B1A700EE002202E2105F0D6FC96
:4070C0000022654B1A7006E00220702105F0CEFC0E22614B1A7064200AF024FC0AF0B6F810BD0AF089F8082840F027815B4B1B78DBB2AA2B40F0AA80584B9B79DBB2C32BB9
:4071000040F0A480554BDB79DBB23C2B40F09E80534B1B782BBB514AD278D2B2092A0FD80133DAB24E4B1A704C48C1784E4B13443031D972C17830310220C9B205F0CEFCE9
:40714000464BDB78DBB20A2B0BD1454B1A780132D2B21A70444B13443021D972022005F0BDFC3E4BDB78DBB20B2B1BD13C4B1A783AB90220002105F079FC0022364B1A7067
:4071800010E00220202105F0A9FC354B1B78364A1A44D27A2C2A02D10021344A1170013B2F4A13702D4BDB78DBB20C2B4ED12C4B1B78012B4AD10220392105F057FC284BEE
:4071C0001A78294BDA72274B93F8A330012B08D125490A7B264B1A704FF493600B3106F0E9FB204B93F8A330022B08D11E490A7B204B1A7040F29A400B3106F0DBFB194B06
:4072000093F8A330032B08D117490A7B1A4B1A7040F29C400B3106F0CDFB124B93F8A330042B08D110490A7B144B1A7040F29E400B3106F0BFFB4FF4FA700AF073FB022050
