:400000000080002011000000C9180000C918000008B5044B1A6803F53F5302331A6001F055FC00BFFA46004010B5054C237833B9044B13B10448AFF300800123237010BD63
:400040007081FF1F0000000004240000084B10B51BB108480849AFF300800848036803B910BD074B002BFBD0BDE81040184700BF00000000042400007481FF1F0881FF1F21
:400080000000000008B562B601F008FE01F028FF02F018F801F010FE01F030FF052002F035F90022014B1A7008BD00BFCA84FF1F10B5002456E000F0D3FE01280BD010B169
:4000C000022826D04EE0642002F020F901204F2101F004FB46E0642002F018F9234B187800F03EFF06280FD1214B187800F038FF062809D101203C2101F0F0FA02203C21B9
:4001000001F0ECFA01242DE00120552101F0E6FA28E0642002F0FAF8144B187800F020FF06281BD1124B187800F01AFF062815D1104B187800F014FF06280FD10E4B1878D7
:4001400000F00EFF062809D101204A2101F0C6FA02204A2101F0C2FA022403E00120552101F0BCFA002CA6D010BD00BF5C86FF1FA881FF1FC883FF1FE083FF1F08B500237D
:400180000A4A13700A4A13704FF4FA7002F0BEF801202E2101F0A2FA4FF4FA7002F0B6F802202E2101F09AFA08BD00BFA681FF1F7883FF1F10B5A74B1B780A2B00F20D8319
:4001C000DFE813F00B00470078000B03B3000B03230188010B03FF01CA0201F09BFE082840F0FB829C4B1B78DBB2AA2B2BD19A4B9B79DBB2C32B26D1974BDB79DBB23C2B41
:4002000021D1954BDB78DBB2562B02D0572B0DD019E00120632101F061FA01238F4A13708C4A137000228E4B1A700CE00120632101F054FA0222894B1A700022854B1A7044
:400240000122874B1A70642002F060F801F08CFE10BD01F05FFE082840F0BF827E4B1B78DBB2AA2B20D17C4B9B79DBB2C32B1BD1794BDB79DBB23C2B16D1774BDB78DBB274
:400280005C2B02D07E2B08D00EE00120492101F025FA02226F4B1A7006E001202E2101F01DFA00226B4B1A70642002F02FF801F05BFE10BD01F02EFE082840F08E82664BC1
:4002C0001B78DBB2AA2B2AD1634B9B79DBB2C32B25D1614BDB79DBB23C2B20D15E4BDB78DBB25F2B04D07E2B12D05E2B17D107E001200B2101F0F2F90A22564B1A700EE0BE
:4003000001201D2101F0EAF90B22524B1A7006E001202E2101F0E2F900224E4B1A70642001F0F4FF01F020FE10BD01F0F3FD082840F05382484B1B78DBB2AA2B5FD1464B2C
:400340009B79DBB2C32B5AD1434BDB79DBB23C2B55D1444AD37823F00303D3703E4BDB78DBB23B2B3CD004D80F2B07D0102B19D045E0432B2CD07E2B3AD040E001200621FC
:4003800001F0ACF90022384B1A700120242101F0DDF9344AD37843F00203D37005222D4B1A702CE001200D2101F098F900222E4B1A702E4B1A700120472101F0C7F9294A2C
:4003C000D37843F00103D3700522224B1A7016E00120072101F082F906221E4B1A700EE001202E2101F07AF900221A4B1A7006E001202E2101F072F90022164B1A7064203E
:4004000001F084FF01F0B0FD10BD01F083FD08282ED1114B1B78DBB2AA2B15D10E4B9B79DBB2C32B10D10C4BDB79DBB23C2B0BD1094BDB78DBB27E2B06D101202E2101F0AD
:400440004DF90022034B1A70642001F05FFF01F08BFD10BDA681FF1F2488FF1F6885FF1F7883FF1FD084FF1F7B83FF1FA781FF1FAE4B187800F074FD072840F0AE81322052
:4004800001F044FFAA4BDB7813F003030FD0A74A1078A84A1178A84A00F0DEFE38B901202E2101F01BF90022A44B1A7010BD9F4C207800F069FDA24B1870207840F0100032
:4004C00001F082FC0120082101F008F907229B4B1A7010BD322001F019FF944B187800F03FFD0A2835D00B2803D0062840F075815FE0642001F00AFF8C4B187800F0B8FD9B
:4005000001280BD18F4B1B7843B9392101F0E6F8142001F0FBFE0D22884B1A70834B187800F0A6FD012840F05881864B1B78012B40F053810C2101F0D1F84FF4FA7001F03E
:40054000E5FE01202E2101F0C9F800227B4B1A7010BD642001F0DAFE744B187800F088FD01280BD1774B1B7843B9392101F0B6F8142001F0CBFE0D22704B1A706B4B18782F
:4005800000F076FD012840F028816E4B1B78012B40F023810C2101F0A1F84FF4FA7001F0B5FE01202E2101F099F80022634B1A7010BD01202E2101F091F800225F4B1A7029
:4005C00010BD01F0A7FC082840F007815E4B1B78DBB2AA2B40F0A4805B4B9B79DBB2C32B40F09E80584BDB79DBB23C2B40F09880564B1B78062B64D8534AD278D2B2092ACB
:4006000010D80133DAB2514B1A704F48C178484B1344303183F86510C17830310120C9B201F094F8484BDB78DBB20A2B0CD1474B1A780132D2B21A703D4B1344302183F899
:400640006510012001F082F83F4BDB78DBB26A2B0CD13E4B1A780132D2B21A70344B13442D2183F86510012001F070F8364BDB78DBB21A2B25D9344BDB78DBB2422B20D84B
:400680000022334B1A6018E02F4AD278D2B23149C95C8A420DD12D490A780132D2B20A704133D9B2224B134483F86510012001F04DF8274A136801331360254B1B68192B9B
:4006C000E2D9214BDB78DBB20B2B15D11F4B1A7852B901202E2101F001F80023144A82F86530164A137007E00120202101F02EF8164A1378013B1370134BDB78DBB20C2B84
:400700000ED1124B1B785BB10120052100F0E6FF0E4B1A78064B83F865200422074B1A70642001F0F3FD01F01FFC10BD5C86FF1FD084FF1F7B86FF1FDB84FF1FA681FF1FF3
:40074000CF84FF1F5F83FF1F2488FF1F7B83FF1FBC81FF1F0C81FF1F01F0DCFB08283CD11E4B1B78DBB2AA2B32D11C4B9B79DBB2C32B2DD1194BDB79DBB23C2B28D1174BBB
:40078000DB78DBB2392B04D07E2B1AD0382B1FD10CE001200A2100F0A1FF0023104A1370104A13700922104B1A7011E00120052100F094FF01220B4B1A7004220A4B1A70C3
:4007C00006E001202E2100F089FF0022064B1A70642001F09BFD01F0C7FB10BD2488FF1F7B83FF1F5F83FF1FA681FF1F10B5A74B1B780A2B00F20D83DFE813F00B00470059
:4008000078000B03B3000B03230188010B03FF01CA0201F07FFB082840F0FB829C4B1B78DBB2AA2B2BD19A4B9B79DBB2C32B26D1974BDB79DBB23C2B21D1954BDB78DBB283
:40084000562B02D0572B0DD019E00120632100F045FF01238F4A13708F4A137000228B4B1A700CE00120632100F038FF0222894B1A700022884B1A700122844B1A706420DD
:4008800001F044FD01F070FB10BD01F043FB082840F0BF827E4B1B78DBB2AA2B20D17C4B9B79DBB2C32B1BD1794BDB79DBB23C2B16D1774BDB78DBB25C2B02D07E2B08D0AD
:4008C0000EE00120492100F009FF02226F4B1A7006E001202E2100F001FF00226B4B1A70642001F013FD01F03FFB10BD01F012FB082840F08E82664B1B78DBB2AA2B2AD1EB
:40090000634B9B79DBB2C32B25D1614BDB79DBB23C2B20D15E4BDB78DBB25F2B04D07E2B12D05E2B17D107E001200B2100F0D6FE0A22564B1A700EE001201D2100F0CEFE64
:400940000B22524B1A7006E001202E2100F0C6FE00224E4B1A70642001F0D8FC01F004FB10BD01F0D7FA082840F05382484B1B78DBB2AA2B5FD1464B9B79DBB2C32B5AD1D4
:40098000434BDB79DBB23C2B55D1444AD37823F00303D3703E4BDB78DBB23B2B3CD004D80F2B07D0102B19D045E0432B2CD07E2B3AD040E00120062100F090FE0022384B4D
:4009C0001A700120242100F0C1FE344AD37843F00203D37005222D4B1A702CE001200D2100F07CFE00222E4B1A702E4B1A700120472100F0ABFE294AD37843F00103D370A4
:400A00000522224B1A7016E00120072100F066FE06221E4B1A700EE001202E2100F05EFE00221A4B1A7006E001202E2100F056FE0022164B1A70642001F068FC01F094FA30
:400A400010BD01F067FA08282ED1114B1B78DBB2AA2B15D10E4B9B79DBB2C32B10D10C4BDB79DBB23C2B0BD1094BDB78DBB27E2B06D101202E2100F031FE0022034B1A7070
:400A8000642001F043FC01F06FFA10BD7883FF1F2488FF1F6885FF1FA681FF1FD084FF1F7B83FF1FA781FF1FAE4B187800F058FA072840F0AE81322001F028FCAA4BDB784C
:400AC00013F003030FD0A74A1078A84A1178A84A00F0C2FB38B901202E2100F0FFFD0022A44B1A7010BD9F4C207800F04DFAA24B1870207840F0100001F066F90120082125
:400B000000F0ECFD07229B4B1A7010BD322001F0FDFB944B187800F023FA0A2835D00B2803D0062840F075815FE0642001F0EEFB8C4B187800F09CFA01280BD18F4B1B7832
:400B400043B9392100F0CAFD142001F0DFFB0D22884B1A70834B187800F08AFA012840F05881864B1B78012B40F053810C2100F0B5FD4FF4FA7001F0C9FB01202E2100F0B4
:400B8000ADFD00227B4B1A7010BD642001F0BEFB744B187800F06CFA01280BD1774B1B7843B9392100F09AFD142001F0AFFB0D22704B1A706B4B187800F05AFA012840F01C
:400BC00028816E4B1B78012B40F023810C2100F085FD4FF4FA7001F099FB01202E2100F07DFD0022634B1A7010BD01202E2100F075FD00225F4B1A7010BD01F08BF9082894
:400C000040F007815E4B1B78DBB2AA2B40F0A4805B4B9B79DBB2C32B40F09E80584BDB79DBB23C2B40F09880564B1B78062B64D8534AD278D2B2092A10D80133DAB2514BD1
:400C40001A704F48C178484B1344303183F86510C17830310120C9B200F078FD484BDB78DBB20A2B0CD1474B1A780132D2B21A703D4B1344302183F86510012000F066FDC6
:400C80003F4BDB78DBB26A2B0CD13E4B1A780132D2B21A70344B13442D2183F86510012000F054FD364BDB78DBB21A2B25D9344BDB78DBB2422B20D80022334B1A6018E00C
:400CC0002F4AD278D2B23149C95C8A420DD12D490A780132D2B20A704133D9B2224B134483F86510012000F031FD274A136801331360254B1B68192BE2D9214BDB78DBB278
:400D00000B2B15D11F4B1A7852B901202E2100F0E5FC0023144A82F86530164A137007E00120202100F012FD164A1378013B1370134BDB78DBB20C2B0ED1124B1B785BB19A
:400D40000120052100F0CAFC0E4B1A78064B83F865200422074B1A70642001F0D7FA01F003F910BDA881FF1FD084FF1F7B86FF1FDB84FF1F7883FF1FCF84FF1F5F83FF1F59
:400D80002488FF1F7B83FF1FBC81FF1F0C81FF1F01F0C0F808283CD11E4B1B78DBB2AA2B32D11C4B9B79DBB2C32B2DD1194BDB79DBB23C2B28D1174BDB78DBB2392B04D0ED
:400DC0007E2B1AD0382B1FD10CE001200A2100F085FC0023104A1370104A13700922104B1A7011E00120052100F078FC01220B4B1A7004220A4B1A7006E001202E2100F08D
:400E00006DFC0022064B1A70642001F07FFA01F0ABF810BD2488FF1F7B83FF1F5F83FF1F7883FF1F08B5FFF72DF9FFF741F9FFF7A5F90123084A1370084A1370064B1B78AF
:400E4000012B02D0022B03D0F8E7FFF7B3F9F5E7FFF7CCFCF2E700BF6885FF1F7683FF1F10B5FF233A4A13703A4A13703A4A13703A4A137000243FE0204600F0A5FF6420DB
:400E800001F044FA00F052FF38B1314B1B78FF2B03D12F4B1C7000F079FF00F047FF38B12B4B1B78A34203D02A4B1C7000F06EFF00F03CFF58B1264B1B78A34207D0254BBC
:400EC0001B78A34203D0244B1C7000F05FFF00F02DFF78B11E4B1B78A3420BD01D4B1B78A34207D01C4B1B78A34203D01B4B1C7000F04CFF0134E4B20F2CBDD9144B1B7839
:400F0000FF2B0BD0134A1278FF2A07D0134A1278FF2A03D0104A1278FF2A0FD1FF2B0FD10C4B1B78FF2B0DD10B4B1B78FF2B0BD10A4B1B78FF2B09D0012010BD022010BD42
:400F4000012010BD012010BD012010BD002010BD5C86FF1FA881FF1FC883FF1FE083FF1F10B500F031FF322001F0D0F900F0DEFE38B100F0ADFEC0F3071400F007FF20461E
:400F800010BD002010BD00BF10B588B00446364A6B461068516803C3127A1A7044F0200000F012FFFF22314B1A70642001F0AEF900F0BCFE002848D000F08AFE44F0D00431
:400FC000A04244D100F0E2FE002407E008AB234413F8200C00F0F8FE0134E4B2082CF5D9C82001F093F900F0A1FE12280AD8002038E000F06DFE08AB234403F8140C01340E
:40100000E4B200E00024122CF3D900F0BFFE9DF80C30BA2B1DD19DF81D308D2B1BD19DF81E308A2B19D19DF81830B12B17D19DF81A30B22B15D0B32B03D0B12B03D10120EF
:4010400010E003200EE000200CE000200AE0002008E0002006E0002004E0002002E0002000E0022008B010BD082400007D83FF1F30B58BB0044640F0400000F0A5FE4FF4A4
:40108000967001F043F900F051FE27280AD90020D9E000F01DFE0AAB2B4403F8280C0135EDB200E0002500F041FE0028F1D100F06DFE24B91023654A82F8A23003E0634B6B
:4010C00083F8A24023469DF80020FF2A40F0B4809DF80220F82A40F0B1809DF8042002F00F02013B9A4204D00020ACE00133DBB200E000230AAA1A4412F8282CF62AF5D140
:40110000262BF3D80133DBB20AAA1A4412F8282C02F00F0201324D4981F8A32001E00133DBB20AAA1A4412F8282CF72AF7D1262BF5D80133DBB2012209E04448104401F0A3
:401140000F0180F8A4100133DBB20132D2B20AA9194411F8281CF929EFD1262BEDD8013A3A4981F8A4200133DBB2012209E03748104401F00F0180F8B4100133DBB201329A
:40118000D2B20AA9194411F8281CFA29EFD1262BEDD8013A2D4981F8B4200133DBB2012209E02A48104401F00F0180F8AB100133DBB20132D2B20AA9194411F8281CFB2997
:4011C000EFD1262BEDD8013A204981F8AB200233DBB20AAA1A4412F8282CF02A30D1262B30D81B4B1B78A34213D101F1AB0440F2C910214600F02AFB4FF4E97004F1090106
:4012000000F024FB40F2DB10E11F00F01FFB012019E0104C4FF4F170214600F017FB4FF4FA70E11F00F012FB40F2EB1004F1090100F00CFB012006E0002004E0002002E01B
:40124000002000E000200BB030BD00BF7085FF1F5C86FF1F1B86FF1F2DE9F04186B000240194029403940494ADF81440C14C2478651FEDB2012D04D8012B05D04FF0040EF9
:4012800004E04FF0040E01E04FF0030E052C03D1022B01D14FF0050E072C03D1012B01D14FF0000E072C03D1022B01D14FF0020E002501240FE025B10135EDB217197F78C0
:4012C0001755175D2C2F04D10135EDB217197F7817550134E4B21778A742ECD21DB1013DEDB2013F1770032D00F2EA81A14C94F800C0BCF1070F00F0EF80FF248DF804402F
:401300006EF01F048DF8054063F00F048DF80640F4248DF80740F8248DF80840052406E006AE2644E02706F8147C0134E4B2A046914E36780536761BB442F1DB0DE0C4EB3A
:4013400008063744D65D06AF274406F00F0666F01F0607F8146C0134E4B2177808EB0706B442ECDB07E006AE26444FF0E00806F8148C0134E4B20A2CF5D9FB248DF80F40E9
:4013800000248DF810400CE006AE264416F8146C06F00F069DF8108046448DF810600134E4B20B2CF0D99DF81040644204F00F0464F01F048DF81040F0248DF81140BCF1AD
:4013C000050F23D1FB248DF80E4000248DF80F400CE006AE264416F8146C06F00F069DF80FC066448DF80F600134E4B20A2CF0D99DF80F40644204F00F0464F01F048DF8FF
:401400000F40F0248DF810400C2600E00D26012B62D1032D03D1013F1770013DEDB2F6248DF808404C1E64F01F048DF80940F8248DF80A40072406E006AE2644E02706F873
:40144000147C0134E4B227464C4E36780636761BB442F1DB0DE03E1B6644965D0DF1180CA44406F00F0666F01F060CF8146C0134E4B292F800C007EB0C06B442EBDB06E01B
:4014800006AE2644E02706F8147C0134E4B20B2CF6D9FB248DF8104000248DF811400CE006AE264416F8146C06F00F069DF811703E448DF811600134E4B20C2CF0D99DF828
:4014C0001140644204F00F0464F01F048DF81140F0248DF812400E26264C2478072C40F0C780FF248DF804406EF01F0E8DF805E063F00F048DF80640F4248DF80740F824B8
:401500008DF80840052406E006AE2644E02706F8147C0134E4B2A646174E367805362F46761BB442F0DB0DE0C4EB0E052E44955D06AE264405F00F0565F01F0506F8145C2F
:401540000134E4B216780EEB0605AC42ECDB07E006AD25444FF0E00E05F814EC0134E4B20C2CF5D9FB248DF8114000248DF8124013E000BF6083FF1FAD81FF1F6186FF1F67
:4015800006AD254415F8145C05F00F059DF812E075448DF812500134E4B20D2CF0D99DF81240644204F00F0464F01F048DF81240F0248DF81340012B59D1F6238DF808309B
:4015C0004B1E63F01F038DF80930F8238DF80A30072306E006A91944E02401F8144C0133DBB21C463C4909780731C91B8B42F1DB0CE0E11A3144515C06AD1D4401F00F0100
:4016000061F01F0105F8141C0133DBB231198B42EFDB06E006AA1A44E02102F8141C0133DBB20E2BF6D9FB238DF8133000238DF814300CE006AA1A4412F8142C02F00F0269
:401640009DF814100A448DF814200133DBB20F2BF0D99DF814305B4203F00F0363F01F038DF81430F0238DF81530112600E00F26044640F0200000F0A7FB322000F046FE52
:4016800000F054FBF0B100F023FB44F0D00398421AD100F07BFB002507E006AB2B4413F8140C00F091FB0135EDB2B542F5D9322000F02CFE2046FFF753FC034630B906E06E
:4016C000002304E0002302E0002300E00123184606B0BDE8F08100BF6186FF1F38B504460D46012817D1AA2000F05CFC702000F059FC280A00F056FCE8B200F053FCCC200E
:4017000000F050FC332000F04DFCC32000F04AFC3C2000F047FC022C17D1AA2000F0E0FC702000F0DDFC280A00F0DAFCE8B200F0D7FCCC2000F0D4FC332000F0D1FCC32040
:4017400000F0CEFC3C2000F0CBFC38BD38B50D46144601283CD1AA2000F024FC982000F021FC002000F01EFC04EB840404EB840404F13F00C0B200F015FC002000F012FC5B
:40178000232000F00FFC242000F00CFCC52000F009FC022000F006FC002000F003FC002000F000FCFF2000F0FDFBFF2000F0FAFB284600F0F7FBCC2000F0F4FB332000F03D
:4017C000F1FBC32000F0EEFB3C2000F0EBFB38BDAA2000F085FC982000F082FC002000F07FFC04EB840404EB840404F13F00C0B200F076FC002000F073FC232000F070FC1A
:40180000242000F06DFCC52000F06AFC022000F067FC002000F064FC002000F061FCFF2000F05EFCFF2000F05BFC284600F058FCCC2000F055FC332000F052FCC32000F06C
:401840004FFC3C2000F04CFC38BD00BF30B583B00D468DF80500000A8DF80400002000F08BFC00F01DFD5420002100F091FC58B1002027E002AB234413F8040C00F0E4FC6B
:40188000E8B90134E4B200E00024012CF2D9002408E0285D00F0D8FC98B9052000F036FD0134E4B22B78A342F3D200F0B1FC062000F02CFD012000F05FFC012002E000204F
:4018C00000E0002003B030BDFEE700BF08B5104E104D16E029686B68AC68002204E051F8040B43F8040B0432A242F8D1E868002203E0002143F8041B04328242F9D110355A
:40190000013E002EE6D100F043FDFFF78BFAFEE7010000007424000008B5124A124B1A60124A136843F40073136000230AE0032B03D80F4A52F8231000E00E490E4A42F8C1
:40194000231001332F2BF2D90C4B1A780C4B1A70094A0C4B1A6000F0C3F800220A4B1A6008BD00BF0004FA050CED00E014ED00E000000000C91800000080FF1FBC7600401F
:401980000481FF1F08ED00E00081FF1FFEE700BFF0B40022174611E050F82760F3B226F0FF0608E001EB420511F812406D78A5550132013BDBB2002BF4D10137242FEBD939
:4019C000F0BC7047064B1B78DBB203F00701054A11701B09013213704422034B1A707047CF0100496E5800407658004008B50A46002100F0FEFC08BD38B533222B4B1A801D
:401A000018232B490B7002310A802A4A13704FF49C71023211800232137040F2092102321180023213700222234B1A7008224FF040231A70032103F5007319701F4B1B789D
:401A4000DBB21F490B701F4B1A8041F25122023B1A80002419250CE01B4B1B7803F0010343EA440404F003044FF4F07000F03CFC013D0DB1032CEFD115B90320FFF786FFA5
:401A8000124B4FF480721A8007221A70002210490A704820023108701A700222033B1A700C4A137843F00F03137038BD80400040824000408640004000430040080100494E
:401AC000A146004022420040254200400440004006400040A243004008B500F07FFC08BD70B572B63A4A137843F00403137000240CE0384963001A1952000A4423445B00B6
:401B0000C8589188FFF772FF0134E4B2072CF0D900240BE02F49A3001A1952000A44106B516B0622FFF7D8FF0134E4B2002CF1D04FF090402849FFF72BFF284A137843F08D
:401B4000020313701032137843F002031370244C237843F040032370A2F58632513A137843F0100313701F481F490A22FFF7B4FF1E481F490A22FFF7AFFF1E481E490A22D8
:401B8000FFF7AAFF1D481E490A22FFF7A5FF1D481D490A22FFF7A0FF1C481D490822FFF79BFF1C4A137843F0080313701A4E01253570FFF721FF81233370184B1D70FFF7BC
:401BC00001FF174821460E22FFF786FF70BD00BFE8460040142400009400004803500140A0430040C0510040240D0048F0510040300D0048105100403C0D0048205100409C
:401C0000480D004850510040540D004862510040600D0048224300400048004004000840B043004008B503200B4900F085FB0320072100F095FB7222084B1A702022013BCB
:401C40001A700722693B1A70482210331A70002251331A7008BD00BFE11D00008E64004008B500F049FB0A4A137843F020031370013A137843F0100313700822054B1A603C
:401C8000054A137843F01003137000F039FB08BD9E64004000E100E09564004008B5054B1B7823B9FFF7BEFF0122024B1A70FFF7D7FF08BD8C81FF1F0822014B1A607047D0
:401CC00000E100E00822014B1A60704780E100E010B5FFF7F7FF124A53889BB2918889B2927912F0FF0F01D18B4211D00D4AD45CE4B201339BB2FF2B00D90023084A53802E
:401D0000937913F0FF0F06D00022054B9A7102E0054B1C78E4B2FFF7CFFF204610BD00BF8C81FF1F2487FF1F4E64004010B5FFF7C9FF154B5A8892B29B889BB29A4207D10E
:401D4000114B9B7913F0FF0F19D04FF4807417E00D4B5A8892B29B889BB29A4205D20A4A938854881C1BA4B20AE0074A9488A3B25488A4B21C1B04F58074A4B200E00024F6
:401D8000FFF79AFF204610BD8C81FF1F08B500F0B3FA0B4B1A7842F001021A701A7802F0FE021A7000F0ACFAFFF78CFF054B00225A809A809A71DA71FFF77EFF08BD00BF5D
:401DC0009E6400408C81FF1F034B1B7813F0040FFAD1024B187070476564004045640040184B1B78DBB229E0174B1B889BB2174A1278D2B21649CA54164B1B7813F0FF0F67
:401E000002D00122144B1A700F4A138801339BB2138013889BB2FF2B02D900220A4B1A80094B1A8892B20D4B1B889BB29A4202D10122084B1A70034B1B78DBB213F0200FED
:401E4000D2D170476D6400409081FF1F4E6400402487FF1F9281FF1F9381FF1F8E81FF1F08B501200B4900F067FA0120072100F077FA7222084B1A70202202331A700722B5
:401E80009A331A70482210331A70002251331A7008BD00BFBD1F00008864004010B500F02BFA04460B4A137843F0200313700232137843F0100313700222074B1A60074A32
:401EC000137843F01003137000F0F2F9204600F017FA10BD9864004000E100E09565004008B5054B1B7823B9FFF7BAFF0122024B1A70FFF7D3FF08BD9681FF1F0222014BF1
:401F00001A60704700E100E00222014B1A60704780E100E010B5FFF7F7FF124A53789278DBB2934206D10F4BDB7813F0FF0F14D0142413E00B4A53789278DBB2934205D282
:401F4000084A937854781C1BE4B207E0054A937854781C1B1434E4B200E00024FFF7CEFF204610BD9681FF1F08B500F0C5F90B4B1A7842F001021A701A7802F0FE021A70FA
:401F800000F0BEF9FFF7C0FF054B00225A709A70DA701A71FFF7B2FF08BD00BF986500409681FF1F034B1B7813F0040FFAD1024B187070476565004045650040184B1B78D5
:401FC000DBB228E0174B1B78DBB2174A1278D2B21649CA54164B1B7813F0FF0F02D00122144B1A700F4A13780133DBB213701378DBB2132B02D900220A4B1A70094B1B78BA
:402000000D4A1278DBB2934202D10122084B1A70034B1B78DBB213F0200FD3D1704700BF6A6400409881FF1F486500402488FF1F9981FF1F9A81FF1F9781FF1F08B502204E
:402040000C4900F079F90220072100F089F97222094B1A702022A3F583731A7007225E3B1A70482210331A70002203F5A7731A7008BD00BFF92000008A65004010B500F05F
:402080003BF904460C4A137843F020031370A2F58372137843F0100313700422074B1A60074A137843F01003137000F00FF9204600F026F910BD00BF9A65004000E100E078
:4020C0009465004008B5054B1B7823B9FFF7B6FF0122024B1A70FFF7D1FF08BD9C81FF1F034B1B7813F0040FFAD1024B187070476465004047640040184B1B78DBB228E0F3
:40210000174B1B78DBB2174A1278D2B21649CA54164B1B7813F0FF0F02D00122144B1A700F4A13780133DBB213701378DBB2132B02D900220A4B1A70094B1B780D4A12782C
:40214000DBB2934202D10122084B1A70034B1B78DBB213F0200FD3D1704700BF646400409E81FF1F496500403888FF1F9F81FF1FA081FF1F9D81FF1F044A137803F0EF03E8
:40218000000100F01000184310707047605100401A4B1B78DBB2102B29D1194B1B7813F0080F26D14FF40042164B1A604000C0B229B140F001004922104B1A7002E0452223
:4021C0000E4B1A70104B1870012201331A700F4B1B7813F0010FFAD00C4B1B7803F00A030A2B08D11022054B1A700320704702207047012070470020704700BF5D88FF1F46
:40220000D949004080E100E0D8490040D74900400A4B1B7813F0040F0ED01023074A13700421023A1170064A1370064B1B7813F0210FFAD00020704702207047D9490040AF
:402240005D88FF1FD7490040114B1B7813F0040F1BD0104B18700422013B1A7046220E4B1A700E4B1B7813F0010FFAD00B4B1B7813F0020F04D16022074B1A700020704721
:402280006022054B1A70032070470220704700BFD9490040D84900405D88FF1FD7490040024B187800221A70704700BF4E88FF1F054A137843F0010313701032137843F0A3
:4022C00001031370704700BFA2430040054A137843F0020313701032137843F002031370704700BFA24300400230800803D000BF01380046FCD17047EFF3108072B6704764
:4023000080F31088704700BF01BE704710B5044605E0084B1868FFF7E7FFA4F50044B4F5004FF6D8034B586800FB04F0FFF7DCFF10BD00BF6081FF1F70B504460E46074BF2
:402340001D681F2802D90020FFF7DEFF04F01F04103455F8240045F8246070BD08ED00E038B504460D46072902D90020FFF7CCFF1F2C02D90020FFF7C7FF04F01F0000F1B8
:40238000604000F564406D01EDB2057038BD00BF0E4B70B51E460E4C0025E41AA410A54204D056F8253098470135F8E700F050F8084B094C1E46E41AA4100025A54204D073
:4023C00056F8253098470135F8E770BD5C2400005C2400005C2400006424000010B5431E0A44914204D011F8014B03F8014FF8E710BD03460244934202D003F8011BFAE77C
:402400007047000000000000FFE9FEE0E1E0FBEEF0000000C8490040190000510040100030510040200000000140001000140140000800400140000A004C01400002005081
:4024400001402000605200401C0D004806000000F8B500BFF8BC08BC9E4670474D00000019190000F8B500BFF8BC08BC9E46704729000000882400000881FF1F6800000031
:40248000F00600000000000000000000254231271D28292A222B2C2D353423241B1E261F21321C30202F000004313233340000003046464646463846454542454232444327
:4024C0003000000031383932383030355465737420646520496D707265736F72610000000000E02EC05D00001800000000366E0100000000000000000000000000000000C8
:40250000000000000000000000000000000000000000000000000000000000000000000000000000000000000000000000000000000000000000000000000000000000009B
:40254000000000000000000000000000000000000000000000000000000000000000000000000000000000000000000000000000000000000000000000000000000000005B
:40258000000000000000000000000000000000000000000000000000000000000000000000000000000000000000000000000000000000000000000000000000000000001B
:4025C00000000000000000000000000000000000000000000000000000000000000000000000000000000000000000000000000000000000000000000000000000000000DB
:020000040003F7
:0200000480007A
:4000000008520040096400400365004003030140670401403F0501406306014046070140520801404D090140610A0140550B0140490C01403F0D01405A0E0140380F01404E
:400040005F14014054150140201701407218014053190140421A0140431B01400540014007410140084201400143014003440140054501400946014003470140014801401F
:40008000024901400E4C01400F4D01400750014002510140088009800C401404282029202CD07C208438850F870F88728A388B728C388D3C8E72840F850F8A728810E201E8
:4000C000E60200430101023004500C800F021002120114031547164017101830191E1A471B212001220E237B28712A082C242D1D2E412F6230803103333034803560367FE6
:40010000370C39803B2A3E103F40400145104650480A49FF4A074BFF4C404D204EF04F05500854185604580459045A045B045C335D135F01604061A862406320823E841987
:4001400086208C238E149003922498239A0C9C40A808A901B020B101B440B501B61FBA80BE11BF01C046C102C6BCC7E0C82CC9FFCAFFCBFFCEF0CF44D00CD401D804D90462
:40018000DA04DB04DC13DD33DF01E6C0EA40EB02008002400320054107A009200B600D200E010F82120813811520180A19011D401E84216022082360263129412A402F0805
:4001C0003120320838023B4141404520464048404C045110531057E15B025C205E85600462828280860389018C01910198109E01AD01B601C0BDC2DEC44BCA29CC06CE09D2
:40020000D0A8D220D6F1D80DE402E605EA0805140D090F101003120C1303150C161E1711181919101B0C200322142310291C2B022C082D20301C35203603371F38803A02AF
:400240003E403F1040014751483049FF4A074BFF4C404D204EF04F055008580459045A045C015D015F01604061A862406320804281028421870188E38A0C8E63900F92E025
:400280009463980C9C0C9EE3A0EFA408A804AB01AC10B010B101B280B302B40FB660B808BA20BB80BE01BF05C015C104C5E0C6C0C70BC81AC9FFCAFFCBFFCEF0CF44D00C20
:4002C000D401D804D904DA04DB04DD21DF01E6C0EA40EB0200100102021208400A200B840C100E60102911401280150116011A021B161D801E4020022101228427092B048C
:400300002C802E802F04352037053A043B013C103D013E0A3FA04242458049014A014B01511456015708588559108008851087208B04910194049502960298109E019F0255
:40034000A231A708A820AB80B220C00FC27FC49FCAB4CCE0CE53D019D208D60FE002E201004F023003010508083309180A480C7F0D10120213C61402153917C2183319B9DC
:400380001A441B441C20220C241025FF283029E72B182D01319832013358343E351F3640372038803A203B283E043F4056025713580459045B045C025F018A03905C9202F0
:4003C00094CC961198099A909CD09E0CA210A414A820B020B21FB420B6C0B880BE41C014C106C50CC6BEC80DC9FFCAFFCBFFCEF0CF44D00CD804DA04DC02DD02DF01E6C0F7
:40040000EA40EB0200100510074109800A280B500C800D040E4810201101124415021718185019A01A081D101E11261927022D102E802F28361A3C803E283F014040418015
:4004400049084B10502052805F02651067086D606E047448762877047C087D0880128304854086108808910A924093A19402961197089A449B599C0A9D819E90A080A20421
:40048000A701B010B124B310C0D2C2FFC47ECA70CCE0CEF0D009D204D680E620E82000010302040708010A040E0610081E0123022401260228072F013207350236083701C6
:4004C0003A283E403F10400546054701481449FF4A074BFF4C404D204EF04F05500854185604580459045A045B045C035D025F01604061A86240632083028444862A8F021D
:40050000942196CA9C029E15A467A867AD01B080B101B260B302B418B607BB80BE10BF05C015C104C206C402C60EC70CC814C9FFCAFFCBFFCC62CDA0CEF0CF41D00CD6026B
:40054000D711D804D904DA04DB04DC22DD22DF01E640E702E910EA30EB10ED10EE10EF120041032804040504080209800D040E0210101208151419401B381C021D241E4228
:400580002210230124102501270129012A802F0138023C903E214520474149804C044F805244544057045B025E106080622063026D7474807608771879027B408080821064
:4005C000854087028A208F019049938094049544970898109B409C089D209E389F11A180A20CA340A491A511A71CA901AF40B401B501C02FC2A9C466CA19CE91D0B0D23859
:40060000D621D80DE060E408EC410004010F050A09050A770FCF11FF153C168017C319301A801C191DCF1E621F30204C21202201241825102620281929B02A262B4F308036
:40064000313C3370340735B0367837033AA03B0A3E0154185604580459045B045C215D205F018109833285028705895F8A018C029514970A995F9D409E01A402A802B001BA
:40068000B140B318B507B602B720BE01D41CD604D804D904DB04DC32DD30DF010140020405210B010E220F081124148816101B411C081E021F4120502181220423042408D5
:4006C000261427422C802E082F043020324436043751380139103B043C263F805A065F026110620263026620674282028740888491109286930194519502970498109910A2
:400700009A04A020A208A718C053C2E1C476CAE0CCFECEF7D683D8BDE22001040202050609020A020F3912011526171919391B061E012111250726042738293F3006311090
:40074000330E34013507360637203B283E514024410642054401460E470C481449FF4AFF4BFF4C624DA04EF04F41500C56025710580459045A045B045C305D335F01664011
:40078000670269106A306B106D106E106F1284048612881F89038A208C068E09943F9503983199019A0E9B029C139E24A23FA826A901AA19AB02B101B230B408B607B7028D
:4007C000B980BA88BF01D804D904DC33DF0100110544070809400B800C100E010F2013041404150219111A011D441E04200221102211232925402740281029012A202C04F7
:400800002F083210330834103608372838683A023E203F304111420148014B10520453405B40682069106A8070147202C0EAC2E9C454CA27CC66CE2FD00DD20CD608032091
:4008400005281101130615181722180119121B20212023182538260227042E02313E3301340236013E103F04400145014605480549FF4A074BFF4C404D204EF04F05500859
:400880005401580459045A045B045C105D105F01604061A862406320850188998A628EF7944C95069681971898189AA09C04A110A499A506A626A728A932AF3CB080B207A0
:4008C000B301B478B538B706B980BA28BB20BE01BF44C062C103C50CC60EC70BC815C9FFCAFFCBFFCEF0CF44D00CD401D804D904DA04DB04DF01E6C0EA40EB0205B206804F
:400900000B040C800E100F0810221704180419801B401D101E501F14202021022401271428102A022C802D802F1431023228370439083A013F04400147144B044D204F08C3
:4009400050805688588059015A085B205C205D025E405F0878207B048082841087029108920894049708981099019A039B289D209E889F06A020A228A480A740AA10AC8095
:40098000B010B102B210B602C0C0C2E2C425CAF3CC47CE43D068D220D6FFE008E204E603EA01EE0680208B018E0491089208940496209708981099019A039B299C809D226B
:4009C0009E9C9F06A228A480A602A740A910AA48AC64AF02B001B340B540B710E201E804EA02EE0C040C05E7065009E70A780C4C0D800E3010241240140219441A011B2ADA
:400A00001D021E011F15244C26102D212F4A300231803240331834013560363C37073A803E153F044065410442014402450C46E0480949FF4AFF4BFF4C624DA04EF04F41EE
:400A4000500C580459045A045C025F016640670269106A306B106D106E106F12810284E78C448D068E2A8F089021924A9402961599089B039D089F05A080A4E7AB0FB060C1
:400A8000B10BB207B418B507B680BB22BE10C065C104C201C402C5C0C70EC812C9FFCAFFCBFFCC62CDA0CEF0CF41D00CD804D904DA04DC21DD01DF01E640E702E910EA309D
:400AC000EB10ED10EE10EF120048056809010A100D080E020F48110413021708184419841A901DC01E401F282210234824802692272029202E8031803210340136913901DC
:400B00003B403D603E044004438144414720480149914D104E024F0852045420820489088B218C208E409151920493A0940296209740984099289D019E80A154A201A58059
:400B4000A602A701A90CAC40AE10B040B208B320B680B708C0E5C2FCC42CCA14CC3CCE79D0BDD23CE420E610E890EA40EE80011C0263036204730518060C09080C7F0D40B9
:400B80001002117F141F166017041803191C1B611C011D1020082124238024042560280C29672B182C5C2E232F633010311F322C3380340F364C37603A283B023E01560257
:400BC0005713580459045B045C115D105F01850188018F0192019A019F01A001A101A701B001B501B802BB80BF10D804D904DC11DF0100060301051008900AA00D010F08AA
:400C000010A812021701180619111A201B841E402181220A26202701289029942F503080321833013640386839023D885901680469046B0270BC826085808C808D019040C0
:400C4000928093A09402950499849D109F03A001A144A240A404A501A780AA80AF08B2D0B440C04DC25FC41FCACFCC1FCE5FD601E008E820EA81EE30322033013520370438
:400C8000CCF0830486209D209F05A620E280E6403E10812087019D209F01CE20E240E680961010101420C40C020452209830C002D4040640528086809830AA20B604C00480
:400CC000D404EE089830B240EE019610AA10EA800940104013201480660178107C208E019830C202C40ED801DE03E4020802678078407C8087408C0298C0AB20B140C20863
:400D0000D801DC01DE04E208EE04000F0A0F0C0D0E0E10071A031C0700FF03C020300000300000003000000030003000000000001000201010001000000000008000408019
:400D40008000800000000000020004020200020000000000E00010E02000200000000000001010000000000000000000000000000000000000000000000000000000000037
:400D80000000000000000000000000000000000000000000000000000000000000000000000000000000000000000000000000000000000000000000000000000000000033
:400DC00000000000000000000000000000000000000000000000000000000000000000000000000000000000000000000000000000000000000000000000000000000000F3
:400E000000000000000000000000000000000000000000000000000000000000000000000000000000000000000000000000000000000000000000000000000000000000B2
:400E40000000000000000000000000000000000000000000000000000000000000000000000000000000000000000000000000000000000000000000000000000000000072
:0200000490006A
:0400000000004005B7
:0200000490105A
:04000000BC90ACAF55
:0200000490303A
:0200000051EFBE
:0200000490402A
:4000000000000000000000000000000000000000000000000000000000000000000000000000000000000000000000000000000000000000000000000000000000000000C0
:400040000000000000000000000000000000000000000000000000000000000000000000000000000000000000000000000000000000000000000000000000000000000080
:400080000000000000000000000000000000000000000000000000000000000000000000000000000000000000000000000000000000000000000000000000000000000040
:4000C0000000000000000000000000000000000000000000000000000000000000000000000000000000000000000000000000000000000000000000000000000000000000
:0200000490501A
:0C00000000012E12306900012E248258ED
:00000001FF